:0300000002517832
:0C517800787FE4F6D8FD7581210251BF5C
:1058590012384B1257001257D112590812592B12EC
:085869003666125628022501E3
:1050EB00000000AA0001904C0000023A00019286D9
:1050FB000008C460000A56E600000474000A5B5AFC
:10510B00000BB08000160BDA000005F0001611CA78
:10511B00001A4D2000305EEA000001A400306C46FE
:10512B00002EC200005F2E46000017C000000000DA
:10513B000000000000000000000000000000000064
:10514B000000000000000000000000000000000054
:10515B000000000000000000000000000000000044
:0D516B000000000000000000000000000037
:0554650042018BEF166F
:10565600900148E0FCA3E0FDA3E0FEA3E0FF1208F2
:015666006BD8
:10566700E4FEEF30E704D2828002C282C281EF25D6
:09567700E0FFD2810EEEB408E957
:015680002207
:10588900E4FFFDC281D281A283E433FEEF25E04E1D
:06589900FF0DEDB408ED67
:01589F0022E6
:1054F500E4900009F0A3F0C2A47F90125667E4FF80
:10550500125667E4FF125667E4FF12566712588970
:10551500EFFE900009E04EF0A3E0F01258899000EC
:1055250009E0FEA3E04FFF900009EEF0FEA3EFF0C7
:02553500D2A4FE
:015537002251
:0A595F00C2A47F04125667D2A422EE
:0F52FF00900145EBF0A3EAF0A3E9F0A31208AA8F
:10530E00C2A7C2A47F0312566778101256567808A9
:10531E00125656900148A3A3A3E0FF125667E490DD
:10532E00014EF0A3F090014CE0FEA3E0FFC390010C
:10533E004FE09F90014EE09E502D125889900145EE
:10534E00E0FBA3E0FAA3E0F990014EE0FCA3E0F548
:10535E00828C83EF12071090014FE004F070C6901C
:09536E00014EE004F080BED2A45F
:015377002213
:1057000012595F1254F590018BEEF0A3EFF0E47F95
:10571000AAFEFDFC9050EB12089AC312085A6003CF
:085720007F0122D2A47F0022C8
:0B342300900137EBF0A3EAF0A3E9F002
:10342E001206B8FF90013EF0900137E0FBA3E47561
:10343E00F001120787A9F0FA1206B890013FF0EFDB
:10344E00C394814011E0FF9440400BEFF46007906D
:10345E00013EE0B4FF3DE4900140F090013DE07587
:10346E00F002A4FF900140E0C39FE5F06480F87481
:10347E008098400302366590013AE0FBA3E475F0B4
:10348E000112079DA9F0FAE41206FE900140E00435
:10349E00F080C890013FE0C3947F5006E024C0F056
:1034AE00800790013FE024BFF090013EE0247FF0C2
:1034BE0090013DE06420705FA3E0FF7E007C007D04
:1034CE00BE120960A804A905AA06AB07A3E0FFE493
:1034DE00FCFDFEEB2FFFEE3AFEED39FDEC38FCE481
:1034EE007B80FAF9F81207FD9001411208AA90515B
:1034FE002712088A900141E0F8A3E0F9A3E0FAA3AD
:10350E00E02FFFEA3EFEE93DFDE83CFC90014CE475
:10351E00F0A3748002365690013DE06418705FA3EC
:10352E00E0FF7E007C007DBE120960A804A905AAFA
:10353E0006AB07A3E0FFE4FCFDFEEB2FFFEE3AFE29
:10354E00ED39FDEC38FCE47B48FAF9F81207FD90F2
:10355E0001411208AA90511712088A900141E0F811
:10356E00A3E0F9A3E0FAA3E02FFFEA3EFEE93DFD5A
:10357E00E83CFC90014CE4F0A374480236569001EE
:10358E003DE06410705EA3E0FF7E007C007DBE1205
:10359E000960A804A905AA06AB07A3E0FFE4FCFD99
:1035AE00FEEB2FFFEE3AFEED39FDEC38FCE47B200E
:1035BE00FAF9F81207FD9001411208AA905107126C
:1035CE00088A900141E0F8A3E0F9A3E0FAA3E02F06
:1035DE00FFEA3EFEE93DFDE83CFC90014CE4F0A321
:1035EE007420806490013DE0640C706BA3E0FF7E5C
:1035FE00007C007DBE120960A804A905AA06AB07CF
:10360E00A3E0FFE4FCFDFEEB2FFFEE3AFEED39FDED
:10361E00EC38FCE47B18FAF9F81207FD9001411220
:10362E0008AA9050F712088A900141E0F8A3E0F939
:10363E00A3E0FAA3E02FFFEA3EFEE93DFDE83CFCE5
:10364E0090014CE4F0A37418F090013AE0FBA3E073
:07365E00FAA3E0F91252FF8C
:013665002242
:102C4300900021EEF0A3EFF0A3ECF0A3EDF0A3EBE3
:012C5300F090
:102C5400782F7C007D017BFF7A5179377E007F419C
:102C6400120692900023E0FFA3E0900070CFF0A33F
:102C7400EFF0900025E024E0FFE434FFFEE4FCFDE7
:102C84009000761208AA900026E0B42029900076DD
:102C9400E0FCA3E0FDA3E0FEA3E0FFE47B40FAF93F
:102CA400F81207FD9000761208AA90002E7440F0E6
:102CB40090512F022D75900026E0B41829900076CB
:102CC400E0FCA3E0FDA3E0FEA3E0FFE47B24FAF92B
:102CD400F81207FD9000761208AA90002E7424F0D2
:102CE40090511F022D75900026E0B41028900076B4
:102CF400E0FCA3E0FDA3E0FEA3E0FFE47B10FAF90F
:102D0400F81207FD9000761208AA90002E7410F0B5
:102D140090510F805C900026E0B40C28900076E07F
:102D2400FCA3E0FDA3E0FEA3E0FFE47B0CFAF9F8CA
:102D34001207FD9000761208AA90002E740CF090F1
:102D440050FF802D900026E0B4082F900076E0FC20
:102D5400A3E0FDA3E0FEA3E0FFE47B06FAF9F8128A
:102D640007FD9000761208AA90002E7406F0905089
:102D7400EF12088A9000721208AA900072E0FCA375
:102D8400E0FDA3E0FEA3E0FFA3E0F8A3E0F9A3E0E5
:102D9400FAA3E02FFFEA3EFEE93DFDE83CFC90008B
:102DA4002EE0FB90014CE4F0A3EBF07B017A007978
:102DB4002F1252FFE490002DF090002EE0FF9000BF
:102DC4002DE0FEC39F4003022EF8742F2EF582E4FB
:102DD4003400F583E090002BF0E4A3F090002CE0A5
:102DE400FFC394084003022EEF900026E0640870AD
:102DF4004190002BE0FEA807088002C313D8FC30E2
:102E0400E0028044900029E0FEA3E0FF6411700317
:102E1400EE6411606DEF64117003EE6411606390F1
:102E24000021E0FEA3E0FFA3E0FCA3E0FD90002965
:102E3400802790002CE0FF90002BE0FEA80708807C
:102E440002C333D8FC30E718900021E0FEA3E0FF72
:102E5400A3E0FCA3E0FD900027E0FAA3E0FB801FC1
:102E6400900029E0FAA3E0FB64117003EA641160A6
:102E740011900021E0FEA3E0FFA3E0FCA3E0FD121B
:102E8400538E900024E004F07006900023E004F0D8
:102E9400900023E0FEA3E0FFC39440EE940150545D
:102EA400900070E0FCA3E0FDC3EF9DFFEE9CFE905C
:102EB4000026E07A00B5072AEAB50626900023EC3E
:102EC400F0A3EDF0900022E004F07006900021E001
:102ED40004F0C3900022E094F0900021E0940040BC
:102EE4000A2290002CE004F0022DE090002DE00472
:042EF400F0022DBDFE
:012EF80022B7
:0E3EA600900021EEF0A3EFF0A3ECF0A3EDF0FE
:103EB400900035ECF0A3EDF0900028E0FF640C6076
:103EC40012EF6410600DEF64186008EF6420600363
:103ED40002401E90013A7401F0A37400F0A37437F9
:103EE400F0A3EFF0123423900028E0FFB4200B90ED
:103EF4000033E4F0A37480F0801EEFB4180B90003C
:103F040033E4F0A37448F0800FEF75F002A4FF903F
:103F14000033E5F0F0A3EFF0E490002FF0A3F0906D
:103F24000033E0FEA3E0FF90002FE0FCA3E0FDC31C
:103F34009FEC9E400302401E74372DF582E434004A
:103F4400F583E0FF90002DE4F0A3EFF0E49000315E
:103F5400F0A3F090002EE030E718900021E0FEA3DB
:103F6400E0FFA3E0FCA3E0FD900029E0FAA3E0FB5E
:103F7400801F90002BE0FAA3E0FB64117003EA6455
:103F8400116011900021E0FEA3E0FFA3E0FCA3E098
:103F9400FD12538E90002EE025E0F090002DE033CA
:103FA400F0900024E004F07006900023E004F09008
:103FB4000035E0FEA3E0FFC3900024E09FFD9000E5
:103FC40023E09EFC900028E07A00B5051CEAB504C5
:103FD40018900023EEF0A3EFF0900022E004F070BC
:103FE40028900021E004F08020900032E004F0707A
:103FF40006900031E004F0C3900032E09408900091
:1040040031E094005003023F57900030E004F07018
:0A4014000690002FE004F0023F23A5
:01401E00227F
:103B9800900014EEF0A3EFF0A3ECF0A3EDF0A3EB8C
:073BA800F0A3EAF0A3E9F02D
:103BAF00E4900020F0900018E0FBA3E0FAA3E0F906
:103BBF001206B8FF7003023D1F900020E060030261
:103BCF003C7FEFD3948040057401F080D8900016AD
:103BDF00E0FCA3E0FDD39440EC94014003023D1FB1
:103BEF001206B8FB90001BE0900026F090001CE03E
:103BFF00FFA3E0900027CFF0A3EFF090001EE0FFAF
:103C0F00A3E0900029CFF0A3EFF0900014E0FEA303
:103C1F00E0FF122C43900019E475F0011207879012
:103C2F00001BE0FFB40808900015E024068009EFA0
:103C3F00C313FF900015E02FF0900014E03400F054
:103C4F00D3900015E094F0900014E094005003021C
:103C5F003BB490001974FFF5F012078790001BE03A
:103C6F00FF900017E02FF0900016E03400023D1493
:103C7F00E4900020F0900016E0FCA3E0FDD3944008
:103C8F00EC94014003023D1F900018E0FBA3E0FA03
:103C9F00A3E0F9A3E0900028F090001CE0FFA3E060
:103CAF00900029CFF0A3EFF090001EE0FFA3E0906B
:103CBF00002BCFF0A3EFF0900014E0FEA3E0FF1273
:103CCF003EA6900019E475F00212078790001BE0E2
:103CDF00FF7E00900015E02FF0900014E03EF0D32F
:103CEF00A3E094F0900014E094005003023BB490D2
:103CFF00001974FF75F0FE120787900017E02FF080
:103D0F00900016E03EF0E4900014F0A3F0023BB4F4
:013D1F002281
:101A8E000000000000000000000000000000000048
:101A9E000000000000001FCC000C00000000000041
:101AAE0000000800300060000800300060000000F8
:101ABE00022003FC1E20022003FC1E200220000038
:101ACE0000000E1811043FFF10840C780000000077
:101ADE000F0010840F3800C00778188400780000BB
:101AEE0000780F8410C411240E9800E400840008BE
:101AFE0008006800700000000000000000000000F8
:101B0E0000000000000007E018182004400200004A
:101B1E00000040022004181807E00000000000003A
:101B2E000240024001800FF001800240024000009E
:101B3E000080008000800FF8008000800080000090
:101B4E000001000D000E000000000000000000006B
:101B5E0000000080008000800080008000800080F7
:101B6E000000000C000C000000000000000000004F
:101B7E00000000060018006001800600180020001A
:101B8E00000007F0080810041004080807F0000011
:101B9E000000080408041FFC0004000400000000FC
:101BAE0000000E0C10141024104411840E0C0000B2
:101BBE0000000C1810041104110412880C7000009F
:101BCE00000000E00320042408241FFC0024000071
:101BDE0000001F981084110411041088107000006A
:101BEE00000007F008881104110418880070000026
:101BFE0000001C00100010FC13001C001000000060
:101C0E0000000E3811441084108411440E38000068
:101C1E0000000700088C10441044088807F00000EC
:101C2E00000000000000030C030C00000000000088
:101C3E00000000000001010600000000000000008E
:101C4E00000000800140022004100808100400006B
:101C5E000220022002200220022002200220000088
:101C6E00000010040808041002200140008000004B
:101C7E0000000E001200100C106C10800F000000FF
:101C8E0003E00C1813E4142417C4082807D000002E
:101C9E000004003C03C41C40074000E4001C000488
:101CAE0010041FFC1104110411040E8800700000B2
:101CBE0003E00C1810041004100410081C1000008F
:101CCE0010041FFC100410041004080807F0000094
:101CDE0010041FFC1104110417C41004081800008E
:101CEE0010041FFC1104110017C0100008000000A2
:101CFE0003E00C181004100410441C78004000007F
:101D0E0010041FFC10840080008010841FFC10043F
:101D1E000000100410041FFC10041004000000004A
:101D2E0000030001100110011FFE10001000000042
:101D3E0010041FFC110403801464181C100400000E
:101D4E0010041FFC1004000400040004000C00002A
:101D5E0010041FFC1F0000FC1F001FFC10040000DD
:101D6E0010041FFC0C04030000E010181FFC1000F0
:101D7E0007F00808100410041004080807F000000B
:101D8E0010041FFC10841080108010800F000000C3
:101D9E0007F0081810241024101C080A07F200007F
:101DAE0010041FFC1104110011C011300E0C0004A0
:101DBE0000000E1C11041084108410441C38000006
:101DCE001800100010041FFC100410001800000072
:101DDE0010001FF810040004000410041FF8100077
:101DEE0010001E0011E0001C007013801C0010007B
:101DFE001FC0103C00E01F0000E0103C1FC00000A0
:101E0E001004180C163401C001C01634180C10043E
:101E1E0010001C00130400FC13041C001000000032
:101E2E000804101C1064108413041C041018000005
:101E3E000000000000007FFE400240024002000051
:101E4E00000030000C0003800060001C0003000046
:101E5E0000004002400240027FFE00000000000031
:101E6E000000000020004000400040002000000064
:101E7E00000100010001000100010001000100014C
:101E8E0000004000400020000000000000000000A4
:101E9E0000000098012401440144014400FC0004A8
:101EAE0010001FFC0088010401040088007000006F
:101EBE000000007000880104010401040088000085
:101ECE000000007000880104010411081FFC0004CA
:101EDE00000000F8014401440144014400C8000020
:101EEE000000010401040FFC11041104110018007C
:101EFE00000000D601290129012901C901060000AF
:101F0E0010041FFC008401000100010400FC000409
:101F1E0000000104190419FC000400040000000074
:101F2E000000000300010101190119FE000000006C
:101F3E0010041FFC0024004001B4010C0104000039
:101F4E000000100410041FFC000400040000000038
:101F5E00010401FC0104010001FC0104010000FC6C
:101F6E00010401FC008401000100010400FC0004D6
:101F7E00000000F8010401040104010400F800004F
:101F8E00010101FF008501040104008800700000BA
:101F9E0000000070008801040104010501FF00012A
:101FAE000104010401FC0084010401000180000011
:101FBE00000000CC0124012401240124019800001A
:101FCE0000000100010007F80104010400000000F8
:101FDE00010001F8000400040004010801FC0004E3
:101FEE00010001800170000C0010016001800100F1
:101FFE0001F0010C003001C00030010C01F00100B5
:10200E0000000104018C00740170018C01040000B9
:10201E00010101810171000E0018016001800100B3
:10202E0000000184010C013401440184010C000004
:10203E00000000000000000001003EFC40024002D3
:10204E000000000000000000FFFF00000000000084
:10205E000000400240023EFC0100000000000000B3
:10206E000000600080008000400040002000200042
:0D593B00C295C2948FB0C296D296D294222B
:0C584000E0FF7E0012584CE0FEA3E0FFE9
:0D584C00D295C2948FB0C296D296D294220B
:07591A001259217D017F19E4
:0A59210012593BAE04AF0502584CCA
:1058B6003ECF2401FDE43FFCE0FEA3E0FF1255BF0E
:0558C6007F2202593BA6
:0359690002584C95
:0B55B400E0FEA3E0FFA3E0FCA3E0FD8D
:1055BF00AB05AA048F828E83E583FD7C007F0212E8
:1055CF005921AF82AD07FC7F03125921EAFD7C0000
:0F55DF007F06125921AF03AD07FC7F0702592148
:0B5681007C007F1F1259217F057E0076
:10568C00E4FDFCC3ED9FEC9E5015E4FBFA0BBB0054
:0F569C00010ABA04F8BB75F50DBD00010C80E4DE
:0156AB0022DC
:10384B007F327E0012568C7D017C00E4FF125921E1
:10385B007F32FE12568C9000477F6412568CE582A5
:10386B006447458360030239FFFDFC7FEA1259214F
:10387B007D207FEB1259217D0C7FEC1259217DC4E9
:10388B007FED1259217D407FE81259217D387FE968
:10389B001259217D017FF11259217D107FF21259AE
:1038AB00217DA37F27125921FD7F401259217F4192
:1038BB001259210D7F421259217D127F431259213A
:1038CB007D107F441259217D267F451259217D0899
:1038DB007F461259217D537F471259217D027F4824
:1038EB001259217D157F491259217D197F4A125991
:1038FB00217F4B1259217D167F4C1259217D197F47
:10390B00501259217D2F7F511259217D2D7F52123B
:10391B0059217D3E7F531259210D7F541259217F1E
:10392B00551259217D2C7F561259217D777F5712C5
:10393B0059217D097F581259217D067F5912592132
:10394B007F5A1259217D0A7F5B1259217D1D7F5CA5
:10395B001259217DCC7F5D1259217D1B7F1B125982
:10396B00217D017F1A1259217D2F7F241259217D30
:10397B00577F251259217D977F231259217D367F41
:10398B001812591A7D887F1F1259217F05FE125676
:10399B008C7D801256817D901256817DD01256817E
:1039AB007D057C007F17125921E4FD7F36125921CA
:1039BB007D387F281259217F28FE12568C7D3C7C46
:1039CB0000125921E4FD7F021259217F0312592164
:1039DB007F041259217DEF7F05125921FD7F0612BD
:1039EB0059217F071259210D7F081259217D3F7FE5
:0B39FB000912591A7F327E0002568C20
:084EE900900021EEF0A3EFF0B0
:104EF100A31208B600000000E4FDFCFFFE1255BF3E
:104F01001258C69000231208B600000000E47F404A
:104F11007E01FDFC900023E0F8A3E0F9A3E0FAA3F1
:104F2100E0FBC312085A506D9000271208B600002A
:104F31000000E47FF0FEFDFC900027E0F8A3E0F91B
:104F4100A3E0FAA3E0FBC312085A502790002112F4
:104F51005840900027E0FCA3E0FDA3E0FEA3E0247D
:104F610001FFE43EFEE43DFDE43CFC900027120815
:104F7100AA80BF900023E0FCA3E0FDA3E0FEA3E034
:104F81002401FFE43EFEE43DFDE43CFC90002312DD
:054F910008AA024F0E0A
:014F960022F8
:10537800900027E0FEA3E0FFA3E0FCA3E0FD90007F
:065388002FE0FAA3E0FB98
:10538E00900139EAF0A3EBF0900137EEF0A3EFF0C5
:10539E00C394F0EE94005021C3ED9440EC94015070
:1053AE00189001371258BE900139E0FF7E00125955
:0A53BE0069E0FEA3E0FF1259692226
:1031AF00900029ECF0A3EDF0900027EEF0A3EFF0E4
:0831BF0090002BEAF0A3EBF0F5
:1031C700D3EF9BEE9A402790002BE0FEA3E0FF9001
:1031D7000035EEF0A3EFF0900027E0FDA3E09000AC
:1031E7002BCDF0A3EDF0900027EEF0A3EFF09000C9
:1031F7002DE0FEA3E0FF900029E0FCA3E0FDD39FB4
:10320700EC9E4018900035EEF0A3EFF090002DEC07
:10321700F0A3EDF0900029EEF0A3EFF0900027E087
:10322700FEA3E0FFC390002CE09FFF90002BE09EE1
:10323700900031F0FAA3EFF0FB900029E0FEA3E045
:10324700FFC390002EE09FFF90002DE09E9000337B
:10325700F0A3EFF0EB4A702712537890002AE004AE
:10326700F07006900029E004F0900029E0FEA3E04A
:10327700FFC390002EE09F90002DE09E50DA229031
:103287000033E07002A3E07027125378900028E023
:1032970004F07006900027E004F0900027E0FEA3FA
:1032A700E0FFC390002CE09F90002BE09E50DA22B5
:1032B700900033E0FEA3E0FF900031E0FCA3E0FDC7
:1032C700D39FEE6480F8EC6480985003023372EF6A
:1032D70025E0FFEE33FEC3EF9DFFEE9C900035F037
:1032E700A3EFF090002BE0FCA3E0FD900027E0FEA9
:1032F700A3E0FF6D7002EE6C700302341F1253805F
:10330700900028E004F07006900027E004F0D390C6
:103317000036E09400900035E0648094804030905F
:10332700002AE004F07006900029E004F0900032D3
:10333700E025E0FD900031E033FC900034E025E02B
:10334700FF900033E033FEC3EF9DFFEE9C800C90AF
:103357000034E025E0FF900033E033FE900036E0D4
:103367002FF0900035E03EF00232EA900032E0257F
:10337700E0FF900031E033FE900033E0FCA3E0FD76
:10338700C3EF9DFFEE9CA3F0A3EFF090002DE0FEAE
:10339700A3E0FF900029E0FCA3E0FD6F7002EC6E54
:1033A7006076900027E0FEA3E0FF12538690002A84
:1033B700E004F07006900029E004F0D3900036E0B6
:1033C7009400900035E0648094804030900028E0BD
:1033D70004F07006900027E004F0900032E025E04A
:1033E700FD900031E033FC900034E025E0FF9000D1
:1033F70033E033FEC3EF9DFFEE9C800C900034E07A
:1034070025E0FF900033E033FE900036E02FF09088
:0B3417000035E03EF0023392125378C3
:013422002287
:1048C30090003EEEF0A3EFF0900042EBF09000403A
:0548D300ECF0A3EDF084
:1048D800900049ECF0A3EDF0900042E024E0F0E411
:1048E800F9900042E075F010A4248EF582E5F034CA
:1048F8001AF583E58229F582E43583F583E49390FC
:104908000047F0E4A3F0900047E030E71890003E3D
:10491800E0FEA3E0FFA3E0FCA3E0FD900043E0FA83
:10492800A3E0FB801F900045E0FAA3E0FB64117050
:1049380003EA6411601190003EE0FEA3E0FFA3E0EB
:10494800FCA3E0FD12538E900047E025E0F09000B4
:1049580041E004F07006900040E004F0C390003F8E
:10496800E094F090003EE094005056900049E0FE3C
:10497800A3E0FFC3900041E09FFD900040E09EFC53
:10498800ED64104C7023EEF0A3EFF090003FE004CC
:10499800F0700690003EE004F0C390003FE09440C1
:1049A80090003EE09401401022900048E004F0E0BE
:1049B800C39408500302490E09E9641060030248D1
:0149C800E905
:0149C90022CB
:104E330090000CEEF0A3EFF0A3ECF0A3EDF0A3EBE6
:074E4300F0A3EAF0A3E9F07F
:104E4A00900010E0FBA3E475F00112079DA9F0FAA7
:104E5A001206B8FB90000EE0FCA3E0FD900013E000
:104E6A00FFA3E0900043CFF0A3EFF0900015E0FF1E
:104E7A00A3E0900045CFF0A3EFF090000CE0FEA372
:104E8A00E0FF1248C3C390000DE094E890000CE0E4
:104E9A009400500AA3E02408F090000C8020C390EC
:104EAA00000FE0943090000EE09401E490000C5062
:104EBA0013F0A3F090000FE02410F090000EE034FD
:104ECA0000F08007F0A3F0A3F0A3F0900010E0FB3D
:0E4EDA00A3E0FAA3E0F91206B86003024E4A04
:014EE80022A7
:10456000900002EEF0A3EFF0A3ECF0A3EDF0A3EACD
:04457000F0A3EBF0D9
:10457400E490000EF0A3F09000141208B6000000BE
:10458400009000021255B41258C6C2A47F031256FA
:104594006790000AE0FCA3E0FDA3E0FEA3E0FF783F
:1045A4001012086B12566790000AE0FCA3E0FDA30A
:1045B400E0FEA3E0FF780812086B12566790000A29
:1045C400A3A3A3E0FF1256679000101208B60000E0
:1045D4000000900008E0FEA3E0FFE4FCFD90001062
:1045E400E0F8A3E0F9A3E0FAA3E0FBC312085A4001
:1045F400030246999000141208B6000000009000CF
:1046040006E0FEA3E0FFE4FCFD900014E0F8A3E064
:10461400F9A3E0FAA3E0FBC312085A503C125889EC
:1046240090000FEFF012588990000EEFF07E001208
:10463400584CA3E0FF12584C900014E0FCA3E0FD9A
:10464400A3E0FEA3E02401FFE43EFEE43DFDE43CE0
:10465400FC9000141208AA80A5900010A3A3E0FE09
:10466400A3E0FF900005E02FFF900004E09000021B
:104674001258B6900010E0FCA3E0FDA3E0FEA3E016
:104684002401FFE43EFEE43DFDE43CFC90001012F6
:0746940008AA0245D6D2A4DA
:01469B0022FC
:104BC600900011EEF0A3EFF0A3ECF0A3EDF0A3EA52
:044BD600F0A3EBF06D
:104BDA0090001F1208B6000000009000111255B490
:104BEA001258C690001B1208B60000000090001769
:104BFA00E0FEA3E0FFE4FCFD90001BE0F8A3E0F96F
:104C0A00A3E0FAA3E0FBC312085A4003024CA590A2
:104C1A00001F1208B600000000900015E0FEA3E095
:104C2A00FFE4FCFD90001FE0F8A3E0F9A3E0FAA37B
:104C3A00E0FBC312085A50279000191258409000FE
:104C4A001FE0FCA3E0FDA3E0FEA3E02401FFE43E95
:104C5A00FEE43DFDE43CFC90001F1208AA80BA90D5
:104C6A00001BA3A3E0FEA3E0FF900014E02FFF9037
:104C7A000013E09000111258B690001BE0FCA3E06C
:104C8A00FDA3E0FEA3E02401FFE43EFEE43DFDE4D3
:0B4C9A003CFC90001B1208AA024BF724
:014CA50022EC
:10296100900010EAF0A3EBF090000CEEF0A3EFF072
:10297100A3ECF0A3EDF0C006C007A3E0FEA3E0FFC7
:1029810090000CE0FAA3E02FFBEA3EFAA3E0FFA3DC
:10299100E090002DCFF0A3EFF0900014E0FFA3E052
:1029A10090002FCFF0A3EFF0D007D0061231AF90F7
:1029B100000DE02401FF90000CE03400FEC006C0D1
:1029C1000790000FE02401FD90000EE03400FC9020
:1029D1000010E0FEA3E0FF90000CE0FAA3E02FFF5F
:1029E100EA3ECF24FFFBEF34FFFAA3E0FEA3E0248D
:1029F10001FFE43E90002DF0A3EFF0900014E0FF02
:102A0100A3E090002FCFF0A3EFF0D007D006123152
:102A1100AF90000CE0FAA3E0FBFFAE02C006C007D6
:102A2100A3E0FCA3E0FD900012E0FEA3E0FF900014
:102A31000EE0F8A3E02FFFE83E90002DF0A3EFF0A9
:102A4100900014E0FFA3E090002FCFF0A3EFF0D0AF
:102A510007D0061231AF90000DE02401FB90000C6D
:102A6100E03400FAAF03FEC006C00790000FE02477
:102A710001FD90000EE03400FC900012E0FEA3E0A6
:102A8100FF90000EE0F8A3E02FFFE83ECF24FFCF38
:102A910034FF90002DF0A3EFF0900014E0FFA3E0CD
:102AA10090002FCFF0A3EFF0D007D0061231AF90F6
:102AB1000012E0FEA3E0FF90000FE02FFD90000E5A
:102AC100E03EFC900010E0FEA3E0FF90000CE0FA75
:102AD100A3E02FFBEA3EFA900012E0FEA3E0FF9094
:102AE100000EE0F8A3E02FFFE83E90002DF0A3EFE9
:102AF100F0900014E0FFA3E090002FCFF0A3EFF0DF
:102B010090000CE0FEA3E0FF1231AF90000DE02435
:102B110001FF90000CE03400FEC006C007900012D7
:102B2100E0FEA3E0FF90000FE02FFF90000EE03EDB
:102B3100CF24FFFDEF34FFFC900010E0FEA3E0FF87
:102B410090000CE0FAA3E02FFFEA3ECF24FFFBEF59
:102B510034FFFA900012E0FEA3E0FF90000EE0F8CF
:102B6100A3E02FFFE83ECF24FFCF34FF90002DF0EC
:102B7100A3EFF0900014E0FFA3E090002FCFF0A3AB
:102B8100EFF0D007D0061231AF900010E0FEA3E0C5
:102B9100FF90000DE02FFB90000CE03EFAAF03FE2A
:102BA100C006C00790000EE0FCA3E0FD900012E01B
:102BB100FEA3E0FF90000EE0F8A3E02FFFE83E90B7
:102BC100002DF0A3EFF0900014E0FFA3E090002FA0
:102BD100CFF0A3EFF0D007D0061231AF900010E094
:102BE100FEA3E0FF90000DE02FFF90000CE03ECF30
:102BF10024FFFBEF34FFFAAF03FEC006C0079000CD
:102C01000FE02401FD90000EE03400FC900012E082
:102C1100FEA3E0FF90000EE0F8A3E02FFFE83ECF17
:102C210024FFCF34FF90002DF0A3EFF0900014E0CB
:102C3100FFA3E090002FCFF0A3EFF0D007D0060262
:022C410031AFB1
:10546A005F0150FF57D1FF4ACFFF1214000000001E
:10547A000000000000000000000000000000000022
:0A548A00000041016FD04101709055
:1057B400EF7803C333CE33CED8F9FFE4FDFCC3ED59
:0C57C4009FEC9E50070DBD00010C80F210
:0157D00022B6
:10582600E4FEEF30E704D2828002C282EF25E0FF79
:09583600C281D2810EEEB408E932
:01583F002246
:10541700E4FDFBFAC281C282C2A61258267F067E2D
:10542700001257B4C2817F017E001257B4D281C2E5
:1054370081E4FDEB25E0FBEA33FAC281D2813083B8
:10544700050BBB00010A0DEDB410E8EAC4F854F0EF
:0D545700C868FAEBC4540F48D2A6AE02FF9D
:015464002225
:023A0600A9070E
:103A0800E4900034F0A3F0900028F0A3F0AF011286
:103A18005417AC06AD07900029E025E0FF90002878
:103A2800E033FE742A2FF58274003EF583ECF0A390
:103A3800EDF0900029E004F07006900028E004F012
:103A4800C3900029E09405900028E0940040BEE46B
:103A5800900028F0A3F0900028E0FEA3E0FFC394B4
:103A680004EE94004003023B32EF2401FFE43EAD34
:103A780007FCC3ED9405EC94004003023B1EED25C2
:103A8800E0FFEC33FE742A2FF58274003EF583E0E4
:103A9800FAA3E0FB900029E025E0FF900028E0333E
:103AA800FE742A2FF58274003EF583E0FEA3E0FF42
:103AB800D39BEE9A4058900036EEF0A3EFF0ED2538
:103AC800E0FFEC33FE742A2FF58274003EF583E0A4
:103AD800FAA3E0FB900029E025E0FF900028E033FE
:103AE800FE742A2FF58274003EF583EAF0A3EBF00A
:103AF800900036E0FAA3E0FBED25E0FFEC33FE741E
:103B08002A2FF58274003EF583EAF0A3EBF00DBD91
:103B180000010C023A7A900029E004F06003023AAE
:103B28005E900028E004F0023A5EE4900034F0A3CE
:103B3800F0900028F0A304F0900028E0FEA3E0FF36
:103B4800C39404EE94005032EF25E0FFEE33FE7488
:103B58002A2FF58274003EF583E0FEA3E0FF900073
:103B680035E02FF0900034E03EF0900029E004F0BA
:103B780070C6900028E004F080BE900034E0FEA3F8
:0F3B8800E0FF7C007D03120732A3EEF0A3EFF005
:013B9700220B
:0B53C800900020EBF0A3EAF0A3E9F056
:1053D30090016FE0FF123A06900026EEF0A3EFF083
:1053E300900170E0FF123A06900026E0F9A3E0FD79
:1053F300900020E0FBA3E0FAA3E0C98DF01207DEE2
:10540300900023E0FBA3E0FAA3E0F9EE8FF012078C
:03541300DE7F0138
:015416002273
:1042DA009000157401F0A37401F0A3745FF07B01E0
:0442EA007A01795D7F
:0B42EE00900012EBF0A3EAF0A3E9F04F
:1042F9009000237401F0A37400F0A3741AF07B01F9
:104309007A0079181253C8EF7002FF2290002374C3
:1043190001F0A37400F0A3741EF07B017A00791CEC
:104329001253C8EF7002FF22900018E0FEA3E0FFCD
:1043390090001CE0FCA3E0FDD39FEC9E500EED2401
:1043490032FDE43CFCC3EF9DEE9C402A90001CE04A
:10435900FEA3E0FF900018E0FCA3E0FDD39FEC9ED4
:10436900400302441CED2432FDE43CFCC3EF9DEE06
:104379009C400302441C90001AE0FEA3E0FF900059
:104389001EE0FCA3E0FDD39FEC9E500EED2432FD10
:10439900E43CFCC3EF9DEE9C402490001EE0FEA38C
:1043A900E0FF90001AE0FCA3E0FDD39FEC9E506370
:1043B900ED2432FDE43CFCC3EF9DEE9C505590008A
:1043C9001CE0FEA3E0FF900019E02FFF900018E029
:1043D9003EC313F9EF13FF900012E0FBA3E0FAA329
:1043E900E0C98FF01207DE90001EE0FEA3E0FF9007
:1043F900001BE02FFF90001AE03EC313F9EF13FFF3
:10440900900015E0FBA3E0FAA3E0C98FF01207DEE4
:054419007F01227F007D
:01441E00227B
:10441F00E4900010F07D047C0174FFFBFA7F047EB2
:01442F00018B
:10443000900021EEF0A3EFF0900025EAF0A3EBF05E
:10444000900023ECF0A3EDF0900021E0FAA3E0FB54
:1044500024F4FFEA34FFFEC007EB240DFBE43AFA34
:10446000A3E0FFA3E090002DCFF0A3EFF090002594
:10447000E0FFA3E090002FCFF0A3EFF0D0071231C0
:10448000AF900021E0FAA3E0FBFFAE02C006C00738
:10449000900024E024F4FD900023E034FFFCE0FED3
:1044A000A3E0240DFFE43E90002DF0A3EFF0900078
:1044B00025E0FFA3E090002FCFF0A3EFF0D007D0CE
:1044C000061231AF900022E02401FF900021E03479
:1044D00000FE900024E02401FD900023E03400FC65
:1044E000900025E0FAA3E0FB12538E900022E02416
:1044F000FFFF900021E034FFFE900024E02401FD46
:10450000900023E03400FC900025E0FAA3E0FB12C9
:10451000538E900022E02401FF900021E03400FE41
:10452000900024E024FFFD900023E034FFFC900085
:1045300025E0FAA3E0FB12538E900022E024FFFF57
:10454000900021E034FFFE900024E024FFFD900065
:1045500023E034FFFC900025E0FAA3E0FB02538E39
:10520400900004EEF0A3EFF0A3ECF0A3EDF0A3EA1A
:10521400F0A3EBF012538E900005E02401FF900000
:1052240004E03400FE900006E0FCA3E0FDA3E0FAF5
:10523400A3E0FB12538E900004E0FEA3E0FF900075
:1052440007E02401FD900006E03400FC900008E033
:10525400FAA3E0FB12538E900005E02401FF9000B6
:1052640004E03400FE900007E02401FD900006E015
:0E5274003400FC900008E0FAA3E0FB02538E29
:104ACF0030A503024B9DEF60061242DA024B7312C0
:104ADF0042DAEF7003024B7390015DE0FCA3E0FD3F
:104AEF00E4120356900162E0F8A3E0F9A3E0FAA301
:104AFF00E0FB12013EC004C005C006C00790016A6A
:104B0F00E0FCA3E0FDEC120356D003D002D001D09D
:104B1F000012004D12038F90015DEEF0A3EFF0A392
:104B2F00E0FCA3E0FDE4120356900166E0F8A3E079
:104B3F00F9A3E0FAA3E0FB12013EC004C005C006D2
:104B4F00C00790016CE0FCA3E0FDEC120356D0030C
:104B5F00D002D001D00012004D12038F90015FEEF2
:104B6F00F0A3EFF0900161E020E74474C0F09001F2
:104B7F005DE0FFA3E0900159CFF0A3EFF090015F4C
:104B8F00E0FFA3E090015BCFF0A3EFF08021900155
:104B9F0061E030E705547FF08015E4900159F0A3F0
:104BAF00F0A3F0A3F074FFA3F0A3F0A3F0A3F09091
:074BBF000161E05480FF22B8
:10121400E4900010F0F074FFFFFE124EE97B007AB8
:10122400F87D3C7C007F3C7E00124430E4900161F8
:10123400F0A31208B600000000900153A3E0FAA343
:10124400E0F5828A837F0112095E900161E0FF5418
:10125400C0FEBE40E4EF54BFF090015DE0FEA3E0A9
:10126400FF900010E0FD25E025E02400F582E43441
:1012740000F583EEF0A3EFF090015FE0FEA3E0FF42
:10128400ED25E025E02402F582E43400F583EEF058
:10129400A3EFF0900010E004F0E024FE602314605B
:1012A4003214604D2403709174FFFBFA7D3C7C0082
:1012B4007F3C7E001244307B007AF87D3C7C0080C9
:1012C400297D3C7C001244287B007AF87D047C0153
:1012D4000214FD74FFFBFA7D047C017F3C7E001246
:1012E40044307B007AF87D047C017F047E0102187F
:1012F400F7900004E0FEA3E0FFC3900001E09FFF2D
:10130400900000E09EFE125948EE3395E0FDFC90FB
:1013140000151208AA900006E0FEA3E0FFC39000A7
:1013240003E09FFF900002E09EFE125948EE3395C1
:10133400E0FDFC9000191208AA900015E0FCA3E05F
:10134400FDA3E0FEA3E0FFA804A905AA06FB12077B
:10135400FD9000151208AA900019E0FCA3E0FDA37B
:10136400E0FEA3E0FFA804A905AA06FB1207FD906E
:1013740000191208AA900019E0FCA3E0FDA3E0FE06
:10138400A3E0FF900015E0F8A3E0F9A3E0FAA3E0DE
:101394002FFFEA3EFEE93DFDE83CFCE41203511256
:1013A4004F9B12038F900011EEF0A3EFF090000C0E
:1013B400E0FEA3E0FFC3900009E09FFF900008E077
:1013C4009EFE125948EE3395E0FDFC90001512087C
:1013D400AA90000EE0FEA3E0FFC390000BE09FFF85
:1013E40090000AE09EFE125948EE3395E0FDFC9011
:1013F40000191208AA900015E0FCA3E0FDA3E0FE8A
:10140400A3E0FFA804A905AA06FB1207FD90001596
:101414001208AA900019E0FCA3E0FDA3E0FEA3E0FB
:10142400FFA804A905AA06FB1207FD9000191208DB
:10143400AA900019E0FCA3E0FDA3E0FEA3E0FF9066
:101444000015E0F8A3E0F9A3E0FAA3E02FFFEA3ED9
:10145400FEE93DFDE83CFCE4120351124F9B1203EC
:101464008F900013EEF0A3EFF0900011E0FCA3E0E6
:10147400FDE4120356C004C005C006C00790001363
:10148400E0FCA3E0FDE4120356A804A905AA06ABF8
:1014940007D007D006D005D00412024790001D12D1
:1014A40008AA7F337E337D737C3F90001DE0F8A350
:1014B400E0F9A3E0FAA3E0FB1202E440317F667E88
:1014C400667D867C3F90001DE0F8A3E0F9A3E0FA76
:1014D400A3E0FB1202E460025014900011E07002D9
:1014E400A3E0600A900013E07002A3E070121244BB
:1014F4001F7B007AF87D3C7C007F3C7E000218F75D
:10150400900008E0FEA3E0FFC3900001E09FFF907D
:101514000000E09EFE125948EE3395E0FDFC900079
:10152400151208AA90000AE0FEA3E0FFC39000038E
:10153400E09FFF900002E09EFE125948EE3395E0D2
:10154400FDFC9000191208AA900015E0FCA3E0FD30
:10155400A3E0FEA3E0FFA804A905AA06FB1207FD69
:101564009000151208AA900019E0FCA3E0FDA3E086
:10157400FEA3E0FFA804A905AA06FB1207FD90003C
:10158400191208AA900019E0FCA3E0FDA3E0FEA351
:10159400E0FF900015E0F8A3E0F9A3E0FAA3E02F40
:1015A400FFEA3EFEE93DFDE83CFCE4120351124F24
:1015B4009B12038F900011EEF0A3EFF090000CE06B
:1015C400FEA3E0FFC3900005E09FFF900004E09EAF
:1015D400FE125948EE3395E0FDFC9000151208AA5E
:1015E40090000EE0FEA3E0FFC3900007E09FFF9091
:1015F4000006E09EFE125948EE3395E0FDFC900093
:10160400191208AA900015E0FCA3E0FDA3E0FEA3D4
:10161400E0FFA804A905AA06FB1207FD9000151215
:1016240008AA900019E0FCA3E0FDA3E0FEA3E0FFFC
:10163400A804A905AA06FB1207FD9000191208AA1E
:10164400900019E0FCA3E0FDA3E0FEA3E0FF9000FE
:1016540015E0F8A3E0F9A3E0FAA3E02FFFEA3EFEC9
:10166400E93DFDE83CFCE4120351124F9B12038F49
:10167400900013EEF0A3EFF0900011E0FCA3E0FD66
:10168400E4120356C004C005C006C007900013E06E
:10169400FCA3E0FDE4120356A804A905AA06AB07BF
:1016A400D007D006D005D00412024790001D1208BE
:1016B400AA7F337E337D737C3F90001DE0F8A3E066
:1016C400F9A3E0FAA3E0FB1202E4401D7F667E6604
:1016D4007D867C3F90001DE0F8A3E0F9A3E0FAA327
:1016E400E0FB1202E46014401212441F7B007AF8FB
:1016F4007D3C7C007F3C7E000218F7900008E0FEF1
:10170400A3E0FFC3900005E09FFF900004E09EFE6D
:10171400125948EE3395E0FDFC9000151208AA908A
:10172400000AE0FEA3E0FFC3900007E09FFF9000E3
:1017340006E09EFE125948EE3395E0FDFC90001938
:101744001208AA900015E0FCA3E0FDA3E0FEA3E0CC
:10175400FFA804A905AA06FB1207FD9000151208AC
:10176400AA900019E0FCA3E0FDA3E0FEA3E0FFA81B
:1017740004A905AA06FB1207FD9000191208AA90F5
:101784000019E0FCA3E0FDA3E0FEA3E0FF90001538
:10179400E0F8A3E0F9A3E0FAA3E02FFFEA3EFEE9B4
:1017A4003DFDE83CFCE4120351124F9B12038F9061
:1017B4000011EEF0A3EFF090000CE0FEA3E0FFC3F5
:1017C400900001E09FFF900000E09EFE125948EE59
:1017D4003395E0FDFC9000151208AA90000EE0FE7F
:1017E400A3E0FFC3900003E09FFF900002E09EFE91
:1017F400125948EE3395E0FDFC9000191208AA90A6
:101804000015E0FCA3E0FDA3E0FEA3E0FFA804A90B
:1018140005AA06FB1207FD9000151208AA900019EC
:10182400E0FCA3E0FDA3E0FEA3E0FFA804A905AA51
:1018340006FB1207FD9000191208AA900019E0FC9B
:10184400A3E0FDA3E0FEA3E0FF900015E0F8A3E011
:10185400F9A3E0FAA3E02FFFEA3EFEE93DFDE83CF0
:10186400FCE4120351124F9B12038F900013EEF00D
:10187400A3EFF0900011E0FCA3E0FDE4120356C0D6
:1018840004C005C006C007900013E0FCA3E0FDE41B
:10189400120356A804A905AA06AB07D007D006D0A0
:1018A40005D00412024790001D1208AA7F337E332C
:1018B4007D737C3F90001DE0F8A3E0F9A3E0FAA358
:1018C400E0FB1202E4401D7F667E667D867C3F90CD
:1018D400001DE0F8A3E0F9A3E0FAA3E0FB1202E4A0
:1018E4006017401512441F7B007AF87D3C7C007F12
:1018F4003C7E0012443002123D900000E0FEA3E062
:10190400FFC3900005E09FFD900004E09EFCE412FC
:101914000356A804A905AA06AB07E4FFFE7D487C8C
:10192400431202479001621208AA900000E0FEA34D
:10193400E0FF900005E02FFD900004E03EFCE4127F
:101944000356900162E0F8A3E0F9A3E0FAA3E0FBF8
:1019540012013EA804A905AA06AB07E4FFFE7DA078
:101964007C43120049E4FBFAF9784012024712035F
:101974008F90016AEEF0A3EFF0900002E0FEA3E086
:10198400FFC390000BE09FFD90000AE09EFCE41270
:101994000356A804A905AA06AB07E4FFFE7D487C0C
:1019A400431202479001661208AA900002E0FEA3C7
:1019B400E0FF90000BE02FFD90000AE03EFCE412F3
:1019C4000356900166E0F8A3E0F9A3E0FAA3E0FB74
:1019D40012013EA804A905AA06AB07E4FFFE7DA0F8
:1019E4007C43120049E4FBFAF978401202471203DF
:1019F4008F90016CEEF0A3EFF0900162E0FCA3E0A5
:101A0400FDA3E0FEA3E0FF12038F125948D3EF9425
:101A140002EE64809480501F900166E0FCA3E0FD18
:101A2400A3E0FEA3E0FF12038F125948D3EF940200
:101A3400EE64809480403D12441F7B007AF87D3C24
:101A44007C007F3C7E0012443090016EE070047F85
:101A54000180027F0090016EEFF0600BA37490F0A0
:101A6400A374D0F002123D90016F74D0F0A374906F
:101A7400F002123D74FFFFFE124EE97FE87E03126E
:091A8400577674FFFFFE124EE9D3
:011A8D002236
:10000E0090016F7490F0A374D0F090016A74FFF0B9
:10001E00A374F4F09001621208B63DF973DA900100
:10002E006C7401F0A3744AF09001661208B6BDAA72
:03003E00F35E224C
:1057D1009000237401F0A37401F0A3745FF07B01C6
:0D57E1007A01795D1253C812000E7F01227B
:0F587100139283125880EBC313FB125880D2811D
:085880007F207E1DDEFEDFFC2F
:0158880022FD
:0B469C0090000CEBF0A3EAF0A3E9F0A3
:1046A7007B017A00790F12504390000CE0FBA3E0E6
:1046B700FAA3E0F974321206FE90000CE0FBA3E0C7
:1046C700FAA3E0F99000017430120710900015E08A
:1046D700FFC4540F2430900002120710EF540F2428
:1046E70030900003120710900004742F12071090E7
:1046F7000013E0FFC4540F2430900005120710EF99
:10470700540F2430900006120710900007742F12E0
:104717000710900012E0FFC4540F243090000812D5
:104727000710EF540F243090000912071090000A69
:10473700742F120710900011E0FFC4540F2430901B
:10474700000B120710EF540F243090000C120710C3
:1047570090000D743A120710900010E0FFC4540F38
:10476700243090000E120710EF540F243090000FE2
:10477700120710900010743A12071090000FE0FF14
:10478700C4540F2430900011120710EF540F243037
:10479700900012120710900013742F120710900048
:1047A70014E0540F2430900014120710900015E401
:0347B700020710E6
:0D58A000F9EF1207101258ADE4FF1254AEDC
:0858AD007F027E3BDEFEDFFC02
:0158B50022D0
:02557800AB077F
:10557A00C2A7125880C281125880D2A71258807AC4
:10558A0008C281125880A903E9125871DAF37A081D
:10559A00C281125880A905E9139283125880EDC37B
:0955AA0013FD12587BDAE9C2A7D7
:0155B30022D5
:0254AE00AB074A
:1054B000C2A7125880C281125880D2A71258807A8F
:1054C00008C281125880EB125871DAF57A08D2813D
:1054D000125880EDC313FD125880C28112588030DB
:1054E00083054480FD8004ED547FFDDAE1C2A712FC
:0454F0005880AF052C
:0154F4002295
:104CA60090000CEBF0A3EAF0A3E9F0E4FD7F8E128E
:104CB60055781258AD90000CE0FBA3E0FAA3E0F99A
:104CC6001206B8FD7F801255781258AD90000CE0A0
:104CD600FBA3E0FAA3E0F99000011206D1FD7F8262
:104CE6001255781258AD90000CE0FBA3E0FAA3E051
:104CF600F99000021206D1FD7F841255781258AD44
:104D060090000CE0FBA3E0FAA3E0F9900003120682
:104D1600D1FD7F861255781258AD90000CE0FBA3AA
:104D2600E0FAA3E0F99000041206D1FD7F8812553F
:104D3600781258AD90000CE0FBA3E0FAA3E0F990DE
:104D460000051206D1FD7F8A1255781258AD9000E3
:104D56000CE0FBA3E0FAA3E0F99000061206D1FDF1
:0F4D66007F8C1255781258AD7D807F8E02557864
:10504300900016EBF0A3EAF0A3E9F01258A87F8DC5
:105053001254AE900016E0FBA3E0FAA3E090000622
:105063001258A07F8B1254AE900016E0FBA3E0FA17
:10507300A3E09000051258A07F891254AE90001649
:10508300E0FBA3E0FAA3E0F9900004EF120710128B
:1050930058A87F871254AE900016E0FBA3E0FAA352
:1050A300E0F99000031258A17F851254AE900016C8
:1050B300E0FBA3E0FAA3E0F99000021258A17F837A
:1050C3001254AE900016E0FBA3E0FAA3E0F99000BF
:1050D300011258A17F811254AE900016E0FBA3E0A9
:0850E300FAA3E0F9EF0206FE5A
:10590800C2A7C281E4FD7F8E1255787D807F8E020A
:025918005578C0
:03000B0002575049
:10575000C0E0C083C082C0D0758AAB758C2F900129
:105760008FE0B4FF02E4F090018FE004F0D0D0D0DD
:0657700082D083D0E0327C
:10592B00438901758AAB758C2FD2A9D2AFC28C2259
:10401F00C8D5C0FA00CEC2B6C800B5E7BBB000CF56
:10402F00E0B2E100D3B2BCFEBCECB2E200BBADB07B
:10403F00E500B4AEBFDAD6FACAD600535049D6FA65
:10404F00CAD600B5E7BBB0B9A6C4DCCEB4BFAAB719
:10405F00C5A3A100CFE0B2E1B9A6C4DCCEB4BFAA1C
:10406F00B7C5A3A100B4AEBFDAD6FACAD6CEB4BFD5
:10407F00AAB7C5A3A10032CEB4BFAAB7C5A3A100EA
:10408F0033CEB4BFAAB7C5A3A10034CEB4BFAAB76D
:10409F00C5A3A10035CEB4BFAAB7C5A3A10048617F
:1040AF0072647761726520436865636B2052756E29
:1040BF006E696E67002A2A2A2A2A2A2A466C617399
:1040CF006820436865636B2A2A2A2A2A2A2A0057FE
:1040DF00323551383000573235513136005732357D
:1040EF005133320057323551363400466C617368A4
:1040FF00204572726F72002A2A2A2ACAB1D6D3BCFF
:10410F00ECB2E22A2A2A2A00B6C1C8A1CAB1BCE47D
:10411F00D6D02E2E2E002A2A2A2ACEC2B6C8BCEC02
:10412F00B2E22A2A2A2A00B6C1C8A1CEC2B6C8D680
:10413F00D02E2E2E00B5B1C7B0CEC2B6C8A3BA00CE
:10414F00D6DC00C9E8B6A8CFB5CDB3CAB1BCE40080
:10415F00A1F800A88B004E657874004F6B00D2D188
:10416F00C9E8B6A8CFB5CDB3CAB1BCE4A3A100A12D
:0F417F00FB00A1F600A1FE000000000000000000
:105494005601710000000000000000000000000040
:0954A400000000000000000000FF
:10250100E4900000F0A3F074FFFFFE124EE990008A
:1025110008E4F0A37443F0A31208B600600CA07B9A
:10252100917A007D147C007F0A7E001245607BFF5A
:102531007A40791F90001B7410F074FFA3F0A3F090
:102541007411A3F0A3F07D477C007F0A7E00123B4B
:1025510098900008E4F0A37443F0A31208B6006059
:1025610058867B467A007D147C007FA07E00124550
:10257100607BFF7A40792490001B7410F074FFA3F4
:10258100F0A3F07411A3F0A3F07D477C007FA07E3F
:1025910000123B98900008E4F0A37444F0A31208E1
:1025A100B600607D2A7B467A007D5D7C007F0A7ED5
:1025B100001245607BFF7A40792990001B7410F06E
:1025C10074FFA3F0A3F07411A3F0A3F07D917C003C
:1025D1007F0A7E00123B98900008E4F0A37444F057
:1025E100A31208B60060A25A7B467A007D5D7C008A
:1025F1007F557E001245607BFF7A40792E90001B4B
:102601007410F074FFA3F0A3F07411A3F0A3F07D94
:10261100917C007F557E00123B98900008E4F0A366
:102621007444F0A31208B60060C78A7B467A007D25
:102631005D7C007FA07E001245607BFF7A4079338C
:1026410090001B7410F074FFA3F0A3F07411A3F0B9
:10265100A3F07D917C007FA07E00123B9890000842
:10266100E4F0A37444F0A31208B60060ECBA7B4610
:102671007A007DA67C007F0A7E001245607BFF7A8E
:1026810040793C90001B7410F074FFA3F0A3F07428
:1026910011A3F0A3F07DDA7C007F0A7E00123B9843
:1026A100900008E4F0A37444F0A31208B60061118D
:1026B100EA7B917A007DA67C007F557E0012456001
:1026C1007BFF7A40794190001B7410F074FFA3F0F6
:1026D100A3F07411A3F0A3F07DDA7C007F557E0096
:1026E100123B98900008E4F0A37441F0A31208B6DD
:1026F10000615EF27B917A007DEF7C007F0A7E00B3
:102701001245607BFF7A40794A90001B7410F07487
:10271100FFA3F0A3F07411A3F0A3F07D207C017F4F
:102721000A7E00123B98900008E4F0A37441F0A3E4
:102731001208B60061A8947B467A007DEF7C007F89
:10274100A07E001245601256D7E4900187F0A3F0F5
:10275100A3F0A3F0900000E0B40B0FA3E0B4FF0AD4
:102761001256D7E4900000F0A3F0900001E004F0CD
:102771007006900000E004F0124D75900187E0FEB4
:10278100A3E0FFC3940AEE94004011D3EF9450EEFE
:1027910094005008900187E4F0A304F0900187E0D1
:1027A100FEA3E0FFC39455EE94004012D3EF949B37
:1027B100EE94005009900187E4F0A37402F09001B7
:1027C10087E0FEA3E0FFC394A0EE94004012D3EF94
:1027D10094DCEE94005009900187E4F0A37403F0B7
:1027E100900189E0FEA3E0FFC3941EEE9400401126
:1027F100D3EF9458EE94005008900189E4F0A304BB
:10280100F0900189E0FEA3E0FFC3945DEE940040E7
:1028110012D3EF94A1EE94005009900189E4F0A342
:102821007402F0900189E0FEA3E0FFC394A6EE9448
:10283100004012D3EF94EAEE94005009900189E42C
:10284100F0A37403F0900189E0FEA3E0FFC394EFCD
:10285100EE94004012D3EF9433EE940150099001AD
:1028610089E4F0A37404F0900189E0FEA3E0FFEE97
:10287100600302274AEF24FE603B14606B1470036F
:1028810002291C2403600302274A900187E0FEA36A
:10289100E0FFEE600302274AEF24FE600C14600F94
:1028A1002402600302274A8000123D2002274A12B7
:1028B10047BA02274A900187E0FEA3E0FFEE6003DA
:1028C10002274AEF24FE60121460172402600302FB
:1028D100274A7BFF7A407952806C7BFF7A4079638B
:1028E1008064123666022508900187E0FEA3E0FFAE
:1028F100EE600302274AEF24FE60101460152402E3
:10290100600302274A122EF902274A7BFF7A407997
:102911007480337BFF7A407985802B900187E0FEBC
:10292100A3E0FFEE600302274AEF24FE6012146069
:102931001F2402600302274A7BFF7A40798F8006B9
:102941007BFF7A40799974FFFDFC12528202274A7B
:102951007BFF7A4079A374FFFDFC12528202274A61
:1056280074FFFFFE124EE9900008E4F0A374AEF098
:10563800A31208B6005F4E507B8C7A007D497C002F
:0E5648007F3C7E001245607FFF7E0F0257768A
:10366600E4FFFE124EE97BFF7A4079AD90001374B9
:1036760007F0A374E0F0E4A3F0A3F0FDFCFFFE1254
:103686004E337BFF7A4079C49000137407F0A3741D
:10369600E0F0E4A3F0A3F07D10FCFFFE124E33121F
:1036A60054F5EF8EF012092D36C2EF1336CAEF1419
:1036B60036D2EF1536DAEF16000036FF7BFF7A407A
:1036C60079DE80167BFF7A4079E5800E7BFF7A40B3
:1036D60079EC80067BFF7A4079F390001B7410F03A
:1036E600A374F8F0A3E4F074FFA3F0A3F07D207CAC
:1036F60000E4FFFE123B9880267BFF7A4079FA9021
:10370600001374F8F0A3E4F074FFA3F0A3F07D2097
:103716007C00E4FFFE124E337FFF7E0F1257767F4A
:10372600FF7E001257767BFF7A41790690001B7464
:1037360010F0A37407F0A374E0F0E4A3F0A3F07D07
:1037460030FCFFFE123B987BFF7A41791790001BF5
:103756007410F0A374F8F0A3E4F074FFA3F0A3F0E0
:103766007D407C00E4FFFE123B987B017A01797173
:1037760012469C7B017A01797190001B7410F0A3AC
:1037860074F8F0A3E4F074FFA3F0A3F07D507C007E
:10379600E4FFFE123B987FFF7E001257767BFF7A8E
:1037A60041792590001B7410F0A37407F0A374E010
:1037B600F0E4A3F0A3F07D60FCFFFE123B987BFFD4
:1037C6007A41793690001B7410F0A374F8F0A3E4E4
:1037D600F074FFA3F0A3F07D707C00E4FFFE123BC3
:1037E600987B017A0079021255387FFF7E071257BF
:1037F600767B017A0079021255387BFF7A4179444B
:1038060090001B7410F0A37407F0A374E0F0741119
:10381600A3F0A3F07D807C00E4FFFE123B987B01C1
:103826007A00790290001374F8F0A3E4F074FFA311
:10383600F0A3F07D807C007F507E00124E337FFF28
:053846007E0F02577621
:1052820090000CEBF0A3EAF0A3E9F0A3ECF0A3ED9D
:01529200F02B
:1052930090000CE0FBA3E0FAA3E0F990001B74106C
:1052A300F0A374F8F0A3E4F090000FE0FFA3E09004
:1052B300001ECFF0A3EFF0E4FDFCFFFE123B987F4E
:1052C300FF7E0712577690000CE0FBA3E0FAA3E001
:1052D300F91258CBEF75F008A4FB7A00900017E49D
:1052E300F0A37410F090000FE0FFA3E0900019CF3B
:0C52F300F0A3EFF0E4FDFCFFFE024BC650
:104D750090000F7401F0A37401F0A37489F07B0116
:044D85007A017987AF
:104D890090000CEBF0A3EAF0A3E9F0A3E0F9A3E0AB
:104D9900FAA3E0900015C9F0A3EAF0A3E9F09000A6
:104DA9000CE0FBA3E0FAA3E0F91242EE90000CE05C
:104DB900FBA3E0FAA3E0F91207B3FDACF0E4120398
:104DC900567BE17A7A797078411202477B9A7A990F
:104DD900796D78C112004D12038F90000CE0FBA38E
:104DE900E0FAA3E0F9EE8FF01207DE90000FE0FB86
:104DF900A3E0FAA3E0F91207B3FDACF0E4120356FD
:104E09007BC37AF5792C78411202477BF67A2879A7
:104E19008C78C112004D12038F90000FE0FBA3E0C4
:0A4E2900FAA3E0F9EE8FF00207DEB5
:10577600E4FDFCC3ED9FEC9E5015E4FBFA0BBB0069
:0F578600010ABA03F8BBE8F50DBD00010C80E481
:0157950022F1
:1056D7007B017A01797112469CE4900181F07B018C
:1056E7007A01797C900013F0A3F074FFA3F0A3F084
:0956F700E4FDFC7FC8FE024E3305
:103D2000E4900002F0A3F07B017A01797112469CC5
:103D3000E4900178F07F1D7E05124EE9900017E4B3
:103D4000F0A37414F0A374FFF0A374E0F07B787A0E
:103D5000007D3C7C007F3C7E00124BC6900017E447
:103D6000F0A37468F074FFA3F0A3F07B787A007D71
:103D7000507C007F3C7E00124BC67B017A0179713A
:103D800090001374F8F0A3E4F07411A3F0A3F07D95
:103D90003D7C007F3D7E00124E337BFF7A41794FA0
:103DA00090001B7410F0A374F8F0A3E4F07411A356
:103DB000F0A3F07D3D7C007F967E00123B987B0156
:103DC0007A01798590001374F8F0A3E4F07411A3DC
:103DD000F0A3F07D3D7C007FA67E00124E33E49080
:103DE000017BF07B017A01797990001B7420F0A3AC
:103DF00074F8F0A3E4F07411A3F0A3F07D6E7C00DE
:103E00007F697E00123B981249CA900002E0FEA32F
:103E1000E0FFF47003EE640B6004EF4E70367B013C
:103E20007A01797112469CE4900181F07B017A015C
:103E3000797C90001374F8F0A3E4F074FFA3F0A36E
:103E4000F07D967C007F647E00124E33900002E489
:103E5000F0A304F0900003E004F07006900002E08C
:103E600004F0124D75900189E0FEA3E0FFD3942089
:103E7000EE94014095EF9440EE9401508D90000F28
:103E800074FFF0A37409F0A3748DF0900187E0FF34
:103E9000A3E0900012CFF0A3EFF07BFF7A25790129
:063EA00012418E023E0AF1
:10098D0078047C007D017BFF7A4179877E007F07AB
:10099D0012069290000B7401F0FB7A0179711246E8
:1009AD009C7F1D7E05124EE97BFF7A4179529000A6
:1009BD001B7420F074FFA3F0A3F07411A3F0A3F047
:1009CD007D147C007F187E00123B987B017A0179A3
:1009DD007190001374F8F0A3E4F074FFA3F0A3F08A
:1009ED007D807C007F287E00124E33900017E4F04E
:1009FD00A37414F0A374C6F0A37418F07B287A00C6
:100A0D007D697C007F647E00124BC67BFF7A417945
:100A1D005F90001B7410F0E4A3F0A3F07411A3F029
:100A2D00A3F07D6C7C007F737E00123B98900012CA
:100A3D00E4F0A37414F0A3E4F0A3741FF07B287A00
:100A4D00007D697C007F647E00122961900017E4AF
:100A5D00F0A37414F0A374C6F0A37418F07B287A75
:100A6D00007D947C007F647E00124BC67BFF7A4133
:100A7D00796290001B7410F0E4A3F0A3F07411A33D
:100A8D00F0A3F07D997C007F737E00123B9890005F
:100A9D0012E4F0A37414F0A3E4F0A3741FF07B2808
:100AAD007A007D947C007F647E001229619000178E
:100ABD00E4F0A37414F0A374C6F0A37418F07B28AB
:100ACD007A007DB47C007F287E00124BC67BFF7AB6
:100ADD00417965E4900013F0A3F07411A3F0A3F035
:100AED007DB67C007F2A7E00124E33900012E4F01A
:100AFD00A37414F0A3E4F0A3741FF07B287A007D97
:100B0D00B47C007F287E00122961900017E4F0A3C9
:100B1D007414F0A374C6F0A37418F07B287A007DCA
:100B2D00B47C007FAA7E00124BC67BFF7A41796AA6
:100B3D00E4900013F0A3F07411A3F0A3F07DB67C44
:100B4D00007FB97E00124E33900012E4F0A37414AE
:100B5D00F0A3E4F0A3741FF07B287A007DB47C0031
:100B6D007FAA7E001229611249CAE4900184F09097
:100B7D000181F090017EF090017BF0900178F09072
:100B8D000175F090000BE014B407004003020D64F2
:100B9D00900BAB75F003A4C58325F0C58373020BD1
:100BAD00C0020BFC020C38020C74020CB0020CEBF0
:100BBD00020D267B017A0179719000137407F0A361
:100BCD0074E0F0E4A3F0A3F07D80FC7F28FE124ECC
:100BDD00337B017A01798590001374F8F0A3E4F06A
:100BED0074FFA3F0A3F07D807C007FC8020D5F7BB6
:100BFD00017A0179769000137407F0A374E0F0E4A4
:100C0D00A3F0A3F07D80FC7F50FE124E337B017A62
:100C1D0001797190001374F8F0A3E4F074FFA3F060
:100C2D00A3F07D807C007F28020D5F7B017A017926
:100C3D00799000137407F0A374E0F0E4A3F0A3F02F
:100C4D007D80FC7F68FE124E337B017A01797690B0
:100C5D00001374F8F0A3E4F074FFA3F0A3F07D800B
:100C6D007C007F50020D5F7B017A01797C9000132F
:100C7D007407F0A374E0F0E4A3F0A3F07D80FC7F93
:100C8D0080FE124E337B017A01797990001374F84E
:100C9D00F0A3E4F074FFA3F0A3F07D807C007F68E7
:100CAD00020D5F7B017A01797F9000137407F0A329
:100CBD0074E0F0E4A3F0A3F07D80FC7F98FE124E6B
:100CCD00337B017A01797C90001374F8F0A3E4F082
:100CDD0074FFA3F0A3F07D807C007F8080747B0186
:100CED007A0179829000137407F0A374E0F0E4A305
:100CFD00F0A3F07D80FC7FB0FE124E337B017A01B4
:100D0D00797F90001374F8F0A3E4F074FFA3F0A3BF
:100D1D00F07D807C007F9880397B017A0179859008
:100D2D0000137407F0A374E0F0E4A3F0A3F07D804A
:100D3D00FC7FC8FE124E337B017A0179829000133D
:100D4D0074F8F0A3E4F074FFA3F0A3F07D807C00B1
:100D5D007FB07E00124E33124D75900189E0FEA3D7
:100D6D00E0FFD39420EE9401402EEF9440EE9401D9
:100D7D00502690000F74FFF0A37425F0A37401F0BA
:100D8D00900187E0FFA3E0900012CFF0A3EFF07B7E
:100D9D00FF7A3D792012418E900187E0FEA3E0FF9E
:100DAD00C39428EE94004029D3EF9450EE94005054
:100DBD0020A3E0FEA3E0FFC394B4EE94004012D351
:100DCD00EF94C8EE9400500990000BE004F030A5AC
:100DDD00FD900187E0FEA3E0FFC39496EE940050D2
:100DED0003020EAFD3EF94BEEE94004003020EAF9C
:100DFD00A3E0FEA3E0FFC394B4EE94005003020EF3
:100E0D00AFD3EF94C8EE94004003020EAF90018271
:100E1D00E024D0C454F0FFA3E024D04F900004F0A0
:100E2D0090017FE024D0C454F0FFA3E024D04F9074
:100E3D000005F090017CE024D0C454F0FFA3E02421
:100E4D00D04F900006F0900179E024D0C454F0FF0B
:100E5D00A3E024D04F900007F0900176E024D0C499
:100E6D0054F0FFA3E024D04F900008F0900185E0EE
:100E7D0024D0900009F0900173E024D0C454F0FF09
:100E8D00A3E024D04F90000AF07B017A0079041280
:100E9D004CA67BFF7A41796D7D1D7C051252823007
:100EAD00A5FD900187E0FEA3E0FFC39464EE9400DE
:100EBD00500302103FD3EF948CEE940040030210C8
:100ECD003FA3E0FEA3E0FFC39469EE94005003023C
:100EDD00103FD3EF947DEE9400400302103F90003D
:100EED000BE014B40700400302103C900F0675F0A0
:100EFD0003A4C58325F0C58373020F1B020F3F02A8
:100F0D000F71020FA3020FD0020FFD02102D9001E1
:100F1D0074E004F0E0D3943940097430F09001731B
:100F2D00E004F0900173E0D39439500302103C02B9
:100F3D001028900177E004F0E0D394324010900136
:100F4D0076E0B43109A37431F090017614F090017C
:100F5D0077E0D39439500302103C900176E004F011
:100F6D00A302102890017AE004F0E0D394314010F0
:100F7D00900179E0B43309A37431F090017914F044
:100F8D0090017AE0D39439500302103C900179E03E
:100F9D0004F0A302102890017DE004F0E0D3943317
:100FAD00400F90017CE0B43208A37430F090017CC6
:100FBD00F090017DE0D39439407590017CE004F010
:100FCD00A38058900180E004F0E0D39439400F9055
:100FDD00017FE0B43508A37430F090017FF09001EB
:100FED0080E0D39439404890017FE004F0A3802B3A
:100FFD00900183E004F0E0D39439400F900182E03A
:10100D00B43508A37430F0900182F0900183E0D3E1
:10101D009439401B900182E004F0A37430F0800FEE
:10102D00900185E004F0E0D3943740037431F03043
:10103D00A5FD900187E0FEA3E0FFC39464EE94004C
:10104D005003021202D3EF948CEE9400400302126F
:10105D0002A3E0FEA3E0FFC39494EE9400500302BC
:10106D001202D3EF94A8EE940040030212029000F6
:10107D000BE014B4070040030211FF90109675F0B9
:10108D0003A4C58325F0C583730210AB0210E002E3
:10109D00111702114D0211830211B90211EF9001C6
:1010AD0074E0B4300F900173E0B43008A37439F0DC
:1010BD00900173F0900174E0B43012900173E0640C
:1010CD0030600AA3743AF0900173E014F09001744B
:1010DD000211FC900177E0B43111900176E0B4304B
:1010ED000AA37433F09001767431F0900177E0B477
:1010FD003012900176E06430600AA3743AF09001EA
:10110D0076E014F09001770211FC90017AE0B43191
:10111D0010900179E0B43009A37432F09001790494
:10112D00F090017AE0B43012900179E06430600AF9
:10113D00A3743AF0900179E014F090017A0211FC59
:10114D0090017DE0B4301190017CE0B4300AA374BD
:10115D0034F090017C7432F090017DE0B430129047
:10116D00017CE06430600AA3743AF090017CE014D5
:10117D00F090017D8079900180E0B4301190017F75
:10118D00E0B4300AA3743AF090017F7435F0900109
:10119D0080E0B4301290017FE06430600AA3743AAD
:1011AD00F090017FE014F09001808043900183E086
:1011BD00B43011900182E0B4300AA3743AF090017A
:1011CD00827435F0900183E0B43012900182E064B6
:1011DD0030600AA3743AF0900182E014F09001831C
:1011ED00800D900185E0B431037438F0900185E0F5
:1011FD0014F030A5FD90000BE0D394075003020BC3
:07120D00907401F0020B9048
:1049CA0090002D7401F0A37420F074FFA3F0A3F0FB
:1049DA007BF07A007D207C01E4FFFE1231AF7BFF81
:1049EA007A41797E90001B7420F074FFA3F0A3F043
:1049FA007411A3F0A3F07D207C017F147E00123B8A
:104A0A00987BFF7A41798190001B7420F0A374A2ED
:104A1A00F0A37454F07411A3F0A3F07D207C017FFD
:104A2A00687E00123B9890002D7401F0A37430F058
:104A3A0074FFA3F0A3F07B837A007D307C017F6C46
:104A4A007E001231AF90002D7401F0A3743BF07414
:104A5A00FFA3F0A3F07B787A007D257C017F787E26
:104A6A00001231AF90002D7401F0A37440F074FF6E
:104A7A00A3F0A3F07B507A007D207C017F507E005A
:104A8A001231AF90002D7401F0A37440F074FFA3AB
:104A9A00F0A3F07BA07A007D207C017FA07E00122B
:104AAA0031AF7BFF7A41798490001B7420F074FF48
:104ABA00A3F0A3F07411A3F0A3F07D207C017FBBC7
:054ACA007E00023B9894
:10418E0090000CEBF0A3EAF0A3E9F0900012E0FE31
:10419E00A3E0FFC39450EE64809480503AEF9400F5
:1041AE00EE6480948040307BFF7A41797E90001BD4
:1041BE007420F074FFA3F0A3F0A3E4F0A3741FF037
:1041CE007D207C017F147E00123B9890000CA3E0B2
:1041DE00FAA3E0F912095A900012E0FEA3E0FFD311
:1041EE009450EE64809480500302428DEF94A0EEC2
:1041FE0064809480400302428D7BFF7A41798190E6
:10420E00001B7420F0A374A2F0A37454F0A3E4F086
:10421E00A3741FF07D207C017F687E00123B989076
:10422E00002D7401F0A37430F074FFA3F0A3F07BA3
:10423E00837A007D307C017F6C7E001231AF90005E
:10424E002D7401F0A3743BF074FFA3F0A3F07B7800
:10425E007A007D257C017F787E001231AF90002D93
:10426E007401F0A37440F074FFA3F0A3F07B507AB6
:10427E00007D207C017F507E001231AF122501900F
:10428E000012E0FEA3E0FFD394A0EE648094804081
:10429E003AEF94F0EE6480948050307BFF7A41794F
:1042AE008490001B7420F074FFA3F0A3F0A3E4F03D
:1042BE00A3741FF07D207C017FBB7E00123B989083
:0C42CE00000FA3E0FAA3E0F912095A2245
:1047BA00E4900002F0A3F07F1D7E05124EE99000FE
:1047CA0017E4F0A37432F0A3E4F0A3741FF07B980B
:1047DA007A007D3C7C007F2D7E00124BC690001231
:1047EA00E4F0A3741EF0A374F8F0A3E4F07B84FA57
:1047FA007D46FC7F37FE1229611249CA900002E009
:10480A00FEA3E0FFF44E6004EF4E70557B017A0080
:10481A0079041255387BFF7A41794490001B741051
:10482A00F0A374F8F0A3E4F07411A3F0A3F07D4EA2
:10483A007C007F387E00123B987B017A00790490D5
:10484A00001374F8F0A3E4F074FFA3F0A3F07D4E14
:10485A007C007F807E00124E33900002E4F0A304B5
:10486A00F0900003E004F07006900002E004F012F9
:10487A004D75900189E0FEA3E0FFD39420EE9401E8
:10488A005003024806EF9440EE94014003024806A2
:10489A0090000F74FFF0A37425F0A37401F0900147
:1048AA0087E0FFA3E0900012CFF0A3EFF07BFF7A3E
:0948BA0025790112418E02480625
:102EF90090000274F8F0A3E4F07F1D7E05124EE9FC
:102F09009000177401F0A37420F074FFA3F0A3F0EC
:102F19007BF07A00E4FDFCFFFE124BC6900017E43B
:102F2900F0A37418F0A37405F0A3741DF07BF07A74
:102F3900007D087C01E4FFFE124BC6900017E4F007
:102F4900A37418F074FFA3F0A3F07B187A007D082E
:102F59007C01E4FFFE124BC6900017E4F0A374183D
:102F6900F0E4A3F0A3F07B18FA7D087C017F18FE3A
:102F7900124BC6900017E4F0A37418F0A374C6F0BE
:102F8900A37418F0FB7A007D087C017F307E001263
:102F99004BC6900017E4F0A37418F0A3E4F0A374EF
:102FA9001FF07B187A007D087C017F487E00124B58
:102FB900C6900017E4F0A37418F0A374F8F0A3E422
:102FC900F07B18FA7D087C017F60FE124BC69000E9
:102FD90017E4F0A37418F0A374F8F0A3741FF07B3E
:102FE900187A007D087C017F787E00124BC690001C
:102FF90017E4F0A37418F0A37407F0A374E0F07B4E
:10300900187A007D087C017F907E00124BC69000E3
:1030190017E4F0A37418F0A3747FF0A374FFF07B96
:10302900187A007D087C017FA87E00124BC69000AB
:1030390017E4F0A37418F0A374FFF0A374E0F07B15
:10304900187A007D087C017FC07E00124BC6900073
:1030590017E4F0A37418F0A374B7F0A37423F07BFA
:10306900187A007D087C017FD87E00124BC6124970
:10307900CA124D75900189E0FEA3E0FFD39400EEDA
:1030890094004021EF9408EE94015019900187E0D3
:10309900FEA3E0FFA3E0FCA3E0FD900002E0FAA399
:1030A900E0FB125204900189E0FEA3E0FFD39420D3
:1030B900EE9401402EEF9440EE9401502690000FBB
:1030C90074FFF0A37425F0A37401F0900187E0FF69
:1030D900A3E0900012CFF0A3EFF07BFF7A257901EE
:1030E90012418E900189E0FEA3E0FFD39408EE948B
:1030F90001500302307AEF9420EE9401400302302C
:103109007A900187E0FEA3E0FF7C007D1812073268
:10311900EFB40A00400302307A903129F828287365
:1031290002314702314B02315502316202316802E4
:1031390031740231810231880231950231A274FF62
:103149008001E4900002F0A3F002307A900002744A
:10315900C6F0A37418F002307A900002E48011904E
:10316900000274F8F0A3E4F002307A90000274F8D7
:10317900F0A3741FF002307A900002740780129055
:103189000002747FF0A374FFF002307A9000027499
:10319900FFF0A374E0F002307A90000274B7F0A354
:0631A9007423F002307AED
:0600030025372E336600D4
:1058E000EF25E02405FFEFD3940040077E05DEFEA0
:0358F0001F80F323
:0158F3002292
:1058F400EFD39400400D00007E207D1CDDFEDEFC15
:035904001F80ED14
:01590700227D
:10572800C200D2807F051258E0C2807FC81258E0BC
:105738007FC81258E0D2807F321258E0A2809200CF
:075748007F191258E0A200D6
:01574F002237
:1057EE00E4FC7D08C280ECC313FCD28030800344FD
:0B57FE0080FC7F191258E0DDEBAF04C7
:01580900227C
:02580A00AD07E8
:10580C007B08C280ED1392807F191258E0D280ED94
:0A581C00C313FDDBED7F190258E015
:1055EE00E4FBFFFEFDFC1257287FCC12580A7F44C5
:1055FE0012580A7F0A1258F41257287FCC12580AF2
:10560E007FBE12580A1257EEAB071257EEEF7F000D
:09561E00FEEF2BFDE43EFEAF059A
:015627002260
:0B55380090000BEBF0A3EAF0A3E9F0F9
:105543001255EEAD07AC06E4120356E4FBFA79807C
:10555300783D12013E90001174FFF0A37400F0A394
:105563007403F0A31208AA90000BE0FBA3E0FAA3D4
:05557300E0F90220E355
:10579600538EF7759A50438E04200903759C9830F2
:0E57A6000903759CF7438E10D2AF75AF012238
:0B5954008F9BE59A30E1FB539AFD2287
:030043000256ACB6
:1056AC00C0E0C083C082C0D075D000C007E59A307E
:1056BC00E00E539AFE900190E59BF0E0FF125954D6
:0B56CC00D007D0D0D082D083D0E032D5
:100046000203FBE86480F8E933E83360110460F0EA
:10005600ED33EC337009E8FCE9FDEAFEEBFF220420
:1000660060DED3EB9FEA9EE99DE8C2E78CF0C2F71B
:1000760095F0400CE8CCF8E9CDF9EACEFAEBCFFBE7
:100086001203C685D0F05804700320D5B3E8047077
:10009600075002B2D502040592D5EC0460F7E4CC11
:1000A600C0E0C398F8603B94186008400DD0E0FBB0
:1000B6000203DDE4FBFAC9FC8028E830E406E4C963
:1000C600FBE4CAFCE830E305E4C9CACBFCE8540704
:1000D6006010F8C3E913F9EA13FAEB13FBEC13FC0F
:1000E600D8F130F52FC3E49CFCEF9BFFEE9AFEEDB2
:1000F60099FDD0E0FBEF4E4D4C701222DB0302045B
:1001060002EC2CFCEF33FFEE33FEED33FDED30E772
:10011600EB0203DDEF2BFFEE3AFEED39FDD0E0FBFF
:1001260050130BBB0003020405ED13FDEE13FEEFA7
:0801360013FFEC13FC0203DDD2
:10013E00EC4D6011E8497017ED33EC3304600DE4BB
:10014E00FCFFFEFD22E933E8330470F80203FB12D4
:10015E0003C658046009E4CC2481500628500902D5
:10016E000405284003020402C0E0EB4A7044B98043
:10017E0006D0E0FB0203F1EF4E701CBD8008EBFFD2
:10018E00EAFEE9FD80EBE98DF0A4FEE5F002022720
:10019E00E9CDF9EAFEEBFFEF89F0A4FCE5F0CE899C
:1001AE00F0A42EFFE435F0CD89F0A42DFEE435F059
:1001BE008067EF4E7005BD80D780C3EF8BF0A4AC87
:1001CE00F0EE8BF0A42CFCE435F0F8EF8AF0A42CC2
:1001DE00E5F038FCE433CB8DF0A42CFCE5F03BF8D5
:1001EE00EE8AF0A42CFCE5F038F8E433CF89F0A4C5
:1001FE002CFCE5F038CF3400CE89F0A42FFFE5F0CB
:10020E003EFEE433C98DF0A42EFEE5F039CD8AF022
:10021E00A42FFFE5F03EFEE43DFD33D0E0FB50079A
:10022E000BBB000F020405EC2CFCEF33FFEE33FE8C
:06023E00ED33FD0203DDBB
:10024400020405EC5D046005E8590470030203FB35
:100254001203C6580460F6EC4860F2EC7004FDFE2C
:10026400FF22C860DB2481C85009C398600250068D
:100274000204029850CAF582E9294B4A7005AB8200
:100284000203F175F0007C1A7880C3EF9BEE9AEDBF
:1002940099400DC3EF9BFFEE9AFEED99FDE842F005
:1002A400DC23ACF0D0E0FFD0E0FED0E0FDAB822058
:1002B400E7101BEB60BAEC2CFCEF33FFEE33FEEDE2
:1002C40033FD0203DDE803F830E705C0F075F00004
:1002D400EF2FFFEE33FEED33FD40B830E7C280AAC6
:1002E40074F8CC6480CCC86480C8F582046043C3CD
:1002F400EB9FF5F0EA9E42F0E99D42F0E89C45F060
:1003040060305018E5825FFFE582F42B5582FB5084
:10031400210ABA001D09B90019088016E5825BFBA1
:10032400E582F42F5582FF50090EBE00050DBD0075
:10033400010CC3EB9FF5F0EA9E42F0E99D42F0E820
:0D0344009C45F06007CC4820E701B3EC2297
:1003510075F020800E75F010800575F0087D007E27
:10036100007F003392D530D50312084CEC33401096
:10037100EF33FFEE33FEED33FDEC33FCD5F0ED2230
:0E038100E5F0247EA2D513CC92E7CDCEFF226C
:10038F00EDD2E7CD33EC3392D524814006E4FFFE66
:10039F00FDFC22FCE4CFCECDCC24E0501174FF80C5
:1003AF00EDC3CC13CCCD13CDCE13CECF13CF047062
:0703BF00F030D5DE02084C0E
:10207E00E5082411F582E43400F583E0050822908A
:10208E00000E300703900011E475F0011208E7020C
:10209E0006B82000E97F2ED2008018EF540F24904E
:1020AE00D43440D4FF30040BEF24BFB41A005003D5
:1020BE002461FFE50960021509050CE50C700205A7
:1020CE000B30070E90000EE475F0011208E7EF02D8
:1020DE0006FE0248C37403D2078003E4C207F50864
:1020EE0090000E1208FEE4F509F50BF50CE50960FB
:1020FE00077F201220C180F5750AFFC201C200C2FF
:10210E0002C203C205C206C20812208DFF700D3036
:10211E0007057F001220D2AF0CAE0B22B4255FC292
:10212E00D5C20412208DFF24D0B40A00501A75F0C7
:10213E000A780930D50508B6FF0106C6A426F62092
:10214E00D5047002D20380D924CFB41A00EF500404
:10215E00C2E5D2040223C4D20180C6D20080C0D20E
:10216E000280BCD2D580BAD20580B47F201220C1A5
:10217E002002077401B5090040F112207EFF1220E3
:10218E00C10220FBD208D206809512207EFB1220BF
:10219E007EFA12207EF94A4B700679C27A247BFFB2
:1021AE0020022EE509602A7E008E827583001206BB
:1021BE00D160060EEE650A70F0C2D5EBC0E0EAC043
:1021CE00E0E9C0E0EE122425D0E0F9D0E0FAD0E04C
:1021DE00FB1206B8FF60AAEBC0E0EAC0E0E9C0E07F
:1021EE001220C1D0E02401F9D0E03400FAD0E0FB97
:1021FE00E50A0460DCD50AD98087D20280A21224B7
:10220E000760F7E50A700104120410A90A600DE5D3
:10221E000A600914F50A1224AFEF60F3EA30E70200
:10222E00F404C3995079EAF4250A0430E701E40472
:10223E00F50A800D12240760C1EA050A250A120468
:10224E0010EA90003DF030E701E4250A04D50A04B7
:10225E0020050114122425E4C0E01224AF90003DA5
:10226E00E0601320E70714F01220A9802204F0D0BA
:10227E00E014C0E07F001220A9E50A60071220A03A
:10228E00150A800B3005031220A0D0E00220FBD0EF
:10229E00E00480C4122407609EE50A041204109024
:1022AE00003DEAF0E50A2005026001042404122430
:0122BE0025FA
:1022BF0074FF04C0E01224AF1220A9E50A20050222
:1022CF0060031220A0D0E0B50AE87F451220B3903A
:1022DF00003DE07F2B30E7047F2DF404C0E0122097
:1022EF00C1D0E075F00A84C0F01220AAD0E012200D
:1022FF00AA0220FB791080027908C206C208800862
:10230F00D2D5790A8004790AC2D5E50A047002F59C
:10231F000AE4FAFDFEFF12207EFC7B082001131257
:10232F00207EFD7B1030000A12207EFE12207EFFE1
:10233F007B20EC3382D592D55013C3E43000069F37
:10234F00FFE49EFEE42001039DFDE49CFCE4CBF83A
:10235F00C201EC700CCFCECDCCE824F8F870F3802E
:10236F0017C3EF33FFEE33FEED33FDEC33FCEB33EE
:10237F00FB994002FB0FD8E9EB300105F8D0E0C420
:10238F0048B201C0E00AEC4D4E4F78207B0070C27E
:10239F00EAB50A0040BCC0E0122427D0F0D0E020FC
:1023AF000104C4C0E0C4B201C0F01220AAD0F0D51D
:1023BF00F0EB0220FB1209072198532303582169E0
:1023CF004C21654223074F230F44230F49217E439E
:1023DF0023155522424622A245220C4724E25021C2
:1023EF006D2D21712E21942B21752321922024CB29
:1023FF002A212D480000218CE50AB4FF03750A0637
:10240F0012207EFC12207EFD12207EFE12207EFF07
:10241F0090003602044D790AA2D520031430050925
:10242F00B910020404B9080104A2D5200602500114
:10243F00042002689202B509005034C0E07F2030BA
:10244F0003197F30A20272067205500F12247EC24A
:10245F0002C206C205C2087F30800F300503E9C0F3
:10246F00E01220C1300503D0E0F9D0E0B509CC303F
:10247F0005177F30B9100C1220C17F583004077F29
:10248F00788003B908031220C13002057F2D022086
:10249F00C17F202008F87F2B2006F322920280CFE5
:1024AF007F00B40700500B2436F582E43400F58327
:1024BF00E0FF22286E756C6C2900D20112207E304D
:1024CF0001F8C201780930D50108F602212D2D50EF
:1024DF0043495812207E2403B405004001E49024A0
:1024EF00DD931220B2743A1220B2D203750904029E
:0224FF002303B5
:104F97000203FB22EDA2E7D2E7F9EC3340F260F31C
:104FA700B4FF08ED547F70E8020405F82481C2E0DD
:104FB700C0E0F40428FAC313FCED92E7FD9000214A
:104FC7001208AAEEA2E7E9BA7F02C31334009400DD
:104FD700FA75F091A4E5F013F494FE8AF0A433E592
:104FE700F033248CD313FDE492E7FE7F007C3F75FA
:104FF7008302ECC0E0F8EDC0E0F9EEC0E0FAEFC0E4
:10500700E0FB8583F090002112087E85F083120271
:1050170047D0E0FBD0E0FAD0E0F9D0E0F812004D3D
:10502700ED6480FD30E7011CD583C7ED33CC33F841
:0C503700D0E0A2E71328C313CC13FD2225
:1003C600E9D2E7C933E833F892D5EDD2E7CD33EC7D
:0703D60033FC5002B2D522F6
:1003DD00EC30E7100FBF000C0EBE00080DBD000481
:1003ED000BEB6014A2D5EB13FCED92E7FD2274FF2D
:1003FD00FCFDFEFF22E480F8A2D574FF13FC7D8086
:03040D00E480EF99
:10041000F920E73624F950037907E4F42402FBE5D8
:1004200082158270021583DBF6E024FB501BE96025
:1004300014E4F0E582158270021583E004F0B40A3A
:0D04400008E4F0D9EE7401F00A22C2D522C2
:10044D00ED33EC3392D5FA602AB4FF33EDC2E77B7E
:10045D00FF60067A047972E4227A04797B20D50450
:10046D007A047976224E614E002B494E46002D4975
:10047D004E4600E47A08F0A3DAFC7B00740722C034
:10048D0083C082ECC0E0EDC0E0EEC0E0EFC0E0EA7A
:10049D0075F010A4CAABF075F04DA42BFBE435F04C
:1004AD00FCEA2410FAEB34C5FBEC34D9FCEDC2E7C1
:1004BD00FF75F056A4F42411C5F0F434C58FF0A4E3
:1004CD002AE5F03BE43CF020E714120582D0E0FF72
:1004DD00D0E0FED0E0FDD0E0FC1202478014F40421
:1004ED00120582D0E0FFD0E0FED0E0FDD0E0FC129E
:1004FD00013ED082D083E0FAEDD2E7CD33EC332448
:10050D0082FBE4C3CF33CFCE33CECD33CD33DBF34C
:10051D007B0775F00A846004F0A31B0AE5F0F0A3D5
:10052D008FF0740AA4FFACF08EF0740AA42CFEAC0C
:10053D00F050010C8DF0740AA42CFDE435F0F0A3FD
:05054D00DBDE74072253
:100552003F8000004120000042C80000447A0000B1
:10056200461C400047C35000497424004B18968033
:100572004CBEBC205A0E1BCA6753C21C749DC5AE2A
:10058200FB60065407601C23231205B0EB5438604D
:100592000912059C1205AB12013EECF8EDF9EEFAD8
:1005A200EFCB22EB1205AB80F1543803241C9005EB
:1005B20052FE93FC0EEE93FD0EEE930ECE93FF22AF
:10518400025859E493A3F8E493A34003F68001F290
:1051940008DFF48029E493A3F85407240CC8C3332C
:1051A400C4540F4420C8834004F456800146F6DFFB
:1051B400E4800B0102040810204080905465E47ED2
:1051C400019360BCA3FF543F30E509541FFEE493F0
:1051D400A360010ECF54C025E060A840B8E493A3B7
:1051E400FAE493A3F8E493A3C8C582C8CAC583CAE2
:1051F400F0A3C8C582C8CAC583CADFE9DEE780BE9A
:0154AD0000FE
:1005C200E709F608DFFA8046E709F208DFFA803E1B
:1005D20088828C83E709F0A3DFFA8032E309F60808
:1005E200DFFA8078E309F208DFFA807088828C8370
:1005F200E309F0A3DFFA806489828A83E0A3F60824
:10060200DFFA805889828A83E0A3F208DFFA804CFD
:1006120080D280FA80C680D4806980F280338010D4
:1006220080A680EA809A80A880DA80E280CA80333D
:1006320089828A83ECFAE493A3C8C582C8CCC583B5
:10064200CCF0A3C8C582C8CCC583CCDFE9DEE78085
:100652000D89828A83E493A3F608DFF9ECFAA9F004
:10066200EDFB2289828A83ECFAE0A3C8C582C8CC5A
:10067200C583CCF0A3C8C582C8CCC583CCDFEADE73
:10068200E880DB89828A83E493A3F208DFF980CCD5
:1006920088F0EF60010E4E60C388F0ED2402B404CE
:1006A2000050B9F582EB2402B4040050AF23234575
:0606B20082239006127382
:1006B800BB010689828A83E0225002E722BBFE0240
:0906C800E32289828A83E4932273
:1006D100BB010CE58229F582E5833AF583E02250DE
:1006E10006E92582F8E622BBFE06E92582F8E22228
:0D06F100E58229F582E5833AF583E4932242
:1006FE00BB010689828A83F0225002F722BBFE01DB
:02070E00F322D4
:10071000F8BB010DE58229F582E5833AF583E8F01F
:10072000225006E92582C8F622BBFE05E92582C8CB
:02073000F222B3
:10073200BC000BBE0029EF8DF084FFADF022E4CCAB
:10074200F875F008EF2FFFEE33FEEC33FCEE9DEC74
:10075200984005FCEE9DFE0FD5F0E9E4CEFD22EDBA
:10076200F8F5F0EE8420D21CFEADF075F008EF2F04
:10077200FFED33FD4007985006D5F0F222C398FDF5
:050782000FD5F0EA2292
:10078700C5F0F8A3E028F0C5F0F8E58215827002FD
:060797001583E038F0229A
:10079D00A3F8E0C5F025F0F0E5821582700215830F
:0607AD00E0C838F0E8226C
:1007B300BB010A89828A83E0F5F0A3E02250068711
:1007C300F009E71922BBFE07E3F5F009E3192289D3
:0B07D300828A83E493F5F07401932206
:1007DE00BB010A89828A83F0E5F0A3F0225006F766
:0F07EE0009A7F01922BBFE06F3E5F009F3192263
:1007FD00E88FF0A4CC8BF0A42CFCE98EF0A42CFC9B
:10080D008AF0EDA42CFCEA8EF0A4CDA8F08BF0A418
:10081D002DCC3825F0FDE98FF0A42CCD35F0FCEB77
:10082D008EF0A4FEA9F0EB8FF0A4CFC5F02ECD393C
:0F083D00FEE43CFCEAA42DCE35F0FDE43CFC22A9
:0E084C00C3E49FFFE49EFEE49DFDE49CFC22BD
:10085A00EB9FF5F0EA9E42F0E99D42F0E89C45F0F4
:01086A00226B
:10086B00E8600FECC313FCED13FDEE13FEEF13FF6B
:03087B00D8F1228F
:0C087E00E0FCA3E0FDA3E0FEA3E0FF22ED
:10088A00E493FC740193FD740293FE740393FF22B4
:10089A00E493F8740193F9740293FA740393FB22B4
:0C08AA00ECF0A3EDF0A3EEF0A3EFF022C1
:1008B600A8828583F0D083D0821208CD1208CD128B
:1008C60008CD1208CDE473E493A3C583C5F0C583B0
:1008D600C8C582C8F0A3C583C5F0C583C8C582C88C
:0108E60022EF
:1008E700F8E0FBA3A3E0F925F0F0E582158270029A
:0708F7001583E0FA38F0223E
:0908FE00EBF0A3EAF0A3E9F022FB
:10090700D083D082F8E4937012740193700DA3A37F
:1009170093F8740193F5828883E473740293686093
:06092700EFA3A3A380DF93
:10092D00D083D082F8E4937012740193700DA3A359
:10093D0093F8740193F5828883E473740293B5F090
:0D094D00067403936860E9A3A3A3A380D8F8
:06095A008A838982E47328
:10096000EC8EF0A4CCC5F0CCCDF8EFA4CEC5F02D24
