:030000000258A9FA
:0C58A900787FE4F6D8FD7581210258F0EC
:10000E00D6DC00C9E8D6C3CFB5CDB3CAB1BCE400C7
:10001E00A1F800A88B004E657874004F6B00D2D10A
:10002E00C9E8B6A8CFB5CDB3CAB1BCE42100000073
:05003E000000000000BD
:10402900E490000DF0A3F07B017A0279BD124C9760
:10403900E49002C4F07F1D7E05125570900166E47C
:10404900F0A37414F0A374FFF0A374E0F07B787A02
:10405900007D3C7C007F3C7E001251A4900166E407
:10406900F0A37468F074FFA3F0A3F07B787A007D65
:10407900507C007F3C7E001251A47B017A0279BDFD
:1040890090001E74F8F0A3E4F07411A3F0A3F07D7E
:104099003D7C007F3D7E0012540C7BFF7A00790E37
:1040A9009001677410F0A374F8F0A3E4F07411A3FD
:1040B900F0A3F07D3D7C007F967E001243587B0182
:1040C9007A0279D190001E74F8F0A3E4F07411A378
:1040D900F0A3F07D3D7C007FA67E0012540CE49095
:1040E90002C7F07B017A0279C59001677420F0A3B9
:1040F90074F8F0A3E4F07411A3F0A3F07D6E7C00D2
:104109007F697E00124358124EBC90000DE0FEA359
:10411900E0FFF47003EE640B6004EF4E70367B0130
:104129007A0279BD124C97E49002CDF07B017A02B4
:1041390079C890001E74F8F0A3E4F074FFA3F0A30B
:10414900F07D967C007F647E0012540C90000DE493
:10415900F0A304F090000EE004F0700690000DE06A
:1041690004F09000067401F0A37402F0A374D5F072
:104179007B017A0279D31253539002D5E0FEA3E072
:10418900FFD39420EE94014081EF9440EE940140D6
:104199000302411390001A74FFF0A3740BF0A37487
:1041A90034F09002D3E0FFA3E090001DCFF0A3EF1D
:0D41B900F07BFF7A2679C4124659024113AB
:100B3400780F7C007D017BFF7A00793C7E007F0783
:100B440012069E9000167401F0FB7A0279BD124CD5
:100B5400977F1D7E051255707BFF7A0079119001F5
:100B6400677420F074FFA3F0A3F07411A3F0A3F052
:100B74007D147C007F187E001243587B017A027931
:100B8400BD90001E74F8F0A3E4F074FFA3F0A3F08A
:100B94007D807C007F287E0012540C900166E4F076
:100BA400A37414F0A374C6F0A37418F07B287A001D
:100BB4007D697C007F647E001251A47BFF7A0079FA
:100BC4001E9001677410F0E4A3F0A3F07411A3F075
:100BD400A3F07D6C7C007F737E0012435890001D4F
:100BE400E4F0A37414F0A3E4F0A3741FF07B287A58
:100BF400007D697C007F647E00123153900166E4BD
:100C0400F0A37414F0A374C6F0A37418F07B287ACC
:100C1400007D947C007F647E001251A47BFF7A00E7
:100C240079219001677410F0E4A3F0A3F07411A388
:100C3400F0A3F07D997C007F737E001243589000EE
:100C44001DE4F0A37414F0A3E4F0A3741FF07B2854
:100C54007A007D947C007F647E001231539001669B
:100C6400E4F0A37414F0A374C6F0A37418F07B2802
:100C74007A007DB47C007F287E001251A47BFF7A29
:100C8400007924E490001EF0A3F07411A3F0A3F003
:100C94007DB67C007F2A7E0012540C90001DE4F087
:100CA400A37414F0A3E4F0A3741FF07B287A007DEE
:100CB400B47C007F287E00123153900166E4F0A3D7
:100CC4007414F0A374C6F0A37418F07B287A007D22
:100CD400B47C007FAA7E001251A47BFF7A0079299C
:100CE400E490001EF0A3F07411A3F0A3F07DB67C91
:100CF400007FB97E0012540C90001DE4F0A374141C
:100D0400F0A3E4F0A3741FF07B287A007DB47C0088
:100D14007FAA7E00123153124EBCE49002D0F090B0
:100D240002CDF09002CAF09002C7F09002C4F09095
:100D340002C1F0900016E014B407004003020F0B48
:100D4400900D5275F003A4C58325F0C58373020D7D
:100D540067020DA3020DDF020E1B020E57020E9254
:100D6400020ECD7B017A0279BD90001E7407F0A3B8
:100D740074E0F0E4A3F0A3F07D80FC7F28FE12541D
:100D84000C7B017A0279D190001E74F8F0A3E4F090
:100D940074FFA3F0A3F07D807C007FC8020F067B64
:100DA400017A0279C290001E7407F0A374E0F0E4A3
:100DB400A3F0A3F07D80FC7F50FE12540C7B017ADB
:100DC4000279BD90001E74F8F0A3E4F074FFA3F060
:100DD400A3F07D807C007F28020F067B017A0279D4
:100DE400C590001E7407F0A374E0F0E4A3F0A3F030
:100DF4007D80FC7F68FE12540C7B017A0279C290DC
:100E0400001E74F8F0A3E4F074FFA3F0A3F07D8057
:100E14007C007F50020F067B017A0279C890001E85
:100E24007407F0A374E0F0E4A3F0A3F07D80FC7FEA
:100E340080FE12540C7B017A0279C590001E74F86E
:100E4400F0A3E4F074FFA3F0A3F07D807C007F683E
:100E5400020F067B017A0279CB90001E7407F0A37F
:100E640074E0F0E4A3F0A3F07D80FC7F98FE1254BC
:100E74000C7B017A0279C890001E74F8F0A3E4F0A8
:100E840074FFA3F0A3F07D807C007F8080747B01DD
:100E94007A0279CE90001E7407F0A374E0F0E4A304
:100EA400F0A3F07D80FC7FB0FE12540C7B017A022B
:100EB40079CB90001E74F8F0A3E4F074FFA3F0A3C0
:100EC400F07D807C007F9880397B017A0279D19013
:100ED400001E7407F0A374E0F0E4A3F0A3F07D8097
:100EE400FC7FC8FE12540C7B017A0279CE90001E5E
:100EF40074F8F0A3E4F074FFA3F0A3F07D807C0009
:100F04007FB07E0012540C90001A7401F0A3740296
:100F1400F0A374D5F07B017A0279D31256CA9002F9
:100F2400D5E0FEA3E0FFD39420EE9401402EEF948D
:100F340040EE9401502690001A74FFF0A37426F03A
:100F4400A374C4F09002D3E0FFA3E090001DCFF09F
:100F5400A3EFF07BFF7A4079291246599002D3E03F
:100F6400FEA3E0FFC39428EE9400402BD3EF9450EB
:100F7400EE940050229002D5E0FEA3E0FFC394B4A7
:100F8400EE94004012D3EF94C8EE94005009900000
:100F940016E004F030A5FD9002D3E0FEA3E0FFC309
:100FA4009496EE9400500302106ED3EF94BEEE9428
:100FB40000400302106E9002D5E0FEA3E0FFC3944C
:100FC400B4EE9400500302106ED3EF94C8EE940074
:100FD400400302106E9002CEE024D0C454F0FFA36C
:100FE400E024D04F90000FF09002CBE024D0C45402
:100FF400F0FFA3E024D04F900010F09002C8E0244A
:10100400D0C454F0FFA3E024D04F900011F090021C
:10101400C5E024D0C454F0FFA3E024D04F900012C4
:10102400F09002C2E024D0C454F0FFA3E024D04FD7
:10103400900013F09002D1E024D0900014F09002BC
:10104400BFE024D0C454F0FFA3E024D04F90001597
:10105400F07B017A00790F1252847BFF7A00792C9D
:101064007D1D7C05125A3230A5FD9002D3E0FEA30B
:10107400E0FFC39464EE94005003021200D3EF9493
:101084008CEE940040030212009002D5E0FEA3E02F
:10109400FFC39469EE94005003021200D3EF947DD1
:1010A400EE94004003021200900016E014B407000E
:1010B40040030211FD9010C775F003A4C58325F009
:1010C400C583730210DC02110002113202116402A2
:1010D40011910211BE0211EE9002C0E004F0E0D3BF
:1010E400943940097430F09002BFE004F09002BFDC
:1010F400E0D3943950030211FD0211E99002C3E0D8
:1011040004F0E0D3943240109002C2E0B43109A359
:101114007431F09002C214F09002C3E0D3943950B9
:10112400030211FD9002C2E004F0A30211E990024F
:10113400C6E004F0E0D3943140109002C5E0B4332B
:1011440009A37431F09002C514F09002C6E0D39460
:101154003950030211FD9002C5E004F0A30211E925
:101164009002C9E004F0E0D39433400F9002C8E049
:10117400B43208A37430F09002C8F09002C9E0D3EE
:10118400943940759002C8E004F0A380589002CCD2
:10119400E004F0E0D39439400F9002CBE0B435087A
:1011A400A37430F09002CBF09002CCE0D394394099
:1011B400489002CBE004F0A3802B9002CFE004F02F
:1011C400E0D39439400F9002CEE0B43508A37430D4
:1011D400F09002CEF09002CFE0D39439401B9002FD
:1011E400CEE004F0A37430F0800F9002D1E004F05C
:1011F400E0D3943740037431F030A5FD9002D3E07E
:10120400FEA3E0FFC39464EE940050030213C5D31D
:10121400EF948CEE940040030213C59002D5E0FED7
:10122400A3E0FFC39494EE940050030213C5D3EFDC
:1012340094A8EE940040030213C5900016E014B481
:10124400070040030213C290125975F003A4C5832A
:1012540025F0C5837302126E0212A30212DA02137E
:101264001002134602137C0213B29002C0E0B430A1
:101274000F9002BFE0B43008A37439F09002BFF0BD
:101284009002C0E0B430129002BFE06430600AA360
:10129400743AF09002BFE014F09002C00213BF90C1
:1012A40002C3E0B431119002C2E0B4300AA3743333
:1012B400F09002C27431F09002C3E0B43012900294
:1012C400C2E06430600AA3743AF09002C2E014F001
:1012D4009002C30213BF9002C6E0B431109002C55D
:1012E400E0B43009A37432F09002C504F09002C651
:1012F400E0B430129002C5E06430600AA3743AF09E
:101304009002C5E014F09002C60213BF9002C9E037
:10131400B430119002C8E0B4300AA37434F09002DF
:10132400C87432F09002C9E0B430129002C8E0648C
:1013340030600AA3743AF09002C8E014F09002C935
:1013440080799002CCE0B430119002CBE0B4300A42
:10135400A3743AF09002CB7435F09002CCE0B43030
:10136400129002CBE06430600AA3743AF09002CB8E
:10137400E014F09002CC80439002CFE0B43011909E
:1013840002CEE0B4300AA3743AF09002CE7435F081
:101394009002CFE0B430129002CEE06430600AA331
:1013A400743AF09002CEE014F09002CF800D9002D7
:1013B400D1E0B431037438F09002D1E014F030A5D8
:1013C400FD900016E0D394075003020D377401F02A
:0313D400020D37D0
:1050B800486172647761726520436865636B20524A
:1050C800756E6E696E67002A2A2A2A2A2A2A466C71
:1050D80061736820436865636B2A2A2A2A2A2A2A68
:1050E8000057323551383000573235513136005774
:1050F80032355133320057323551363400466C61FF
:105108007368204572726F72002A2A2A2ACAB1D699
:10511800D3BCECB2E22A2A2A2A00B6C1C8A1CAB175
:10512800BCE4D6D02E2E2E002A2A2A2ACEC2B6C8F1
:10513800BCECB2E22A2A2A2A00B6C1C8A1CEC2B65D
:10514800C8D6D02E2E2E00B5B1C7B0CEC2B6C83A3A
:10515800002A2A2A2A4C4544BCECB2E22A2A2A2AE6
:10516800004C45443120C1C1004C45443220C1C1E6
:10517800004C45443320C1C1004C45442020B9D8D7
:10518800002A2A2A2AB7E4C3F9C6F7BCECB2E22AF5
:0C5198002A2A2A00BEAFB1A833C9F900D2
:102E5100E4FFFE1255707BFF7A5079B890001E7422
:102E610007F0A374E0F0E4A3F0A3F0FDFCFFFE1271
:102E7100540C7BFF7A5079CF90001E7407F0A37435
:102E8100E0F0E4A3F0A3F07D10FCFFFE12540C125D
:102E91005DDCEF8EF01209392EADEF132EB5EF1474
:102EA1002EBDEF152EC5EF1600002EEA7BFF7A50DE
:102EB10079E980167BFF7A5079F0800E7BFF7A509A
:102EC10079F780067BFF7A5079FE9001677410F0E4
:102ED100A374F8F0A3E4F074FFA3F0A3F07D207CC9
:102EE10000E4FFFE12435880267BFF7A517905905A
:102EF100001E74F8F0A3E4F074FFA3F0A3F07D20AA
:102F01007C00E4FFFE12540C7FFF7E0F1260647F91
:102F1100FF7E001260647BFF7A5179119001677422
:102F210010F0A37407F0A374E0F0E4A3F0A3F07D24
:102F310030FCFFFE1243587BFF7A517922900167E2
:102F41007410F0A374F8F0A3E4F074FFA3F0A3F0FD
:102F51007D407C00E4FFFE1243587B017A0279BD7B
:102F6100124C977B017A0279BD9001677410F0A32E
:102F710074F8F0A3E4F074FFA3F0A3F07D507C009B
:102F8100E4FFFE1243587FFF7E001260647BFF7AEC
:102F91005179309001677410F0A37407F0A374E0C5
:102FA100F0E4A3F0A3F07D60FCFFFE1243587BFF29
:102FB1007A5179419001677410F0A374F8F0A3E499
:102FC100F074FFA3F0A3F07D707C00E4FFFE1243D8
:102FD100587B017A00790D125E1F7FFF7E07126018
:102FE100647B017A00790D125E1F7BFF7A51794F64
:102FF1009001677410F0A37407F0A374E0F07411EA
:10300100A3F0A3F07D807C00E4FFFE1243587B0116
:103011007A00790D90001E74F8F0A3E4F074FFA318
:10302100F0A3F07D807C007F507E0012540C7BFF6A
:103031007A5179599001677410F0A37407F0A37461
:10304100E0F0E4A3F0A3F07D90FCFFFE124358C230
:10305100857BFF7A5179699001677410F0A374F848
:10306100F0A3E4F074FFA3F0A3F07DA07C00E4FFE3
:10307100FE1243587FFF7E05126064C2867BFF7A91
:103081005179719001677410F0A374F8F0A3E4F022
:1030910074FFA3F0A3F07DA07C00E4FFFE1243586F
:1030A1007FFF7E05126064C2877BFF7A5179799038
:1030B10001677410F0A374F8F0A3E4F074FFA3F0B7
:1030C100A3F07DA07C00E4FFFE1243587FFF7E0544
:1030D1001260641200037BFF7A5179819001677459
:1030E10010F0A374F8F0A3E4F074FFA3F0A3F07D53
:1030F100A07C00E4FFFE1243587FFF7E051260644E
:103101007BFF7A5179899001677410F0A37407F0FD
:10311100A374E0F0E4A3F0A3F07DB0FCFFFE124342
:10312100587BFF7A51799C9001677410F0A374F871
:10313100F0A3E4F074FFA3F0A3F07DC07C00E4FFF2
:10314100FE1243587F037E0012603F7FFF7E0F0215
:023151006064B8
:1034350090000D74F8F0A3E4F07F1D7E0512557021
:103445009001667401F0A37420F074FFA3F0A3F05B
:103455007BF07A00E4FDFCFFFE1251A4900166E4C6
:10346500F0A37418F0A37405F0A3741DF07BF07A33
:10347500007D087C01E4FFFE1251A4900166E4F092
:10348500A37418F074FFA3F0A3F07B187A007D08ED
:103495007C01E4FFFE1251A4900166E4F0A37418C8
:1034A500F0E4A3F0A3F07B18FA7D087C017F18FEF9
:1034B5001251A4900166E4F0A37418F0A374C6F049
:1034C500A37418F0FB7A007D087C017F307E001222
:1034D50051A4900166E4F0A37418F0A3E4F0A3747A
:1034E5001FF07B187A007D087C017F487E00125111
:1034F500A4900166E4F0A37418F0A374F8F0A3E4B3
:10350500F07B18FA7D087C017F60FE1251A49001C2
:1035150066E4F0A37418F0A374F8F0A3741FF07BAD
:10352500187A007D087C017F787E001251A49001F5
:1035350066E4F0A37418F0A37407F0A374E0F07BBD
:10354500187A007D087C017F907E001251A49001BD
:1035550066E4F0A37418F0A3747FF0A374FFF07B06
:10356500187A007D087C017FA87E001251A4900185
:1035750066E4F0A37418F0A374FFF0A374E0F07B85
:10358500187A007D087C017FC07E001251A490014D
:1035950066E4F0A37418F0A374B7F0A37423F07B6A
:1035A500187A007D087C017FD87E001251A4124E46
:1035B500BC9000067401F0A37402F0A374D5F07BEF
:1035C500017A0279D31253539002D5E0FEA3E0FFAE
:1035D500D39400EE94004023EF9408EE9401501B21
:1035E5009002D3E0FEA3E0FF9002D5E0FCA3E0FD4E
:1035F50090000DE0FAA3E0FB1259B49002D5E0FE6D
:10360500A3E0FFD39420EE9401402EEF9440EE9476
:1036150001502690001A74FFF0A37426F0A374C419
:10362500F09002D3E0FFA3E090001DCFF0A3EFF0F0
:103635007BFF7A2679C41246599002D5E0FEA3E0B5
:10364500FFD39408EE940150030235B6EF9420EEB3
:10365500940140030235B69002D3E0FEA3E0FF7C5F
:10366500007D1812073EEFB40A0040030235B690FC
:10367500367BF828287302369902369D0236A70252
:1036850036B40236BA0236C60236D30236DA023606
:10369500E70236F474FF8001E490000DF0A3F00218
:1036A50035B690000D74C6F0A37418F00235B690C7
:1036B500000DE4801190000D74F8F0A3E4F00235DC
:1036C500B690000D74F8F0A3741FF00235B69000A3
:1036D5000D7407801290000D747FF0A374FFF00243
:1036E50035B690000D74FFF0A374E0F00235B69086
:0C36F500000D74B7F0A37423F00235B68A
:1060C2004C4544BFD8D6C6004C454431004C4544EB
:0D60D20032004C45443300B9D800BFAA008D
:102B3700E4900002F07F1D7E051255707BFF7A60DE
:102B470079C29001677420F074FFA3F0A3F07411A9
:102B5700A3F0A3F07D0A7C007F417E001243581248
:102B67004EBC7BFF7A6079CA74FF90001EF0A3F019
:102B77007411A3F0A3F07D327C007F1E7E001254F7
:102B87000C7BFF7A6079CF74FF90001EF0A3F0747E
:102B970011A3F0A3F07D787C007F1E7E0012540CF9
:102BA7007BFF7A6079D474FF90001EF0A3F0741154
:102BB700A3F0A3F07DBE7C007F1E7E0012540C7F25
:102BC70001126244900166E4502FF0A3743CF0A315
:102BD700E4F0A3741FF07B967A007D327C007F4679
:102BE7007E001251A47BFF7A6079D9900167741037
:102BF700F0A3E4F0A3741F802EF0A3743CF0A37439
:102C070007F0A374E0F07B967A007D327C007F4664
:102C17007E001251A47BFF7A6079DC900167741003
:102C2700F0A374F8F0A3E4F0A37405F0A3741DF007
:102C37007D4C7C007F1E7E001243587F0212624447
:102C4700900166E4502FF0A3743CF0A3E4F0A37462
:102C57001FF07B967A007D787C007F467E001251BC
:102C6700A47BFF7A6079D99001677410F0A3E4F030
:102C7700A3741F802AF0A3743CF0A374F8F0A3E4B4
:102C8700F07B96FA7D78FC7F46FE1251A47BFF7A93
:102C97006079DC9001677410F0A374F8F0A3E4F096
:102CA700A37405F0A3741DF07D927C007F1E7E0047
:102CB7001243587F03126244900166E4502FF0A339
:102CC700743CF0A3E4F0A3741FF07B967A007DBEFA
:102CD7007C007F467E001251A47BFF7A6079D990F1
:102CE70001677410F0A3E4F0A3741F802EF0A3749F
:102CF7003CF0A374FFF0A374E0F07B967A007DBEEE
:102D07007C007F467E001251A47BFF7A6079DC90BD
:102D170001677410F0A374F8F0A3E4F0A37405F04E
:102D2700A3741DF07DD87C007F1E7E00124358904F
:102D370000067401F0A37402F0A374D5F07B017A46
:102D47000279D312535330A5FD9002D5E0FEA3E0DC
:102D5700FFD39420EE9401402EEF9440EE9401505F
:102D67002690001A74FFF0A37426F0A374C4F090A1
:102D770002D3E0FFA3E090001DCFF0A3EFF07BFFAD
:102D87007A2679C41246599002D3E0FEA3E0FFD316
:102D9700941EEE9400402CEF94D2EE9400502490B1
:102DA70002D5E0FEA3E0FF9432EE94004015EF94C5
:102DB7006EEE9400500D7F01126244B392007F01C2
:102DC7001261879002D3E0FEA3E0FFD3941EEE9436
:102DD70000402CEF94D2EE940050249002D5E0FEF0
:102DE700A3E0FF9478EE94004015EF94B4EE9400BE
:102DF700500D7F02126244B392007F0212618790E6
:102E070002D3E0FEA3E0FFD3941EEE94005003022A
:102E17002BC6EF94D2EE94004003022BC69002D546
:102E2700E0FEA3E0FF94BEEE94005003022BC6EF32
:102E370094FAEE94004003022BC67F03126244B358
:0A2E470092007F03126187022BC680
:0A633A00B5B1C7B0CEC2B6C83A0034
:104B6700E490000DF0A3F07F1D7E051255709001B3
:104B770066E4F0A37432F0A3E4F0A3741FF07B980B
:104B87007A007D3C7C007F2D7E001251A490001D91
:104B9700E4F0A3741EF0A374F8F0A3E4F07B84FAA6
:104BA7007D46FC7F37FE123153124EBC90000DE05C
:104BB700FEA3E0FFF44E6004EF4E70557B017A00D0
:104BC700790F125E1F7BFF7A63793A900167741041
:104BD700F0A374F8F0A3E4F07411A3F0A3F07D4EF2
:104BE7007C007F387E001243587B017A00790F9052
:104BF700001E74F8F0A3E4F074FFA3F0A3F07D4E59
:104C07007C007F807E0012540C90000DE4F0A3041A
:104C1700F090000EE004F0700690000DE004F0D371
:104C270090000EE094FF90000DE094004004E4F043
:104C3700A3F09000067401F0A37402F0A374D5F0FA
:104C47007B017A0279D31253539002D5E0FEA3E099
:104C5700FFD39420EE94015003024BB3EF9440EE40
:104C670094014003024BB390001A74FFF0A374261B
:104C7700F0A374C4F09002D3E0FFA3E090001DCF2F
:104C8700F0A3EFF07BFF7A2679C4124659024BB3A3
:105D4D00C8D5C0FA00CEC2B6C800B5E7BBB000CF0B
:105D5D00E0B2E100D3B2BCFEBCECB2E200BBADB030
:105D6D00E500B4AEBFDAD6FACAD600535049D6FA1A
:105D7D00CAD6004C454400CEB4BFAAB7C52100A178
:085D8D00FB00A88000A1FE004C
:105C0D005602BD0000000000000000000000000072
:0B5C1D00000000000000000000C109B2
:1026C400E4900000F0A3F0C28C74FFFFFE1255707A
:1026D400900008E4F0A37443F0A31208C200600C55
:1026E400A07B917A007D147C007F0A7E00124A2B25
:1026F4007BFF7A5D794D9001677410F074FFA3F04D
:10270400A3F07411A3F0A3F07D477C007F0A7E0040
:10271400124358900008E4F0A37443F0A31208C2D3
:10272400006058867B467A007D147C007FA07E0082
:10273400124A2B7BFF7A5D79529001677410F07412
:10274400FFA3F0A3F07411A3F0A3F07D477C007FF6
:10275400A07E00124358900008E4F0A37444F0A350
:102764001208C200607D2A7B467A007D5D7C007F72
:102774000A7E00124A2B7BFF7A5D795790016774B9
:1027840010F074FFA3F0A3F07411A3F0A3F07D91F3
:102794007C007F0A7E00124358900008E4F0A37482
:1027A40044F0A31208C20060A25A7B467A007D5D01
:1027B4007C007F557E00124A2B7BFF7A5D795C900A
:1027C40001677410F074FFA3F0A3F07411A3F0A3D5
:1027D400F07D917C007F557E00124358900008E400
:1027E400F0A37444F0A31208C20060C78A7B467A3F
:1027F400007D5D7C007FA07E00124A2B7BFF7A5D0A
:1028040079619001677410F074FFA3F0A3F0741160
:10281400A3F0A3F07D917C007FA07E00124358902A
:102824000008E4F0A37444F0A31208C20060ECBAF8
:102834007B467A007DA67C007F0A7E00124A2B7BB1
:10284400FF7A5D796A9001677410F074FFA3F0A3B6
:10285400F07411A3F0A3F07DDA7C007F0A7E0012ED
:102864004358900008E4F0A37444F0A31208C20093
:102874006111EA7B917A007DA67C007F557E00126F
:102884004A2B7BFF7A5D796F9001677410F074FFB7
:10289400A3F0A3F07411A3F0A3F07DDA7C007F55BC
:1028A4007E00124358900008E4F0A37441F0A31290
:1028B40008C200615EF27B917A007DEF7C007F0AA2
:1028C4007E00124A2B7BFF7A5D7978900167741041
:1028D400F074FFA3F0A3F07411A3F0A3F07D207CA7
:1028E400017F0A7E00124358900008E4F0A374416B
:1028F400F0A31208C20061A8947B467A007DEF7CA5
:10290400007FA07E00124A2B7BFF7A5D79809001C4
:10291400677410F074FFA3F0A3F07411A3F0A3F094
:102924007D207C017FA07E00124358125FC6D28CAA
:10293400E49002D3F0A3F0A3F0A3F0900000E0B47D
:102944000B0FA3E0B4FF0A125FC6E4900000F0A3EB
:10295400F0900001E004F07006900000E004F090B4
:1029640000067401F0A37402F0A374D5F07B017A1D
:102974000279D31253539002D3E0FEA3E0FFC39431
:102984000AEE94004011D3EF9450EE940050089056
:1029940002D3E4F0A304F09002D3E0FEA3E0FFC36B
:1029A4009455EE94004012D3EF949BEE940050099A
:1029B4009002D3E4F0A37402F09002D3E0FEA3E00B
:1029C400FFC394A0EE94004012D3EF94DCEE940085
:1029D40050099002D3E4F0A37403F09002D5E0FE12
:1029E400A3E0FFC3941EEE94004011D3EF9458EE7D
:1029F400940050089002D5E4F0A304F09002D5E0CE
:102A0400FEA3E0FFC3945DEE94004012D3EF94A1C3
:102A1400EE940050099002D5E4F0A37402F0900201
:102A2400D5E0FEA3E0FFC394A6EE94004012D3EFDA
:102A340094EAEE940050099002D5E4F0A37403F0F4
:102A44009002D5E0FEA3E0FFC394EFEE94004012A1
:102A5400D3EF9433EE940150099002D5E4F0A374BB
:102A640004F09002D5E0FEA3E0FFEE6003022934F7
:102A7400EF24FE603B14605F147003022B022403F6
:102A840060030229349002D3E0FEA3E0FFEE60036A
:102A9400022934EF24FE600C14600F240260030248
:102AA40029348000124029022934124B6702293448
:102AB4009002D3E0FEA3E0FFEE6003022934EF248A
:102AC400FE600C14600B24026003022934804E80E3
:102AD4004C122E510226CB9002D3E0FEA3E0FFEE6F
:102AE4006003022934EF24FE601014600F24026096
:102AF400030229341234350229348021801F9002C4
:102B0400D3E0FEA3E0FFEE6003022934EF24FE606D
:102B14000C1460192402600302293480007BFF7ABC
:102B24005D798474FFFDFC125A32022934122B376A
:032B34000229343F
:105F420074FFFFFE125570900008E4F0A374AEF0E7
:105F5200A31208C2005F4E507B8C7A007D497C0000
:0E5F62007F3C7E00124A2B7FFF7E0F026064A0
:105A320090015BEBF0A3EAF0A3E9F0A3ECF0A3ED95
:015A4200F073
:105A430090015BE0FBA3E0FAA3E0F9900167741017
:105A5300F0A374F8F0A3E4F090015EE0FFA3E090FC
:105A6300016ACFF0A3EFF0E4FDFCFFFE1243587F81
:105A7300FF7E0712606490015BE0FBA3E0FAA3E002
:105A8300F9126259EF75F008A4FB7A00900166E4FD
:105A9300F0A37410F090015EE0FFA3E0900168CFE3
:0C5AA300F0A3EFF0E4FDFCFFFE0251A4B4
:10535300900003EBF0A3EAF0A3E9F0A3E0F9A3E0E4
:10536300FAA3E0900020C9F0A3EAF0A3E9F09000CB
:1053730003E0FBA3E0FAA3E0F91247B9900003E0CE
:10538300FBA3E0FAA3E0F91207BFFDACF0E41203BC
:10539300627BE17A7A797078411202477B9A7A9933
:1053A300796D78C112004D12039B900003E0FBA3BB
:1053B300E0FAA3E0F9EE8FF01207EA900006E0FBB3
:1053C300A3E0FAA3E0F91207BFFDACF0E412036215
:1053D3007BC37AF5792C78411202477BF67A2879D8
:1053E3008C78C112004D12039B900006E0FBA3E0F2
:1053F300FAA3E0F9EE8FF01207EA30090BC2097B3A
:09540300017A0279D71259352211
:1056CA00900017EBF0A3EAF0A3E9F0A3E0F9A3E056
:1056DA00FAA3E0900020C9F0A3EAF0A3E9F0900051
:1056EA0017E0FBA3E0FAA3E0F91247B9900017E02C
:1056FA00FBA3E0FAA3E0F91207BFFDACF0E4120342
:10570A00627BE17A7A797078411202477B9A7A99B8
:10571A00796D78C112004D12039B900017E0FBA32C
:10572A00E0FAA3E0F9EE8FF01207EA90001AE0FB24
:10573A00A3E0FAA3E0F91207BFFDACF0E41203629A
:10574A007BC37AF5792C78411202477BF67A28795D
:10575A008C78C112004D12039B90001AE0FBA3E063
:0A576A00FAA3E0F9EE8FF00207EA5F
:10606400E4FDFCC3ED9FEC9E5015E4FBFA0BBB0072
:0F607400010ABA03F8BBE8F50DBD00010C80E48A
:0160830022FA
:105FC6007B017A0279BD124C97E49002CDF07B01F9
:105FD6007A0279C890001EF0A3F074FFA3F0A3F034
:095FE600E4FDFC7FC8FE02540C2E
:104EBC0090002D7401F0A37420F074FFA3F0A3F004
:104ECC007BF07A007D207C01E4FFFE1239B77BFF7A
:104EDC007A5D798C9001677420F074FFA3F0A3F0D5
:104EEC007411A3F0A3F07D207C017F147E0012438B
:104EFC00587BFF7A5D798F9001677420F0A374A2C0
:104F0C00F0A37454F07411A3F0A3F07D207C017F06
:104F1C00687E0012435890002D7401F0A37430F099
:104F2C0074FFA3F0A3F07B837A007D307C017F6C4F
:104F3C007E001239B790002D7401F0A3743BF0740D
:104F4C00FFA3F0A3F07B787A007D257C017F787E2F
:104F5C00001239B790002D7401F0A37440F074FF67
:104F6C00A3F0A3F07B507A007D207C017F507E0063
:104F7C001239B790002D7401F0A37440F074FFA3A4
:104F8C00F0A3F07BA07A007D207C017FA07E001234
:104F9C0039B77BFF7A5D79929001677420F074FFCA
:104FAC00A3F0A3F07411A3F0A3F07D207C017FBBD0
:054FBC007E00024358D5
:10465900900017EBF0A3EAF0A3E9F090001DE0FE4B
:10466900A3E0FFC39450EE64809480503AEF940025
:10467900EE6480948040307BFF7A5D798C9001678D
:104689007420F074FFA3F0A3F0A3E4F0A3741FF067
:104699007D207C017F147E00124358900017A3E00F
:1046A900FAA3E0F912096690001DE0FEA3E0FFD32A
:1046B9009450EE648094805003024758EF94A0EE22
:1046C9006480948040030247587BFF7A5D798F901C
:1046D90001677420F0A374A2F0A37454F0A3E4F06A
:1046E900A3741FF07D207C017F687E0012435890DF
:1046F900002D7401F0A37430F074FFA3F0A3F07BD4
:10470900837A007D307C017F6C7E001239B790007E
:104719002D7401F0A3743BF074FFA3F0A3F07B7830
:104729007A007D257C017F787E001239B790002DB3
:104739007401F0A37440F074FFA3F0A3F07B507AE6
:10474900007D207C017F507E001239B71226C4906B
:10475900001DE0FEA3E0FFD394A0EE6480948040A6
:104769003AEF94F0EE6480948050307BFF7A5D7963
:10477900929001677420F074FFA3F0A3F0A3E4F012
:10478900A3741FF07D207C017FBB7E0012435890EB
:0C479900001AA3E0FAA3E0F9120966225E
:0663690025372E3366000B
:10626E00EF25E02405FFEFD3940040077E05DEFE08
:03627E001F80F38B
:0162810022FA
:10628200EFD39400400D00007E207D1CDDFEDEFC7D
:036292001F80ED7D
:0162950022E6
:105FEF00C200D2807F0512626EC2807FC812626EBD
:105FFF007FC812626ED2807F3212626EA2809200D0
:07600F007F1912626EA2006E
:016016002267
:10611900E4FC7D08C280ECC313FCD28030800344C8
:0B61290080FC7F1912626EDDEBAF04FA
:016134002248
:02613500AD07B4
:106137007B08C280ED1392807F1912626ED280EDC8
:0A614700C313FDDBED7F1902626E49
:105E9B00E4FBFFFEFDFC125FEF7FCC1261357F440C
:105EAB001261357F0A126282125FEF7FCC1261356D
:105EBB007FBE126135126119AB07126119EF7F00BA
:095ECB00FEEF2BFDE43EFEAF05E5
:015ED40022AB
:0B5E1F00900016EBF0A3EAF0A3E9F0FE
:105E2A00125E9BAD07AC06E4120362E4FBFA7980CA
:105E3A00783D12013E90001C74FFF0A37463F0A336
:105E4A007469F0A31208B6900016E0FBA3E0FAA367
:055E5A00E0F90222A6A0
:1054C2000A004F4B0A004E6F7420666F756E64219E
:1054D2000A006C696E6B000000000000FF634E64FE
:1054E20065736B746F70000000FF26C47374617281
:1054F200746368000000FF2E51706963626F780068
:10550200000000FF343574656D7065727400000030
:10551200FF4B6763616C656E6461720000FF402936
:105522007374696D650000000000FF61517374655A
:105532006D706572740000FF616C73776C65643125
:1055420000000000FF62EF73776C656432000000B8
:1055520000FF62FC73776C65643300000000FF6338
:0E556200096F66666C656400000000FF621A47
:0B593500900009EBF0A3EAF0A3E9F0FA
:1059400090000AE475F003120793E490000CF090C5
:10595000000CE0FFD3940C505AEFB40C03026357D1
:1059600090000CE075F00DA424D4F9745435F0FACD
:105970007BFFC003C002900009E0FBA3E0FAA3E0B4
:10598000F8AC02AD03D002D003120B17EF701C90DD
:10599000000CE075F00DA424DEF582E43454F583A8
:1059A000740193FA740293F902096690000CE00402
:0359B000F0809CE8
:0159B30022D1
:106296001206C4B4410B9000011206DDB45402D3B9
:0362A60022C322EE
:106151007B017A0279BD124C977B017A0279BD12DB
:0B61610062A97BFF7A5479C20262A998
:10616C007B017A00790D125E1F7B017A00790E1289
:0B617C0062A97BFF7A5479C20262A97D
:09634E007BFF7A5479C40262A9B4
:096357007BFF7A5479C80262A9A7
:0D62EF007F01126244B392007F01026187BB
:0D62FC007F02126244B392007F02026187AC
:0D6309007F03126244B392007F030261879C
:10621A00D2007F01126187D2007F02126187D20009
:05622A007F0302618703
:086360007F107E8DDEFEDFFCE4
:016368002212
:04603F00AD07AC06F7
:10604300ED4C601C7BC8B2A1126360DBF97BC8B264
:10605300A1126360126360DBF6ED1D70E31C80E048
:01606300221A
:0F61D5001392831261E4EBC313FB1261E4D281D6
:0861E4007F207E1DDEFEDFFCC2
:0161EC002290
:0B4C9700900017EBF0A3EAF0A3E9F097
:104CA2007B017A00791A125774900017E0FBA3E097
:104CB200FAA3E0F9743212070A900017E0FBA3E0AE
:104CC200FAA3E0F9900001743012071C900020E072
:104CD200FFC4540F243090000212071CEF540F241B
:104CE2003090000312071C900004742F12071C90CE
:104CF200001EE0FFC4540F243090000512071CEF81
:104D0200540F243090000612071C900007742F12D3
:104D1200071C90001DE0FFC4540F243090000812BD
:104D2200071CEF540F243090000912071C90000A50
:104D3200742F12071C90001CE0FFC4540F24309003
:104D4200000B12071CEF540F243090000C12071CAA
:104D520090000D743A12071C90001BE0FFC4540F20
:104D6200243090000E12071CEF540F243090000FD5
:104D720012071C900010743A12071C90001AE0FFF0
:104D8200C4540F243090001112071CEF540F24302A
:104D920090001212071C900013742F12071C90002F
:104DA2001FE0540F243090001412071C900015E4E9
:034DB20002071CD9
:0D620400F9EF12071C126211E4FF125D9504
:086211007F027E3BDEFEDFFC94
:016219002262
:025E5F00AB078F
:105E6100C2A71261E4C2811261E4D2A71261E47A8D
:105E710008C2811261E4A903E91261D5DAF37A0853
:105E8100C2811261E4A905E91392831261E4EDC3B1
:095E910013FD1261DFDAE9C2A77A
:015E9A0022E5
:025D9500AB075A
:105D9700C2A71261E4C2811261E4D2A71261E47A58
:105DA70008C2811261E4EB1261D5DAF57A08D28173
:105DB7001261E4EDC313FD1261E4C2811261E430A4
:105DC70083054480FD8004ED547FFDDAE1C2A7120C
:045DD70061E4AF05CF
:015DDB0022A5
:10528400900017EBF0A3EAF0A3E9F0E4FD7F8E129F
:105294005E5F126211900017E0FBA3E0FAA3E0F94D
:1052A4001206C4FD7F80125E5F126211900017E047
:1052B400FBA3E0FAA3E0F99000011206DDFD7F8272
:1052C400125E5F126211900017E0FBA3E0FAA3E004
:1052D400F99000021206DDFD7F84125E5F126211F6
:1052E400900017E0FBA3E0FAA3E0F9900003120694
:1052F400DDFD7F86125E5F126211900017E0FBA352
:10530400E0FAA3E0F99000041206DDFD7F88125E46
:105314005F126211900017E0FBA3E0FAA3E0F9909A
:1053240000051206DDFD7F8A125E5F126211900095
:1053340017E0FBA3E0FAA3E0F99000061206DDFDF6
:0F5344007F8C125E5F1262117D807F8E025E5F32
:10577400900021EBF0A3EAF0A3E9F012620C7F8D14
:10578400125D95900021E0FBA3E0FAA3E0900006EF
:105794001262047F8B125D95900021E0FBA3E0FA76
:1057A400A3E09000051262047F89125D95900021A8
:1057B400E0FBA3E0FAA3E0F9900004EF12071C1247
:1057C400620C7F87125D95900021E0FBA3E0FAA3B1
:1057D400E0F99000031262057F85125D9590002127
:1057E400E0FBA3E0FAA3E0F99000021262057F83D4
:1057F400125D95900021E0FBA3E0FAA3E0F990008C
:10580400011262057F81125D95900021E0FBA3E007
:08581400FAA3E0F9EF02070A14
:1062BC00C2A7C281E4FD7F8E125E5F7D807F8E025D
:0262CC005E5F13
:101C51000000000000000000000000000000000083
:101C61000000000000001FCC000C0000000000007C
:101C71000000080030006000080030006000000033
:101C8100022003FC1E20022003FC1E200220000073
:101C910000000E1811043FFF10840C7800000000B2
:101CA1000F0010840F3800C00778188400780000F6
:101CB10000780F8410C411240E9800E400840008F9
:101CC1000800680070000000000000000000000033
:101CD10000000000000007E0181820044002000086
:101CE100000040022004181807E000000000000076
:101CF1000240024001800FF00180024002400000DA
:101D01000080008000800FF80080008000800000CB
:101D11000001000D000E00000000000000000000A6
:101D21000000008000800080008000800080008032
:101D31000000000C000C000000000000000000008A
:101D41000000000600180060018006001800200055
:101D5100000007F0080810041004080807F000004C
:101D61000000080408041FFC000400040000000037
:101D710000000E0C10141024104411840E0C0000ED
:101D810000000C1810041104110412880C700000DA
:101D9100000000E00320042408241FFC00240000AC
:101DA10000001F98108411041104108810700000A5
:101DB100000007F008881104110418880070000061
:101DC10000001C00100010FC13001C00100000009B
:101DD10000000E3811441084108411440E380000A4
:101DE10000000700088C10441044088807F0000028
:101DF100000000000000030C030C000000000000C4
:101E010000000000000101060000000000000000C9
:101E110000000080014002200410080810040000A6
:101E210002200220022002200220022002200000C3
:101E31000000100408080410022001400080000086
:101E410000000E001200100C106C10800F0000003A
:101E510003E00C1813E4142417C4082807D0000069
:101E61000004003C03C41C40074000E4001C0004C3
:101E710010041FFC1104110411040E8800700000ED
:101E810003E00C1810041004100410081C100000CA
:101E910010041FFC100410041004080807F00000CF
:101EA10010041FFC1104110417C4100408180000C9
:101EB10010041FFC1104110017C0100008000000DD
:101EC10003E00C181004100410441C7800400000BA
:101ED10010041FFC10840080008010841FFC10047B
:101EE1000000100410041FFC100410040000000086
:101EF10000030001100110011FFE1000100000007E
:101F010010041FFC110403801464181C1004000049
:101F110010041FFC1004000400040004000C000065
:101F210010041FFC1F0000FC1F001FFC1004000018
:101F310010041FFC0C04030000E010181FFC10002B
:101F410007F00808100410041004080807F0000046
:101F510010041FFC10841080108010800F000000FE
:101F610007F0081810241024101C080A07F20000BA
:101F710010041FFC1104110011C011300E0C0004DB
:101F810000000E1C11041084108410441C38000041
:101F91001800100010041FFC1004100018000000AD
:101FA10010001FF810040004000410041FF81000B2
:101FB10010001E0011E0001C007013801C001000B6
:101FC1001FC0103C00E01F0000E0103C1FC00000DB
:101FD1001004180C163401C001C01634180C10047A
:101FE10010001C00130400FC13041C00100000006E
:101FF1000804101C1064108413041C041018000041
:102001000000000000007FFE40024002400200008C
:10201100000030000C0003800060001C0003000081
:1020210000004002400240027FFE0000000000006C
:10203100000000002000400040004000200000009F
:102041000001000100010001000100010001000187
:1020510000004000400020000000000000000000DF
:1020610000000098012401440144014400FC0004E3
:1020710010001FFC008801040104008800700000AA
:1020810000000070008801040104010400880000C0
:102091000000007000880104010411081FFC000405
:1020A100000000F8014401440144014400C800005B
:1020B1000000010401040FFC1104110411001800B7
:1020C100000000D601290129012901C901060000EA
:1020D10010041FFC008401000100010400FC000445
:1020E10000000104190419FC0004000400000000B0
:1020F1000000000300010101190119FE00000000A8
:1021010010041FFC0024004001B4010C0104000074
:102111000000100410041FFC000400040000000073
:10212100010401FC0104010001FC0104010000FCA7
:10213100010401FC008401000100010400FC000411
:10214100000000F8010401040104010400F800008A
:10215100010101FF008501040104008800700000F5
:1021610000000070008801040104010501FF000165
:102171000104010401FC008401040100018000004C
:10218100000000CC01240124012401240198000055
:1021910000000100010007F8010401040000000033
:1021A100010001F8000400040004010801FC00041E
:1021B100010001800170000C00100160018001002C
:1021C10001F0010C003001C00030010C01F00100F0
:1021D10000000104018C00740170018C01040000F5
:1021E100010101810171000E0018016001800100EF
:1021F10000000184010C013401440184010C000040
:10220100000000000000000001003EFC400240020E
:102211000000000000000000FFFF000000000000BF
:102221000000400240023EFC0100000000000000EE
:10223100000060008000800040004000200020007D
:0D631600C295C2948FB0C296D296D2942246
:0C61BC00E0FF7E001261C8E0FEA3E0FFDF
:0D61C800D295C2948FB0C296D296D2942286
:0762CE001262D57D017F196A
:0A62D500126316AE04AF050261C8A3
:10622F003ECF2401FDE43FFCE0FEA3E0FF125EE061
:05623F007F220263163E
:03636F000261C800
:0B5ED500E0FEA3E0FFA3E0FCA3E0FD63
:105EE000AB05AA048F828E83E583FD7C007F0212BE
:105EF00062D5AF82AD07FC7F031262D5EAFD7C005C
:0F5F00007F061262D5AF03AD07FC7F070262D5A3
:0B5F70007C007F1F1262D57F057E00C1
:105F7B00E4FDFCC3ED9FEC9E5015E4FBFA0BBB005C
:0F5F8B00010ABA04F8BB75F50DBD00010C80E4E6
:015F9A0022E4
:103E6E007F327E00125F7B7D017C00E4FF1262D503
:103E7E007F32FE125F7B9000477F64125F7BE5828C
:103E8E00644745836003024022FDFC7FEA1262D53F
:103E9E007D207FEB1262D57D0C7FEC1262D57DC446
:103EAE007FED1262D57D407FE81262D57D387FE9C5
:103EBE001262D57D017FF11262D57D107FF2126202
:103ECE00D57DA37F271262D5FD7F401262D57F413B
:103EDE001262D50D7F421262D57D127F431262D5DA
:103EEE007D107F441262D57D267F451262D57D08F6
:103EFE007F461262D57D537F471262D57D027F4881
:103F0E001262D57D157F491262D57D197F4A1262E4
:103F1E00D57F4B1262D57D167F4C1262D57D197FEF
:103F2E00501262D57D2F7F511262D57D2D7F521298
:103F3E0062D57D3E7F531262D50D7F541262D57FBE
:103F4E00551262D57D2C7F561262D57D777F571222
:103F5E0062D57D097F581262D57D067F591262D5D2
:103F6E007F5A1262D57D0A7F5B1262D57D1D7F5C02
:103F7E001262D57DCC7F5D1262D57D1B7F1B1262D6
:103F8E00D57D017F1A1262D57D2F7F241262D57DD9
:103F9E00577F251262D57D977F231262D57D367F9E
:103FAE00181262CE7D887F1F1262D57F05FE125FCA
:103FBE007B7D80125F707D90125F707DD0125F707E
:103FCE007D057C007F171262D5E4FD7F361262D527
:103FDE007D387F281262D57F28FE125F7B7D3C7C68
:103FEE00001262D5E4FD7F021262D57F031262D504
:103FFE007F041262D57DEF7F051262D5FD7F06121A
:10400E0062D57F071262D50D7F081262D57D3F7F84
:0B401E00091262CE7F327E00025F7B41
:08557000900021EEF0A3EFF022
:10557800A31208C200000000E4FDFCFFFE125EE07A
:1055880012623F9000231208C200000000E47F402E
:105598007E01FDFC900023E0F8A3E0F9A3E0FAA364
:1055A800E0FBC3120866506D9000271208C2000085
:1055B8000000E47FF0FEFDFC900027E0F8A3E0F98E
:1055C800A3E0FAA3E0FBC31208665027900021125B
:1055D80061BC900027E0FCA3E0FDA3E0FEA3E0246B
:1055E80001FFE43EFEE43DFDE43CFC900027120888
:1055F800B680BF900023E0FCA3E0FDA3E0FEA3E09B
:105608002401FFE43EFEE43DFDE43CFC900023124F
:0556180008B6025595E3
:01561D00226A
:105C6000900027E0FEA3E0FFA3E0FCA3E0FD90008E
:065C70002FE0FAA3E0FBA7
:105C7600900285EAF0A3EBF0900283EEF0A3EFF03A
:105C8600C394F0EE94005021C3ED9440EC9401507F
:105C960018900283126237900285E0FF7E0012633D
:0A5CA6006FE0FEA3E0FF12636F221F
:1039B700900029ECF0A3EDF0900027EEF0A3EFF0D4
:0839C70090002BEAF0A3EBF0E5
:1039CF00D3EF9BEE9A402790002BE0FEA3E0FF90F1
:1039DF000035EEF0A3EFF0900027E0FDA3E090009C
:1039EF002BCDF0A3EDF0900027EEF0A3EFF09000B9
:1039FF002DE0FEA3E0FF900029E0FCA3E0FDD39FA4
:103A0F00EC9E4018900035EEF0A3EFF090002DECF7
:103A1F00F0A3EDF0900029EEF0A3EFF0900027E077
:103A2F00FEA3E0FFC390002CE09FFF90002BE09ED1
:103A3F00900031F0FAA3EFF0FB900029E0FEA3E035
:103A4F00FFC390002EE09FFF90002DE09E9000336B
:103A5F00F0A3EFF0EB4A7027125C6090002AE004AD
:103A6F00F07006900029E004F0900029E0FEA3E03A
:103A7F00FFC390002EE09F90002DE09E50DA229021
:103A8F000033E07002A3E07027125C60900028E022
:103A9F0004F07006900027E004F0900027E0FEA3EA
:103AAF00E0FFC390002CE09F90002BE09E50DA22A5
:103ABF00900033E0FEA3E0FF900031E0FCA3E0FDB7
:103ACF00D39FEE6480F8EC6480985003023B7AEF4A
:103ADF0025E0FFEE33FEC3EF9DFFEE9C900035F027
:103AEF00A3EFF090002BE0FCA3E0FD900027E0FE99
:103AFF00A3E0FF6D7002EE6C7003023C27125C684E
:103B0F00900028E004F07006900027E004F0D390B6
:103B1F000036E09400900035E0648094804030904F
:103B2F00002AE004F07006900029E004F0900032C3
:103B3F00E025E0FD900031E033FC900034E025E01B
:103B4F00FF900033E033FEC3EF9DFFEE9C800C909F
:103B5F000034E025E0FF900033E033FE900036E0C4
:103B6F002FF0900035E03EF0023AF2900032E0255F
:103B7F00E0FF900031E033FE900033E0FCA3E0FD66
:103B8F00C3EF9DFFEE9CA3F0A3EFF090002DE0FE9E
:103B9F00A3E0FF900029E0FCA3E0FD6F7002EC6E44
:103BAF006076900027E0FEA3E0FF125C6E90002A83
:103BBF00E004F07006900029E004F0D3900036E0A6
:103BCF009400900035E0648094804030900028E0AD
:103BDF0004F07006900027E004F0900032E025E03A
:103BEF00FD900031E033FC900034E025E0FF9000C1
:103BFF0033E033FEC3EF9DFFEE9C800C900034E06A
:103C0F0025E0FF900033E033FE900036E02FF09078
:0B3C1F000035E03EF0023B9A125C60B2
:013C2A002277
:104DB500900049EEF0A3EFF090004DEBF090004B22
:054DC500ECF0A3EDF08D
:104DCA00900054ECF0A3EDF090004DE024E0F0E404
:104DDA00F990004DE075F010A42451F582E5F03405
:104DEA001CF583E58229F582E43583F583E4939003
:104DFA000052F0E4A3F0900052E030E71890004926
:104E0A00E0FEA3E0FFA3E0FCA3E0FD90004EE0FA81
:104E1A00A3E0FB801F900050E0FAA3E0FB6411704E
:104E2A0003EA64116011900049E0FEA3E0FFA3E0E9
:104E3A00FCA3E0FD125C76900052E025E0F09000C1
:104E4A004CE004F0700690004BE004F0C390004A76
:104E5A00E094F0900049E094005056900054E0FE2F
:104E6A00A3E0FFC390004CE09FFD90004BE09EFC46
:104E7A00ED64104C7023EEF0A3EFF090004AE004CA
:104E8A00F07006900049E004F0C390004AE09440B4
:104E9A00900049E09401401022900053E004F0E0B1
:104EAA00C394085003024E0009E964106003024DDE
:014EBA00DB1C
:014EBB0022D4
:10540C00900017EEF0A3EFF0A3ECF0A3EDF0A3EBFC
:07541C00F0A3EAF0A3E9F0A0
:1054230090001BE0FBA3E475F0011207A9A9F0FAB1
:105433001206C4FB900019E0FCA3E0FD90001EE0FF
:10544300FFA3E090004ECFF0A3EFF0900020E0FF29
:10545300A3E0900050CFF0A3EFF0900017E0FEA37D
:10546300E0FF124DB5C3900018E094E8900017E0F8
:105473009400500AA3E02408F09000178020C39002
:10548300001AE09430900019E09401E49000175062
:1054930013F0A3F090001AE02410F0900019E03408
:1054A30000F08007F0A3F0A3F0A3F090001BE0FB53
:0E54B300A3E0FAA3E0F91206C460030254233A
:0154C10022C8
:104A2B00900002EEF0A3EFF0A3ECF0A3EDF0A3EAFD
:044A3B00F0A3EBF009
:104A3F00E490000EF0A3F09000141208C2000000E2
:104A4F0000900002125ED512623FC2A47F03125F74
:104A5F00AC90000AE0FCA3E0FDA3E0FEA3E0FF782A
:104A6F0010120877125FAC90000AE0FCA3E0FDA3E0
:104A7F00E0FEA3E0FF7808120877125FAC90000AFF
:104A8F00A3A3A3E0FF125FAC9000101208C20000B6
:104A9F000000900008E0FEA3E0FFE4FCFD90001092
:104AAF00E0F8A3E0F9A3E0FAA3E0FBC31208664025
:104ABF0003024B649000141208C200000000900023
:104ACF0006E0FEA3E0FFE4FCFD900014E0F8A3E095
:104ADF00F9A3E0FAA3E0FBC3120866503C1261EDA4
:104AEF0090000FEFF01261ED90000EEFF07E0012CC
:104AFF0061C8A3E0FF1261C8900014E0FCA3E0FDC1
:104B0F00A3E0FEA3E02401FFE43EFEE43DFDE43C10
:104B1F00FC9000141208B680A5900010A3A3E0FE2D
:104B2F00A3E0FF900005E02FFF900004E09000024B
:104B3F0012622F900010E0FCA3E0FDA3E0FEA3E0C3
:104B4F002401FFE43EFEE43DFDE43CFC9000101226
:074B5F0008B6024AA1D2A42E
:014B6600222C
:1051A400900160EEF0A3EFF0A3ECF0A3EDF0A3EA1E
:0451B400F0A3EBF089
:1051B80090016E1208C200000000900160125ED5D6
:1051C80012623F90016A1208C20000000090016656
:1051D800E0FEA3E0FFE4FCFD90016AE0F8A3E0F93B
:1051E800A3E0FAA3E0FBC3120866400302528390CF
:1051F800016E1208C200000000900164E0FEA3E006
:10520800FFE4FCFD90016EE0F8A3E0F9A3E0FAA347
:10521800E0FBC312086650279001681261BC900138
:105228006EE0FCA3E0FDA3E0FEA3E02401FFE43E62
:10523800FEE43DFDE43CFC90016E1208B680BA9095
:10524800016AA3A3E0FEA3E0FF900163E02FFF90B3
:105258000162E090016012622F90016AE0FCA3E015
:10526800FDA3E0FEA3E02401FFE43EFEE43DFDE4EF
:0B5278003CFC90016A1208B60251D500
:015283002208
:1031530090001BEAF0A3EBF0900017EEF0A3EFF062
:10316300A3ECF0A3EDF0C006C007A3E0FEA3E0FFCD
:10317300900017E0FAA3E02FFBEA3EFAA3E0FFA3D7
:10318300E090002DCFF0A3EFF090001FE0FFA3E04D
:1031930090002FCFF0A3EFF0D007D0061239B790ED
:1031A3000018E02401FF900017E03400FEC006C0C1
:1031B3000790001AE02401FD900019E03400FC9010
:1031C300001BE0FEA3E0FF900017E0FAA3E02FFF4F
:1031D300EA3ECF24FFFBEF34FFFAA3E0FEA3E02493
:1031E30001FFE43E90002DF0A3EFF090001FE0FFFD
:1031F300A3E090002FCFF0A3EFF0D007D006123951
:10320300B7900017E0FAA3E0FBFFAE02C006C007C9
:10321300A3E0FCA3E0FD90001DE0FEA3E0FF90000F
:1032230019E0F8A3E02FFFE83E90002DF0A3EFF0A4
:1032330090001FE0FFA3E090002FCFF0A3EFF0D0AA
:1032430007D0061239B7900018E02401FB9000174D
:10325300E03400FAAF03FEC006C00790001AE02472
:1032630001FD900019E03400FC90001DE0FEA3E096
:10327300FF900019E0F8A3E02FFFE83ECF24FFCF33
:1032830034FF90002DF0A3EFF090001FE0FFA3E0C8
:1032930090002FCFF0A3EFF0D007D0061239B790EC
:1032A300001DE0FEA3E0FF90001AE02FFD9000193F
:1032B300E03EFC90001BE0FEA3E0FF900017E0FA65
:1032C300A3E02FFBEA3EFA90001DE0FEA3E0FF908F
:1032D3000019E0F8A3E02FFFE83E90002DF0A3EFE4
:1032E300F090001FE0FFA3E090002FCFF0A3EFF0DA
:1032F300900017E0FEA3E0FF1239B7900018E02416
:1033030001FF900017E03400FEC006C00790001DC7
:10331300E0FEA3E0FF90001AE02FFF900019E03ECB
:10332300CF24FFFDEF34FFFC90001BE0FEA3E0FF82
:10333300900017E0FAA3E02FFFEA3ECF24FFFBEF54
:1033430034FFFA90001DE0FEA3E0FF900019E0F8BF
:10335300A3E02FFFE83ECF24FFCF34FF90002DF0F2
:10336300A3EFF090001FE0FFA3E090002FCFF0A3A6
:10337300EFF0D007D0061239B790001BE0FEA3E0B0
:10338300FF900018E02FFB900017E03EFAAF03FE1A
:10339300C006C007900019E0FCA3E0FD90001DE00B
:1033A300FEA3E0FF900019E0F8A3E02FFFE83E90B2
:1033B300002DF0A3EFF090001FE0FFA3E090002F9B
:1033C300CFF0A3EFF0D007D0061239B790001BE07F
:1033D300FEA3E0FF900018E02FFF900017E03ECF20
:1033E30024FFFBEF34FFFAAF03FEC006C0079000D3
:1033F3001AE02401FD900019E03400FC90001DE068
:10340300FEA3E0FF900019E0F8A3E02FFFE83ECF12
:1034130024FFCF34FF90002DF0A3EFF090001FE0C6
:10342300FFA3E090002FCFF0A3EFF0D007D0060268
:0234330039B7A7
:07000300D285D286D28722CC
:10618700EF24FE600C14600E2402700EA2009285AC
:0B61970022A200928622A20092872222
:10624400EF24FE600A14600A24027008A28522A2C8
:056254008622A2872252
:03000B00025AAFE7
:105AAF00C0E0C0F0C083C082C0D075D000C000C0BD
:105ABF0001C002C003C004C005C006C007758AAB91
:105ACF00758C2FD2A69002F2E0C3945F402AE4F0C7
:105ADF00300A25C20A7B017A0279D71262965004E6
:105AEF00D209800D7B017A0279D774FFFDFC125A1F
:105AFF00329002D7E4F0A3F09002F2E004F0D00766
:105B0F00D006D005D004D003D002D001D000D0D021
:095B1F00D082D083D0F0D0E03236
:1062DF00438901758AAB758C2FD2A9D2AFC28C229C
:105C28005F029CFF60FCFF4FC1FF13D7000000001C
:105C3800000000000000000000000000000000005C
:0A5C480000004102BBD04102BC90F5
:1060DF00EF7803C333CE33CED8F9FFE4FDFCC3ED25
:0C60EF009FEC9E50070DBD00010C80F2DC
:0160FB002282
:1061A200E4FEEF30E704D2828002C282EF25E0FFF4
:0961B200C281D2810EEEB408E9AD
:0161BB0022C1
:105CFF00E4FDFBFAC281C282C2A61261A27F067EB8
:105D0F00001260DFC2817F017E001260DFD281C28C
:105D1F0081E4FDEB25E0FBEA33FAC281D2813083C7
:105D2F00050BBB00010A0DEDB410E8EAC4F854F0FE
:0D5D3F00C868FAEBC4540F48D2A6AE02FFAC
:015D4C002234
:0241C600A90747
:1041C800E490003FF0A3F0900033F0A3F0AF0112A9
:1041D8005CFFAC06AD07900034E025E0FF900033AB
:1041E800E033FE74352FF58274003EF583ECF0A3BE
:1041F800EDF0900034E004F07006900033E004F035
:10420800C3900034E09405900033E0940040BEE48D
:10421800900033F0A3F0900033E0FEA3E0FFC394D6
:1042280004EE940040030242F2EF2401FFE43EADA5
:1042380007FCC3ED9405EC940040030242DEED2533
:10424800E0FFEC33FE74352FF58274003EF583E011
:10425800FAA3E0FB900034E025E0FF900033E03360
:10426800FE74352FF58274003EF583E0FEA3E0FF6F
:10427800D39BEE9A4058900041EEF0A3EFF0ED2565
:10428800E0FFEC33FE74352FF58274003EF583E0D1
:10429800FAA3E0FB900034E025E0FF900033E03320
:1042A800FE74352FF58274003EF583EAF0A3EBF037
:1042B800900041E0FAA3E0FBED25E0FFEC33FE744B
:1042C800352FF58274003EF583EAF0A3EBF00DBDBF
:1042D80000010C02423A900034E004F0600302420C
:1042E8001E900033E004F002421EE490003FF0A369
:1042F800F0900033F0A304F0900033E0FEA3E0FF59
:10430800C39404EE94005032EF25E0FFEE33FE74C0
:10431800352FF58274003EF583E0FEA3E0FF9000A0
:1043280040E02FF090003FE03EF0900034E004F0D1
:1043380070C6900033E004F080BE90003FE0FEA31A
:0F434800E0FF7C007D0312073EA3EEF0A3EFF031
:014357002243
:0B5CB00090002BEBF0A3EAF0A3E9F05A
:105CBB009002BBE0FF1241C6900031EEF0A3EFF073
:105CCB009002BCE0FF1241C6900031E0F9A3E0FD69
:105CDB0090002BE0FBA3E0FAA3E0C98DF01207EADA
:105CEB0090002EE0FBA3E0FAA3E0F9EE8FF0120791
:035CFB00EA7F013C
:015CFE002283
:1047A5009000207401F0A37402F0A374ABF07B01B8
:0447B5007A0279A962
:0B47B90090001DEBF0A3EAF0A3E9F074
:1047C40090002E7401F0A37400F0A37425F07B0113
:1047D4007A007923125CB0EF7002FF2290002E74ED
:1047E40001F0A37400F0A37429F07B017A00792707
:1047F400125CB0EF7002FF22900023E0FEA3E0FF02
:10480400900027E0FCA3E0FDD39FEC9E500EED2426
:1048140032FDE43CFCC3EF9DEE9C402A900027E06F
:10482400FEA3E0FF900023E0FCA3E0FDD39FEC9EF9
:1048340040030248E7ED2432FDE43CFCC3EF9DEE67
:104844009C40030248E7900025E0FEA3E0FF9000AF
:1048540029E0FCA3E0FDD39FEC9E500EED2432FD35
:10486400E43CFCC3EF9DEE9C4024900029E0FEA3B1
:10487400E0FF900025E0FCA3E0FDD39FEC9E506395
:10488400ED2432FDE43CFCC3EF9DEE9C50559000BA
:1048940027E0FEA3E0FF900024E02FFF900023E038
:1048A4003EC313F9EF13FF90001DE0FBA3E0FAA34E
:1048B400E0C98FF01207EA900029E0FEA3E0FF9020
:1048C4000026E02FFF900025E03EC313F9EF13FF0D
:1048D400900020E0FBA3E0FAA3E0C98FF01207EAFE
:0548E4007F01227F00AE
:0148E90022AC
:1048EA00E4900010F07D047C0174FFFBFA7F047EE3
:0148FA0001BC
:1048FB00900021EEF0A3EFF0900025EAF0A3EBF08F
:10490B00900023ECF0A3EDF0900021E0FAA3E0FB84
:10491B0024F4FFEA34FFFEC007EB240DFBE43AFA64
:10492B00A3E0FFA3E090002DCFF0A3EFF0900025C4
:10493B00E0FFA3E090002FCFF0A3EFF0D0071239E8
:10494B00B7900021E0FAA3E0FBFFAE02C006C00760
:10495B00900024E024F4FD900023E034FFFCE0FE03
:10496B00A3E0240DFFE43E90002DF0A3EFF09000A8
:10497B0025E0FFA3E090002FCFF0A3EFF0D007D0FE
:10498B00061239B7900022E02401FF900021E03499
:10499B0000FE900024E02401FD900023E03400FC95
:1049AB00900025E0FAA3E0FB125C76900022E02455
:1049BB00FFFF900021E034FFFE900024E02401FD76
:1049CB00900023E03400FC900025E0FAA3E0FB12FA
:1049DB005C76900022E02401FF900021E03400FE81
:1049EB00900024E024FFFD900023E034FFFC9000B6
:1049FB0025E0FAA3E0FB125C76900022E024FFFF97
:104A0B00900021E034FFFE900024E024FFFD900095
:104A1B0023E034FFFC900025E0FAA3E0FB025C7678
:1059B40090000FEEF0A3EFF0A3ECF0A3EDF0A3EA58
:1059C400F0A3EBF0125C76900010E02401FF90004D
:1059D4000FE03400FE900011E0FCA3E0FDA3E0FA28
:1059E400A3E0FB125C7690000FE0FEA3E0FF9000C2
:1059F40012E02401FD900011E03400FC900013E05B
:105A0400FAA3E0FB125C76900010E02401FF900002
:105A14000FE03400FE900012E02401FD900011E03C
:0E5A24003400FC900013E0FAA3E0FB025C7675
:104FC10030A50302508FEF60061247A5025065120B
:104FD10047A5EF70030250659002A9E0FCA3E0FD34
:104FE100E41203629002AEE0F8A3E0F9A3E0FAA3B1
:104FF100E0FB12013EC004C005C006C0079002B626
:10500100E0FCA3E0FDEC120362D003D002D001D09A
:105011000012004D12039B9002A9EEF0A3EFF0A342
:10502100E0FCA3E0FDE41203629002B2E0F8A3E029
:10503100F9A3E0FAA3E0FB12013EC004C005C006DB
:10504100C0079002B8E0FCA3E0FDEC120362D003BC
:10505100D002D001D00012004D12039B9002ABEEA2
:10506100F0A3EFF09002ADE020E74474C0F09002AD
:10507100A9E0FFA3E09002A5CFF0A3EFF09002AB6F
:10508100E0FFA3E09002A7CFF0A3EFF08021900210
:10509100ADE030E705547FF08015E49002A5F0A360
:1050A100F0A3F0A3F074FFA3F0A3F0A3F0A3F0909A
:0750B10002ADE05480FF2274
:1013D700E4900010F0F074FFFFFE1255707B007A66
:1013E700F87D3C7C007F3C7E001248FBE49002AD18
:1013F700F0A31208C20000000090029FA3E0FAA326
:10140700E0F5828A837F0112096A9002ADE0FF54FA
:10141700C0FEBE40E4EF54BFF09002A9E0FEA3E097
:10142700FF900010E0FD25E025E02400F582E4347C
:1014370000F583EEF0A3EFF09002ABE0FEA3E0FF30
:10144700ED25E025E02402F582E43400F583EEF093
:10145700A3EFF0900010E004F0E024FE6023146096
:101467003214604D2403709174FFFBFA7D3C7C00BD
:101477007F3C7E001248FB7B007AF87D3C7C008035
:10148700297D3C7C001248F37B007AF87D047C01BF
:101497000216C074FFFBFA7D047C017F3C7E0012BC
:1014A70048FB7B007AF87D047C017F047E01021AE9
:1014B700BA900004E0FEA3E0FFC3900001E09FFFA5
:1014C700900000E09EFE126323EE3395E0FDFC9052
:1014D70000151208B6900006E0FEA3E0FFC39000D7
:1014E70003E09FFF900002E09EFE126323EE339518
:1014F700E0FDFC9000191208B6900015E0FCA3E08F
:10150700FDA3E0FEA3E0FFA804A905AA06FB1208B5
:10151700099000151208B6900019E0FCA3E0FDA39E
:10152700E0FEA3E0FFA804A905AA06FB120809909C
:1015370000191208B6900019E0FCA3E0FDA3E0FE35
:10154700A3E0FF900015E0F8A3E0F9A3E0FAA3E019
:101557002FFFEA3EFEE93DFDE83CFCE412035D1285
:10156700562212039B900011EEF0A3EFF090000CAF
:10157700E0FEA3E0FFC3900009E09FFF900008E0B2
:101587009EFE126323EE3395E0FDFC9000151208D2
:10159700B690000EE0FEA3E0FFC390000BE09FFFB4
:1015A70090000AE09EFE126323EE3395E0FDFC9067
:1015B70000191208B6900015E0FCA3E0FDA3E0FEB9
:1015C700A3E0FFA804A905AA06FB120809900015C5
:1015D7001208B6900019E0FCA3E0FDA3E0FEA3E02B
:1015E700FFA804A905AA06FB12080990001912080A
:1015F700B6900019E0FCA3E0FDA3E0FEA3E0FF9096
:101607000015E0F8A3E0F9A3E0FAA3E02FFFEA3E14
:10161700FEE93DFDE83CFCE412035D12562212038D
:101627009B900013EEF0A3EFF0900011E0FCA3E015
:10163700FDE4120362C004C005C006C00790001392
:10164700E0FCA3E0FDE4120362A804A905AA06AB27
:1016570007D007D006D005D00412024790001D120C
:1016670008B67F337E337D737C3F90001DE0F8A37F
:10167700E0F9A3E0FAA3E0FB1202E440317F667EC3
:10168700667D867C3F90001DE0F8A3E0F9A3E0FAB1
:10169700A3E0FB1202E460025014900011E0700214
:1016A700A3E0600A900013E07002A3E070121248F2
:1016B700EA7B007AF87D3C7C007F3C7E00021ABA08
:1016C700900008E0FEA3E0FFC3900001E09FFF90B9
:1016D7000000E09EFE126323EE3395E0FDFC9000D0
:1016E700151208B690000AE0FEA3E0FFC3900003BE
:1016F700E09FFF900002E09EFE126323EE3395E029
:10170700FDFC9000191208B6900015E0FCA3E0FD5F
:10171700A3E0FEA3E0FFA804A905AA06FB12080997
:101727009000151208B6900019E0FCA3E0FDA3E0B5
:10173700FEA3E0FFA804A905AA06FB12080990006A
:10174700191208B6900019E0FCA3E0FDA3E0FEA380
:10175700E0FF900015E0F8A3E0F9A3E0FAA3E02F7B
:10176700FFEA3EFEE93DFDE83CFCE412035D12564C
:101777002212039B900011EEF0A3EFF090000CE013
:10178700FEA3E0FFC3900005E09FFF900004E09EEA
:10179700FE126323EE3395E0FDFC9000151208B6A8
:1017A70090000EE0FEA3E0FFC3900007E09FFF90CC
:1017B7000006E09EFE126323EE3395E0FDFC9000E9
:1017C700191208B6900015E0FCA3E0FDA3E0FEA304
:1017D700E0FFA804A905AA06FB1208099000151244
:1017E70008B6900019E0FCA3E0FDA3E0FEA3E0FF2C
:1017F700A804A905AA06FB1208099000191208B641
:10180700900019E0FCA3E0FDA3E0FEA3E0FF900039
:1018170015E0F8A3E0F9A3E0FAA3E02FFFEA3EFE04
:10182700E93DFDE83CFCE412035D12562212039BDE
:10183700900013EEF0A3EFF0900011E0FCA3E0FDA1
:10184700E4120362C004C005C006C007900013E09D
:10185700FCA3E0FDE4120362A804A905AA06AB07EE
:10186700D007D006D005D00412024790001D1208F9
:10187700B67F337E337D737C3F90001DE0F8A3E095
:10188700F9A3E0FAA3E0FB1202E4401D7F667E663F
:101897007D867C3F90001DE0F8A3E0F9A3E0FAA362
:1018A700E0FB1202E4601440121248EA7B007AF867
:1018B7007D3C7C007F3C7E00021ABA900008E0FE67
:1018C700A3E0FFC3900005E09FFF900004E09EFEA9
:1018D700126323EE3395E0FDFC9000151208B690D5
:1018E700000AE0FEA3E0FFC3900007E09FFF90001F
:1018F70006E09EFE126323EE3395E0FDFC9000198F
:101907001208B6900015E0FCA3E0FDA3E0FEA3E0FB
:10191700FFA804A905AA06FB1208099000151208DA
:10192700B6900019E0FCA3E0FDA3E0FEA3E0FFA84A
:1019370004A905AA06FB1208099000191208B69017
:101947000019E0FCA3E0FDA3E0FEA3E0FF90001573
:10195700E0F8A3E0F9A3E0FAA3E02FFFEA3EFEE9EF
:101967003DFDE83CFCE412035D12562212039B90F6
:101977000011EEF0A3EFF090000CE0FEA3E0FFC330
:10198700900001E09FFF900000E09EFE126323EEAF
:101997003395E0FDFC9000151208B690000EE0FEAE
:1019A700A3E0FFC3900003E09FFF900002E09EFECC
:1019B700126323EE3395E0FDFC9000191208B690F0
:1019C7000015E0FCA3E0FDA3E0FEA3E0FFA804A947
:1019D70005AA06FB1208099000151208B69000190F
:1019E700E0FCA3E0FDA3E0FEA3E0FFA804A905AA8D
:1019F70006FB1208099000191208B6900019E0FCBE
:101A0700A3E0FDA3E0FEA3E0FF900015E0F8A3E04C
:101A1700F9A3E0FAA3E02FFFEA3EFEE93DFDE83C2B
:101A2700FCE412035D12562212039B900013EEF0A2
:101A3700A3EFF0900011E0FCA3E0FDE4120362C005
:101A470004C005C006C007900013E0FCA3E0FDE456
:101A5700120362A804A905AA06AB07D007D006D0CF
:101A670005D00412024790001D1208B67F337E335B
:101A77007D737C3F90001DE0F8A3E0F9A3E0FAA393
:101A8700E0FB1202E4401D7F667E667D867C3F9008
:101A9700001DE0F8A3E0F9A3E0FAA3E0FB1202E4DB
:101AA700601740151248EA7B007AF87D3C7C007F7E
:101AB7003C7E001248FB021400900000E0FEA3E009
:101AC700FFC3900005E09FFD900004E09EFCE41238
:101AD7000362A804A905AA06AB07E4FFFE7D487CBC
:101AE700431202479002AE1208B6900000E0FEA330
:101AF700E0FF900005E02FFD900004E03EFCE412BB
:101B070003629002AEE0F8A3E0F9A3E0FAA3E0FBDA
:101B170012013EA804A905AA06AB07E4FFFE7DA0B3
:101B27007C43120049E4FBFAF9784012024712039A
:101B37009B9002B6EEF0A3EFF0900002E0FEA3E068
:101B4700FFC390000BE09FFD90000AE09EFCE412AB
:101B57000362A804A905AA06AB07E4FFFE7D487C3B
:101B6700431202479002B21208B6900002E0FEA3A9
:101B7700E0FF90000BE02FFD90000AE03EFCE4122E
:101B870003629002B2E0F8A3E0F9A3E0FAA3E0FB56
:101B970012013EA804A905AA06AB07E4FFFE7DA033
:101BA7007C43120049E4FBFAF9784012024712031A
:101BB7009B9002B8EEF0A3EFF09002AEE0FCA3E03A
:101BC700FDA3E0FEA3E0FF12039B126323D3EF9470
:101BD70002EE64809480501F9002B2E0FCA3E0FD07
:101BE700A3E0FEA3E0FF12039B126323D3EF94024B
:101BF700EE64809480403D1248EA7B007AF87D3C91
:101C07007C007F3C7E001248FB9002BAE070047FA4
:101C17000180027F009002BAEFF0600BA37490F08E
:101C2700A374D0F00214009002BB74D0F0A3749098
:101C3700F002140074FFFFFE1255707FE87E031256
:091C4700606474FFFFFE12557089
:011C50002271
:105F0F009002BB7490F0A374D0F09002B674FFF0BF
:105F1F00A374F4F09002AE1208C23DF973DA900246
:105F2F00B87401F0A3744AF09002B21208C2BDAA6D
:035F3F00F35E22EC
:1060FC0090002E7401F0A37402F0A374ABF07B013A
:0D610C007A0279A9125CB0125F0F7F0122A8
:085C5200C10A4302EB0102D775
:1060A400538EF7759A50438E04200003759C9830E4
:0E60B4000003759CF7438E10D2AF75AF01222A
:0B632F008F9BE59A30E1FB539AFD22A2
:1062A9001206C4FF600C12632F740129F9E43AFA4B
:0362B90080EE2252
:03004300025BA1BC
:105BA100C0E0C0F0C083C082C0D075D000C000C0CA
:105BB10001C002C003200A0E9002EB7401F0A3742D
:105BC10002F0A374D7F0E59A30E02ED20A539AFE80
:105BD1009002EBE0FBA3E0FAA3E0F9E59B12070AD0
:105BE1009002ECE475F0011207939002EBE0FBA345
:105BF100E0FAA3E0F9E412070AD003D002D001D001
:0C5C010000D0D0D082D083D0F0D0E032B0
:10581C00000000AA0001904C0000023A00019286A0
:10582C000008C460000A56E600000474000A5B5AC3
:10583C00000BB08000160BDA000005F0001611CA40
:10584C00001A4D2000305EEA000001A400306C46C6
:10585C00002EC200005F2E46000017C000000000A2
:10586C00000000000000000000000000000000002C
:10587C00000000000000000000000000000000001C
:10588C00000000000000000000000000000000000C
:0D589C0000000000000000000000000000FF
:055C5A004202F0EF160C
:105F9B00900294E0FCA3E0FDA3E0FEA3E0FF120857
:015FAB00777E
:105FAC00E4FEEF30E704D2828002C282C281EF2588
:095FBC00E0FFD2810EEEB408E909
:015FC50022B9
:1061ED00E4FFFDC281D281A283E433FEEF25E04EB0
:0661FD00FF0DEDB408EDFA
:016203002278
:105DDC00E4900014F0A3F0C2A47F90125FACE4FF37
:105DEC00125FACE4FF125FACE4FF125FAC1261ED2A
:105DFC00EFFE900014E04EF0A3E0F01261ED900085
:105E0C0014E0FEA3E04FFF900014EEF0FEA3EFF0C1
:025E1C00D2A40E
:015E1E002261
:0A634400C2A47F04125FACD2A422B1
:0F5B2800900291EBF0A3EAF0A3E9F0A31208B604
:105B3700C2A7C2A47F03125FAC7810125F9B7808DC
:105B4700125F9B900294A3A3A3E0FF125FACE490C3
:105B5700029AF0A3F0900298E0FEA3E0FFC3900240
:105B67009BE09F90029AE09E502D1261ED9002916A
:105B7700E0FBA3E0FAA3E0F990029AE0FCA3E0F5CA
:105B8700828C83EF12071C90029BE004F070C69092
:095B9700029AE004F080BED2A4E1
:015BA00022E2
:10601700126344125DDC9002F0EEF0A3EFF0E47F30
:10602700AAFEFDFC90581C1208A6C312086660035E
:086037007F0122D2A47F0022A8
:0B3C2B00900283EBF0A3EAF0A3E9F0A5
:103C36001206C4FF90028AF0900283E0FBA3E475AB
:103C4600F001120793A9F0FA1206C490028BF0EF66
:103C5600C394814011E0FF9440400BEFF46007905D
:103C6600028AE0B4FF3DE490028CF0900289E07590
:103C7600F002A4FF90028CE0C39FE5F06480F87424
:103C860080984003023E6D900286E0FBA3E475F047
:103C9600011207A9A9F0FAE412070A90028CE004BF
:103CA600F080C890028BE0C3947F5006E024C0F0F9
:103CB600800790028BE024BFF090028AE0247FF018
:103CC600900289E06420705FA3E0FF7E007C007DA7
:103CD600BE12096CA804A905AA06AB07A3E0FFE477
:103CE600FCFDFEEB2FFFEE3AFEED39FDEC38FCE471
:103CF6007B80FAF9F812080990028D1208B69058DE
:103D06005812089690028DE0F8A3E0F9A3E0FAA312
:103D1600E02FFFEA3EFEE93DFDE83CFC900298E418
:103D2600F0A37480023E5E900289E06418705FA37F
:103D3600E0FF7E007C007DBE12096CA804A905AADE
:103D460006AB07A3E0FFE4FCFDFEEB2FFFEE3AFE19
:103D5600ED39FDEC38FCE47B48FAF9F812080990D5
:103D6600028D1208B690584812089690028DE0F817
:103D7600A3E0F9A3E0FAA3E02FFFEA3EFEE93DFD4A
:103D8600E83CFC900298E4F0A37448023E5E900280
:103D960089E06410705EA3E0FF7E007C007DBE12A9
:103DA600096CA804A905AA06AB07A3E0FFE4FCFD7D
:103DB600FEEB2FFFEE3AFEED39FDEC38FCE47B20FE
:103DC600FAF9F812080990028D1208B690583812BE
:103DD600089690028DE0F8A3E0F9A3E0FAA3E02F9D
:103DE600FFEA3EFEE93DFDE83CFC900298E4F0A3C4
:103DF60074208064900289E0640C706BA3E0FF7EFF
:103E0600007C007DBE12096CA804A905AA06AB07B2
:103E1600A3E0FFE4FCFDFEEB2FFFEE3AFEED39FDDD
:103E2600EC38FCE47B18FAF9F812080990028D12B6
:103E360008B690582812089690028DE0F8A3E0F98B
:103E4600A3E0FAA3E02FFFEA3EFEE93DFDE83CFCD5
:103E5600900298E4F0A37418F0900286E0FBA3E0C9
:073E6600FAA3E0F9125B284A
:013E6D002232
:1037010090016DEEF0A3EFF0A3ECF0A3EDF0A3EBCD
:01371100F0C7
:10371200787B7C017D017BFF7A5879687E007F414E
:1037220012069E90016FE0FFA3E09001BCCFF0A3D0
:10373200EFF0900171E024E0FFE434FFFEE4FCFDD1
:103742009001C21208B6900172E0B420299001C221
:10375200E0FCA3E0FDA3E0FEA3E0FFE47B40FAF976
:10376200F81208099001C21208B690017A7440F06A
:10377200905860023833900172E0B418299001C267
:10378200E0FCA3E0FDA3E0FEA3E0FFE47B24FAF962
:10379200F81208099001C21208B690017A7424F056
:1037A200905850023833900172E0B410289001C250
:1037B200E0FCA3E0FDA3E0FEA3E0FFE47B10FAF946
:1037C200F81208099001C21208B690017A7410F03A
:1037D200905840805C900172E0B40C289001C2E0E5
:1037E200FCA3E0FDA3E0FEA3E0FFE47B0CFAF9F802
:1037F2001208099001C21208B690017A740CF09076
:103802005830802D900172E0B4082F9001C2E0FC84
:10381200A3E0FDA3E0FEA3E0FFE47B06FAF9F812C1
:1038220008099001C21208B690017A7406F0905805
:10383200201208969001BE1208B69001BEE0FCA3C9
:10384200E0FDA3E0FEA3E0FFA3E0F8A3E0F9A3E01C
:10385200FAA3E02FFFEA3EFEE93DFDE83CFC9001C1
:103862007AE0FB900298E4F0A3EBF07B017A017915
:103872007B125B28E4900179F090017AE0FF9001DD
:1038820079E0FEC39F40030239B6747B2EF582E4D1
:103892003401F583E0900177F0E4A3F0900178E041
:1038A200FFC3940840030239AD900172E0640870CE
:1038B20041900177E0FEA807088002C313D8FC30CC
:1038C200E0028044900175E0FEA3E0FF6411700302
:1038D200EE6411606DEF64117003EE641160639029
:1038E200016DE0FEA3E0FFA3E0FCA3E0FD90017503
:1038F2008027900178E0FF900177E0FEA80708801A
:1039020002C333D8FC30E71890016DE0FEA3E0FF5C
:10391200A3E0FCA3E0FD900173E0FAA3E0FB801FAB
:10392200900175E0FAA3E0FB64117003EA64116090
:103932001190016DE0FEA3E0FFA3E0FCA3E0FD1205
:103942005C76900170E004F0700690016FE004F084
:1039520090016FE0FEA3E0FFC39440EE9401505447
:103962009001BCE0FCA3E0FDC3EF9DFFEE9CFE9046
:103972000172E07A00B5072AEAB5062690016FECDB
:10398200F0A3EDF090016EE004F0700690016DE09E
:1039920004F0C390016EE094F090016DE094004059
:1039A2000A22900178E004F002389E900179E00446
:0439B200F002387B6C
:0139B60022EE
:0E44E00090016DEEF0A3EFF0A3ECF0A3EDF071
:1044EE00900181ECF0A3EDF0900174E0FF640C609C
:1044FE0012EF6410600DEF64186008EF6420600323
:10450E000246589002867401F0A37401F0A37483DE
:10451E00F0A3EFF0123C2B900174E0FFB4200B904F
:10452E00017FE4F0A37480F0801EEFB4180B9001AD
:10453E007FE4F0A37448F0800FEF75F002A4FF90B3
:10454E00017FE5F0F0A3EFF0E490017BF0A3F09093
:10455E00017FE0FEA3E0FF90017BE0FCA3E0FDC342
:10456E009FEC9E400302465874832DF58274013CE5
:10457E00F583E0FF900179E4F0A3EFF0E490017D84
:10458E00F0A3F090017AE030E71890016DE0FEA301
:10459E00E0FFA3E0FCA3E0FD900175E0FAA3E0FBD1
:1045AE00801F900177E0FAA3E0FB64117003EA64C8
:1045BE0011601190016DE0FEA3E0FFA3E0FCA3E00B
:1045CE00FD125C7690017AE025E0F0900179E033FF
:1045DE00F0900170E004F0700690016FE004F0902E
:1045EE000181E0FEA3E0FFC3900170E09FFD90010A
:1045FE006FE09EFC900174E07A00B5051CEAB504EC
:10460E001890016FEEF0A3EFF090016EE004F070E1
:10461E002890016DE004F0802090017EE004F0709F
:10462E000690017DE004F0C390017EE094089001B5
:10463E007DE09400500302459190017CE004F070FF
:0A464E000690017BE004F002455DD8
:01465800223F
:10435800900160EEF0A3EFF0A3ECF0A3EDF0A3EB77
:07436800F0A3EAF0A3E9F065
:10436F00E490016CF0900164E0FBA3E0FAA3E0F9A4
:10437F001206C4FF70030244DF90016CE060030279
:10438F00443FEFD3948040057401F080D8900162D0
:10439F00E0FCA3E0FDD39440EC940140030244DF22
:1043AF001206C4FB900167E0900172F0900168E083
:1043BF00FFA3E0900173CFF0A3EFF090016AE0FF4D
:1043CF00A3E0900175CFF0A3EFF0900160E0FEA3A2
:1043DF00E0FF123701900165E475F0011207939029
:1043EF000167E0FFB40808900161E024068009EF3F
:1043FF00C313FF900161E02FF0900160E03400F0F3
:10440F00D3900161E094F0900160E09400500302BA
:10441F00437490016574FFF5F0120793900167E004
:10442F00FF900163E02FF0900162E034000244D46A
:10443F00E490016CF0900162E0FCA3E0FDD39440A6
:10444F00EC940140030244DF900164E0FBA3E0FA27
:10445F00A3E0F9A3E0900174F0900168E0FFA3E0FE
:10446F00900175CFF0A3EFF090016AE0FFA3E09009
:10447F000177CFF0A3EFF0900160E0FEA3E0FF1211
:10448F0044E0900165E475F002120793900167E034
:10449F00FF7E00900161E02FF0900160E03EF0D3CD
:1044AF00A3E094F0900160E09400500302437490F5
:1044BF00016574FF75F0FE120793900163E02FF012
:1044CF00900162E03EF0E4900160F0A3F0024374CB
:0144DF0022BA
:10608400123E6E1260171260FC1262BC1262DFC212
:10609400001260A4120003122E51125F420226C4A1
:10004600020407E86480F8E933E83360110460F0DD
:10005600ED33EC337009E8FCE9FDEAFEEBFF220420
:1000660060DED3EB9FEA9EE99DE8C2E78CF0C2F71B
:1000760095F0400CE8CCF8E9CDF9EACEFAEBCFFBE7
:100086001203D285D0F05804700320D5B3E804706B
:10009600075002B2D502041192D5EC0460F7E4CC05
:1000A600C0E0C398F8603B94186008400DD0E0FBB0
:1000B6000203E9E4FBFAC9FC8028E830E406E4C957
:1000C600FBE4CAFCE830E305E4C9CACBFCE8540704
:1000D6006010F8C3E913F9EA13FAEB13FBEC13FC0F
:1000E600D8F130F52FC3E49CFCEF9BFFEE9AFEEDB2
:1000F60099FDD0E0FBEF4E4D4C701222DB0302045B
:100106000EEC2CFCEF33FFEE33FEED33FDED30E766
:10011600EB0203E9EF2BFFEE3AFEED39FDD0E0FBF3
:1001260050130BBB0003020411ED13FDEE13FEEF9B
:0801360013FFEC13FC0203E9C6
:10013E00EC4D6011E8497017ED33EC3304600DE4BB
:10014E00FCFFFEFD22E933E8330470F802040712C7
:10015E0003D258046009E4CC2481500628500902C9
:10016E00041128400302040EC0E0EB4A7044B9802B
:10017E0006D0E0FB0203FDEF4E701CBD8008EBFFC6
:10018E00EAFEE9FD80EBE98DF0A4FEE5F002022720
:10019E00E9CDF9EAFEEBFFEF89F0A4FCE5F0CE899C
:1001AE00F0A42EFFE435F0CD89F0A42DFEE435F059
:1001BE008067EF4E7005BD80D780C3EF8BF0A4AC87
:1001CE00F0EE8BF0A42CFCE435F0F8EF8AF0A42CC2
:1001DE00E5F038FCE433CB8DF0A42CFCE5F03BF8D5
:1001EE00EE8AF0A42CFCE5F038F8E433CF89F0A4C5
:1001FE002CFCE5F038CF3400CE89F0A42FFFE5F0CB
:10020E003EFEE433C98DF0A42EFEE5F039CD8AF022
:10021E00A42FFFE5F03EFEE43DFD33D0E0FB50079A
:10022E000BBB000F020411EC2CFCEF33FFEE33FE80
:06023E00ED33FD0203E9AF
:10024400020411EC5D046005E8590470030204071C
:100254001203D2580460F6EC4860F2EC7004FDFE20
:10026400FF22C860DB2481C85009C398600250068D
:1002740002040E9850CAF582E9294B4A7005AB82F4
:100284000203FD75F0007C1A7880C3EF9BEE9AEDB3
:1002940099400DC3EF9BFFEE9AFEED99FDE842F005
:1002A400DC23ACF0D0E0FFD0E0FED0E0FDAB822058
:1002B400E7101BEB60BAEC2CFCEF33FFEE33FEEDE2
:1002C40033FD0203E9E803F830E705C0F075F000F8
:1002D400EF2FFFEE33FEED33FD40B830E7C280AAC6
:1002E40074F8CC6480CCC86480C8F58204604FC3C1
:1002F400EB9FF5F0EA9E42F0E99D42F0E89C45F060
:10030400603C501DE5825FFFE582D313CB5BCBF4E9
:100314002B5582FB50280ABA002409B90020088012
:100324001DE5825BFBE582D313CF5FCFF4C3132FAC
:100334005582FF50090EBE00050DBD00010CC3EB34
:100344009FF5F0EA9E42F0E99D42F0E89C45F0609A
:0903540007CC4820E701B3EC22BC
:10035D0075F020800E75F010800575F0087D007E1B
:10036D00007F003392D530D503120858EC3340107E
:10037D00EF33FFEE33FEED33FDEC33FCD5F0ED2224
:0E038D00E5F0247EA2D513CC92E7CDCEFF2260
:10039B00EDD2E7CD33EC3392D524814006E4FFFE5A
:1003AB00FDFC22FCE4CFCECDCC24E0501174FF80B9
:1003BB00EDC3CC13CCCD13CDCE13CECF13CF047056
:0703CB00F030D5DE020858F6
:10224100E508241CF582E43400F583E005082290BA
:10225100001930070390001CE475F0011208F30225
:1022610006C42000E97F2ED2008018EF540F24907D
:10227100D43440D4FF30040BEF24BFB41A00500310
:102281002461FFE50960021509050CE50C700205E2
:102291000B30070E900019E475F0011208F3EF02FC
:1022A100070A024DB57403D2078003E4C207F5089B
:1022B10090001912090AE4F509F50BF50CE509601E
:1022C100077F2012228480F5750AFFC201C200C275
:1022D10002C203C205C206C208122250FF700D30AD
:1022E10007057F00122295AF0CAE0B22B4255FC209
:1022F100D5C204122250FF24D0B40A00501A75F03E
:102301000A780930D50508B6FF0106C6A426F620CD
:10231100D5047002D20380D924CFB41A00EF50043F
:10232100C2E5D204022587D20180C6D20080C0D284
:102331000280BCD2D580BAD20580B47F201222841B
:102341002002077401B5090040F1122241FF122257
:10235100840222BED208D2068095122241FB1222AB
:1023610041FA122241F94A4B700679857A267BFFA0
:1023710020022EE509602A7E008E827583001206F6
:10238100DD60060EEE650A70F0C2D5EBC0E0EAC072
:10239100E0E9C0E0EE1225E8D0E0F9D0E0FAD0E0C3
:1023A100FB1206C4FF60AAEBC0E0EAC0E0E9C0E0AE
:1023B100122284D0E02401F9D0E03400FAD0E0FB0D
:1023C100E50A0460DCD50AD98087D20280A21225F1
:1023D100CA60F7E50A70010412041CA90A600DE540
:1023E1000A600914F50A122672EF60F3EA30E70277
:1023F100F404C3995079EAF4250A0430E701E404AE
:10240100F50A800D1225CA60C1EA050A250A1204DF
:102411001CEA900048F030E701E4250A04D50A04DB
:10242100200501141225E8E4C0E01226729000484C
:10243100E0601320E70714F012226C802204F0D030
:10244100E014C0E07F0012226CE50A6007122263EB
:10245100150A800B300503122263D0E00222BED0A0
:10246100E00480C41225CA609EE50A0412041C908F
:102471000048EAF0E50A200502600104240412255F
:01248100E872
:1024820074FF04C0E012267212226CE50A200502D3
:102492006003122263D0E0B50AE87F4512227690EB
:1024A2000048E07F2B30E7047F2DF404C0E01222C5
:1024B20084D0E075F00A84C0F012226DD0E01222BE
:1024C2006D0222BE791080027908C206C208800815
:1024D200D2D5790A8004790AC2D5E50A047002F5D8
:1024E2000AE4FAFDFEFF122241FC7B0820011312CE
:1024F2002241FD7B1030000A122241FE122241FFCE
:102502007B20EC3382D592D55013C3E43000069F72
:10251200FFE49EFEE42001039DFDE49CFCE4CBF875
:10252200C201EC700CCFCECDCCE824F8F870F38069
