:030000000253A206
:0C53A200787FE4F6D8FD7581220253E903
:105AB7001239E8125A29125AF1125C36125C59C28D
:0D5AC70000125A9912380312597C02269CD5
:10528800000000AA0001904C0000023A000192863A
:105298000008C460000A56E600000474000A5B5A5D
:1052A800000BB08000160BDA000005F0001611CADA
:1052B800001A4D2000305EEA000001A400306C4660
:1052C800002EC200005F2E46000017C0000000003C
:1052D80000000000000000000000000000000000C6
:1052E80000000000000000000000000000000000B6
:1052F80000000000000000000000000000000000A6
:0D5308000000000000000000000000000098
:055683004202F6EF16E3
:1059AA0090029CE0FCA3E0FDA3E0FEA3E0FF120846
:0159BA006B81
:1059BB00E4FEEF30E704D2828002C282C281EF257F
:0959CB00E0FFD2810EEEB408E900
:0159D40022B0
:105B9100E4FFFDC281D281A283E433FEEF25E04E12
:065BA100FF0DEDB408ED5C
:015BA70022DB
:10580800E490015DF0A3F0C2A47F901259BBE4FFBD
:105818001259BBE4FF1259BBE4FF1259BB125B914A
:10582800EFFE90015DE04EF0A3E0F0125B91900175
:105838005DE0FEA3E04FFF90015DEEF0FEA3EFF008
:02584800D2A4E8
:01584A00223B
:0A5C8D00C2A47F041259BBD2A42266
:0F552900900299EBF0A3EAF0A3E9F0A31208AA0D
:10553800C2A7C2A47F031259BB78101259AA7808CF
:105548001259AA90029CA3A3A3E0FF1259BBE490AE
:1055580002A2F0A3F09002A0E0FEA3E0FFC3900235
:10556800A3E09F9002A2E09E502D125B91900299B9
:10557800E0FBA3E0FAA3E0F99002A2E0FCA3E0F5C7
:10558800828C83EF1207109002A3E004F070C6909B
:0955980002A2E004F080BED2A4DE
:0155A10022E7
:105A2900125C8D1258089002F6EEF0A3EFF0E47FB5
:105A3900AAFEFDFC90528812089AC312085A600304
:085A49007F0122D2A47F00229C
:0B35C00090028BEBF0A3EAF0A3E9F00F
:1035CB001206B8FF900292F090028BE0FBA3E47519
:1035DB00F001120787A9F0FA1206B8900293F0EFE8
:1035EB00C394814011E0FF9440400BEFF4600790CF
:1035FB000292E0B4FF3DE4900294F0900291E075EA
:10360B00F002A4FF900294E0C39FE5F06480F8748D
:10361B008098400302380290028EE0FBA3E475F021
:10362B000112079DA9F0FAE41206FE900294E00441
:10363B00F080C8900293E0C3947F5006E024C0F062
:10364B008007900293E024BFF0900292E0247FF079
:10365B00900291E06420705FA3E0FF7E007C007D10
:10366B00BE120960A804A905AA06AB07A3E0FFE4F4
:10367B00FCFDFEEB2FFFEE3AFEED39FDEC38FCE4E2
:10368B007B80FAF9F81207FD9002951208AA905266
:10369B00C412088A900295E0F8A3E0F9A3E0FAA31C
:1036AB00E02FFFEA3EFEE93DFDE83CFC9002A0E482
:1036BB00F0A374800237F3900291E06418705FA35B
:1036CB00E0FF7E007C007DBE120960A804A905AA5C
:1036DB0006AB07A3E0FFE4FCFDFEEB2FFFEE3AFE8B
:1036EB00ED39FDEC38FCE47B48FAF9F81207FD9054
:1036FB0002951208AA9052B412088A900295E0F82B
:10370B00A3E0F9A3E0FAA3E02FFFEA3EFEE93DFDBB
:10371B00E83CFC9002A0E4F0A374480237F390025B
:10372B0091E06410705EA3E0FF7E007C007DBE1212
:10373B000960A804A905AA06AB07A3E0FFE4FCFDFA
:10374B00FEEB2FFFEE3AFEED39FDEC38FCE47B206F
:10375B00FAF9F81207FD9002951208AA9052A412DA
:10376B00088A900295E0F8A3E0F9A3E0FAA3E02F12
:10377B00FFEA3EFEE93DFDE83CFC9002A0E4F0A32D
:10378B0074208064900291E0640C706BA3E0FF7E68
:10379B00007C007DBE120960A804A905AA06AB0730
:1037AB00A3E0FFE4FCFDFEEB2FFFEE3AFEED39FD4F
:1037BB00EC38FCE47B18FAF9F81207FD900295122D
:1037CB0008AA90529412088A900295E0F8A3E0F9A7
:1037DB00A3E0FAA3E02FFFEA3EFEE93DFDE83CFC47
:1037EB009002A0E4F0A37418F090028EE0FBA3E02B
:0737FB00FAA3E0F9125529C1
:0138020022A3
:102DE000900175EEF0A3EFF0A3ECF0A3EDF0A3EBF0
:012DF000F0F2
:102DF10078837C017D017BFF7A5279D47E007F410B
:102E0100120692900177E0FFA3E09001C4CFF0A3F6
:102E1100EFF0900179E024E0FFE434FFFEE4FCFDF3
:102E21009001CA1208AA90017AE0B420299001CA3F
:102E3100E0FCA3E0FDA3E0FEA3E0FFE47B40FAF9A0
:102E4100F81207FD9001CA1208AA9001827440F09D
:102E51009052CC022F1290017AE0B418299001CA45
:102E6100E0FCA3E0FDA3E0FEA3E0FFE47B24FAF98C
:102E7100F81207FD9001CA1208AA9001827424F089
:102E81009052BC022F1290017AE0B410289001CA2E
:102E9100E0FCA3E0FDA3E0FEA3E0FFE47B10FAF970
:102EA100F81207FD9001CA1208AA9001827410F06D
:102EB1009052AC805C90017AE0B40C289001CAE099
:102EC100FCA3E0FDA3E0FEA3E0FFE47B0CFAF9F82C
:102ED1001207FD9001CA1208AA900182740CF090A9
:102EE100529C802D90017AE0B4082F9001CAE0FC39
:102EF100A3E0FDA3E0FEA3E0FFE47B06FAF9F812EC
:102F010007FD9001CA1208AA9001827406F090523E
:102F11008C12088A9001C61208AA9001C6E0FCA38F
:102F2100E0FDA3E0FEA3E0FFA3E0F8A3E0F9A3E046
:102F3100FAA3E02FFFEA3EFEE93DFDE83CFC9001EB
:102F410082E0FB9002A0E4F0A3EBF07B017A01792F
:102F510083125529E4900181F0900182E0FF9001F4
:102F610081E0FEC39F400302309574832EF582E415
:102F71003401F583E090017FF0E4A3F0900180E05B
:102F8100FFC39408400302308C90017AE06408701A
:102F91004190017FE0FEA807088002C313D8FC30EE
:102FA100E002804490017DE0FEA3E0FF6411700324
:102FB100EE6411606DEF64117003EE641160639053
:102FC1000175E0FEA3E0FFA3E0FCA3E0FD90017D1D
:102FD1008027900180E0FF90017FE0FEA807088034
:102FE10002C333D8FC30E718900175E0FEA3E0FF7F
:102FF100A3E0FCA3E0FD90017BE0FAA3E0FB801FCE
:1030010090017DE0FAA3E0FB64117003EA641160B2
:1030110011900175E0FEA3E0FFA3E0FCA3E0FD1227
:1030210056EA900178E004F07006900177E004F030
:10303100900177E0FEA3E0FFC39440EE9401505469
:103041009001C4E0FCA3E0FDC3EF9DFFEE9CFE9068
:10305100017AE07A00B5072AEAB50626900177ECF5
:10306100F0A3EDF0900176E004F07006900175E0B8
:1030710004F0C3900176E094F0900175E094004073
:103081000A22900180E004F0022F7D900181E0048A
:04309100F0022F5AC0
:013095002218
:0E404300900175EEF0A3EFF0A3ECF0A3EDF00A
:10405100900189ECF0A3EDF090017CE0FF640C602D
:1040610012EF6410600DEF64186008EF64206003C4
:104071000241BB90028E7401F0A37401F0A3748B12
:10408100F0A3EFF01235C090017CE0FFB4200B905B
:104091000187E4F0A37480F0801EEFB4180B900147
:1040A10087E4F0A37448F0800FEF75F002A4FF904D
:1040B1000187E5F0F0A3EFF0E4900183F0A3F09025
:1040C1000187E0FEA3E0FF900183E0FCA3E0FDC3D4
:1040D1009FEC9E40030241BB748B2DF582E43401B9
:1040E100F583E0FF900181E4F0A3EFF0E490018516
:1040F100F0A3F0900182E030E718900175E0FEA393
:10410100E0FFA3E0FCA3E0FD90017DE0FAA3E0FB6A
:10411100801F90017FE0FAA3E0FB64117003EA6461
:10412100116011900175E0FEA3E0FFA3E0FCA3E0A4
:10413100FD1256EA900182E025E0F0900181E03322
:10414100F0900178E004F07006900177E004F090BF
:104151000189E0FEA3E0FFC3900178E09FFD90019B
:1041610077E09EFC90017CE07A00B5051CEAB5047D
:1041710018900177EEF0A3EFF0900176E004F07073
:1041810028900175E004F08020900186E004F07031
:1041910006900185E004F0C3900186E09408900147
:1041A10085E0940050030240F4900184E004F07033
:0A41B10006900183E004F00240C014
:0141BB0022E1
:103D3500900168EEF0A3EFF0A3ECF0A3EDF0A3EB98
:073D4500F0A3EAF0A3E9F08E
:103D4C00E4900174F090016CE0FBA3E0FAA3E0F9BD
:103D5C001206B8FF7003023EBC900174E0600302CF
:103D6C003E1CEFD3948040057401F080D890016A1A
:103D7C00E0FCA3E0FDD39440EC94014003023EBC74
:103D8C001206B8FB90016FE090017AF0900170E0A0
:103D9C00FFA3E090017BCFF0A3EFF0900172E0FF66
:103DAC00A3E090017DCFF0A3EFF0900168E0FEA3BB
:103DBC00E0FF122DE090016DE475F0011207879081
:103DCC00016FE0FFB40808900169E024068009EF58
:103DDC00C313FF900169E02FF0900168E03400F00C
:103DEC00D3900169E094F0900168E09400500302D4
:103DFC003D5190016D74FFF5F012078790016FE053
:103E0C00FF90016BE02FF090016AE03400023EB1AC
:103E1C00E4900174F090016AE0FCA3E0FDD39440BF
:103E2C00EC94014003023EBC90016CE0FBA3E0FA71
:103E3C00A3E0F9A3E090017CF0900170E0FFA3E017
:103E4C0090017DCFF0A3EFF0900172E0FFA3E09022
:103E5C00017FCFF0A3EFF0900168E0FEA3E0FF122A
:103E6C00404390016DE475F00212078790016FE0FA
:103E7C00FF7E00900169E02FF0900168E03EF0D3E6
:103E8C00A3E094F0900168E094005003023D51903F
:103E9C00016D74FF75F0FE12078790016BE02FF037
:103EAC0090016AE03EF0E4900168F0A3F0023D510D
:013EBC0022E3
:101C290000000000000000000000000000000000AB
:101C39000000000000001FCC000C000000000000A4
:101C4900000008003000600008003000600000005B
:101C5900022003FC1E20022003FC1E20022000009B
:101C690000000E1811043FFF10840C7800000000DA
:101C79000F0010840F3800C007781884007800001E
:101C890000780F8410C411240E9800E40084000821
:101C9900080068007000000000000000000000005B
:101CA90000000000000007E01818200440020000AE
:101CB900000040022004181807E00000000000009E
:101CC9000240024001800FF0018002400240000002
:101CD9000080008000800FF80080008000800000F4
:101CE9000001000D000E00000000000000000000CF
:101CF900000000800080008000800080008000805B
:101D09000000000C000C00000000000000000000B2
:101D1900000000060018006001800600180020007D
:101D2900000007F0080810041004080807F0000074
:101D39000000080408041FFC00040004000000005F
:101D490000000E0C10141024104411840E0C000015
:101D590000000C1810041104110412880C70000002
:101D6900000000E00320042408241FFC00240000D4
:101D790000001F98108411041104108810700000CD
:101D8900000007F008881104110418880070000089
:101D990000001C00100010FC13001C0010000000C3
:101DA90000000E3811441084108411440E380000CC
:101DB90000000700088C10441044088807F0000050
:101DC900000000000000030C030C000000000000EC
:101DD90000000000000101060000000000000000F2
:101DE90000000080014002200410080810040000CF
:101DF90002200220022002200220022002200000EC
:101E090000001004080804100220014000800000AE
:101E190000000E001200100C106C10800F00000062
:101E290003E00C1813E4142417C4082807D0000091
:101E39000004003C03C41C40074000E4001C0004EB
:101E490010041FFC1104110411040E880070000015
:101E590003E00C1810041004100410081C100000F2
:101E690010041FFC100410041004080807F00000F7
:101E790010041FFC1104110417C4100408180000F1
:101E890010041FFC1104110017C010000800000005
:101E990003E00C181004100410441C7800400000E2
:101EA90010041FFC10840080008010841FFC1004A3
:101EB9000000100410041FFC1004100400000000AE
:101EC90000030001100110011FFE100010000000A6
:101ED90010041FFC110403801464181C1004000072
:101EE90010041FFC1004000400040004000C00008E
:101EF90010041FFC1F0000FC1F001FFC1004000041
:101F090010041FFC0C04030000E010181FFC100053
:101F190007F00808100410041004080807F000006E
:101F290010041FFC10841080108010800F00000026
:101F390007F0081810241024101C080A07F20000E2
:101F490010041FFC1104110011C011300E0C000403
:101F590000000E1C11041084108410441C38000069
:101F69001800100010041FFC1004100018000000D5
:101F790010001FF810040004000410041FF81000DA
:101F890010001E0011E0001C007013801C001000DE
:101F99001FC0103C00E01F0000E0103C1FC0000003
:101FA9001004180C163401C001C01634180C1004A2
:101FB90010001C00130400FC13041C001000000096
:101FC9000804101C1064108413041C041018000069
:101FD9000000000000007FFE4002400240020000B5
:101FE900000030000C0003800060001C00030000AA
:101FF90000004002400240027FFE00000000000095
:1020090000000000200040004000400020000000C7
:1020190000010001000100010001000100010001AF
:102029000000400040002000000000000000000007
:1020390000000098012401440144014400FC00040B
:1020490010001FFC008801040104008800700000D2
:1020590000000070008801040104010400880000E8
:102069000000007000880104010411081FFC00042D
:10207900000000F8014401440144014400C8000083
:102089000000010401040FFC1104110411001800DF
:10209900000000D601290129012901C90106000012
:1020A90010041FFC008401000100010400FC00046D
:1020B90000000104190419FC0004000400000000D8
:1020C9000000000300010101190119FE00000000D0
:1020D90010041FFC0024004001B4010C010400009D
:1020E9000000100410041FFC00040004000000009C
:1020F900010401FC0104010001FC0104010000FCD0
:10210900010401FC008401000100010400FC000439
:10211900000000F8010401040104010400F80000B2
:10212900010101FF0085010401040088007000001D
:1021390000000070008801040104010501FF00018D
:102149000104010401FC0084010401000180000074
:10215900000000CC0124012401240124019800007D
:1021690000000100010007F801040104000000005B
:10217900010001F8000400040004010801FC000446
:10218900010001800170000C001001600180010054
:1021990001F0010C003001C00030010C01F0010018
:1021A90000000104018C00740170018C010400001D
:1021B900010101810171000E001801600180010017
:1021C90000000184010C013401440184010C000068
:1021D900000000000000000001003EFC4002400237
:1021E9000000000000000000FFFF000000000000E8
:1021F9000000400240023EFC010000000000000017
:1022090000006000800080004000400020002000A5
:0D5C6900C295C2948FB0C296D296D29422FA
:0C5B6000E0FF7E00125B6CE0FEA3E0FFA3
:0D5B6C00D295C2948FB0C296D296D29422E8
:075C4800125C4F7D017F1982
:0A5C4F00125C69AE04AF05025B6C45
:105BBE003ECF2401FDE43FFCE0FEA3E0FF125913AB
:055BCE007F22025C696A
:035C9700025B6C41
:0B590800E0FEA3E0FFA3E0FCA3E0FD35
:10591300AB05AA048F828E83E583FD7C007F021290
:105923005C4FAF82AD07FC7F03125C4FEAFD7C0046
:0F5933007F06125C4FAF03AD07FC7F07025C4F8E
:0B59D5007C007F1F125C4F7F057E00EE
:1059E000E4FDFCC3ED9FEC9E5015E4FBFA0BBB00FD
:0F59F000010ABA04F8BB75F50DBD00010C80E487
:0159FF002285
:1039E8007F327E001259E07D017C00E4FF125C4FBB
:1039F8007F32FE1259E09000477F641259E0E58259
:103A0800644745836003023B9CFDFC7FEA125C4FE0
:103A18007D207FEB125C4F7D0C7FEC125C4F7DC4E8
:103A28007FED125C4F7D407FE8125C4F7D387FE967
:103A3800125C4F7D017FF1125C4F7D107FF2125CAA
:103A48004F7DA37F27125C4FFD7F40125C4F7F4163
:103A5800125C4F0D7F42125C4F7D127F43125C4F08
:103A68007D107F44125C4F7D267F45125C4F7D0898
:103A78007F46125C4F7D537F47125C4F7D027F4823
:103A8800125C4F7D157F49125C4F7D197F4A125C8D
:103A98004F7F4B125C4F7D167F4C125C4F7D197F18
:103AA80050125C4F7D2F7F51125C4F7D2D7F52123B
:103AB8005C4F7D3E7F53125C4F0D7F54125C4F7FED
:103AC80055125C4F7D2C7F56125C4F7D777F5712C5
:103AD8005C4F7D097F58125C4F7D067F59125C4F01
:103AE8007F5A125C4F7D0A7F5B125C4F7D1D7F5CA5
:103AF800125C4F7DCC7F5D125C4F7D1B7F1B125C7F
:103B08004F7D017F1A125C4F7D2F7F24125C4F7D01
:103B1800577F25125C4F7D977F23125C4F7D367F40
:103B280018125C487D887F1F125C4F7F05FE125972
:103B3800E07D801259D57D901259D57DD01259D586
:103B48007D057C007F17125C4FE4FD7F36125C4FC9
:103B58007D387F28125C4F7F28FE1259E07D3C7C1F
:103B680000125C4FE4FD7F02125C4F7F03125C4F32
:103B78007F04125C4F7DEF7F05125C4FFD7F0612BC
:103B88005C4F7F07125C4F0D7F08125C4F7D3F7FB3
:0B3B980009125C487F327E000259E0F9
:08508600900160EEF0A3EFF0D1
:10508E00A31208B600000000E4FDFCFFFE12591347
:10509E00125BCE9001621208B600000000E47F4061
:1050AE007E01FDFC900162E0F8A3E0F9A3E0FAA313
:1050BE00E0FBC312085A506D9001661208B600004C
:1050CE000000E47FF0FEFDFC900166E0F8A3E0F93D
:1050DE00A3E0FAA3E0FBC312085A50279001601216
:1050EE005B60900166E0FCA3E0FDA3E0FEA3E0247C
:1050FE0001FFE43EFEE43DFDE43CFC900166120837
:10510E00AA80BF900162E0FCA3E0FDA3E0FEA3E055
:10511E002401FFE43EFEE43DFDE43CFC90016212FE
:05512E0008AA0250ABCD
:015133002259
:1056D40090016AE0FEA3E0FFA3E0FCA3E0FD9001DB
:0656E40072E0FAA3E0FBF6
:1056EA0090028DEAF0A3EBF090028BEEF0A3EFF0BC
:1056FA00C394F0EE94005021C3ED9440EC94015011
:10570A001890028B125BC690028DE0FF7E00125C3D
:0A571A0097E0FEA3E0FF125C972267
:10334C0090016CECF0A3EDF090016AEEF0A3EFF0BD
:08335C0090016EEAF0A3EBF012
:10336400D3EF9BEE9A402790016EE0FEA3E0FF901E
:103374000178EEF0A3EFF090016AE0FDA3E0900184
:103384006ECDF0A3EDF090016AEEF0A3EFF09001A2
:1033940070E0FEA3E0FF90016CE0FCA3E0FDD39F8E
:1033A400EC9E4018900178EEF0A3EFF0900170ECE1
:1033B400F0A3EDF090016CEEF0A3EFF090016AE061
:1033C400FEA3E0FFC390016FE09FFF90016EE09EBB
:1033D400900174F0FAA3EFF0FB90016CE0FEA3E01F
:1033E400FFC3900171E09FFF900170E09E90017611
:1033F400F0A3EFF0EB4A70271256D490016DE0046D
:10340400F0700690016CE004F090016CE0FEA3E023
:10341400FFC3900171E09F900170E09E50DA22900A
:103424000176E07002A3E070271256D490016BE09D
:1034340004F0700690016AE004F090016AE0FEA3D3
:10344400E0FFC390016FE09F90016EE09E50DA228E
:10345400900176E0FEA3E0FF900174E0FCA3E0FDA0
:10346400D39FEE6480F8EC648098500302350FEF2C
:1034740025E0FFEE33FEC3EF9DFFEE9C900178F054
:10348400A3EFF090016EE0FCA3E0FD90016AE0FE82
:10349400A3E0FF6D7002EE6C70030235BC1256DCC3
:1034A40090016BE004F0700690016AE004F0D390A0
:1034B4000179E09400900178E06480948040309039
:1034C400016DE004F0700690016CE004F090017569
:1034D400E025E0FD900174E033FC900177E025E005
:1034E400FF900176E033FEC3EF9DFFEE9C800C90CD
:1034F4000177E025E0FF900176E033FE900179E06A
:103504002FF0900178E03EF0023487900175E025B9
:10351400E0FF900174E033FE900176E0FCA3E0FD4F
:10352400C3EF9DFFEE9CA3F0A3EFF0900170E0FECB
:10353400A3E0FF90016CE0FCA3E0FD6F7002EC6E71
:10354400607690016AE0FEA3E0FF1256E290016DFE
:10355400E004F0700690016CE004F0D3900179E08F
:103564009400900178E064809480403090016BE096
:1035740004F0700690016AE004F0900175E025E023
:10358400FD900174E033FC900177E025E0FF9001A9
:1035940076E033FEC3EF9DFFEE9C800C900177E054
:1035A40025E0FF900176E033FE900179E02FF09062
:0B35B4000178E03EF002352F1256D4E3
:0135BF0022E9
:104A6000900192EEF0A3EFF0900196EBF09001949C
:054A7000ECF0A3EDF0E5
:104A750090019DECF0A3EDF0900196E024E0F0E4C8
:104A8500F9900196E075F010A42429F582E5F0343B
:104A95001CF583E58229F582E43583F583E493905B
:104AA500019BF0E4A3F090019BE030E718900192A0
:104AB500E0FEA3E0FFA3E0FCA3E0FD900197E0FA90
:104AC500A3E0FB801F900199E0FAA3E0FB6411705D
:104AD50003EA64116011900192E0FEA3E0FFA3E0F8
:104AE500FCA3E0FD1256EA90019BE025E0F0900161
:104AF50095E004F07006900194E004F0C3900193F2
:104B0500E094F0900192E09400505690019DE0FEF3
:104B1500A3E0FFC3900195E09FFD900194E09EFC0A
:104B2500ED64104C7023EEF0A3EFF0900193E004D8
:104B3500F07006900192E004F0C3900193E0944078
:104B4500900192E0940140102290019CE004F0E075
:104B5500C394085003024AAB09E964106003024A92
:014B650086C9
:014B6600222C
:104FD000900160EEF0A3EFF0A3ECF0A3EDF0A3EBF3
:074FE000F0A3EAF0A3E9F0E1
:104FE700900164E0FBA3E475F00112079DA9F0FAB4
:104FF7001206B8FB900162E0FCA3E0FD900167E0B8
:10500700FFA3E0900197CFF0A3EFF0900169E0FFD5
:10501700A3E0900199CFF0A3EFF0900160E0FEA329
:10502700E0FF124A60C3900161E094E8900160E0FC
:105037009400500AA3E02408F09001608020C390F8
:105047000163E09430900162E09401E490016050C4
:1050570013F0A3F0900163E02410F0900162E034B4
:1050670000F08007F0A3F0A3F0A3F0900164E0FB49
:0E507700A3E0FAA3E0F91206B86003024FE7C7
:015085002208
:1046FD00900156EEF0A3EFF0A3ECF0A3EDF0A3EADA
:04470D00F0A3EBF03A
:10471100E4900162F0A3F09001681208B600000075
:1047210000900156125908125BCEC2A47F031259A0
:10473100BB90015EE0FCA3E0FDA3E0FEA3E0FF78F7
:104741001012086B1259BB90015EE0FCA3E0FDA3BF
:10475100E0FEA3E0FF780812086B1259BB90015EDE
:10476100A3A3A3E0FF1259BB9001641208B6000095
:10477100000090015CE0FEA3E0FFE4FCFD90016419
:10478100E0F8A3E0F9A3E0FAA3E0FBC312085A4062
:10479100030248369001681208B60000000090013B
:1047A1005AE0FEA3E0FFE4FCFD900168E0F8A3E01D
:1047B100F9A3E0FAA3E0FBC312085A503C125B9143
:1047C100900163EFF0125B91900162EFF07E0012B5
:1047D1005B6CA3E0FF125B6C900168E0FCA3E0FD61
:1047E100A3E0FEA3E02401FFE43EFEE43DFDE43C42
:1047F100FC9001681208AA80A5900164A3A3E0FEC1
:10480100A3E0FF900159E02FFF900158E09001567D
:10481100125BBE900164E0FCA3E0FDA3E0FEA3E017
:104821002401FFE43EFEE43DFDE43CFC9001641202
:0748310008AA024773D2A49C
:01483800225D
:104D6300900165EEF0A3EFF0A3ECF0A3EDF0A3EA5E
:044D7300F0A3EBF0CE
:104D77009001731208B600000000900165125908EF
:104D8700125BCE90016F1208B60000000090016B15
:104D9700E0FEA3E0FFE4FCFD90016FE0F8A3E0F97B
:104DA700A3E0FAA3E0FBC312085A4003024E429065
:104DB70001731208B600000000900169E0FEA3E04D
:104DC700FFE4FCFD900173E0F8A3E0F9A3E0FAA388
:104DD700E0FBC312085A502790016D125B609001E7
:104DE70073E0FCA3E0FDA3E0FEA3E02401FFE43EA3
:104DF700FEE43DFDE43CFC9001731208AA80BA90E2
:104E0700016FA3A3E0FEA3E0FF900168E02FFF90EE
:104E17000167E0900165125BBE90016FE0FCA3E0C3
:104E2700FDA3E0FEA3E02401FFE43EFEE43DFDE434
:0B4E37003CFC90016F1208AA024D9491
:014E4200224D
:102AFE00900164EAF0A3EBF0900160EEF0A3EFF02A
:102B0E00A3ECF0A3EDF0C006C007A3E0FEA3E0FF28
:102B1E00900160E0FAA3E02FFBEA3EFAA3E0FFA3E8
:102B2E00E0900170CFF0A3EFF0900168E0FFA3E01A
:102B3E00900172CFF0A3EFF0D007D00612334C9075
:102B4E000161E02401FF900160E03400FEC006C088
:102B5E0007900163E02401FD900162E03400FC90D7
:102B6E000164E0FEA3E0FF900160E0FAA3E02FFF16
:102B7E00EA3ECF24FFFBEF34FFFAA3E0FEA3E024EE
:102B8E0001FFE43E900170F0A3EFF0900168E0FFCA
:102B9E00A3E0900172CFF0A3EFF0D007D00612336E
:102BAE004C900160E0FAA3E0FBFFAE02C006C00746
:102BBE00A3E0FCA3E0FD900166E0FEA3E0FF900120
:102BCE0062E0F8A3E02FFFE83E900170F0A3EFF073
:102BDE00900168E0FFA3E0900172CFF0A3EFF0D078
:102BEE0007D00612334C900161E02401FB90016086
:102BFE00E03400FAAF03FEC006C007900163E02484
:102C0E0001FD900162E03400FC900166E0FEA3E05D
:102C1E00FF900162E0F8A3E02FFFE83ECF24FFCF44
:102C2E0034FF900170F0A3EFF0900168E0FFA3E095
:102C3E00900172CFF0A3EFF0D007D00612334C9074
:102C4E000166E0FEA3E0FF900163E02FFD900162BC
:102C5E00E03EFC900164E0FEA3E0FF900160E0FA2C
:102C6E00A3E02FFBEA3EFA900166E0FEA3E0FF90A0
:102C7E000162E0F8A3E02FFFE83E900170F0A3EFB1
:102C8E00F0900168E0FFA3E0900172CFF0A3EFF0A7
:102C9E00900160E0FEA3E0FF12334C900161E0244E
:102CAE0001FF900160E03400FEC006C0079001668F
:102CBE00E0FEA3E0FF900163E02FFF900162E03E93
:102CCE00CF24FFFDEF34FFFC900164E0FEA3E0FF94
:102CDE00900160E0FAA3E02FFFEA3ECF24FFFBEF66
:102CEE0034FFFA900166E0FEA3E0FF900162E0F887
:102CFE00A3E02FFFE83ECF24FFCF34FF900170F00A
:102D0E00A3EFF0900168E0FFA3E0900172CFF0A373
:102D1E00EFF0D007D00612334C900164E0FEA3E032
:102D2E00FF900161E02FFB900160E03EFAAF03FEE1
:102D3E00C006C007900162E0FCA3E0FD900166E0D2
:102D4E00FEA3E0FF900162E0F8A3E02FFFE83E90C3
:102D5E000170F0A3EFF0900168E0FFA3E090017224
:102D6E00CFF0A3EFF0D007D00612334C900164E001
:102D7E00FEA3E0FF900161E02FFF900160E03ECFE7
:102D8E0024FFFBEF34FFFAAF03FEC006C00790012D
:102D9E0063E02401FD900162E03400FC900166E0E6
:102DAE00FEA3E0FF900162E0F8A3E02FFFE83ECF24
:102DBE0024FFCF34FF900170F0A3EFF0900168E094
:102DCE00FFA3E0900172CFF0A3EFF0D007D0060280
:022DDE00334C74
:105688005F02A4FF5AF1FF4C6CFF13AF000000004B
:105698000000000000000000000000000000000002
:0A56A80000004102C3D04102C4908B
:105AD400EF7803C333CE33CED8F9FFE4FDFCC3ED36
:0C5AE4009FEC9E50070DBD00010C80F2ED
:015AF0002293
:105B4600E4FEEF30E704D2828002C282EF25E0FF56
:095B5600C281D2810EEEB408E90F
:015B5F002223
:10577300E4FDFBFAC281C282C2A6125B467F067EAB
:1057830000125AD4C2817F017E00125AD4D281C240
:1057930081E4FDEB25E0FBEA33FAC281D281308359
:1057A300050BBB00010A0DEDB410E8EAC4F854F090
:0D57B300C868FAEBC4540F48D2A6AE02FF3E
:0157C00022C6
:023BA300A90770
:103BA500E4900188F0A3F090017CF0A3F0AF01123E
:103BB5005773AC06AD0790017DE025E0FF90017CD1
:103BC500E033FE747E2FF58274013EF583ECF0A39D
:103BD500EDF090017DE004F0700690017CE004F0CA
:103BE500C390017DE0940590017CE0940040BEE423
:103BF50090017CF0A3F090017CE0FEA3E0FFC3946C
:103C050004EE94004003023CCFEF2401FFE43EADF7
:103C150007FCC3ED9405EC94004003023CBBED2585
:103C2500E0FFEC33FE747E2FF58274013EF583E0F0
:103C3500FAA3E0FB90017DE025E0FF90017CE033F5
:103C4500FE747E2FF58274013EF583E0FEA3E0FF4E
:103C5500D39BEE9A405890018AEEF0A3EFF0ED2544
:103C6500E0FFEC33FE747E2FF58274013EF583E0B0
:103C7500FAA3E0FB90017DE025E0FF90017CE033B5
:103C8500FE747E2FF58274013EF583EAF0A3EBF016
:103C950090018AE0FAA3E0FBED25E0FFEC33FE742A
:103CA5007E2FF58274013EF583EAF0A3EBF00DBD9E
:103CB50000010C023C1790017DE004F06003023B1B
:103CC500FB90017CE004F0023BFBE4900188F0A34B
:103CD500F090017CF0A304F090017CE0FEA3E0FFEE
:103CE500C39404EE94005032EF25E0FFEE33FE74EA
:103CF5007E2FF58274013EF583E0FEA3E0FF90017F
:103D050089E02FF0900188E03EF090017DE004F01D
:103D150070C690017CE004F080BE900188E0FEA3AF
:0F3D2500E0FF7C007D03120732A3EEF0A3EFF066
:013D3400226C
:0B572400900174EBF0A3EAF0A3E9F0A1
:10572F009002C3E0FF123BA390017AEEF0A3EFF0DB
:10573F009002C4E0FF123BA390017AE0F9A3E0FDD1
:10574F00900174E0FBA3E0FAA3E0C98DF01207DE2D
:10575F00900177E0FBA3E0FAA3E0F9EE8FF01207D8
:03576F00DE7F01D9
:015772002214
:104477009001697401F0A37402F0A374B3F07B0197
:044487007A0279B18B
:0B448B00900166EBF0A3EAF0A3E9F05B
:104496009001777401F0A37401F0A3746EF07B01B0
:1044A6007A01796C125724EF7002FF22900177741B
:1044B60001F0A37401F0A37472F07B017A017970A4
:1044C600125724EF7002FF2290016CE0FEA3E0FF7A
:1044D600900170E0FCA3E0FDD39FEC9E500EED240E
:1044E60032FDE43CFCC3EF9DEE9C402A900170E057
:1044F600FEA3E0FF90016CE0FCA3E0FDD39FEC9EE1
:1045060040030245B9ED2432FDE43CFCC3EF9DEEC9
:104516009C40030245B990016EE0FEA3E0FF9001C6
:1045260072E0FCA3E0FDD39FEC9E500EED2432FD1D
:10453600E43CFCC3EF9DEE9C4024900172E0FEA398
:10454600E0FF90016EE0FCA3E0FDD39FEC9E50637C
:10455600ED2432FDE43CFCC3EF9DEE9C50559001EA
:1045660070E0FEA3E0FF90016DE02FFF90016CE08C
:104576003EC313F9EF13FF900166E0FBA3E0FAA335
:10458600E0C98FF01207DE900172E0FEA3E0FF9013
:10459600016FE02FFF90016EE03EC313F9EF13FFAA
:1045A600900169E0FBA3E0FAA3E0C98FF01207DEF1
:0545B6007F01227F00DF
:0145BB0022DD
:1045BC00E4900010F07D047C0174FFFBFA7F047E14
:0145CC0001ED
:1045CD00900021EEF0A3EFF0900025EAF0A3EBF0C0
:1045DD00900023ECF0A3EDF0900021E0FAA3E0FBB6
:1045ED0024F4FFEA34FFFEC007EB240DFBE43AFA96
:1045FD00A3E0FFA3E0900170CFF0A3EFF0900025B2
:10460D00E0FFA3E0900172CFF0A3EFF0D0071233DB
:10461D004C900021E0FAA3E0FBFFAE02C006C007FC
:10462D00900024E024F4FD900023E034FFFCE0FE34
:10463D00A3E0240DFFE43E900170F0A3EFF0900095
:10464D0025E0FFA3E0900172CFF0A3EFF0D007D0EB
:10465D000612334C900022E02401FF900021E0343B
:10466D0000FE900024E02401FD900023E03400FCC6
:10467D00900025E0FAA3E0FB1256EA900022E02418
:10468D00FFFF900021E034FFFE900024E02401FDA7
:10469D00900023E03400FC900025E0FAA3E0FB122B
:1046AD0056EA900022E02401FF900021E03400FE44
:1046BD00900024E024FFFD900023E034FFFC9000E7
:1046CD0025E0FAA3E0FB1256EA900022E024FFFF5A
:1046DD00900021E034FFFE900024E024FFFD9000C7
:1046ED0023E034FFFC900025E0FAA3E0FB0256EA3C
:10542E00900158EEF0A3EFF0A3ECF0A3EDF0A3EA99
:10543E00F0A3EBF01256EA900159E02401FF90011F
:10544E0058E03400FE90015AE0FCA3E0FDA3E0FA20
:10545E00A3E0FB1256EA900158E0FEA3E0FF900194
:10546E005BE02401FD90015AE03400FC90015CE009
:10547E00FAA3E0FB1256EA900159E02401FF9001D5
:10548E0058E03400FE90015BE02401FD90015AE0EB
:0E549E003400FC90015CE0FAA3E0FB0256EA49
:104C6C0030A503024D3AEF6006124477024D101244
:104C7C004477EF7003024D109002B1E0FCA3E0FD0D
:104C8C00E41203569002B6E0F8A3E0F9A3E0FAA30D
:104C9C00E0FB12013EC004C005C006C0079002BE76
:104CAC00E0FCA3E0FDEC120356D003D002D001D0FF
:104CBC000012004D12038F9002B1EEF0A3EFF0A39F
:104CCC00E0FCA3E0FDE41203569002BAE0F8A3E086
:104CDC00F9A3E0FAA3E0FB12013EC004C005C00634
:104CEC00C0079002C0E0FCA3E0FDEC120356D00319
:104CFC00D002D001D00012004D12038F9002B3EEFF
:104D0C00F0A3EFF09002B5E020E74474C0F09002FD
:104D1C00B1E0FFA3E09002ADCFF0A3EFF09002B3AF
:104D2C00E0FFA3E09002AFCFF0A3EFF08021900260
:104D3C00B5E030E705547FF08015E49002ADF0A3A8
:104D4C00F0A3F0A3F074FFA3F0A3F0A3F0A3F090F2
:074D5C0002B5E05480FF22C4
:1013AF00E4900010F0F074FFFFFE1250867B007A7D
:1013BF00F87D3C7C007F3C7E001245CDE49002B569
:1013CF00F0A31208B6000000009002A7A3E0FAA352
:1013DF00E0F5828A837F0112095E9002B5E0FF5427
:1013EF00C0FEBE40E4EF54BFF09002B1E0FEA3E0B8
:1013FF00FF900010E0FD25E025E02400F582E434A5
:10140F0000F583EEF0A3EFF09002B3E0FEA3E0FF50
:10141F00ED25E025E02402F582E43400F583EEF0BB
:10142F00A3EFF0900010E004F0E024FE60231460BE
:10143F003214604D2403709174FFFBFA7D3C7C00E5
:10144F007F3C7E001245CD7B007AF87D3C7C00808E
:10145F00297D3C7C001245C57B007AF87D047C0118
:10146F0002169874FFFBFA7D047C017F3C7E00120C
:10147F0045CD7B007AF87D047C017F047E01021A42
:10148F0092900004E0FEA3E0FFC3900001E09FFFF5
:10149F00900000E09EFE125C76EE3395E0FDFC902E
:1014AF0000151208AA900006E0FEA3E0FFC390000B
:1014BF0003E09FFF900002E09EFE125C76EE3395F4
:1014CF00E0FDFC9000191208AA900015E0FCA3E0C3
:1014DF00FDA3E0FEA3E0FFA804A905AA06FB1207DF
:1014EF00FD9000151208AA900019E0FCA3E0FDA3DF
:1014FF00E0FEA3E0FFA804A905AA06FB1207FD90D2
:10150F0000191208AA900019E0FCA3E0FDA3E0FE69
:10151F00A3E0FF900015E0F8A3E0F9A3E0FAA3E041
:10152F002FFFEA3EFEE93DFDE83CFCE412035112B9
:10153F00513812038F900011EEF0A3EFF090000CD2
:10154F00E0FEA3E0FFC3900009E09FFF900008E0DA
:10155F009EFE125C76EE3395E0FDFC9000151208AE
:10156F00AA90000EE0FEA3E0FFC390000BE09FFFE8
:10157F0090000AE09EFE125C76EE3395E0FDFC9043
:10158F0000191208AA900015E0FCA3E0FDA3E0FEED
:10159F00A3E0FFA804A905AA06FB1207FD900015FA
:1015AF001208AA900019E0FCA3E0FDA3E0FEA3E05F
:1015BF00FFA804A905AA06FB1207FD90001912083F
:1015CF00AA900019E0FCA3E0FDA3E0FEA3E0FF90CA
:1015DF000015E0F8A3E0F9A3E0FAA3E02FFFEA3E3D
:1015EF00FEE93DFDE83CFCE41203511251381203B1
:1015FF008F900013EEF0A3EFF0900011E0FCA3E04A
:10160F00FDE4120356C004C005C006C007900013C6
:10161F00E0FCA3E0FDE4120356A804A905AA06AB5B
:10162F0007D007D006D005D00412024790001D1234
:10163F0008AA7F337E337D737C3F90001DE0F8A3B3
:10164F00E0F9A3E0FAA3E0FB1202E440317F667EEB
:10165F00667D867C3F90001DE0F8A3E0F9A3E0FAD9
:10166F00A3E0FB1202E460025014900011E070023C
:10167F00A3E0600A900013E07002A3E0701212451D
:10168F00BC7B007AF87D3C7C007F3C7E00021A9286
:10169F00900008E0FEA3E0FFC3900001E09FFF90E1
:1016AF000000E09EFE125C76EE3395E0FDFC9000AC
:1016BF00151208AA90000AE0FEA3E0FFC3900003F2
:1016CF00E09FFF900002E09EFE125C76EE3395E005
:1016DF00FDFC9000191208AA900015E0FCA3E0FD94
:1016EF00A3E0FEA3E0FFA804A905AA06FB1207FDCD
:1016FF009000151208AA900019E0FCA3E0FDA3E0EA
:10170F00FEA3E0FFA804A905AA06FB1207FD90009F
:10171F00191208AA900019E0FCA3E0FDA3E0FEA3B4
:10172F00E0FF900015E0F8A3E0F9A3E0FAA3E02FA3
:10173F00FFEA3EFEE93DFDE83CFCE4120351125185
:10174F003812038F900011EEF0A3EFF090000CE031
:10175F00FEA3E0FFC3900005E09FFF900004E09E12
:10176F00FE125C76EE3395E0FDFC9000151208AA90
:10177F0090000EE0FEA3E0FFC3900007E09FFF90F4
:10178F000006E09EFE125C76EE3395E0FDFC9000C5
:10179F00191208AA900015E0FCA3E0FDA3E0FEA338
:1017AF00E0FFA804A905AA06FB1207FD9000151279
:1017BF0008AA900019E0FCA3E0FDA3E0FEA3E0FF60
:1017CF00A804A905AA06FB1207FD9000191208AA82
:1017DF00900019E0FCA3E0FDA3E0FEA3E0FF900062
:1017EF0015E0F8A3E0F9A3E0FAA3E02FFFEA3EFE2D
:1017FF00E93DFDE83CFCE412035112513812038F0E
:10180F00900013EEF0A3EFF0900011E0FCA3E0FDC9
:10181F00E4120356C004C005C006C007900013E0D1
:10182F00FCA3E0FDE4120356A804A905AA06AB0722
:10183F00D007D006D005D00412024790001D120821
:10184F00AA7F337E337D737C3F90001DE0F8A3E0C9
:10185F00F9A3E0FAA3E0FB1202E4401D7F667E6667
:10186F007D867C3F90001DE0F8A3E0F9A3E0FAA38A
:10187F00E0FB1202E4601440121245BC7B007AF8C0
:10188F007D3C7C007F3C7E00021A92900008E0FEB7
:10189F00A3E0FFC3900005E09FFF900004E09EFED1
:1018AF00125C76EE3395E0FDFC9000151208AA90BD
:1018BF00000AE0FEA3E0FFC3900007E09FFF900047
:1018CF0006E09EFE125C76EE3395E0FDFC9000196B
:1018DF001208AA900015E0FCA3E0FDA3E0FEA3E030
:1018EF00FFA804A905AA06FB1207FD900015120810
:1018FF00AA900019E0FCA3E0FDA3E0FEA3E0FFA87F
:10190F0004A905AA06FB1207FD9000191208AA9058
:10191F000019E0FCA3E0FDA3E0FEA3E0FF9000159B
:10192F00E0F8A3E0F9A3E0FAA3E02FFFEA3EFEE917
:10193F003DFDE83CFCE412035112513812038F9025
:10194F000011EEF0A3EFF090000CE0FEA3E0FFC358
:10195F00900001E09FFF900000E09EFE125C76EE8B
:10196F003395E0FDFC9000151208AA90000EE0FEE2
:10197F00A3E0FFC3900003E09FFF900002E09EFEF4
:10198F00125C76EE3395E0FDFC9000191208AA90D8
:10199F000015E0FCA3E0FDA3E0FEA3E0FFA804A96F
:1019AF0005AA06FB1207FD9000151208AA90001950
:1019BF00E0FCA3E0FDA3E0FEA3E0FFA804A905AAB5
:1019CF0006FB1207FD9000191208AA900019E0FCFF
:1019DF00A3E0FDA3E0FEA3E0FF900015E0F8A3E075
:1019EF00F9A3E0FAA3E02FFFEA3EFEE93DFDE83C54
:1019FF00FCE412035112513812038F900013EEF0D2
:101A0F00A3EFF0900011E0FCA3E0FDE4120356C039
:101A1F0004C005C006C007900013E0FCA3E0FDE47E
:101A2F00120356A804A905AA06AB07D007D006D003
:101A3F0005D00412024790001D1208AA7F337E338F
:101A4F007D737C3F90001DE0F8A3E0F9A3E0FAA3BB
:101A5F00E0FB1202E4401D7F667E667D867C3F9030
:101A6F00001DE0F8A3E0F9A3E0FAA3E0FB1202E403
:101A7F00601740151245BC7B007AF87D3C7C007FD7
:101A8F003C7E001245CD0213D8900000E0FEA3E08B
:101A9F00FFC3900005E09FFD900004E09EFCE41260
:101AAF000356A804A905AA06AB07E4FFFE7D487CF0
:101ABF00431202479002B61208AA900000E0FEA35C
:101ACF00E0FF900005E02FFD900004E03EFCE412E3
:101ADF0003569002B6E0F8A3E0F9A3E0FAA3E0FB07
:101AEF0012013EA804A905AA06AB07E4FFFE7DA0DC
:101AFF007C43120049E4FBFAF978401202471203C3
:101B0F008F9002BEEEF0A3EFF0900002E0FEA3E094
:101B1F00FFC390000BE09FFD90000AE09EFCE412D3
:101B2F000356A804A905AA06AB07E4FFFE7D487C6F
:101B3F00431202479002BA1208AA900002E0FEA3D5
:101B4F00E0FF90000BE02FFD90000AE03EFCE41256
:101B5F0003569002BAE0F8A3E0F9A3E0FAA3E0FB82
:101B6F0012013EA804A905AA06AB07E4FFFE7DA05B
:101B7F007C43120049E4FBFAF97840120247120342
:101B8F008F9002C0EEF0A3EFF09002B6E0FCA3E05E
:101B9F00FDA3E0FEA3E0FF12038F125C76D3EF9458
:101BAF0002EE64809480501F9002BAE0FCA3E0FD27
:101BBF00A3E0FEA3E0FF12038F125C76D3EF940233
:101BCF00EE64809480403D1245BC7B007AF87D3CEA
:101BDF007C007F3C7E001245CD9002C2E070047FF6
:101BEF000180027F009002C2EFF0600BA37490F0AF
:101BFF00A374D0F00213D89002C374D0F0A37490E2
:101C0F00F00213D874FFFFFE1250867FE87E031296
:091C1F005A7974FFFFFE12508691
:011C28002299
:10000E009002C37490F0A374D0F09002BE74FFF00F
:10001E00A374F4F09002B61208B63DF973DA9002AA
:10002E00C07401F0A3744AF09002BA1208B6BDAAC9
:03003E00F35E224C
:105AF1009001777401F0A37402F0A374B3F07B01F9
:0D5B01007A0279B112572412000E7F0122A2
:0F5B7900139283125B88EBC313FB125B88D281FC
:085B88007F207E1DDEFEDFFC24
:015B900022F2
:0B483900900160EBF0A3EAF0A3E9F0AF
:104844007B017A0179631251E0900160E0FBA3E0FF
:10485400FAA3E0F974321206FE900160E0FBA3E0D3
:10486400FAA3E0F99000017430120710900169E096
:10487400FFC4540F2430900002120710EF540F2489
:1048840030900003120710900004742F1207109048
:104894000167E0FFC4540F2430900005120710EFA5
:1048A400540F2430900006120710900007742F1242
:1048B4000710900166E0FFC4540F243090000812E2
:1048C4000710EF540F243090000912071090000ACB
:1048D400742F120710900165E0FFC4540F24309028
:1048E400000B120710EF540F243090000C12071025
:1048F40090000D743A120710900164E0FFC4540F45
:10490400243090000E120710EF540F243090000F43
:10491400120710900010743A120710900163E0FF20
:10492400C4540F2430900011120710EF540F243098
:10493400900012120710900013742F1207109001A8
:1049440068E0540F2430900014120710900015E40E
:0349540002071047
:0D5BA800F9EF120710125BB5E4FF1257C1B0
:085BB5007F027E3BDEFEDFFCF7
:015BBD0022C5
:0258CC00AB0728
:1058CE00C2A7125B88C281125B88D2A7125B887A4C
:1058DE0008C281125B88A903E9125B79DAF37A08B0
:1058EE00C281125B88A905E9139283125B88EDC30E
:0958FE0013FD125B83DAE9C2A775
:01590700227D
:0257C100AB0734
:1057C300C2A7125B88C281125B88D2A7125B887A58
:1057D30008C281125B88EB125B79DAF57A08D28111
:1057E300125B88EDC313FD125B88C281125B8830A4
:1057F30083054480FD8004ED547FFDDAE1C2A712E6
:045803005B88AF050A
:01580700227E
:104E4300900160EBF0A3EAF0A3E9F0E4FD7F8E129A
:104E530058CC125BB5900160E0FBA3E0FAA3E0F944
:104E63001206B8FD7F801258CC125BB5900160E04A
:104E7300FBA3E0FAA3E0F99000011206D1FD7F82C3
:104E83001258CC125BB5900160E0FBA3E0FAA3E0FB
:104E9300F99000021206D1FD7F841258CC125BB543
:104EA300900160E0FBA3E0FAA3E0F990000312068F
:104EB300D1FD7F861258CC125BB5900160E0FBA355
:104EC300E0FAA3E0F99000041206D1FD7F8812589E
:104ED300CC125BB5900160E0FBA3E0FAA3E0F9908C
:104EE30000051206D1FD7F8A1258CC125BB59001E2
:104EF30060E0FBA3E0FAA3E0F99000061206D1FDFF
:0F4F03007F8C1258CC125BB57D807F8E0258CC0C
:1051E00090016AEBF0A3EAF0A3E9F0125BB07F8DC7
:1051F0001257C190016AE0FBA3E0FAA3E090000619
:10520000125BA87F8B1257C190016AE0FBA3E0FA02
:10521000A3E0900005125BA87F891257C190016A34
:10522000E0FBA3E0FAA3E0F9900004EF12071012EC
:105230005BB07F871257C190016AE0FBA3E0FAA33D
:10524000E0F9900003125BA97F851257C190016AB3
:10525000E0FBA3E0FAA3E0F9900002125BA97F83D0
:105260001257C190016AE0FBA3E0FAA3E0F99000B5
:1052700001125BA97F811257C190016AE0FBA3E094
:08528000FAA3E0F9EF0206FEBB
:105C3600C2A7C281E4FD7F8E1258CC7D807F8E0282
:025C460058CC38
:03000B0002531588
:10531500C0E0C0F0C083C082C0D075D000C000C05E
:1053250001C002C003C004C005C006C007C28D7518
:105335008AAB758C2F9002FAE0C3945F403EE4F08F
:10534500D2A4C2A7D2A6301233C2127B017A027947
:10535500DF125C2350097B017A0279DF1255A27BAB
:10536500017A0279DF90016774F8F0A3E4F0A37481
:10537500FFF0A3F0E4FDFCFFFE124FD09002FAE02F
:1053850004F0D007D006D005D004D003D002D00158
:0D539500D000D0D0D082D083D0F0D0E03254
:105C5900438901758AAB758C2FD2A9D2AFC28C2228
:1041BC00C8D5C0FA00CEC2B6C800B5E7BBB000CFB8
:1041CC00E0B2E100D3B2BCFEBCECB2E200BBADB0DD
:1041DC00E500B4AEBFDAD6FACAD600535049D6FAC7
:1041EC00CAD600B5E7BBB0B9A6C4DCCEB4BFAAB77B
:1041FC00C5A3A100CFE0B2E1B9A6C4DCCEB4BFAA7E
:10420C00B7C5A3A100B4AEBFDAD6FACAD6CEB4BF36
:10421C00AAB7C5A3A10032CEB4BFAAB7C5A3A1004B
:10422C0033CEB4BFAAB7C5A3A10034CEB4BFAAB7CE
:10423C00C5A3A10035CEB4BFAAB7C5A3A1004861E0
:10424C0072647761726520436865636B2052756E8A
:10425C006E696E67002A2A2A2A2A2A2A466C6173FA
:10426C006820436865636B2A2A2A2A2A2A2A00575F
:10427C0032355138300057323551313600573235DE
:10428C005133320057323551363400466C61736805
:10429C00204572726F72002A2A2A2ACAB1D6D3BC60
:1042AC00ECB2E22A2A2A2A00B6C1C8A1CAB1BCE4DF
:1042BC00D6D02E2E2E002A2A2A2ACEC2B6C8BCEC64
:1042CC00B2E22A2A2A2A00B6C1C8A1CEC2B6C8D6E2
:1042DC00D02E2E2E00B5B1C7B0CEC2B6C8A3BA0030
:1042EC00D6DC00C9E8B6A8CFB5CDB3CAB1BCE400E2
:1042FC00A1F800A88B004E657874004F6B00D2D1EA
:10430C00C9E8B6A8CFB5CDB3CAB1BCE4A3A100A18E
:0F431C00FB00A1F600A1FE000000000000000061
:1056B2005602C500000000000000000000000000CB
:0956C200000000000000000000DF
:10269C00E4900154F0A3F074FFFFFE1250869001F9
:1026AC005CE4F0A37443F0A31208B600600CA07BAA
:1026BC00917A007D147C007F0A7E001246FD7BFF20
:1026CC007A4179BC90016F7410F074FFA3F0A3F001
:1026DC007411A3F0A3F07D477C007F0A7E00123DAD
:1026EC003590015CE4F0A37443F0A31208B60060CB
:1026FC0058867B467A007D147C007FA07E001246B3
:10270C00FD7BFF7A4179C190016F7410F074FFA3C7
:10271C00F0A3F07411A3F0A3F07D477C007FA07EA2
:10272C0000123D3590015CE4F0A37444F0A3120850
:10273C00B600607D2A7B467A007D5D7C007F0A7E38
:10274C00001246FD7BFF7A4179C690016F7410F040
:10275C0074FFA3F0A3F07411A3F0A3F07D917C009F
:10276C007F0A7E00123D3590015CE4F0A37444F0C6
:10277C00A31208B60060A25A7B467A007D5D7C00ED
:10278C007F557E001246FD7BFF7A4179CB90016F1D
:10279C007410F074FFA3F0A3F07411A3F0A3F07DF8
:1027AC00917C007F557E00123D3590015CE4F0A3D6
:1027BC007444F0A31208B60060C78A7B467A007D89
:1027CC005D7C007FA07E001246FD7BFF7A4179D0B4
:1027DC0090016F7410F074FFA3F0A3F07411A3F0C8
:1027EC00A3F07D917C007FA07E00123D3590015CB2
:1027FC00E4F0A37444F0A31208B60060ECBA7B4674
:10280C007A007DA67C007F0A7E001246FD7BFF7A53
:10281C004179D990016F7410F074FFA3F0A3F07498
:10282C0011A3F0A3F07DDA7C007F0A7E00123D3507
:10283C0090015CE4F0A37444F0A31208B60061119B
:10284C00EA7B917A007DA67C007F557E001246FDC6
:10285C007BFF7A4179DE90016F7410F074FFA3F066
:10286C00A3F07411A3F0A3F07DDA7C007F557E00F9
:10287C00123D3590015CE4F0A37441F0A31208B64C
:10288C0000615EF27B917A007DEF7C007F0A7E0016
:10289C001246FD7BFF7A4179E790016F7410F0745A
:1028AC00FFA3F0A3F07411A3F0A3F07D207C017FB3
:1028BC000A7E00123D3590015CE4F0A37441F0A354
:1028CC001208B60061A8947B467A007DEF7C007FED
:1028DC00A07E001246FD125A00D28CE49002DBF06E
:1028EC00A3F0A3F0A3F0900154E0B40B0FA3E0B459
:1028FC00FF0A125A00E4900154F0A3F0900155E045
:10290C0004F07006900154E004F0124F129002DBB8
:10291C00E0FEA3E0FFC3940AEE94004011D3EF94C1
:10292C0050EE940050089002DBE4F0A304F0900207
:10293C00DBE0FEA3E0FFC39455EE94004012D3EF0E
:10294C00949BEE940050099002DBE4F0A37402F027
:10295C009002DBE0FEA3E0FFC394A0EE94004012D3
:10296C00D3EF94DCEE940050099002DBE4F0A374F6
:10297C0003F09002DDE0FEA3E0FFC3941EEE940092
:10298C004011D3EF9458EE940050089002DDE4F01F
:10299C00A304F09002DDE0FEA3E0FFC3945DEE948F
:1029AC00004012D3EF94A1EE940050099002DDE4A4
:1029BC00F0A37402F09002DDE0FEA3E0FFC394A646
:1029CC00EE94004012D3EF94EAEE9400500990027A
:1029DC00DDE4F0A37403F09002DDE0FEA3E0FFC39E
:1029EC0094EFEE94004012D3EF9433EE940150091F
:1029FC009002DDE4F0A37404F09002DDE0FEA3E0AD
:102A0C00FFEE60030228E7EF24FE603B14606B14BA
:102A1C007003022AB9240360030228E79002DBE06A
:102A2C00FEA3E0FFEE60030228E7EF24FE600C1427
:102A3C00600F240260030228E78000123EBD0228CA
:102A4C00E71249570228E79002DBE0FEA3E0FFEE15
:102A5C0060030228E7EF24FE601214601724026062
:102A6C00030228E77BFF7A4179EF806C7BFF7A4287
:102A7C00790080641238030226A39002DBE0FEA3E7
:102A8C00E0FFEE60030228E7EF24FE6010146015EF
:102A9C00240260030228E71230960228E77BFF7AB3
:102AAC0042791180337BFF7A427922802B9002DBB2
:102ABC00E0FEA3E0FFEE60030228E7EF24FE6012C5
:102ACC0014601F240260030228E77BFF7A42792CF2
:102ADC0080067BFF7A42793674FFFDFC1254AC02FF
:102AEC0028E77BFF7A42794074FFFDFC1254AC025C
:022AFC0028E7C9
:10597C0074FFFFFE12508690015CE4F0A374AEF04D
:10598C00A31208B6005F4E507B8C7A007D497C00D8
:0E599C007F3C7E001246FD7FFF7E0F025A798F
:10380300E4FFFE1250867BFF7A42794A9001677487
:1038130007F0A374E0F0E4A3F0A3F0FDFCFFFE12B5
:103823004FD07BFF7A4279619001677407F0A374EC
:10383300E0F0E4A3F0A3F07D10FCFFFE124FD012E2
:103843005808EF8EF012092D385FEF133867EF1425
:10385300386FEF153877EF160000389C7BFF7A42FC
:10386300797B80167BFF7A427982800E7BFF7A42D6
:10387300798980067BFF7A42799090016F7410F00A
:10388300A374F8F0A3E4F074FFA3F0A3F07D207C0D
:1038930000E4FFFE123D3580267BFF7A4279979044
:1038A300016774F8F0A3E4F074FFA3F0A3F07D20A4
:1038B3007C00E4FFFE124FD07FFF7E0F125A797F08
:1038C300FF7E00125A797BFF7A4279A390016F74CD
:1038D30010F0A37407F0A374E0F0E4A3F0A3F07D69
:1038E30030FCFFFE123D357BFF7A4279B490016FC5
:1038F3007410F0A374F8F0A3E4F074FFA3F0A3F042
:103903007D407C00E4FFFE123D357B017A0279C5E0
:103913001248397B017A0279C590016F7410F0A3C4
:1039230074F8F0A3E4F074FFA3F0A3F07D507C00DF
:10393300E4FFFE123D357FFF7E00125A797BFF7A4A
:103943004279C290016F7410F0A37407F0A374E07E
:10395300F0E4A3F0A3F07D60FCFFFE123D357BFF96
:103963007A4279D390016F7410F0A374F8F0A3E452
:10397300F074FFA3F0A3F07D707C00E4FFFE123D22
:10398300357B017A01795612588C7FFF7E07125AD4
:10399300797B017A01795612588C7BFF7A4279E15F
:1039A30090016F7410F0A37407F0A374E0F0741126
:1039B300A3F0A3F07D807C00E4FFFE123D357B0184
:1039C3007A01795690016774F8F0A3E4F074FFA3C9
:1039D300F0A3F07D807C007F507E00124FD07FFFEC
:0539E3007E0F025A797D
:1054AC00900160EBF0A3EAF0A3E9F0A3ECF0A3ED1C
:0154BC00F0FF
:1054BD00900160E0FBA3E0FAA3E0F990016F741096
:1054CD00F0A374F8F0A3E4F0900163E0FFA3E09083
:1054DD000172CFF0A3EFF0E4FDFCFFFE123D357F2E
:1054ED00FF7E07125A79900160E0FBA3E0FAA3E07A
:1054FD00F9125BD3EF75F008A4FB7A0090016BE411
:10550D00F0A37410F0900163E0FFA3E090016DCF64
:0C551D00F0A3EFF0E4FDFCFFFE024D6384
:104F12009001637401F0A37402F0A374DDF07B01CD
:044F22007A0279DBBB
:104F2600900160EBF0A3EAF0A3E9F0A3E0F9A3E0B7
:104F3600FAA3E0900169C9F0A3EAF0A3E9F09001B1
:104F460060E0FBA3E0FAA3E0F912448B900160E075
:104F5600FBA3E0FAA3E0F91207B3FDACF0E41203F9
:104F6600567BE17A7A797078411202477B9A7A9970
:104F7600796D78C112004D12038F900160E0FBA39A
:104F8600E0FAA3E0F9EE8FF01207DE900163E0FB92
:104F9600A3E0FAA3E0F91207B3FDACF0E41203565E
:104FA6007BC37AF5792C78411202477BF67A287909
:104FB6008C78C112004D12038F900163E0FBA3E0D1
:0A4FC600FAA3E0F9EE8FF00207DE17
:105A7900E4FDFCC3ED9FEC9E5015E4FBFA0BBB0063
:0F5A8900010ABA03F8BBE8F50DBD00010C80E47B
:015A980022EB
:105A00007B017A0279C5124839E49002D5F07B0116
:105A10007A0279D0900167F0A3F074FFA3F0A3F0AD
:095A2000E4FDFC7FC8FE024FD03A
:103EBD00E4900156F0A3F07B017A0279C5124839DE
:103ECD00E49002CCF07F1D7E0512508690016BE4CC
:103EDD00F0A37414F0A374FFF0A374E0F07B787A70
:103EED00007D3C7C007F3C7E00124D6390016BE4B5
:103EFD00F0A37468F074FFA3F0A3F07B787A007DD3
:103F0D00507C007F3C7E00124D637B017A0279C5A7
:103F1D0090016774F8F0A3E4F07411A3F0A3F07DA1
:103F2D003D7C007F3D7E00124FD07BFF7A4279ECC5
:103F3D0090016F7410F0A374F8F0A3E4F07411A362
:103F4D00F0A3F07D3D7C007F967E00123D357B0118
:103F5D007A0279D990016774F8F0A3E4F07411A393
:103F6D00F0A3F07D3D7C007FA67E00124FD0E49043
:103F7D0002CFF07B017A0279CD90016F7420F0A30E
:103F8D0074F8F0A3E4F07411A3F0A3F07D6E7C003F
:103F9D007F697E00123D35124B67900156E0FEA3FE
:103FAD00E0FFF47003EE640B6004EF4E70367B019E
:103FBD007A0279C5124839E49002D5F07B017A0274
:103FCD0079D090016774F8F0A3E4F074FFA3F0A327
:103FDD00F07D967C007F647E00124FD0900156E4F8
:103FED00F0A304F0900157E004F07006900156E044
:103FFD0004F0124F129002DDE0FEA3E0FFD39420F7
:10400D00EE94014095EF9440EE9401508D90016334
:10401D0074FFF0A3740BF0A37428F09002DBE0FFA3
:10402D00A3E0900166CFF0A3EFF07BFF7A26799C99
:06403D0012432B023FA715
:100B280078587C017D017BFF7A4379247E007F071A
:100B380012069290015F7401F0FB7A0279C512489F
:100B4800397F1D7E051250867BFF7A4279EF90012E
:100B58006F7420F074FFA3F0A3F07411A3F0A3F056
:100B68007D147C007F187E00123D357B017A027966
:100B7800C590016774F8F0A3E4F074FFA3F0A3F044
:100B88007D807C007F287E00124FD090016BE4F0BE
:100B9800A37414F0A374C6F0A37418F07B287A0029
:100BA8007D697C007F647E00124D637BFF7A427909
:100BB800FC90016F7410F0E4A3F0A3F07411A3F09B
:100BC800A3F07D6C7C007F737E00123D359001663A
:100BD800E4F0A37414F0A3E4F0A3741FF07B287A64
:100BE800007D697C007F647E00122AFE90016BE420
:100BF800F0A37414F0A374C6F0A37418F07B287AD9
:100C0800007D947C007F647E00124D637BFF7A42F6
:100C180079FF90016F7410F0E4A3F0A3F07411A3AE
:100C2800F0A3F07D997C007F737E00123D35900122
:100C380066E4F0A37414F0A3E4F0A3741FF07B2817
:100C48007A007D947C007F647E00122AFE90016BFE
:100C5800E4F0A37414F0A374C6F0A37418F07B280E
:100C68007A007DB47C007F287E00124D637BFF7A7A
:100C7800437902E4900167F0A3F07411A3F0A3F0A4
:100C88007DB67C007F2A7E00124FD0900166E4F08A
:100C9800A37414F0A3E4F0A3741FF07B287A007DFA
:100CA800B47C007F287E00122AFE90016BE4F0A33A
:100CB8007414F0A374C6F0A37418F07B287A007D2E
:100CC800B47C007FAA7E00124D637BFF7A437907CC
:100CD800E4900167F0A3F07411A3F0A3F07DB67C53
:100CE800007FB97E00124FD0900166E4F0A374141F
:100CF800F0A3E4F0A3741FF07B287A007DB47C0095
:100D08007FAA7E00122AFE124B67E49002D8F09068
:100D180002D5F09002D2F09002CFF09002CCF09081
:100D280002C9F090015FE014B407004003020EFF0F
:100D3800900D4675F003A4C58325F0C58373020D95
:100D48005B020D97020DD3020E0F020E4B020E86A8
:100D5800020EC17B017A0279C59001677407F0A37E
:100D680074E0F0E4A3F0A3F07D80FC7F28FE124F2E
:100D7800D07B017A0279D990016774F8F0A3E4F086
:100D880074FFA3F0A3F07D807C007FC8020EFA7B7D
:100D9800017A0279CA9001677407F0A374E0F0E45D
:100DA800A3F0A3F07D80FC7F50FE124FD07B017A28
:100DB8000279C590016774F8F0A3E4F074FFA3F01A
:100DC800A3F07D807C007F28020EFA7B017A0279ED
:100DD800CD9001677407F0A374E0F0E4A3F0A3F0EA
:100DE8007D80FC7F68FE124FD07B017A0279CA9021
:100DF800016774F8F0A3E4F074FFA3F0A3F07D801A
:100E08007C007F50020EFA7B017A0279D09001674C
:100E18007407F0A374E0F0E4A3F0A3F07D80FC7FF6
:100E280080FE124FD07B017A0279CD90016774F869
:100E3800F0A3E4F074FFA3F0A3F07D807C007F684A
:100E4800020EFA7B017A0279D39001677407F0A346
:100E580074E0F0E4A3F0A3F07D80FC7F98FE124FCD
:100E6800D07B017A0279D090016774F8F0A3E4F09E
:100E780074FFA3F0A3F07D807C007F8080747B01E9
:100E88007A0279D69001677407F0A374E0F0E4A3BE
:100E9800F0A3F07D80FC7FB0FE124FD07B017A0278
:100EA80079D390016774F8F0A3E4F074FFA3F0A37A
:100EB800F07D807C007F9880397B017A0279D99017
:100EC80001677407F0A374E0F0E4A3F0A3F07D8059
:100ED800FC7FC8FE124FD07B017A0279D690016759
:100EE80074F8F0A3E4F074FFA3F0A3F07D807C0015
:100EF8007FB07E00124FD0124F129002DDE0FEA3A9
:100F0800E0FFD39420EE9401402EEF9440EE94013C
:100F1800502690016374FFF0A37426F0A3749CF02C
:100F28009002DBE0FFA3E0900166CFF0A3EFF07B37
:100F3800FF7A3E79BD12432B9002DBE0FEA3E0FF6F
:100F4800C39428EE94004029D3EF9450EE940050B7
:100F580020A3E0FEA3E0FFC394B4EE94004012D3B4
:100F6800EF94C8EE9400500990015FE004F030A5BA
:100F7800FD9002DBE0FEA3E0FFC39496EE940050E0
:100F88000302104AD3EF94BEEE9400400302104AC5
:100F9800A3E0FEA3E0FFC394B4EE94005003021054
:100FA8004AD3EF94C8EE9400400302104A9002D648
:100FB800E024D0C454F0FFA3E024D04F900158F0AF
:100FC8009002D3E024D0C454F0FFA3E024D04F9083
:100FD8000159F09002D0E024D0C454F0FFA3E024DB
:100FE800D04F90015AF09002CDE024D0C454F0FFC5
:100FF800A3E024D04F90015BF09002CAE024D0C453
:1010080054F0FFA3E024D04F90015CF09002D9E0A7
:1010180024D090015DF09002C7E024D0C454F0FFC2
:10102800A3E024D04F90015EF07B017A0179581239
:101038004E437BFF7A43790A7D1D7C051254AC3000
:10104800A5FD9002DBE0FEA3E0FFC39464EE9400EC
:1010580050030211DAD3EF948CEE9400400302118E
:10106800DAA3E0FEA3E0FFC39469EE940050030204
:1010780011DAD3EF947DEE940040030211DA900167
:101088005FE014B4070040030211D79010A175F077
:1010980003A4C58325F0C583730210B60210DA02D3
:1010A800110C02113E02116B0211980211C8900234
:1010B800C8E004F0E0D3943940097430F09002C7D6
:1010C800E004F09002C7E0D3943950030211D7022C
:1010D80011C39002CBE004F0E0D3943240109002A8
:1010E800CAE0B43109A37431F09002CA14F0900236
:1010F800CBE0D3943950030211D79002CAE004F030
:10110800A30211C39002CEE004F0E0D39431401062
:101118009002CDE0B43309A37431F09002CD14F0FD
:101128009002CEE0D3943950030211D79002CDE05B
:1011380004F0A30211C39002D1E004F0E0D3943389
:10114800400F9002D0E0B43208A37430F09002D07F
:10115800F09002D1E0D3943940759002D0E004F0C9
:10116800A380589002D4E004F0E0D39439400F9063
:1011780002D3E0B43508A37430F09002D3F09002A3
:10118800D4E0D3943940489002D3E004F0A3802BF4
:101198009002D7E004F0E0D39439400F9002D6E0F3
:1011A800B43508A37430F09002D6F09002D7E0D39B
:1011B8009439401B9002D6E004F0A37430F0800FFD
:1011C8009002D9E004F0E0D3943740037431F03052
:1011D800A5FD9002DBE0FEA3E0FFC39464EE94005B
:1011E800500302139DD3EF948CEE94004003021336
:1011F8009DA3E0FEA3E0FFC39494EE940050030285
:10120800139DD3EF94A8EE9400400302139D900120
:101218005FE014B40700400302139A90123175F08E
:1012280003A4C58325F0C5837302124602127B020C
:1012380012B20212E802131E02135402138A900219
:10124800C8E0B4300F9002C7E0B43008A37439F096
:101258009002C7F09002C8E0B430129002C7E06470
:1012680030600AA3743AF09002C7E014F09002C804
:101278000213979002CBE0B431119002CAE0B43067
:101288000AA37433F09002CA7431F09002CBE0B430
:1012980030129002CAE06430600AA3743AF09002F7
:1012A800CAE014F09002CB0213979002CEE0B4315A
:1012B800109002CDE0B43009A37432F09002CD044E
:1012C800F09002CEE0B430129002CDE06430600AB3
:1012D800A3743AF09002CDE014F09002CE02139776
:1012E8009002D1E0B430119002D0E0B4300AA37477
:1012F80034F09002D07432F09002D1E0B430129001
:1013080002D0E06430600AA3743AF09002D0E0148E
:10131800F09002D180799002D4E0B430119002D3D9
:10132800E0B4300AA3743AF09002D37435F0900216
:10133800D4E0B430129002D3E06430600AA3743A67
:10134800F09002D3E014F09002D480439002D7E0EA
:10135800B430119002D6E0B4300AA3743AF0900287
:10136800D67435F09002D7E0B430129002D6E0641B
:1013780030600AA3743AF09002D6E014F09002D7D5
:10138800800D9002D9E0B431037438F09002D9E0AE
:1013980014F030A5FD90015FE0D394075003020DCF
:0713A8002B7401F0020D2B74
:104B67009001707401F0A37420F074FFA3F0A3F018
:104B77007BF07A007D207C01E4FFFE12334C7BFF43
:104B87007A43791B90016F7420F074FFA3F0A3F0B0
:104B97007411A3F0A3F07D207C017F147E00123DE9
:104BA700357BFF7A43791E90016F7420F0A374A2BE
:104BB700F0A37454F07411A3F0A3F07D207C017F5F
:104BC700687E00123D359001707401F0A37430F0D7
:104BD70074FFA3F0A3F07B837A007D307C017F6CA8
:104BE7007E0012334C9001707401F0A3743BF07493
:104BF700FFA3F0A3F07B787A007D257C017F787E88
:104C07000012334C9001707401F0A37440F074FFEC
:104C1700A3F0A3F07B507A007D207C017F507E00BB
:104C270012334C9001707401F0A37440F074FFA329
:104C3700F0A3F07BA07A007D207C017FA07E00128C
:104C4700334C7BFF7A43792190016F7420F074FF16
:104C5700A3F0A3F07411A3F0A3F07D207C017FBB28
:054C67007E00023D3556
:10432B00900160EBF0A3EAF0A3E9F0900166E0FEE8
:10433B00A3E0FFC39450EE64809480503AEF940056
:10434B00EE6480948040307BFF7A43791B90016F41
:10435B007420F074FFA3F0A3F0A3E4F0A3741FF098
:10436B007D207C017F147E00123D35900160A3E01F
:10437B00FAA3E0F912095A900166E0FEA3E0FFD31D
:10438B009450EE64809480500302442AEF94A0EE84
:10439B0064809480400302442A7BFF7A43791E9009
:1043AB00016F7420F0A374A2F0A37454F0A3E4F093
:1043BB00A3741FF07D207C017F687E00123D359039
:1043CB0001707401F0A37430F074FFA3F0A3F07BC1
:1043DB00837A007D307C017F6C7E0012334C900120
:1043EB00707401F0A3743BF074FFA3F0A3F07B781F
:1043FB007A007D257C017F787E0012334C90017012
:10440B007401F0A37440F074FFA3F0A3F07B507A17
:10441B00007D207C017F507E0012334C12269C9035
:10442B000166E0FEA3E0FFD394A0EE64809480408D
:10443B003AEF94F0EE6480948050307BFF7A4379AE
:10444B002190016F7420F074FFA3F0A3F0A3E4F0AC
:10445B00A3741FF07D207C017FBB7E00123D359045
:0C446B000163A3E0FAA3E0F912095A2251
:10495700E4900156F0A3F07F1D7E0512508690016A
:104967006BE4F0A37432F0A3E4F0A3741FF07B9818
:104977007A007D3C7C007F2D7E00124D639001669E
:10498700E4F0A3741EF0A374F8F0A3E4F07B84FAB8
:104997007D46FC7F37FE122AFE124B67900156E0D8
:1049A700FEA3E0FFF44E6004EF4E70557B017A01E1
:1049B700795812588C7BFF7A4279E190016F741015
:1049C700F0A374F8F0A3E4F07411A3F0A3F07D4E04
:1049D7007C007F387E00123D357B017A0179589043
:1049E700016774F8F0A3E4F074FFA3F0A3F07D4E21
:1049F7007C007F807E00124FD0900156E4F0A30424
:104A0700F0900157E004F07006900156E004F012B0
:104A17004F129002DDE0FEA3E0FFD39420EE940155
:104A270050030249A3EF9440EE940140030249A3C7
:104A370090016374FFF0A37426F0A3749CF09002B6
:104A4700DBE0FFA3E0900166CFF0A3EFF07BFF7AF6
:094A570026799C12432B0249A3AD
:1030960090015674F8F0A3E4F07F1D7E0512508669
:1030A60090016B7401F0A37420F074FFA3F0A3F0F9
:1030B6007BF07A00E4FDFCFFFE124D6390016BE4A9
:1030C600F0A37418F0A37405F0A3741DF07BF07AD6
:1030D600007D087C01E4FFFE124D6390016BE4F075
:1030E600A37418F074FFA3F0A3F07B187A007D0890
:1030F6007C01E4FFFE124D6390016BE4F0A37418AB
:10310600F0E4A3F0A3F07B18FA7D087C017F18FE9B
:10311600124D6390016BE4F0A37418F0A374C6F02B
:10312600A37418F0FB7A007D087C017F307E0012C4
:103136004D6390016BE4F0A37418F0A3E4F0A3745C
:103146001FF07B187A007D087C017F487E00124DB7
:103156006390016BE4F0A37418F0A374F8F0A3E491
:10316600F07B18FA7D087C017F60FE124D639001AA
:103176006BE4F0A37418F0A374F8F0A3741FF07B4B
:10318600187A007D087C017F787E00124D639001DD
:103196006BE4F0A37418F0A37407F0A374E0F07B5B
:1031A600187A007D087C017F907E00124D639001A5
:1031B6006BE4F0A37418F0A3747FF0A374FFF07BA4
:1031C600187A007D087C017FA87E00124D6390016D
:1031D6006BE4F0A37418F0A374FFF0A374E0F07B23
:1031E600187A007D087C017FC07E00124D63900135
:1031F6006BE4F0A37418F0A374B7F0A37423F07B08
:10320600187A007D087C017FD87E00124D63124B30
:1032160067124F129002DDE0FEA3E0FFD39400EEAA
:1032260094004021EF9408EE940150199002DBE0DF
:10323600FEA3E0FFA3E0FCA3E0FD900156E0FAA3A5
:10324600E0FB12542E9002DDE0FEA3E0FFD39420B3
:10325600EE9401402EEF9440EE94015026900163C7
:1032660074FFF0A37426F0A3749CF09002DBE0FFD9
:10327600A3E0900166CFF0A3EFF07BFF7A26799C5E
:1032860012432B9002DDE0FEA3E0FFD39408EE94F8
:10329600015003023217EF9420EE940140030232EC
:1032A600179002DBE0FEA3E0FF7C007D18120732D8
:1032B600EFB40A0040030232179032C6F82828738A
:1032C6000232E40232E80232F20232FF023305022F
:1032D600331102331E02332502333202333F74FFA9
:1032E6008001E4900156F0A3F00232179001567463
:1032F600C6F0A37418F0023217900156E4801190BC
:10330600015674F8F0A3E4F002321790015674F8EF
:10331600F0A3741FF00232179001567407801290C2
:103326000156747FF0A374FFF002321790015674B1
:10333600FFF0A374E0F002321790015674B7F0A3C1
:063346007423F0023217AF
:0600030025372E336600D4
:105BE800EF25E02405FFEFD3940040077E05DEFE95
:035BF8001F80F318
:015BFB002287
:105BFC00EFD39400400D00007E207D1CDDFEDEFC0A
:035C0C001F80ED09
:015C0F002272
:105A5100C209D2807F05125BE8C2807FC8125BE871
:105A61007FC8125BE8D2807F32125BE8A280920984
:075A71007F19125BE8A20996
:015A7800220B
:105B0E00E4FC7D08C280ECC313FCD28030800344D9
:0B5B1E0080FC7F19125BE8DDEBAF0498
:015B29002259
:025B2A00AD07C5
:105B2C007B08C280ED1392807F19125BE8D280ED66
:0A5B3C00C313FDDBED7F19025BE8E7
:10594200E4FBFFFEFDFC125A517FCC125B2A7F441E
:10595200125B2A7F0A125BFC125A517FCC125B2A1D
:105962007FBE125B2A125B0EAB07125B0EEF7F004B
:09597200FEEF2BFDE43EFEAF0543
:01597B002209
:0B588C0090015FEBF0A3EAF0A3E9F04D
:10589700125942AD07AC06E4120356E4FBFA7980CD
:1058A700783D12013E90016574FFF0A37400F0A3E8
:1058B7007403F0A31208AA90015FE0FBA3E0FAA328
:0558C700E0F902227E61
:0856CB00C1124302F30102DFEA
:105A9900538EF7759A50438E04200003759C9830F5
:0E5AA9000003759CF7438E10D2AF75AF01223B
:0B5C82008F9BE59A30E1FB539AFD2256
:105C1000E94A600EAF01125C82740129F9E43AFA94
:035C200080EE22F1
:030043000256174B
:10561700C0E0C0F0C083C082C0D075D000C000C059
:1056270001C002C00320120E9002F37401F0A374AC
:1056370002F0A374DFF0E59A30E02ED212539AFEFF
:105647009002F3E0FBA3E0FAA3E0F9E59B1206FE64
:105657009002F4E475F0011207879002F3E0FBA3D0
:10566700E0FAA3E0F9E41206FED003D002D001D09D
:0C56770000D0D0D082D083D0F0D0E03240
:10584B006465736B746F70000000FF269C7374614A
:10585B0072746368000000FF3803706963626F78CD
:10586B0000000000FF309674656D70657274000067
:10587B0000FF495763616C656E6461720000FF3E07
:01588B00BD5F
:0B55A200900150EBF0A3EAF0A3E9F049
:1055AD00900151E475F003120787E4900153F090D8
:1055BD000153E0FFC394055050EF75F00DA4244B3B
:1055CD00F9745835F0FA7BFFC003C002900150E02A
:1055DD00FBA3E0FAA3E0F8AC02AD03D002D00312B6
:1055ED000B0BEF701C900153E075F00DA42455F5D5
:1055FD0082E43458F583740193FA740293F9120915
:09560D005A900153E004F080A65C
:015616002271
:105C23001206B8B4410B9000011206D1B45402D34A
:035C330022C32267
:100046000203FBE86480F8E933E83360110460F0EA
:10005600ED33EC337009E8FCE9FDEAFEEBFF220420
:1000660060DED3EB9FEA9EE99DE8C2E78CF0C2F71B
:1000760095F0400CE8CCF8E9CDF9EACEFAEBCFFBE7
:100086001203C685D0F05804700320D5B3E8047077
:10009600075002B2D502040592D5EC0460F7E4CC11
:1000A600C0E0C398F8603B94186008400DD0E0FBB0
:1000B6000203DDE4FBFAC9FC8028E830E406E4C963
:1000C600FBE4CAFCE830E305E4C9CACBFCE8540704
:1000D6006010F8C3E913F9EA13FAEB13FBEC13FC0F
:1000E600D8F130F52FC3E49CFCEF9BFFEE9AFEEDB2
:1000F60099FDD0E0FBEF4E4D4C701222DB0302045B
:1001060002EC2CFCEF33FFEE33FEED33FDED30E772
:10011600EB0203DDEF2BFFEE3AFEED39FDD0E0FBFF
:1001260050130BBB0003020405ED13FDEE13FEEFA7
:0801360013FFEC13FC0203DDD2
:10013E00EC4D6011E8497017ED33EC3304600DE4BB
:10014E00FCFFFEFD22E933E8330470F80203FB12D4
:10015E0003C658046009E4CC2481500628500902D5
:10016E000405284003020402C0E0EB4A7044B98043
:10017E0006D0E0FB0203F1EF4E701CBD8008EBFFD2
:10018E00EAFEE9FD80EBE98DF0A4FEE5F002022720
:10019E00E9CDF9EAFEEBFFEF89F0A4FCE5F0CE899C
:1001AE00F0A42EFFE435F0CD89F0A42DFEE435F059
:1001BE008067EF4E7005BD80D780C3EF8BF0A4AC87
:1001CE00F0EE8BF0A42CFCE435F0F8EF8AF0A42CC2
:1001DE00E5F038FCE433CB8DF0A42CFCE5F03BF8D5
:1001EE00EE8AF0A42CFCE5F038F8E433CF89F0A4C5
:1001FE002CFCE5F038CF3400CE89F0A42FFFE5F0CB
:10020E003EFEE433C98DF0A42EFEE5F039CD8AF022
:10021E00A42FFFE5F03EFEE43DFD33D0E0FB50079A
:10022E000BBB000F020405EC2CFCEF33FFEE33FE8C
:06023E00ED33FD0203DDBB
:10024400020405EC5D046005E8590470030203FB35
:100254001203C6580460F6EC4860F2EC7004FDFE2C
:10026400FF22C860DB2481C85009C398600250068D
:100274000204029850CAF582E9294B4A7005AB8200
:100284000203F175F0007C1A7880C3EF9BEE9AEDBF
:1002940099400DC3EF9BFFEE9AFEED99FDE842F005
:1002A400DC23ACF0D0E0FFD0E0FED0E0FDAB822058
:1002B400E7101BEB60BAEC2CFCEF33FFEE33FEEDE2
:1002C40033FD0203DDE803F830E705C0F075F00004
:1002D400EF2FFFEE33FEED33FD40B830E7C280AAC6
:1002E40074F8CC6480CCC86480C8F582046043C3CD
:1002F400EB9FF5F0EA9E42F0E99D42F0E89C45F060
:1003040060305018E5825FFFE582F42B5582FB5084
:10031400210ABA001D09B90019088016E5825BFBA1
:10032400E582F42F5582FF50090EBE00050DBD0075
:10033400010CC3EB9FF5F0EA9E42F0E99D42F0E820
:0D0344009C45F06007CC4820E701B3EC2297
:1003510075F020800E75F010800575F0087D007E27
:10036100007F003392D530D50312084CEC33401096
:10037100EF33FFEE33FEED33FDEC33FCD5F0ED2230
:0E038100E5F0247EA2D513CC92E7CDCEFF226C
:10038F00EDD2E7CD33EC3392D524814006E4FFFE66
:10039F00FDFC22FCE4CFCECDCC24E0501174FF80C5
:1003AF00EDC3CC13CCCD13CDCE13CECF13CF047062
:0703BF00F030D5DE02084C0E
:10221900E50D2465F582E43401F583E0050D22908E
:102229000162301003900165E475F0011208E702BC
:1022390006B82009E97F2ED2098018EF540F24909F
:10224900D43440D4FF300D0BEF24BFB41A0050032F
:102259002461FFE50E6002150E0511E511700205F6
:102269001030100E900162E475F0011208E7EF02D8
:1022790006FE024A607403D2108003E4C210F50D11
:102289009001621208FEE4F50EF510F511E50E60F5
:10229900077F2012225C80F5750FFFC20AC209C2AE
:1022A9000BC20CC20EC20FC211122228FF700D30D0
:1022B90010057F0012226DAF11AE1022B4255FC246
:1022C900D5C20D122228FF24D0B40A00501A75F085
:1022D9000A780E30D50508B6FF0106C6A426F620F1
:1022E900D5047002D20C80D924CFB41A00EF50045F
:1022F900C2E5D20D02255FD20A80C6D20980C0D2BA
:102309000B80BCD2D580BAD20E80B47F2012225C59
:10231900200B077401B50E0040F1122219FF122299
:102329005C022296D211D20F8095122219FB122239
:1023390019FA122219F94A4B7006795D7A267BFF40
:10234900200B2EE50E602A7E008E82758300120610
:10235900D160060EEE650F70F0C2D5EBC0E0EAC0A1
:10236900E0E9C0E0EE1225C0D0E0F9D0E0FAD0E013
:10237900FB1206B8FF60AAEBC0E0EAC0E0E9C0E0E2
:1023890012225CD0E02401F9D0E03400FAD0E0FB5D
:10239900E50F0460DCD50FD98087D20B80A2122506
:1023A900A260F7E50F700104120410A90F600DE592
:1023B9000F600914F50F12264AEF60F3EA30E702BD
:1023C900F404C3995079EAF4250F0430E701E404D1
:1023D900F50F800D1225A260C1EA050F250F120421
:1023E90010EA900191F030E701E4250F04D50F04BC
:1023F900200E01141225C0E4C0E012264A90019172
:10240900E0601320E70714F0122244802204F0D080
:10241900E014C0E07F00122244E50F600712223B5E
:10242900150F800B300E0312223BD0E0022296D00A
:10243900E00480C41225A2609EE50F0412041090E6
:102449000191EAF0E50F200E02600104240412252F
:01245900C0C2
:10245A0074FF04C0E012264A122244E50F200E023D
:10246A00600312223BD0E0B50FE87F4512224E905E
:10247A000191E07F2B30E7047F2DF404C0E01222A3
:10248A005CD0E075F00A84C0F0122245D0E0122236
:10249A0045022296791080027908C20FC21180087B
:1024AA00D2D5790A8004790AC2D5E50F047002F5FB
:1024BA000FE4FAFDFEFF122219FC7B08200A131210
:1024CA002219FD7B1030090A122219FE122219FF65
:1024DA007B20EC3382D592D55013C3E43009069F92
:1024EA00FFE49EFEE4200A039DFDE49CFCE4CBF895
:1024FA00C20AEC700CCFCECDCCE824F8F870F38089
:10250A0017C3EF33FFEE33FEED33FDEC33FCEB3351
:10251A00FB994002FB0FD8E9EB300A05F8D0E0C47A
:10252A0048B20AC0E00AEC4D4E4F78207B0070C2D8
:10253A00EAB50F0040BCC0E01225C2D0F0D0E020BE
:10254A000A04C4C0E0C4B20AC0F0122245D0F0D5D1
:10255A00F0EB022296120907233353249E582304D0
:10256A004C23004224A24F24AA4424AA49231943F3
:10257A0024B05523DD46243D4523A747267D502315
:10258A00082D230C2E232F2B231023232D202666E0
:10259A002A22C84800002327E50FB4FF03750F0657
:1025AA00122219FC122219FD122219FE122219FFF7
:1025BA0090018A02044D790AA2D5200C14300E0922
:1025CA00B910020404B9080104A2D5200F0250016F
:1025DA0004200B68920BB50E005034C0E07F203007
:1025EA000C197F30A20B720F720E500F122619C2ED
:1025FA000BC20FC20EC2117F30800F300E03E9C02A
:10260A00E012225C300E03D0E0F9D0E0B50ECC30F7
:10261A000E177F30B9100C12225C7F58300D077FDD
:10262A00788003B9080312225C300B057F2D022241
:10263A005C7F202011F87F2B200FF322920B80CF92
:10264A007F00B40700500B248AF582E43401F58335
:10265A00E0FF22286E756C6C2900D20A122219300A
:10266A000AF8C20A780E30D50108F60222C82D509F
:10267A004349581222192403B405004001E4902664
:10268A00789312224D743A12224DD20C750E04021E
:02269A00249E7C
:105134000203FB22EDA2E7D2E7F9EC3340F260F37D
:10514400B4FF08ED547F70E8020405F82481C2E03E
:10515400C0E0F40428FAC313FCED92E7FD900021AB
:105164001208AAEEA2E7E9BA7F02C313340094003E
:10517400FA75F091A4E5F013F494FE8AF0A433E5F3
:10518400F033248CD313FDE492E7FE7F007C3F755B
:105194008302ECC0E0F8EDC0E0F9EEC0E0FAEFC045
:1051A400E0FB8583F090002112087E85F0831202D3
:1051B40047D0E0FBD0E0FAD0E0F9D0E0F812004D9F
:1051C400ED6480FD30E7011CD583C7ED33CC33F8A3
:0C51D400D0E0A2E71328C313CC13FD2287
:1003C600E9D2E7C933E833F892D5EDD2E7CD33EC7D
:0703D60033FC5002B2D522F6
:1003DD00EC30E7100FBF000C0EBE00080DBD000481
:1003ED000BEB6014A2D5EB13FCED92E7FD2274FF2D
:1003FD00FCFDFEFF22E480F8A2D574FF13FC7D8086
:03040D00E480EF99
:10041000F920E73624F950037907E4F42402FBE5D8
:1004200082158270021583DBF6E024FB501BE96025
:1004300014E4F0E582158270021583E004F0B40A3A
:0D04400008E4F0D9EE7401F00A22C2D522C2
:10044D00ED33EC3392D5FA602AB4FF33EDC2E77B7E
:10045D00FF60067A047972E4227A04797B20D50450
:10046D007A047976224E614E002B494E46002D4975
:10047D004E4600E47A08F0A3DAFC7B00740722C034
:10048D0083C082ECC0E0EDC0E0EEC0E0EFC0E0EA7A
:10049D0075F010A4CAABF075F04DA42BFBE435F04C
:1004AD00FCEA2410FAEB34C5FBEC34D9FCEDC2E7C1
:1004BD00FF75F056A4F42411C5F0F434C58FF0A4E3
:1004CD002AE5F03BE43CF020E714120582D0E0FF72
:1004DD00D0E0FED0E0FDD0E0FC1202478014F40421
:1004ED00120582D0E0FFD0E0FED0E0FDD0E0FC129E
:1004FD00013ED082D083E0FAEDD2E7CD33EC332448
:10050D0082FBE4C3CF33CFCE33CECD33CD33DBF34C
:10051D007B0775F00A846004F0A31B0AE5F0F0A3D5
:10052D008FF0740AA4FFACF08EF0740AA42CFEAC0C
:10053D00F050010C8DF0740AA42CFDE435F0F0A3FD
:05054D00DBDE74072253
:100552003F8000004120000042C80000447A0000B1
:10056200461C400047C35000497424004B18968033
:100572004CBEBC205A0E1BCA6753C21C749DC5AE2A
:10058200FB60065407601C23231205B0EB5438604D
:100592000912059C1205AB12013EECF8EDF9EEFAD8
:1005A200EFCB22EB1205AB80F1543803241C9005EB
:1005B20052FE93FC0EEE93FD0EEE930ECE93FF22AF
:1053AE00025AB7E493A3F8E493A34003F68001F204
:1053BE0008DFF48029E493A3F85407240CC8C33300
:1053CE00C4540F4420C8834004F456800146F6DFCF
:1053DE00E4800B0102040810204080905683E47E86
:1053EE00019360BCA3FF543F30E509541FFEE493C4
:1053FE00A360010ECF54C025E060A840B8E493A38B
:10540E00FAE493A3F8E493A3C8C582C8CAC583CAB5
:10541E00F0A3C8C582C8CAC583CADFE9DEE780BE6D
:0156D30000D6
:1005C200E709F608DFFA8046E709F208DFFA803E1B
:1005D20088828C83E709F0A3DFFA8032E309F60808
:1005E200DFFA8078E309F208DFFA807088828C8370
:1005F200E309F0A3DFFA806489828A83E0A3F60824
:10060200DFFA805889828A83E0A3F208DFFA804CFD
:1006120080D280FA80C680D4806980F280338010D4
:1006220080A680EA809A80A880DA80E280CA80333D
:1006320089828A83ECFAE493A3C8C582C8CCC583B5
:10064200CCF0A3C8C582C8CCC583CCDFE9DEE78085
:100652000D89828A83E493A3F608DFF9ECFAA9F004
:10066200EDFB2289828A83ECFAE0A3C8C582C8CC5A
:10067200C583CCF0A3C8C582C8CCC583CCDFEADE73
:10068200E880DB89828A83E493A3F208DFF980CCD5
:1006920088F0EF60010E4E60C388F0ED2402B404CE
:1006A2000050B9F582EB2402B4040050AF23234575
:0606B20082239006127382
:1006B800BB010689828A83E0225002E722BBFE0240
:0906C800E32289828A83E4932273
:1006D100BB010CE58229F582E5833AF583E02250DE
:1006E10006E92582F8E622BBFE06E92582F8E22228
:0D06F100E58229F582E5833AF583E4932242
:1006FE00BB010689828A83F0225002F722BBFE01DB
:02070E00F322D4
:10071000F8BB010DE58229F582E5833AF583E8F01F
:10072000225006E92582C8F622BBFE05E92582C8CB
:02073000F222B3
:10073200BC000BBE0029EF8DF084FFADF022E4CCAB
:10074200F875F008EF2FFFEE33FEEC33FCEE9DEC74
:10075200984005FCEE9DFE0FD5F0E9E4CEFD22EDBA
:10076200F8F5F0EE8420D21CFEADF075F008EF2F04
:10077200FFED33FD4007985006D5F0F222C398FDF5
:050782000FD5F0EA2292
:10078700C5F0F8A3E028F0C5F0F8E58215827002FD
:060797001583E038F0229A
:10079D00A3F8E0C5F025F0F0E5821582700215830F
:0607AD00E0C838F0E8226C
:1007B300BB010A89828A83E0F5F0A3E02250068711
:1007C300F009E71922BBFE07E3F5F009E3192289D3
:0B07D300828A83E493F5F07401932206
