:030000000257178D
:0C571700787FE4F6D8FD75812102575E12
:105EAC00123D17125E5C125F271260D21260F5C2AF
:105EBC0000125EEC120003123B32125DAF0226B0F0
:10568A00000000AA0001904C0000023A0001928634
:10569A000008C460000A56E600000474000A5B5A57
:1056AA00000BB08000160BDA000005F0001611CAD4
:1056BA00001A4D2000305EEA000001A400306C465A
:1056CA00002EC200005F2E46000017C00000000036
:1056DA0000000000000000000000000000000000C0
:1056EA0000000000000000000000000000000000B0
:1056FA0000000000000000000000000000000000A0
:0D570A000000000000000000000000000092
:055AF5004202EEEF1675
:105DDD00900294E0FCA3E0FDA3E0FEA3E0FF120817
:015DED006B4A
:105DEE00E4FEEF30E704D2828002C282C281EF2548
:095DFE00E0FFD2810EEEB408E9C9
:015E07002278
:10601800E4FFFDC281D281A283E433FEEF25E04E86
:06602800FF0DEDB408EDD0
:01602E00224F
:105C7C00E4900014F0A3F0C2A47F90125DEEE4FF58
:105C8C00125DEEE4FF125DEEE4FF125DEE126018A1
:105C9C00EFFE900014E04EF0A3E0F01260189000BC
:105CAC0014E0FEA3E04FFF900014EEF0FEA3EFF023
:025CBC00D2A470
:015CBE0022C3
:0A612900C2A47F04125DEED2A4228E
:0F599700900291EBF0A3EAF0A3E9F0A31208AAA3
:1059A600C2A7C2A47F03125DEE7810125DDD7808EF
:1059B600125DDD900294A3A3A3E0FF125DEEE490D6
:1059C600029AF0A3F0900298E0FEA3E0FFC39002D3
:1059D6009BE09F90029AE09E502D126018900291D3
:1059E600E0FBA3E0FAA3E0F990029AE0FCA3E0F55D
:1059F600828C83EF12071090029BE004F070C69031
:095A0600029AE004F080BED2A473
:015A0F002274
:105E5C00126129125C7C9002EEEEF0A3EFF0E47F6D
:105E6C00AAFEFDFC90568A12089AC312085A6003C7
:085E7C007F0122D2A47F002265
:0B38EF00900283EBF0A3EAF0A3E9F0E5
:1038FA001206B8FF90028AF0900283E0FBA3E475F7
:10390A00F001120787A9F0FA1206B890028BF0EFBD
:10391A00C394814011E0FF9440400BEFF46007909C
:10392A00028AE0B4FF3DE490028CF0900289E075CF
:10393A00F002A4FF90028CE0C39FE5F06480F87463
:10394A0080984003023B31900286E0FBA3E475F0C5
:10395A000112079DA9F0FAE41206FE90028CE00417
:10396A00F080C890028BE0C3947F5006E024C0F038
:10397A00800790028BE024BFF090028AE0247FF057
:10398A00900289E06420705FA3E0FF7E007C007DE6
:10399A00BE120960A804A905AA06AB07A3E0FFE4C2
:1039AA00FCFDFEEB2FFFEE3AFEED39FDEC38FCE4B0
:1039BA007B80FAF9F81207FD90028D1208AA905638
:1039CA00C612088A90028DE0F8A3E0F9A3E0FAA3F0
:1039DA00E02FFFEA3EFEE93DFDE83CFC900298E458
:1039EA00F0A37480023B22900289E06418705FA3FE
:1039FA00E0FF7E007C007DBE120960A804A905AA2A
:103A0A0006AB07A3E0FFE4FCFDFEEB2FFFEE3AFE58
:103A1A00ED39FDEC38FCE47B48FAF9F81207FD9021
:103A2A00028D1208AA9056B612088A90028DE0F802
:103A3A00A3E0F9A3E0FAA3E02FFFEA3EFEE93DFD89
:103A4A00E83CFC900298E4F0A37448023B229002FE
:103A5A0089E06410705EA3E0FF7E007C007DBE12E8
:103A6A000960A804A905AA06AB07A3E0FFE4FCFDC8
:103A7A00FEEB2FFFEE3AFEED39FDEC38FCE47B203D
:103A8A00FAF9F81207FD90028D1208AA9056A612AA
:103A9A00088A90028DE0F8A3E0F9A3E0FAA3E02FE8
:103AAA00FFEA3EFEE93DFDE83CFC900298E4F0A303
:103ABA0074208064900289E0640C706BA3E0FF7E3E
:103ACA00007C007DBE120960A804A905AA06AB07FE
:103ADA00A3E0FFE4FCFDFEEB2FFFEE3AFEED39FD1D
:103AEA00EC38FCE47B18FAF9F81207FD90028D1203
:103AFA0008AA90569612088A90028DE0F8A3E0F977
:103B0A00A3E0FAA3E02FFFEA3EFEE93DFDE83CFC14
:103B1A00900298E4F0A37418F0900286E0FBA3E008
:073B2A00FAA3E0F91259971C
:013B31002271
:10310F0090016DEEF0A3EFF0A3ECF0A3EDF0A3EBC5
:01311F00F0BF
:10312000787B7C017D017BFF7A5679D67E007F41DA
:1031300012069290016FE0FFA3E09001BCCFF0A3D4
:10314000EFF0900171E024E0FFE434FFFEE4FCFDC9
:103150009001C21208AA900172E0B420299001C225
:10316000E0FCA3E0FDA3E0FEA3E0FFE47B40FAF96E
:10317000F81207FD9001C21208AA90017A7440F07B
:103180009056CE023241900172E0B418299001C2EB
:10319000E0FCA3E0FDA3E0FEA3E0FFE47B24FAF95A
:1031A000F81207FD9001C21208AA90017A7424F067
:1031B0009056BE023241900172E0B410289001C2D4
:1031C000E0FCA3E0FDA3E0FEA3E0FFE47B10FAF93E
:1031D000F81207FD9001C21208AA90017A7410F04B
:1031E0009056AE805C900172E0B40C289001C2E071
:1031F000FCA3E0FDA3E0FEA3E0FFE47B0CFAF9F8FA
:103200001207FD9001C21208AA90017A740CF09086
:10321000569E802D900172E0B4082F9001C2E0FC10
:10322000A3E0FDA3E0FEA3E0FFE47B06FAF9F812B9
:1032300007FD9001C21208AA90017A7406F0905618
:103240008E12088A9001BE1208AA9001BEE0FCA36B
:10325000E0FDA3E0FEA3E0FFA3E0F8A3E0F9A3E014
:10326000FAA3E02FFFEA3EFEE93DFDE83CFC9001B9
:103270007AE0FB900298E4F0A3EBF07B017A01790D
:103280007B125997E4900179F090017AE0FF900168
:1032900079E0FEC39F40030233C4747B2EF582E4C1
:1032A0003401F583E0900177F0E4A3F0900178E039
:1032B000FFC3940840030233BB900172E0640870BE
:1032C00041900177E0FEA807088002C313D8FC30C4
:1032D000E0028044900175E0FEA3E0FF64117003FA
:1032E000EE6411606DEF64117003EE641160639021
:1032F000016DE0FEA3E0FFA3E0FCA3E0FD900175FB
:103300008027900178E0FF900177E0FEA807088011
:1033100002C333D8FC30E71890016DE0FEA3E0FF54
:10332000A3E0FCA3E0FD900173E0FAA3E0FB801FA3
:10333000900175E0FAA3E0FB64117003EA64116088
:103340001190016DE0FEA3E0FFA3E0FCA3E0FD12FD
:103350005B5E900170E004F0700690016FE004F095
:1033600090016FE0FEA3E0FFC39440EE940150543F
:103370009001BCE0FCA3E0FDC3EF9DFFEE9CFE903E
:103380000172E07A00B5072AEAB5062690016FECD3
:10339000F0A3EDF090016EE004F0700690016DE096
:1033A00004F0C390016EE094F090016DE094004051
:1033B0000A22900178E004F00232AC900179E00436
:0433C000F00232895C
:0133C40022E6
:0E43720090016DEEF0A3EFF0A3ECF0A3EDF0E0
:10438000900181ECF0A3EDF0900174E0FF640C600B
:1043900012EF6410600DEF64186008EF6420600392
:1043A0000244EA9002867401F0A37401F0A37483BE
:1043B000F0A3EFF01238EF900174E0FFB4200B90FF
:1043C000017FE4F0A37480F0801EEFB4180B90011D
:1043D0007FE4F0A37448F0800FEF75F002A4FF9023
:1043E000017FE5F0F0A3EFF0E490017BF0A3F09003
:1043F000017FE0FEA3E0FF90017BE0FCA3E0FDC3B2
:104400009FEC9E40030244EA74832DF582E434015C
:10441000F583E0FF900179E4F0A3EFF0E490017DF3
:10442000F0A3F090017AE030E71890016DE0FEA370
:10443000E0FFA3E0FCA3E0FD900175E0FAA3E0FB40
:10444000801F900177E0FAA3E0FB64117003EA6437
:1044500011601190016DE0FEA3E0FFA3E0FCA3E07A
:10446000FD125B5E90017AE025E0F0900179E03387
:10447000F0900170E004F0700690016FE004F0909D
:104480000181E0FEA3E0FFC3900170E09FFD900179
:104490006FE09EFC900174E07A00B5051CEAB5045B
:1044A0001890016FEEF0A3EFF090016EE004F07051
:1044B0002890016DE004F0802090017EE004F0700F
:1044C0000690017DE004F0C390017EE09408900125
:1044D0007DE09400500302442390017CE004F070DE
:0A44E0000690017BE004F00243EFB8
:0144EA0022AF
:10406400900160EEF0A3EFF0A3ECF0A3EDF0A3EB6E
:07407400F0A3EAF0A3E9F05C
:10407B00E490016CF0900164E0FBA3E0FAA3E0F99B
:10408B001206B8FF70030241EB90016CE060030273
:10409B00414BEFD3948040057401F080D8900162BE
:1040AB00E0FCA3E0FDD39440EC940140030241EB10
:1040BB001206B8FB900167E0900172F0900168E086
:1040CB00FFA3E0900173CFF0A3EFF090016AE0FF44
:1040DB00A3E0900175CFF0A3EFF0900160E0FEA399
:1040EB00E0FF12310F900165E475F0011207879024
:1040FB000167E0FFB40808900161E024068009EF36
:10410B00C313FF900161E02FF0900160E03400F0E9
:10411B00D3900161E094F0900160E09400500302B1
:10412B00408090016574FFF5F0120787900167E0FE
:10413B00FF900163E02FF0900162E034000241E058
:10414B00E490016CF0900162E0FCA3E0FDD394409D
:10415B00EC940140030241EB900164E0FBA3E0FA15
:10416B00A3E0F9A3E0900174F0900168E0FFA3E0F5
:10417B00900175CFF0A3EFF090016AE0FFA3E09000
:10418B000177CFF0A3EFF0900160E0FEA3E0FF1208
:10419B004372900165E475F002120787900167E0A6
:1041AB00FF7E00900161E02FF0900160E03EF0D3C4
:1041BB00A3E094F0900160E09400500302408090E3
:1041CB00016574FF75F0FE120787900163E02FF015
:1041DB00900162E03EF0E4900160F0A3F0024080B9
:0141EB0022B1
:101C3D000000000000000000000000000000000097
:101C4D000000000000001FCC000C00000000000090
:101C5D000000080030006000080030006000000047
:101C6D00022003FC1E20022003FC1E200220000087
:101C7D0000000E1811043FFF10840C7800000000C6
:101C8D000F0010840F3800C007781884007800000A
:101C9D0000780F8410C411240E9800E4008400080D
:101CAD000800680070000000000000000000000047
:101CBD0000000000000007E018182004400200009A
:101CCD00000040022004181807E00000000000008A
:101CDD000240024001800FF00180024002400000EE
:101CED000080008000800FF80080008000800000E0
:101CFD000001000D000E00000000000000000000BB
:101D0D000000008000800080008000800080008046
:101D1D000000000C000C000000000000000000009E
:101D2D000000000600180060018006001800200069
:101D3D00000007F0080810041004080807F0000060
:101D4D000000080408041FFC00040004000000004B
:101D5D0000000E0C10141024104411840E0C000001
:101D6D0000000C1810041104110412880C700000EE
:101D7D00000000E00320042408241FFC00240000C0
:101D8D0000001F98108411041104108810700000B9
:101D9D00000007F008881104110418880070000075
:101DAD0000001C00100010FC13001C0010000000AF
:101DBD0000000E3811441084108411440E380000B8
:101DCD0000000700088C10441044088807F000003C
:101DDD00000000000000030C030C000000000000D8
:101DED0000000000000101060000000000000000DE
:101DFD0000000080014002200410080810040000BB
:101E0D0002200220022002200220022002200000D7
:101E1D00000010040808041002200140008000009A
:101E2D0000000E001200100C106C10800F0000004E
:101E3D0003E00C1813E4142417C4082807D000007D
:101E4D000004003C03C41C40074000E4001C0004D7
:101E5D0010041FFC1104110411040E880070000001
:101E6D0003E00C1810041004100410081C100000DE
:101E7D0010041FFC100410041004080807F00000E3
:101E8D0010041FFC1104110417C4100408180000DD
:101E9D0010041FFC1104110017C0100008000000F1
:101EAD0003E00C181004100410441C7800400000CE
:101EBD0010041FFC10840080008010841FFC10048F
:101ECD000000100410041FFC10041004000000009A
:101EDD0000030001100110011FFE10001000000092
:101EED0010041FFC110403801464181C100400005E
:101EFD0010041FFC1004000400040004000C00007A
:101F0D0010041FFC1F0000FC1F001FFC100400002C
:101F1D0010041FFC0C04030000E010181FFC10003F
:101F2D0007F00808100410041004080807F000005A
:101F3D0010041FFC10841080108010800F00000012
:101F4D0007F0081810241024101C080A07F20000CE
:101F5D0010041FFC1104110011C011300E0C0004EF
:101F6D0000000E1C11041084108410441C38000055
:101F7D001800100010041FFC1004100018000000C1
:101F8D0010001FF810040004000410041FF81000C6
:101F9D0010001E0011E0001C007013801C001000CA
:101FAD001FC0103C00E01F0000E0103C1FC00000EF
:101FBD001004180C163401C001C01634180C10048E
:101FCD0010001C00130400FC13041C001000000082
:101FDD000804101C1064108413041C041018000055
:101FED000000000000007FFE4002400240020000A1
:101FFD00000030000C0003800060001C0003000096
:10200D0000004002400240027FFE00000000000080
:10201D0000000000200040004000400020000000B3
:10202D00000100010001000100010001000100019B
:10203D0000004000400020000000000000000000F3
:10204D0000000098012401440144014400FC0004F7
:10205D0010001FFC008801040104008800700000BE
:10206D0000000070008801040104010400880000D4
:10207D000000007000880104010411081FFC000419
:10208D00000000F8014401440144014400C800006F
:10209D000000010401040FFC1104110411001800CB
:1020AD00000000D601290129012901C901060000FE
:1020BD0010041FFC008401000100010400FC000459
:1020CD0000000104190419FC0004000400000000C4
:1020DD000000000300010101190119FE00000000BC
:1020ED0010041FFC0024004001B4010C0104000089
:1020FD000000100410041FFC000400040000000088
:10210D00010401FC0104010001FC0104010000FCBB
:10211D00010401FC008401000100010400FC000425
:10212D00000000F8010401040104010400F800009E
:10213D00010101FF00850104010400880070000009
:10214D0000000070008801040104010501FF000179
:10215D000104010401FC0084010401000180000060
:10216D00000000CC01240124012401240198000069
:10217D0000000100010007F8010401040000000047
:10218D00010001F8000400040004010801FC000432
:10219D00010001800170000C001001600180010040
:1021AD0001F0010C003001C00030010C01F0010004
:1021BD0000000104018C00740170018C0104000009
:1021CD00010101810171000E001801600180010003
:1021DD0000000184010C013401440184010C000054
:1021ED00000000000000000001003EFC4002400223
:1021FD000000000000000000FFFF000000000000D4
:10220D000000400240023EFC010000000000000002
:10221D000000600080008000400040002000200091
:0D610500C295C2948FB0C296D296D2942259
:0C5FE700E0FF7E00125FF3E0FEA3E0FF8D
:0D5FF300D295C2948FB0C296D296D294225D
:0760E4001260EB7D017F1942
:0A60EB00126105AE04AF05025FF379
:106045003ECF2401FDE43FFCE0FEA3E0FF125D46E8
:056055007F220261053D
:03614B00025FF3FD
:0B5D3B00E0FEA3E0FFA3E0FCA3E0FDFE
:105D4600AB05AA048F828E83E583FD7C007F021259
:105D560060EBAF82AD07FC7F031260EBEAFD7C00CF
:0F5D66007F061260EBAF03AD07FC7F070260EB17
:0B5E08007C007F1F1260EB7F057E0016
:105E1300E4FDFCC3ED9FEC9E5015E4FBFA0BBB00C5
:0F5E2300010ABA04F8BB75F50DBD00010C80E44F
:015E3200224D
:103D17007F327E00125E137D017C00E4FF1260EBB0
:103D27007F32FE125E139000477F64125E13E582B6
:103D3700644745836003023ECBFDFC7FEA1260EBDC
:103D47007D207FEB1260EB7D0C7FEC1260EB7DC476
:103D57007FED1260EB7D407FE81260EB7D387FE9F5
:103D67001260EB7D017FF11260EB7D107FF2126034
:103D7700EB7DA37F271260EBFD7F401260EB7F4155
:103D87001260EB0D7F421260EB7D127F431260EBF6
:103D97007D107F441260EB7D267F451260EB7D0826
:103DA7007F461260EB7D537F471260EB7D027F48B1
:103DB7001260EB7D157F491260EB7D197F4A126017
:103DC700EB7F4B1260EB7D167F4C1260EB7D197F0A
:103DD700501260EB7D2F7F511260EB7D2D7F5212C9
:103DE70060EB7D3E7F531260EB0D7F541260EB7FDB
:103DF700551260EB7D2C7F561260EB7D777F571253
:103E070060EB7D097F581260EB7D067F591260EBEE
:103E17007F5A1260EB7D0A7F5B1260EB7D1D7F5C32
:103E27001260EB7DCC7F5D1260EB7D1B7F1B126008
:103E3700EB7D017F1A1260EB7D2F7F241260EB7DF3
:103E4700577F251260EB7D977F231260EB7D367FCE
:103E5700181260E47D887F1F1260EB7F05FE125EFB
:103E6700137D80125E087D90125E087DD0125E0879
:103E77007D057C007F171260EBE4FD7F361260EB57
:103E87007D387F281260EB7F28FE125E137D3C7C15
:103E9700001260EBE4FD7F021260EB7F031260EB20
:103EA7007F041260EB7DEF7F051260EBFD7F06124A
:103EB70060EB7F071260EB0D7F081260EB7D3F7FA1
:0B3EC700091260E47F327E00025E13EF
:0853DE00900021EEF0A3EFF0B6
:1053E600A31208B600000000E4FDFCFFFE125D46B5
:1053F6001260559000231208B600000000E47F40BA
:105406007E01FDFC900023E0F8A3E0F9A3E0FAA3F7
:10541600E0FBC312085A506D9000271208B6000030
:105426000000E47FF0FEFDFC900027E0F8A3E0F921
:10543600A3E0FAA3E0FBC312085A502790002112FA
:105446005FE7900027E0FCA3E0FDA3E0FEA3E024D5
:1054560001FFE43EFEE43DFDE43CFC90002712081B
:10546600AA80BF900023E0FCA3E0FDA3E0FEA3E03A
:105476002401FFE43EFEE43DFDE43CFC90002312E3
:0554860008AA02540316
:01548B0022FE
:105B4800900027E0FEA3E0FFA3E0FCA3E0FD9000A7
:065B58002FE0FAA3E0FBC0
:105B5E00900285EAF0A3EBF0900283EEF0A3EFF053
:105B6E00C394F0EE94005021C3ED9440EC94015098
:105B7E001890028312604D900285E0FF7E00126144
:0A5B8E004BE0FEA3E0FF12614B2282
:10367B00900029ECF0A3EDF0900027EEF0A3EFF013
:08368B0090002BEAF0A3EBF024
:10369300D3EF9BEE9A402790002BE0FEA3E0FF9030
:1036A3000035EEF0A3EFF0900027E0FDA3E09000DB
:1036B3002BCDF0A3EDF0900027EEF0A3EFF09000F8
:1036C3002DE0FEA3E0FF900029E0FCA3E0FDD39FE3
:1036D300EC9E4018900035EEF0A3EFF090002DEC37
:1036E300F0A3EDF0900029EEF0A3EFF0900027E0B7
:1036F300FEA3E0FFC390002CE09FFF90002BE09E11
:10370300900031F0FAA3EFF0FB900029E0FEA3E074
:10371300FFC390002EE09FFF90002DE09E900033AA
:10372300F0A3EFF0EB4A7027125B4890002AE00405
:10373300F07006900029E004F0900029E0FEA3E079
:10374300FFC390002EE09F90002DE09E50DA229060
:103753000033E07002A3E07027125B48900028E07A
:1037630004F07006900027E004F0900027E0FEA329
:10377300E0FFC390002CE09F90002BE09E50DA22E4
:10378300900033E0FEA3E0FF900031E0FCA3E0FDF6
:10379300D39FEE6480F8EC648098500302383EEFC8
:1037A30025E0FFEE33FEC3EF9DFFEE9C900035F066
:1037B300A3EFF090002BE0FCA3E0FD900027E0FED8
:1037C300A3E0FF6D7002EE6C70030238EB125B50E6
:1037D300900028E004F07006900027E004F0D390F6
:1037E3000036E09400900035E0648094804030908F
:1037F300002AE004F07006900029E004F090003203
:10380300E025E0FD900031E033FC900034E025E05A
:10381300FF900033E033FEC3EF9DFFEE9C800C90DE
:103823000034E025E0FF900033E033FE900036E003
:103833002FF0900035E03EF00237B6900032E025DD
:10384300E0FF900031E033FE900033E0FCA3E0FDA5
:10385300C3EF9DFFEE9CA3F0A3EFF090002DE0FEDD
:10386300A3E0FF900029E0FCA3E0FD6F7002EC6E83
:103873006076900027E0FEA3E0FF125B5690002ADB
:10388300E004F07006900029E004F0D3900036E0E5
:103893009400900035E0648094804030900028E0EC
:1038A30004F07006900027E004F0900032E025E079
:1038B300FD900031E033FC900034E025E0FF900000
:1038C30033E033FEC3EF9DFFEE9C800C900034E0A9
:1038D30025E0FF900033E033FE900036E02FF090B8
:0B38E3000035E03EF002385E125B484A
:0138EE0022B7
:104DA900900049EEF0A3EFF090004DEBF090004B2E
:054DB900ECF0A3EDF099
:104DBE00900054ECF0A3EDF090004DE024E0F0E410
:104DCE00F990004DE075F010A4243DF582E5F03425
:104DDE001CF583E58229F582E43583F583E493900F
:104DEE000052F0E4A3F0900052E030E71890004932
:104DFE00E0FEA3E0FFA3E0FCA3E0FD90004EE0FA8E
:104E0E00A3E0FB801F900050E0FAA3E0FB6411705A
:104E1E0003EA64116011900049E0FEA3E0FFA3E0F5
:104E2E00FCA3E0FD125B5E900052E025E0F09000E6
:104E3E004CE004F0700690004BE004F0C390004A82
:104E4E00E094F0900049E094005056900054E0FE3B
:104E5E00A3E0FFC390004CE09FFD90004BE09EFC52
:104E6E00ED64104C7023EEF0A3EFF090004AE004D6
:104E7E00F07006900049E004F0C390004AE09440C0
:104E8E00900049E09401401022900053E004F0E0BD
:104E9E00C394085003024DF409E964106003024DF7
:014EAE00CF34
:014EAF0022E0
:10532800900017EEF0A3EFF0A3ECF0A3EDF0A3EBE1
:07533800F0A3EAF0A3E9F085
:10533F0090001BE0FBA3E475F00112079DA9F0FAA2
:10534F001206B8FB900019E0FCA3E0FD90001EE0F0
:10535F00FFA3E090004ECFF0A3EFF0900020E0FF0E
:10536F00A3E0900050CFF0A3EFF0900017E0FEA362
:10537F00E0FF124DA9C3900018E094E8900017E0E9
:10538F009400500AA3E02408F09000178020C390E7
:10539F00001AE09430900019E09401E49000175047
:1053AF0013F0A3F090001AE02410F0900019E034ED
:1053BF0000F08007F0A3F0A3F0A3F090001BE0FB38
:0E53CF00A3E0FAA3E0F91206B8600302533F10
:0153DD0022AD
:104A3300900002EEF0A3EFF0A3ECF0A3EDF0A3EAF5
:044A4300F0A3EBF001
:104A4700E490000EF0A3F09000141208B6000000E6
:104A570000900002125D3B126055C2A47F03125DF5
:104A6700EE90000AE0FCA3E0FDA3E0FEA3E0FF78E0
:104A77001012086B125DEE90000AE0FCA3E0FDA3A4
:104A8700E0FEA3E0FF780812086B125DEE90000AC3
:104A9700A3A3A3E0FF125DEE9000101208B600007A
:104AA7000000900008E0FEA3E0FFE4FCFD9000108A
:104AB700E0F8A3E0F9A3E0FAA3E0FBC312085A4029
:104AC70003024B6C9000141208B60000000090001F
:104AD70006E0FEA3E0FFE4FCFD900014E0F8A3E08D
:104AE700F9A3E0FAA3E0FBC312085A503C1260187E
:104AF70090000FEFF012601890000EEFF07E00129A
:104B07005FF3A3E0FF125FF3900014E0FCA3E0FD66
:104B1700A3E0FEA3E02401FFE43EFEE43DFDE43C08
:104B2700FC9000141208AA80A5900010A3A3E0FE31
:104B3700A3E0FF900005E02FFF900004E090000243
:104B4700126045900010E0FCA3E0FDA3E0FEA3E0A7
:104B57002401FFE43EFEE43DFDE43CFC900010121E
:074B670008AA024AA9D2A42A
:014B6E002224
:1050AC00900160EEF0A3EFF0A3ECF0A3EDF0A3EA17
:0450BC00F0A3EBF082
:1050C00090016E1208B600000000900160125D3B76
:1050D00012605590016A1208B60000000090016647
:1050E000E0FEA3E0FFE4FCFD90016AE0F8A3E0F934
:1050F000A3E0FAA3E0FBC312085A400302518B90CD
:10510000016E1208B600000000900164E0FEA3E00A
:10511000FFE4FCFD90016EE0F8A3E0F9A3E0FAA340
:10512000E0FBC312085A5027900168125FE7900114
:105130006EE0FCA3E0FDA3E0FEA3E02401FFE43E5B
:10514000FEE43DFDE43CFC90016E1208AA80BA909A
:10515000016AA3A3E0FEA3E0FF900163E02FFF90AC
:105160000162E090016012604590016AE0FCA3E0FA
:10517000FDA3E0FEA3E02401FFE43EFEE43DFDE4E8
:0B5180003CFC90016A1208AA0250DDFE
:01518B002201
:102E2D0090001BEAF0A3EBF0900017EEF0A3EFF08B
:102E3D00A3ECF0A3EDF0C006C007A3E0FEA3E0FFF6
:102E4D00900017E0FAA3E02FFBEA3EFAA3E0FFA300
:102E5D00E090002DCFF0A3EFF090001FE0FFA3E076
:102E6D0090002FCFF0A3EFF0D007D00612367B9055
:102E7D000018E02401FF900017E03400FEC006C0EA
:102E8D000790001AE02401FD900019E03400FC9039
:102E9D00001BE0FEA3E0FF900017E0FAA3E02FFF78
:102EAD00EA3ECF24FFFBEF34FFFAA3E0FEA3E024BC
:102EBD0001FFE43E90002DF0A3EFF090001FE0FF26
:102ECD00A3E090002FCFF0A3EFF0D007D00612367D
:102EDD007B900017E0FAA3E0FBFFAE02C006C0072F
:102EED00A3E0FCA3E0FD90001DE0FEA3E0FF900039
:102EFD0019E0F8A3E02FFFE83E90002DF0A3EFF0CE
:102F0D0090001FE0FFA3E090002FCFF0A3EFF0D0D3
:102F1D0007D00612367B900018E02401FB900017B5
:102F2D00E03400FAAF03FEC006C00790001AE0249B
:102F3D0001FD900019E03400FC90001DE0FEA3E0BF
:102F4D00FF900019E0F8A3E02FFFE83ECF24FFCF5C
:102F5D0034FF90002DF0A3EFF090001FE0FFA3E0F1
:102F6D0090002FCFF0A3EFF0D007D00612367B9054
:102F7D00001DE0FEA3E0FF90001AE02FFD90001968
:102F8D00E03EFC90001BE0FEA3E0FF900017E0FA8E
:102F9D00A3E02FFBEA3EFA90001DE0FEA3E0FF90B8
:102FAD000019E0F8A3E02FFFE83E90002DF0A3EF0D
:102FBD00F090001FE0FFA3E090002FCFF0A3EFF003
:102FCD00900017E0FEA3E0FF12367B900018E0247E
:102FDD0001FF900017E03400FEC006C00790001DF1
:102FED00E0FEA3E0FF90001AE02FFF900019E03EF5
:102FFD00CF24FFFDEF34FFFC90001BE0FEA3E0FFAC
:10300D00900017E0FAA3E02FFFEA3ECF24FFFBEF7D
:10301D0034FFFA90001DE0FEA3E0FF900019E0F8E8
:10302D00A3E02FFFE83ECF24FFCF34FF90002DF01B
:10303D00A3EFF090001FE0FFA3E090002FCFF0A3CF
:10304D00EFF0D007D00612367B90001BE0FEA3E018
:10305D00FF900018E02FFB900017E03EFAAF03FE43
:10306D00C006C007900019E0FCA3E0FD90001DE034
:10307D00FEA3E0FF900019E0F8A3E02FFFE83E90DB
:10308D00002DF0A3EFF090001FE0FFA3E090002FC4
:10309D00CFF0A3EFF0D007D00612367B90001BE0E7
:1030AD00FEA3E0FF900018E02FFF900017E03ECF49
:1030BD0024FFFBEF34FFFAAF03FEC006C0079000FC
:1030CD001AE02401FD900019E03400FC90001DE091
:1030DD00FEA3E0FF900019E0F8A3E02FFFE83ECF3C
:1030ED0024FFCF34FF90002DF0A3EFF090001FE0F0
:1030FD00FFA3E090002FCFF0A3EFF0D007D0060292
:02310D00367B0F
:105AFA005F029CFF5F27FF4FB5FF13C30000000042
:105B0A00000000000000000000000000000000008B
:0A5B1A0000004102BBD04102BC9024
:105F0A00EF7803C333CE33CED8F9FFE4FDFCC3EDFB
:0C5F1A009FEC9E50070DBD00010C80F2B2
:015F26002258
:105FCD00E4FEEF30E704D2828002C282EF25E0FFCB
:095FDD00C281D2810EEEB408E984
:015FE6002298
:105BE700E4FDFBFAC281C282C2A6125FCD7F067EA8
:105BF70000125F0AC2817F017E00125F0AD281C252
:105C070081E4FDEB25E0FBEA33FAC281D2813083E0
:105C1700050BBB00010A0DEDB410E8EAC4F854F017
:0D5C2700C868FAEBC4540F48D2A6AE02FFC5
:015C3400224D
:023ED200A9073E
:103ED400E490003FF0A3F0900033F0A3F0AF0112A0
:103EE4005BE7AC06AD07900034E025E0FF900033BB
:103EF400E033FE74352FF58274003EF583ECF0A3B5
:103F0400EDF0900034E004F07006900033E004F02B
:103F1400C3900034E09405900033E0940040BEE484
:103F2400900033F0A3F0900033E0FEA3E0FFC394CD
:103F340004EE94004003023FFEEF2401FFE43EAD93
:103F440007FCC3ED9405EC94004003023FEAED2521
:103F5400E0FFEC33FE74352FF58274003EF583E008
:103F6400FAA3E0FB900034E025E0FF900033E03357
:103F7400FE74352FF58274003EF583E0FEA3E0FF66
:103F8400D39BEE9A4058900041EEF0A3EFF0ED255C
:103F9400E0FFEC33FE74352FF58274003EF583E0C8
:103FA400FAA3E0FB900034E025E0FF900033E03317
:103FB400FE74352FF58274003EF583EAF0A3EBF02E
:103FC400900041E0FAA3E0FBED25E0FFEC33FE7442
:103FD400352FF58274003EF583EAF0A3EBF00DBDB6
:103FE40000010C023F46900034E004F06003023FFD
:103FF4002A900033E004F0023F2AE490003FF0A34B
:10400400F0900033F0A304F0900033E0FEA3E0FF4F
:10401400C39404EE94005032EF25E0FFEE33FE74B7
:10402400352FF58274003EF583E0FEA3E0FF900097
:1040340040E02FF090003FE03EF0900034E004F0C8
:1040440070C6900033E004F080BE90003FE0FEA311
:0F405400E0FF7C007D03120732A3EEF0A3EFF034
:01406300223A
:0B5B980090002BEBF0A3EAF0A3E9F073
:105BA3009002BBE0FF123ED2900031EEF0A3EFF083
:105BB3009002BCE0FF123ED2900031E0F9A3E0FD79
:105BC30090002BE0FBA3E0FAA3E0C98DF01207DEFF
:105BD30090002EE0FBA3E0FAA3E0F9EE8FF01207AA
:035BE300DE7F0161
:015BE600229C
:1047AD009000207401F0A37402F0A374ABF07B01B0
:0447BD007A0279A95A
:0B47C10090001DEBF0A3EAF0A3E9F06C
:1047CC0090002E7401F0A37400F0A37425F07B010B
:1047DC007A007923125B98EF7002FF2290002E74FE
:1047EC0001F0A37400F0A37429F07B017A007927FF
:1047FC00125B98EF7002FF22900023E0FEA3E0FF13
:10480C00900027E0FCA3E0FDD39FEC9E500EED241E
:10481C0032FDE43CFCC3EF9DEE9C402A900027E067
:10482C00FEA3E0FF900023E0FCA3E0FDD39FEC9EF1
:10483C0040030248EFED2432FDE43CFCC3EF9DEE57
:10484C009C40030248EF900025E0FEA3E0FF90009F
:10485C0029E0FCA3E0FDD39FEC9E500EED2432FD2D
:10486C00E43CFCC3EF9DEE9C4024900029E0FEA3A9
:10487C00E0FF900025E0FCA3E0FDD39FEC9E50638D
:10488C00ED2432FDE43CFCC3EF9DEE9C50559000B2
:10489C0027E0FEA3E0FF900024E02FFF900023E030
:1048AC003EC313F9EF13FF90001DE0FBA3E0FAA346
:1048BC00E0C98FF01207DE900029E0FEA3E0FF9024
:1048CC000026E02FFF900025E03EC313F9EF13FF05
:1048DC00900020E0FBA3E0FAA3E0C98FF01207DE02
:0548EC007F01227F00A6
:0148F10022A4
:1048F200E4900010F07D047C0174FFFBFA7F047EDB
:0149020001B3
:10490300900021EEF0A3EFF0900025EAF0A3EBF086
:10491300900023ECF0A3EDF0900021E0FAA3E0FB7C
:1049230024F4FFEA34FFFEC007EB240DFBE43AFA5C
:10493300A3E0FFA3E090002DCFF0A3EFF0900025BC
:10494300E0FFA3E090002FCFF0A3EFF0D0071236E3
:104953007B900021E0FAA3E0FBFFAE02C006C00794
:10496300900024E024F4FD900023E034FFFCE0FEFB
:10497300A3E0240DFFE43E90002DF0A3EFF09000A0
:1049830025E0FFA3E090002FCFF0A3EFF0D007D0F6
:104993000612367B900022E02401FF900021E034D0
:1049A30000FE900024E02401FD900023E03400FC8D
:1049B300900025E0FAA3E0FB125B5E900022E02466
:1049C300FFFF900021E034FFFE900024E02401FD6E
:1049D300900023E03400FC900025E0FAA3E0FB12F2
:1049E3005B5E900022E02401FF900021E03400FE92
:1049F300900024E024FFFD900023E034FFFC9000AE
:104A030025E0FAA3E0FB125B5E900022E024FFFFA7
:104A1300900021E034FFFE900024E024FFFD90008D
:104A230023E034FFFC900025E0FAA3E0FB025B5E89
:1058220090000FEEF0A3EFF0A3ECF0A3EDF0A3EAEB
:10583200F0A3EBF0125B5E900010E02401FF9000F9
:105842000FE03400FE900011E0FCA3E0FDA3E0FABB
:10585200A3E0FB125B5E90000FE0FEA3E0FF90006E
:1058620012E02401FD900011E03400FC900013E0EE
:10587200FAA3E0FB125B5E900010E02401FF9000AF
:105882000FE03400FE900012E02401FD900011E0D0
:0E5892003400FC900013E0FAA3E0FB025B5E22
:104FB50030A503025083EF60061247AD0250591227
:104FC50047ADEF70030250599002A9E0FCA3E0FD44
:104FD500E41203569002AEE0F8A3E0F9A3E0FAA3C9
:104FE500E0FB12013EC004C005C006C0079002B632
:104FF500E0FCA3E0FDEC120356D003D002D001D0B3
:105005000012004D12038F9002A9EEF0A3EFF0A35A
:10501500E0FCA3E0FDE41203569002B2E0F8A3E041
:10502500F9A3E0FAA3E0FB12013EC004C005C006E7
:10503500C0079002B8E0FCA3E0FDEC120356D003D4
:10504500D002D001D00012004D12038F9002ABEEBA
:10505500F0A3EFF09002ADE020E74474C0F09002B9
:10506500A9E0FFA3E09002A5CFF0A3EFF09002AB7B
:10507500E0FFA3E09002A7CFF0A3EFF0802190021C
:10508500ADE030E705547FF08015E49002A5F0A36C
:10509500F0A3F0A3F074FFA3F0A3F0A3F0A3F090A6
:0750A50002ADE05480FF2280
:1013C300E4900010F0F074FFFFFE1253DE7B007A0E
:1013D300F87D3C7C007F3C7E00124903E49002AD23
:1013E300F0A31208B60000000090029FA3E0FAA346
:1013F300E0F5828A837F0112095E9002ADE0FF541B
:10140300C0FEBE40E4EF54BFF09002A9E0FEA3E0AB
:10141300FF900010E0FD25E025E02400F582E43490
:1014230000F583EEF0A3EFF09002ABE0FEA3E0FF44
:10143300ED25E025E02402F582E43400F583EEF0A7
:10144300A3EFF0900010E004F0E024FE60231460AA
:101453003214604D2403709174FFFBFA7D3C7C00D1
:101463007F3C7E001249037B007AF87D3C7C008040
:10147300297D3C7C001248FB7B007AF87D047C01CB
:101483000216AC74FFFBFA7D047C017F3C7E0012E4
:1014930049037B007AF87D047C017F047E01021AF4
:1014A300A6900004E0FEA3E0FFC3900001E09FFFCD
:1014B300900000E09EFE126112EE3395E0FDFC9079
:1014C30000151208AA900006E0FEA3E0FFC39000F7
:1014D30003E09FFF900002E09EFE126112EE33953F
:1014E300E0FDFC9000191208AA900015E0FCA3E0AF
:1014F300FDA3E0FEA3E0FFA804A905AA06FB1207CB
:10150300FD9000151208AA900019E0FCA3E0FDA3CA
:10151300E0FEA3E0FFA804A905AA06FB1207FD90BD
:1015230000191208AA900019E0FCA3E0FDA3E0FE55
:10153300A3E0FF900015E0F8A3E0F9A3E0FAA3E02D
:101543002FFFEA3EFEE93DFDE83CFCE412035112A5
:10155300549012038F900011EEF0A3EFF090000C63
:10156300E0FEA3E0FFC3900009E09FFF900008E0C6
:101573009EFE126112EE3395E0FDFC9000151208F9
:10158300AA90000EE0FEA3E0FFC390000BE09FFFD4
:1015930090000AE09EFE126112EE3395E0FDFC908E
:1015A30000191208AA900015E0FCA3E0FDA3E0FED9
:1015B300A3E0FFA804A905AA06FB1207FD900015E6
:1015C3001208AA900019E0FCA3E0FDA3E0FEA3E04B
:1015D300FFA804A905AA06FB1207FD90001912082B
:1015E300AA900019E0FCA3E0FDA3E0FEA3E0FF90B6
:1015F3000015E0F8A3E0F9A3E0FAA3E02FFFEA3E29
:10160300FEE93DFDE83CFCE4120351125490120341
:101613008F900013EEF0A3EFF0900011E0FCA3E035
:10162300FDE4120356C004C005C006C007900013B2
:10163300E0FCA3E0FDE4120356A804A905AA06AB47
:1016430007D007D006D005D00412024790001D1220
:1016530008AA7F337E337D737C3F90001DE0F8A39F
:10166300E0F9A3E0FAA3E0FB1202E440317F667ED7
:10167300667D867C3F90001DE0F8A3E0F9A3E0FAC5
:10168300A3E0FB1202E460025014900011E0700228
:10169300A3E0600A900013E07002A3E07012124806
:1016A300F27B007AF87D3C7C007F3C7E00021AA628
:1016B300900008E0FEA3E0FFC3900001E09FFF90CD
:1016C3000000E09EFE126112EE3395E0FDFC9000F7
:1016D300151208AA90000AE0FEA3E0FFC3900003DE
:1016E300E09FFF900002E09EFE126112EE3395E050
:1016F300FDFC9000191208AA900015E0FCA3E0FD80
:10170300A3E0FEA3E0FFA804A905AA06FB1207FDB8
:101713009000151208AA900019E0FCA3E0FDA3E0D5
:10172300FEA3E0FFA804A905AA06FB1207FD90008B
:10173300191208AA900019E0FCA3E0FDA3E0FEA3A0
:10174300E0FF900015E0F8A3E0F9A3E0FAA3E02F8F
:10175300FFEA3EFEE93DFDE83CFCE412035112546E
:101763009012038F900011EEF0A3EFF090000CE0C5
:10177300FEA3E0FFC3900005E09FFF900004E09EFE
:10178300FE126112EE3395E0FDFC9000151208AADB
:1017930090000EE0FEA3E0FFC3900007E09FFF90E0
:1017A3000006E09EFE126112EE3395E0FDFC900010
:1017B300191208AA900015E0FCA3E0FDA3E0FEA324
:1017C300E0FFA804A905AA06FB1207FD9000151265
:1017D30008AA900019E0FCA3E0FDA3E0FEA3E0FF4C
:1017E300A804A905AA06FB1207FD9000191208AA6E
:1017F300900019E0FCA3E0FDA3E0FEA3E0FF90004E
:1018030015E0F8A3E0F9A3E0FAA3E02FFFEA3EFE18
:10181300E93DFDE83CFCE412035112549012038F9E
:10182300900013EEF0A3EFF0900011E0FCA3E0FDB5
:10183300E4120356C004C005C006C007900013E0BD
:10184300FCA3E0FDE4120356A804A905AA06AB070E
:10185300D007D006D005D00412024790001D12080D
:10186300AA7F337E337D737C3F90001DE0F8A3E0B5
:10187300F9A3E0FAA3E0FB1202E4401D7F667E6653
:101883007D867C3F90001DE0F8A3E0F9A3E0FAA376
:10189300E0FB1202E4601440121248F27B007AF873
:1018A3007D3C7C007F3C7E00021AA6900008E0FE8F
:1018B300A3E0FFC3900005E09FFF900004E09EFEBD
:1018C300126112EE3395E0FDFC9000151208AA9008
:1018D300000AE0FEA3E0FFC3900007E09FFF900033
:1018E30006E09EFE126112EE3395E0FDFC900019B6
:1018F3001208AA900015E0FCA3E0FDA3E0FEA3E01C
:10190300FFA804A905AA06FB1207FD9000151208FB
:10191300AA900019E0FCA3E0FDA3E0FEA3E0FFA86A
:1019230004A905AA06FB1207FD9000191208AA9044
:101933000019E0FCA3E0FDA3E0FEA3E0FF90001587
:10194300E0F8A3E0F9A3E0FAA3E02FFFEA3EFEE903
:101953003DFDE83CFCE412035112549012038F90B6
:101963000011EEF0A3EFF090000CE0FEA3E0FFC344
:10197300900001E09FFF900000E09EFE126112EED6
:101983003395E0FDFC9000151208AA90000EE0FECE
:10199300A3E0FFC3900003E09FFF900002E09EFEE0
:1019A300126112EE3395E0FDFC9000191208AA9023
:1019B3000015E0FCA3E0FDA3E0FEA3E0FFA804A95B
:1019C30005AA06FB1207FD9000151208AA9000193C
:1019D300E0FCA3E0FDA3E0FEA3E0FFA804A905AAA1
:1019E30006FB1207FD9000191208AA900019E0FCEB
:1019F300A3E0FDA3E0FEA3E0FF900015E0F8A3E061
:101A0300F9A3E0FAA3E02FFFEA3EFEE93DFDE83C3F
:101A1300FCE412035112549012038F900013EEF062
:101A2300A3EFF0900011E0FCA3E0FDE4120356C025
:101A330004C005C006C007900013E0FCA3E0FDE46A
:101A4300120356A804A905AA06AB07D007D006D0EF
:101A530005D00412024790001D1208AA7F337E337B
:101A63007D737C3F90001DE0F8A3E0F9A3E0FAA3A7
:101A7300E0FB1202E4401D7F667E667D867C3F901C
:101A8300001DE0F8A3E0F9A3E0FAA3E0FB1202E4EF
:101A9300601740151248F27B007AF87D3C7C007F8A
:101AA3003C7E001249030213EC900000E0FEA3E029
:101AB300FFC3900005E09FFD900004E09EFCE4124C
:101AC3000356A804A905AA06AB07E4FFFE7D487CDC
:101AD300431202479002AE1208AA900000E0FEA350
:101AE300E0FF900005E02FFD900004E03EFCE412CF
:101AF30003569002AEE0F8A3E0F9A3E0FAA3E0FBFB
:101B030012013EA804A905AA06AB07E4FFFE7DA0C7
:101B13007C43120049E4FBFAF978401202471203AE
:101B23008F9002B6EEF0A3EFF0900002E0FEA3E088
:101B3300FFC390000BE09FFD90000AE09EFCE412BF
:101B43000356A804A905AA06AB07E4FFFE7D487C5B
:101B5300431202479002B21208AA900002E0FEA3C9
:101B6300E0FF90000BE02FFD90000AE03EFCE41242
:101B730003569002B2E0F8A3E0F9A3E0FAA3E0FB76
:101B830012013EA804A905AA06AB07E4FFFE7DA047
:101B93007C43120049E4FBFAF9784012024712032E
:101BA3008F9002B8EEF0A3EFF09002AEE0FCA3E05A
:101BB300FDA3E0FEA3E0FF12038F126112D3EF94A3
:101BC30002EE64809480501F9002B2E0FCA3E0FD1B
:101BD300A3E0FEA3E0FF12038F126112D3EF94027E
:101BE300EE64809480403D1248F27B007AF87D3C9D
:101BF3007C007F3C7E001249039002BAE070047FB0
:101C03000180027F009002BAEFF0600BA37490F0A2
:101C1300A374D0F00213EC9002BB74D0F0A37490C1
:101C2300F00213EC74FFFFFE1253DE7FE87E031213
:091C33005ECC74FFFFFE1253DECB
:011C3C002285
:10000E009002BB7490F0A374D0F09002B674FFF01F
:10001E00A374F4F09002AE1208B63DF973DA9002B2
:10002E00B87401F0A3744AF09002B21208B6BDAAD9
:03003E00F35E224C
:105F270090002E7401F0A37402F0A374ABF07B0110
:0D5F37007A0279A9125B9812000E7F0122F8
:0F60000013928312600FEBC313FB12600FD28158
:08600F007F207E1DDEFEDFFC98
:016017002266
:0B4B6F00900017EBF0A3EAF0A3E9F0C0
:104B7A007B017A00791A1255E2900017E0FBA3E054
:104B8A00FAA3E0F974321206FE900017E0FBA3E0E4
:104B9A00FAA3E0F99000017430120710900020E0A7
:104BAA00FFC4540F2430900002120710EF540F2450
:104BBA0030900003120710900004742F120710900F
:104BCA00001EE0FFC4540F2430900005120710EFB6
:104BDA00540F2430900006120710900007742F1209
:104BEA00071090001DE0FFC4540F243090000812F3
:104BFA000710EF540F243090000912071090000A92
:104C0A00742F12071090001CE0FFC4540F24309038
:104C1A00000B120710EF540F243090000C120710EB
:104C2A0090000D743A12071090001BE0FFC4540F55
:104C3A00243090000E120710EF540F243090000F0A
:104C4A00120710900010743A12071090001AE0FF31
:104C5A00C4540F2430900011120710EF540F24305F
:104C6A00900012120710900013742F120710900070
:104C7A001FE0540F2430900014120710900015E41E
:034C8A000207100E
:0D602F00F9EF12071012603CE4FF125C351F
:08603C007F027E3BDEFEDFFC6B
:016044002239
:025CFF00AB07F1
:105D0100C2A712600FC28112600FD2A712600F7A70
:105D110008C28112600FA903E9126000DAF37A0860
:105D2100C28112600FA905E913928312600FEDC3BE
:095D310013FD12600ADAE9C2A7B1
:015D3A002246
:025C3500AB07BB
:105C3700C2A712600FC28112600FD2A712600F7A3B
:105C470008C28112600FEB126000DAF57A08D28180
:105C570012600FEDC313FD12600FC28112600F3087
:105C670083054480FD8004ED547FFDDAE1C2A7126D
:045C7700600FAF0506
:015C7B002206
:10518C00900017EBF0A3EAF0A3E9F0E4FD7F8E1298
:10519C005CFF12603C900017E0FBA3E0FAA3E0F97F
:1051AC001206B8FD7F80125CFF12603C900017E085
:1051BC00FBA3E0FAA3E0F99000011206D1FD7F8277
:1051CC00125CFF12603C900017E0FBA3E0FAA3E036
:1051DC00F99000021206D1FD7F84125CFF12603C34
:1051EC00900017E0FBA3E0FAA3E0F990000312068D
:1051FC00D1FD7F86125CFF12603C900017E0FBA390
:10520C00E0FAA3E0F99000041206D1FD7F88125C4D
:10521C00FF12603C900017E0FBA3E0FAA3E0F990CA
:10522C0000051206D1FD7F8A125CFF12603C9000D3
:10523C0017E0FBA3E0FAA3E0F99000061206D1FDFB
:0F524C007F8C125CFF12603C7D807F8E025CFFC6
:1055E200900021EBF0A3EAF0A3E9F01260377F8D7F
:1055F200125C35900021E0FBA3E0FAA3E0900006E4
:1056020012602F7F8B125C35900021E0FBA3E0FA41
:10561200A3E090000512602F7F89125C3590002173
:10562200E0FBA3E0FAA3E0F9900004EF12071012E6
:1056320060377F87125C35900021E0FBA3E0FAA37C
:10564200E0F99000031260307F85125C35900021F2
:10565200E0FBA3E0FAA3E0F99000021260307F833E
:10566200125C35900021E0FBA3E0FAA3E0F9900080
:10567200011260307F81125C35900021E0FBA3E0D3
:08568200FAA3E0F9EF0206FEB5
:1060D200C2A7C281E4FD7F8E125CFF7D807F8E02AB
:0260E2005CFF61
:03000B00025A1086
:105A1000C0E0C0F0C083C082C0D075D000C000C05C
:105A200001C002C003C004C005C006C007758AAB30
:105A3000758C2FD2A69002F2E0C3945F402AE4F066
:105A4000300A25C20A7B017A0279D71260BF50045E
:105A5000D209800D7B017A0279D774FFFDFC1258C0
:105A6000A09002D7E4F0A3F09002F2E004F0D00797
:105A7000D006D005D004D003D002D001D000D0D0C1
:095A8000D082D083D0F0D0E032D6
:1060F500438901758AAB758C2FD2A9D2AFC28C2288
:1044EB00C8D5C0FA00CEC2B6C800B5E7BBB000CF86
:1044FB00E0B2E100D3B2BCFEBCECB2E200BBADB0AB
:10450B00E500B4AEBFDAD6FACAD600535049D6FA94
:10451B00CAD6004C454400B5E7BBB0B9A6C4DCCE47
:10452B00B4BFAAB7C5A3A100CFE0B2E1B9A6C4DC62
:10453B00CEB4BFAAB7C5A3A100B4AEBFDAD6FACA30
:10454B00D6CEB4BFAAB7C5A3A100535049D6FACA59
:10455B00D6CEB4BFAAB7C5004861726477617265E5
:10456B0020436865636B2052756E6E696E67002A17
:10457B002A2A2A2A2A2A466C6173682043686563B3
:10458B006B2A2A2A2A2A2A2A005732355138300018
:10459B00573235513136005732355133320057329D
:1045AB003551363400466C617368204572726F72F8
:1045BB00002A2A2A2ACAB1D6D3BCECB2E22A2A2A6A
:1045CB002A00B6C1C8A1CAB1BCE4D6D02E2E2E008B
:1045DB002A2A2A2ACEC2B6C8BCECB2E22A2A2A2A36
:1045EB0000B6C1C8A1CEC2B6C8D6D02E2E2E00B5ED
:1045FB00B1C7B0CEC2B6C8A3BA00D6DC00C9E8B604
:10460B00A8CFB5CDB3CAB1BCE400A1F800A88B000C
:10461B004E657874004F6B00D2D1C9E8B6A8CFB500
:10462B00CDB3CAB1BCE4A3A100A1FB00A1F600A1CC
:10463B00FE004C4544BFD8D6C6004C454431004C17
:10464B00454432004C45443300B9D800BFAA0000A2
:06465B0000000000000059
:105B24005602BD000000000000000000000000005C
:0B5B3400000000000000000000C1099C
:1026B000E4900000F0A3F0C28C74FFFFFE1253DE22
:1026C000900008E4F0A37443F0A31208B600600C75
:1026D000A07B917A007D147C007F0A7E00124A3331
:1026E0007BFF7A4479EB9001677410F074FFA3F0DC
:1026F000A3F07411A3F0A3F07D477C007F0A7E0055
:10270000124064900008E4F0A37443F0A31208B6EA
:10271000006058867B467A007D147C007FA07E0096
:10272000124A337BFF7A4479F09001677410F07499
:10273000FFA3F0A3F07411A3F0A3F07D477C007F0A
:10274000A07E00124064900008E4F0A37444F0A35B
:102750001208B600607D2A7B467A007D5D7C007F92
:102760000A7E00124A337BFF7A4479F59001677440
:1027700010F074FFA3F0A3F07411A3F0A3F07D9107
:102780007C007F0A7E00124064900008E4F0A3748D
:1027900044F0A31208B60060A25A7B467A007D5D21
:1027A0007C007F557E00124A337BFF7A4479FA9091
:1027B00001677410F074FFA3F0A3F07411A3F0A3E9
:1027C000F07D917C007F557E00124064900008E40B
:1027D000F0A37444F0A31208B60060C78A7B467A5F
:1027E000007D5D7C007FA07E00124A337BFF7A442F
:1027F00079FF9001677410F074FFA3F0A3F07411D7
:10280000A3F0A3F07D917C007FA07E001240649035
:102810000008E4F0A37444F0A31208B60060ECBA18
:102820007B467A007DA67C007F0A7E00124A337BBD
:10283000FF7A4579089001677410F074FFA3F0A344
:10284000F07411A3F0A3F07DDA7C007F0A7E001201
:102850004064900008E4F0A37444F0A31208B600AA
:102860006111EA7B917A007DA67C007F557E001283
:102870004A337BFF7A45790D9001677410F074FF3D
:10288000A3F0A3F07411A3F0A3F07DDA7C007F55D0
:102890007E00124064900008E4F0A37441F0A3129B
:1028A00008B600615EF27B917A007DEF7C007F0AC2
:1028B0007E00124A337BFF7A4579169001677410C7
:1028C000F074FFA3F0A3F07411A3F0A3F07D207CBB
:1028D000017F0A7E00124064900008E4F0A3744176
:1028E000F0A31208B60061A8947B467A007DEF7CC5
:1028F000007FA07E00124A337BFF7A45791E90014B
:10290000677410F074FFA3F0A3F07411A3F0A3F0A8
:102910007D207C017FA07E00124064125E33D28C49
:10292000E49002D3F0A3F0A3F0A3F0900000E0B491
:102930000B0FA3E0B4FF0A125E33E4900000F0A393
:10294000F0900001E004F07006900000E004F01246
:10295000525B9002D3E0FEA3E0FFC3940AEE940022
:102960004011D3EF9450EE940050089002D3E4F05D
:10297000A304F09002D3E0FEA3E0FFC39455EE94CD
:10298000004012D3EF949BEE940050099002D3E4E0
:10299000F0A37402F09002D3E0FEA3E0FFC394A082
:1029A000EE94004012D3EF94DCEE940050099002B4
:1029B000D3E4F0A37403F09002D5E0FEA3E0FFC3DC
:1029C000941EEE94004011D3EF9458EE94005008FA
:1029D0009002D5E4F0A304F09002D5E0FEA3E0FF5E
:1029E000C3945DEE94004012D3EF94A1EE94005096
:1029F000099002D5E4F0A37402F09002D5E0FEA3A2
:102A0000E0FFC394A6EE94004012D3EF94EAEE9454
:102A10000050099002D5E4F0A37403F09002D5E0D1
:102A2000FEA3E0FFC394EFEE94004012D3EF943383
:102A3000EE940150099002D5E4F0A37404F09002E2
:102A4000D5E0FEA3E0FFEE6003022920EF24FE6044
:102A50003B14606B147003022AF224036003022902
:102A6000209002D3E0FEA3E0FFEE6003022920EFF6
:102A700024FE600C14600F240260030229208000F1
:102A80001241EC022920124C8D0229209002D3E041
:102A9000FEA3E0FFEE6003022920EF24FE60121483
:102AA0006017240260030229207BFF7A4579228087
:102AB0006C7BFF7A4579338064123B320226B790F3
:102AC00002D3E0FEA3E0FFEE6003022920EF24FE24
:102AD0006010146015240260030229201233C5021D
:102AE00029207BFF7A45794480337BFF7A457944FE
:102AF000802B9002D3E0FEA3E0FFEE6003022920CA
:102B0000EF24FE601214601F240260030229207B60
:102B1000FF7A45795580067BFF7A45795574FFFD2C
:0D2B2000FC1258A0022920122B2D022920A2
:105DAF0074FFFFFE1253DE900008E4F0A374AEF010
:105DBF00A31208B6005F4E507B8C7A007D497C00A1
:0E5DCF007F3C7E00124A337FFF7E0F025ECCC7
:103B3200E4FFFE1253DE7BFF7A45796390001E7428
:103B420007F0A374E0F0E4A3F0A3F0FDFCFFFE1283
:103B520053287BFF7A45797A90001E7407F0A3748C
:103B6200E0F0E4A3F0A3F07D10FCFFFE1253281254
:103B72005C7CEF8EF012092D3B8EEF133B96EF1417
:103B82003B9EEF153BA6EF1600003BCB7BFF7A4531
:103B9200799480167BFF7A45799B800E7BFF7A456C
:103BA20079A280067BFF7A4579A99001677410F0AB
:103BB200A374F8F0A3E4F074FFA3F0A3F07D207CDB
:103BC20000E4FFFE12406480267BFF7A4579B090C4
:103BD200001E74F8F0A3E4F074FFA3F0A3F07D20BC
:103BE2007C00E4FFFE1253287FFF7E0F125ECC7F23
:103BF200FF7E00125ECC7BFF7A4579BC9001677430
:103C020010F0A37407F0A374E0F0E4A3F0A3F07D36
:103C120030FCFFFE1240647BFF7A4579CD9001674C
:103C22007410F0A374F8F0A3E4F074FFA3F0A3F00F
:103C32007D407C00E4FFFE1240647B017A0279BD84
:103C4200124B6F7B017A0279BD9001677410F0A369
:103C520074F8F0A3E4F074FFA3F0A3F07D507C00AD
:103C6200E4FFFE1240647FFF7E00125ECC7BFF7A8F
:103C72004579DB9001677410F0A37407F0A374E038
:103C8200F0E4A3F0A3F07D60FCFFFE1240647BFF32
:103C92007A4579EC9001677410F0A374F8F0A3E40C
:103CA200F074FFA3F0A3F07D707C00E4FFFE1240ED
:103CB200647B017A00790D125CBF7FFF7E07125E82
:103CC200CC7B017A00790D125CBF7BFF7A4579FAD1
:103CD2009001677410F0A37407F0A374E0F07411FC
:103CE200A3F0A3F07D807C00E4FFFE1240647B0120
:103CF2007A00790D90001E74F8F0A3E4F074FFA32B
:103D0200F0A3F07D807C007F507E001253287FFF5D
:053D12007E0F025ECCF3
:1058A00090015BEBF0A3EAF0A3E9F0A3ECF0A3ED29
:0158B000F007
:1058B10090015BE0FBA3E0FAA3E0F99001677410AB
:1058C100F0A374F8F0A3E4F090015EE0FFA3E09090
:1058D100016ACFF0A3EFF0E4FDFCFFFE1240647F0C
:1058E100FF7E07125ECC90015BE0FBA3E0FAA3E030
:1058F100F912606FEF75F008A4FB7A00900166E47D
:10590100F0A37410F090015EE0FFA3E0900168CF76
:0C591100F0A3EFF0E4FDFCFFFE0250AC40
:10525B009000067401F0A37402F0A374D5F07B01E7
:04526B007A0279D377
:10526F00900003EBF0A3EAF0A3E9F0A3E0F9A3E0C9
:10527F00FAA3E0900020C9F0A3EAF0A3E9F09000B0
:10528F0003E0FBA3E0FAA3E0F91247C1900003E0AB
:10529F00FBA3E0FAA3E0F91207B3FDACF0E41203AD
:1052AF00567BE17A7A797078411202477B9A7A9924
:1052BF00796D78C112004D12038F900003E0FBA3AC
:1052CF00E0FAA3E0F9EE8FF01207DE900006E0FBA4
:1052DF00A3E0FAA3E0F91207B3FDACF0E412035612
:1052EF007BC37AF5792C78411202477BF67A2879BD
:1052FF008C78C112004D12038F900006E0FBA3E0E3
:10530F00FAA3E0F9EE8FF01207DE30090BC2097B2A
:09531F00017A0279D71257A3228A
:10553800900017EBF0A3EAF0A3E9F0A3E0F9A3E0E9
:10554800FAA3E0900020C9F0A3EAF0A3E9F09000E4
:1055580017E0FBA3E0FAA3E0F91247C1900017E0B7
:10556800FBA3E0FAA3E0F91207B3FDACF0E41203E1
:10557800567BE17A7A797078411202477B9A7A9958
:10558800796D78C112004D12038F900017E0FBA3CC
:10559800E0FAA3E0F9EE8FF01207DE90001AE0FBC4
:1055A800A3E0FAA3E0F91207B3FDACF0E412035646
:1055B8007BC37AF5792C78411202477BF67A2879F1
:1055C8008C78C112004D12038F90001AE0FBA3E003
:0A55D800FAA3E0F9EE8FF00207DEFF
:105ECC00E4FDFCC3ED9FEC9E5015E4FBFA0BBB000C
:0F5EDC00010ABA03F8BBE8F50DBD00010C80E424
:015EEB002294
:105E33007B017A0279BD124B6FE49002CDF07B01B6
:105E43007A0279C890001EF0A3F074FFA3F0A3F0C8
:095E5300E4FDFC7FC8FE025328A7
:1041EC00E490000DF0A3F07B017A0279BD124B6FC5
:1041FC00E49002C4F07F1D7E051253DE900166E44C
:10420C00F0A37414F0A374FFF0A374E0F07B787A3D
:10421C00007D3C7C007F3C7E001250AC900166E43B
:10422C00F0A37468F074FFA3F0A3F07B787A007DA0
:10423C00507C007F3C7E001250AC7B017A0279BD31
:10424C0090001E74F8F0A3E4F07411A3F0A3F07DB9
:10425C003D7C007F3D7E001253287BFF7A4679051A
:10426C009001677410F0A374F8F0A3E4F07411A338
:10427C00F0A3F07D3D7C007F967E001240647B01B4
:10428C007A0279D190001E74F8F0A3E4F07411A3B3
:10429C00F0A3F07D3D7C007FA67E00125328E490B5
:1042AC0002C7F07B017A0279C59001677420F0A3F4
:1042BC0074F8F0A3E4F07411A3F0A3F07D6E7C000D
:1042CC007F697E00124064124EB090000DE0FEA398
:1042DC00E0FFF47003EE640B6004EF4E70367B016C
:1042EC007A0279BD124B6FE49002CDF07B017A0219
:1042FC0079C890001E74F8F0A3E4F074FFA3F0A347
:10430C00F07D967C007F647E0012532890000DE4B3
:10431C00F0A304F090000EE004F0700690000DE0A5
:10432C0004F012525B9002D5E0FEA3E0FFD3942080
:10433C00EE94014095EF9440EE9401508D90001A4C
:10434C0074FFF0A3740BF0A37428F09002D3E0FF79
:10435C00A3E090001DCFF0A3EFF07BFF7A2679B09D
:06436C001246610242D678
:100B2800780F7C007D017BFF7A46795A7E007F072B
:100B38001206929000167401F0FB7A0279BD124BEE
:100B48006F7F1D7E051253DE7BFF7A467908900180
:100B5800677420F074FFA3F0A3F07411A3F0A3F05E
:100B68007D147C007F187E001240647B017A027934
:100B7800BD90001E74F8F0A3E4F074FFA3F0A3F096
:100B88007D807C007F287E00125328900166E4F067
:100B9800A37414F0A374C6F0A37418F07B287A0029
:100BA8007D697C007F647E001250AC7BFF7A4679B9
:100BB800159001677410F0E4A3F0A3F07411A3F08A
:100BC800A3F07D6C7C007F737E0012406490001D52
:100BD800E4F0A37414F0A3E4F0A3741FF07B287A64
:100BE800007D697C007F647E00122E2D900166E4F2
:100BF800F0A37414F0A374C6F0A37418F07B287AD9
:100C0800007D947C007F647E001250AC7BFF7A46A6
:100C180079189001677410F0E4A3F0A3F07411A39D
:100C2800F0A3F07D997C007F737E001240649000F1
:100C38001DE4F0A37414F0A3E4F0A3741FF07B2860
:100C48007A007D947C007F647E00122E2D900166D0
:100C5800E4F0A37414F0A374C6F0A37418F07B280E
:100C68007A007DB47C007F287E001250AC7BFF7A2E
:100C780046791BE490001EF0A3F07411A3F0A3F0D2
:100C88007DB67C007F2A7E0012532890001DE4F078
:100C9800A37414F0A3E4F0A3741FF07B287A007DFA
:100CA800B47C007F287E00122E2D900166E4F0A30C
:100CB8007414F0A374C6F0A37418F07B287A007D2E
:100CC800B47C007FAA7E001250AC7BFF7A46792064
:100CD800E490001EF0A3F07411A3F0A3F07DB67C9D
:100CE800007FB97E0012532890001DE4F0A374140D
:100CF800F0A3E4F0A3741FF07B287A007DB47C0095
:100D08007FAA7E00122E2D124EB0E49002D0F090F1
:100D180002CDF09002CAF09002C7F09002C4F090A1
:100D280002C1F0900016E014B407004003020EFF61
:100D3800900D4675F003A4C58325F0C58373020D95
:100D48005B020D97020DD3020E0F020E4B020E86A8
:100D5800020EC17B017A0279BD90001E7407F0A3D0
:100D680074E0F0E4A3F0A3F07D80FC7F28FE12532A
:100D7800287B017A0279D190001E74F8F0A3E4F080
:100D880074FFA3F0A3F07D807C007FC8020EFA7B7D
:100D9800017A0279C290001E7407F0A374E0F0E4AF
:100DA800A3F0A3F07D80FC7F50FE1253287B017ACC
:100DB8000279BD90001E74F8F0A3E4F074FFA3F06C
:100DC800A3F07D807C007F28020EFA7B017A0279ED
:100DD800C590001E7407F0A374E0F0E4A3F0A3F03C
:100DE8007D80FC7F68FE1253287B017A0279C290CD
:100DF800001E74F8F0A3E4F074FFA3F0A3F07D8064
:100E08007C007F50020EFA7B017A0279C890001E9E
:100E18007407F0A374E0F0E4A3F0A3F07D80FC7FF6
:100E280080FE1253287B017A0279C590001E74F85F
:100E3800F0A3E4F074FFA3F0A3F07D807C007F684A
:100E4800020EFA7B017A0279CB90001E7407F0A398
:100E580074E0F0E4A3F0A3F07D80FC7F98FE1253C9
:100E6800287B017A0279C890001E74F8F0A3E4F098
:100E780074FFA3F0A3F07D807C007F8080747B01E9
:100E88007A0279CE90001E7407F0A374E0F0E4A310
:100E9800F0A3F07D80FC7FB0FE1253287B017A021C
:100EA80079CB90001E74F8F0A3E4F074FFA3F0A3CC
:100EB800F07D807C007F9880397B017A0279D1901F
:100EC800001E7407F0A374E0F0E4A3F0A3F07D80A3
:100ED800FC7FC8FE1253287B017A0279CE90001E4F
:100EE80074F8F0A3E4F074FFA3F0A3F07D807C0015
:100EF8007FB07E0012532890001A7401F0A3740288
:100F0800F0A374D5F07B017A0279D3125538900298
:100F1800D5E0FEA3E0FFD39420EE9401402EEF9499
:100F280040EE9401502690001A74FFF0A37426F046
:100F3800A374B0F09002D3E0FFA3E090001DCFF0BF
:100F4800A3EFF07BFF7A4179EC1246619002D3E07F
:100F5800FEA3E0FFC39428EE94004029D3EF9450F9
:100F6800EE94005020A3E0FEA3E0FFC394B4EE94F7
:100F7800004012D3EF94C8EE94005009900016E098
:100F880004F030A5FD9002D3E0FEA3E0FFC39496E1
:100F9800EE9400500302105ED3EF94BEEE9400402E
:100FA8000302105EA3E0FEA3E0FFC394B4EE940036
:100FB800500302105ED3EF94C8EE94004003021071
:100FC8005E9002CEE024D0C454F0FFA3E024D04FBA
:100FD80090000FF09002CBE024D0C454F0FFA3E0BF
:100FE80024D04F900010F09002C8E024D0C454F0F0
:100FF800FFA3E024D04F900011F09002C5E024D068
:10100800C454F0FFA3E024D04F900012F09002C225
:10101800E024D0C454F0FFA3E024D04F900013F094
:101028009002D1E024D0900014F09002BFE024D0C8
:10103800C454F0FFA3E024D04F900015F07B017A50
:1010480000790F12518C7BFF7A4679237D1D7C0530
:101058001258A030A5FD9002D3E0FEA3E0FFC39490
:1010680064EE940050030211EED3EF948CEE9400DA
:1010780040030211EEA3E0FEA3E0FFC39469EE94DF
:101088000050030211EED3EF947DEE94004003026A
:1010980011EE900016E014B4070040030211EB9023
:1010A80010B575F003A4C58325F0C583730210CA73
:1010B8000210EE02112002115202117F0211AC023D
:1010C80011DC9002C0E004F0E0D394394009743098
:1010D800F09002BFE004F09002BFE0D394395003CF
:1010E8000211EB0211D79002C3E004F0E0D394326E
:1010F80040109002C2E0B43109A37431F09002C2EA
:1011080014F09002C3E0D3943950030211EB90021B
:10111800C2E004F0A30211D79002C6E004F0E0D3C5
:10112800943140109002C5E0B43309A37431F090B3
:1011380002C514F09002C6E0D3943950030211EBB3
:101148009002C5E004F0A30211D79002C9E004F0B0
:10115800E0D39433400F9002C8E0B43208A374304F
:10116800F09002C8F09002C9E0D39439407590021B
:10117800C8E004F0A380589002CCE004F0E0D394D7
:1011880039400F9002CBE0B43508A37430F09002D8
:10119800CBF09002CCE0D3943940489002CBE004E5
:1011A800F0A3802B9002CFE004F0E0D39439400FF5
:1011B8009002CEE0B43508A37430F09002CEF090DF
:1011C80002CFE0D39439401B9002CEE004F0A37420
:1011D80030F0800F9002D1E004F0E0D39437400360
:1011E8007431F030A5FD9002D3E0FEA3E0FFC39474
:1011F80064EE940050030213B1D3EF948CEE940084
:1012080040030213B1A3E0FEA3E0FFC39494EE945D
:101218000050030213B1D3EF94A8EE9400400302E8
:1012280013B1900016E014B4070040030213AE9007
:10123800124575F003A4C58325F0C5837302125ABD
:1012480002128F0212C60212FC0213320213680243
:10125800139E9002C0E0B4300F9002BFE0B4300893
:10126800A37439F09002BFF09002C0E0B43012903D
:1012780002BFE06430600AA3743AF09002BFE01441
:10128800F09002C00213AB9002C3E0B43111900297
:10129800C2E0B4300AA37433F09002C27431F09003
:1012A80002C3E0B430129002C2E06430600AA37452
:1012B8003AF09002C2E014F09002C30213AB90021D
:1012C800C6E0B431109002C5E0B43009A37432F01E
:1012D8009002C504F09002C6E0B430129002C5E056
:1012E8006430600AA3743AF09002C5E014F09002EA
:1012F800C60213AB9002C9E0B430119002C8E0B442
:10130800300AA37434F09002C87432F09002C9E035
:10131800B430129002C8E06430600AA3743AF090C6
:1013280002C8E014F09002C980799002CCE0B43091
:10133800119002CBE0B4300AA3743AF09002CB7457
:1013480035F09002CCE0B430129002CBE06430600B
:101358000AA3743AF09002CBE014F09002CC8043D8
:101368009002CFE0B430119002CEE0B4300AA374FA
:101378003AF09002CE7435F09002CFE0B43012907B
:1013880002CEE06430600AA3743AF09002CEE01412
:10139800F09002CF800D9002D1E0B431037438F0A0
:1013A8009002D1E014F030A5FD900016E0D3940728
:0B13B8005003020D2B7401F0020D2BFE
:104EB00090002D7401F0A37420F074FFA3F0A3F010
:104EC0007BF07A007D207C01E4FFFE12367B7BFFC5
:104ED0007A4679349001677420F074FFA3F0A3F050
:104EE0007411A3F0A3F07D207C017F147E0012409A
:104EF000647BFF7A4679379001677420F0A374A22F
:104F0000F0A37454F07411A3F0A3F07D207C017F12
:104F1000687E0012406490002D7401F0A37430F09C
:104F200074FFA3F0A3F07B837A007D307C017F6C5B
:104F30007E0012367B90002D7401F0A3743BF07458
:104F4000FFA3F0A3F07B787A007D257C017F787E3B
:104F50000012367B90002D7401F0A37440F074FFB2
:104F6000A3F0A3F07B507A007D207C017F507E006F
:104F700012367B90002D7401F0A37440F074FFA3EF
:104F8000F0A3F07BA07A007D207C017FA07E001240
:104F9000367B7BFF7A46793A9001677420F074FF84
:104FA000A3F0A3F07411A3F0A3F07D207C017FBBDC
:054FB0007E00024064D8
:10466100900017EBF0A3EAF0A3E9F090001DE0FE43
:10467100A3E0FFC39450EE64809480503AEF94001D
:10468100EE6480948040307BFF7A467934900167F4
:104691007420F074FFA3F0A3F0A3E4F0A3741FF05F
:1046A1007D207C017F147E00124064900017A3E0FE
:1046B100FAA3E0F912095A90001DE0FEA3E0FFD32E
:1046C1009450EE648094805003024760EF94A0EE12
:1046D1006480948040030247607BFF7A467937907B
:1046E10001677420F0A374A2F0A37454F0A3E4F062
:1046F100A3741FF07D207C017F687E0012406490CE
:10470100002D7401F0A37430F074FFA3F0A3F07BCB
:10471100837A007D307C017F6C7E0012367B9000B5
:104721002D7401F0A3743BF074FFA3F0A3F07B7828
:104731007A007D257C017F787E0012367B90002DEA
:104741007401F0A37440F074FFA3F0A3F07B507ADE
:10475100007D207C017F507E0012367B1226B090B6
:10476100001DE0FEA3E0FFD394A0EE64809480409E
:104771003AEF94F0EE6480948050307BFF7A467972
:104781003A9001677420F074FFA3F0A3F0A3E4F062
:10479100A3741FF07D207C017FBB7E0012406490DA
:0C47A100001AA3E0FAA3E0F912095A2262
:104C8D00E490000DF0A3F07F1D7E051253DE900120
:104C9D0066E4F0A37432F0A3E4F0A3741FF07B98E4
:104CAD007A007D3C7C007F2D7E001250AC90001D63
:104CBD00E4F0A3741EF0A374F8F0A3E4F07B84FA7F
:104CCD007D46FC7F37FE122E2D124EB090000DE06A
:104CDD00FEA3E0FFF44E6004EF4E70557B017A00A9
:104CED00790F125CBF7BFF7A4579FA9001677410DA
:104CFD00F0A374F8F0A3E4F07411A3F0A3F07D4ECB
:104D0D007C007F387E001240647B017A00790F9021
:104D1D00001E74F8F0A3E4F074FFA3F0A3F07D4E31
:104D2D007C007F807E0012532890000DE4F0A304D8
:104D3D00F090000EE004F0700690000DE004F0D34A
:104D4D0090000EE094FF90000DE094004004E4F01C
:104D5D00A3F012525B9002D5E0FEA3E0FFD39420A6
:104D6D00EE94015003024CD9EF9440EE94014003B0
:104D7D00024CD990001A74FFF0A37426F0A374B0FE
:104D8D00F09002D3E0FFA3E090001DCFF0A3EFF071
:0C4D9D007BFF7A2679B0124661024CD9E7
:1033C50090000D74F8F0A3E4F07F1D7E051253DE26
:1033D5009001667401F0A37420F074FFA3F0A3F0CC
:1033E5007BF07A00E4FDFCFFFE1250AC900166E430
:1033F500F0A37418F0A37405F0A3741DF07BF07AA4
:10340500007D087C01E4FFFE1250AC900166E4F0FB
:10341500A37418F074FFA3F0A3F07B187A007D085D
:103425007C01E4FFFE1250AC900166E4F0A3741831
:10343500F0E4A3F0A3F07B18FA7D087C017F18FE69
:103445001250AC900166E4F0A37418F0A374C6F0B2
:10345500A37418F0FB7A007D087C017F307E001292
:1034650050AC900166E4F0A37418F0A3E4F0A374E3
:103475001FF07B187A007D087C017F487E00125082
:10348500AC900166E4F0A37418F0A374F8F0A3E41B
:10349500F07B18FA7D087C017F60FE1250AC90012C
:1034A50066E4F0A37418F0A374F8F0A3741FF07B1E
:1034B500187A007D087C017F787E001250AC90015F
:1034C50066E4F0A37418F0A37407F0A374E0F07B2E
:1034D500187A007D087C017F907E001250AC900127
:1034E50066E4F0A37418F0A3747FF0A374FFF07B77
:1034F500187A007D087C017FA87E001250AC9001EF
:1035050066E4F0A37418F0A374FFF0A374E0F07BF5
:10351500187A007D087C017FC07E001250AC9001B6
:1035250066E4F0A37418F0A374B7F0A37423F07BDA
:10353500187A007D087C017FD87E001250AC124EAF
:10354500B012525B9002D5E0FEA3E0FFD39400EEEB
:1035550094004021EF9408EE940150199002D3E0B5
:10356500FEA3E0FFA3E0FCA3E0FD90000DE0FAA3BD
:10357500E0FB1258229002D5E0FEA3E0FFD3942091
:10358500EE9401402EEF9440EE9401502690001ADF
:1035950074FFF0A37426F0A374B0F09002D3E0FF9B
:1035A500A3E090001DCFF0A3EFF07BFF7A2679B062
:1035B5001246619002D5E0FEA3E0FFD39408EE9495
:1035C500015003023546EF9420EE94014003023585
:1035D500469002D3E0FEA3E0FF7C007D181207327F
:1035E500EFB40A0040030235469035F5F8282873F4
:1035F50002361302361702362102362E02363402FF
:10360500364002364D02365402366102366E74FF7C
:103615008001E490000DF0A3F002354690000D7492
:10362500C6F0A37418F002354690000DE4801190A1
:10363500000D74F8F0A3E4F002354690000D74F81F
:10364500F0A3741FF002354690000D7407801290A8
:10365500000D747FF0A374FFF002354690000D74E1
:10366500FFF0A374E0F002354690000D74B7F0A3A7
:063675007423F00235464B
:102B2D00E4900002F07F1D7E051253DE7BFF7A4696
:102B3D00793D9001677420F074FFA3F0A3F0741138
:102B4D00A3F0A3F07D0A7C007F417E001240641249
:102B5D004EB07BFF7A46794574FF90001EF0A3F0CE
:102B6D007411A3F0A3F07D327C007F1E7E00125302
:102B7D00287BFF7A46794A74FF90001EF0A3F0740B
:102B8D0011A3F0A3F07D787C007F1E7E00125328E8
:102B9D007BFF7A46794F74FF90001EF0A3F07411FD
:102BAD00A3F0A3F07DBE7C007F1E7E001253287F14
:102BBD000112605A900166E4502FF0A3743CF0A30B
:102BCD00E4F0A3741FF07B967A007D327C007F4683
:102BDD007E001250AC7BFF7A4679549001677410D9
:102BED00F0A3E4F0A3741F802EF0A3743CF0A37443
:102BFD0007F0A374E0F07B967A007D327C007F466F
:102C0D007E001250AC7BFF7A4679579001677410A5
:102C1D00F0A374F8F0A3E4F0A37405F0A3741DF011
:102C2D007D4C7C007F1E7E001240647F0212605A34
:102C3D00900166E4502FF0A3743CF0A3E4F0A3746C
:102C4D001FF07B967A007D787C007F467E001250C7
:102C5D00AC7BFF7A4679549001677410F0A3E4F0D1
:102C6D00A3741F802AF0A3743CF0A374F8F0A3E4BE
:102C7D00F07B96FA7D78FC7F46FE1250AC7BFF7A96
:102C8D004679579001677410F0A374F8F0A3E4F03F
:102C9D00A37405F0A3741DF07D927C007F1E7E0051
:102CAD001240647F0312605A900166E4502FF0A326
:102CBD00743CF0A3E4F0A3741FF07B967A007DBE04
:102CCD007C007F467E001250AC7BFF7A4679549093
:102CDD0001677410F0A3E4F0A3741F802EF0A374A9
:102CED003CF0A374FFF0A374E0F07B967A007DBEF8
:102CFD007C007F467E001250AC7BFF7A4679579060
:102D0D0001677410F0A374F8F0A3E4F0A37405F058
:102D1D00A3741DF07DD87C007F1E7E0012406412CE
:102D2D00525B30A5FD9002D5E0FEA3E0FFD39420C9
:102D3D00EE9401402EEF9440EE9401502690001A2F
:102D4D0074FFF0A37426F0A374B0F09002D3E0FFEB
:102D5D00A3E090001DCFF0A3EFF07BFF7A2679B0B2
:102D6D001246619002D3E0FEA3E0FFD3941EEE94D1
:102D7D0000402AEF94D2EE94005022A3E0FEA3E08F
:102D8D00FF9432EE94004015EF946EEE9400500DCA
:102D9D007F0112605AB392007F01125FB29002D38D
:102DAD00E0FEA3E0FFD3941EEE9400402AEF94D2F0
:102DBD00EE94005022A3E0FEA3E0FF9478EE940081
:102DCD004015EF94B4EE9400500D7F0212605AB38B
:102DDD0092007F02125FB29002D3E0FEA3E0FFD318
:102DED00941EEE94005003022BBCEF94D2EE94008F
:102DFD004003022BBCA3E0FEA3E0FF94BEEE9400C3
:102E0D005003022BBCEF94FAEE94004003022BBC4E
:102E1D007F0312605AB392007F03125FB2022BBC84
:0661450025372E33660031
:10608400EF25E02405FFEFD3940040077E05DEFEF4
:036094001F80F377
:0160970022E6
:10609800EFD39400400D00007E207D1CDDFEDEFC69
:0360A8001F80ED69
:0160AB0022D2
:105E8400C200D2807F05126084C2807FC812608401
:105E94007FC8126084D2807F32126084A280920014
:075EA4007F19126084A200C7
:015EAB0022D4
:105F4400E4FC7D08C280ECC313FCD280308003449F
:0B5F540080FC7F19126084DDEBAF04BD
:015F5F00221F
:025F6000AD078B
:105F62007B08C280ED1392807F19126084D280ED8B
:0A5F7200C313FDDBED7F190260840C
:105D7500E4FBFFFEFDFC125E847FCC125F607F4476
:105D8500125F607F0A126098125E847FCC125F609A
:105D95007FBE125F60125F44AB07125F44EF7F0066
:095DA500FEEF2BFDE43EFEAF050C
:015DAE0022D2
:0B5CBF00900016EBF0A3EAF0A3E9F060
:105CCA00125D75AD07AC06E4120356E4FBFA79805F
:105CDA00783D12013E90001C74FFF0A37461F0A39A
:105CEA007445F0A31208AA900016E0FBA3E0FAA3F9
:055CFA00E0F902229216
:085B3F00C10A4302EB0102D789
:105EEC00538EF7759A50438E04200003759C98309E
:0E5EFC000003759CF7438E10D2AF75AF0122E4
:0B611E008F9BE59A30E1FB539AFD22B5
:1060AC001206B8FF600C12611E740129F9E43AFA69
:0360BC0080EE2251
:03004300025A89D5
:105A8900C0E0C0F0C083C082C0D075D000C000C0E3
:105A990001C002C003200A0E9002EB7401F0A37446
:105AA90002F0A374D7F0E59A30E02ED20A539AFE99
:105AB9009002EBE0FBA3E0FAA3E0F9E59B1206FEF6
:105AC9009002ECE475F0011207879002EBE0FBA36A
:105AD900E0FAA3E0F9E41206FED003D002D001D027
:0C5AE90000D0D0D082D083D0F0D0E032CA
:10591D000A004F4B0A004E6F7420666F756E64213E
:10592D000A006C696E6B000000000000FF613364BB
:10593D0065736B746F70000000FF26B07374617235
:10594D00746368000000FF3B32706963626F78001A
:10595D00000000FF33C574656D7065727400000042
:10596D00FF4C8D63616C656E6461720000FF41ECEC
:10597D007374696D650000000000FF5F7C737465D2
:0A598D006D706572740000FF5F97F3
:0B57A300900009EBF0A3EAF0A3E9F08E
:1057AE0090000AE475F003120787E490000CF09065
:1057BE00000CE0FFD39408505AEFB4080302613C8A
:1057CE0090000CE075F00DA4242FF9745935F0FA01
:1057DE007BFFC003C002900009E0FBA3E0FAA3E048
:1057EE00F8AC02AD03D002D003120B0BEF701C907D
:1057FE00000CE075F00DA42439F582E43459F583DC
:10580E00740193FA740293F902095A90000CE004A1
:03581E00F0809C7B
:015821002264
:1060BF001206B8B4410B9000011206D1B45402D3AA
:0360CF0022C322C7
:105F7C007B017A0279BD124B6F7B017A0279BD12DB
:0B5F8C0060AC7BFF7A59791D0260AC0D
:105F97007B017A00790D125CBF7B017A00790E12C2
:0B5FA70060AC7BFF7A59791D0260ACF2
:096133007BFF7A59791F0260AC70
:09613C007BFF7A5979230260AC63
:07000300D285D286D28722CC
:105FB200EF24FE600C14600E2402700EA200928583
:0B5FC20022A200928622A200928722F9
:10605A00EF24FE600A14600A24027008A28522A2B4
:05606A008622A287223E
:100046000203FBE86480F8E933E83360110460F0EA
:10005600ED33EC337009E8FCE9FDEAFEEBFF220420
:1000660060DED3EB9FEA9EE99DE8C2E78CF0C2F71B
:1000760095F0400CE8CCF8E9CDF9EACEFAEBCFFBE7
:100086001203C685D0F05804700320D5B3E8047077
:10009600075002B2D502040592D5EC0460F7E4CC11
:1000A600C0E0C398F8603B94186008400DD0E0FBB0
:1000B6000203DDE4FBFAC9FC8028E830E406E4C963
:1000C600FBE4CAFCE830E305E4C9CACBFCE8540704
:1000D6006010F8C3E913F9EA13FAEB13FBEC13FC0F
:1000E600D8F130F52FC3E49CFCEF9BFFEE9AFEEDB2
:1000F60099FDD0E0FBEF4E4D4C701222DB0302045B
:1001060002EC2CFCEF33FFEE33FEED33FDED30E772
:10011600EB0203DDEF2BFFEE3AFEED39FDD0E0FBFF
:1001260050130BBB0003020405ED13FDEE13FEEFA7
:0801360013FFEC13FC0203DDD2
:10013E00EC4D6011E8497017ED33EC3304600DE4BB
:10014E00FCFFFEFD22E933E8330470F80203FB12D4
:10015E0003C658046009E4CC2481500628500902D5
:10016E000405284003020402C0E0EB4A7044B98043
:10017E0006D0E0FB0203F1EF4E701CBD8008EBFFD2
:10018E00EAFEE9FD80EBE98DF0A4FEE5F002022720
:10019E00E9CDF9EAFEEBFFEF89F0A4FCE5F0CE899C
:1001AE00F0A42EFFE435F0CD89F0A42DFEE435F059
:1001BE008067EF4E7005BD80D780C3EF8BF0A4AC87
:1001CE00F0EE8BF0A42CFCE435F0F8EF8AF0A42CC2
:1001DE00E5F038FCE433CB8DF0A42CFCE5F03BF8D5
:1001EE00EE8AF0A42CFCE5F038F8E433CF89F0A4C5
:1001FE002CFCE5F038CF3400CE89F0A42FFFE5F0CB
:10020E003EFEE433C98DF0A42EFEE5F039CD8AF022
:10021E00A42FFFE5F03EFEE43DFD33D0E0FB50079A
:10022E000BBB000F020405EC2CFCEF33FFEE33FE8C
:06023E00ED33FD0203DDBB
:10024400020405EC5D046005E8590470030203FB35
:100254001203C6580460F6EC4860F2EC7004FDFE2C
:10026400FF22C860DB2481C85009C398600250068D
:100274000204029850CAF582E9294B4A7005AB8200
:100284000203F175F0007C1A7880C3EF9BEE9AEDBF
:1002940099400DC3EF9BFFEE9AFEED99FDE842F005
:1002A400DC23ACF0D0E0FFD0E0FED0E0FDAB822058
:1002B400E7101BEB60BAEC2CFCEF33FFEE33FEEDE2
:1002C40033FD0203DDE803F830E705C0F075F00004
:1002D400EF2FFFEE33FEED33FD40B830E7C280AAC6
:1002E40074F8CC6480CCC86480C8F582046043C3CD
:1002F400EB9FF5F0EA9E42F0E99D42F0E89C45F060
:1003040060305018E5825FFFE582F42B5582FB5084
:10031400210ABA001D09B90019088016E5825BFBA1
:10032400E582F42F5582FF50090EBE00050DBD0075
:10033400010CC3EB9FF5F0EA9E42F0E99D42F0E820
:0D0344009C45F06007CC4820E701B3EC2297
:1003510075F020800E75F010800575F0087D007E27
:10036100007F003392D530D50312084CEC33401096
:10037100EF33FFEE33FEED33FDEC33FCD5F0ED2230
:0E038100E5F0247EA2D513CC92E7CDCEFF226C
:10038F00EDD2E7CD33EC3392D524814006E4FFFE66
:10039F00FDFC22FCE4CFCECDCC24E0501174FF80C5
:1003AF00EDC3CC13CCCD13CDCE13CECF13CF047062
:0703BF00F030D5DE02084C0E
:10222D00E508241CF582E43400F583E005082290CE
:10223D00001930070390001CE475F0011208E70245
:10224D0006B82000E97F2ED2008018EF540F24909D
:10225D00D43440D4FF30040BEF24BFB41A00500324
:10226D002461FFE50960021509050CE50C700205F6
:10227D000B30070E900019E475F0011208E7EF021C
:10228D0006FE024DA97403D2078003E4C207F508C8
:10229D009000191208FEE4F509F50BF50CE509603F
:1022AD00077F2012227080F5750AFFC201C200C29D
:1022BD0002C203C205C206C20812223CFF700D30D5
:1022CD0007057F00122281AF0CAE0B22B4255FC231
:1022DD00D5C20412223CFF24D0B40A00501A75F066
:1022ED000A780930D50508B6FF0106C6A426F620E2
:1022FD00D5047002D20380D924CFB41A00EF500454
:10230D00C2E5D204022573D20180C6D20080C0D2AC
:10231D000280BCD2D580BAD20580B47F2012227043
:10232D002002077401B5090040F112222DFF12227F
:10233D00700222AAD208D206809512222DFB1222FB
:10234D002DFA12222DF94A4B700679717A267BFFF0
:10235D0020022EE509602A7E008E8275830012060A
:10236D00D160060EEE650A70F0C2D5EBC0E0EAC092
:10237D00E0E9C0E0EE1225D4D0E0F9D0E0FAD0E0EB
:10238D00FB1206B8FF60AAEBC0E0EAC0E0E9C0E0CE
:10239D00122270D0E02401F9D0E03400FAD0E0FB35
:1023AD00E50A0460DCD50AD98087D20280A2122505
:1023BD00B660F7E50A700104120410A90A600DE574
:1023CD000A600914F50A12265EEF60F3EA30E7029F
:1023DD00F404C3995079EAF4250A0430E701E404C2
:1023ED00F50A800D1225B660C1EA050A250A120408
:1023FD0010EA900048F030E701E4250A04D50A04FC
:10240D00200501141225D4E4C0E012265E90004888
:10241D00E0601320E70714F0122258802204F0D058
:10242D00E014C0E07F00122258E50A600712224F27
:10243D00150A800B30050312224FD0E00222AAD0DC
:10244D00E00480C41225B6609EE50A0412041090C3
:10245D000048EAF0E50A2005026001042404122573
:01246D00D49A
:10246E0074FF04C0E012265E122258E50A2005020F
:10247E00600312224FD0E0B50AE87F451222629027
:10248E000048E07F2B30E7047F2DF404C0E01222D9
:10249E0070D0E075F00A84C0F0122259D0E01222FA
:1024AE00590222AA791080027908C206C208800851
:1024BE00D2D5790A8004790AC2D5E50A047002F5EC
:1024CE000AE4FAFDFEFF12222DFC7B0820011312F6
:1024DE00222DFD7B1030000A12222DFE12222DFF1E
:1024EE007B20EC3382D592D55013C3E43000069F87
:1024FE00FFE49EFEE42001039DFDE49CFCE4CBF88A
:10250E00C201EC700CCFCECDCCE824F8F870F3807D
:10251E0017C3EF33FFEE33FEED33FDEC33FCEB333D
:10252E00FB994002FB0FD8E9EB300105F8D0E0C46F
:10253E0048B201C0E00AEC4D4E4F78207B0070C2CD
:10254E00EAB50A0040BCC0E01225D6D0F0D0E0209B
:10255E000104C4C0E0C4B201C0F0122259D0F0D5BB
:10256E00F0EB0222AA12090723475324B25823186C
:10257E004C23144224B64F24BE4424BE49232D437B
:10258E0024C45523F14624514523BB47269150239D
:10259E001C2D23202E23432B232423234120267A54
:1025AE002A22DC480000233BE50AB4FF03750A0625
:1025BE0012222DFC12222DFD12222DFE12222DFF93
:1025CE0090004102044D790AA2D52003143005096A
:1025DE00B910020404B9080104A2D5200602500164
:1025EE00042002689202B509005034C0E07F20300A
:1025FE0003197F30A20272067205500F12262DC2E9
:10260E0002C206C205C2087F30800F300503E9C042
:10261E00E0122270300503D0E0F9D0E0B509CC30DD
:10262E0005177F30B9100C1222707F583004077FC7
:10263E00788003B908031222703002057F2D022222
:10264E00707F202008F87F2B2006F322920280CF85
:10265E007F00B40700500B2441F582E43400F5836B
:10266E00E0FF22286E756C6C2900D20112222D30EB
:10267E0001F8C201780930D50108F60222DC2D508E
:10268E0043495812222D2403B405004001E490263C
:10269E008C93122261743A122261D20375090402DC
:0226AE0024B254
:10548C000203FB22EDA2E7D2E7F9EC3340F260F322
:10549C00B4FF08ED547F70E8020405F82481C2E0E3
:1054AC00C0E0F40428FAC313FCED92E7FD90002150
:1054BC001208AAEEA2E7E9BA7F02C31334009400E3
:1054CC00FA75F091A4E5F013F494FE8AF0A433E598
:1054DC00F033248CD313FDE492E7FE7F007C3F7500
:1054EC008302ECC0E0F8EDC0E0F9EEC0E0FAEFC0EA
:1054FC00E0FB8583F090002112087E85F083120278
:10550C0047D0E0FBD0E0FAD0E0F9D0E0F812004D43
:10551C00ED6480FD30E7011CD583C7ED33CC33F847
:0C552C00D0E0A2E71328C313CC13FD222B
