:030000000253E4C4
:0C53E400787FE4F6D8FD75812102542B7F
:105B70001239FE125AE2125BAA125CEF125D12C2D7
:0D5B800000125B52123819125A350226B07D
:10535700000000AA0001904C0000023A000192866A
:105367000008C460000A56E600000474000A5B5A8D
:10537700000BB08000160BDA000005F0001611CA0A
:10538700001A4D2000305EEA000001A400306C4690
:10539700002EC200005F2E46000017C0000000006C
:1053A70000000000000000000000000000000000F6
:1053B70000000000000000000000000000000000E6
:1053C70000000000000000000000000000000000D6
:0D53D70000000000000000000000000000C9
:05573A004202EDEF1634
:105A6300900293E0FCA3E0FDA3E0FEA3E0FF120895
:015A73006BC7
:105A7400E4FEEF30E704D2828002C282C281EF25C5
:095A8400E0FFD2810EEEB408E946
:015A8D0022F6
:105C4A00E4FFFDC281D281A283E433FEEF25E04E58
:065C5A00FF0DEDB408EDA2
:015C60002221
:1058C100E4900013F0A3F0C2A47F90125A74E4FF95
:1058D100125A74E4FF125A74E4FF125A74125C4AA9
:1058E100EFFE900013E04EF0A3E0F0125C4A90004E
:1058F10013E0FEA3E04FFF900013EEF0FEA3EFF0E4
:02590100D2A42E
:015903002281
:0A5D4600C2A47F04125A74D2A422F2
:0F556B00900290EBF0A3EAF0A3E9F0A31208AAD4
:10557A00C2A7C2A47F03125A747810125A63780819
:10558A00125A63900293A3A3A3E0FF125A74E49001
:10559A000299F0A3F0900297E0FEA3E0FFC3900205
:1055AA009AE09F900299E09E502D125C4A900290D8
:1055BA00E0FBA3E0FAA3E0F9900299E0FCA3E0F58E
:1055CA00828C83EF12071090029AE004F070C69062
:0955DA000299E004F080BED2A4A5
:0155E30022A5
:105AE200125D461258C19002EDEEF0A3EFF0E47F92
:105AF200AAFEFDFC90535712089AC312085A60037B
:085B02007F0122D2A47F0022E2
:0B35D600900282EBF0A3EAF0A3E9F002
:1035E1001206B8FF900289F0900282E0FBA3E47515
:1035F100F001120787A9F0FA1206B890028AF0EFDB
:10360100C394814011E0FF9440400BEFF4600790B8
:103611000289E0B4FF3DE490028BF0900288E075EE
:10362100F002A4FF90028BE0C39FE5F06480F87480
:1036310080984003023818900285E0FBA3E475F0FE
:103641000112079DA9F0FAE41206FE90028BE00434
:10365100F080C890028AE0C3947F5006E024C0F055
:10366100800790028AE024BFF0900289E0247FF075
:10367100900288E06420705FA3E0FF7E007C007D03
:10368100BE120960A804A905AA06AB07A3E0FFE4DE
:10369100FCFDFEEB2FFFEE3AFEED39FDEC38FCE4CC
:1036A1007B80FAF9F81207FD90028C1208AA905358
:1036B1009312088A90028CE0F8A3E0F9A3E0FAA340
:1036C100E02FFFEA3EFEE93DFDE83CFC900297E475
:1036D100F0A37480023809900288E06418705FA337
:1036E100E0FF7E007C007DBE120960A804A905AA46
:1036F10006AB07A3E0FFE4FCFDFEEB2FFFEE3AFE75
:10370100ED39FDEC38FCE47B48FAF9F81207FD903D
:10371100028C1208AA90538312088A90028CE0F856
:10372100A3E0F9A3E0FAA3E02FFFEA3EFEE93DFDA5
:10373100E83CFC900297E4F0A37448023809900237
:1037410088E06410705EA3E0FF7E007C007DBE1205
:103751000960A804A905AA06AB07A3E0FFE4FCFDE4
:10376100FEEB2FFFEE3AFEED39FDEC38FCE47B2059
:10377100FAF9F81207FD90028C1208AA90537312FD
:10378100088A90028CE0F8A3E0F9A3E0FAA3E02F05
:10379100FFEA3EFEE93DFDE83CFC900297E4F0A320
:1037A10074208064900288E0640C706BA3E0FF7E5B
:1037B100007C007DBE120960A804A905AA06AB071A
:1037C100A3E0FFE4FCFDFEEB2FFFEE3AFEED39FD39
:1037D100EC38FCE47B18FAF9F81207FD90028C1220
:1037E10008AA90536312088A90028CE0F8A3E0F9CA
:1037F100A3E0FAA3E02FFFEA3EFEE93DFDE83CFC31
:10380100900297E4F0A37418F0900285E0FBA3E026
:07381100FAA3E0F912556B68
:01381800228D
:102DF60090016CEEF0A3EFF0A3ECF0A3EDF0A3EBE3
:012E0600F0DB
:102E0700787A7C017D017BFF7A5379A37E007F412D
:102E170012069290016EE0FFA3E09001BBCFF0A3F2
:102E2700EFF0900170E024E0FFE434FFFEE4FCFDE6
:102E37009001C11208AA900171E0B420299001C144
:102E4700E0FCA3E0FDA3E0FEA3E0FFE47B40FAF98A
:102E5700F81207FD9001C11208AA9001797440F099
:102E670090539B022F28900171E0B418299001C15B
:102E7700E0FCA3E0FDA3E0FEA3E0FFE47B24FAF976
:102E8700F81207FD9001C11208AA9001797424F085
:102E970090538B022F28900171E0B410289001C144
:102EA700E0FCA3E0FDA3E0FEA3E0FFE47B10FAF95A
:102EB700F81207FD9001C11208AA9001797410F069
:102EC70090537B805C900171E0B40C289001C1E0C5
:102ED700FCA3E0FDA3E0FEA3E0FFE47B0CFAF9F816
:102EE7001207FD9001C11208AA900179740CF090A5
:102EF700536B802D900171E0B4082F9001C1E0FC65
:102F0700A3E0FDA3E0FEA3E0FFE47B06FAF9F812D5
:102F170007FD9001C11208AA9001797406F0905339
:102F27005B12088A9001BD1208AA9001BDE0FCA3BC
:102F3700E0FDA3E0FEA3E0FFA3E0F8A3E0F9A3E030
:102F4700FAA3E02FFFEA3EFEE93DFDE83CFC9001D5
:102F570079E0FB900297E4F0A3EBF07B017A01792B
:102F67007A12556BE4900178F0900179E0FF9001B7
:102F770078E0FEC39F40030230AB747A2EF582E4FB
:102F87003401F583E0900176F0E4A3F0900177E057
:102F9700FFC3940840030230A2900171E0640870F7
:102FA70041900176E0FEA807088002C313D8FC30E1
:102FB700E0028044900174E0FEA3E0FF6411700317
:102FC700EE6411606DEF64117003EE64116063903D
:102FD700016CE0FEA3E0FFA3E0FCA3E0FD90017419
:102FE7008027900177E0FF900176E0FEA807088030
:102FF70002C333D8FC30E71890016CE0FEA3E0FF72
:10300700A3E0FCA3E0FD900172E0FAA3E0FB801FC0
:10301700900174E0FAA3E0FB64117003EA641160A5
:103027001190016CE0FEA3E0FFA3E0FCA3E0FD121A
:1030370057A390016FE004F0700690016EE004F072
:1030470090016EE0FEA3E0FFC39440EE940150545C
:103057009001BBE0FCA3E0FDC3EF9DFFEE9CFE905B
:103067000171E07A00B5072AEAB5062690016EECF1
:10307700F0A3EDF090016DE004F0700690016CE0B4
:1030870004F0C390016DE094F090016CE09400406F
:103097000A22900177E004F0022F93900178E00470
:0430A700F0022F7094
:0130AB002202
:0E40590090016CEEF0A3EFF0A3ECF0A3EDF0FD
:10406700900180ECF0A3EDF0900173E0FF640C6029
:1040770012EF6410600DEF64186008EF64206003AE
:104087000241D19002857401F0A37401F0A37482F8
:10409700F0A3EFF01235D6900173E0FFB4200B9038
:1040A700017EE4F0A37480F0801EEFB4180B90013A
:1040B7007EE4F0A37448F0800FEF75F002A4FF9040
:1040C700017EE5F0F0A3EFF0E490017AF0A3F09021
:1040D700017EE0FEA3E0FF90017AE0FCA3E0FDC3D0
:1040E7009FEC9E40030241D174822DF582E4340196
:1040F700F583E0FF900178E4F0A3EFF0E490017C12
:10410700F0A3F0900179E030E71890016CE0FEA38E
:10411700E0FFA3E0FCA3E0FD900174E0FAA3E0FB5D
:10412700801F900176E0FAA3E0FB64117003EA6454
:1041370011601190016CE0FEA3E0FFA3E0FCA3E097
:10414700FD1257A3900179E025E0F0900178E03364
:10415700F090016FE004F0700690016EE004F090BB
:104167000180E0FEA3E0FFC390016FE09FFD900197
:104177006EE09EFC900173E07A00B5051CEAB50479
:104187001890016EEEF0A3EFF090016DE004F0706F
:104197002890016CE004F0802090017DE004F0702D
:1041A7000690017CE004F0C390017DE09408900143
:1041B7007CE09400500302410A90017BE004F07018
:0A41C7000690017AE004F00240D6F1
:0141D10022CB
:103D4B0090015FEEF0A3EFF0A3ECF0A3EDF0A3EB8B
:073D5B00F0A3EAF0A3E9F078
:103D6200E490016BF0900163E0FBA3E0FAA3E0F9B9
:103D72001206B8FF7003023ED290016BE0600302AC
:103D82003E32EFD3948040057401F080D8900161F7
:103D9200E0FCA3E0FDD39440EC94014003023ED248
:103DA2001206B8FB900166E0900171F0900167E0A5
:103DB200FFA3E0900172CFF0A3EFF0900169E0FF62
:103DC200A3E0900174CFF0A3EFF090015FE0FEA3B7
:103DD200E0FF122DF6900164E475F001120787905E
:103DE2000166E0FFB40808900160E024068009EF54
:103DF200C313FF900160E02FF090015FE03400F008
:103E0200D3900160E094F090015FE09400500302CF
:103E12003D6790016474FFF5F0120787900166E038
:103E2200FF900162E02FF0900161E03400023EC792
:103E3200E490016BF0900161E0FCA3E0FDD39440BB
:103E4200EC94014003023ED2900163E0FBA3E0FA4E
:103E5200A3E0F9A3E0900173F0900167E0FFA3E013
:103E6200900174CFF0A3EFF0900169E0FFA3E0901E
:103E72000176CFF0A3EFF090015FE0FEA3E0FF1226
:103E82004059900164E475F002120787900166E0E0
:103E9200FF7E00900160E02FF090015FE03EF0D3E2
:103EA200A3E094F090015FE094005003023D67901C
:103EB200016474FF75F0FE120787900162E02FF033
:103EC200900161E03EF0E490015FF0A3F0023D67F3
:013ED20022CD
:101C3D000000000000000000000000000000000097
:101C4D000000000000001FCC000C00000000000090
:101C5D000000080030006000080030006000000047
:101C6D00022003FC1E20022003FC1E200220000087
:101C7D0000000E1811043FFF10840C7800000000C6
:101C8D000F0010840F3800C007781884007800000A
:101C9D0000780F8410C411240E9800E4008400080D
:101CAD000800680070000000000000000000000047
:101CBD0000000000000007E018182004400200009A
:101CCD00000040022004181807E00000000000008A
:101CDD000240024001800FF00180024002400000EE
:101CED000080008000800FF80080008000800000E0
:101CFD000001000D000E00000000000000000000BB
:101D0D000000008000800080008000800080008046
:101D1D000000000C000C000000000000000000009E
:101D2D000000000600180060018006001800200069
:101D3D00000007F0080810041004080807F0000060
:101D4D000000080408041FFC00040004000000004B
:101D5D0000000E0C10141024104411840E0C000001
:101D6D0000000C1810041104110412880C700000EE
:101D7D00000000E00320042408241FFC00240000C0
:101D8D0000001F98108411041104108810700000B9
:101D9D00000007F008881104110418880070000075
:101DAD0000001C00100010FC13001C0010000000AF
:101DBD0000000E3811441084108411440E380000B8
:101DCD0000000700088C10441044088807F000003C
:101DDD00000000000000030C030C000000000000D8
:101DED0000000000000101060000000000000000DE
:101DFD0000000080014002200410080810040000BB
:101E0D0002200220022002200220022002200000D7
:101E1D00000010040808041002200140008000009A
:101E2D0000000E001200100C106C10800F0000004E
:101E3D0003E00C1813E4142417C4082807D000007D
:101E4D000004003C03C41C40074000E4001C0004D7
:101E5D0010041FFC1104110411040E880070000001
:101E6D0003E00C1810041004100410081C100000DE
:101E7D0010041FFC100410041004080807F00000E3
:101E8D0010041FFC1104110417C4100408180000DD
:101E9D0010041FFC1104110017C0100008000000F1
:101EAD0003E00C181004100410441C7800400000CE
:101EBD0010041FFC10840080008010841FFC10048F
:101ECD000000100410041FFC10041004000000009A
:101EDD0000030001100110011FFE10001000000092
:101EED0010041FFC110403801464181C100400005E
:101EFD0010041FFC1004000400040004000C00007A
:101F0D0010041FFC1F0000FC1F001FFC100400002C
:101F1D0010041FFC0C04030000E010181FFC10003F
:101F2D0007F00808100410041004080807F000005A
:101F3D0010041FFC10841080108010800F00000012
:101F4D0007F0081810241024101C080A07F20000CE
:101F5D0010041FFC1104110011C011300E0C0004EF
:101F6D0000000E1C11041084108410441C38000055
:101F7D001800100010041FFC1004100018000000C1
:101F8D0010001FF810040004000410041FF81000C6
:101F9D0010001E0011E0001C007013801C001000CA
:101FAD001FC0103C00E01F0000E0103C1FC00000EF
:101FBD001004180C163401C001C01634180C10048E
:101FCD0010001C00130400FC13041C001000000082
:101FDD000804101C1064108413041C041018000055
:101FED000000000000007FFE4002400240020000A1
:101FFD00000030000C0003800060001C0003000096
:10200D0000004002400240027FFE00000000000080
:10201D0000000000200040004000400020000000B3
:10202D00000100010001000100010001000100019B
:10203D0000004000400020000000000000000000F3
:10204D0000000098012401440144014400FC0004F7
:10205D0010001FFC008801040104008800700000BE
:10206D0000000070008801040104010400880000D4
:10207D000000007000880104010411081FFC000419
:10208D00000000F8014401440144014400C800006F
:10209D000000010401040FFC1104110411001800CB
:1020AD00000000D601290129012901C901060000FE
:1020BD0010041FFC008401000100010400FC000459
:1020CD0000000104190419FC0004000400000000C4
:1020DD000000000300010101190119FE00000000BC
:1020ED0010041FFC0024004001B4010C0104000089
:1020FD000000100410041FFC000400040000000088
:10210D00010401FC0104010001FC0104010000FCBB
:10211D00010401FC008401000100010400FC000425
:10212D00000000F8010401040104010400F800009E
:10213D00010101FF00850104010400880070000009
:10214D0000000070008801040104010501FF000179
:10215D000104010401FC0084010401000180000060
:10216D00000000CC01240124012401240198000069
:10217D0000000100010007F8010401040000000047
:10218D00010001F8000400040004010801FC000432
:10219D00010001800170000C001001600180010040
:1021AD0001F0010C003001C00030010C01F0010004
:1021BD0000000104018C00740170018C0104000009
:1021CD00010101810171000E001801600180010003
:1021DD0000000184010C013401440184010C000054
:1021ED00000000000000000001003EFC4002400223
:1021FD000000000000000000FFFF000000000000D4
:10220D000000400240023EFC010000000000000002
:10221D000000600080008000400040002000200091
:0D5D2200C295C2948FB0C296D296D2942240
:0C5C1900E0FF7E00125C25E0FEA3E0FF2F
:0D5C2500D295C2948FB0C296D296D294222E
:075D0100125D087D017F190E
:0A5D0800125D22AE04AF05025C2517
:105C77003ECF2401FDE43FFCE0FEA3E0FF1259CC38
:055C87007F22025D22F6
:035D5000025C25CD
:0B59C100E0FEA3E0FFA3E0FCA3E0FD7C
:1059CC00AB05AA048F828E83E583FD7C007F0212D7
:1059DC005D08AF82AD07FC7F03125D08EAFD7C0019
:0F59EC007F06125D08AF03AD07FC7F07025D0861
:0B5A8E007C007F1F125D087F057E007A
:105A9900E4FDFCC3ED9FEC9E5015E4FBFA0BBB0043
:0F5AA900010ABA04F8BB75F50DBD00010C80E4CD
:015AB80022CB
:1039FE007F327E00125A997D017C00E4FF125D0831
:103A0E007F32FE125A999000477F64125A99E582CE
:103A1E00644745836003023BB2FDFC7FEA125D08FA
:103A2E007D207FEB125D087D0C7FEC125D087DC45E
:103A3E007FED125D087D407FE8125D087D387FE9DD
:103A4E00125D087D017FF1125D087D107FF2125D1F
:103A5E00087DA37F27125D08FD7F40125D087F4120
:103A6E00125D080D7F42125D087D127F43125D08C4
:103A7E007D107F44125D087D267F45125D087D080E
:103A8E007F46125D087D537F47125D087D027F4899
:103A9E00125D087D157F49125D087D197F4A125D02
:103AAE00087F4B125D087D167F4C125D087D197FD5
:103ABE0050125D087D2F7F51125D087D2D7F5212B1
:103ACE005D087D3E7F53125D080D7F54125D087FA9
:103ADE0055125D087D2C7F56125D087D777F57123B
:103AEE005D087D097F58125D087D067F59125D08BD
:103AFE007F5A125D087D0A7F5B125D087D1D7F5C1B
:103B0E00125D087DCC7F5D125D087D1B7F1B125DF3
:103B1E00087D017F1A125D087D2F7F24125D087DBE
:103B2E00577F25125D087D977F23125D087D367FB6
:103B3E0018125D017D887F1F125D087F05FE125AE7
:103B4E00997D80125A8E7D90125A8E7DD0125A8E89
:103B5E007D057C007F17125D08E4FD7F36125D083F
:103B6E007D387F28125D087F28FE125A997D3C7C95
:103B7E0000125D08E4FD7F02125D087F03125D08EE
:103B8E007F04125D087DEF7F05125D08FD7F061232
:103B9E005D087F07125D080D7F08125D087D3F7F6F
:0B3BAE0009125D017F327E00025A996F
:0850AB00900021EEF0A3EFF0EC
:1050B300A31208B600000000E4FDFCFFFE1259CC69
:1050C300125C879000231208B600000000E47F40C2
:1050D3007E01FDFC900023E0F8A3E0F9A3E0FAA32E
:1050E300E0FBC312085A506D9000271208B6000067
:1050F3000000E47FF0FEFDFC900027E0F8A3E0F958
:10510300A3E0FAA3E0FBC312085A50279000211230
:105113005C19900027E0FCA3E0FDA3E0FEA3E024DC
:1051230001FFE43EFEE43DFDE43CFC900027120851
:10513300AA80BF900023E0FCA3E0FDA3E0FEA3E070
:105143002401FFE43EFEE43DFDE43CFC9000231219
:0551530008AA0250D083
:015158002234
:10578D00900027E0FEA3E0FFA3E0FCA3E0FD900066
:06579D002FE0FAA3E0FB7F
:1057A300900284EAF0A3EBF0900282EEF0A3EFF014
:1057B300C394F0EE94005021C3ED9440EC94015057
:1057C30018900282125C7F900284E0FF7E00125DDB
:0A57D30050E0FEA3E0FF125D50223B
:10336200900029ECF0A3EDF0900027EEF0A3EFF02F
:0833720090002BEAF0A3EBF040
:10337A00D3EF9BEE9A402790002BE0FEA3E0FF904C
:10338A000035EEF0A3EFF0900027E0FDA3E09000F7
:10339A002BCDF0A3EDF0900027EEF0A3EFF0900014
:1033AA002DE0FEA3E0FF900029E0FCA3E0FDD39FFF
:1033BA00EC9E4018900035EEF0A3EFF090002DEC53
:1033CA00F0A3EDF0900029EEF0A3EFF0900027E0D3
:1033DA00FEA3E0FFC390002CE09FFF90002BE09E2D
:1033EA00900031F0FAA3EFF0FB900029E0FEA3E091
:1033FA00FFC390002EE09FFF90002DE09E900033C7
:10340A00F0A3EFF0EB4A702712578D90002AE004E0
:10341A00F07006900029E004F0900029E0FEA3E095
:10342A00FFC390002EE09F90002DE09E50DA22907C
:10343A000033E07002A3E0702712578D900028E055
:10344A0004F07006900027E004F0900027E0FEA345
:10345A00E0FFC390002CE09F90002BE09E50DA2200
:10346A00900033E0FEA3E0FF900031E0FCA3E0FD12
:10347A00D39FEE6480F8EC6480985003023525EF00
:10348A0025E0FFEE33FEC3EF9DFFEE9C900035F082
:10349A00A3EFF090002BE0FCA3E0FD900027E0FEF4
:1034AA00A3E0FF6D7002EE6C70030235D2125795DD
:1034BA00900028E004F07006900027E004F0D39012
:1034CA000036E09400900035E064809480403090AB
:1034DA00002AE004F07006900029E004F09000321F
:1034EA00E025E0FD900031E033FC900034E025E077
:1034FA00FF900033E033FEC3EF9DFFEE9C800C90FB
:10350A000034E025E0FF900033E033FE900036E01F
:10351A002FF0900035E03EF002349D900032E02515
:10352A00E0FF900031E033FE900033E0FCA3E0FDC1
:10353A00C3EF9DFFEE9CA3F0A3EFF090002DE0FEF9
:10354A00A3E0FF900029E0FCA3E0FD6F7002EC6E9F
:10355A006076900027E0FEA3E0FF12579B90002AB6
:10356A00E004F07006900029E004F0D3900036E001
:10357A009400900035E0648094804030900028E008
:10358A0004F07006900027E004F0900032E025E095
:10359A00FD900031E033FC900034E025E0FF90001C
:1035AA0033E033FEC3EF9DFFEE9C800C900034E0C5
:1035BA0025E0FF900033E033FE900036E02FF090D4
:0B35CA000035E03EF002354512578D41
:0135D50022D3
:104A7600900048EEF0A3EFF090004CEBF090004A67
:054A8600ECF0A3EDF0CF
:104A8B00900053ECF0A3EDF090004CE024E0F0E448
:104A9B00F990004CE075F010A4243DF582E5F0345C
:104AAB001CF583E58229F582E43583F583E4939045
:104ABB000051F0E4A3F0900051E030E7189000486B
:104ACB00E0FEA3E0FFA3E0FCA3E0FD90004DE0FAC5
:104ADB00A3E0FB801F90004FE0FAA3E0FB64117092
:104AEB0003EA64116011900048E0FEA3E0FFA3E02D
:104AFB00FCA3E0FD1257A3900051E025E0F09000DD
:104B0B004BE004F0700690004AE004F0C3900049BB
:104B1B00E094F0900048E094005056900053E0FE73
:104B2B00A3E0FFC390004BE09FFD90004AE09EFC8A
:104B3B00ED64104C7023EEF0A3EFF0900049E0040D
:104B4B00F07006900048E004F0C3900049E09440F8
:104B5B00900048E09401401022900052E004F0E0F5
:104B6B00C394085003024AC109E964106003024A66
:014B7B009C9D
:014B7C002216
:104FF500900016EEF0A3EFF0A3ECF0A3EDF0A3EB19
:07500500F0A3EAF0A3E9F0BB
:10500C0090001AE0FBA3E475F00112079DA9F0FAD9
:10501C001206B8FB900018E0FCA3E0FD90001DE028
:10502C00FFA3E090004DCFF0A3EFF090001FE0FF46
:10503C00A3E090004FCFF0A3EFF0900016E0FEA39A
:10504C00E0FF124A76C3900017E094E8900016E057
:10505C009400500AA3E02408F09000168020C3901E
:10506C000019E09430900018E09401E49000165080
:10507C0013F0A3F0900019E02410F0900018E03425
:10508C0000F08007F0A3F0A3F0A3F090001AE0FB6F
:0E509C00A3E0FAA3E0F91206B8600302500C7C
:0150AA0022E3
:10471300900002EEF0A3EFF0A3ECF0A3EDF0A3EA18
:04472300F0A3EBF024
:10472700E490000EF0A3F09000141208B600000009
:10473700009000021259C1125C87C2A47F03125A6B
:104747007490000AE0FCA3E0FDA3E0FEA3E0FF787D
:104757001012086B125A7490000AE0FCA3E0FDA344
:10476700E0FEA3E0FF780812086B125A7490000A63
:10477700A3A3A3E0FF125A749000101208B600001A
:104787000000900008E0FEA3E0FFE4FCFD900010AD
:10479700E0F8A3E0F9A3E0FAA3E0FBC312085A404C
:1047A7000302484C9000141208B600000000900065
:1047B70006E0FEA3E0FFE4FCFD900014E0F8A3E0B0
:1047C700F9A3E0FAA3E0FBC312085A503C125C4A73
:1047D70090000FEFF0125C4A90000EEFF07E00128F
:1047E7005C25A3E0FF125C25900014E0FCA3E0FD2C
:1047F700A3E0FEA3E02401FFE43EFEE43DFDE43C2C
:10480700FC9000141208AA80A5900010A3A3E0FE54
:10481700A3E0FF900005E02FFF900004E090000266
:10482700125C77900010E0FCA3E0FDA3E0FEA3E09C
:104837002401FFE43EFEE43DFDE43CFC9000101241
:0748470008AA024789D2A470
:01484E002247
:104D790090015FEEF0A3EFF0A3ECF0A3EDF0A3EA4E
:044D8900F0A3EBF0B8
:104D8D0090016D1208B60000000090015F1259C12C
:104D9D00125C879001691208B60000000090016551
:104DAD00E0FEA3E0FFE4FCFD900169E0F8A3E0F96B
:104DBD00A3E0FAA3E0FBC312085A4003024E589039
:104DCD00016D1208B600000000900163E0FEA3E043
:104DDD00FFE4FCFD90016DE0F8A3E0F9A3E0FAA378
:104DED00E0FBC312085A5027900167125C1990011D
:104DFD006DE0FCA3E0FDA3E0FEA3E02401FFE43E93
:104E0D00FEE43DFDE43CFC90016D1208AA80BA90D1
:104E1D000169A3A3E0FEA3E0FF900162E02FFF90E4
:104E2D000161E090015F125C77900169E0FCA3E005
:104E3D00FDA3E0FEA3E02401FFE43EFEE43DFDE41E
:0B4E4D003CFC9001691208AA024DAA6B
:014E58002237
:102B140090001AEAF0A3EBF0900016EEF0A3EFF0A9
:102B2400A3ECF0A3EDF0C006C007A3E0FEA3E0FF12
:102B3400900016E0FAA3E02FFBEA3EFAA3E0FFA31D
:102B4400E090002DCFF0A3EFF090001EE0FFA3E093
:102B540090002FCFF0A3EFF0D007D006123362908D
:102B64000017E02401FF900016E03400FEC006C008
:102B740007900019E02401FD900018E03400FC9057
:102B8400001AE0FEA3E0FF900016E0FAA3E02FFF96
:102B9400EA3ECF24FFFBEF34FFFAA3E0FEA3E024D8
:102BA40001FFE43E90002DF0A3EFF090001EE0FF43
:102BB400A3E090002FCFF0A3EFF0D007D00612339C
:102BC40062900016E0FAA3E0FBFFAE02C006C00765
:102BD400A3E0FCA3E0FD90001CE0FEA3E0FF900056
:102BE40018E0F8A3E02FFFE83E90002DF0A3EFF0EB
:102BF40090001EE0FFA3E090002FCFF0A3EFF0D0F1
:102C040007D006123362900017E02401FB900016EF
:102C1400E03400FAAF03FEC006C007900019E024B8
:102C240001FD900018E03400FC90001CE0FEA3E0DD
:102C3400FF900018E0F8A3E02FFFE83ECF24FFCF79
:102C440034FF90002DF0A3EFF090001EE0FFA3E00E
:102C540090002FCFF0A3EFF0D007D006123362908C
:102C6400001CE0FEA3E0FF900019E02FFD90001887
:102C7400E03EFC90001AE0FEA3E0FF900016E0FAAC
:102C8400A3E02FFBEA3EFA90001CE0FEA3E0FF90D5
:102C94000018E0F8A3E02FFFE83E90002DF0A3EF2A
:102CA400F090001EE0FFA3E090002FCFF0A3EFF020
:102CB400900016E0FEA3E0FF123362900017E024B8
:102CC40001FF900016E03400FEC006C00790001C0F
:102CD400E0FEA3E0FF900019E02FFF900018E03E13
:102CE400CF24FFFDEF34FFFC90001AE0FEA3E0FFC9
:102CF400900016E0FAA3E02FFFEA3ECF24FFFBEF9B
:102D040034FFFA90001CE0FEA3E0FF900018E0F806
:102D1400A3E02FFFE83ECF24FFCF34FF90002DF037
:102D2400A3EFF090001EE0FFA3E090002FCFF0A3EC
:102D3400EFF0D007D00612336290001AE0FEA3E051
:102D4400FF900017E02FFB900016E03EFAAF03FE61
:102D5400C006C007900018E0FCA3E0FD90001CE052
:102D6400FEA3E0FF900018E0F8A3E02FFFE83E90F8
:102D7400002DF0A3EFF090001EE0FFA3E090002FE1
:102D8400CFF0A3EFF0D007D00612336290001AE020
:102D9400FEA3E0FF900017E02FFF900016E03ECF67
:102DA40024FFFBEF34FFFAAF03FEC006C007900018
:102DB40019E02401FD900018E03400FC90001CE0B0
:102DC400FEA3E0FF900018E0F8A3E02FFFE83ECF59
:102DD40024FFCF34FF90002DF0A3EFF090001EE00D
:102DE400FFA3E090002FCFF0A3EFF0D007D00602AE
:022DF400336248
:10573F005F029BFF5BAAFF4C82FF13C300000000B8
:10574F00000000000000000000000000000000004A
:0A575F0000004102BAD04102BB90E5
:105B8D00EF7803C333CE33CED8F9FFE4FDFCC3ED7C
:0C5B9D009FEC9E50070DBD00010C80F233
:015BA90022D9
:105BFF00E4FEEF30E704D2828002C282EF25E0FF9D
:095C0F00C281D2810EEEB408E955
:015C18002269
:10582C00E4FDFBFAC281C282C2A6125BFF7F067E38
:10583C0000125B8DC2817F017E00125B8DD281C212
:10584C0081E4FDEB25E0FBEA33FAC281D28130839F
:10585C00050BBB00010A0DEDB410E8EAC4F854F0D6
:0D586C00C868FAEBC4540F48D2A6AE02FF84
:01587900220C
:023BB900A9075A
:103BBB00E490003EF0A3F0900032F0A3F0AF0112BE
:103BCB00582CAC06AD07900033E025E0FF90003297
:103BDB00E033FE74342FF58274003EF583ECF0A3D2
:103BEB00EDF0900033E004F07006900032E004F04A
:103BFB00C3900033E09405900032E0940040BEE4A3
:103C0B00900032F0A3F0900032E0FEA3E0FFC394EB
:103C1B0004EE94004003023CE5EF2401FFE43EADCB
:103C2B0007FCC3ED9405EC94004003023CD1ED2559
:103C3B00E0FFEC33FE74342FF58274003EF583E025
:103C4B00FAA3E0FB900033E025E0FF900032E03375
:103C5B00FE74342FF58274003EF583E0FEA3E0FF83
:103C6B00D39BEE9A4058900040EEF0A3EFF0ED2579
:103C7B00E0FFEC33FE74342FF58274003EF583E0E5
:103C8B00FAA3E0FB900033E025E0FF900032E03335
:103C9B00FE74342FF58274003EF583EAF0A3EBF04B
:103CAB00900040E0FAA3E0FBED25E0FFEC33FE745F
:103CBB00342FF58274003EF583EAF0A3EBF00DBDD3
:103CCB0000010C023C2D900033E004F06003023C39
:103CDB0011900032E004F0023C11E490003EF0A39E
:103CEB00F0900032F0A304F0900032E0FEA3E0FF6E
:103CFB00C39404EE94005032EF25E0FFEE33FE74D4
:103D0B00342FF58274003EF583E0FEA3E0FF9000B4
:103D1B003FE02FF090003EE03EF0900033E004F0E7
:103D2B0070C6900032E004F080BE90003EE0FEA32F
:0F3D3B00E0FF7C007D03120732A3EEF0A3EFF050
:013D4A002256
:0B57DD0090002AEBF0A3EAF0A3E9F033
:1057E8009002BAE0FF123BB9900030EEF0A3EFF060
:1057F8009002BBE0FF123BB9900030E0F9A3E0FD56
:1058080090002AE0FBA3E0FAA3E0C98DF01207DEBE
:1058180090002DE0FBA3E0FAA3E0F9EE8FF0120769
:03582800DE7F011F
:01582B00225A
:10448D0090001F7401F0A37402F0A374AAF07B01D5
:04449D007A0279A87E
:0B44A10090001CEBF0A3EAF0A3E9F090
:1044AC0090002D7401F0A37400F0A37424F07B0130
:1044BC007A0079221257DDEF7002FF2290002D74E2
:1044CC0001F0A37400F0A37428F07B017A00792624
:1044DC001257DDEF7002FF22900022E0FEA3E0FFF6
:1044EC00900026E0FCA3E0FDD39FEC9E500EED2443
:1044FC0032FDE43CFCC3EF9DEE9C402A900026E08C
:10450C00FEA3E0FF900022E0FCA3E0FDD39FEC9E15
:10451C0040030245CFED2432FDE43CFCC3EF9DEE9D
:10452C009C40030245CF900024E0FEA3E0FF9000E6
:10453C0028E0FCA3E0FDD39FEC9E500EED2432FD51
:10454C00E43CFCC3EF9DEE9C4024900028E0FEA3CD
:10455C00E0FF900024E0FCA3E0FDD39FEC9E5063B1
:10456C00ED2432FDE43CFCC3EF9DEE9C50559000D5
:10457C0026E0FEA3E0FF900023E02FFF900022E056
:10458C003EC313F9EF13FF90001CE0FBA3E0FAA36A
:10459C00E0C98FF01207DE900028E0FEA3E0FF9048
:1045AC000025E02FFF900024E03EC313F9EF13FF2A
:1045BC0090001FE0FBA3E0FAA3E0C98FF01207DE26
:0545CC007F01227F00C9
:0145D10022C7
:1045D200E4900010F07D047C0174FFFBFA7F047EFE
:0145E20001D7
:1045E300900021EEF0A3EFF0900025EAF0A3EBF0AA
:1045F300900023ECF0A3EDF0900021E0FAA3E0FBA0
:1046030024F4FFEA34FFFEC007EB240DFBE43AFA7F
:10461300A3E0FFA3E090002DCFF0A3EFF0900025DF
:10462300E0FFA3E090002FCFF0A3EFF0D007123309
:1046330062900021E0FAA3E0FBFFAE02C006C007D0
:10464300900024E024F4FD900023E034FFFCE0FE1E
:10465300A3E0240DFFE43E90002DF0A3EFF09000C3
:1046630025E0FFA3E090002FCFF0A3EFF0D007D019
:1046730006123362900022E02401FF900021E0340F
:1046830000FE900024E02401FD900023E03400FCB0
:10469300900025E0FAA3E0FB1257A3900022E02448
:1046A300FFFF900021E034FFFE900024E02401FD91
:1046B300900023E03400FC900025E0FAA3E0FB1215
:1046C30057A3900022E02401FF900021E03400FE74
:1046D300900024E024FFFD900023E034FFFC9000D1
:1046E30025E0FAA3E0FB1257A3900022E024FFFF8A
:1046F300900021E034FFFE900024E024FFFD9000B1
:1047030023E034FFFC900025E0FAA3E0FB0257A36B
:1054700090000EEEF0A3EFF0A3ECF0A3EDF0A3EAA2
:10548000F0A3EBF01257A390000FE02401FF90006F
:105490000EE03400FE900010E0FCA3E0FDA3E0FA73
:1054A000A3E0FB1257A390000EE0FEA3E0FF9000E4
:1054B00011E02401FD900010E03400FC900012E0A7
:1054C000FAA3E0FB1257A390000FE02401FF900025
:1054D0000EE03400FE900011E02401FD900010E089
:0E54E0003400FC900012E0FAA3E0FB0257A398
:104C820030A503024D50EF600612448D024D2612EC
:104C9200448DEF7003024D269002A8E0FCA3E0FDD4
:104CA200E41203569002ADE0F8A3E0F9A3E0FAA300
:104CB200E0FB12013EC004C005C006C0079002B569
:104CC200E0FCA3E0FDEC120356D003D002D001D0E9
:104CD2000012004D12038F9002A8EEF0A3EFF0A392
:104CE200E0FCA3E0FDE41203569002B1E0F8A3E079
:104CF200F9A3E0FAA3E0FB12013EC004C005C0061E
:104D0200C0079002B7E0FCA3E0FDEC120356D0030B
:104D1200D002D001D00012004D12038F9002AAEEF1
:104D2200F0A3EFF09002ACE020E74474C0F09002F0
:104D3200A8E0FFA3E09002A4CFF0A3EFF09002AAB4
:104D4200E0FFA3E09002A6CFF0A3EFF08021900253
:104D5200ACE030E705547FF08015E49002A4F0A3A4
:104D6200F0A3F0A3F074FFA3F0A3F0A3F0A3F090DC
:074D720002ACE05480FF22B7
:1013C300E4900010F0F074FFFFFE1250AB7B007A44
:1013D300F87D3C7C007F3C7E001245E3E49002AC48
:1013E300F0A31208B60000000090029EA3E0FAA347
:1013F300E0F5828A837F0112095E9002ACE0FF541C
:10140300C0FEBE40E4EF54BFF09002A8E0FEA3E0AC
:10141300FF900010E0FD25E025E02400F582E43490
:1014230000F583EEF0A3EFF09002AAE0FEA3E0FF45
:10143300ED25E025E02402F582E43400F583EEF0A7
:10144300A3EFF0900010E004F0E024FE60231460AA
:101453003214604D2403709174FFFBFA7D3C7C00D1
:101463007F3C7E001245E37B007AF87D3C7C008064
:10147300297D3C7C001245DB7B007AF87D047C01EE
:101483000216AC74FFFBFA7D047C017F3C7E0012E4
:1014930045E37B007AF87D047C017F047E01021A18
:1014A300A6900004E0FEA3E0FFC3900001E09FFFCD
:1014B300900000E09EFE125D2FEE3395E0FDFC9060
:1014C30000151208AA900006E0FEA3E0FFC39000F7
:1014D30003E09FFF900002E09EFE125D2FEE339526
:1014E300E0FDFC9000191208AA900015E0FCA3E0AF
:1014F300FDA3E0FEA3E0FFA804A905AA06FB1207CB
:10150300FD9000151208AA900019E0FCA3E0FDA3CA
:10151300E0FEA3E0FFA804A905AA06FB1207FD90BD
:1015230000191208AA900019E0FCA3E0FDA3E0FE55
:10153300A3E0FF900015E0F8A3E0F9A3E0FAA3E02D
:101543002FFFEA3EFEE93DFDE83CFCE412035112A5
:10155300515D12038F900011EEF0A3EFF090000C99
:10156300E0FEA3E0FFC3900009E09FFF900008E0C6
:101573009EFE125D2FEE3395E0FDFC9000151208E0
:10158300AA90000EE0FEA3E0FFC390000BE09FFFD4
:1015930090000AE09EFE125D2FEE3395E0FDFC9075
:1015A30000191208AA900015E0FCA3E0FDA3E0FED9
:1015B300A3E0FFA804A905AA06FB1207FD900015E6
:1015C3001208AA900019E0FCA3E0FDA3E0FEA3E04B
:1015D300FFA804A905AA06FB1207FD90001912082B
:1015E300AA900019E0FCA3E0FDA3E0FEA3E0FF90B6
:1015F3000015E0F8A3E0F9A3E0FAA3E02FFFEA3E29
:10160300FEE93DFDE83CFCE412035112515D120377
:101613008F900013EEF0A3EFF0900011E0FCA3E035
:10162300FDE4120356C004C005C006C007900013B2
:10163300E0FCA3E0FDE4120356A804A905AA06AB47
:1016430007D007D006D005D00412024790001D1220
:1016530008AA7F337E337D737C3F90001DE0F8A39F
:10166300E0F9A3E0FAA3E0FB1202E440317F667ED7
:10167300667D867C3F90001DE0F8A3E0F9A3E0FAC5
:10168300A3E0FB1202E460025014900011E0700228
:10169300A3E0600A900013E07002A3E07012124509
:1016A300D27B007AF87D3C7C007F3C7E00021AA648
:1016B300900008E0FEA3E0FFC3900001E09FFF90CD
:1016C3000000E09EFE125D2FEE3395E0FDFC9000DE
:1016D300151208AA90000AE0FEA3E0FFC3900003DE
:1016E300E09FFF900002E09EFE125D2FEE3395E037
:1016F300FDFC9000191208AA900015E0FCA3E0FD80
:10170300A3E0FEA3E0FFA804A905AA06FB1207FDB8
:101713009000151208AA900019E0FCA3E0FDA3E0D5
:10172300FEA3E0FFA804A905AA06FB1207FD90008B
:10173300191208AA900019E0FCA3E0FDA3E0FEA3A0
:10174300E0FF900015E0F8A3E0F9A3E0FAA3E02F8F
:10175300FFEA3EFEE93DFDE83CFCE4120351125171
:101763005D12038F900011EEF0A3EFF090000CE0F8
:10177300FEA3E0FFC3900005E09FFF900004E09EFE
:10178300FE125D2FEE3395E0FDFC9000151208AAC2
:1017930090000EE0FEA3E0FFC3900007E09FFF90E0
:1017A3000006E09EFE125D2FEE3395E0FDFC9000F7
:1017B300191208AA900015E0FCA3E0FDA3E0FEA324
:1017C300E0FFA804A905AA06FB1207FD9000151265
:1017D30008AA900019E0FCA3E0FDA3E0FEA3E0FF4C
:1017E300A804A905AA06FB1207FD9000191208AA6E
:1017F300900019E0FCA3E0FDA3E0FEA3E0FF90004E
:1018030015E0F8A3E0F9A3E0FAA3E02FFFEA3EFE18
:10181300E93DFDE83CFCE412035112515D12038FD4
:10182300900013EEF0A3EFF0900011E0FCA3E0FDB5
:10183300E4120356C004C005C006C007900013E0BD
:10184300FCA3E0FDE4120356A804A905AA06AB070E
:10185300D007D006D005D00412024790001D12080D
:10186300AA7F337E337D737C3F90001DE0F8A3E0B5
:10187300F9A3E0FAA3E0FB1202E4401D7F667E6653
:101883007D867C3F90001DE0F8A3E0F9A3E0FAA376
:10189300E0FB1202E4601440121245D27B007AF896
:1018A3007D3C7C007F3C7E00021AA6900008E0FE8F
:1018B300A3E0FFC3900005E09FFF900004E09EFEBD
:1018C300125D2FEE3395E0FDFC9000151208AA90EF
:1018D300000AE0FEA3E0FFC3900007E09FFF900033
:1018E30006E09EFE125D2FEE3395E0FDFC9000199D
:1018F3001208AA900015E0FCA3E0FDA3E0FEA3E01C
:10190300FFA804A905AA06FB1207FD9000151208FB
:10191300AA900019E0FCA3E0FDA3E0FEA3E0FFA86A
:1019230004A905AA06FB1207FD9000191208AA9044
:101933000019E0FCA3E0FDA3E0FEA3E0FF90001587
:10194300E0F8A3E0F9A3E0FAA3E02FFFEA3EFEE903
:101953003DFDE83CFCE412035112515D12038F90EC
:101963000011EEF0A3EFF090000CE0FEA3E0FFC344
:10197300900001E09FFF900000E09EFE125D2FEEBD
:101983003395E0FDFC9000151208AA90000EE0FECE
:10199300A3E0FFC3900003E09FFF900002E09EFEE0
:1019A300125D2FEE3395E0FDFC9000191208AA900A
:1019B3000015E0FCA3E0FDA3E0FEA3E0FFA804A95B
:1019C30005AA06FB1207FD9000151208AA9000193C
:1019D300E0FCA3E0FDA3E0FEA3E0FFA804A905AAA1
:1019E30006FB1207FD9000191208AA900019E0FCEB
:1019F300A3E0FDA3E0FEA3E0FF900015E0F8A3E061
:101A0300F9A3E0FAA3E02FFFEA3EFEE93DFDE83C3F
:101A1300FCE412035112515D12038F900013EEF098
:101A2300A3EFF0900011E0FCA3E0FDE4120356C025
:101A330004C005C006C007900013E0FCA3E0FDE46A
:101A4300120356A804A905AA06AB07D007D006D0EF
:101A530005D00412024790001D1208AA7F337E337B
:101A63007D737C3F90001DE0F8A3E0F9A3E0FAA3A7
:101A7300E0FB1202E4401D7F667E667D867C3F901C
:101A8300001DE0F8A3E0F9A3E0FAA3E0FB1202E4EF
:101A9300601740151245D27B007AF87D3C7C007FAD
:101AA3003C7E001245E30213EC900000E0FEA3E04D
:101AB300FFC3900005E09FFD900004E09EFCE4124C
:101AC3000356A804A905AA06AB07E4FFFE7D487CDC
:101AD300431202479002AD1208AA900000E0FEA351
:101AE300E0FF900005E02FFD900004E03EFCE412CF
:101AF30003569002ADE0F8A3E0F9A3E0FAA3E0FBFC
:101B030012013EA804A905AA06AB07E4FFFE7DA0C7
:101B13007C43120049E4FBFAF978401202471203AE
:101B23008F9002B5EEF0A3EFF0900002E0FEA3E089
:101B3300FFC390000BE09FFD90000AE09EFCE412BF
:101B43000356A804A905AA06AB07E4FFFE7D487C5B
:101B5300431202479002B11208AA900002E0FEA3CA
:101B6300E0FF90000BE02FFD90000AE03EFCE41242
:101B730003569002B1E0F8A3E0F9A3E0FAA3E0FB77
:101B830012013EA804A905AA06AB07E4FFFE7DA047
:101B93007C43120049E4FBFAF9784012024712032E
:101BA3008F9002B7EEF0A3EFF09002ADE0FCA3E05C
:101BB300FDA3E0FEA3E0FF12038F125D2FD3EF948A
:101BC30002EE64809480501F9002B1E0FCA3E0FD1C
:101BD300A3E0FEA3E0FF12038F125D2FD3EF940265
:101BE300EE64809480403D1245D27B007AF87D3CC0
:101BF3007C007F3C7E001245E39002B9E070047FD5
:101C03000180027F009002B9EFF0600BA37490F0A3
:101C1300A374D0F00213EC9002BA74D0F0A37490C2
:101C2300F00213EC74FFFFFE1250AB7FE87E031249
:091C33005B3274FFFFFE1250AB9E
:011C3C002285
:10000E009002BA7490F0A374D0F09002B574FFF021
:10001E00A374F4F09002AD1208B63DF973DA9002B3
:10002E00B77401F0A3744AF09002B11208B6BDAADB
:03003E00F35E224C
:105BAA0090002D7401F0A37402F0A374AAF07B0193
:0D5BBA007A0279A81257DD12000E7F012239
:0F5C3200139283125C41EBC313FB125C41D281CE
:085C41007F207E1DDEFEDFFC6A
:015C49002238
:0B484F00900016EBF0A3EAF0A3E9F0E4
:10485A007B017A0079191252AF900016E0FBA3E0AF
:10486A00FAA3E0F974321206FE900016E0FBA3E008
:10487A00FAA3E0F9900001743012071090001FE0CB
:10488A00FFC4540F2430900002120710EF540F2473
:10489A0030900003120710900004742F1207109032
:1048AA00001DE0FFC4540F2430900005120710EFDA
:1048BA00540F2430900006120710900007742F122C
:1048CA00071090001CE0FFC4540F24309000081217
:1048DA000710EF540F243090000912071090000AB5
:1048EA00742F12071090001BE0FFC4540F2430905D
:1048FA00000B120710EF540F243090000C1207100F
:10490A0090000D743A12071090001AE0FFC4540F79
:10491A00243090000E120710EF540F243090000F2D
:10492A00120710900010743A120710900019E0FF55
:10493A00C4540F2430900011120710EF540F243082
:10494A00900012120710900013742F120710900093
:10495A001EE0540F2430900014120710900015E442
:03496A0002071031
:0D5C6100F9EF120710125C6EE4FF12587A82
:085C6E007F027E3BDEFEDFFC3D
:015C7600220B
:02598500AB076E
:10598700C2A7125C41C281125C41D2A7125C417A64
:1059970008C281125C41A903E9125C32DAF37A0882
:1059A700C281125C41A905E9139283125C41EDC3E0
:0959B70013FD125C3CDAE9C2A701
:0159C00022C4
:02587A00AB077A
:10587C00C2A7125C41C281125C41D2A7125C417A70
:10588C0008C281125C41EB125C32DAF57A08D281E3
:10589C00125C41EDC313FD125C41C281125C4130BC
:1058AC0083054480FD8004ED547FFDDAE1C2A7122C
:0458BC005C41AF0597
:0158C00022C5
:104E5900900016EBF0A3EAF0A3E9F0E4FD7F8E12CF
:104E69005985125C6E900016E0FBA3E0FAA3E0F905
:104E79001206B8FD7F80125985125C6E900016E00B
:104E8900FBA3E0FAA3E0F99000011206D1FD7F82AD
:104E9900125985125C6E900016E0FBA3E0FAA3E0BC
:104EA900F99000021206D1FD7F84125985125C6EB9
:104EB900900016E0FBA3E0FAA3E0F99000031206C4
:104EC900D1FD7F86125985125C6E900016E0FBA316
:104ED900E0FAA3E0F99000041206D1FD7F88125987
:104EE90085125C6E900016E0FBA3E0FAA3E0F9904E
:104EF90000051206D1FD7F8A125985125C6E900059
:104F090016E0FBA3E0FAA3E0F99000061206D1FD32
:0F4F19007F8C125985125C6E7D807F8E025985C8
:1052AF00900020EBF0A3EAF0A3E9F0125C697F8D88
:1052BF0012587A900020E0FBA3E0FAA3E0900006DA
:1052CF00125C617F8B12587A900020E0FBA3E0FA0A
:1052DF00A3E0900005125C617F8912587A9000203C
:1052EF00E0FBA3E0FAA3E0F9900004EF120710121D
:1052FF005C697F8712587A900020E0FBA3E0FAA345
:10530F00E0F9900003125C627F8512587A900020BA
:10531F00E0FBA3E0FAA3E0F9900002125C627F8346
:10532F0012587A900020E0FBA3E0FAA3E0F9900076
:10533F0001125C627F8112587A900020E0FBA3E09B
:08534F00FAA3E0F9EF0206FEEB
:105CEF00C2A7C281E4FD7F8E1259857D807F8E020F
:025CFF005985C5
:03000B000255E4B7
:1055E400C0E0C0F0C083C082C0D075D000C000C08D
:1055F40001C002C003C004C005C006C007758AAB61
:10560400758C2F9002F1E0C3945F4028E4F0300AD7
:1056140023C20A7B017A0279D6125CDC5002D209D9
:105624007B017A0279D674FFFDFC1254EE9002D607
:10563400E4F0A3F09002F1E004F0D007D006D00526
:10564400D004D003D002D001D000D0D0D082D083F7
:05565400D0F0D0E032AF
:105D1200438901758AAB758C2FD2A9D2AFC28C226E
:1041D200C8D5C0FA00CEC2B6C800B5E7BBB000CFA2
:1041E200E0B2E100D3B2BCFEBCECB2E200BBADB0C7
:1041F200E500B4AEBFDAD6FACAD600535049D6FAB1
:10420200CAD600B5E7BBB0B9A6C4DCCEB4BFAAB764
:10421200C5A3A100CFE0B2E1B9A6C4DCCEB4BFAA67
:10422200B7C5A3A100B4AEBFDAD6FACAD6CEB4BF20
:10423200AAB7C5A3A10032CEB4BFAAB7C5A3A10035
:1042420033CEB4BFAAB7C5A3A10034CEB4BFAAB7B8
:10425200C5A3A10035CEB4BFAAB7C5A3A1004861CA
:1042620072647761726520436865636B2052756E74
:104272006E696E67002A2A2A2A2A2A2A466C6173E4
:104282006820436865636B2A2A2A2A2A2A2A005749
:1042920032355138300057323551313600573235C8
:1042A2005133320057323551363400466C617368EF
:1042B200204572726F72002A2A2A2ACAB1D6D3BC4A
:1042C200ECB2E22A2A2A2A00B6C1C8A1CAB1BCE4C9
:1042D200D6D02E2E2E002A2A2A2ACEC2B6C8BCEC4E
:1042E200B2E22A2A2A2A00B6C1C8A1CEC2B6C8D6CC
:1042F200D02E2E2E00B5B1C7B0CEC2B6C8A3BA001A
:10430200D6DC00C9E8B6A8CFB5CDB3CAB1BCE400CB
:10431200A1F800A88B004E657874004F6B00D2D1D3
:10432200C9E8B6A8CFB5CDB3CAB1BCE4A3A100A178
:0F433200FB00A1F600A1FE00000000000000004B
:105769005602BC000000000000000000000000001C
:0B577900000000000000000000C1095B
:1026B000E4900000F0A3F0C28C74FFFFFE1250AB58
:1026C000900008E4F0A37443F0A31208B600600C75
:1026D000A07B917A007D147C007F0A7E0012471354
:1026E0007BFF7A4179D29001667410F074FFA3F0F9
:1026F000A3F07411A3F0A3F07D477C007F0A7E0055
:10270000123D4B900008E4F0A37443F0A31208B606
:10271000006058867B467A007D147C007FA07E0096
:102720001247137BFF7A4179D79001667410F074D9
:10273000FFA3F0A3F07411A3F0A3F07D477C007F0A
:10274000A07E00123D4B900008E4F0A37444F0A377
:102750001208B600607D2A7B467A007D5D7C007F92
:102760000A7E001247137BFF7A4179DC9001667480
:1027700010F074FFA3F0A3F07411A3F0A3F07D9107
:102780007C007F0A7E00123D4B900008E4F0A374A9
:1027900044F0A31208B60060A25A7B467A007D5D21
:1027A0007C007F557E001247137BFF7A4179E190D0
:1027B00001667410F074FFA3F0A3F07411A3F0A3EA
:1027C000F07D917C007F557E00123D4B900008E427
:1027D000F0A37444F0A31208B60060C78A7B467A5F
:1027E000007D5D7C007FA07E001247137BFF7A4155
:1027F00079E69001667410F074FFA3F0A3F07411F1
:10280000A3F0A3F07D917C007FA07E00123D4B9051
:102810000008E4F0A37444F0A31208B60060ECBA18
:102820007B467A007DA67C007F0A7E001247137BE0
:10283000FF7A4179EF9001667410F074FFA3F0A362
:10284000F07411A3F0A3F07DDA7C007F0A7E001201
:102850003D4B900008E4F0A37444F0A31208B600C6
:102860006111EA7B917A007DA67C007F557E001283
:1028700047137BFF7A4179F49001667410F074FF7E
:10288000A3F0A3F07411A3F0A3F07DDA7C007F55D0
:102890007E00123D4B900008E4F0A37441F0A312B7
:1028A00008B600615EF27B917A007DEF7C007F0AC2
:1028B0007E001247137BFF7A4179FD900166741008
:1028C000F074FFA3F0A3F07411A3F0A3F07D207CBB
:1028D000017F0A7E00123D4B900008E4F0A3744192
:1028E000F0A31208B60061A8947B467A007DEF7CC5
:1028F000007FA07E00124713125AB9D28CE49002D6
:10290000D2F0A3F0A3F0A3F0900000E0B40B0FA36B
:10291000E0B4FF0A125AB9E4900000F0A3F090006E
:1029200001E004F07006900000E004F0124F2890DF
:1029300002D2E0FEA3E0FFC3940AEE94004011D35C
:10294000EF9450EE940050089002D2E4F0A304F00B
:102950009002D2E0FEA3E0FFC39455EE9400401233
:10296000D3EF949BEE940050099002D2E4F0A3744C
:1029700002F09002D2E0FEA3E0FFC394A0EE940028
:102980004012D3EF94DCEE940050099002D2E4F0B0
:10299000A37403F09002D4E0FEA3E0FFC3941EEE04
:1029A00094004011D3EF9458EE940050089002D454
:1029B000E4F0A304F09002D4E0FEA3E0FFC3945D32
:1029C000EE94004012D3EF94A1EE940050099002CF
:1029D000D4E4F0A37402F09002D4E0FEA3E0FFC3BD
:1029E00094A6EE94004012D3EF94EAEE94005009BE
:1029F0009002D4E4F0A37403F09002D4E0FEA3E0CC
:102A0000FFC394EFEE94004012D3EF9433EE9401A1
:102A100050099002D4E4F0A37404F09002D4E0FED4
:102A2000A3E0FFEE60030228FDEF24FE603B14608C
:102A30006B147003022ACF240360030228FD900266
:102A4000D2E0FEA3E0FFEE60030228FDEF24FE606B
:102A50000C14600F240260030228FD8000123ED394
:102A60000228FD12496D0228FD9002D2E0FEA3E08B
:102A7000FFEE60030228FDEF24FE601214601724AD
:102A80000260030228FD7BFF7A427905806C7BFFA0
:102A90007A42791680641238190226B79002D2E081
:102AA000FEA3E0FFEE60030228FDEF24FE60101499
:102AB0006015240260030228FD1230AC0228FD7B61
:102AC000FF7A42792780337BFF7A427938802B90D6
:102AD00002D2E0FEA3E0FFEE60030228FDEF24FE39
:102AE000601214601F240260030228FD7BFF7A42FB
:102AF000794280067BFF7A42794C74FFFDFC1254C8
:102B0000EE0228FD7BFF7A42795674FFFDFC1254D9
:042B1000EE0228FDAC
:105A350074FFFFFE1250AB900008E4F0A374AEF0C3
:105A4500A31208B6005F4E507B8C7A007D497C001E
:0E5A55007F3C7E001247137FFF7E0F025B3204
:10381900E4FFFE1250AB7BFF7A42796090001D7481
:1038290007F0A374E0F0E4A3F0A3F0FDFCFFFE129F
:103839004FF57BFF7A42797790001D7407F0A374E6
:10384900E0F0E4A3F0A3F07D10FCFFFE124FF512A7
:1038590058C1EF8EF012092D3875EF13387DEF142A
:103869003885EF15388DEF16000038B27BFF7A42A4
:10387900799180167BFF7A427998800E7BFF7A4294
:10388900799F80067BFF7A4279A69001667410F0D1
:10389900A374F8F0A3E4F074FFA3F0A3F07D207CF7
:1038A90000E4FFFE123D4B80267BFF7A4279AD9002
:1038B900001D74F8F0A3E4F074FFA3F0A3F07D20D9
:1038C9007C00E4FFFE124FF57FFF7E0F125B327F13
:1038D900FF7E00125B327BFF7A4279B990016674F0
:1038E90010F0A37407F0A374E0F0E4A3F0A3F07D53
:1038F90030FCFFFE123D4B7BFF7A4279CA9001668C
:103909007410F0A374F8F0A3E4F074FFA3F0A3F02B
:103919007D407C00E4FFFE123D4B7B017A0279BCBD
:1039290012484F7B017A0279BC9001667410F0A3AA
:1039390074F8F0A3E4F074FFA3F0A3F07D507C00C9
:10394900E4FFFE123D4B7FFF7E00125B327BFF7A64
:103959004279D89001667410F0A37407F0A374E05B
:10396900F0E4A3F0A3F07D60FCFFFE123D4B7BFF6A
:103979007A4279E99001667410F0A374F8F0A3E42F
:10398900F074FFA3F0A3F07D707C00E4FFFE123D0C
:103999004B7B017A00790C1259457FFF7E07125B38
:1039A900327B017A00790C1259457BFF7A4279F70B
:1039B9009001667410F0A37407F0A374E0F0741119
:1039C900A3F0A3F07D807C00E4FFFE123D4B7B0158
:1039D9007A00790C90001D74F8F0A3E4F074FFA349
:1039E900F0A3F07D807C007F507E00124FF57FFFB1
:0539F9007E0F025B32AD
:1054EE0090015AEBF0A3EAF0A3E9F0A3ECF0A3EDE0
:0154FE00F0BD
:1054FF0090015AE0FBA3E0FAA3E0F9900166741063
:10550F00F0A374F8F0A3E4F090015DE0FFA3E09046
:10551F000169CFF0A3EFF0E4FDFCFFFE123D4B7FDE
:10552F00FF7E07125B3290015AE0FBA3E0FAA3E083
:10553F00F9125C8CEF75F008A4FB7A00900165E41A
:10554F00F0A37410F090015DE0FFA3E0900167CF2E
:0C555F00F0A3EFF0E4FDFCFFFE024D792C
:104F28009000057401F0A37402F0A374D4F07B011F
:044F38007A0279D2AE
:104F3C00900002EBF0A3EAF0A3E9F0A3E0F9A3E000
:104F4C00FAA3E090001FC9F0A3EAF0A3E9F09000E7
:104F5C0002E0FBA3E0FAA3E0F91244A1900002E006
:104F6C00FBA3E0FAA3E0F91207B3FDACF0E41203E3
:104F7C00567BE17A7A797078411202477B9A7A995A
:104F8C00796D78C112004D12038F900002E0FBA3E3
:104F9C00E0FAA3E0F9EE8FF01207DE900005E0FBDB
:104FAC00A3E0FAA3E0F91207B3FDACF0E412035648
:104FBC007BC37AF5792C78411202477BF67A2879F3
:104FCC008C78C112004D12038F900005E0FBA3E01A
:104FDC00FAA3E0F9EE8FF01207DE30090BC2097B61
:094FEC00017A0279D6125659220D
:10520500900016EBF0A3EAF0A3E9F0A3E0F9A3E020
:10521500FAA3E090001FC9F0A3EAF0A3E9F090001B
:1052250016E0FBA3E0FAA3E0F91244A1900016E012
:10523500FBA3E0FAA3E0F91207B3FDACF0E4120317
:10524500567BE17A7A797078411202477B9A7A998E
:10525500796D78C112004D12038F900016E0FBA303
:10526500E0FAA3E0F9EE8FF01207DE900019E0FBFB
:10527500A3E0FAA3E0F91207B3FDACF0E41203567C
:105285007BC37AF5792C78411202477BF67A287927
:105295008C78C112004D12038F900019E0FBA3E03A
:0A52A500FAA3E0F9EE8FF00207DE35
:105B3200E4FDFCC3ED9FEC9E5015E4FBFA0BBB00A9
:0F5B4200010ABA03F8BBE8F50DBD00010C80E4C1
:015B51002231
:105AB9007B017A0279BC12484FE49002CCF07B0159
:105AC9007A0279C790001DF0A3F074FFA3F0A3F048
:095AD900E4FDFC7FC8FE024FF55C
:103ED300E490000CF0A3F07B017A0279BC12484F06
:103EE300E49002C3F07F1D7E051250AB900165E4A0
:103EF300F0A37414F0A374FFF0A374E0F07B787A5A
:103F0300007D3C7C007F3C7E00124D79900165E48E
:103F1300F0A37468F074FFA3F0A3F07B787A007DBC
:103F2300507C007F3C7E00124D797B017A0279BC84
:103F330090001D74F8F0A3E4F07411A3F0A3F07DD6
:103F43003D7C007F3D7E00124FF57BFF7A43790273
:103F53009001667410F0A374F8F0A3E4F07411A355
:103F6300F0A3F07D3D7C007F967E00123D4B7B01EC
:103F73007A0279D090001D74F8F0A3E4F07411A3D1
:103F8300F0A3F07D3D7C007FA67E00124FF5E49008
:103F930002C6F07B017A0279C49001667420F0A313
:103FA30074F8F0A3E4F07411A3F0A3F07D6E7C0029
:103FB3007F697E00123D4B124B7D90000CE0FEA307
:103FC300E0FFF47003EE640B6004EF4E70367B0188
:103FD3007A0279BC12484FE49002CCF07B017A025A
:103FE30079C790001D74F8F0A3E4F074FFA3F0A365
:103FF300F07D967C007F647E00124FF590000CE408
:10400300F0A304F090000DE004F0700690000CE0C3
:1040130004F0124F289002D4E0FEA3E0FFD39420D3
:10402300EE94014095EF9440EE9401508D90001969
:1040330074FFF0A3740BF0A37428F09002D2E0FF96
:10404300A3E090001CCFF0A3EFF07BFF7A2679B0BA
:06405300124341023FBDD3
:100B2800780E7C007D017BFF7A43793A7E007F074F
:100B38001206929000157401F0FB7A0279BC1248F3
:100B48004F7F1D7E051250AB7BFF7A4379059001DC
:100B5800667420F074FFA3F0A3F07411A3F0A3F05F
:100B68007D147C007F187E00123D4B7B017A027950
:100B7800BC90001D74F8F0A3E4F074FFA3F0A3F098
:100B88007D807C007F287E00124FF5900165E4F09F
:100B9800A37414F0A374C6F0A37418F07B287A0029
:100BA8007D697C007F647E00124D797BFF7A4379F2
:100BB800129001667410F0E4A3F0A3F07411A3F08E
:100BC800A3F07D6C7C007F737E00123D4B90001C6F
:100BD800E4F0A37414F0A3E4F0A3741FF07B287A64
:100BE800007D697C007F647E00122B14900165E40F
:100BF800F0A37414F0A374C6F0A37418F07B287AD9
:100C0800007D947C007F647E00124D797BFF7A43DF
:100C180079159001667410F0E4A3F0A3F07411A3A1
:100C2800F0A3F07D997C007F737E00123D4B90000D
:100C38001CE4F0A37414F0A3E4F0A3741FF07B2861
:100C48007A007D947C007F647E00122B14900165ED
:100C5800E4F0A37414F0A374C6F0A37418F07B280E
:100C68007A007DB47C007F287E00124D797BFF7A64
:100C7800437918E490001DF0A3F07411A3F0A3F0D9
:100C88007DB67C007F2A7E00124FF590001CE4F0B0
:100C9800A37414F0A3E4F0A3741FF07B287A007DFA
:100CA800B47C007F287E00122B14900165E4F0A329
:100CB8007414F0A374C6F0A37418F07B287A007D2E
:100CC800B47C007FAA7E00124D797BFF7A43791DA0
:100CD800E490001DF0A3F07411A3F0A3F07DB67C9E
:100CE800007FB97E00124FF590001CE4F0A3741445
:100CF800F0A3E4F0A3741FF07B287A007DB47C0095
:100D08007FAA7E00122B14124B7DE49002CFF09044
:100D180002CCF09002C9F09002C6F09002C3F090A5
:100D280002C0F0900015E014B407004003020EFF63
:100D3800900D4675F003A4C58325F0C58373020D95
:100D48005B020D97020DD3020E0F020E4B020E86A8
:100D5800020EC17B017A0279BC90001D7407F0A3D2
:100D680074E0F0E4A3F0A3F07D80FC7F28FE124F2E
:100D7800F57B017A0279D090001D74F8F0A3E4F0B5
:100D880074FFA3F0A3F07D807C007FC8020EFA7B7D
:100D9800017A0279C190001D7407F0A374E0F0E4B1
:100DA800A3F0A3F07D80FC7F50FE124FF57B017A03
:100DB8000279BC90001D74F8F0A3E4F074FFA3F06E
:100DC800A3F07D807C007F28020EFA7B017A0279ED
:100DD800C490001D7407F0A374E0F0E4A3F0A3F03E
:100DE8007D80FC7F68FE124FF57B017A0279C19005
:100DF800001D74F8F0A3E4F074FFA3F0A3F07D8065
:100E08007C007F50020EFA7B017A0279C790001DA0
:100E18007407F0A374E0F0E4A3F0A3F07D80FC7FF6
:100E280080FE124FF57B017A0279C490001D74F898
:100E3800F0A3E4F074FFA3F0A3F07D807C007F684A
:100E4800020EFA7B017A0279CA90001D7407F0A39A
:100E580074E0F0E4A3F0A3F07D80FC7F98FE124FCD
:100E6800F57B017A0279C790001D74F8F0A3E4F0CD
:100E780074FFA3F0A3F07D807C007F8080747B01E9
:100E88007A0279CD90001D7407F0A374E0F0E4A312
:100E9800F0A3F07D80FC7FB0FE124FF57B017A0253
:100EA80079CA90001D74F8F0A3E4F074FFA3F0A3CE
:100EB800F07D807C007F9880397B017A0279D09020
:100EC800001D7407F0A374E0F0E4A3F0A3F07D80A4
:100ED800FC7FC8FE124FF57B017A0279CD90001D88
:100EE80074F8F0A3E4F074FFA3F0A3F07D807C0015
:100EF8007FB07E00124FF59000197401F0A37402C0
:100F0800F0A374D4F07B017A0279D21252059002D0
:100F1800D4E0FEA3E0FFD39420EE9401402EEF949A
:100F280040EE9401502690001974FFF0A37426F047
:100F3800A374B0F09002D2E0FFA3E090001CCFF0C1
:100F4800A3EFF07BFF7A3E79D31243419002D2E0BF
:100F5800FEA3E0FFC39428EE94004029D3EF9450F9
:100F6800EE94005020A3E0FEA3E0FFC394B4EE94F7
:100F7800004012D3EF94C8EE94005009900015E099
:100F880004F030A5FD9002D2E0FEA3E0FFC39496E2
:100F9800EE9400500302105ED3EF94BEEE9400402E
:100FA8000302105EA3E0FEA3E0FFC394B4EE940036
:100FB800500302105ED3EF94C8EE94004003021071
:100FC8005E9002CDE024D0C454F0FFA3E024D04FBB
:100FD80090000EF09002CAE024D0C454F0FFA3E0C1
:100FE80024D04F90000FF09002C7E024D0C454F0F2
:100FF800FFA3E024D04F900010F09002C4E024D06A
:10100800C454F0FFA3E024D04F900011F09002C127
:10101800E024D0C454F0FFA3E024D04F900012F095
:101028009002D0E024D0900013F09002BEE024D0CB
:10103800C454F0FFA3E024D04F900014F07B017A51
:1010480000790E124E597BFF7A4379207D1D7C056D
:101058001254EE30A5FD9002D2E0FEA3E0FFC39447
:1010680064EE940050030211EED3EF948CEE9400DA
:1010780040030211EEA3E0FEA3E0FFC39469EE94DF
:101088000050030211EED3EF947DEE94004003026A
:1010980011EE900015E014B4070040030211EB9024
:1010A80010B575F003A4C58325F0C583730210CA73
:1010B8000210EE02112002115202117F0211AC023D
:1010C80011DC9002BFE004F0E0D394394009743099
:1010D800F09002BEE004F09002BEE0D394395003D1
:1010E8000211EB0211D79002C2E004F0E0D394326F
:1010F80040109002C1E0B43109A37431F09002C1EC
:1011080014F09002C2E0D3943950030211EB90021C
:10111800C1E004F0A30211D79002C5E004F0E0D3C7
:10112800943140109002C4E0B43309A37431F090B4
:1011380002C414F09002C5E0D3943950030211EBB5
:101148009002C4E004F0A30211D79002C8E004F0B2
:10115800E0D39433400F9002C7E0B43208A3743050
:10116800F09002C7F09002C8E0D39439407590021D
:10117800C7E004F0A380589002CBE004F0E0D394D9
:1011880039400F9002CAE0B43508A37430F09002D9
:10119800CAF09002CBE0D3943940489002CAE004E8
:1011A800F0A3802B9002CEE004F0E0D39439400FF6
:1011B8009002CDE0B43508A37430F09002CDF090E1
:1011C80002CEE0D39439401B9002CDE004F0A37422
:1011D80030F0800F9002D0E004F0E0D39437400361
:1011E8007431F030A5FD9002D2E0FEA3E0FFC39475
:1011F80064EE940050030213B1D3EF948CEE940084
:1012080040030213B1A3E0FEA3E0FFC39494EE945D
:101218000050030213B1D3EF94A8EE9400400302E8
:1012280013B1900015E014B4070040030213AE9008
:10123800124575F003A4C58325F0C5837302125ABD
:1012480002128F0212C60212FC0213320213680243
:10125800139E9002BFE0B4300F9002BEE0B4300895
:10126800A37439F09002BEF09002BFE0B43012903F
:1012780002BEE06430600AA3743AF09002BEE01443
:10128800F09002BF0213AB9002C2E0B43111900299
:10129800C1E0B4300AA37433F09002C17431F09005
:1012A80002C2E0B430129002C1E06430600AA37454
:1012B8003AF09002C1E014F09002C20213AB90021F
:1012C800C5E0B431109002C4E0B43009A37432F020
:1012D8009002C404F09002C5E0B430129002C4E059
:1012E8006430600AA3743AF09002C4E014F09002EB
:1012F800C50213AB9002C8E0B430119002C7E0B445
:10130800300AA37434F09002C77432F09002C8E037
:10131800B430129002C7E06430600AA3743AF090C7
:1013280002C7E014F09002C880799002CBE0B43094
:10133800119002CAE0B4300AA3743AF09002CA7459
:1013480035F09002CBE0B430129002CAE06430600D
:101358000AA3743AF09002CAE014F09002CB8043DA
:101368009002CEE0B430119002CDE0B4300AA374FC
:101378003AF09002CD7435F09002CEE0B43012907D
:1013880002CDE06430600AA3743AF09002CDE01414
:10139800F09002CE800D9002D0E0B431037438F0A2
:1013A8009002D0E014F030A5FD900015E0D394072A
:0B13B8005003020D2B7401F0020D2BFE
:104B7D0090002D7401F0A37420F074FFA3F0A3F046
:104B8D007BF07A007D207C01E4FFFE1233627BFF17
:104B9D007A4379319001667420F074FFA3F0A3F08D
:104BAD007411A3F0A3F07D207C017F147E00123DD3
:104BBD004B7BFF7A4379349001667420F0A374A285
:104BCD00F0A37454F07411A3F0A3F07D207C017F49
:104BDD00687E00123D4B90002D7401F0A37430F0EF
:104BED0074FFA3F0A3F07B837A007D307C017F6C92
:104BFD007E0012336290002D7401F0A3743BF074AB
:104C0D00FFA3F0A3F07B787A007D257C017F787E71
:104C1D000012336290002D7401F0A37440F074FF04
:104C2D00A3F0A3F07B507A007D207C017F507E00A5
:104C3D0012336290002D7401F0A37440F074FFA341
:104C4D00F0A3F07BA07A007D207C017FA07E001276
:104C5D0033627BFF7A4379379001667420F074FFDD
:104C6D00A3F0A3F07411A3F0A3F07D207C017FBB12
:054C7D007E00023D4B2A
:10434100900016EBF0A3EAF0A3E9F090001CE0FE68
:10435100A3E0FFC39450EE64809480503AEF940040
:10436100EE6480948040307BFF7A4379319001661E
:104371007420F074FFA3F0A3F0A3E4F0A3741FF082
:104381007D207C017F147E00123D4B900016A3E03E
:10439100FAA3E0F912095A90001CE0FEA3E0FFD352
:1043A1009450EE648094805003024440EF94A0EE58
:1043B1006480948040030244407BFF7A43793490C7
:1043C10001667420F0A374A2F0A37454F0A3E4F086
:1043D100A3741FF07D207C017F687E00123D4B900D
:1043E100002D7401F0A37430F074FFA3F0A3F07BEF
:1043F100837A007D307C017F6C7E001233629000F5
:104401002D7401F0A3743BF074FFA3F0A3F07B784B
:104411007A007D257C017F787E0012336290002D29
:104421007401F0A37440F074FFA3F0A3F07B507A01
:10443100007D207C017F507E001233621226B090F5
:10444100001CE0FEA3E0FFD394A0EE6480948040C2
:104451003AEF94F0EE6480948050307BFF7A437998
:10446100379001667420F074FFA3F0A3F0A3E4F089
:10447100A3741FF07D207C017FBB7E00123D4B9019
:0C4481000019A3E0FAA3E0F912095A2286
:10496D00E490000CF0A3F07F1D7E051250AB90017A
:10497D0065E4F0A37432F0A3E4F0A3741FF07B9808
:10498D007A007D3C7C007F2D7E00124D7990001CBD
:10499D00E4F0A3741EF0A374F8F0A3E4F07B84FAA2
:1049AD007D46FC7F37FE122B14124B7D90000CE0E0
:1049BD00FEA3E0FFF44E6004EF4E70557B017A00CC
:1049CD00790E1259457BFF7A4279F7900166741082
:1049DD00F0A374F8F0A3E4F07411A3F0A3F07D4EEE
:1049ED007C007F387E00123D4B7B017A00790E9062
:1049FD00001D74F8F0A3E4F074FFA3F0A3F07D4E56
:104A0D007C007F807E00124FF590000CE4F0A30433
:104A1D00F090000DE004F0700690000CE004F01230
:104A2D004F289002D4E0FEA3E0FFD39420EE940132
:104A3D0050030249B9EF9440EE940140030249B985
:104A4D0090001974FFF0A37426F0A374B0F09002D7
:104A5D00D2E0FFA3E090001CCFF0A3EFF07BFF7A34
:094A6D002679B01243410249B957
:1030AC0090000C74F8F0A3E4F07F1D7E051250AB79
:1030BC009001657401F0A37420F074FFA3F0A3F0E9
:1030CC007BF07A00E4FDFCFFFE124D79900165E483
:1030DC00F0A37418F0A37405F0A3741DF07BF07AC0
:1030EC00007D087C01E4FFFE124D79900165E4F04F
:1030FC00A37418F074FFA3F0A3F07B187A007D087A
:10310C007C01E4FFFE124D79900165E4F0A3741884
:10311C00F0E4A3F0A3F07B18FA7D087C017F18FE85
:10312C00124D79900165E4F0A37418F0A374C6F005
:10313C00A37418F0FB7A007D087C017F307E0012AE
:10314C004D79900165E4F0A37418F0A3E4F0A37436
:10315C001FF07B187A007D087C017F487E00124DA1
:10316C0079900165E4F0A37418F0A374F8F0A3E46B
:10317C00F07B18FA7D087C017F60FE124D7990017E
:10318C0065E4F0A37418F0A374F8F0A3741FF07B3B
:10319C00187A007D087C017F787E00124D799001B1
:1031AC0065E4F0A37418F0A37407F0A374E0F07B4B
:1031BC00187A007D087C017F907E00124D79900179
:1031CC0065E4F0A37418F0A3747FF0A374FFF07B94
:1031DC00187A007D087C017FA87E00124D79900141
:1031EC0065E4F0A37418F0A374FFF0A374E0F07B13
:1031FC00187A007D087C017FC07E00124D79900109
:10320C0065E4F0A37418F0A374B7F0A37423F07BF7
:10321C00187A007D087C017FD87E00124D79124B04
:10322C007D124F289002D4E0FEA3E0FFD39400EE71
:10323C0094004021EF9408EE940150199002D2E0D2
:10324C00FEA3E0FFA3E0FCA3E0FD90000CE0FAA3DA
:10325C00E0FB1254709002D4E0FEA3E0FFD3942064
:10326C00EE9401402EEF9440EE94015026900019FC
:10327C0074FFF0A37426F0A374B0F09002D2E0FFB8
:10328C00A3E090001CCFF0A3EFF07BFF7A2679B07F
:10329C001243419002D4E0FEA3E0FFD39408EE94D5
:1032AC0001500302322DEF9420EE940140030232C0
:1032BC002D9002D2E0FEA3E0FF7C007D18120732B5
:1032CC00EFB40A00400302322D9032DCF828287348
:1032DC000232FA0232FE02330802331502331B02A9
:1032EC00332702333402333B02334802335574FF25
:1032FC008001E490000CF0A3F002322D90000C74CD
:10330C00C6F0A37418F002322D90000CE4801190DA
:10331C00000C74F8F0A3E4F002322D90000C74F859
:10332C00F0A3741FF002322D90000C7407801290E1
:10333C00000C747FF0A374FFF002322D90000C741B
:10334C00FFF0A374E0F002322D90000C74B7F0A3E0
:06335C007423F002322D83
:0600030025372E336600D4
:105CA100EF25E02405FFEFD3940040077E05DEFEDB
:035CB1001F80F35E
:015CB40022CD
:105CB500EFD39400400D00007E207D1CDDFEDEFC50
:035CC5001F80ED50
:015CC80022B9
:105B0A00C200D2807F05125CA1C2807FC8125CA14C
:105B1A007FC8125CA1D2807F32125CA1A28092005F
:075B2A007F19125CA1A2002B
:015B31002251
:105BC700E4FC7D08C280ECC313FCD2803080034420
:0B5BD70080FC7F19125CA1DDEBAF0425
:015BE20022A0
:025BE300AD070C
:105BE5007B08C280ED1392807F19125CA1D280EDF3
:0A5BF500C313FDDBED7F19025CA174
:1059FB00E4FBFFFEFDFC125B0A7FCC125BE37F44F2
:105A0B00125BE37F0A125CB5125B0A7FCC125BE37D
:105A1B007FBE125BE3125BC7AB07125BC7EF7F0066
:095A2B00FEEF2BFDE43EFEAF0589
:015A3400224F
:0B594500900015EBF0A3EAF0A3E9F0DE
:105950001259FBAD07AC06E4120356E4FBFA79805A
:10596000783D12013E90001B74FFF0A37400F0A379
:105970007403F0A31208AA900015E0FBA3E0FAA3B9
:05598000E0F902229293
:08578400C10A4302EA0102D64A
:105B5200538EF7759A50438E04200003759C98303B
:0E5B62000003759CF7438E10D2AF75AF012281
:0B5D3B008F9BE59A30E1FB539AFD229C
:105CC900E94A600EAF01125D3B740129F9E43AFA21
:035CD90080EE2238
:030043000256CE94
:1056CE00C0E0C0F0C083C082C0D075D000C000C0A2
:1056DE0001C002C003200A0E9002EA7401F0A37406
:1056EE0002F0A374D6F0E59A30E02ED20A539AFE59
:1056FE009002EAE0FBA3E0FAA3E0F9E59B1206FEB6
:10570E009002EBE475F0011207879002EAE0FBA32A
:10571E00E0FAA3E0F9E41206FED003D002D001D0E5
:0C572E0000D0D0D082D083D0F0D0E03288
:105904006465736B746F70000000FF26B07374617C
:1059140072746368000000FF3819706963626F78FD
:1059240000000000FF30AC74656D70657274000097
:1059340000FF496D63616C656E6461720000FF3E37
:01594400D38F
:0B565900900008EBF0A3EAF0A3E9F0DA
:10566400900009E475F003120787E490000BF090B2
:10567400000BE0FFC394055050EF75F00DA4240413
:10568400F9745935F0FA7BFFC003C002900008E0BA
:10569400FBA3E0FAA3E0F8AC02AD03D002D00312FE
:1056A4000B0BEF701C90000BE075F00DA4240EF5AD
:1056B40082E43459F583740193FA740293F912095C
:0956C4005A90000BE004F080A6EE
:0156CD0022BA
:105CDC001206B8B4410B9000011206D1B45402D391
:035CEC0022C322AE
:100046000203FBE86480F8E933E83360110460F0EA
:10005600ED33EC337009E8FCE9FDEAFEEBFF220420
:1000660060DED3EB9FEA9EE99DE8C2E78CF0C2F71B
:1000760095F0400CE8CCF8E9CDF9EACEFAEBCFFBE7
:100086001203C685D0F05804700320D5B3E8047077
:10009600075002B2D502040592D5EC0460F7E4CC11
:1000A600C0E0C398F8603B94186008400DD0E0FBB0
:1000B6000203DDE4FBFAC9FC8028E830E406E4C963
:1000C600FBE4CAFCE830E305E4C9CACBFCE8540704
:1000D6006010F8C3E913F9EA13FAEB13FBEC13FC0F
:1000E600D8F130F52FC3E49CFCEF9BFFEE9AFEEDB2
:1000F60099FDD0E0FBEF4E4D4C701222DB0302045B
:1001060002EC2CFCEF33FFEE33FEED33FDED30E772
:10011600EB0203DDEF2BFFEE3AFEED39FDD0E0FBFF
:1001260050130BBB0003020405ED13FDEE13FEEFA7
:0801360013FFEC13FC0203DDD2
:10013E00EC4D6011E8497017ED33EC3304600DE4BB
:10014E00FCFFFEFD22E933E8330470F80203FB12D4
:10015E0003C658046009E4CC2481500628500902D5
:10016E000405284003020402C0E0EB4A7044B98043
:10017E0006D0E0FB0203F1EF4E701CBD8008EBFFD2
:10018E00EAFEE9FD80EBE98DF0A4FEE5F002022720
:10019E00E9CDF9EAFEEBFFEF89F0A4FCE5F0CE899C
:1001AE00F0A42EFFE435F0CD89F0A42DFEE435F059
:1001BE008067EF4E7005BD80D780C3EF8BF0A4AC87
:1001CE00F0EE8BF0A42CFCE435F0F8EF8AF0A42CC2
:1001DE00E5F038FCE433CB8DF0A42CFCE5F03BF8D5
:1001EE00EE8AF0A42CFCE5F038F8E433CF89F0A4C5
:1001FE002CFCE5F038CF3400CE89F0A42FFFE5F0CB
:10020E003EFEE433C98DF0A42EFEE5F039CD8AF022
:10021E00A42FFFE5F03EFEE43DFD33D0E0FB50079A
:10022E000BBB000F020405EC2CFCEF33FFEE33FE8C
:06023E00ED33FD0203DDBB
:10024400020405EC5D046005E8590470030203FB35
:100254001203C6580460F6EC4860F2EC7004FDFE2C
:10026400FF22C860DB2481C85009C398600250068D
:100274000204029850CAF582E9294B4A7005AB8200
:100284000203F175F0007C1A7880C3EF9BEE9AEDBF
:1002940099400DC3EF9BFFEE9AFEED99FDE842F005
:1002A400DC23ACF0D0E0FFD0E0FED0E0FDAB822058
:1002B400E7101BEB60BAEC2CFCEF33FFEE33FEEDE2
:1002C40033FD0203DDE803F830E705C0F075F00004
:1002D400EF2FFFEE33FEED33FD40B830E7C280AAC6
:1002E40074F8CC6480CCC86480C8F582046043C3CD
:1002F400EB9FF5F0EA9E42F0E99D42F0E89C45F060
:1003040060305018E5825FFFE582F42B5582FB5084
:10031400210ABA001D09B90019088016E5825BFBA1
:10032400E582F42F5582FF50090EBE00050DBD0075
:10033400010CC3EB9FF5F0EA9E42F0E99D42F0E820
:0D0344009C45F06007CC4820E701B3EC2297
:1003510075F020800E75F010800575F0087D007E27
:10036100007F003392D530D50312084CEC33401096
:10037100EF33FFEE33FEED33FDEC33FCD5F0ED2230
:0E038100E5F0247EA2D513CC92E7CDCEFF226C
:10038F00EDD2E7CD33EC3392D524814006E4FFFE66
:10039F00FDFC22FCE4CFCECDCC24E0501174FF80C5
:1003AF00EDC3CC13CCCD13CDCE13CECF13CF047062
:0703BF00F030D5DE02084C0E
:10222D00E508241BF582E43400F583E005082290CF
:10223D00001830070390001BE475F0011208E70247
:10224D0006B82000E97F2ED2008018EF540F24909D
:10225D00D43440D4FF30040BEF24BFB41A00500324
:10226D002461FFE50960021509050CE50C700205F6
:10227D000B30070E900018E475F0011208E7EF021D
:10228D0006FE024A767403D2078003E4C207F508FE
:10229D009000181208FEE4F509F50BF50CE5096040
:1022AD00077F2012227080F5750AFFC201C200C29D
:1022BD0002C203C205C206C20812223CFF700D30D5
:1022CD0007057F00122281AF0CAE0B22B4255FC231
:1022DD00D5C20412223CFF24D0B40A00501A75F066
:1022ED000A780930D50508B6FF0106C6A426F620E2
:1022FD00D5047002D20380D924CFB41A00EF500454
:10230D00C2E5D204022573D20180C6D20080C0D2AC
:10231D000280BCD2D580BAD20580B47F2012227043
:10232D002002077401B5090040F112222DFF12227F
:10233D00700222AAD208D206809512222DFB1222FB
:10234D002DFA12222DF94A4B700679717A267BFFF0
:10235D0020022EE509602A7E008E8275830012060A
:10236D00D160060EEE650A70F0C2D5EBC0E0EAC092
:10237D00E0E9C0E0EE1225D4D0E0F9D0E0FAD0E0EB
:10238D00FB1206B8FF60AAEBC0E0EAC0E0E9C0E0CE
:10239D00122270D0E02401F9D0E03400FAD0E0FB35
:1023AD00E50A0460DCD50AD98087D20280A2122505
:1023BD00B660F7E50A700104120410A90A600DE574
:1023CD000A600914F50A12265EEF60F3EA30E7029F
:1023DD00F404C3995079EAF4250A0430E701E404C2
:1023ED00F50A800D1225B660C1EA050A250A120408
:1023FD0010EA900047F030E701E4250A04D50A04FD
:10240D00200501141225D4E4C0E012265E90004789
:10241D00E0601320E70714F0122258802204F0D058
:10242D00E014C0E07F00122258E50A600712224F27
:10243D00150A800B30050312224FD0E00222AAD0DC
:10244D00E00480C41225B6609EE50A0412041090C3
:10245D000047EAF0E50A2005026001042404122574
:01246D00D49A
:10246E0074FF04C0E012265E122258E50A2005020F
:10247E00600312224FD0E0B50AE87F451222629027
:10248E000047E07F2B30E7047F2DF404C0E01222DA
:10249E0070D0E075F00A84C0F0122259D0E01222FA
:1024AE00590222AA791080027908C206C208800851
:1024BE00D2D5790A8004790AC2D5E50A047002F5EC
:1024CE000AE4FAFDFEFF12222DFC7B0820011312F6
:1024DE00222DFD7B1030000A12222DFE12222DFF1E
:1024EE007B20EC3382D592D55013C3E43000069F87
:1024FE00FFE49EFEE42001039DFDE49CFCE4CBF88A
:10250E00C201EC700CCFCECDCCE824F8F870F3807D
:10251E0017C3EF33FFEE33FEED33FDEC33FCEB333D
:10252E00FB994002FB0FD8E9EB300105F8D0E0C46F
:10253E0048B201C0E00AEC4D4E4F78207B0070C2CD
:10254E00EAB50A0040BCC0E01225D6D0F0D0E0209B
:10255E000104C4C0E0C4B201C0F0122259D0F0D5BB
:10256E00F0EB0222AA12090723475324B25823186C
:10257E004C23144224B64F24BE4424BE49232D437B
:10258E0024C45523F14624514523BB47269150239D
:10259E001C2D23202E23432B232423234120267A54
:1025AE002A22DC480000233BE50AB4FF03750A0625
:1025BE0012222DFC12222DFD12222DFE12222DFF93
:1025CE0090004002044D790AA2D52003143005096B
:1025DE00B910020404B9080104A2D5200602500164
:1025EE00042002689202B509005034C0E07F20300A
:1025FE0003197F30A20272067205500F12262DC2E9
:10260E0002C206C205C2087F30800F300503E9C042
:10261E00E0122270300503D0E0F9D0E0B509CC30DD
:10262E0005177F30B9100C1222707F583004077FC7
:10263E00788003B908031222703002057F2D022222
:10264E00707F202008F87F2B2006F322920280CF85
:10265E007F00B40700500B2440F582E43400F5836C
:10266E00E0FF22286E756C6C2900D20112222D30EB
:10267E0001F8C201780930D50108F60222DC2D508E
:10268E0043495812222D2403B405004001E490263C
:10269E008C93122261743A122261D20375090402DC
:0226AE0024B254
:105159000203FB22EDA2E7D2E7F9EC3340F260F358
:10516900B4FF08ED547F70E8020405F82481C2E019
:10517900C0E0F40428FAC313FCED92E7FD90002186
:105189001208AAEEA2E7E9BA7F02C3133400940019
:10519900FA75F091A4E5F013F494FE8AF0A433E5CE
:1051A900F033248CD313FDE492E7FE7F007C3F7536
:1051B9008302ECC0E0F8EDC0E0F9EEC0E0FAEFC020
:1051C900E0FB8583F090002112087E85F0831202AE
:1051D90047D0E0FBD0E0FAD0E0F9D0E0F812004D7A
:1051E900ED6480FD30E7011CD583C7ED33CC33F87E
:0C51F900D0E0A2E71328C313CC13FD2262
:1003C600E9D2E7C933E833F892D5EDD2E7CD33EC7D
:0703D60033FC5002B2D522F6
:1003DD00EC30E7100FBF000C0EBE00080DBD000481
:1003ED000BEB6014A2D5EB13FCED92E7FD2274FF2D
:1003FD00FCFDFEFF22E480F8A2D574FF13FC7D8086
:03040D00E480EF99
:10041000F920E73624F950037907E4F42402FBE5D8
:1004200082158270021583DBF6E024FB501BE96025
:1004300014E4F0E582158270021583E004F0B40A3A
:0D04400008E4F0D9EE7401F00A22C2D522C2
:10044D00ED33EC3392D5FA602AB4FF33EDC2E77B7E
:10045D00FF60067A047972E4227A04797B20D50450
:10046D007A047976224E614E002B494E46002D4975
:10047D004E4600E47A08F0A3DAFC7B00740722C034
:10048D0083C082ECC0E0EDC0E0EEC0E0EFC0E0EA7A
:10049D0075F010A4CAABF075F04DA42BFBE435F04C
:1004AD00FCEA2410FAEB34C5FBEC34D9FCEDC2E7C1
:1004BD00FF75F056A4F42411C5F0F434C58FF0A4E3
:1004CD002AE5F03BE43CF020E714120582D0E0FF72
:1004DD00D0E0FED0E0FDD0E0FC1202478014F40421
:1004ED00120582D0E0FFD0E0FED0E0FDD0E0FC129E
:1004FD00013ED082D083E0FAEDD2E7CD33EC332448
:10050D0082FBE4C3CF33CFCE33CECD33CD33DBF34C
:10051D007B0775F00A846004F0A31B0AE5F0F0A3D5
:10052D008FF0740AA4FFACF08EF0740AA42CFEAC0C
:10053D00F050010C8DF0740AA42CFDE435F0F0A3FD
:05054D00DBDE74072253
:100552003F8000004120000042C80000447A0000B1
:10056200461C400047C35000497424004B18968033
:100572004CBEBC205A0E1BCA6753C21C749DC5AE2A
:10058200FB60065407601C23231205B0EB5438604D
:100592000912059C1205AB12013EECF8EDF9EEFAD8
:1005A200EFCB22EB1205AB80F1543803241C9005EB
:1005B20052FE93FC0EEE93FD0EEE930ECE93FF22AF
:1053F000025B70E493A3F8E493A34003F68001F208
:1054000008DFF48029E493A3F85407240CC8C333BD
:10541000C4540F4420C8834004F456800146F6DF8C
:10542000E4800B010204081020408090573AE47E8B
:10543000019360BCA3FF543F30E509541FFEE49381
:10544000A360010ECF54C025E060A840B8E493A348
:10545000FAE493A3F8E493A3C8C582C8CAC583CA73
:10546000F0A3C8C582C8CAC583CADFE9DEE780BE2B
:01578C00001C
:1005C200E709F608DFFA8046E709F208DFFA803E1B
:1005D20088828C83E709F0A3DFFA8032E309F60808
:1005E200DFFA8078E309F208DFFA807088828C8370
:1005F200E309F0A3DFFA806489828A83E0A3F60824
:10060200DFFA805889828A83E0A3F208DFFA804CFD
:1006120080D280FA80C680D4806980F280338010D4
:1006220080A680EA809A80A880DA80E280CA80333D
:1006320089828A83ECFAE493A3C8C582C8CCC583B5
:10064200CCF0A3C8C582C8CCC583CCDFE9DEE78085
:100652000D89828A83E493A3F608DFF9ECFAA9F004
:10066200EDFB2289828A83ECFAE0A3C8C582C8CC5A
:10067200C583CCF0A3C8C582C8CCC583CCDFEADE73
:10068200E880DB89828A83E493A3F208DFF980CCD5
:1006920088F0EF60010E4E60C388F0ED2402B404CE
:1006A2000050B9F582EB2402B4040050AF23234575
:0606B20082239006127382
:1006B800BB010689828A83E0225002E722BBFE0240
:0906C800E32289828A83E4932273
:1006D100BB010CE58229F582E5833AF583E02250DE
:1006E10006E92582F8E622BBFE06E92582F8E22228
:0D06F100E58229F582E5833AF583E4932242
:1006FE00BB010689828A83F0225002F722BBFE01DB
:02070E00F322D4
:10071000F8BB010DE58229F582E5833AF583E8F01F
:10072000225006E92582C8F622BBFE05E92582C8CB
