:0300000002592979
:0C592900787FE4F6D8FD758121025970EA
:103E3000C8D5C0FA00CEC2B6C800B5E7BBB000CF47
:103E4000E0B2E100D3B2BCFEBCECB2E200BBADB06C
:103E5000E500B4AEBFDAD6FACAD600535049D6FA56
:103E6000CAD6004C454400B5E7BBB0B9A6C4DCCE09
:103E7000B4BFAAB7C5A3A100CFE0B2E1B9A6C4DC24
:103E8000CEB4BFAAB7C5A3A100B4AEBFDAD6FACAF2
:103E9000D6CEB4BFAAB7C5A3A100535049D6FACA1B
:103EA000D6CEB4BFAAB7C5004861726477617265A7
:103EB00020436865636B2052756E6E696E67002AD9
:103EC0002A2A2A2A2A2A466C617368204368656375
:103ED0006B2A2A2A2A2A2A2A0057323551383000DA
:103EE000573235513136005732355133320057325F
:103EF0003551363400466C617368204572726F72BA
:103F0000002A2A2A2ACAB1D6D3BCECB2E22A2A2A2B
:103F10002A00B6C1C8A1CAB1BCE4D6D02E2E2E004C
:103F20002A2A2A2ACEC2B6C8BCECB2E22A2A2A2AF7
:103F300000B6C1C8A1CEC2B6C8D6D02E2E2E00B5AE
:103F4000B1C7B0CEC2B6C8A3BA002A2A2A2A4C45A5
:103F500044BCECB2E22A2A2A2A004C45443120C152
:103F6000C1004C45443220C1C1004C45443320C1FE
:103F7000C1004C45442020B9D8002A2A2A2AB7E497
:103F8000C3F9C6F7B2E2CAD42A2A2A2A00BEAFB8B9
:103F9000E633C9F900D6DC00C9E8B6A8CFB5CDB381
:103FA000CAB1BCE400A1F800A88B004E657874008B
:103FB0004F6B00D2D1C9E8B6A8CFB5CDB3CAB1BC5A
:103FC000E4A3A100A1FB00A1F600A1FE004C454422
:103FD000BFD8D6C6004C454431004C454432004C55
:103FE00045443300B9D800BFAA000000000000001B
:013FF00000D0
:105C8D005602BD00000000000000000000000000F2
:0B5C9D00000000000000000000C10932
:1026BC00E4900000F0A3F0C28C74FFFFFE1255F002
:1026CC00900008E4F0A37443F0A31208C200600C5D
:1026DC00A07B917A007D147C007F0A7E00124B97C0
:1026EC007BFF7A3E79309001677410F074FFA3F091
:1026FC00A3F07411A3F0A3F07D477C007F0A7E0049
:10270C0012433E900008E4F0A37443F0A31208C2F5
:10271C00006058867B467A007D147C007FA07E008A
:10272C00124B977BFF7A3E79359001677410F074E9
:10273C00FFA3F0A3F07411A3F0A3F07D477C007FFE
:10274C00A07E0012433E900008E4F0A37444F0A372
:10275C001208C200607D2A7B467A007D5D7C007F7A
:10276C000A7E00124B977BFF7A3E793A9001677490
:10277C0010F074FFA3F0A3F07411A3F0A3F07D91FB
:10278C007C007F0A7E0012433E900008E4F0A374A4
:10279C0044F0A31208C20060A25A7B467A007D5D09
:1027AC007C007F557E00124B977BFF7A3E793F90E1
:1027BC0001677410F074FFA3F0A3F07411A3F0A3DD
:1027CC00F07D917C007F557E0012433E900008E422
:1027DC00F0A37444F0A31208C20060C78A7B467A47
:1027EC00007D5D7C007FA07E00124B977BFF7A3EC4
:1027FC0079449001677410F074FFA3F0A3F0741186
:10280C00A3F0A3F07D917C007FA07E0012433E904C
:10281C000008E4F0A37444F0A31208C20060ECBA00
:10282C007B467A007DA67C007F0A7E00124B977B4C
:10283C00FF7A3E794D9001677410F074FFA3F0A3FA
:10284C00F07411A3F0A3F07DDA7C007F0A7E0012F5
:10285C00433E900008E4F0A37444F0A31208C200B5
:10286C006111EA7B917A007DA67C007F557E001277
:10287C004B977BFF7A3E79529001677410F074FF8E
:10288C00A3F0A3F07411A3F0A3F07DDA7C007F55C4
:10289C007E0012433E900008E4F0A37441F0A312B2
:1028AC0008C200615EF27B917A007DEF7C007F0AAA
:1028BC007E00124B977BFF7A3E795B900167741018
:1028CC00F074FFA3F0A3F07411A3F0A3F07D207CAF
:1028DC00017F0A7E0012433E900008E4F0A374418D
:1028EC00F0A31208C20061A8947B467A007DEF7CAD
:1028FC00007FA07E00124B977BFF7A3E796390019C
:10290C00677410F074FFA3F0A3F07411A3F0A3F09C
:10291C007D207C017FA07E0012433E125FCBD28CC7
:10292C00E49002D3F0A3F0A3F0A3F0900000E0B485
:10293C000B0FA3E0B4FF0A125FCBE4900000F0A3EE
:10294C00F0900001E004F07006900000E004F0123A
:10295C0053BF9002D3E0FEA3E0FFC3940AEE9400B1
:10296C004011D3EF9450EE940050089002D3E4F051
:10297C00A304F09002D3E0FEA3E0FFC39455EE94C1
:10298C00004012D3EF949BEE940050099002D3E4D4
:10299C00F0A37402F09002D3E0FEA3E0FFC394A076
:1029AC00EE94004012D3EF94DCEE940050099002A8
:1029BC00D3E4F0A37403F09002D5E0FEA3E0FFC3D0
:1029CC00941EEE94004011D3EF9458EE94005008EE
:1029DC009002D5E4F0A304F09002D5E0FEA3E0FF52
:1029EC00C3945DEE94004012D3EF94A1EE9400508A
:1029FC00099002D5E4F0A37402F09002D5E0FEA396
:102A0C00E0FFC394A6EE94004012D3EF94EAEE9448
:102A1C000050099002D5E4F0A37403F09002D5E0C5
:102A2C00FEA3E0FFC394EFEE94004012D3EF943377
:102A3C00EE940150099002D5E4F0A37404F09002D6
:102A4C00D5E0FEA3E0FFEE600302292CEF24FE602C
:102A5C003B14606B147003022AFE240360030229EA
:102A6C002C9002D3E0FEA3E0FFEE600302292CEFD2
:102A7C0024FE600C14600F2402600302292C8000D9
:102A8C001244C602292C124DF102292C9002D3E0DB
:102A9C00FEA3E0FFEE600302292CEF24FE6012146B
:102AAC0060172402600302292C7BFF7A3E79678031
:102ABC006C7BFF7A3E79788064122E390226C390A3
:102ACC0002D3E0FEA3E0FFEE600302292CEF24FE0C
:102ADC0060101460152402600302292C12340D02BC
:102AEC00292C7BFF7A3E798980337BFF7A3E79896A
:102AFC00802B9002D3E0FEA3E0FFEE600302292CB2
:102B0C00EF24FE601214601F2402600302292C7B48
:102B1C00FF7A3E799A80067BFF7A3E799A74FFFDA4
:0D2B2C00FC125AB202292C122B3902292C5E
:105F470074FFFFFE1255F0900008E4F0A374AEF062
:105F5700A31208C2005F4E507B8C7A007D497C00FB
:0E5F67007F3C7E00124B977FFF7E0F02606D25
:102E3900E4FFFE1255F07BFF7A3E79A890001E74DC
:102E490007F0A374E0F0E4A3F0A3F0FDFCFFFE1289
:102E5900548C7BFF7A3E79BF90001E7407F0A374EF
:102E6900E0F0E4A3F0A3F07D10FCFFFE12548C12F5
:102E79005E14EF8EF01209392E95EF132E9DEF1483
:102E89002EA5EF152EADEF1600002ED27BFF7A3E50
:102E990079D980167BFF7A3E79E0800E7BFF7A3EF6
:102EA90079E780067BFF7A3E79EE9001677410F02E
:102EB900A374F8F0A3E4F074FFA3F0A3F07D207CE1
:102EC90000E4FFFE12433E80267BFF7A3E79F590AF
:102ED900001E74F8F0A3E4F074FFA3F0A3F07D20C2
:102EE9007C00E4FFFE12548C7FFF7E0F12606D7F21
:102EF900FF7E0012606D7BFF7A3F79019001677454
:102F090010F0A37407F0A374E0F0E4A3F0A3F07D3C
:102F190030FCFFFE12433E7BFF7A3F791290016736
:102F29007410F0A374F8F0A3E4F074FFA3F0A3F015
:102F39007D407C00E4FFFE12433E7B017A0279BDAD
:102F4900124CD37B017A0279BD9001677410F0A30A
:102F590074F8F0A3E4F074FFA3F0A3F07D507C00B3
:102F6900E4FFFE12433E7FFF7E0012606D7BFF7A15
:102F79003F79209001677410F0A37407F0A374E0FF
:102F8900F0E4A3F0A3F07D60FCFFFE12433E7BFF5B
:102F99007A3F79319001677410F0A374F8F0A3E4D3
:102FA900F074FFA3F0A3F07D707C00E4FFFE1243F0
:102FB9003E7B017A00790D125E577FFF7E07126012
:102FC9006D7B017A00790D125E577BFF7A3F793F5D
:102FD9009001677410F0A37407F0A374E0F0741102
:102FE900A3F0A3F07D807C00E4FFFE12433E7B0149
:102FF9007A00790D90001E74F8F0A3E4F074FFA331
:10300900F0A3F07D807C007F507E0012548C7BFF02
:103019007A3F794A9001677410F0A37407F0A3749A
:10302900E0F0E4A3F0A3F07D90FCFFFE12433EC262
:10303900857BFF7A3F795A9001677410F0A374F881
:10304900F0A3E4F074FFA3F0A3F07DA07C00E4FFFB
:10305900FE12433E126069C2867BFF7A3F79629015
:1030690001677410F0A374F8F0A3E4F074FFA3F0FF
:10307900A3F07DA07C00E4FFFE12433E126069C20A
:10308900877BFF7A3F796A9001677410F0A374F81F
:10309900F0A3E4F074FFA3F0A3F07DA07C00E4FFAB
:1030A900FE12433E1260691200037BFF7A3F797278
:1030B9009001677410F0A374F8F0A3E4F074FFA30F
:1030C900F0A3F07DA07C00E4FFFE12433E1260698C
:1030D9007BFF7A3F797A9001677410F0A37407F047
:1030E900A374E0F0E4A3F0A3F07DB0FCFFFE12436B
:1030F9003E7BFF7A3F798D9001677410F0A374F8D5
:10310900F0A3E4F074FFA3F0A3F07DC07C00E4FF1A
:10311900FE12433E7F037E001260447FFF7E0F0252
:02312900606DD7
:105AB20090015BEBF0A3EAF0A3E9F0A3ECF0A3ED15
:015AC200F0F3
:105AC30090015BE0FBA3E0FAA3E0F9900167741097
:105AD300F0A374F8F0A3E4F090015EE0FFA3E0907C
:105AE300016ACFF0A3EFF0E4FDFCFFFE12433E7F1B
:105AF300FF7E0712606D90015BE0FBA3E0FAA3E079
:105B0300F9126245EF75F008A4FB7A00900166E490
:105B1300F0A37410F090015EE0FFA3E0900168CF62
:0C5B2300F0A3EFF0E4FDFCFFFE025210C6
:1053BF009000067401F0A37402F0A374D5F07B0182
:0453CF007A0279D312
:1053D300900003EBF0A3EAF0A3E9F0A3E0F9A3E064
:1053E300FAA3E0900020C9F0A3EAF0A3E9F090004B
:1053F30003E0FBA3E0FAA3E0F9124925900003E0E0
:10540300FBA3E0FAA3E0F91207BFFDACF0E412033B
:10541300627BE17A7A797078411202477B9A7A99B2
:10542300796D78C112004D12039B900003E0FBA33A
:10543300E0FAA3E0F9EE8FF01207EA900006E0FB32
:10544300A3E0FAA3E0F91207BFFDACF0E412036294
:105453007BC37AF5792C78411202477BF67A287957
:105463008C78C112004D12039B900006E0FBA3E071
:10547300FAA3E0F9EE8FF01207EA30090BC2097BB9
:09548300017A0279D71259B52211
:10574A00900017EBF0A3EAF0A3E9F0A3E0F9A3E0D5
:10575A00FAA3E0900020C9F0A3EAF0A3E9F09000D0
:10576A0017E0FBA3E0FAA3E0F9124925900017E03D
:10577A00FBA3E0FAA3E0F91207BFFDACF0E41203C1
:10578A00627BE17A7A797078411202477B9A7A9938
:10579A00796D78C112004D12039B900017E0FBA3AC
:1057AA00E0FAA3E0F9EE8FF01207EA90001AE0FBA4
:1057BA00A3E0FAA3E0F91207BFFDACF0E41203621A
:1057CA007BC37AF5792C78411202477BF67A2879DD
:1057DA008C78C112004D12039B90001AE0FBA3E0E3
:0A57EA00FAA3E0F9EE8FF00207EADF
:046069007FFF7E0532
:10606D00E4FDFCC3ED9FEC9E5015E4FBFA0BBB0069
:0F607D00010ABA03F8BBE8F50DBD00010C80E481
:01608C0022F1
:105FCB007B017A0279BD124CD3E49002CDF07B01B8
:105FDB007A0279C890001EF0A3F074FFA3F0A3F02F
:095FEB00E4FDFC7FC8FE02548CA9
:1044C600E490000DF0A3F07B017A0279BD124CD383
:1044D600E49002C4F07F1D7E051255F0900166E45B
:1044E600F0A37414F0A374FFF0A374E0F07B787A61
:1044F600007D3C7C007F3C7E00125210900166E4F9
:10450600F0A37468F074FFA3F0A3F07B787A007DC3
:10451600507C007F3C7E001252107B017A0279BDEE
:1045260090001E74F8F0A3E4F07411A3F0A3F07DDC
:104536003D7C007F3D7E0012548C7BFF7A3F79954F
:104546009001677410F0A374F8F0A3E4F07411A35B
:10455600F0A3F07D3D7C007F967E0012433E7B01FA
:104566007A0279D190001E74F8F0A3E4F07411A3D6
:10457600F0A3F07D3D7C007FA67E0012548CE49073
:1045860002C7F07B017A0279C59001677420F0A317
:1045960074F8F0A3E4F07411A3F0A3F07D6E7C0030
:1045A6007F697E0012433E12501490000DE0FEA378
:1045B600E0FFF47003EE640B6004EF4E70367B018F
:1045C6007A0279BD124CD3E49002CDF07B017A02D7
:1045D60079C890001E74F8F0A3E4F074FFA3F0A36A
:1045E600F07D967C007F647E0012548C90000DE472
:1045F600F0A304F090000EE004F0700690000DE0C9
:1046060004F01253BF9002D5E0FEA3E0FFD394203E
:10461600EE94014095EF9440EE9401508D90001A6F
:1046260074FFF0A3740BF0A37434F09002D3E0FF90
:10463600A3E090001DCFF0A3EFF07BFF7A2679BCB4
:064646001247C50245B059
:100B3400780F7C007D017BFF7A3F79EA7E007F0796
:100B440012069E9000167401F0FB7A0279BD124CD5
:100B5400D37F1D7E051255F07BFF7A3F7998900173
:100B6400677420F074FFA3F0A3F07411A3F0A3F052
:100B74007D147C007F187E0012433E7B017A02794B
:100B8400BD90001E74F8F0A3E4F074FFA3F0A3F08A
:100B94007D807C007F287E0012548C900166E4F0F6
:100BA400A37414F0A374C6F0A37418F07B287A001D
:100BB4007D697C007F647E001252107BFF7A3F794E
:100BC400A59001677410F0E4A3F0A3F07411A3F0EE
:100BD400A3F07D6C7C007F737E0012433E90001D69
:100BE400E4F0A37414F0A3E4F0A3741FF07B287A58
:100BF400007D697C007F647E0012312B900166E4E5
:100C0400F0A37414F0A374C6F0A37418F07B287ACC
:100C1400007D947C007F647E001252107BFF7A3F3B
:100C240079A89001677410F0E4A3F0A3F07411A301
:100C3400F0A3F07D997C007F737E0012433E900008
:100C44001DE4F0A37414F0A3E4F0A3741FF07B2854
:100C54007A007D947C007F647E0012312B900166C3
:100C6400E4F0A37414F0A374C6F0A37418F07B2802
:100C74007A007DB47C007F287E001252107BFF7ABC
:100C84003F79ABE490001EF0A3F07411A3F0A3F03D
:100C94007DB67C007F2A7E0012548C90001DE4F007
:100CA400A37414F0A3E4F0A3741FF07B287A007DEE
:100CB400B47C007F287E0012312B900166E4F0A3FF
:100CC4007414F0A374C6F0A37418F07B287A007D22
:100CD400B47C007FAA7E001252107BFF7A3F79B069
:100CE400E490001EF0A3F07411A3F0A3F07DB67C91
:100CF400007FB97E0012548C90001DE4F0A374149C
:100D0400F0A3E4F0A3741FF07B287A007DB47C0088
:100D14007FAA7E0012312B125014E49002D0F0907E
:100D240002CDF09002CAF09002C7F09002C4F09095
:100D340002C1F0900016E014B407004003020F0B48
:100D4400900D5275F003A4C58325F0C58373020D7D
:100D540067020DA3020DDF020E1B020E57020E9254
:100D6400020ECD7B017A0279BD90001E7407F0A3B8
:100D740074E0F0E4A3F0A3F07D80FC7F28FE12541D
:100D84008C7B017A0279D190001E74F8F0A3E4F010
:100D940074FFA3F0A3F07D807C007FC8020F067B64
:100DA400017A0279C290001E7407F0A374E0F0E4A3
:100DB400A3F0A3F07D80FC7F50FE12548C7B017A5B
:100DC4000279BD90001E74F8F0A3E4F074FFA3F060
:100DD400A3F07D807C007F28020F067B017A0279D4
:100DE400C590001E7407F0A374E0F0E4A3F0A3F030
:100DF4007D80FC7F68FE12548C7B017A0279C2905C
:100E0400001E74F8F0A3E4F074FFA3F0A3F07D8057
:100E14007C007F50020F067B017A0279C890001E85
:100E24007407F0A374E0F0E4A3F0A3F07D80FC7FEA
:100E340080FE12548C7B017A0279C590001E74F8EE
:100E4400F0A3E4F074FFA3F0A3F07D807C007F683E
:100E5400020F067B017A0279CB90001E7407F0A37F
:100E640074E0F0E4A3F0A3F07D80FC7F98FE1254BC
:100E74008C7B017A0279C890001E74F8F0A3E4F028
:100E840074FFA3F0A3F07D807C007F8080747B01DD
:100E94007A0279CE90001E7407F0A374E0F0E4A304
:100EA400F0A3F07D80FC7FB0FE12548C7B017A02AB
:100EB40079CB90001E74F8F0A3E4F074FFA3F0A3C0
:100EC400F07D807C007F9880397B017A0279D19013
:100ED400001E7407F0A374E0F0E4A3F0A3F07D8097
:100EE400FC7FC8FE12548C7B017A0279CE90001EDE
:100EF40074F8F0A3E4F074FFA3F0A3F07D807C0009
:100F04007FB07E0012548C90001A7401F0A3740216
:100F1400F0A374D5F07B017A0279D312574A900278
:100F2400D5E0FEA3E0FFD39420EE9401402EEF948D
:100F340040EE9401502690001A74FFF0A37426F03A
:100F4400A374BCF09002D3E0FFA3E090001DCFF0A7
:100F5400A3EFF07BFF7A4479C61247C59002D3E031
:100F6400FEA3E0FFC39428EE94004029D3EF9450ED
:100F7400EE94005020A3E0FEA3E0FFC394B4EE94EB
:100F8400004012D3EF94C8EE94005009900016E08C
:100F940004F030A5FD9002D3E0FEA3E0FFC39496D5
:100FA400EE9400500302106AD3EF94BEEE94004016
:100FB4000302106AA3E0FEA3E0FFC394B4EE94001E
:100FC400500302106AD3EF94C8EE94004003021059
:100FD4006A9002CEE024D0C454F0FFA3E024D04FA2
:100FE40090000FF09002CBE024D0C454F0FFA3E0B3
:100FF40024D04F900010F09002C8E024D0C454F0E4
:10100400FFA3E024D04F900011F09002C5E024D05B
:10101400C454F0FFA3E024D04F900012F09002C219
:10102400E024D0C454F0FFA3E024D04F900013F088
:101034009002D1E024D0900014F09002BFE024D0BC
:10104400C454F0FFA3E024D04F900015F07B017A44
:1010540000790F1252F07BFF7A3F79B37D1D7C0536
:10106400125AB230A5FD9002D3E0FEA3E0FFC39470
:1010740064EE940050030211FAD3EF948CEE9400C2
:1010840040030211FAA3E0FEA3E0FFC39469EE94C7
:101094000050030211FAD3EF947DEE940040030252
:1010A40011FA900016E014B4070040030211F790FF
:1010B40010C175F003A4C58325F0C583730210D64F
:1010C4000210FA02112C02115E02118B0211B802F5
:1010D40011E89002C0E004F0E0D394394009743080
:1010E400F09002BFE004F09002BFE0D394395003C3
:1010F4000211F70211E39002C3E004F0E0D394324A
:1011040040109002C2E0B43109A37431F09002C2DD
:1011140014F09002C3E0D3943950030211F7900203
:10112400C2E004F0A30211E39002C6E004F0E0D3AD
:10113400943140109002C5E0B43309A37431F090A7
:1011440002C514F09002C6E0D3943950030211F79B
:101154009002C5E004F0A30211E39002C9E004F098
:10116400E0D39433400F9002C8E0B43208A3743043
:10117400F09002C8F09002C9E0D39439407590020F
:10118400C8E004F0A380589002CCE004F0E0D394CB
:1011940039400F9002CBE0B43508A37430F09002CC
:1011A400CBF09002CCE0D3943940489002CBE004D9
:1011B400F0A3802B9002CFE004F0E0D39439400FE9
:1011C4009002CEE0B43508A37430F09002CEF090D3
:1011D40002CFE0D39439401B9002CEE004F0A37414
:1011E40030F0800F9002D1E004F0E0D39437400354
:1011F4007431F030A5FD9002D3E0FEA3E0FFC39468
:1012040064EE940050030213BDD3EF948CEE94006B
:1012140040030213BDA3E0FEA3E0FFC39494EE9445
:101224000050030213BDD3EF94A8EE9400400302D0
:1012340013BD900016E014B4070040030213BA90E3
:10124400125175F003A4C58325F0C5837302126699
:1012540002129B0212D202130802133E02137402FA
:1012640013AA9002C0E0B4300F9002BFE0B430087B
:10127400A37439F09002BFF09002C0E0B430129031
:1012840002BFE06430600AA3743AF09002BFE01435
:10129400F09002C00213B79002C3E0B4311190027F
:1012A400C2E0B4300AA37433F09002C27431F090F7
:1012B40002C3E0B430129002C2E06430600AA37446
:1012C4003AF09002C2E014F09002C30213B7900205
:1012D400C6E0B431109002C5E0B43009A37432F012
:1012E4009002C504F09002C6E0B430129002C5E04A
:1012F4006430600AA3743AF09002C5E014F09002DE
:10130400C60213B79002C9E0B430119002C8E0B429
:10131400300AA37434F09002C87432F09002C9E029
:10132400B430129002C8E06430600AA3743AF090BA
:1013340002C8E014F09002C980799002CCE0B43085
:10134400119002CBE0B4300AA3743AF09002CB744B
:1013540035F09002CCE0B430129002CBE0643060FF
:101364000AA3743AF09002CBE014F09002CC8043CC
:101374009002CFE0B430119002CEE0B4300AA374EE
:101384003AF09002CE7435F09002CFE0B43012906F
:1013940002CEE06430600AA3743AF09002CEE01406
:1013A400F09002CF800D9002D1E0B431037438F094
:1013B4009002D1E014F030A5FD900016E0D394071C
:0B13C4005003020D377401F0020D37DA
:1050140090002D7401F0A37420F074FFA3F0A3F0AA
:105024007BF07A007D207C01E4FFFE1239797BFF5E
:105034007A3F79C49001677420F074FFA3F0A3F061
:105044007411A3F0A3F07D207C017F147E00124331
:105054003E7BFF7A3F79C79001677420F0A374A266
:10506400F0A37454F07411A3F0A3F07D207C017FAD
:10507400687E0012433E90002D7401F0A37430F05A
:1050840074FFA3F0A3F07B837A007D307C017F6CF6
:105094007E0012397990002D7401F0A3743BF074F2
:1050A400FFA3F0A3F07B787A007D257C017F787ED6
:1050B4000012397990002D7401F0A37440F074FF4C
:1050C400A3F0A3F07B507A007D207C017F507E000A
:1050D40012397990002D7401F0A37440F074FFA389
:1050E400F0A3F07BA07A007D207C017FA07E0012DB
:1050F40039797BFF7A3F79CA9001677420F074FF95
:10510400A3F0A3F07411A3F0A3F07D207C017FBB76
:055114007E0002433E95
:1047C500900017EBF0A3EAF0A3E9F090001DE0FEDE
:1047D500A3E0FFC39450EE64809480503AEF9400B8
:1047E500EE6480948040307BFF7A3F79C490016706
:1047F5007420F074FFA3F0A3F0A3E4F0A3741FF0FA
:104805007D207C017F147E0012433E900017A3E0BB
:10481500FAA3E0F912096690001DE0FEA3E0FFD3BC
:104825009450EE6480948050030248C4EF94A0EE47
:104835006480948040030248C47BFF7A3F79C79027
:1048450001677420F0A374A2F0A37454F0A3E4F0FC
:10485500A3741FF07D207C017F687E0012433E908B
:10486500002D7401F0A37430F074FFA3F0A3F07B66
:10487500837A007D307C017F6C7E0012397990004F
:104885002D7401F0A3743BF074FFA3F0A3F07B78C3
:104895007A007D257C017F787E0012397990002D84
:1048A5007401F0A37440F074FFA3F0A3F07B507A79
:1048B500007D207C017F507E001239791226BC9044
:1048C500001DE0FEA3E0FFD394A0EE648094804039
:1048D5003AEF94F0EE6480948050307BFF7A3F7914
:1048E500CA9001677420F074FFA3F0A3F0A3E4F06D
:1048F500A3741FF07D207C017FBB7E0012433E9098
:0C490500001AA3E0FAA3E0F912096622F0
:104DF100E490000DF0A3F07F1D7E051255F09001A7
:104E010066E4F0A37432F0A3E4F0A3741FF07B987E
:104E11007A007D3C7C007F2D7E0012521090001D97
:104E2100E4F0A3741EF0A374F8F0A3E4F07B84FA19
:104E31007D46FC7F37FE12312B12501490000DE09D
:104E4100FEA3E0FFF44E6004EF4E70557B017A0043
:104E5100790F125E577BFF7A3F793F90016774109B
:104E6100F0A374F8F0A3E4F07411A3F0A3F07D4E65
:104E71007C007F387E0012433E7B017A00790F90DF
:104E8100001E74F8F0A3E4F074FFA3F0A3F07D4ECC
:104E91007C007F807E0012548C90000DE4F0A3040E
:104EA100F090000EE004F0700690000DE004F0D3E5
:104EB10090000EE094FF90000DE094004004E4F0B7
:104EC100A3F01253BF9002D5E0FEA3E0FFD39420DC
:104ED100EE94015003024E3DEF9440EE94014003E5
:104EE100024E3D90001A74FFF0A37426F0A374BC27
:104EF100F09002D3E0FFA3E090001DCFF0A3EFF00C
:0C4F01007BFF7A2679BC1247C5024E3DAA
:10340D0090000D74F8F0A3E4F07F1D7E051255F0C9
:10341D009001667401F0A37420F074FFA3F0A3F083
:10342D007BF07A00E4FDFCFFFE125210900166E481
:10343D00F0A37418F0A37405F0A3741DF07BF07A5B
:10344D00007D087C01E4FFFE125210900166E4F04D
:10345D00A37418F074FFA3F0A3F07B187A007D0815
:10346D007C01E4FFFE125210900166E4F0A3741883
:10347D00F0E4A3F0A3F07B18FA7D087C017F18FE21
:10348D00125210900166E4F0A37418F0A374C6F004
:10349D00A37418F0FB7A007D087C017F307E00124A
:1034AD005210900166E4F0A37418F0A3E4F0A37435
:1034BD001FF07B187A007D087C017F487E00125238
:1034CD0010900166E4F0A37418F0A374F8F0A3E46F
:1034DD00F07B18FA7D087C017F60FE12521090017E
:1034ED0066E4F0A37418F0A374F8F0A3741FF07BD6
:1034FD00187A007D087C017F787E001252109001B1
:10350D0066E4F0A37418F0A37407F0A374E0F07BE5
:10351D00187A007D087C017F907E00125210900178
:10352D0066E4F0A37418F0A3747FF0A374FFF07B2E
:10353D00187A007D087C017FA87E00125210900140
:10354D0066E4F0A37418F0A374FFF0A374E0F07BAD
:10355D00187A007D087C017FC07E00125210900108
:10356D0066E4F0A37418F0A374B7F0A37423F07B92
:10357D00187A007D087C017FD87E001252101250FF
:10358D00141253BF9002D5E0FEA3E0FFD39400EEDA
:10359D0094004021EF9408EE940150199002D3E06D
:1035AD00FEA3E0FFA3E0FCA3E0FD90000DE0FAA375
:1035BD00E0FB125A349002D5E0FEA3E0FFD3942035
:1035CD00EE9401402EEF9440EE9401502690001A97
:1035DD0074FFF0A37426F0A374BCF09002D3E0FF47
:1035ED00A3E090001DCFF0A3EFF07BFF7A2679BC0E
:1035FD001247C59002D5E0FEA3E0FFD39408EE94E8
:10360D0001500302358EEF9420EE940140030235F4
:10361D008E9002D3E0FEA3E0FF7C007D1812073EE2
:10362D00EFB40A00400302358E90363DF82828731A
:10363D0002365B02365F02366902367602367C024E
:10364D00368802369502369C0236A90236B674FFCC
:10365D008001E490000DF0A3F002358E90000D7402
:10366D00C6F0A37418F002358E90000DE480119011
:10367D00000D74F8F0A3E4F002358E90000D74F88F
:10368D00F0A3741FF002358E90000D740780129018
:10369D00000D747FF0A374FFF002358E90000D7451
:1036AD00FFF0A374E0F002358E90000D74B7F0A317
:0636BD007423F002358EBB
:102B3900E4900002F07F1D7E051255F07BFF7A3F7D
:102B490079CD9001677420F074FFA3F0A3F074119C
:102B5900A3F0A3F07D0A7C007F417E0012433E1260
:102B690050147BFF7A3F79D574FF90001EF0A3F0D3
:102B79007411A3F0A3F07D327C007F1E7E001254F5
:102B89008C7BFF7A3F79DA74FF90001EF0A3F07412
:102B990011A3F0A3F07D787C007F1E7E0012548C77
:102BA9007BFF7A3F79DF74FF90001EF0A3F0741168
:102BB900A3F0A3F07DBE7C007F1E7E0012548C7FA3
:102BC90001126230900166E4502FF0A3743CF0A327
:102BD900E4F0A3741FF07B967A007D327C007F4677
:102BE9007E001252107BFF7A3F79E49001677410DE
:102BF900F0A3E4F0A3741F802EF0A3743CF0A37437
:102C090007F0A374E0F07B967A007D327C007F4662
:102C19007E001252107BFF7A3F79E79001677410AA
:102C2900F0A374F8F0A3E4F0A37405F0A3741DF005
:102C39007D4C7C007F1E7E0012433E7F0212623073
:102C4900900166E4502FF0A3743CF0A3E4F0A37460
:102C59001FF07B967A007D787C007F467E001252B9
:102C6900107BFF7A3F79E49001677410F0A3E4F0D8
:102C7900A3741F802AF0A3743CF0A374F8F0A3E4B2
:102C8900F07B96FA7D78FC7F46FE1252107BFF7A24
:102C99003F79E79001677410F0A374F8F0A3E4F0AA
:102CA900A37405F0A3741DF07D927C007F1E7E0045
:102CB90012433E7F03126230900166E4502FF0A365
:102CC900743CF0A3E4F0A3741FF07B967A007DBEF8
:102CD9007C007F467E001252107BFF7A3F79E49098
:102CE90001677410F0A3E4F0A3741F802EF0A3749D
:102CF9003CF0A374FFF0A374E0F07B967A007DBEEC
:102D09007C007F467E001252107BFF7A3F79E79064
:102D190001677410F0A374F8F0A3E4F0A37405F04C
:102D2900A3741DF07DD87C007F1E7E0012433E12E5
:102D390053BF30A5FD9002D5E0FEA3E0FFD3942058
:102D4900EE9401402EEF9440EE9401502690001A23
:102D590074FFF0A37426F0A374BCF09002D3E0FFD3
:102D6900A3E090001DCFF0A3EFF07BFF7A2679BC9A
:102D79001247C59002D3E0FEA3E0FFD3941EEE9460
:102D890000402AEF94D2EE94005022A3E0FEA3E083
:102D9900FF9432EE94004015EF946EEE9400500DBE
:102DA9007F01126230B392007F011261739002D3E6
:102DB900E0FEA3E0FFD3941EEE9400402AEF94D2E4
:102DC900EE94005022A3E0FEA3E0FF9478EE940075
:102DD9004015EF94B4EE9400500D7F02126230B3A7
:102DE90092007F021261739002D3E0FEA3E0FFD349
:102DF900941EEE94005003022BC8EF94D2EE940077
:102E09004003022BC8A3E0FEA3E0FF94BEEE9400AA
:102E19005003022BC8EF94FAEE94004003022BC82A
:102E29007F03126230B392007F03126173022BC8D1
:06634B0025372E33660029
:10625A00EF25E02405FFEFD3940040077E05DEFE1C
:03626A001F80F39F
:01626D00220E
:10626E00EFD39400400D00007E207D1CDDFEDEFC91
:03627E001F80ED91
:0162810022FA
:105FF400C200D2807F0512625AC2807FC812625AE0
:106004007FC812625AD2807F3212625AA2809200F2
:076014007F1912625AA2007D
:01601B002262
:10610500E4FC7D08C280ECC313FCD28030800344DC
:0B61150080FC7F1912625ADDEBAF0422
:01612000225C
:02612100AD07C8
:106123007B08C280ED1392807F1912625AD280EDF0
:0A613300C313FDDBED7F1902625A71
:105ED300E4FBFFFEFDFC125FF47FCC1261217F44E3
:105EE3001261217F0A12626E125FF47FCC1261216C
:105EF3007FBE126121126105AB07126105EF7F00BE
:095F0300FEEF2BFDE43EFEAF05AC
:015F0C002272
:0B5E5700900016EBF0A3EAF0A3E9F0C6
:105E6200125ED3AD07AC06E4120362E4FBFA79805A
:105E7200783D12013E90001C74FFF0A37463F0A3FE
:105E8200744BF0A31208B6900016E0FBA3E0FAA34D
:055E9200E0F902229E70
:105542000A004F4B0A004E6F7420666F756E64211D
:105552000A006C696E6B000000000000FF6330649B
:1055620065736B746F70000000FF26BC7374617208
:10557200746368000000FF2E39706963626F7800FF
:10558200000000FF340D74656D70657274000000D8
:10559200FF4DF163616C656E6461720000FF44C689
:1055A2007374696D650000000000FF613D737465EE
:1055B2006D706572740000FF615873776C656431B9
:1055C20000000000FF62DB73776C6564320000004C
:1055D20000FF62E873776C65643300000000FF62CD
:0E55E200F56F66666C656400000000FF6206EF
:0B59B500900009EBF0A3EAF0A3E9F07A
:1059C00090000AE475F003120793E490000CF09045
:1059D000000CE0FFD3940C505AEFB40C030263396F
:1059E00090000CE075F00DA42454F9745535F0FACC
:1059F0007BFFC003C002900009E0FBA3E0FAA3E034
:105A0000F8AC02AD03D002D003120B17EF701C905C
:105A1000000CE075F00DA4245EF582E43455F583A6
:105A2000740193FA740293F902096690000CE00481
:035A3000F0809C67
:015A33002250
:106282001206C4B4410B9000011206DDB45402D3CD
:0362920022C32202
:10613D007B017A0279BD124CD37B017A0279BD12B3
:0B614D0062957BFF7A55794202629553
:106158007B017A00790D125E577B017A00790E1265
:0B61680062957BFF7A55794202629538
:096330007BFF7A55794402629565
:096339007BFF7A55794802629558
:0D62DB007F01126230B392007F01026173F7
:0D62E8007F02126230B392007F02026173E8
:0D62F5007F03126230B392007F03026173D9
:10620600D2007F01126173D2007F02126173D20045
:056216007F030261732B
:086342007F107E8DDEFEDFFC02
:01634A002230
:04604400AD07AC06F2
:10604800ED4C601C7BC8B2A1126342DBF97BC8B27D
:10605800A1126342126342DBF6ED1D70E31C80E07F
:016068002215
:0F61C1001392831261D0EBC313FB1261D0D28112
:0861D0007F207E1DDEFEDFFCD6
:0161D80022A4
:0B4CD300900017EBF0A3EAF0A3E9F05B
:104CDE007B017A00791A1257F4900017E0FBA3E0DB
:104CEE00FAA3E0F9743212070A900017E0FBA3E072
:104CFE00FAA3E0F9900001743012071C900020E036
:104D0E00FFC4540F243090000212071CEF540F24DE
:104D1E003090000312071C900004742F12071C9091
:104D2E00001EE0FFC4540F243090000512071CEF44
:104D3E00540F243090000612071C900007742F1297
:104D4E00071C90001DE0FFC4540F24309000081281
:104D5E00071CEF540F243090000912071C90000A14
:104D6E00742F12071C90001CE0FFC4540F243090C7
:104D7E00000B12071CEF540F243090000C12071C6E
:104D8E0090000D743A12071C90001BE0FFC4540FE4
:104D9E00243090000E12071CEF540F243090000F99
:104DAE0012071C900010743A12071C90001AE0FFB4
:104DBE00C4540F243090001112071CEF540F2430EE
:104DCE0090001212071C900013742F12071C9000F3
:104DDE001FE0540F243090001412071C900015E4AD
:034DEE0002071C9D
:0D61F000F9EF12071C1261FDE4FF125DCDF6
:0861FD007F027E3BDEFEDFFCA9
:016205002276
:025E9700AB0757
:105E9900C2A71261D0C2811261D0D2A71261D07A91
:105EA90008C2811261D0A903E91261C1DAF37A0843
:105EB900C2811261D0A905E91392831261D0EDC3A1
:095EC90013FD1261CBDAE9C2A756
:015ED20022AD
:025DCD00AB0722
:105DCF00C2A71261D0C2811261D0D2A71261D07A5C
:105DDF0008C2811261D0EB1261C1DAF57A08D28163
:105DEF001261D0EDC313FD1261D0C2811261D030A8
:105DFF0083054480FD8004ED547FFDDAE1C2A712D4
:045E0F0061D0AF05AA
:015E1300226C
:1052F000900017EBF0A3EAF0A3E9F0E4FD7F8E1233
:105300005E971261FD900017E0FBA3E0FAA3E0F9BD
:105310001206C4FD7F80125E971261FD900017E0B7
:10532000FBA3E0FAA3E0F99000011206DDFD7F8205
:10533000125E971261FD900017E0FBA3E0FAA3E074
:10534000F99000021206DDFD7F84125E971261FD66
:10535000900017E0FBA3E0FAA3E0F9900003120627
:10536000DDFD7F86125E971261FD900017E0FBA3C2
:10537000E0FAA3E0F99000041206DDFD7F88125EDA
:10538000971261FD900017E0FBA3E0FAA3E0F9900B
:1053900000051206DDFD7F8A125E971261FD900006
:1053A00017E0FBA3E0FAA3E0F99000061206DDFD8A
:0F53B0007F8C125E971261FD7D807F8E025E976B
:1057F400900021EBF0A3EAF0A3E9F01261F87F8DA9
:10580400125DCD900021E0FBA3E0FAA3E090000636
:105814001261F07F8B125DCD900021E0FBA3E0FAD2
:10582400A3E09000051261F07F89125DCD90002104
:10583400E0FBA3E0FAA3E0F9900004EF12071C12C6
:1058440061F87F87125DCD900021E0FBA3E0FAA30D
:10585400E0F99000031261F17F85125DCD90002183
:10586400E0FBA3E0FAA3E0F99000021261F17F8368
:10587400125DCD900021E0FBA3E0FAA3E0F99000D3
:10588400011261F17F81125DCD900021E0FBA3E064
:08589400FAA3E0F9EF02070A94
:1062A800C2A7C281E4FD7F8E125E977D807F8E0239
:0262B8005E97EF
:101C4900000000000000000000000000000000008B
:101C59000000000000001FCC000C00000000000084
:101C6900000008003000600008003000600000003B
:101C7900022003FC1E20022003FC1E20022000007B
:101C890000000E1811043FFF10840C7800000000BA
:101C99000F0010840F3800C00778188400780000FE
:101CA90000780F8410C411240E9800E40084000801
:101CB900080068007000000000000000000000003B
:101CC90000000000000007E018182004400200008E
:101CD900000040022004181807E00000000000007E
:101CE9000240024001800FF00180024002400000E2
:101CF9000080008000800FF80080008000800000D4
:101D09000001000D000E00000000000000000000AE
:101D1900000000800080008000800080008000803A
:101D29000000000C000C0000000000000000000092
:101D3900000000060018006001800600180020005D
:101D4900000007F0080810041004080807F0000054
:101D59000000080408041FFC00040004000000003F
:101D690000000E0C10141024104411840E0C0000F5
:101D790000000C1810041104110412880C700000E2
:101D8900000000E00320042408241FFC00240000B4
:101D990000001F98108411041104108810700000AD
:101DA900000007F008881104110418880070000069
:101DB90000001C00100010FC13001C0010000000A3
:101DC90000000E3811441084108411440E380000AC
:101DD90000000700088C10441044088807F0000030
:101DE900000000000000030C030C000000000000CC
:101DF90000000000000101060000000000000000D2
:101E090000000080014002200410080810040000AE
:101E190002200220022002200220022002200000CB
:101E2900000010040808041002200140008000008E
:101E390000000E001200100C106C10800F00000042
:101E490003E00C1813E4142417C4082807D0000071
:101E59000004003C03C41C40074000E4001C0004CB
:101E690010041FFC1104110411040E8800700000F5
:101E790003E00C1810041004100410081C100000D2
:101E890010041FFC100410041004080807F00000D7
:101E990010041FFC1104110417C4100408180000D1
:101EA90010041FFC1104110017C0100008000000E5
:101EB90003E00C181004100410441C7800400000C2
:101EC90010041FFC10840080008010841FFC100483
:101ED9000000100410041FFC10041004000000008E
:101EE90000030001100110011FFE10001000000086
:101EF90010041FFC110403801464181C1004000052
:101F090010041FFC1004000400040004000C00006D
:101F190010041FFC1F0000FC1F001FFC1004000020
:101F290010041FFC0C04030000E010181FFC100033
:101F390007F00808100410041004080807F000004E
:101F490010041FFC10841080108010800F00000006
:101F590007F0081810241024101C080A07F20000C2
:101F690010041FFC1104110011C011300E0C0004E3
:101F790000000E1C11041084108410441C38000049
:101F89001800100010041FFC1004100018000000B5
:101F990010001FF810040004000410041FF81000BA
:101FA90010001E0011E0001C007013801C001000BE
:101FB9001FC0103C00E01F0000E0103C1FC00000E3
:101FC9001004180C163401C001C01634180C100482
:101FD90010001C00130400FC13041C001000000076
:101FE9000804101C1064108413041C041018000049
:101FF9000000000000007FFE400240024002000095
:10200900000030000C0003800060001C0003000089
:1020190000004002400240027FFE00000000000074
:1020290000000000200040004000400020000000A7
:10203900000100010001000100010001000100018F
:1020490000004000400020000000000000000000E7
:1020590000000098012401440144014400FC0004EB
:1020690010001FFC008801040104008800700000B2
:1020790000000070008801040104010400880000C8
:102089000000007000880104010411081FFC00040D
:10209900000000F8014401440144014400C8000063
:1020A9000000010401040FFC1104110411001800BF
:1020B900000000D601290129012901C901060000F2
:1020C90010041FFC008401000100010400FC00044D
:1020D90000000104190419FC0004000400000000B8
:1020E9000000000300010101190119FE00000000B0
:1020F90010041FFC0024004001B4010C010400007D
:102109000000100410041FFC00040004000000007B
:10211900010401FC0104010001FC0104010000FCAF
:10212900010401FC008401000100010400FC000419
:10213900000000F8010401040104010400F8000092
:10214900010101FF008501040104008800700000FD
:1021590000000070008801040104010501FF00016D
:102169000104010401FC0084010401000180000054
:10217900000000CC0124012401240124019800005D
:1021890000000100010007F801040104000000003B
:10219900010001F8000400040004010801FC000426
:1021A900010001800170000C001001600180010034
:1021B90001F0010C003001C00030010C01F00100F8
:1021C90000000104018C00740170018C01040000FD
:1021D900010101810171000E0018016001800100F7
:1021E90000000184010C013401440184010C000048
:1021F900000000000000000001003EFC4002400217
:102209000000000000000000FFFF000000000000C7
:102219000000400240023EFC0100000000000000F6
:102229000000600080008000400040002000200085
:0D630200C295C2948FB0C296D296D294225A
:0C61A800E0FF7E001261B4E0FEA3E0FF07
:0D61B400D295C2948FB0C296D296D294229A
:0762BA001262C17D017F1992
:0A62C100126302AE04AF050261B4DF
:10621B003ECF2401FDE43FFCE0FEA3E0FF125F183C
:05622B007F2202630266
:036351000261B432
:0B5F0D00E0FEA3E0FFA3E0FCA3E0FD2A
:105F1800AB05AA048F828E83E583FD7C007F021285
:105F280062C1AF82AD07FC7F031262C1EAFD7C004B
:0F5F38007F061262C1AF03AD07FC7F070262C193
:0B5F75007C007F1F1262C17F057E00D0
:105F8000E4FDFCC3ED9FEC9E5015E4FBFA0BBB0057
:0F5F9000010ABA04F8BB75F50DBD00010C80E4E1
:015F9F0022DF
:103FF1007F327E00125F807D017C00E4FF1262C18E
:104001007F32FE125F809000477F64125F80E582FD
:104011006447458360030241A5FDFC7FEA1262C14A
:104021007D207FEB1262C17D0C7FEC1262C17DC4E9
:104031007FED1262C17D407FE81262C17D387FE968
:104041001262C17D017FF11262C17D107FF21262A5
:10405100C17DA37F271262C1FD7F401262C17F41F2
:104061001262C10D7F421262C17D127F431262C191
:104071007D107F441262C17D267F451262C17D0899
:104081007F461262C17D537F471262C17D027F4824
:104091001262C17D157F491262C17D197F4A126288
:1040A100C17F4B1262C17D167F4C1262C17D197FA7
:1040B100501262C17D2F7F511262C17D2D7F52123C
:1040C10062C17D3E7F531262C10D7F541262C17F76
:1040D100551262C17D2C7F561262C17D777F5712C6
:1040E10062C17D097F581262C17D067F591262C18A
:1040F1007F5A1262C17D0A7F5B1262C17D1D7F5CA6
:104101001262C17DCC7F5D1262C17D1B7F1B126279
:10411100C17D017F1A1262C17D2F7F241262C17D90
:10412100577F251262C17D977F231262C17D367F41
:10413100181262BA7D887F1F1262C17F05FE125F6D
:10414100807D80125F757D90125F757DD0125F75E5
:104151007D057C007F171262C1E4FD7F361262C1CA
:104161007D387F281262C17F28FE125F807D3C7CF2
:10417100001262C1E4FD7F021262C17F031262C1BB
:104181007F041262C17DEF7F051262C1FD7F0612BD
:1041910062C17F071262C10D7F081262C17D3F7F3C
:0B41A100091262BA7F327E00025F80CC
:0855F000900021EEF0A3EFF0A2
:1055F800A31208C200000000E4FDFCFFFE125F18C1
:1056080012622B9000231208C200000000E47F40C1
:105618007E01FDFC900023E0F8A3E0F9A3E0FAA3E3
:10562800E0FBC3120866506D9000271208C2000004
:105638000000E47FF0FEFDFC900027E0F8A3E0F90D
:10564800A3E0FAA3E0FBC3120866502790002112DA
:1056580061A8900027E0FCA3E0FDA3E0FEA3E024FE
:1056680001FFE43EFEE43DFDE43CFC900027120807
:10567800B680BF900023E0FCA3E0FDA3E0FEA3E01A
:105688002401FFE43EFEE43DFDE43CFC90002312CF
:0556980008B6025615E2
:01569D0022EA
:105CE000900027E0FEA3E0FFA3E0FCA3E0FD90000E
:065CF0002FE0FAA3E0FB27
:105CF600900285EAF0A3EBF0900283EEF0A3EFF0BA
:105D0600C394F0EE94005021C3ED9440EC940150FE
:105D160018900283126223900285E0FF7E001263D0
:0A5D260051E0FEA3E0FF12635122DA
:10397900900029ECF0A3EDF0900027EEF0A3EFF012
:0839890090002BEAF0A3EBF023
:10399100D3EF9BEE9A402790002BE0FEA3E0FF902F
:1039A1000035EEF0A3EFF0900027E0FDA3E09000DA
:1039B1002BCDF0A3EDF0900027EEF0A3EFF09000F7
:1039C1002DE0FEA3E0FF900029E0FCA3E0FDD39FE2
:1039D100EC9E4018900035EEF0A3EFF090002DEC36
:1039E100F0A3EDF0900029EEF0A3EFF0900027E0B6
:1039F100FEA3E0FFC390002CE09FFF90002BE09E10
:103A0100900031F0FAA3EFF0FB900029E0FEA3E073
:103A1100FFC390002EE09FFF90002DE09E900033A9
:103A2100F0A3EFF0EB4A7027125CE090002AE0046B
:103A3100F07006900029E004F0900029E0FEA3E078
:103A4100FFC390002EE09F90002DE09E50DA22905F
:103A51000033E07002A3E07027125CE0900028E0E0
:103A610004F07006900027E004F0900027E0FEA328
:103A7100E0FFC390002CE09F90002BE09E50DA22E3
:103A8100900033E0FEA3E0FF900031E0FCA3E0FDF5
:103A9100D39FEE6480F8EC6480985003023B3CEFC6
:103AA10025E0FFEE33FEC3EF9DFFEE9C900035F065
:103AB100A3EFF090002BE0FCA3E0FD900027E0FED7
:103AC100A3E0FF6D7002EE6C7003023BE9125CE84B
:103AD100900028E004F07006900027E004F0D390F5
:103AE1000036E09400900035E0648094804030908E
:103AF100002AE004F07006900029E004F090003202
:103B0100E025E0FD900031E033FC900034E025E059
:103B1100FF900033E033FEC3EF9DFFEE9C800C90DD
:103B21000034E025E0FF900033E033FE900036E002
:103B31002FF0900035E03EF0023AB4900032E025DB
:103B4100E0FF900031E033FE900033E0FCA3E0FDA4
:103B5100C3EF9DFFEE9CA3F0A3EFF090002DE0FEDC
:103B6100A3E0FF900029E0FCA3E0FD6F7002EC6E82
:103B71006076900027E0FEA3E0FF125CEE90002A41
:103B8100E004F07006900029E004F0D3900036E0E4
:103B91009400900035E0648094804030900028E0EB
:103BA10004F07006900027E004F0900032E025E078
:103BB100FD900031E033FC900034E025E0FF9000FF
:103BC10033E033FEC3EF9DFFEE9C800C900034E0A8
:103BD10025E0FF900033E033FE900036E02FF090B7
:0B3BE1000035E03EF0023B5C125CE0AF
:013BEC0022B6
:104F0D00900049EEF0A3EFF090004DEBF090004BC8
:054F1D00ECF0A3EDF033
:104F2200900054ECF0A3EDF090004DE024E0F0E4AA
:104F3200F990004DE075F010A42449F582E5F034B3
:104F42001CF583E58229F582E43583F583E49390A9
:104F52000052F0E4A3F0900052E030E718900049CC
:104F6200E0FEA3E0FFA3E0FCA3E0FD90004EE0FA28
:104F7200A3E0FB801F900050E0FAA3E0FB641170F5
:104F820003EA64116011900049E0FEA3E0FFA3E090
:104F9200FCA3E0FD125CF6900052E025E0F09000E8
:104FA2004CE004F0700690004BE004F0C390004A1D
:104FB200E094F0900049E094005056900054E0FED6
:104FC200A3E0FFC390004CE09FFD90004BE09EFCED
:104FD200ED64104C7023EEF0A3EFF090004AE00471
:104FE200F07006900049E004F0C390004AE094405B
:104FF200900049E09401401022900053E004F0E058
:10500200C394085003024F5809E964106003024F29
:01501200336A
:01501300227A
:10548C00900017EEF0A3EFF0A3ECF0A3EDF0A3EB7C
:07549C00F0A3EAF0A3E9F020
:1054A30090001BE0FBA3E475F0011207A9A9F0FA31
:1054B3001206C4FB900019E0FCA3E0FD90001EE07F
:1054C300FFA3E090004ECFF0A3EFF0900020E0FFA9
:1054D300A3E0900050CFF0A3EFF0900017E0FEA3FD
:1054E300E0FF124F0DC3900018E094E8900017E01E
:1054F3009400500AA3E02408F09000178020C39082
:10550300001AE09430900019E09401E490001750E1
:1055130013F0A3F090001AE02410F0900019E03487
:1055230000F08007F0A3F0A3F0A3F090001BE0FBD2
:0E553300A3E0FAA3E0F91206C460030254A339
:015541002247
:104B9700900002EEF0A3EFF0A3ECF0A3EDF0A3EA90
:044BA700F0A3EBF09C
:104BAB00E490000EF0A3F09000141208C200000075
:104BBB0000900002125F0D12622BC2A47F03125FE2
:104BCB00B190000AE0FCA3E0FDA3E0FEA3E0FF78B8
:104BDB0010120877125FB190000AE0FCA3E0FDA36E
:104BEB00E0FEA3E0FF7808120877125FB190000A8D
:104BFB00A3A3A3E0FF125FB19000101208C2000044
:104C0B000000900008E0FEA3E0FFE4FCFD90001024
:104C1B00E0F8A3E0F9A3E0FAA3E0FBC312086640B7
:104C2B0003024CD09000141208C200000000900048
:104C3B0006E0FEA3E0FFE4FCFD900014E0F8A3E027
:104C4B00F9A3E0FAA3E0FBC3120866503C1261D94A
:104C5B0090000FEFF01261D990000EEFF07E001272
:104C6B0061B4A3E0FF1261B4900014E0FCA3E0FD7B
:104C7B00A3E0FEA3E02401FFE43EFEE43DFDE43CA3
:104C8B00FC9000141208B680A5900010A3A3E0FEC0
:104C9B00A3E0FF900005E02FFF900004E0900002DE
:104CAB0012621B900010E0FCA3E0FDA3E0FEA3E06A
:104CBB002401FFE43EFEE43DFDE43CFC90001012B9
:074CCB0008B6024C0DD2A453
:014CD20022BF
:10521000900160EEF0A3EFF0A3ECF0A3EDF0A3EAB1
:04522000F0A3EBF01C
:1052240090016E1208C200000000900160125F0D30
:1052340012622B90016A1208C200000000900166FD
:10524400E0FEA3E0FFE4FCFD90016AE0F8A3E0F9CE
:10525400A3E0FAA3E0FBC312086640030252EF90F6
:10526400016E1208C200000000900164E0FEA3E099
:10527400FFE4FCFD90016EE0F8A3E0F9A3E0FAA3DB
:10528400E0FBC312086650279001681261A89001E0
:105294006EE0FCA3E0FDA3E0FEA3E02401FFE43EF6
:1052A400FEE43DFDE43CFC90016E1208B680BA9029
:1052B400016AA3A3E0FEA3E0FF900163E02FFF9047
:1052C4000162E090016012621B90016AE0FCA3E0BD
:1052D400FDA3E0FEA3E02401FFE43EFEE43DFDE483
:0B52E4003CFC90016A1208B602524127
:0152EF00229C
:10312B0090001BEAF0A3EBF0900017EEF0A3EFF08A
:10313B00A3ECF0A3EDF0C006C007A3E0FEA3E0FFF5
:10314B00900017E0FAA3E02FFBEA3EFAA3E0FFA3FF
:10315B00E090002DCFF0A3EFF090001FE0FFA3E075
:10316B0090002FCFF0A3EFF0D007D0061239799053
:10317B000018E02401FF900017E03400FEC006C0E9
:10318B000790001AE02401FD900019E03400FC9038
:10319B00001BE0FEA3E0FF900017E0FAA3E02FFF77
:1031AB00EA3ECF24FFFBEF34FFFAA3E0FEA3E024BB
:1031BB0001FFE43E90002DF0A3EFF090001FE0FF25
:1031CB00A3E090002FCFF0A3EFF0D007D006123979
:1031DB0079900017E0FAA3E0FBFFAE02C006C00730
:1031EB00A3E0FCA3E0FD90001DE0FEA3E0FF900038
:1031FB0019E0F8A3E02FFFE83E90002DF0A3EFF0CD
:10320B0090001FE0FFA3E090002FCFF0A3EFF0D0D2
:10321B0007D006123979900018E02401FB900017B3
:10322B00E03400FAAF03FEC006C00790001AE0249A
:10323B0001FD900019E03400FC90001DE0FEA3E0BE
:10324B00FF900019E0F8A3E02FFFE83ECF24FFCF5B
:10325B0034FF90002DF0A3EFF090001FE0FFA3E0F0
:10326B0090002FCFF0A3EFF0D007D0061239799052
:10327B00001DE0FEA3E0FF90001AE02FFD90001967
:10328B00E03EFC90001BE0FEA3E0FF900017E0FA8D
:10329B00A3E02FFBEA3EFA90001DE0FEA3E0FF90B7
:1032AB000019E0F8A3E02FFFE83E90002DF0A3EF0C
:1032BB00F090001FE0FFA3E090002FCFF0A3EFF002
:1032CB00900017E0FEA3E0FF123979900018E0247C
:1032DB0001FF900017E03400FEC006C00790001DF0
:1032EB00E0FEA3E0FF90001AE02FFF900019E03EF4
:1032FB00CF24FFFDEF34FFFC90001BE0FEA3E0FFAB
:10330B00900017E0FAA3E02FFFEA3ECF24FFFBEF7C
:10331B0034FFFA90001DE0FEA3E0FF900019E0F8E7
:10332B00A3E02FFFE83ECF24FFCF34FF90002DF01A
:10333B00A3EFF090001FE0FFA3E090002FCFF0A3CE
:10334B00EFF0D007D00612397990001BE0FEA3E016
:10335B00FF900018E02FFB900017E03EFAAF03FE42
:10336B00C006C007900019E0FCA3E0FD90001DE033
:10337B00FEA3E0FF900019E0F8A3E02FFFE83E90DA
:10338B00002DF0A3EFF090001FE0FFA3E090002FC3
:10339B00CFF0A3EFF0D007D00612397990001BE0E5
:1033AB00FEA3E0FF900018E02FFF900017E03ECF48
:1033BB0024FFFBEF34FFFAAF03FEC006C0079000FB
:1033CB001AE02401FD900019E03400FC90001DE090
:1033DB00FEA3E0FF900019E0F8A3E02FFFE83ECF3B
:1033EB0024FFCF34FF90002DF0A3EFF090001FE0EF
:1033FB00FFA3E090002FCFF0A3EFF0D007D0060291
:02340B0039790D
:07000300D285D286D28722CC
:10617300EF24FE600C14600E2402700EA2009285C0
:0B61830022A200928622A20092872236
:10623000EF24FE600A14600A24027008A28522A2DC
:056240008622A2872266
:03000B00025B2F66
:105B2F00C0E0C0F0C083C082C0D075D000C000C03C
:105B3F0001C002C003C004C005C006C007758AAB10
:105B4F00758C2FD2A69002F2E0C3945F402AE4F046
:105B5F00300A25C20A7B017A0279D7126282500479
:105B6F00D209800D7B017A0279D774FFFDFC125A9E
:105B7F00B29002D7E4F0A3F09002F2E004F0D00765
:105B8F00D006D005D004D003D002D001D000D0D0A1
:095B9F00D082D083D0F0D0E032B6
:1062CB00438901758AAB758C2FD2A9D2AFC28C22B0
:105CA8005F029CFF60E8FF5119FF13CF000000005E
:105CB80000000000000000000000000000000000DC
:0A5CC80000004102BBD04102BC9075
:1060CB00EF7803C333CE33CED8F9FFE4FDFCC3ED39
:0C60DB009FEC9E50070DBD00010C80F2F0
:0160E7002296
:10618E00E4FEEF30E704D2828002C282EF25E0FF08
:09619E00C281D2810EEEB408E9C1
:0161A70022D5
:105D7F00E4FDFBFAC281C282C2A612618E7F067E4B
:105D8F00001260CBC2817F017E001260CBD281C234
:105D9F0081E4FDEB25E0FBEA33FAC281D281308347
:105DAF00050BBB00010A0DEDB410E8EAC4F854F07E
:0D5DBF00C868FAEBC4540F48D2A6AE02FF2C
:015DCC0022B4
:0241AC00A90761
:1041AE00E490003FF0A3F0900033F0A3F0AF0112C3
:1041BE005D7FAC06AD07900034E025E0FF90003344
:1041CE00E033FE74352FF58274003EF583ECF0A3D8
:1041DE00EDF0900034E004F07006900033E004F04F
:1041EE00C3900034E09405900033E0940040BEE4A8
:1041FE00900033F0A3F0900033E0FEA3E0FFC394F1
:10420E0004EE940040030242D8EF2401FFE43EADD9
:10421E0007FCC3ED9405EC940040030242C4ED2567
:10422E00E0FFEC33FE74352FF58274003EF583E02B
:10423E00FAA3E0FB900034E025E0FF900033E0337A
:10424E00FE74352FF58274003EF583E0FEA3E0FF89
:10425E00D39BEE9A4058900041EEF0A3EFF0ED257F
:10426E00E0FFEC33FE74352FF58274003EF583E0EB
:10427E00FAA3E0FB900034E025E0FF900033E0333A
:10428E00FE74352FF58274003EF583EAF0A3EBF051
:10429E00900041E0FAA3E0FBED25E0FFEC33FE7465
:1042AE00352FF58274003EF583EAF0A3EBF00DBDD9
:1042BE0000010C024220900034E004F06003024240
:1042CE0004900033E004F0024204E490003FF0A3B7
:1042DE00F0900033F0A304F0900033E0FEA3E0FF73
:1042EE00C39404EE94005032EF25E0FFEE33FE74DB
:1042FE00352FF58274003EF583E0FEA3E0FF9000BB
:10430E0040E02FF090003FE03EF0900034E004F0EB
:10431E0070C6900033E004F080BE90003FE0FEA334
:0F432E00E0FF7C007D0312073EA3EEF0A3EFF04B
:01433D00225D
:0B5D300090002BEBF0A3EAF0A3E9F0D9
:105D3B009002BBE0FF1241AC900031EEF0A3EFF00C
:105D4B009002BCE0FF1241AC900031E0F9A3E0FD02
:105D5B0090002BE0FBA3E0FAA3E0C98DF01207EA59
:105D6B0090002EE0FBA3E0FAA3E0F9EE8FF0120710
:035D7B00EA7F01BB
:015D7E002202
:104911009000207401F0A37402F0A374ABF07B014A
:044921007A0279A9F4
:0B49250090001DEBF0A3EAF0A3E9F006
:1049300090002E7401F0A37400F0A37425F07B01A5
:104940007A007923125D30EF7002FF2290002E74FE
:1049500001F0A37400F0A37429F07B017A00792799
:10496000125D30EF7002FF22900023E0FEA3E0FF13
:10497000900027E0FCA3E0FDD39FEC9E500EED24B9
:1049800032FDE43CFCC3EF9DEE9C402A900027E002
:10499000FEA3E0FF900023E0FCA3E0FDD39FEC9E8C
:1049A0004003024A53ED2432FDE43CFCC3EF9DEE8C
:1049B0009C4003024A53900025E0FEA3E0FF9000D4
:1049C00029E0FCA3E0FDD39FEC9E500EED2432FDC8
:1049D000E43CFCC3EF9DEE9C4024900029E0FEA344
:1049E000E0FF900025E0FCA3E0FDD39FEC9E506328
:1049F000ED2432FDE43CFCC3EF9DEE9C505590004D
:104A000027E0FEA3E0FF900024E02FFF900023E0CA
:104A10003EC313F9EF13FF90001DE0FBA3E0FAA3E0
:104A2000E0C98FF01207EA900029E0FEA3E0FF90B2
:104A30000026E02FFF900025E03EC313F9EF13FF9F
:104A4000900020E0FBA3E0FAA3E0C98FF01207EA90
:054A50007F01227F0040
:014A5500223E
:104A5600E4900010F07D047C0174FFFBFA7F047E75
:014A6600014E
:104A6700900021EEF0A3EFF0900025EAF0A3EBF021
:104A7700900023ECF0A3EDF0900021E0FAA3E0FB17
:104A870024F4FFEA34FFFEC007EB240DFBE43AFAF7
:104A9700A3E0FFA3E090002DCFF0A3EFF090002557
:104AA700E0FFA3E090002FCFF0A3EFF0D00712397B
:104AB70079900021E0FAA3E0FBFFAE02C006C00731
:104AC700900024E024F4FD900023E034FFFCE0FE96
:104AD700A3E0240DFFE43E90002DF0A3EFF090003B
:104AE70025E0FFA3E090002FCFF0A3EFF0D007D091
:104AF70006123979900022E02401FF900021E0346A
:104B070000FE900024E02401FD900023E03400FC27
:104B1700900025E0FAA3E0FB125CF6900022E02467
:104B2700FFFF900021E034FFFE900024E02401FD08
:104B3700900023E03400FC900025E0FAA3E0FB128C
:104B47005CF6900022E02401FF900021E03400FE93
:104B5700900024E024FFFD900023E034FFFC900048
:104B670025E0FAA3E0FB125CF6900022E024FFFFA9
:104B7700900021E034FFFE900024E024FFFD900028
:104B870023E034FFFC900025E0FAA3E0FB025CF68B
:105A340090000FEEF0A3EFF0A3ECF0A3EDF0A3EAD7
:105A4400F0A3EBF0125CF6900010E02401FF90004C
:105A54000FE03400FE900011E0FCA3E0FDA3E0FAA7
:105A6400A3E0FB125CF690000FE0FEA3E0FF9000C1
:105A740012E02401FD900011E03400FC900013E0DA
:105A8400FAA3E0FB125CF6900010E02401FF900002
:105A94000FE03400FE900012E02401FD900011E0BC
:0E5AA4003400FC900013E0FAA3E0FB025CF675
:1051190030A5030251E7EF60061249110251BD1291
:105129004911EF70030251BD9002A9E0FCA3E0FD13
:10513900E41203629002AEE0F8A3E0F9A3E0FAA357
:10514900E0FB12013EC004C005C006C0079002B6CC
:10515900E0FCA3E0FDEC120362D003D002D001D041
:105169000012004D12039B9002A9EEF0A3EFF0A3E9
:10517900E0FCA3E0FDE41203629002B2E0F8A3E0D0
:10518900F9A3E0FAA3E0FB12013EC004C005C00682
:10519900C0079002B8E0FCA3E0FDEC120362D00363
:1051A900D002D001D00012004D12039B9002ABEE49
:1051B900F0A3EFF09002ADE020E74474C0F0900254
:1051C900A9E0FFA3E09002A5CFF0A3EFF09002AB16
:1051D900E0FFA3E09002A7CFF0A3EFF080219002B7
:1051E900ADE030E705547FF08015E49002A5F0A307
:1051F900F0A3F0A3F074FFA3F0A3F0A3F0A3F09041
:0752090002ADE05480FF221A
:1013CF00E4900010F0F074FFFFFE1255F07B007AEE
:1013DF00F87D3C7C007F3C7E00124A67E49002ADB2
:1013EF00F0A31208C20000000090029FA3E0FAA32E
:1013FF00E0F5828A837F0112096A9002ADE0FF5403
:10140F00C0FEBE40E4EF54BFF09002A9E0FEA3E09F
:10141F00FF900010E0FD25E025E02400F582E43484
:10142F0000F583EEF0A3EFF09002ABE0FEA3E0FF38
:10143F00ED25E025E02402F582E43400F583EEF09B
:10144F00A3EFF0900010E004F0E024FE602314609E
:10145F003214604D2403709174FFFBFA7D3C7C00C5
:10146F007F3C7E00124A677B007AF87D3C7C0080CF
:10147F00297D3C7C00124A5F7B007AF87D047C0159
:10148F000216B874FFFBFA7D047C017F3C7E0012CC
:10149F004A677B007AF87D047C017F047E01021A83
:1014AF00B2900004E0FEA3E0FFC3900001E09FFFB5
:1014BF00900000E09EFE12630FEE3395E0FDFC906E
:1014CF0000151208B6900006E0FEA3E0FFC39000DF
:1014DF0003E09FFF900002E09EFE12630FEE339534
:1014EF00E0FDFC9000191208B6900015E0FCA3E097
:1014FF00FDA3E0FEA3E0FFA804A905AA06FB1208BE
:10150F00099000151208B6900019E0FCA3E0FDA3A6
:10151F00E0FEA3E0FFA804A905AA06FB12080990A4
:10152F0000191208B6900019E0FCA3E0FDA3E0FE3D
:10153F00A3E0FF900015E0F8A3E0F9A3E0FAA3E021
:10154F002FFFEA3EFEE93DFDE83CFCE412035D128D
:10155F0056A212039B900011EEF0A3EFF090000C37
:10156F00E0FEA3E0FFC3900009E09FFF900008E0BA
:10157F009EFE12630FEE3395E0FDFC9000151208EE
:10158F00B690000EE0FEA3E0FFC390000BE09FFFBC
:10159F0090000AE09EFE12630FEE3395E0FDFC9083
:1015AF0000191208B6900015E0FCA3E0FDA3E0FEC1
:1015BF00A3E0FFA804A905AA06FB120809900015CD
:1015CF001208B6900019E0FCA3E0FDA3E0FEA3E033
:1015DF00FFA804A905AA06FB120809900019120812
:1015EF00B6900019E0FCA3E0FDA3E0FEA3E0FF909E
:1015FF000015E0F8A3E0F9A3E0FAA3E02FFFEA3E1D
:10160F00FEE93DFDE83CFCE412035D1256A2120315
:10161F009B900013EEF0A3EFF0900011E0FCA3E01D
:10162F00FDE4120362C004C005C006C0079000139A
:10163F00E0FCA3E0FDE4120362A804A905AA06AB2F
:10164F0007D007D006D005D00412024790001D1214
:10165F0008B67F337E337D737C3F90001DE0F8A387
:10166F00E0F9A3E0FAA3E0FB1202E440317F667ECB
:10167F00667D867C3F90001DE0F8A3E0F9A3E0FAB9
:10168F00A3E0FB1202E460025014900011E070021C
:10169F00A3E0600A900013E07002A3E07012124AF8
:1016AF00567B007AF87D3C7C007F3C7E00021AB2AC
:1016BF00900008E0FEA3E0FFC3900001E09FFF90C1
:1016CF000000E09EFE12630FEE3395E0FDFC9000EC
:1016DF00151208B690000AE0FEA3E0FFC3900003C6
:1016EF00E09FFF900002E09EFE12630FEE3395E045
:1016FF00FDFC9000191208B6900015E0FCA3E0FD68
:10170F00A3E0FEA3E0FFA804A905AA06FB1208099F
:10171F009000151208B6900019E0FCA3E0FDA3E0BD
:10172F00FEA3E0FFA804A905AA06FB120809900072
:10173F00191208B6900019E0FCA3E0FDA3E0FEA388
:10174F00E0FF900015E0F8A3E0F9A3E0FAA3E02F83
:10175F00FFEA3EFEE93DFDE83CFCE412035D125654
:10176F00A212039B900011EEF0A3EFF090000CE09B
:10177F00FEA3E0FFC3900005E09FFF900004E09EF2
:10178F00FE12630FEE3395E0FDFC9000151208B6C4
:10179F0090000EE0FEA3E0FFC3900007E09FFF90D4
:1017AF000006E09EFE12630FEE3395E0FDFC900005
:1017BF00191208B6900015E0FCA3E0FDA3E0FEA30C
:1017CF00E0FFA804A905AA06FB120809900015124C
:1017DF0008B6900019E0FCA3E0FDA3E0FEA3E0FF34
:1017EF00A804A905AA06FB1208099000191208B649
:1017FF00900019E0FCA3E0FDA3E0FEA3E0FF900042
:10180F0015E0F8A3E0F9A3E0FAA3E02FFFEA3EFE0C
:10181F00E93DFDE83CFCE412035D1256A212039B66
:10182F00900013EEF0A3EFF0900011E0FCA3E0FDA9
:10183F00E4120362C004C005C006C007900013E0A5
:10184F00FCA3E0FDE4120362A804A905AA06AB07F6
:10185F00D007D006D005D00412024790001D120801
:10186F00B67F337E337D737C3F90001DE0F8A3E09D
:10187F00F9A3E0FAA3E0FB1202E4401D7F667E6647
:10188F007D867C3F90001DE0F8A3E0F9A3E0FAA36A
:10189F00E0FB1202E460144012124A567B007AF801
:1018AF007D3C7C007F3C7E00021AB2900008E0FE77
:1018BF00A3E0FFC3900005E09FFF900004E09EFEB1
:1018CF0012630FEE3395E0FDFC9000151208B690F1
:1018DF00000AE0FEA3E0FFC3900007E09FFF900027
:1018EF0006E09EFE12630FEE3395E0FDFC900019AB
:1018FF001208B6900015E0FCA3E0FDA3E0FEA3E004
:10190F00FFA804A905AA06FB1208099000151208E2
:10191F00B6900019E0FCA3E0FDA3E0FEA3E0FFA852
:10192F0004A905AA06FB1208099000191208B6901F
:10193F000019E0FCA3E0FDA3E0FEA3E0FF9000157B
:10194F00E0F8A3E0F9A3E0FAA3E02FFFEA3EFEE9F7
:10195F003DFDE83CFCE412035D1256A212039B907E
:10196F000011EEF0A3EFF090000CE0FEA3E0FFC338
:10197F00900001E09FFF900000E09EFE12630FEECB
:10198F003395E0FDFC9000151208B690000EE0FEB6
:10199F00A3E0FFC3900003E09FFF900002E09EFED4
:1019AF0012630FEE3395E0FDFC9000191208B6900C
:1019BF000015E0FCA3E0FDA3E0FEA3E0FFA804A94F
:1019CF0005AA06FB1208099000151208B690001917
:1019DF00E0FCA3E0FDA3E0FEA3E0FFA804A905AA95
:1019EF0006FB1208099000191208B6900019E0FCC6
:1019FF00A3E0FDA3E0FEA3E0FF900015E0F8A3E055
:101A0F00F9A3E0FAA3E02FFFEA3EFEE93DFDE83C33
:101A1F00FCE412035D1256A212039B900013EEF02A
:101A2F00A3EFF0900011E0FCA3E0FDE4120362C00D
:101A3F0004C005C006C007900013E0FCA3E0FDE45E
:101A4F00120362A804A905AA06AB07D007D006D0D7
:101A5F0005D00412024790001D1208B67F337E3363
:101A6F007D737C3F90001DE0F8A3E0F9A3E0FAA39B
:101A7F00E0FB1202E4401D7F667E667D867C3F9010
:101A8F00001DE0F8A3E0F9A3E0FAA3E0FB1202E4E3
:101A9F0060174015124A567B007AF87D3C7C007F18
:101AAF003C7E00124A670213F8900000E0FEA3E0AC
:101ABF00FFC3900005E09FFD900004E09EFCE41240
:101ACF000362A804A905AA06AB07E4FFFE7D487CC4
:101ADF00431202479002AE1208B6900000E0FEA338
:101AEF00E0FF900005E02FFD900004E03EFCE412C3
:101AFF0003629002AEE0F8A3E0F9A3E0FAA3E0FBE3
:101B0F0012013EA804A905AA06AB07E4FFFE7DA0BB
:101B1F007C43120049E4FBFAF978401202471203A2
:101B2F009B9002B6EEF0A3EFF0900002E0FEA3E070
:101B3F00FFC390000BE09FFD90000AE09EFCE412B3
:101B4F000362A804A905AA06AB07E4FFFE7D487C43
:101B5F00431202479002B21208B6900002E0FEA3B1
:101B6F00E0FF90000BE02FFD90000AE03EFCE41236
:101B7F0003629002B2E0F8A3E0F9A3E0FAA3E0FB5E
:101B8F0012013EA804A905AA06AB07E4FFFE7DA03B
:101B9F007C43120049E4FBFAF97840120247120322
:101BAF009B9002B8EEF0A3EFF09002AEE0FCA3E042
:101BBF00FDA3E0FEA3E0FF12039B12630FD3EF948C
:101BCF0002EE64809480501F9002B2E0FCA3E0FD0F
:101BDF00A3E0FEA3E0FF12039B12630FD3EF940267
:101BEF00EE64809480403D124A567B007AF87D3C2B
:101BFF007C007F3C7E00124A679002BAE070047F3F
:101C0F000180027F009002BAEFF0600BA37490F096
:101C1F00A374D0F00213F89002BB74D0F0A37490A9
:101C2F00F00213F874FFFFFE1255F07FE87E0312E7
:091C3F00606D74FFFFFE1255F008
:011C48002279
:10000E009002BB7490F0A374D0F09002B674FFF01F
:10001E00A374F4F09002AE1208C23DF973DA9002A6
:10002E00B87401F0A3744AF09002B21208C2BDAACD
:03003E00F35E224C
:1060E80090002E7401F0A37402F0A374ABF07B014E
:0D60F8007A0279A9125D3012000E7F01229C
:085CD200C10A4302EB0102D7F5
:1060AD00538EF7759A50438E04200003759C9830DB
:0E60BD000003759CF7438E10D2AF75AF012221
:0B631B008F9BE59A30E1FB539AFD22B6
:106295001206C4FF600C12631B740129F9E43AFA73
:0362A50080EE2266
:03004300025C213B
:105C2100C0E0C0F0C083C082C0D075D000C000C049
:105C310001C002C003200A0E9002EB7401F0A374AC
:105C410002F0A374D7F0E59A30E02ED20A539AFEFF
:105C51009002EBE0FBA3E0FAA3E0F9E59B12070A4F
:105C61009002ECE475F0011207939002EBE0FBA3C4
:105C7100E0FAA3E0F9E412070AD003D002D001D080
:0C5C810000D0D0D082D083D0F0D0E03230
:10589C00000000AA0001904C0000023A0001928620
:1058AC000008C460000A56E600000474000A5B5A43
:1058BC00000BB08000160BDA000005F0001611CAC0
:1058CC00001A4D2000305EEA000001A400306C4646
:1058DC00002EC200005F2E46000017C00000000022
:1058EC0000000000000000000000000000000000AC
:1058FC00000000000000000000000000000000009C
:10590C00000000000000000000000000000000008B
:0D591C00000000000000000000000000007E
:055CDA004202F0EF168C
:105FA000900294E0FCA3E0FDA3E0FEA3E0FF120852
:015FB0007779
:105FB100E4FEEF30E704D2828002C282C281EF2583
:095FC100E0FFD2810EEEB408E904
:015FCA0022B4
:1061D900E4FFFDC281D281A283E433FEEF25E04EC4
:0661E900FF0DEDB408ED0E
:0161EF00228D
:105E1400E4900014F0A3F0C2A47F90125FB1E4FFF9
:105E2400125FB1E4FF125FB1E4FF125FB11261D9F6
:105E3400EFFE900014E04EF0A3E0F01261D9900060
:105E440014E0FEA3E04FFF900014EEF0FEA3EFF089
:025E5400D2A4D6
:015E56002229
:0A632600C2A47F04125FB1D2A422CA
:0F5BA800900291EBF0A3EAF0A3E9F0A31208B684
:105BB700C2A7C2A47F03125FB17810125FA0780852
:105BC700125FA0900294A3A3A3E0FF125FB1E49039
:105BD700029AF0A3F0900298E0FEA3E0FFC39002C0
:105BE7009BE09F90029AE09E502D1261D9900291FE
:105BF700E0FBA3E0FAA3E0F990029AE0FCA3E0F54A
:105C0700828C83EF12071C90029BE004F070C69011
:095C1700029AE004F080BED2A460
:015C20002261
:10601C00126326125E149002F0EEF0A3EFF0E47F10
:10602C00AAFEFDFC90589C1208A6C31208666003D9
:08603C007F0122D2A47F0022A3
:0B3BED00900283EBF0A3EAF0A3E9F0E4
:103BF8001206C4FF90028AF0900283E0FBA3E475EA
:103C0800F001120793A9F0FA1206C490028BF0EFA4
:103C1800C394814011E0FF9440400BEFF46007909B
:103C2800028AE0B4FF3DE490028CF0900289E075CE
:103C3800F002A4FF90028CE0C39FE5F06480F87462
:103C480080984003023E2F900286E0FBA3E475F0C3
:103C5800011207A9A9F0FAE412070A90028CE004FD
:103C6800F080C890028BE0C3947F5006E024C0F037
:103C7800800790028BE024BFF090028AE0247FF056
:103C8800900289E06420705FA3E0FF7E007C007DE5
:103C9800BE12096CA804A905AA06AB07A3E0FFE4B5
:103CA800FCFDFEEB2FFFEE3AFEED39FDEC38FCE4AF
:103CB8007B80FAF9F812080990028D1208B690581C
:103CC800D812089690028DE0F8A3E0F9A3E0FAA3D1
:103CD800E02FFFEA3EFEE93DFDE83CFC900298E457
:103CE800F0A37480023E20900289E06418705FA3FC
:103CF800E0FF7E007C007DBE12096CA804A905AA1D
:103D080006AB07A3E0FFE4FCFDFEEB2FFFEE3AFE57
:103D1800ED39FDEC38FCE47B48FAF9F81208099013
:103D2800028D1208B69058C812089690028DE0F8D5
:103D3800A3E0F9A3E0FAA3E02FFFEA3EFEE93DFD88
:103D4800E83CFC900298E4F0A37448023E209002FC
:103D580089E06410705EA3E0FF7E007C007DBE12E7
:103D6800096CA804A905AA06AB07A3E0FFE4FCFDBB
:103D7800FEEB2FFFEE3AFEED39FDEC38FCE47B203C
:103D8800FAF9F812080990028D1208B69058B8127C
:103D9800089690028DE0F8A3E0F9A3E0FAA3E02FDB
:103DA800FFEA3EFEE93DFDE83CFC900298E4F0A302
:103DB80074208064900289E0640C706BA3E0FF7E3D
:103DC800007C007DBE12096CA804A905AA06AB07F1
:103DD800A3E0FFE4FCFDFEEB2FFFEE3AFEED39FD1C
:103DE800EC38FCE47B18FAF9F812080990028D12F5
:103DF80008B69058A812089690028DE0F8A3E0F94A
:103E0800A3E0FAA3E02FFFEA3EFEE93DFDE83CFC13
:103E1800900298E4F0A37418F0900286E0FBA3E007
:073E2800FAA3E0F9125BA808
:013E2F002270
:1036C30090016DEEF0A3EFF0A3ECF0A3EDF0A3EB0C
:0136D300F006
:1036D400787B7C017D017BFF7A5879E87E007F410D
:1036E40012069E90016FE0FFA3E09001BCCFF0A30F
:1036F400EFF0900171E024E0FFE434FFFEE4FCFD10
:103704009001C21208B6900172E0B420299001C25F
:10371400E0FCA3E0FDA3E0FEA3E0FFE47B40FAF9B4
:10372400F81208099001C21208B690017A7440F0A8
:103734009058E00237F5900172E0B418299001C264
:10374400E0FCA3E0FDA3E0FEA3E0FFE47B24FAF9A0
:10375400F81208099001C21208B690017A7424F094
:103764009058D00237F5900172E0B410289001C24D
:10377400E0FCA3E0FDA3E0FEA3E0FFE47B10FAF984
:10378400F81208099001C21208B690017A7410F078
:103794009058C0805C900172E0B40C289001C2E0A3
:1037A400FCA3E0FDA3E0FEA3E0FFE47B0CFAF9F840
:1037B4001208099001C21208B690017A740CF090B4
:1037C40058B0802D900172E0B4082F9001C2E0FC43
:1037D400A3E0FDA3E0FEA3E0FFE47B06FAF9F81200
:1037E40008099001C21208B690017A7406F0905844
:1037F400A01208969001BE1208B69001BEE0FCA388
:10380400E0FDA3E0FEA3E0FFA3E0F8A3E0F9A3E05A
:10381400FAA3E02FFFEA3EFEE93DFDE83CFC9001FF
:103824007AE0FB900298E4F0A3EBF07B017A017953
:103834007B125BA8E4900179F090017AE0FF90019B
:1038440079E0FEC39F4003023978747B2EF582E44D
:103854003401F583E0900177F0E4A3F0900178E07F
:10386400FFC39408400302396F900172E06408704A
:1038740041900177E0FEA807088002C313D8FC300A
:10388400E0028044900175E0FEA3E0FF6411700340
:10389400EE6411606DEF64117003EE641160639067
:1038A400016DE0FEA3E0FFA3E0FCA3E0FD90017541
:1038B4008027900178E0FF900177E0FEA807088058
:1038C40002C333D8FC30E71890016DE0FEA3E0FF9B
:1038D400A3E0FCA3E0FD900173E0FAA3E0FB801FEA
:1038E400900175E0FAA3E0FB64117003EA641160CF
:1038F4001190016DE0FEA3E0FFA3E0FCA3E0FD1244
:103904005CF6900170E004F0700690016FE004F042
:1039140090016FE0FEA3E0FFC39440EE9401505485
:103924009001BCE0FCA3E0FDC3EF9DFFEE9CFE9084
:103934000172E07A00B5072AEAB5062690016FEC19
:10394400F0A3EDF090016EE004F0700690016DE0DC
:1039540004F0C390016EE094F090016DE094004097
:103964000A22900178E004F0023860900179E004C2
:04397400F002383DE8
:01397800222C
:0E464C0090016DEEF0A3EFF0A3ECF0A3EDF003
:10465A00900181ECF0A3EDF0900174E0FF640C602E
:10466A0012EF6410600DEF64186008EF64206003B5
:10467A000247C49002867401F0A37401F0A3748304
:10468A00F0A3EFF0123BED900174E0FFB4200B9021
:10469A00017FE4F0A37480F0801EEFB4180B900140
:1046AA007FE4F0A37448F0800FEF75F002A4FF9046
:1046BA00017FE5F0F0A3EFF0E490017BF0A3F09026
:1046CA00017FE0FEA3E0FF90017BE0FCA3E0FDC3D5
:1046DA009FEC9E40030247C474832DF58274013C0B
:1046EA00F583E0FF900179E4F0A3EFF0E490017D17
:1046FA00F0A3F090017AE030E71890016DE0FEA394
:10470A00E0FFA3E0FCA3E0FD900175E0FAA3E0FB63
:10471A00801F900177E0FAA3E0FB64117003EA645A
:10472A0011601190016DE0FEA3E0FFA3E0FCA3E09D
:10473A00FD125CF690017AE025E0F0900179E03311
:10474A00F0900170E004F0700690016FE004F090C0
:10475A000181E0FEA3E0FFC3900170E09FFD90019C
:10476A006FE09EFC900174E07A00B5051CEAB5047E
:10477A001890016FEEF0A3EFF090016EE004F07074
:10478A002890016DE004F0802090017EE004F07032
:10479A000690017DE004F0C390017EE09408900148
:1047AA007DE0940050030246FD90017CE004F07025
:0A47BA000690017BE004F00246C9FE
:0147C40022D2
:10433E00900160EEF0A3EFF0A3ECF0A3EDF0A3EB91
:07434E00F0A3EAF0A3E9F07F
:10435500E490016CF0900164E0FBA3E0FAA3E0F9BE
:104365001206C4FF70030244C590016CE0600302AD
:104375004425EFD3948040057401F080D890016204
:10438500E0FCA3E0FDD39440EC940140030244C556
:104395001206C4FB900167E0900172F0900168E09D
:1043A500FFA3E0900173CFF0A3EFF090016AE0FF67
:1043B500A3E0900175CFF0A3EFF0900160E0FEA3BC
:1043C500E0FF1236C3900165E475F0011207939082
:1043D5000167E0FFB40808900161E024068009EF59
:1043E500C313FF900161E02FF0900160E03400F00D
:1043F500D3900161E094F0900160E09400500302D5
:10440500435A90016574FFF5F0120793900167E038
:10441500FF900163E02FF0900162E034000244BA9E
:10442500E490016CF0900162E0FCA3E0FDD39440C0
:10443500EC940140030244C5900164E0FBA3E0FA5B
:10444500A3E0F9A3E0900174F0900168E0FFA3E018
:10445500900175CFF0A3EFF090016AE0FFA3E09023
:104465000177CFF0A3EFF0900160E0FEA3E0FF122B
:10447500464C900165E475F002120793900167E0E0
:10448500FF7E00900161E02FF0900160E03EF0D3E7
:10449500A3E094F0900160E09400500302435A9029
:1044A500016574FF75F0FE120793900163E02FF02C
:1044B500900162E03EF0E4900160F0A3F002435AFF
:0144C50022D4
:10608D00123FF112601C1260E81262A81262CBC2BC
:10609D00001260AD120003122E39125F470226BCAA
:10004600020407E86480F8E933E83360110460F0DD
:10005600ED33EC337009E8FCE9FDEAFEEBFF220420
:1000660060DED3EB9FEA9EE99DE8C2E78CF0C2F71B
:1000760095F0400CE8CCF8E9CDF9EACEFAEBCFFBE7
:100086001203D285D0F05804700320D5B3E804706B
:10009600075002B2D502041192D5EC0460F7E4CC05
:1000A600C0E0C398F8603B94186008400DD0E0FBB0
:1000B6000203E9E4FBFAC9FC8028E830E406E4C957
:1000C600FBE4CAFCE830E305E4C9CACBFCE8540704
:1000D6006010F8C3E913F9EA13FAEB13FBEC13FC0F
:1000E600D8F130F52FC3E49CFCEF9BFFEE9AFEEDB2
:1000F60099FDD0E0FBEF4E4D4C701222DB0302045B
:100106000EEC2CFCEF33FFEE33FEED33FDED30E766
:10011600EB0203E9EF2BFFEE3AFEED39FDD0E0FBF3
:1001260050130BBB0003020411ED13FDEE13FEEF9B
:0801360013FFEC13FC0203E9C6
:10013E00EC4D6011E8497017ED33EC3304600DE4BB
:10014E00FCFFFEFD22E933E8330470F802040712C7
:10015E0003D258046009E4CC2481500628500902C9
:10016E00041128400302040EC0E0EB4A7044B9802B
:10017E0006D0E0FB0203FDEF4E701CBD8008EBFFC6
:10018E00EAFEE9FD80EBE98DF0A4FEE5F002022720
:10019E00E9CDF9EAFEEBFFEF89F0A4FCE5F0CE899C
:1001AE00F0A42EFFE435F0CD89F0A42DFEE435F059
:1001BE008067EF4E7005BD80D780C3EF8BF0A4AC87
:1001CE00F0EE8BF0A42CFCE435F0F8EF8AF0A42CC2
:1001DE00E5F038FCE433CB8DF0A42CFCE5F03BF8D5
:1001EE00EE8AF0A42CFCE5F038F8E433CF89F0A4C5
:1001FE002CFCE5F038CF3400CE89F0A42FFFE5F0CB
:10020E003EFEE433C98DF0A42EFEE5F039CD8AF022
:10021E00A42FFFE5F03EFEE43DFD33D0E0FB50079A
:10022E000BBB000F020411EC2CFCEF33FFEE33FE80
:06023E00ED33FD0203E9AF
:10024400020411EC5D046005E8590470030204071C
:100254001203D2580460F6EC4860F2EC7004FDFE20
:10026400FF22C860DB2481C85009C398600250068D
:1002740002040E9850CAF582E9294B4A7005AB82F4
:100284000203FD75F0007C1A7880C3EF9BEE9AEDB3
:1002940099400DC3EF9BFFEE9AFEED99FDE842F005
:1002A400DC23ACF0D0E0FFD0E0FED0E0FDAB822058
:1002B400E7101BEB60BAEC2CFCEF33FFEE33FEEDE2
:1002C40033FD0203E9E803F830E705C0F075F000F8
:1002D400EF2FFFEE33FEED33FD40B830E7C280AAC6
:1002E40074F8CC6480CCC86480C8F58204604FC3C1
:1002F400EB9FF5F0EA9E42F0E99D42F0E89C45F060
:10030400603C501DE5825FFFE582D313CB5BCBF4E9
:100314002B5582FB50280ABA002409B90020088012
:100324001DE5825BFBE582D313CF5FCFF4C3132FAC
:100334005582FF50090EBE00050DBD00010CC3EB34
:100344009FF5F0EA9E42F0E99D42F0E89C45F0609A
:0903540007CC4820E701B3EC22BC
:10035D0075F020800E75F010800575F0087D007E1B
:10036D00007F003392D530D503120858EC3340107E
:10037D00EF33FFEE33FEED33FDEC33FCD5F0ED2224
:0E038D00E5F0247EA2D513CC92E7CDCEFF2260
:10039B00EDD2E7CD33EC3392D524814006E4FFFE5A
:1003AB00FDFC22FCE4CFCECDCC24E0501174FF80B9
:1003BB00EDC3CC13CCCD13CDCE13CECF13CF047056
:0703CB00F030D5DE020858F6
:10223900E508241CF582E43400F583E005082290C2
:10224900001930070390001CE475F0011208F3022D
:1022590006C42000E97F2ED2008018EF540F249085
:10226900D43440D4FF30040BEF24BFB41A00500318
:102279002461FFE50960021509050CE50C700205EA
:102289000B30070E900019E475F0011208F3EF0204
:10229900070A024F0D7403D2078003E4C207F50849
:1022A90090001912090AE4F509F50BF50CE5096026
:1022B900077F2012227C80F5750AFFC201C200C285
:1022C90002C203C205C206C208122248FF700D30BD
:1022D90007057F0012228DAF0CAE0B22B4255FC219
:1022E900D5C204122248FF24D0B40A00501A75F04E
:1022F9000A780930D50508B6FF0106C6A426F620D6
:10230900D5047002D20380D924CFB41A00EF500447
:10231900C2E5D20402257FD20180C6D20080C0D294
:102329000280BCD2D580BAD20580B47F2012227C2B
:102339002002077401B5090040F1122239FF122267
:102349007C0222B6D208D2068095122239FB1222CB
:1023590039FA122239F94A4B7006797D7A267BFFC0
:1023690020022EE509602A7E008E827583001206FE
:10237900DD60060EEE650A70F0C2D5EBC0E0EAC07A
:10238900E0E9C0E0EE1225E0D0E0F9D0E0FAD0E0D3
:10239900FB1206C4FF60AAEBC0E0EAC0E0E9C0E0B6
:1023A90012227CD0E02401F9D0E03400FAD0E0FB1D
:1023B900E50A0460DCD50AD98087D20280A21225F9
:1023C900C260F7E50A70010412041CA90A600DE550
:1023D9000A600914F50A12266AEF60F3EA30E70287
:1023E900F404C3995079EAF4250A0430E701E404B6
:1023F900F50A800D1225C260C1EA050A250A1204F0
:102409001CEA900048F030E701E4250A04D50A04E3
:10241900200501141225E0E4C0E012266A90004864
:10242900E0601320E70714F0122264802204F0D040
:10243900E014C0E07F00122264E50A600712225B03
:10244900150A800B30050312225BD0E00222B6D0B8
:10245900E00480C41225C2609EE50A0412041C909F
:102469000048EAF0E50A2005026001042404122567
:01247900E082
:10247A0074FF04C0E012266A122264E50A200502EB
:10248A00600312225BD0E0B50AE87F4512226E9003
:10249A000048E07F2B30E7047F2DF404C0E01222CD
:1024AA007CD0E075F00A84C0F0122265D0E01222D6
:1024BA00650222B6791080027908C206C20880082D
:1024CA00D2D5790A8004790AC2D5E50A047002F5E0
:1024DA000AE4FAFDFEFF122239FC7B0820011312DE
:1024EA002239FD7B1030000A122239FE122239FFEE
:1024FA007B20EC3382D592D55013C3E43000069F7B
:10250A00FFE49EFEE42001039DFDE49CFCE4CBF87D
:10251A00C201EC700CCFCECDCCE824F8F870F38071
:10252A0017C3EF33FFEE33FEED33FDEC33FCEB3331
:10253A00FB994002FB0FD8E9EB300105F8D0E0C463
