:03000000025A0F92
:0C5A0F00787FE4F6D8FD758121025A561C
:105DD400D6DC00CAB1BCE4D1A1CFEE00A1F4C9E87D
:105DE400B6A8CFB5CDB3CAB1BCE400A1F4C4D6D62D
:105DF400D300C9E8D6C3CFB5CDB3CAB1BCE400A1C2
:105E0400F800A88B004E657874004F6B00D2D1C99E
:105E1400E8B6A8CFB5CDB3CAB1BCE42100000000F8
:045E2400000000007A
:10402900E490000DF0A3F07B017A0279BD124DFDF9
:10403900E49002C4F07F1D7E051256D6900166E415
:10404900F0A37414F0A374FFF0A374E0F07B787A02
:10405900007D3C7C007F3C7E0012530A900166E49F
:10406900F0A37468F074FFA3F0A3F07B787A007D65
:10407900507C007F3C7E0012530A7B017A0279BD95
:1040890090001E74F8F0A3E4F07411A3F0A3F07D7E
:104099003D7C007F3D7E001255727BFF7A5D79D4AD
:1040A9009001677410F0A374F8F0A3E4F07411A3FD
:1040B900F0A3F07D3D7C007F967E001243587B0182
:1040C9007A0279D190001E74F8F0A3E4F07411A378
:1040D900F0A3F07D3D7C007FA67E00125572E4902E
:1040E90002C7F07B017A0279C59001677420F0A3B9
:1040F90074F8F0A3E4F07411A3F0A3F07D6E7C00D2
:104109007F697E0012435812502290000DE0FEA3F1
:10411900E0FFF47003EE640B6004EF4E70367B0130
:104129007A0279BD124DFDE49002CDF07B017A024D
:1041390079C890001E74F8F0A3E4F074FFA3F0A30B
:10414900F07D967C007F647E0012557290000DE42C
:10415900F0A304F090000EE004F0700690000DE06A
:1041690004F09000067401F0A37402F0A374D5F072
:104179007B017A0279D31254B99002D5E0FEA3E00B
:10418900FFD39420EE94014081EF9440EE940140D6
:104199000302411390001A74FFF0A37446F0A3744C
:1041A90059F09002D3E0FFA3E090001DCFF0A3EFF8
:0D41B900F07BFF7A2679C41247BF02411344
:104659007F1D7E051256D67BFF7A5D79D79001675B
:104669007420F074FFA3F0A3F07411A3F0A3F0E495
:10467900FDFC7F38FE12435890002DE4F0A374230B
:10468900F074FFA3F0A3F07BF07A007D237C00E4B3
:10469900FFFE1239B77BFF7A5D79E09001677418E4
:1046A900F074FFA3F0A3F07411A3F0A3F07D267CAE
:1046B90000E4FFFE1243587BFF7A5D79EF900167B2
:1046C9007418F074FFA3F0A3F07411A3F0A3F07DA4
:1046D900437C00E4FFFE12435812502290000674F6
:1046E90001F0A37402F0A374D5F07B017A0279D3A7
:1046F9001254B99002D5E0FEA3E0FFD39420EE94C2
:1047090001402EEF9440EE9401502690001A74FF58
:10471900F0A37446F0A37459F09002D3E0FFA3E02C
:1047290090001DCFF0A3EFF07BFF7A407929124763
:10473900BF9002D5E0FEA3E0FFD39426EE9400409B
:104749002EEF943EEE940050267BFF7A5D79E0903F
:1047590001677418F074FFA3F0A3F0A3E4F0A37445
:104769001FF07D267C00E4FFFE124358120B3490A3
:1047790002D5E0FEA3E0FFD3943EEE94005003027D
:1047890046E5EF9456EE940040030246E57BFF7A36
:104799005D79EF9001677418F074FFA3F0A3F0A39B
:1047A900E4F0A3741FF07D437C00E4FFFE1243583C
:0647B900125D730246E5EB
:100B3400780F7C007D017BFF7A5E79217E007F0740
:100B440012069E9000167401F0FB7A0279BD124DD4
:100B5400FD7F1D7E051256D67BFF7A5D79F69001E6
:100B6400677420F074FFA3F0A3F07411A3F0A3F052
:100B74007D147C007F187E001243587B017A027931
:100B8400BD90001E74F8F0A3E4F074FFA3F0A3F08A
:100B94007D807C007F287E00125572900166E4F00F
:100BA400A37414F0A374C6F0A37418F07B287A001D
:100BB4007D697C007F647E0012530A7BFF7A5E7934
:100BC400039001677410F0E4A3F0A3F07411A3F090
:100BD400A3F07D6C7C007F737E0012435890001D4F
:100BE400E4F0A37414F0A3E4F0A3741FF07B287A58
:100BF400007D697C007F647E00123153900166E4BD
:100C0400F0A37414F0A374C6F0A37418F07B287ACC
:100C1400007D947C007F647E0012530A7BFF7A5E21
:100C240079069001677410F0E4A3F0A3F07411A3A3
:100C3400F0A3F07D997C007F737E001243589000EE
:100C44001DE4F0A37414F0A3E4F0A3741FF07B2854
:100C54007A007D947C007F647E001231539001669B
:100C6400E4F0A37414F0A374C6F0A37418F07B2802
:100C74007A007DB47C007F287E0012530A7BFF7AC1
:100C84005E7909E490001EF0A3F07411A3F0A3F0C0
:100C94007DB67C007F2A7E0012557290001DE4F020
:100CA400A37414F0A3E4F0A3741FF07B287A007DEE
:100CB400B47C007F287E00123153900166E4F0A3D7
:100CC4007414F0A374C6F0A37418F07B287A007D22
:100CD400B47C007FAA7E0012530A7BFF7A5E790EF1
:100CE400E490001EF0A3F07411A3F0A3F07DB67C91
:100CF400007FB97E0012557290001DE4F0A37414B5
:100D0400F0A3E4F0A3741FF07B287A007DB47C0088
:100D14007FAA7E00123153125022E49002D0F09048
:100D240002CDF09002CAF09002C7F09002C4F09095
:100D340002C1F0900016E014B407004003020F0B48
:100D4400900D5275F003A4C58325F0C58373020D7D
:100D540067020DA3020DDF020E1B020E57020E9254
:100D6400020ECD7B017A0279BD90001E7407F0A3B8
:100D740074E0F0E4A3F0A3F07D80FC7F28FE12551C
:100D8400727B017A0279D190001E74F8F0A3E4F02A
:100D940074FFA3F0A3F07D807C007FC8020F067B64
:100DA400017A0279C290001E7407F0A374E0F0E4A3
:100DB400A3F0A3F07D80FC7F50FE1255727B017A74
:100DC4000279BD90001E74F8F0A3E4F074FFA3F060
:100DD400A3F07D807C007F28020F067B017A0279D4
:100DE400C590001E7407F0A374E0F0E4A3F0A3F030
:100DF4007D80FC7F68FE1255727B017A0279C29075
:100E0400001E74F8F0A3E4F074FFA3F0A3F07D8057
:100E14007C007F50020F067B017A0279C890001E85
:100E24007407F0A374E0F0E4A3F0A3F07D80FC7FEA
:100E340080FE1255727B017A0279C590001E74F807
:100E4400F0A3E4F074FFA3F0A3F07D807C007F683E
:100E5400020F067B017A0279CB90001E7407F0A37F
:100E640074E0F0E4A3F0A3F07D80FC7F98FE1255BB
:100E7400727B017A0279C890001E74F8F0A3E4F042
:100E840074FFA3F0A3F07D807C007F8080747B01DD
:100E94007A0279CE90001E7407F0A374E0F0E4A304
:100EA400F0A3F07D80FC7FB0FE1255727B017A02C4
:100EB40079CB90001E74F8F0A3E4F074FFA3F0A3C0
:100EC400F07D807C007F9880397B017A0279D19013
:100ED400001E7407F0A374E0F0E4A3F0A3F07D8097
:100EE400FC7FC8FE1255727B017A0279CE90001EF7
:100EF40074F8F0A3E4F074FFA3F0A3F07D807C0009
:100F04007FB07E0012557290001A7401F0A374022F
:100F1400F0A374D5F07B017A0279D3125830900291
:100F2400D5E0FEA3E0FFD39420EE9401402EEF948D
:100F340040EE9401502690001A74FFF0A37426F03A
:100F4400A374C4F09002D3E0FFA3E090001DCFF09F
:100F5400A3EFF07BFF7A4679591247BF9002D3E0A2
:100F6400FEA3E0FFC39428EE9400402BD3EF9450EB
:100F7400EE940050229002D5E0FEA3E0FFC394B4A7
:100F8400EE94004012D3EF94C8EE94005009900000
:100F940016E004F030A5FD9002D3E0FEA3E0FFC309
:100FA4009496EE9400500302106ED3EF94BEEE9428
:100FB40000400302106E9002D5E0FEA3E0FFC3944C
:100FC400B4EE9400500302106ED3EF94C8EE940074
:100FD400400302106E9002CEE024D0C454F0FFA36C
:100FE400E024D04F90000FF09002CBE024D0C45402
:100FF400F0FFA3E024D04F900010F09002C8E0244A
:10100400D0C454F0FFA3E024D04F900011F090021C
:10101400C5E024D0C454F0FFA3E024D04F900012C4
:10102400F09002C2E024D0C454F0FFA3E024D04FD7
:10103400900013F09002D1E024D0900014F09002BC
:10104400BFE024D0C454F0FFA3E024D04F90001597
:10105400F07B017A00790F1253EA7BFF7A5E7911F3
:101064007D1D7C05125B9830A5FD9002D3E0FEA3A4
:10107400E0FFC39464EE94005003021200D3EF9493
:101084008CEE940040030212009002D5E0FEA3E02F
:10109400FFC39469EE94005003021200D3EF947DD1
:1010A400EE94004003021200900016E014B407000E
:1010B40040030211FD9010C775F003A4C58325F009
:1010C400C583730210DC02110002113202116402A2
:1010D40011910211BE0211EE9002C0E004F0E0D3BF
:1010E400943940097430F09002BFE004F09002BFDC
:1010F400E0D3943950030211FD0211E99002C3E0D8
:1011040004F0E0D3943240109002C2E0B43109A359
:101114007431F09002C214F09002C3E0D3943950B9
:10112400030211FD9002C2E004F0A30211E990024F
:10113400C6E004F0E0D3943140109002C5E0B4332B
:1011440009A37431F09002C514F09002C6E0D39460
:101154003950030211FD9002C5E004F0A30211E925
:101164009002C9E004F0E0D39433400F9002C8E049
:10117400B43208A37430F09002C8F09002C9E0D3EE
:10118400943940759002C8E004F0A380589002CCD2
:10119400E004F0E0D39439400F9002CBE0B435087A
:1011A400A37430F09002CBF09002CCE0D394394099
:1011B400489002CBE004F0A3802B9002CFE004F02F
:1011C400E0D39439400F9002CEE0B43508A37430D4
:1011D400F09002CEF09002CFE0D39439401B9002FD
:1011E400CEE004F0A37430F0800F9002D1E004F05C
:1011F400E0D3943740037431F030A5FD9002D3E07E
:10120400FEA3E0FFC39464EE940050030213C5D31D
:10121400EF948CEE940040030213C59002D5E0FED7
:10122400A3E0FFC39494EE940050030213C5D3EFDC
:1012340094A8EE940040030213C5900016E014B481
:10124400070040030213C290125975F003A4C5832A
:1012540025F0C5837302126E0212A30212DA02137E
:101264001002134602137C0213B29002C0E0B430A1
:101274000F9002BFE0B43008A37439F09002BFF0BD
:101284009002C0E0B430129002BFE06430600AA360
:10129400743AF09002BFE014F09002C00213BF90C1
:1012A40002C3E0B431119002C2E0B4300AA3743333
:1012B400F09002C27431F09002C3E0B43012900294
:1012C400C2E06430600AA3743AF09002C2E014F001
:1012D4009002C30213BF9002C6E0B431109002C55D
:1012E400E0B43009A37432F09002C504F09002C651
:1012F400E0B430129002C5E06430600AA3743AF09E
:101304009002C5E014F09002C60213BF9002C9E037
:10131400B430119002C8E0B4300AA37434F09002DF
:10132400C87432F09002C9E0B430129002C8E0648C
:1013340030600AA3743AF09002C8E014F09002C935
:1013440080799002CCE0B430119002CBE0B4300A42
:10135400A3743AF09002CB7435F09002CCE0B43030
:10136400129002CBE06430600AA3743AF09002CB8E
:10137400E014F09002CC80439002CFE0B43011909E
:1013840002CEE0B4300AA3743AF09002CE7435F081
:101394009002CFE0B430129002CEE06430600AA331
:1013A400743AF09002CEE014F09002CF800D9002D7
:1013B400D1E0B431037438F09002D1E014F030A5D8
:1013C400FD900016E0D394075003020D377401F02A
:0313D400020D37D0
:105D73007F1D7E051256D61250229000067401F044
:105D8300A37402F0A374D5F07B017A0279D3125481
:105D9300B99002D5E0FEA3E0FFD39420EE94014036
:105DA300D9EF9440EE940150D190001A74FFF0A300
:105DB3007446F0A37459F09002D3E0FFA3E090007F
:105DC3001DCFF0A3EFF07BFF7A4679591247BF80CE
:015DD300A926
:10521E00486172647761726520436865636B2052E2
:10522E00756E6E696E67002A2A2A2A2A2A2A466C09
:10523E0061736820436865636B2A2A2A2A2A2A2A00
:10524E00005732355138300057323551313600570C
:10525E0032355133320057323551363400466C6197
:10526E007368204572726F72002A2A2A2ACAB1D632
:10527E00D3BCECB2E22A2A2A2A00B6C1C8A1CAB10E
:10528E00BCE4D6D02E2E2E002A2A2A2ACEC2B6C88A
:10529E00BCECB2E22A2A2A2A00B6C1C8A1CEC2B6F6
:1052AE00C8D6D02E2E2E00B5B1C7B0CEC2B6C83AD3
:1052BE00002A2A2A2A4C4544BCECB2E22A2A2A2A7F
:1052CE00004C45443120C1C1004C45443220C1C17F
:1052DE00004C45443320C1C1004C45442020B9D870
:1052EE00002A2A2A2AB7E4C3F9C6F7BCECB2E22A8E
:0C52FE002A2A2A00BEAFB1A833C9F9006B
:102E5100E4FFFE1256D67BFF7A52791E90001E7453
:102E610007F0A374E0F0E4A3F0A3F0FDFCFFFE1271
:102E710055727BFF7A52793590001E7407F0A37466
:102E8100E0F0E4A3F0A3F07D10FCFFFE12557212F6
:102E91005FF7EF8EF01209392EADEF132EB5EF1457
:102EA1002EBDEF152EC5EF1600002EEA7BFF7A52DC
:102EB100794F80167BFF7A527956800E7BFF7A52CA
:102EC100795D80067BFF7A5279649001677410F016
:102ED100A374F8F0A3E4F074FFA3F0A3F07D207CC9
:102EE10000E4FFFE12435880267BFF7A52796B90F3
:102EF100001E74F8F0A3E4F074FFA3F0A3F07D20AA
:102F01007C00E4FFFE1255727FFF7E0F12624C7F40
:102F1100FF7E0012624C7BFF7A52797790016774D1
:102F210010F0A37407F0A374E0F0E4A3F0A3F07D24
:102F310030FCFFFE1243587BFF7A5279889001677B
:102F41007410F0A374F8F0A3E4F074FFA3F0A3F0FD
:102F51007D407C00E4FFFE1243587B017A0279BD7B
:102F6100124DFD7B017A0279BD9001677410F0A3C7
:102F710074F8F0A3E4F074FFA3F0A3F07D507C009B
:102F8100E4FFFE1243587FFF7E0012624C7BFF7A02
:102F91005279969001677410F0A37407F0A374E05E
:102FA100F0E4A3F0A3F07D60FCFFFE1243587BFF29
:102FB1007A5279A79001677410F0A374F8F0A3E432
:102FC100F074FFA3F0A3F07D707C00E4FFFE1243D8
:102FD100587B017A00790D12603A7FFF7E071262F9
:102FE1004C7B017A00790D12603A7BFF7A5279B5F8
:102FF1009001677410F0A37407F0A374E0F07411EA
:10300100A3F0A3F07D807C00E4FFFE1243587B0116
:103011007A00790D90001E74F8F0A3E4F074FFA318
:10302100F0A3F07D807C007F507E001255727BFF03
:103031007A5279BF9001677410F0A37407F0A374FA
:10304100E0F0E4A3F0A3F07D90FCFFFE124358C230
:10305100857BFF7A5279CF9001677410F0A374F8E1
:10306100F0A3E4F074FFA3F0A3F07DA07C00E4FFE3
:10307100FE1243587FFF7E0512624CC2867BFF7AA7
:103081005279D79001677410F0A374F8F0A3E4F0BB
:1030910074FFA3F0A3F07DA07C00E4FFFE1243586F
:1030A1007FFF7E0512624CC2877BFF7A5279DF90E7
:1030B10001677410F0A374F8F0A3E4F074FFA3F0B7
:1030C100A3F07DA07C00E4FFFE1243587FFF7E0544
:1030D10012624C1200037BFF7A5279E79001677408
:1030E10010F0A374F8F0A3E4F074FFA3F0A3F07D53
:1030F100A07C00E4FFFE1243587FFF7E0512624C64
:103101007BFF7A5279EF9001677410F0A37407F096
:10311100A374E0F0E4A3F0A3F07DB0FCFFFE124342
:10312100587BFF7A5379029001677410F0A374F809
:10313100F0A3E4F074FFA3F0A3F07DC07C00E4FFF2
:10314100FE1243587F037E001262277FFF7E0F022B
:02315100624CCE
:1034350090000D74F8F0A3E4F07F1D7E051256D6BA
:103445009001667401F0A37420F074FFA3F0A3F05B
:103455007BF07A00E4FDFCFFFE12530A900166E45E
:10346500F0A37418F0A37405F0A3741DF07BF07A33
:10347500007D087C01E4FFFE12530A900166E4F02A
:10348500A37418F074FFA3F0A3F07B187A007D08ED
:103495007C01E4FFFE12530A900166E4F0A3741860
:1034A500F0E4A3F0A3F07B18FA7D087C017F18FEF9
:1034B50012530A900166E4F0A37418F0A374C6F0E1
:1034C500A37418F0FB7A007D087C017F307E001222
:1034D500530A900166E4F0A37418F0A3E4F0A37412
:1034E5001FF07B187A007D087C017F487E0012530F
:1034F5000A900166E4F0A37418F0A374F8F0A3E44D
:10350500F07B18FA7D087C017F60FE12530A90015A
:1035150066E4F0A37418F0A374F8F0A3741FF07BAD
:10352500187A007D087C017F787E0012530A90018D
:1035350066E4F0A37418F0A37407F0A374E0F07BBD
:10354500187A007D087C017F907E0012530A900155
:1035550066E4F0A37418F0A3747FF0A374FFF07B06
:10356500187A007D087C017FA87E0012530A90011D
:1035750066E4F0A37418F0A374FFF0A374E0F07B85
:10358500187A007D087C017FC07E0012530A9001E5
:1035950066E4F0A37418F0A374B7F0A37423F07B6A
:1035A500187A007D087C017FD87E0012530A1250DC
:1035B500229000067401F0A37402F0A374D5F07B89
:1035C500017A0279D31254B99002D5E0FEA3E0FF47
:1035D500D39400EE94004023EF9408EE9401501B21
:1035E5009002D3E0FEA3E0FF9002D5E0FCA3E0FD4E
:1035F50090000DE0FAA3E0FB125B1A9002D5E0FE05
:10360500A3E0FFD39420EE9401402EEF9440EE9476
:1036150001502690001A74FFF0A37426F0A374C419
:10362500F09002D3E0FFA3E090001DCFF0A3EFF0F0
:103635007BFF7A2679C41247BF9002D5E0FEA3E04E
:10364500FFD39408EE940150030235B6EF9420EEB3
:10365500940140030235B69002D3E0FEA3E0FF7C5F
:10366500007D1812073EEFB40A0040030235B690FC
:10367500367BF828287302369902369D0236A70252
:1036850036B40236BA0236C60236D30236DA023606
:10369500E70236F474FF8001E490000DF0A3F00218
:1036A50035B690000D74C6F0A37418F00235B690C7
:1036B500000DE4801190000D74F8F0A3E4F00235DC
:1036C500B690000D74F8F0A3741FF00235B69000A3
:1036D5000D7407801290000D747FF0A374FFF00243
:1036E50035B690000D74FFF0A374E0F00235B69086
:0C36F500000D74B7F0A37423F00235B68A
:1062AA004C4544BFD8D6C6004C454431004C454401
:0D62BA0032004C45443300B9D800BFAA00A3
:102B3700E4900002F07F1D7E051256D67BFF7A6275
:102B470079AA9001677420F074FFA3F0A3F07411C1
:102B5700A3F0A3F07D0A7C007F417E001243581248
:102B670050227BFF7A6279B274FF90001EF0A3F0C7
:102B77007411A3F0A3F07D327C007F1E7E001255F6
:102B8700727BFF7A6279B774FF90001EF0A3F0742E
:102B970011A3F0A3F07D787C007F1E7E0012557292
:102BA7007BFF7A6279BC74FF90001EF0A3F074116A
:102BB700A3F0A3F07DBE7C007F1E7E001255727FBE
:102BC7000112642C900166E4502FF0A3743CF0A32B
:102BD700E4F0A3741FF07B967A007D327C007F4679
:102BE7007E0012530A7BFF7A6279C19001677410E5
:102BF700F0A3E4F0A3741F802EF0A3743CF0A37439
:102C070007F0A374E0F07B967A007D327C007F4664
:102C17007E0012530A7BFF7A6279C49001677410B1
:102C2700F0A374F8F0A3E4F0A37405F0A3741DF007
:102C37007D4C7C007F1E7E001243587F0212642C5D
:102C4700900166E4502FF0A3743CF0A3E4F0A37462
:102C57001FF07B967A007D787C007F467E001253BA
:102C67000A7BFF7A6279C19001677410F0A3E4F0E0
:102C7700A3741F802AF0A3743CF0A374F8F0A3E4B4
:102C8700F07B96FA7D78FC7F46FE12530A7BFF7A2B
:102C97006279C49001677410F0A374F8F0A3E4F0AC
:102CA700A37405F0A3741DF07D927C007F1E7E0047
:102CB7001243587F0312642C900166E4502FF0A34F
:102CC700743CF0A3E4F0A3741FF07B967A007DBEFA
:102CD7007C007F467E0012530A7BFF7A6279C1909F
:102CE70001677410F0A3E4F0A3741F802EF0A3749F
:102CF7003CF0A374FFF0A374E0F07B967A007DBEEE
:102D07007C007F467E0012530A7BFF7A6279C4906B
:102D170001677410F0A374F8F0A3E4F0A37405F04E
:102D2700A3741DF07DD87C007F1E7E00124358904F
:102D370000067401F0A37402F0A374D5F07B017A46
:102D47000279D31254B930A5FD9002D5E0FEA3E075
:102D5700FFD39420EE9401402EEF9440EE9401505F
:102D67002690001A74FFF0A37426F0A374C4F090A1
:102D770002D3E0FFA3E090001DCFF0A3EFF07BFFAD
:102D87007A2679C41247BF9002D3E0FEA3E0FFD3AF
:102D9700941EEE9400402CEF94D2EE9400502490B1
:102DA70002D5E0FEA3E0FF9432EE94004015EF94C5
:102DB7006EEE9400500D7F0112642CB392007F01D8
:102DC70012636F9002D3E0FEA3E0FFD3941EEE944C
:102DD70000402CEF94D2EE940050249002D5E0FEF0
:102DE700A3E0FF9478EE94004015EF94B4EE9400BE
:102DF700500D7F0212642CB392007F0212636F9012
:102E070002D3E0FEA3E0FFD3941EEE94005003022A
:102E17002BC6EF94D2EE94004003022BC69002D546
:102E2700E0FEA3E0FF94BEEE94005003022BC6EF32
:102E370094FAEE94004003022BC67F0312642CB36E
:0A2E470092007F0312636F022BC696
:0A652200B5B1C7B0CEC2B6C83A004A
:104CCD00E490000DF0A3F07F1D7E051256D69001E5
:104CDD0066E4F0A37432F0A3E4F0A3741FF07B98A4
:104CED007A007D3C7C007F2D7E0012530A90001DC2
:104CFD00E4F0A3741EF0A374F8F0A3E4F07B84FA3F
:104D0D007D46FC7F37FE12315312502290000DE08C
:104D1D00FEA3E0FFF44E6004EF4E70557B017A0068
:104D2D00790F12603A7BFF7A6579229001677410D2
:104D3D00F0A374F8F0A3E4F07411A3F0A3F07D4E8A
:104D4D007C007F387E001243587B017A00790F90EA
:104D5D00001E74F8F0A3E4F074FFA3F0A3F07D4EF1
:104D6D007C007F807E0012557290000DE4F0A3044C
:104D7D00F090000EE004F0700690000DE004F0D30A
:104D8D0090000EE094FF90000DE094004004E4F0DC
:104D9D00A3F09000067401F0A37402F0A374D5F093
:104DAD007B017A0279D31254B99002D5E0FEA3E0CB
:104DBD00FFD39420EE94015003024D19EF9440EE71
:104DCD0094014003024D1990001A74FFF0A374264C
:104DDD00F0A374C4F09002D3E0FFA3E090001DCFC8
:104DED00F0A3EFF07BFF7A2679C41247BF024D196D
:105F6800C8D5C0FA00CEC2B6C800B5E7BBB000CFEE
:105F7800E0B2E100D3B2BCFEBCECB2E200BBADB013
:105F8800E500B4AEBFDAD6FACAD600535049D6FAFD
:105F9800CAD6004C454400CEB4BFAAB7C52100A15B
:085FA800FB00A88000A1FE002F
:105E28005602BD0000000000000000000000000055
:0B5E3800000000000000000000C10995
:1026C400E4900000F0A3F0C28C74FFFFFE1256D613
:1026D400900008E4F0A37443F0A31208C200600C55
:1026E400A07B917A007D147C007F0A7E00124B91BE
:1026F4007BFF7A5F79689001677410F074FFA3F030
:10270400A3F07411A3F0A3F07D477C007F0A7E0040
:10271400124358900008E4F0A37443F0A31208C2D3
:10272400006058867B467A007D147C007FA07E0082
:10273400124B917BFF7A5F796D9001677410F0748E
:10274400FFA3F0A3F07411A3F0A3F07D477C007FF6
:10275400A07E00124358900008E4F0A37444F0A350
:102764001208C200607D2A7B467A007D5D7C007F72
:102774000A7E00124B917BFF7A5F79729001677435
:1027840010F074FFA3F0A3F07411A3F0A3F07D91F3
:102794007C007F0A7E00124358900008E4F0A37482
:1027A40044F0A31208C20060A25A7B467A007D5D01
:1027B4007C007F557E00124B917BFF7A5F79779086
:1027C40001677410F074FFA3F0A3F07411A3F0A3D5
:1027D400F07D917C007F557E00124358900008E400
:1027E400F0A37444F0A31208C20060C78A7B467A3F
:1027F400007D5D7C007FA07E00124B917BFF7A5FA1
:10280400797C9001677410F074FFA3F0A3F0741145
:10281400A3F0A3F07D917C007FA07E00124358902A
:102824000008E4F0A37444F0A31208C20060ECBAF8
:102834007B467A007DA67C007F0A7E00124B917B4A
:10284400FF7A5F79859001677410F074FFA3F0A399
:10285400F07411A3F0A3F07DDA7C007F0A7E0012ED
:102864004358900008E4F0A37444F0A31208C20093
:102874006111EA7B917A007DA67C007F557E00126F
:102884004B917BFF7A5F798A9001677410F074FF33
:10289400A3F0A3F07411A3F0A3F07DDA7C007F55BC
:1028A4007E00124358900008E4F0A37441F0A31290
:1028B40008C200615EF27B917A007DEF7C007F0AA2
:1028C4007E00124B917BFF7A5F79939001677410BD
:1028D400F074FFA3F0A3F07411A3F0A3F07D207CA7
:1028E400017F0A7E00124358900008E4F0A374416B
:1028F400F0A31208C20061A8947B467A007DEF7CA5
:10290400007FA07E00124B917BFF7A5F799B900140
:10291400677410F074FFA3F0A3F07411A3F0A3F094
:102924007D207C017FA07E001243581261AED28CC0
:10293400E49002D3F0A3F0A3F0A3F0900000E0B47D
:102944000B0FA3E0B4FF0A1261AEE4900000F0A301
:10295400F0900001E004F07006900000E004F090B4
:1029640000067401F0A37402F0A374D5F07B017A1D
:102974000279D31254B99002D3E0FEA3E0FFC394CA
:102984000AEE94004011D3EF9450EE940050089056
:1029940002D3E4F0A304F09002D3E0FEA3E0FFC36B
:1029A4009455EE94004012D3EF949BEE940050099A
:1029B4009002D3E4F0A37402F09002D3E0FEA3E00B
:1029C400FFC394A0EE94004012D3EF94DCEE940085
:1029D40050099002D3E4F0A37403F09002D5E0FE12
:1029E400A3E0FFC3941EEE94004011D3EF9458EE7D
:1029F400940050089002D5E4F0A304F09002D5E0CE
:102A0400FEA3E0FFC3945DEE94004012D3EF94A1C3
:102A1400EE940050099002D5E4F0A37402F0900201
:102A2400D5E0FEA3E0FFC394A6EE94004012D3EFDA
:102A340094EAEE940050099002D5E4F0A37403F0F4
:102A44009002D5E0FEA3E0FFC394EFEE94004012A1
:102A5400D3EF9433EE940150099002D5E4F0A374BB
:102A640004F09002D5E0FEA3E0FFEE6003022934F7
:102A7400EF24FE603B14605F147003022B022403F6
:102A840060030229349002D3E0FEA3E0FFEE60036A
:102A9400022934EF24FE600C14600F240260030248
:102AA40029348000124029022934124CCD022934E1
:102AB4009002D3E0FEA3E0FFEE6003022934EF248A
:102AC400FE600C14600B24026003022934804E80E3
:102AD4004C122E510226CB9002D3E0FEA3E0FFEE6F
:102AE4006003022934EF24FE601014600F24026096
:102AF400030229341234350229348021801F9002C4
:102B0400D3E0FEA3E0FFEE6003022934EF24FE606D
:102B14000C1460192402600302293480007BFF7ABC
:102B24005F799F74FFFDFC125B98022934122B37E6
:032B34000229343F
:10612A0074FFFFFE1256D6900008E4F0A374AEF096
:10613A00A31208C2005F4E507B8C7A007D497C0016
:0E614A007F3C7E00124B917FFF7E0F02624C65
:105B980090015BEBF0A3EAF0A3E9F0A3ECF0A3ED2E
:015BA800F00C
:105BA90090015BE0FBA3E0FAA3E0F99001677410B0
:105BB900F0A374F8F0A3E4F090015EE0FFA3E09095
:105BC900016ACFF0A3EFF0E4FDFCFFFE1243587F1A
:105BD900FF7E0712624C90015BE0FBA3E0FAA3E0B1
:105BE900F9126441EF75F008A4FB7A00900166E4AC
:105BF900F0A37410F090015EE0FFA3E0900168CF7C
:0C5C0900F0A3EFF0E4FDFCFFFE02530AE4
:1054B900900003EBF0A3EAF0A3E9F0A3E0F9A3E07D
:1054C900FAA3E0900020C9F0A3EAF0A3E9F0900064
:1054D90003E0FBA3E0FAA3E0F912491F900003E0FF
:1054E900FBA3E0FAA3E0F91207BFFDACF0E4120355
:1054F900627BE17A7A797078411202477B9A7A99CC
:10550900796D78C112004D12039B900003E0FBA353
:10551900E0FAA3E0F9EE8FF01207EA900006E0FB4B
:10552900A3E0FAA3E0F91207BFFDACF0E4120362AD
:105539007BC37AF5792C78411202477BF67A287970
:105549008C78C112004D12039B900006E0FBA3E08A
:10555900FAA3E0F9EE8FF01207EA30090BC2097BD2
:09556900017A0279D7125A9B2243
:10583000900017EBF0A3EAF0A3E9F0A3E0F9A3E0EE
:10584000FAA3E0900020C9F0A3EAF0A3E9F09000E9
:1058500017E0FBA3E0FAA3E0F912491F900017E05C
:10586000FBA3E0FAA3E0F91207BFFDACF0E41203DA
:10587000627BE17A7A797078411202477B9A7A9951
:10588000796D78C112004D12039B900017E0FBA3C5
:10589000E0FAA3E0F9EE8FF01207EA90001AE0FBBD
:1058A000A3E0FAA3E0F91207BFFDACF0E412036233
:1058B0007BC37AF5792C78411202477BF67A2879F6
:1058C0008C78C112004D12039B90001AE0FBA3E0FC
:0A58D000FAA3E0F9EE8FF00207EAF8
:10624C00E4FDFCC3ED9FEC9E5015E4FBFA0BBB0088
:0F625C00010ABA03F8BBE8F50DBD00010C80E4A0
:01626B002210
:1061AE007B017A0279BD124DFDE49002CDF07B01A8
:1061BE007A0279C890001EF0A3F074FFA3F0A3F04A
:0961CE00E4FDFC7FC8FE025572DD
:1050220090002D7401F0A37420F074FFA3F0A3F09C
:105032007BF07A007D207C01E4FFFE1239B77BFF12
:105042007A5F79A79001677420F074FFA3F0A3F050
:105052007411A3F0A3F07D207C017F147E00124323
:10506200587BFF7A5F79AA9001677420F0A374A23B
:10507200F0A37454F07411A3F0A3F07D207C017F9F
:10508200687E0012435890002D7401F0A37430F032
:1050920074FFA3F0A3F07B837A007D307C017F6CE8
:1050A2007E001239B790002D7401F0A3743BF074A6
:1050B200FFA3F0A3F07B787A007D257C017F787EC8
:1050C200001239B790002D7401F0A37440F074FF00
:1050D200A3F0A3F07B507A007D207C017F507E00FC
:1050E2001239B790002D7401F0A37440F074FFA33D
:1050F200F0A3F07BA07A007D207C017FA07E0012CD
:1051020039B77BFF7A5F79AD9001677420F074FF45
:10511200A3F0A3F07411A3F0A3F07D207C017FBB68
:055122007E000243586D
:1047BF00900017EBF0A3EAF0A3E9F090001DE0FEE4
:1047CF00A3E0FFC39450EE64809480503AEF9400BE
:1047DF00EE6480948040307BFF7A5F79A790016709
:1047EF007420F074FFA3F0A3F0A3E4F0A3741FF000
:1047FF007D207C017F147E00124358900017A3E0A8
:10480F00FAA3E0F912096690001DE0FEA3E0FFD3C2
:10481F009450EE6480948050030248BEEF94A0EE53
:10482F006480948040030248BE7BFF7A5F79AA9030
:10483F0001677420F0A374A2F0A37454F0A3E4F002
:10484F00A3741FF07D207C017F687E001243589077
:10485F00002D7401F0A37430F074FFA3F0A3F07B6C
:10486F00837A007D307C017F6C7E001239B7900017
:10487F002D7401F0A3743BF074FFA3F0A3F07B78C9
:10488F007A007D257C017F787E001239B790002D4C
:10489F007401F0A37440F074FFA3F0A3F07B507A7F
:1048AF00007D207C017F507E001239B71226C49004
:1048BF00001DE0FEA3E0FFD394A0EE64809480403F
:1048CF003AEF94F0EE6480948050307BFF7A5F79FA
:1048DF00AD9001677420F074FFA3F0A3F0A3E4F090
:1048EF00A3741FF07D207C017FBB7E001243589084
:0C48FF00001AA3E0FAA3E0F912096622F7
:0665510025372E33660021
:10645600EF25E02405FFEFD3940040077E05DEFE1E
:036466001F80F3A1
:016469002210
:10646A00EFD39400400D00007E207D1CDDFEDEFC93
:03647A001F80ED93
:01647D0022FC
:1061D700C200D2807F05126456C2807FC8126456FF
:1061E7007FC8126456D2807F32126456A280920012
:0761F7007F19126456A2009B
:0161FE00227E
:10630100E4FC7D08C280ECC313FCD28030800344DE
:0B63110080FC7F19126456DDEBAF0426
:01631C00225E
:02631D00AD07CA
:10631F007B08C280ED1392807F19126456D280EDF4
:0A632F00C313FDDBED7F1902645675
:1060B600E4FBFFFEFDFC1261D77FCC12631D7F441B
:1060C60012631D7F0A12646A1261D77FCC12631DA8
:1060D6007FBE12631D126301AB07126301EF7F00DF
:0960E600FEEF2BFDE43EFEAF05C8
:0160EF00228E
:0B603A00900016EBF0A3EAF0A3E9F0E1
:106045001260B6AD07AC06E4120362E4FBFA798090
:10605500783D12013E90001C74FFF0A37465F0A317
:106065007451F0A31208B6900016E0FBA3E0FAA362
:05607500E0F90222A683
:105628000A004F4B0A004E6F7420666F756E642136
:105638000A006C696E6B000000000000FF653664AC
:1056480065736B746F70000000FF26C47374617219
:10565800746368000000FF2E51706963626F780000
:10566800000000FF343574656D70657274000000C9
:10567800FF4CCD63616C656E6461720000FF402968
:105688007374696D650000000000FF633973746509
:105698006D706572740000FF635473776C656431D4
:1056A80000000000FF64D773776C65643200000067
:1056B80000FF64E473776C65643300000000FF64E6
:0E56C800F16F66666C656400000000FF64020E
:0B5A9B00900009EBF0A3EAF0A3E9F093
:105AA60090000AE475F003120793E490000CF0905E
:105AB600000CE0FFD3940C505AEFB40C0302653F80
:105AC60090000CE075F00DA4243AF9745635F0FAFE
:105AD6007BFFC003C002900009E0FBA3E0FAA3E04D
:105AE600F8AC02AD03D002D003120B17EF701C9076
:105AF600000CE075F00DA42444F582E43456F583D9
:105B0600740193FA740293F902096690000CE0049A
:035B1600F0809C80
:015B19002269
:10647E001206C4B4410B9000011206DDB45402D3CF
:03648E0022C32204
:106339007B017A0279BD124DFD7B017A0279BD128A
:0B63490064917BFF7A56792802649172
:106354007B017A00790D12603A7B017A00790E1282
:0B63640064917BFF7A56792802649157
:096536007BFF7A56792A02649178
:09653F007BFF7A56792E0264916B
:0D64D7007F0112642CB392007F0102636FFD
:0D64E4007F0212642CB392007F0202636FEE
:0D64F1007F0312642CB392007F0302636FDF
:10640200D2007F0112636FD2007F0212636FD2004B
:056412007F0302636F2F
:086548007F107E8DDEFEDFFCFA
:016550002228
:04622700AD07AC060D
:10622B00ED4C601C7BC8B2A1126548DBF97BC8B290
:10623B00A1126548126548DBF6ED1D70E31C80E08A
:01624B002230
:0F63BD001392831263CCEBC313FB1263CCD28118
:0863CC007F207E1DDEFEDFFCD8
:0163D40022A6
:0B4DFD00900017EBF0A3EAF0A3E9F030
:104E08007B017A00791A1258DA900017E0FBA3E0C8
:104E1800FAA3E0F9743212070A900017E0FBA3E046
:104E2800FAA3E0F9900001743012071C900020E00A
:104E3800FFC4540F243090000212071CEF540F24B3
:104E48003090000312071C900004742F12071C9066
:104E5800001EE0FFC4540F243090000512071CEF19
:104E6800540F243090000612071C900007742F126C
:104E7800071C90001DE0FFC4540F24309000081256
:104E8800071CEF540F243090000912071C90000AE9
:104E9800742F12071C90001CE0FFC4540F2430909C
:104EA800000B12071CEF540F243090000C12071C43
:104EB80090000D743A12071C90001BE0FFC4540FB9
:104EC800243090000E12071CEF540F243090000F6E
:104ED80012071C900010743A12071C90001AE0FF89
:104EE800C4540F243090001112071CEF540F2430C3
:104EF80090001212071C900013742F12071C9000C8
:104F08001FE0540F243090001412071C900015E481
:034F180002071C71
:0D63EC00F9EF12071C1263F9E4FF125FB015
:0863F9007F027E3BDEFEDFFCAB
:016401002278
:02607A00AB0772
:10607C00C2A71263CCC2811263CCD2A71263CC7AB2
:10608C0008C2811263CCA903E91263BDDAF37A0862
:10609C00C2811263CCA905E91392831263CCEDC3C0
:0960AC0013FD1263C7DAE9C2A773
:0160B50022C8
:025FB000AB073D
:105FB200C2A71263CCC2811263CCD2A71263CC7A7D
:105FC20008C2811263CCEB1263BDDAF57A08D28182
:105FD2001263CCEDC313FD1263CCC2811263CC30C9
:105FE20083054480FD8004ED547FFDDAE1C2A712EF
:045FF20063CCAF05C8
:015FF6002288
:1053EA00900017EBF0A3EAF0A3E9F0E4FD7F8E1238
:1053FA00607A1263F9900017E0FBA3E0FAA3E0F9E0
:10540A001206C4FD7F8012607A1263F9900017E0D9
:10541A00FBA3E0FAA3E0F99000011206DDFD7F820A
:10542A0012607A1263F9900017E0FBA3E0FAA3E096
:10543A00F99000021206DDFD7F8412607A1263F988
:10544A00900017E0FBA3E0FAA3E0F990000312062C
:10545A00DDFD7F8612607A1263F9900017E0FBA3E4
:10546A00E0FAA3E0F99000041206DDFD7F881260DD
:10547A007A1263F9900017E0FBA3E0FAA3E0F9902F
:10548A0000051206DDFD7F8A12607A1263F9900028
:10549A0017E0FBA3E0FAA3E0F99000061206DDFD8F
:0F54AA007F8C12607A1263F97D807F8E02607AA8
:1058DA00900021EBF0A3EAF0A3E9F01263F47F8DC4
:1058EA00125FB0900021E0FBA3E0FAA3E09000066B
:1058FA001263EC7F8B125FB0900021E0FBA3E0FA09
:10590A00A3E09000051263EC7F89125FB09000213A
:10591A00E0FBA3E0FAA3E0F9900004EF12071C12DF
:10592A0063F47F87125FB0900021E0FBA3E0FAA343
:10593A00E0F99000031263ED7F85125FB0900021B9
:10594A00E0FBA3E0FAA3E0F99000021263ED7F8383
:10595A00125FB0900021E0FBA3E0FAA3E0F9900007
:10596A00011263ED7F81125FB0900021E0FBA3E09A
:08597A00FAA3E0F9EF02070AAD
:1064A400C2A7C281E4FD7F8E12607A7D807F8E0256
:0264B400607A0C
:101C51000000000000000000000000000000000083
:101C61000000000000001FCC000C0000000000007C
:101C71000000080030006000080030006000000033
:101C8100022003FC1E20022003FC1E200220000073
:101C910000000E1811043FFF10840C7800000000B2
:101CA1000F0010840F3800C00778188400780000F6
:101CB10000780F8410C411240E9800E400840008F9
:101CC1000800680070000000000000000000000033
:101CD10000000000000007E0181820044002000086
:101CE100000040022004181807E000000000000076
:101CF1000240024001800FF00180024002400000DA
:101D01000080008000800FF80080008000800000CB
:101D11000001000D000E00000000000000000000A6
:101D21000000008000800080008000800080008032
:101D31000000000C000C000000000000000000008A
:101D41000000000600180060018006001800200055
:101D5100000007F0080810041004080807F000004C
:101D61000000080408041FFC000400040000000037
:101D710000000E0C10141024104411840E0C0000ED
:101D810000000C1810041104110412880C700000DA
:101D9100000000E00320042408241FFC00240000AC
:101DA10000001F98108411041104108810700000A5
:101DB100000007F008881104110418880070000061
:101DC10000001C00100010FC13001C00100000009B
:101DD10000000E3811441084108411440E380000A4
:101DE10000000700088C10441044088807F0000028
:101DF100000000000000030C030C000000000000C4
:101E010000000000000101060000000000000000C9
:101E110000000080014002200410080810040000A6
:101E210002200220022002200220022002200000C3
:101E31000000100408080410022001400080000086
:101E410000000E001200100C106C10800F0000003A
:101E510003E00C1813E4142417C4082807D0000069
:101E61000004003C03C41C40074000E4001C0004C3
:101E710010041FFC1104110411040E8800700000ED
:101E810003E00C1810041004100410081C100000CA
:101E910010041FFC100410041004080807F00000CF
:101EA10010041FFC1104110417C4100408180000C9
:101EB10010041FFC1104110017C0100008000000DD
:101EC10003E00C181004100410441C7800400000BA
:101ED10010041FFC10840080008010841FFC10047B
:101EE1000000100410041FFC100410040000000086
:101EF10000030001100110011FFE1000100000007E
:101F010010041FFC110403801464181C1004000049
:101F110010041FFC1004000400040004000C000065
:101F210010041FFC1F0000FC1F001FFC1004000018
:101F310010041FFC0C04030000E010181FFC10002B
:101F410007F00808100410041004080807F0000046
:101F510010041FFC10841080108010800F000000FE
:101F610007F0081810241024101C080A07F20000BA
:101F710010041FFC1104110011C011300E0C0004DB
:101F810000000E1C11041084108410441C38000041
:101F91001800100010041FFC1004100018000000AD
:101FA10010001FF810040004000410041FF81000B2
:101FB10010001E0011E0001C007013801C001000B6
:101FC1001FC0103C00E01F0000E0103C1FC00000DB
:101FD1001004180C163401C001C01634180C10047A
:101FE10010001C00130400FC13041C00100000006E
:101FF1000804101C1064108413041C041018000041
:102001000000000000007FFE40024002400200008C
:10201100000030000C0003800060001C0003000081
:1020210000004002400240027FFE0000000000006C
:10203100000000002000400040004000200000009F
:102041000001000100010001000100010001000187
:1020510000004000400020000000000000000000DF
:1020610000000098012401440144014400FC0004E3
:1020710010001FFC008801040104008800700000AA
:1020810000000070008801040104010400880000C0
:102091000000007000880104010411081FFC000405
:1020A100000000F8014401440144014400C800005B
:1020B1000000010401040FFC1104110411001800B7
:1020C100000000D601290129012901C901060000EA
:1020D10010041FFC008401000100010400FC000445
:1020E10000000104190419FC0004000400000000B0
:1020F1000000000300010101190119FE00000000A8
:1021010010041FFC0024004001B4010C0104000074
:102111000000100410041FFC000400040000000073
:10212100010401FC0104010001FC0104010000FCA7
:10213100010401FC008401000100010400FC000411
:10214100000000F8010401040104010400F800008A
:10215100010101FF008501040104008800700000F5
:1021610000000070008801040104010501FF000165
:102171000104010401FC008401040100018000004C
:10218100000000CC01240124012401240198000055
:1021910000000100010007F8010401040000000033
:1021A100010001F8000400040004010801FC00041E
:1021B100010001800170000C00100160018001002C
:1021C10001F0010C003001C00030010C01F00100F0
:1021D10000000104018C00740170018C01040000F5
:1021E100010101810171000E0018016001800100EF
:1021F10000000184010C013401440184010C000040
:10220100000000000000000001003EFC400240020E
:102211000000000000000000FFFF000000000000BF
:102221000000400240023EFC0100000000000000EE
:10223100000060008000800040004000200020007D
:0D64FE00C295C2948FB0C296D296D294225D
:0C63A400E0FF7E001263B0E0FEA3E0FF0B
:0D63B000D295C2948FB0C296D296D294229C
:0764B6001264BD7D017F1996
:0A64BD001264FEAE04AF050263B0E6
:106417003ECF2401FDE43FFCE0FEA3E0FF1260FB5A
:056427007F220264FE6B
:036557000263B02C
:0B60F000E0FEA3E0FFA3E0FCA3E0FD46
:1060FB00AB05AA048F828E83E583FD7C007F0212A1
:10610B0064BDAF82AD07FC7F031264BDEAFD7C006A
:0F611B007F061264BDAF03AD07FC7F070264BDB2
:0B6158007C007F1F1264BD7F057E00ED
:10616300E4FDFCC3ED9FEC9E5015E4FBFA0BBB0072
:0F617300010ABA04F8BB75F50DBD00010C80E4FC
:0161820022FA
:103E6E007F327E001261637D017C00E4FF1264BD2F
:103E7E007F32FE1261639000477F64126163E582B8
:103E8E00644745836003024022FDFC7FEA1264BD55
:103E9E007D207FEB1264BD7D0C7FEC1264BD7DC472
:103EAE007FED1264BD7D407FE81264BD7D387FE9F1
:103EBE001264BD7D017FF11264BD7D107FF212642C
:103ECE00BD7DA37F271264BDFD7F401264BD7F417F
:103EDE001264BD0D7F421264BD7D127F431264BD1C
:103EEE007D107F441264BD7D267F451264BD7D0822
:103EFE007F461264BD7D537F471264BD7D027F48AD
:103F0E001264BD7D157F491264BD7D197F4A12640E
:103F1E00BD7F4B1264BD7D167F4C1264BD7D197F33
:103F2E00501264BD7D2F7F511264BD7D2D7F5212C4
:103F3E0064BD7D3E7F531264BD0D7F541264BD7F00
:103F4E00551264BD7D2C7F561264BD7D777F57124E
:103F5E0064BD7D097F581264BD7D067F591264BD14
:103F6E007F5A1264BD7D0A7F5B1264BD7D1D7F5C2E
:103F7E001264BD7DCC7F5D1264BD7D1B7F1B126400
:103F8E00BD7D017F1A1264BD7D2F7F241264BD7D1D
:103F9E00577F251264BD7D977F231264BD7D367FCA
:103FAE00181264B67D887F1F1264BD7F05FE1261F4
:103FBE00637D801261587D901261587DD0126158D8
:103FCE007D057C007F171264BDE4FD7F361264BD53
:103FDE007D387F281264BD7F28FE1261637D3C7C94
:103FEE00001264BDE4FD7F021264BD7F031264BD46
:103FFE007F041264BD7DEF7F051264BDFD7F061246
:10400E0064BD7F071264BD0D7F081264BD7D3F7FC6
:0B401E00091264B67F327E000261636D
:0856D600900021EEF0A3EFF0BB
:1056DE00A31208C200000000E4FDFCFFFE1260FBF6
:1056EE001264279000231208C200000000E47F40DD
:1056FE007E01FDFC900023E0F8A3E0F9A3E0FAA3FD
:10570E00E0FBC3120866506D9000271208C200001D
:10571E000000E47FF0FEFDFC900027E0F8A3E0F926
:10572E00A3E0FAA3E0FBC3120866502790002112F3
:10573E0063A4900027E0FCA3E0FDA3E0FEA3E02419
:10574E0001FFE43EFEE43DFDE43CFC900027120820
:10575E00B680BF900023E0FCA3E0FDA3E0FEA3E033
:10576E002401FFE43EFEE43DFDE43CFC90002312E8
:05577E0008B60256FB15
:015783002203
:105E7B00900027E0FEA3E0FFA3E0FCA3E0FD900071
:065E8B002FE0FAA3E0FB8A
:105E9100900285EAF0A3EBF0900283EEF0A3EFF01D
:105EA100C394F0EE94005021C3ED9440EC94015062
:105EB1001890028312641F900285E0FF7E00126534
:0A5EC10057E0FEA3E0FF1265572230
:1039B700900029ECF0A3EDF0900027EEF0A3EFF0D4
:0839C70090002BEAF0A3EBF0E5
:1039CF00D3EF9BEE9A402790002BE0FEA3E0FF90F1
:1039DF000035EEF0A3EFF0900027E0FDA3E090009C
:1039EF002BCDF0A3EDF0900027EEF0A3EFF09000B9
:1039FF002DE0FEA3E0FF900029E0FCA3E0FDD39FA4
:103A0F00EC9E4018900035EEF0A3EFF090002DECF7
:103A1F00F0A3EDF0900029EEF0A3EFF0900027E077
:103A2F00FEA3E0FFC390002CE09FFF90002BE09ED1
:103A3F00900031F0FAA3EFF0FB900029E0FEA3E035
:103A4F00FFC390002EE09FFF90002DE09E9000336B
:103A5F00F0A3EFF0EB4A7027125E7B90002AE00490
:103A6F00F07006900029E004F0900029E0FEA3E03A
:103A7F00FFC390002EE09F90002DE09E50DA229021
:103A8F000033E07002A3E07027125E7B900028E005
:103A9F0004F07006900027E004F0900027E0FEA3EA
:103AAF00E0FFC390002CE09F90002BE09E50DA22A5
:103ABF00900033E0FEA3E0FF900031E0FCA3E0FDB7
:103ACF00D39FEE6480F8EC6480985003023B7AEF4A
:103ADF0025E0FFEE33FEC3EF9DFFEE9C900035F027
:103AEF00A3EFF090002BE0FCA3E0FD900027E0FE99
:103AFF00A3E0FF6D7002EE6C7003023C27125E8331
:103B0F00900028E004F07006900027E004F0D390B6
:103B1F000036E09400900035E0648094804030904F
:103B2F00002AE004F07006900029E004F0900032C3
:103B3F00E025E0FD900031E033FC900034E025E01B
:103B4F00FF900033E033FEC3EF9DFFEE9C800C909F
:103B5F000034E025E0FF900033E033FE900036E0C4
:103B6F002FF0900035E03EF0023AF2900032E0255F
:103B7F00E0FF900031E033FE900033E0FCA3E0FD66
:103B8F00C3EF9DFFEE9CA3F0A3EFF090002DE0FE9E
:103B9F00A3E0FF900029E0FCA3E0FD6F7002EC6E44
:103BAF006076900027E0FEA3E0FF125E8990002A66
:103BBF00E004F07006900029E004F0D3900036E0A6
:103BCF009400900035E0648094804030900028E0AD
:103BDF0004F07006900027E004F0900032E025E03A
:103BEF00FD900031E033FC900034E025E0FF9000C1
:103BFF0033E033FEC3EF9DFFEE9C800C900034E06A
:103C0F0025E0FF900033E033FE900036E02FF09078
:0B3C1F000035E03EF0023B9A125E7B95
:013C2A002277
:104F1B00900049EEF0A3EFF090004DEBF090004BBA
:054F2B00ECF0A3EDF025
:104F3000900054ECF0A3EDF090004DE024E0F0E49C
:104F4000F990004DE075F010A42451F582E5F0349D
:104F50001CF583E58229F582E43583F583E493909B
:104F60000052F0E4A3F0900052E030E718900049BE
:104F7000E0FEA3E0FFA3E0FCA3E0FD90004EE0FA1A
:104F8000A3E0FB801F900050E0FAA3E0FB641170E7
:104F900003EA64116011900049E0FEA3E0FFA3E082
:104FA000FCA3E0FD125E91900052E025E0F090003D
:104FB0004CE004F0700690004BE004F0C390004A0F
:104FC000E094F0900049E094005056900054E0FEC8
:104FD000A3E0FFC390004CE09FFD90004BE09EFCDF
:104FE000ED64104C7023EEF0A3EFF090004AE00463
:104FF000F07006900049E004F0C390004AE094404D
:10500000900049E09401401022900053E004F0E049
:10501000C394085003024F6609E964106003024F0D
:01502000414E
:01502100226C
:10557200900017EEF0A3EFF0A3ECF0A3EDF0A3EB95
:07558200F0A3EAF0A3E9F039
:1055890090001BE0FBA3E475F0011207A9A9F0FA4A
:105599001206C4FB900019E0FCA3E0FD90001EE098
:1055A900FFA3E090004ECFF0A3EFF0900020E0FFC2
:1055B900A3E0900050CFF0A3EFF0900017E0FEA316
:1055C900E0FF124F1BC3900018E094E8900017E029
:1055D9009400500AA3E02408F09000178020C3909B
:1055E900001AE09430900019E09401E490001750FB
:1055F90013F0A3F090001AE02410F0900019E034A1
:1056090000F08007F0A3F0A3F0A3F090001BE0FBEB
:0E561900A3E0FAA3E0F91206C460030255896B
:015627002260
:104B9100900002EEF0A3EFF0A3ECF0A3EDF0A3EA96
:044BA100F0A3EBF0A2
:104BA500E490000EF0A3F09000141208C20000007B
:104BB500009000021260F0126427C2A47F03126104
:104BC5009490000AE0FCA3E0FDA3E0FEA3E0FF78DB
:104BD5001012087712619490000AE0FCA3E0FDA38F
:104BE500E0FEA3E0FF780812087712619490000AAE
:104BF500A3A3A3E0FF1261949000101208C2000065
:104C05000000900008E0FEA3E0FFE4FCFD9000102A
:104C1500E0F8A3E0F9A3E0FAA3E0FBC312086640BD
:104C250003024CCA9000141208C200000000900054
:104C350006E0FEA3E0FFE4FCFD900014E0F8A3E02D
:104C4500F9A3E0FAA3E0FBC3120866503C1263D552
:104C550090000FEFF01263D590000EEFF07E00127A
:104C650063B0A3E0FF1263B0900014E0FCA3E0FD85
:104C7500A3E0FEA3E02401FFE43EFEE43DFDE43CA9
:104C8500FC9000141208B680A5900010A3A3E0FEC6
:104C9500A3E0FF900005E02FFF900004E0900002E4
:104CA500126417900010E0FCA3E0FDA3E0FEA3E072
:104CB5002401FFE43EFEE43DFDE43CFC90001012BF
:074CC50008B6024C07D2A45F
:014CCC0022C5
:10530A00900160EEF0A3EFF0A3ECF0A3EDF0A3EAB6
:04531A00F0A3EBF021
:10531E0090016E1208C2000000009001601260F051
:10532E0012642790016A1208C20000000090016604
:10533E00E0FEA3E0FFE4FCFD90016AE0F8A3E0F9D3
:10534E00A3E0FAA3E0FBC312086640030253E99000
:10535E00016E1208C200000000900164E0FEA3E09E
:10536E00FFE4FCFD90016EE0F8A3E0F9A3E0FAA3E0
:10537E00E0FBC312086650279001681263A49001E7
:10538E006EE0FCA3E0FDA3E0FEA3E02401FFE43EFB
:10539E00FEE43DFDE43CFC90016E1208B680BA902E
:1053AE00016AA3A3E0FEA3E0FF900163E02FFF904C
:1053BE000162E090016012641790016AE0FCA3E0C4
:1053CE00FDA3E0FEA3E02401FFE43EFEE43DFDE488
:0B53DE003CFC90016A1208B602533B31
:0153E90022A1
:1031530090001BEAF0A3EBF0900017EEF0A3EFF062
:10316300A3ECF0A3EDF0C006C007A3E0FEA3E0FFCD
:10317300900017E0FAA3E02FFBEA3EFAA3E0FFA3D7
:10318300E090002DCFF0A3EFF090001FE0FFA3E04D
:1031930090002FCFF0A3EFF0D007D0061239B790ED
:1031A3000018E02401FF900017E03400FEC006C0C1
:1031B3000790001AE02401FD900019E03400FC9010
:1031C300001BE0FEA3E0FF900017E0FAA3E02FFF4F
:1031D300EA3ECF24FFFBEF34FFFAA3E0FEA3E02493
:1031E30001FFE43E90002DF0A3EFF090001FE0FFFD
:1031F300A3E090002FCFF0A3EFF0D007D006123951
:10320300B7900017E0FAA3E0FBFFAE02C006C007C9
:10321300A3E0FCA3E0FD90001DE0FEA3E0FF90000F
:1032230019E0F8A3E02FFFE83E90002DF0A3EFF0A4
:1032330090001FE0FFA3E090002FCFF0A3EFF0D0AA
:1032430007D0061239B7900018E02401FB9000174D
:10325300E03400FAAF03FEC006C00790001AE02472
:1032630001FD900019E03400FC90001DE0FEA3E096
:10327300FF900019E0F8A3E02FFFE83ECF24FFCF33
:1032830034FF90002DF0A3EFF090001FE0FFA3E0C8
:1032930090002FCFF0A3EFF0D007D0061239B790EC
:1032A300001DE0FEA3E0FF90001AE02FFD9000193F
:1032B300E03EFC90001BE0FEA3E0FF900017E0FA65
:1032C300A3E02FFBEA3EFA90001DE0FEA3E0FF908F
:1032D3000019E0F8A3E02FFFE83E90002DF0A3EFE4
:1032E300F090001FE0FFA3E090002FCFF0A3EFF0DA
:1032F300900017E0FEA3E0FF1239B7900018E02416
:1033030001FF900017E03400FEC006C00790001DC7
:10331300E0FEA3E0FF90001AE02FFF900019E03ECB
:10332300CF24FFFDEF34FFFC90001BE0FEA3E0FF82
:10333300900017E0FAA3E02FFFEA3ECF24FFFBEF54
:1033430034FFFA90001DE0FEA3E0FF900019E0F8BF
:10335300A3E02FFFE83ECF24FFCF34FF90002DF0F2
:10336300A3EFF090001FE0FFA3E090002FCFF0A3A6
:10337300EFF0D007D0061239B790001BE0FEA3E0B0
:10338300FF900018E02FFB900017E03EFAAF03FE1A
:10339300C006C007900019E0FCA3E0FD90001DE00B
:1033A300FEA3E0FF900019E0F8A3E02FFFE83E90B2
:1033B300002DF0A3EFF090001FE0FFA3E090002F9B
:1033C300CFF0A3EFF0D007D0061239B790001BE07F
:1033D300FEA3E0FF900018E02FFF900017E03ECF20
:1033E30024FFFBEF34FFFAAF03FEC006C0079000D3
:1033F3001AE02401FD900019E03400FC90001DE068
:10340300FEA3E0FF900019E0F8A3E02FFFE83ECF12
:1034130024FFCF34FF90002DF0A3EFF090001FE0C6
:10342300FFA3E090002FCFF0A3EFF0D007D0060268
:0234330039B7A7
:07000300D285D286D28722CC
:10636F00EF24FE600C14600E2402700EA2009285C2
:0B637F0022A200928622A20092872238
:10642C00EF24FE600A14600A24027008A28522A2DE
:05643C008622A2872268
:03000B00025C157F
:105C1500C0E0C0F0C083C082C0D075D000C000C055
:105C250001C002C003C004C005C006C007758AAB29
:105C3500758C2FD2A69002F2E0C3945F402AE4F05F
:105C4500300A25C20A7B017A0279D712647E500494
:105C5500D209800D7B017A0279D774FFFDFC125BB6
:105C6500989002D7E4F0A3F09002F2E004F0D00798
:105C7500D006D005D004D003D002D001D000D0D0BA
:095C8500D082D083D0F0D0E032CF
:1064C700438901758AAB758C2FD2A9D2AFC28C22B2
:105E43005F029CFF62E4FF5127FF13D700000000AD
:105E5300000000000000000000000000000000003F
:0A5E630000004102BBD04102BC90D8
:1062C700EF7803C333CE33CED8F9FFE4FDFCC3ED3B
:0C62D7009FEC9E50070DBD00010C80F2F2
:0162E3002298
:10638A00E4FEEF30E704D2828002C282EF25E0FF0A
:09639A00C281D2810EEEB408E9C3
:0163A30022D7
:105F1A00E4FDFBFAC281C282C2A612638A7F067EB0
:105F2A00001262C7C2817F017E001262C7D281C29B
:105F3A0081E4FDEB25E0FBEA33FAC281D2813083AA
:105F4A00050BBB00010A0DEDB410E8EAC4F854F0E1
:0D5F5A00C868FAEBC4540F48D2A6AE02FF8F
:015F67002217
:0241C600A90747
:1041C800E490003FF0A3F0900033F0A3F0AF0112A9
:1041D8005F1AAC06AD07900034E025E0FF9000338D
:1041E800E033FE74352FF58274003EF583ECF0A3BE
:1041F800EDF0900034E004F07006900033E004F035
:10420800C3900034E09405900033E0940040BEE48D
:10421800900033F0A3F0900033E0FEA3E0FFC394D6
:1042280004EE940040030242F2EF2401FFE43EADA5
:1042380007FCC3ED9405EC940040030242DEED2533
:10424800E0FFEC33FE74352FF58274003EF583E011
:10425800FAA3E0FB900034E025E0FF900033E03360
:10426800FE74352FF58274003EF583E0FEA3E0FF6F
:10427800D39BEE9A4058900041EEF0A3EFF0ED2565
:10428800E0FFEC33FE74352FF58274003EF583E0D1
:10429800FAA3E0FB900034E025E0FF900033E03320
:1042A800FE74352FF58274003EF583EAF0A3EBF037
:1042B800900041E0FAA3E0FBED25E0FFEC33FE744B
:1042C800352FF58274003EF583EAF0A3EBF00DBDBF
:1042D80000010C02423A900034E004F0600302420C
:1042E8001E900033E004F002421EE490003FF0A369
:1042F800F0900033F0A304F0900033E0FEA3E0FF59
:10430800C39404EE94005032EF25E0FFEE33FE74C0
:10431800352FF58274003EF583E0FEA3E0FF9000A0
:1043280040E02FF090003FE03EF0900034E004F0D1
:1043380070C6900033E004F080BE90003FE0FEA31A
:0F434800E0FF7C007D0312073EA3EEF0A3EFF031
:014357002243
:0B5ECB0090002BEBF0A3EAF0A3E9F03D
:105ED6009002BBE0FF1241C6900031EEF0A3EFF056
:105EE6009002BCE0FF1241C6900031E0F9A3E0FD4C
:105EF60090002BE0FBA3E0FAA3E0C98DF01207EABD
:105F060090002EE0FBA3E0FAA3E0F9EE8FF0120773
:035F1600EA7F011E
:015F19002265
:10490B009000207401F0A37402F0A374ABF07B0150
:04491B007A0279A9FA
:0B491F0090001DEBF0A3EAF0A3E9F00C
:10492A0090002E7401F0A37400F0A37425F07B01AB
:10493A007A007923125ECBEF7002FF2290002E7468
:10494A0001F0A37400F0A37429F07B017A0079279F
:10495A00125ECBEF7002FF22900023E0FEA3E0FF7D
:10496A00900027E0FCA3E0FDD39FEC9E500EED24BF
:10497A0032FDE43CFCC3EF9DEE9C402A900027E008
:10498A00FEA3E0FF900023E0FCA3E0FDD39FEC9E92
:10499A004003024A4DED2432FDE43CFCC3EF9DEE98
:1049AA009C4003024A4D900025E0FEA3E0FF9000E0
:1049BA0029E0FCA3E0FDD39FEC9E500EED2432FDCE
:1049CA00E43CFCC3EF9DEE9C4024900029E0FEA34A
:1049DA00E0FF900025E0FCA3E0FDD39FEC9E50632E
:1049EA00ED2432FDE43CFCC3EF9DEE9C5055900053
:1049FA0027E0FEA3E0FF900024E02FFF900023E0D1
:104A0A003EC313F9EF13FF90001DE0FBA3E0FAA3E6
:104A1A00E0C98FF01207EA900029E0FEA3E0FF90B8
:104A2A000026E02FFF900025E03EC313F9EF13FFA5
:104A3A00900020E0FBA3E0FAA3E0C98FF01207EA96
:054A4A007F01227F0046
:014A4F002244
:104A5000E4900010F07D047C0174FFFBFA7F047E7B
:014A60000154
:104A6100900021EEF0A3EFF0900025EAF0A3EBF027
:104A7100900023ECF0A3EDF0900021E0FAA3E0FB1D
:104A810024F4FFEA34FFFEC007EB240DFBE43AFAFD
:104A9100A3E0FFA3E090002DCFF0A3EFF09000255D
:104AA100E0FFA3E090002FCFF0A3EFF0D007123981
:104AB100B7900021E0FAA3E0FBFFAE02C006C007F9
:104AC100900024E024F4FD900023E034FFFCE0FE9C
:104AD100A3E0240DFFE43E90002DF0A3EFF0900041
:104AE10025E0FFA3E090002FCFF0A3EFF0D007D097
:104AF100061239B7900022E02401FF900021E03432
:104B010000FE900024E02401FD900023E03400FC2D
:104B1100900025E0FAA3E0FB125E91900022E024D0
:104B2100FFFF900021E034FFFE900024E02401FD0E
:104B3100900023E03400FC900025E0FAA3E0FB1292
:104B41005E91900022E02401FF900021E03400FEFC
:104B5100900024E024FFFD900023E034FFFC90004E
:104B610025E0FAA3E0FB125E91900022E024FFFF12
:104B7100900021E034FFFE900024E024FFFD90002E
:104B810023E034FFFC900025E0FAA3E0FB025E91F4
:105B1A0090000FEEF0A3EFF0A3ECF0A3EDF0A3EAF0
:105B2A00F0A3EBF0125E91900010E02401FF9000C8
:105B3A000FE03400FE900011E0FCA3E0FDA3E0FAC0
:105B4A00A3E0FB125E9190000FE0FEA3E0FF90003D
:105B5A0012E02401FD900011E03400FC900013E0F3
:105B6A00FAA3E0FB125E91900010E02401FF90007E
:105B7A000FE03400FE900012E02401FD900011E0D5
:0E5B8A003400FC900013E0FAA3E0FB025E91F1
:1051270030A5030251F5EF600612490B0251CB126D
:10513700490BEF70030251CB9002A9E0FCA3E0FDFD
:10514700E41203629002AEE0F8A3E0F9A3E0FAA349
:10515700E0FB12013EC004C005C006C0079002B6BE
:10516700E0FCA3E0FDEC120362D003D002D001D033
:105177000012004D12039B9002A9EEF0A3EFF0A3DB
:10518700E0FCA3E0FDE41203629002B2E0F8A3E0C2
:10519700F9A3E0FAA3E0FB12013EC004C005C00674
:1051A700C0079002B8E0FCA3E0FDEC120362D00355
:1051B700D002D001D00012004D12039B9002ABEE3B
:1051C700F0A3EFF09002ADE020E74474C0F0900246
:1051D700A9E0FFA3E09002A5CFF0A3EFF09002AB08
:1051E700E0FFA3E09002A7CFF0A3EFF080219002A9
:1051F700ADE030E705547FF08015E49002A5F0A3F9
:10520700F0A3F0A3F074FFA3F0A3F0A3F0A3F09032
:0752170002ADE05480FF220C
:1013D700E4900010F0F074FFFFFE1256D67B007AFF
:1013E700F87D3C7C007F3C7E00124A61E49002ADB0
:1013F700F0A31208C20000000090029FA3E0FAA326
:10140700E0F5828A837F0112096A9002ADE0FF54FA
:10141700C0FEBE40E4EF54BFF09002A9E0FEA3E097
:10142700FF900010E0FD25E025E02400F582E4347C
:1014370000F583EEF0A3EFF09002ABE0FEA3E0FF30
:10144700ED25E025E02402F582E43400F583EEF093
:10145700A3EFF0900010E004F0E024FE6023146096
:101467003214604D2403709174FFFBFA7D3C7C00BD
:101477007F3C7E00124A617B007AF87D3C7C0080CD
:10148700297D3C7C00124A597B007AF87D047C0157
:101497000216C074FFFBFA7D047C017F3C7E0012BC
:1014A7004A617B007AF87D047C017F047E01021A81
:1014B700BA900004E0FEA3E0FFC3900001E09FFFA5
:1014C700900000E09EFE12650BEE3395E0FDFC9068
:1014D70000151208B6900006E0FEA3E0FFC39000D7
:1014E70003E09FFF900002E09EFE12650BEE33952E
:1014F700E0FDFC9000191208B6900015E0FCA3E08F
:10150700FDA3E0FEA3E0FFA804A905AA06FB1208B5
:10151700099000151208B6900019E0FCA3E0FDA39E
:10152700E0FEA3E0FFA804A905AA06FB120809909C
:1015370000191208B6900019E0FCA3E0FDA3E0FE35
:10154700A3E0FF900015E0F8A3E0F9A3E0FAA3E019
:101557002FFFEA3EFEE93DFDE83CFCE412035D1285
:10156700578812039B900011EEF0A3EFF090000C48
:10157700E0FEA3E0FFC3900009E09FFF900008E0B2
:101587009EFE12650BEE3395E0FDFC9000151208E8
:10159700B690000EE0FEA3E0FFC390000BE09FFFB4
:1015A70090000AE09EFE12650BEE3395E0FDFC907D
:1015B70000191208B6900015E0FCA3E0FDA3E0FEB9
:1015C700A3E0FFA804A905AA06FB120809900015C5
:1015D7001208B6900019E0FCA3E0FDA3E0FEA3E02B
:1015E700FFA804A905AA06FB12080990001912080A
:1015F700B6900019E0FCA3E0FDA3E0FEA3E0FF9096
:101607000015E0F8A3E0F9A3E0FAA3E02FFFEA3E14
:10161700FEE93DFDE83CFCE412035D125788120326
:101627009B900013EEF0A3EFF0900011E0FCA3E015
:10163700FDE4120362C004C005C006C00790001392
:10164700E0FCA3E0FDE4120362A804A905AA06AB27
:1016570007D007D006D005D00412024790001D120C
:1016670008B67F337E337D737C3F90001DE0F8A37F
:10167700E0F9A3E0FAA3E0FB1202E440317F667EC3
:10168700667D867C3F90001DE0F8A3E0F9A3E0FAB1
:10169700A3E0FB1202E460025014900011E0700214
:1016A700A3E0600A900013E07002A3E07012124AF0
:1016B700507B007AF87D3C7C007F3C7E00021ABAA2
:1016C700900008E0FEA3E0FFC3900001E09FFF90B9
:1016D7000000E09EFE12650BEE3395E0FDFC9000E6
:1016E700151208B690000AE0FEA3E0FFC3900003BE
:1016F700E09FFF900002E09EFE12650BEE3395E03F
:10170700FDFC9000191208B6900015E0FCA3E0FD5F
:10171700A3E0FEA3E0FFA804A905AA06FB12080997
:101727009000151208B6900019E0FCA3E0FDA3E0B5
:10173700FEA3E0FFA804A905AA06FB12080990006A
:10174700191208B6900019E0FCA3E0FDA3E0FEA380
:10175700E0FF900015E0F8A3E0F9A3E0FAA3E02F7B
:10176700FFEA3EFEE93DFDE83CFCE412035D12574B
:101777008812039B900011EEF0A3EFF090000CE0AD
:10178700FEA3E0FFC3900005E09FFF900004E09EEA
:10179700FE12650BEE3395E0FDFC9000151208B6BE
:1017A70090000EE0FEA3E0FFC3900007E09FFF90CC
:1017B7000006E09EFE12650BEE3395E0FDFC9000FF
:1017C700191208B6900015E0FCA3E0FDA3E0FEA304
:1017D700E0FFA804A905AA06FB1208099000151244
:1017E70008B6900019E0FCA3E0FDA3E0FEA3E0FF2C
:1017F700A804A905AA06FB1208099000191208B641
:10180700900019E0FCA3E0FDA3E0FEA3E0FF900039
:1018170015E0F8A3E0F9A3E0FAA3E02FFFEA3EFE04
:10182700E93DFDE83CFCE412035D12578812039B77
:10183700900013EEF0A3EFF0900011E0FCA3E0FDA1
:10184700E4120362C004C005C006C007900013E09D
:10185700FCA3E0FDE4120362A804A905AA06AB07EE
:10186700D007D006D005D00412024790001D1208F9
:10187700B67F337E337D737C3F90001DE0F8A3E095
:10188700F9A3E0FAA3E0FB1202E4401D7F667E663F
:101897007D867C3F90001DE0F8A3E0F9A3E0FAA362
:1018A700E0FB1202E460144012124A507B007AF8FF
:1018B7007D3C7C007F3C7E00021ABA900008E0FE67
:1018C700A3E0FFC3900005E09FFF900004E09EFEA9
:1018D70012650BEE3395E0FDFC9000151208B690EB
:1018E700000AE0FEA3E0FFC3900007E09FFF90001F
:1018F70006E09EFE12650BEE3395E0FDFC900019A5
:101907001208B6900015E0FCA3E0FDA3E0FEA3E0FB
:10191700FFA804A905AA06FB1208099000151208DA
:10192700B6900019E0FCA3E0FDA3E0FEA3E0FFA84A
:1019370004A905AA06FB1208099000191208B69017
:101947000019E0FCA3E0FDA3E0FEA3E0FF90001573
:10195700E0F8A3E0F9A3E0FAA3E02FFFEA3EFEE9EF
:101967003DFDE83CFCE412035D12578812039B908F
:101977000011EEF0A3EFF090000CE0FEA3E0FFC330
:10198700900001E09FFF900000E09EFE12650BEEC5
:101997003395E0FDFC9000151208B690000EE0FEAE
:1019A700A3E0FFC3900003E09FFF900002E09EFECC
:1019B70012650BEE3395E0FDFC9000191208B69006
:1019C7000015E0FCA3E0FDA3E0FEA3E0FFA804A947
:1019D70005AA06FB1208099000151208B69000190F
:1019E700E0FCA3E0FDA3E0FEA3E0FFA804A905AA8D
:1019F70006FB1208099000191208B6900019E0FCBE
:101A0700A3E0FDA3E0FEA3E0FF900015E0F8A3E04C
:101A1700F9A3E0FAA3E02FFFEA3EFEE93DFDE83C2B
:101A2700FCE412035D12578812039B900013EEF03B
:101A3700A3EFF0900011E0FCA3E0FDE4120362C005
:101A470004C005C006C007900013E0FCA3E0FDE456
:101A5700120362A804A905AA06AB07D007D006D0CF
:101A670005D00412024790001D1208B67F337E335B
:101A77007D737C3F90001DE0F8A3E0F9A3E0FAA393
:101A8700E0FB1202E4401D7F667E667D867C3F9008
:101A9700001DE0F8A3E0F9A3E0FAA3E0FB1202E4DB
:101AA70060174015124A507B007AF87D3C7C007F16
:101AB7003C7E00124A61021400900000E0FEA3E0A1
:101AC700FFC3900005E09FFD900004E09EFCE41238
:101AD7000362A804A905AA06AB07E4FFFE7D487CBC
:101AE700431202479002AE1208B6900000E0FEA330
:101AF700E0FF900005E02FFD900004E03EFCE412BB
:101B070003629002AEE0F8A3E0F9A3E0FAA3E0FBDA
:101B170012013EA804A905AA06AB07E4FFFE7DA0B3
:101B27007C43120049E4FBFAF9784012024712039A
:101B37009B9002B6EEF0A3EFF0900002E0FEA3E068
:101B4700FFC390000BE09FFD90000AE09EFCE412AB
:101B57000362A804A905AA06AB07E4FFFE7D487C3B
:101B6700431202479002B21208B6900002E0FEA3A9
:101B7700E0FF90000BE02FFD90000AE03EFCE4122E
:101B870003629002B2E0F8A3E0F9A3E0FAA3E0FB56
:101B970012013EA804A905AA06AB07E4FFFE7DA033
:101BA7007C43120049E4FBFAF9784012024712031A
:101BB7009B9002B8EEF0A3EFF09002AEE0FCA3E03A
:101BC700FDA3E0FEA3E0FF12039B12650BD3EF9486
:101BD70002EE64809480501F9002B2E0FCA3E0FD07
:101BE700A3E0FEA3E0FF12039B12650BD3EF940261
:101BF700EE64809480403D124A507B007AF87D3C29
:101C07007C007F3C7E00124A619002BAE070047F3C
:101C17000180027F009002BAEFF0600BA37490F08E
:101C2700A374D0F00214009002BB74D0F0A3749098
:101C3700F002140074FFFFFE1256D67FE87E0312EF
:091C4700624C74FFFFFE1256D638
:011C50002271
:10000E009002BB7490F0A374D0F09002B674FFF01F
:10001E00A374F4F09002AE1208C23DF973DA9002A6
:10002E00B87401F0A3744AF09002B21208C2BDAACD
:03003E00F35E224C
:1062E40090002E7401F0A37402F0A374ABF07B0150
:0D62F4007A0279A9125ECB12000E7F012202
:085E6D00C10A4302EB0102D758
:10628C00538EF7759A50438E04200003759C9830FA
:0E629C000003759CF7438E10D2AF75AF012240
:0B6517008F9BE59A30E1FB539AFD22B8
:106491001206C4FF600C126517740129F9E43AFA77
:0364A10080EE2268
:03004300025D0754
:105D0700C0E0C0F0C083C082C0D075D000C000C062
:105D170001C002C003200A0E9002EB7401F0A374C5
:105D270002F0A374D7F0E59A30E02ED20A539AFE18
:105D37009002EBE0FBA3E0FAA3E0F9E59B12070A68
:105D47009002ECE475F0011207939002EBE0FBA3DD
:105D5700E0FAA3E0F9E412070AD003D002D001D099
:0C5D670000D0D0D082D083D0F0D0E03249
:10598200000000AA0001904C0000023A0001928639
:105992000008C460000A56E600000474000A5B5A5C
:1059A200000BB08000160BDA000005F0001611CAD9
:1059B200001A4D2000305EEA000001A400306C465F
:1059C200002EC200005F2E46000017C0000000003B
:1059D20000000000000000000000000000000000C5
:1059E20000000000000000000000000000000000B5
:1059F20000000000000000000000000000000000A5
:0D5A02000000000000000000000000000097
:055E75004202F0EF16EF
:10618300900294E0FCA3E0FDA3E0FEA3E0FF12086D
:016193007794
:10619400E4FEEF30E704D2828002C282C281EF259E
:0961A400E0FFD2810EEEB408E91F
:0161AD0022CF
:1063D500E4FFFDC281D281A283E433FEEF25E04EC6
:0663E500FF0DEDB408ED10
:0163EB00228F
:105FF700E4900014F0A3F0C2A47F90126194E4FF30
:10600700126194E4FF126194E4FF1261941263D564
:10601700EFFE900014E04EF0A3E0F01263D590007D
:1060270014E0FEA3E04FFF900014EEF0FEA3EFF0A4
:02603700D2A4F1
:016039002244
:0A652C00C2A47F04126194D2A422DD
:0F5C8E00900291EBF0A3EAF0A3E9F0A31208B69D
:105C9D00C2A7C2A47F0312619478101261837808A1
:105CAD00126183900294A3A3A3E0FF126194E49088
:105CBD00029AF0A3F0900298E0FEA3E0FFC39002D9
:105CCD009BE09F90029AE09E502D1263D590029119
:105CDD00E0FBA3E0FAA3E0F990029AE0FCA3E0F563
:105CED00828C83EF12071C90029BE004F070C6902B
:095CFD00029AE004F080BED2A47A
:015D0600227A
:1061FF0012652C125FF79002F0EEF0A3EFF0E47F40
:10620F00AAFEFDFC9059821208A6C312086660030D
:08621F007F0122D2A47F0022BE
:0B3C2B00900283EBF0A3EAF0A3E9F0A5
:103C36001206C4FF90028AF0900283E0FBA3E475AB
:103C4600F001120793A9F0FA1206C490028BF0EF66
:103C5600C394814011E0FF9440400BEFF46007905D
:103C6600028AE0B4FF3DE490028CF0900289E07590
:103C7600F002A4FF90028CE0C39FE5F06480F87424
:103C860080984003023E6D900286E0FBA3E475F047
:103C9600011207A9A9F0FAE412070A90028CE004BF
:103CA600F080C890028BE0C3947F5006E024C0F0F9
:103CB600800790028BE024BFF090028AE0247FF018
:103CC600900289E06420705FA3E0FF7E007C007DA7
:103CD600BE12096CA804A905AA06AB07A3E0FFE477
:103CE600FCFDFEEB2FFFEE3AFEED39FDEC38FCE471
:103CF6007B80FAF9F812080990028D1208B69059DD
:103D0600BE12089690028DE0F8A3E0F9A3E0FAA3AC
:103D1600E02FFFEA3EFEE93DFDE83CFC900298E418
:103D2600F0A37480023E5E900289E06418705FA37F
:103D3600E0FF7E007C007DBE12096CA804A905AADE
:103D460006AB07A3E0FFE4FCFDFEEB2FFFEE3AFE19
:103D5600ED39FDEC38FCE47B48FAF9F812080990D5
:103D6600028D1208B69059AE12089690028DE0F8B0
:103D7600A3E0F9A3E0FAA3E02FFFEA3EFEE93DFD4A
:103D8600E83CFC900298E4F0A37448023E5E900280
:103D960089E06410705EA3E0FF7E007C007DBE12A9
:103DA600096CA804A905AA06AB07A3E0FFE4FCFD7D
:103DB600FEEB2FFFEE3AFEED39FDEC38FCE47B20FE
:103DC600FAF9F812080990028D1208B690599E1257
:103DD600089690028DE0F8A3E0F9A3E0FAA3E02F9D
:103DE600FFEA3EFEE93DFDE83CFC900298E4F0A3C4
:103DF60074208064900289E0640C706BA3E0FF7EFF
:103E0600007C007DBE12096CA804A905AA06AB07B2
:103E1600A3E0FFE4FCFDFEEB2FFFEE3AFEED39FDDD
:103E2600EC38FCE47B18FAF9F812080990028D12B6
:103E360008B690598E12089690028DE0F8A3E0F924
:103E4600A3E0FAA3E02FFFEA3EFEE93DFDE83CFCD5
:103E5600900298E4F0A37418F0900286E0FBA3E0C9
:073E6600FAA3E0F9125C8EE3
:013E6D002232
:1037010090016DEEF0A3EFF0A3ECF0A3EDF0A3EBCD
:01371100F0C7
:10371200787B7C017D017BFF7A5979CE7E007F41E7
:1037220012069E90016FE0FFA3E09001BCCFF0A3D0
:10373200EFF0900171E024E0FFE434FFFEE4FCFDD1
:103742009001C21208B6900172E0B420299001C221
:10375200E0FCA3E0FDA3E0FEA3E0FFE47B40FAF976
:10376200F81208099001C21208B690017A7440F06A
:103772009059C6023833900172E0B418299001C200
:10378200E0FCA3E0FDA3E0FEA3E0FFE47B24FAF962
:10379200F81208099001C21208B690017A7424F056
:1037A2009059B6023833900172E0B410289001C2E9
:1037B200E0FCA3E0FDA3E0FEA3E0FFE47B10FAF946
:1037C200F81208099001C21208B690017A7410F03A
:1037D2009059A6805C900172E0B40C289001C2E07E
:1037E200FCA3E0FDA3E0FEA3E0FFE47B0CFAF9F802
:1037F2001208099001C21208B690017A740CF09076
:103802005996802D900172E0B4082F9001C2E0FC1D
:10381200A3E0FDA3E0FEA3E0FFE47B06FAF9F812C1
:1038220008099001C21208B690017A7406F0905904
:10383200861208969001BE1208B69001BEE0FCA363
:10384200E0FDA3E0FEA3E0FFA3E0F8A3E0F9A3E01C
:10385200FAA3E02FFFEA3EFEE93DFDE83CFC9001C1
:103862007AE0FB900298E4F0A3EBF07B017A017915
:103872007B125C8EE4900179F090017AE0FF900176
:1038820079E0FEC39F40030239B6747B2EF582E4D1
:103892003401F583E0900177F0E4A3F0900178E041
:1038A200FFC3940840030239AD900172E0640870CE
:1038B20041900177E0FEA807088002C313D8FC30CC
:1038C200E0028044900175E0FEA3E0FF6411700302
:1038D200EE6411606DEF64117003EE641160639029
:1038E200016DE0FEA3E0FFA3E0FCA3E0FD90017503
:1038F2008027900178E0FF900177E0FEA80708801A
:1039020002C333D8FC30E71890016DE0FEA3E0FF5C
:10391200A3E0FCA3E0FD900173E0FAA3E0FB801FAB
:10392200900175E0FAA3E0FB64117003EA64116090
:103932001190016DE0FEA3E0FFA3E0FCA3E0FD1205
:103942005E91900170E004F0700690016FE004F067
:1039520090016FE0FEA3E0FFC39440EE9401505447
:103962009001BCE0FCA3E0FDC3EF9DFFEE9CFE9046
:103972000172E07A00B5072AEAB5062690016FECDB
:10398200F0A3EDF090016EE004F0700690016DE09E
:1039920004F0C390016EE094F090016DE094004059
:1039A2000A22900178E004F002389E900179E00446
:0439B200F002387B6C
:0139B60022EE
:0E44E00090016DEEF0A3EFF0A3ECF0A3EDF071
:1044EE00900181ECF0A3EDF0900174E0FF640C609C
:1044FE0012EF6410600DEF64186008EF6420600323
:10450E000246589002867401F0A37401F0A37483DE
:10451E00F0A3EFF0123C2B900174E0FFB4200B904F
:10452E00017FE4F0A37480F0801EEFB4180B9001AD
:10453E007FE4F0A37448F0800FEF75F002A4FF90B3
:10454E00017FE5F0F0A3EFF0E490017BF0A3F09093
:10455E00017FE0FEA3E0FF90017BE0FCA3E0FDC342
:10456E009FEC9E400302465874832DF58274013CE5
:10457E00F583E0FF900179E4F0A3EFF0E490017D84
:10458E00F0A3F090017AE030E71890016DE0FEA301
:10459E00E0FFA3E0FCA3E0FD900175E0FAA3E0FBD1
:1045AE00801F900177E0FAA3E0FB64117003EA64C8
:1045BE0011601190016DE0FEA3E0FFA3E0FCA3E00B
:1045CE00FD125E9190017AE025E0F0900179E033E2
:1045DE00F0900170E004F0700690016FE004F0902E
:1045EE000181E0FEA3E0FFC3900170E09FFD90010A
:1045FE006FE09EFC900174E07A00B5051CEAB504EC
:10460E001890016FEEF0A3EFF090016EE004F070E1
:10461E002890016DE004F0802090017EE004F0709F
:10462E000690017DE004F0C390017EE094089001B5
:10463E007DE09400500302459190017CE004F070FF
:0A464E000690017BE004F002455DD8
:01465800223F
:10435800900160EEF0A3EFF0A3ECF0A3EDF0A3EB77
:07436800F0A3EAF0A3E9F065
:10436F00E490016CF0900164E0FBA3E0FAA3E0F9A4
:10437F001206C4FF70030244DF90016CE060030279
:10438F00443FEFD3948040057401F080D8900162D0
:10439F00E0FCA3E0FDD39440EC940140030244DF22
:1043AF001206C4FB900167E0900172F0900168E083
:1043BF00FFA3E0900173CFF0A3EFF090016AE0FF4D
:1043CF00A3E0900175CFF0A3EFF0900160E0FEA3A2
:1043DF00E0FF123701900165E475F0011207939029
:1043EF000167E0FFB40808900161E024068009EF3F
:1043FF00C313FF900161E02FF0900160E03400F0F3
:10440F00D3900161E094F0900160E09400500302BA
:10441F00437490016574FFF5F0120793900167E004
:10442F00FF900163E02FF0900162E034000244D46A
:10443F00E490016CF0900162E0FCA3E0FDD39440A6
:10444F00EC940140030244DF900164E0FBA3E0FA27
:10445F00A3E0F9A3E0900174F0900168E0FFA3E0FE
:10446F00900175CFF0A3EFF090016AE0FFA3E09009
:10447F000177CFF0A3EFF0900160E0FEA3E0FF1211
:10448F0044E0900165E475F002120793900167E034
:10449F00FF7E00900161E02FF0900160E03EF0D3CD
:1044AF00A3E094F0900160E09400500302437490F5
:1044BF00016574FF75F0FE120793900163E02FF012
:1044CF00900162E03EF0E4900160F0A3F0024374CB
:0144DF0022BA
:10626C00123E6E1261FF1262E41264A41264C7C281
:10627C000012628C120003122E5112612A0226C4E3
:10004600020407E86480F8E933E83360110460F0DD
:10005600ED33EC337009E8FCE9FDEAFEEBFF220420
:1000660060DED3EB9FEA9EE99DE8C2E78CF0C2F71B
:1000760095F0400CE8CCF8E9CDF9EACEFAEBCFFBE7
:100086001203D285D0F05804700320D5B3E804706B
:10009600075002B2D502041192D5EC0460F7E4CC05
:1000A600C0E0C398F8603B94186008400DD0E0FBB0
:1000B6000203E9E4FBFAC9FC8028E830E406E4C957
:1000C600FBE4CAFCE830E305E4C9CACBFCE8540704
:1000D6006010F8C3E913F9EA13FAEB13FBEC13FC0F
:1000E600D8F130F52FC3E49CFCEF9BFFEE9AFEEDB2
:1000F60099FDD0E0FBEF4E4D4C701222DB0302045B
:100106000EEC2CFCEF33FFEE33FEED33FDED30E766
:10011600EB0203E9EF2BFFEE3AFEED39FDD0E0FBF3
:1001260050130BBB0003020411ED13FDEE13FEEF9B
:0801360013FFEC13FC0203E9C6
:10013E00EC4D6011E8497017ED33EC3304600DE4BB
:10014E00FCFFFEFD22E933E8330470F802040712C7
:10015E0003D258046009E4CC2481500628500902C9
:10016E00041128400302040EC0E0EB4A7044B9802B
:10017E0006D0E0FB0203FDEF4E701CBD8008EBFFC6
:10018E00EAFEE9FD80EBE98DF0A4FEE5F002022720
:10019E00E9CDF9EAFEEBFFEF89F0A4FCE5F0CE899C
:1001AE00F0A42EFFE435F0CD89F0A42DFEE435F059
:1001BE008067EF4E7005BD80D780C3EF8BF0A4AC87
:1001CE00F0EE8BF0A42CFCE435F0F8EF8AF0A42CC2
:1001DE00E5F038FCE433CB8DF0A42CFCE5F03BF8D5
:1001EE00EE8AF0A42CFCE5F038F8E433CF89F0A4C5
:1001FE002CFCE5F038CF3400CE89F0A42FFFE5F0CB
:10020E003EFEE433C98DF0A42EFEE5F039CD8AF022
:10021E00A42FFFE5F03EFEE43DFD33D0E0FB50079A
:10022E000BBB000F020411EC2CFCEF33FFEE33FE80
:06023E00ED33FD0203E9AF
:10024400020411EC5D046005E8590470030204071C
:100254001203D2580460F6EC4860F2EC7004FDFE20
:10026400FF22C860DB2481C85009C398600250068D
:1002740002040E9850CAF582E9294B4A7005AB82F4
:100284000203FD75F0007C1A7880C3EF9BEE9AEDB3
:1002940099400DC3EF9BFFEE9AFEED99FDE842F005
:1002A400DC23ACF0D0E0FFD0E0FED0E0FDAB822058
:1002B400E7101BEB60BAEC2CFCEF33FFEE33FEEDE2
:1002C40033FD0203E9E803F830E705C0F075F000F8
:1002D400EF2FFFEE33FEED33FD40B830E7C280AAC6
:1002E40074F8CC6480CCC86480C8F58204604FC3C1
:1002F400EB9FF5F0EA9E42F0E99D42F0E89C45F060
:10030400603C501DE5825FFFE582D313CB5BCBF4E9
:100314002B5582FB50280ABA002409B90020088012
:100324001DE5825BFBE582D313CF5FCFF4C3132FAC
:100334005582FF50090EBE00050DBD00010CC3EB34
:100344009FF5F0EA9E42F0E99D42F0E89C45F0609A
:0903540007CC4820E701B3EC22BC
:10035D0075F020800E75F010800575F0087D007E1B
:10036D00007F003392D530D503120858EC3340107E
:10037D00EF33FFEE33FEED33FDEC33FCD5F0ED2224
:0E038D00E5F0247EA2D513CC92E7CDCEFF2260
:10039B00EDD2E7CD33EC3392D524814006E4FFFE5A
:1003AB00FDFC22FCE4CFCECDCC24E0501174FF80B9
:1003BB00EDC3CC13CCCD13CDCE13CECF13CF047056
:0703CB00F030D5DE020858F6
:10224100E508241CF582E43400F583E005082290BA
:10225100001930070390001CE475F0011208F30225
:1022610006C42000E97F2ED2008018EF540F24907D
:10227100D43440D4FF30040BEF24BFB41A00500310
:102281002461FFE50960021509050CE50C700205E2
:102291000B30070E900019E475F0011208F3EF02FC
:1022A100070A024F1B7403D2078003E4C207F50833
:1022B10090001912090AE4F509F50BF50CE509601E
:1022C100077F2012228480F5750AFFC201C200C275
:1022D10002C203C205C206C208122250FF700D30AD
:1022E10007057F00122295AF0CAE0B22B4255FC209
:1022F100D5C204122250FF24D0B40A00501A75F03E
:102301000A780930D50508B6FF0106C6A426F620CD
:10231100D5047002D20380D924CFB41A00EF50043F
:10232100C2E5D204022587D20180C6D20080C0D284
:102331000280BCD2D580BAD20580B47F201222841B
