:030000000258B4EF
:0C58B400787FE4F6D8FD7581210258FBD6
:105FF300123DD6125F7F12604E12620E126231C2E0
:106003000012601312000312367B125ED20226B016
:10582700000000AA0001904C0000023A0001928695
:105837000008C460000A56E600000474000A5B5AB8
:10584700000BB08000160BDA000005F0001611CA35
:10585700001A4D2000305EEA000001A400306C46BB
:10586700002EC200005F2E46000017C00000000097
:105877000000000000000000000000000000000021
:105887000000000000000000000000000000000011
:105897000000000000000000000000000000000001
:0D58A70000000000000000000000000000F4
:055C18004202EEEF1650
:105F0000900294E0FCA3E0FDA3E0FEA3E0FF1208F2
:015F10006B25
:105F1100E4FEEF30E704D2828002C282C281EF2523
:095F2100E0FFD2810EEEB408E9A4
:015F2A002254
:10613F00E4FFFDC281D281A283E433FEEF25E04E5E
:06614F00FF0DEDB408EDA8
:016155002227
:105D9F00E4900014F0A3F0C2A47F90125F11E4FF0F
:105DAF00125F11E4FF125F11E4FF125F1112613FE6
:105DBF00EFFE900014E04EF0A3E0F012613F900070
:105DCF0014E0FEA3E04FFF900014EEF0FEA3EFF0FF
:025DDF00D2A44C
:015DE100229F
:0A628C00C2A47F04125F11D2A42205
:0F5ABA00900291EBF0A3EAF0A3E9F0A31208AA7F
:105AC900C2A7C2A47F03125F117810125F00780881
:105AD900125F00900294A3A3A3E0FF125F11E49068
:105AE900029AF0A3F0900298E0FEA3E0FFC39002AF
:105AF9009BE09F90029AE09E502D12613F90029187
:105B0900E0FBA3E0FAA3E0F990029AE0FCA3E0F538
:105B1900828C83EF12071090029BE004F070C6900C
:095B2900029AE004F080BED2A44F
:015B32002250
:105F7F0012628C125D9F9002EEEEF0A3EFF0E47FC1
:105F8F00AAFEFDFC90582712089AC312085A600304
:085F9F007F0122D2A47F002241
:0B3B9300900283EBF0A3EAF0A3E9F03E
:103B9E001206B8FF90028AF0900283E0FBA3E47550
:103BAE00F001120787A9F0FA1206B890028BF0EF17
:103BBE00C394814011E0FF9440400BEFF4600790F6
:103BCE00028AE0B4FF3DE490028CF0900289E07529
:103BDE00F002A4FF90028CE0C39FE5F06480F874BD
:103BEE0080984003023DD5900286E0FBA3E475F079
:103BFE000112079DA9F0FAE41206FE90028CE00471
:103C0E00F080C890028BE0C3947F5006E024C0F091
:103C1E00800790028BE024BFF090028AE0247FF0B0
:103C2E00900289E06420705FA3E0FF7E007C007D3F
:103C3E00BE120960A804A905AA06AB07A3E0FFE41B
:103C4E00FCFDFEEB2FFFEE3AFEED39FDEC38FCE409
:103C5E007B80FAF9F81207FD90028D1208AA90588F
:103C6E006312088A90028DE0F8A3E0F9A3E0FAA3AC
:103C7E00E02FFFEA3EFEE93DFDE83CFC900298E4B1
:103C8E00F0A37480023DC6900289E06418705FA3B1
:103C9E00E0FF7E007C007DBE120960A804A905AA83
:103CAE0006AB07A3E0FFE4FCFDFEEB2FFFEE3AFEB2
:103CBE00ED39FDEC38FCE47B48FAF9F81207FD907B
:103CCE00028D1208AA90585312088A90028DE0F8BD
:103CDE00A3E0F9A3E0FAA3E02FFFEA3EFEE93DFDE3
:103CEE00E83CFC900298E4F0A37448023DC69002B2
:103CFE0089E06410705EA3E0FF7E007C007DBE1242
:103D0E000960A804A905AA06AB07A3E0FFE4FCFD21
:103D1E00FEEB2FFFEE3AFEED39FDEC38FCE47B2096
:103D2E00FAF9F81207FD90028D1208AA9058431264
:103D3E00088A90028DE0F8A3E0F9A3E0FAA3E02F41
:103D4E00FFEA3EFEE93DFDE83CFC900298E4F0A35C
:103D5E0074208064900289E0640C706BA3E0FF7E97
:103D6E00007C007DBE120960A804A905AA06AB0757
:103D7E00A3E0FFE4FCFDFEEB2FFFEE3AFEED39FD76
:103D8E00EC38FCE47B18FAF9F81207FD90028D125C
:103D9E0008AA90583312088A90028DE0F8A3E0F931
:103DAE00A3E0FAA3E02FFFEA3EFEE93DFDE83CFC6E
:103DBE00900298E4F0A37418F0900286E0FBA3E062
:073DCE00FAA3E0F9125ABA52
:013DD50022CB
:10310F0090016DEEF0A3EFF0A3ECF0A3EDF0A3EBC5
:01311F00F0BF
:10312000787B7C017D017BFF7A5879737E007F413B
:1031300012069290016FE0FFA3E09001BCCFF0A3D4
:10314000EFF0900171E024E0FFE434FFFEE4FCFDC9
:103150009001C21208AA900172E0B420299001C225
:10316000E0FCA3E0FDA3E0FEA3E0FFE47B40FAF96E
:10317000F81207FD9001C21208AA90017A7440F07B
:1031800090586B023241900172E0B418299001C24C
:10319000E0FCA3E0FDA3E0FEA3E0FFE47B24FAF95A
:1031A000F81207FD9001C21208AA90017A7424F067
:1031B00090585B023241900172E0B410289001C235
:1031C000E0FCA3E0FDA3E0FEA3E0FFE47B10FAF93E
:1031D000F81207FD9001C21208AA90017A7410F04B
:1031E00090584B805C900172E0B40C289001C2E0D2
:1031F000FCA3E0FDA3E0FEA3E0FFE47B0CFAF9F8FA
:103200001207FD9001C21208AA90017A740CF09086
:10321000583B802D900172E0B4082F9001C2E0FC71
:10322000A3E0FDA3E0FEA3E0FFE47B06FAF9F812B9
:1032300007FD9001C21208AA90017A7406F0905816
:103240002B12088A9001BE1208AA9001BEE0FCA3CE
:10325000E0FDA3E0FEA3E0FFA3E0F8A3E0F9A3E014
:10326000FAA3E02FFFEA3EFEE93DFDE83CFC9001B9
:103270007AE0FB900298E4F0A3EBF07B017A01790D
:103280007B125ABAE4900179F090017AE0FF900144
:1032900079E0FEC39F40030233C4747B2EF582E4C1
:1032A0003401F583E0900177F0E4A3F0900178E039
:1032B000FFC3940840030233BB900172E0640870BE
:1032C00041900177E0FEA807088002C313D8FC30C4
:1032D000E0028044900175E0FEA3E0FF64117003FA
:1032E000EE6411606DEF64117003EE641160639021
:1032F000016DE0FEA3E0FFA3E0FCA3E0FD900175FB
:103300008027900178E0FF900177E0FEA807088011
:1033100002C333D8FC30E71890016DE0FEA3E0FF54
:10332000A3E0FCA3E0FD900173E0FAA3E0FB801FA3
:10333000900175E0FAA3E0FB64117003EA64116088
:103340001190016DE0FEA3E0FFA3E0FCA3E0FD12FD
:103350005C81900170E004F0700690016FE004F071
:1033600090016FE0FEA3E0FFC39440EE940150543F
:103370009001BCE0FCA3E0FDC3EF9DFFEE9CFE903E
:103380000172E07A00B5072AEAB5062690016FECD3
:10339000F0A3EDF090016EE004F0700690016DE096
:1033A00004F0C390016EE094F090016DE094004051
:1033B0000A22900178E004F00232AC900179E00436
:0433C000F00232895C
:0133C40022E6
:0E45D70090016DEEF0A3EFF0A3ECF0A3EDF079
:1045E500900181ECF0A3EDF0900174E0FF640C60A4
:1045F50012EF6410600DEF64186008EF642060032B
:1046050002474F9002867401F0A37401F0A37483EE
:10461500F0A3EFF0123B93900174E0FFB4200B90F0
:10462500017FE4F0A37480F0801EEFB4180B9001B5
:104635007FE4F0A37448F0800FEF75F002A4FF90BB
:10464500017FE5F0F0A3EFF0E490017BF0A3F0909B
:10465500017FE0FEA3E0FF90017BE0FCA3E0FDC34A
:104665009FEC9E400302474F74832DF582E434018D
:10467500F583E0FF900179E4F0A3EFF0E490017D8C
:10468500F0A3F090017AE030E71890016DE0FEA309
:10469500E0FFA3E0FCA3E0FD900175E0FAA3E0FBD9
:1046A500801F900177E0FAA3E0FB64117003EA64D0
:1046B50011601190016DE0FEA3E0FFA3E0FCA3E013
:1046C500FD125C8190017AE025E0F0900179E033FC
:1046D500F0900170E004F0700690016FE004F09036
:1046E5000181E0FEA3E0FFC3900170E09FFD900112
:1046F5006FE09EFC900174E07A00B5051CEAB504F4
:104705001890016FEEF0A3EFF090016EE004F070E9
:104715002890016DE004F0802090017EE004F070A7
:104725000690017DE004F0C390017EE094089001BD
:104735007DE09400500302468890017CE004F0700F
:0A4745000690017BE004F0024654E8
:01474F002247
:1042C900900160EEF0A3EFF0A3ECF0A3EDF0A3EB07
:0742D900F0A3EAF0A3E9F0F5
:1042E000E490016CF0900164E0FBA3E0FAA3E0F934
:1042F0001206B8FF700302445090016CE0600302A4
:1043000043B0EFD3948040057401F080D8900162EF
:10431000E0FCA3E0FDD39440EC9401400302445040
:104320001206B8FB900167E0900172F0900168E01E
:10433000FFA3E0900173CFF0A3EFF090016AE0FFDC
:10434000A3E0900175CFF0A3EFF0900160E0FEA331
:10435000E0FF12310F900165E475F00112078790BC
:104360000167E0FFB40808900161E024068009EFCE
:10437000C313FF900161E02FF0900160E03400F082
:10438000D3900161E094F0900160E094005003024A
:1043900042E590016574FFF5F0120787900167E030
:1043A000FF900163E02FF0900162E0340002444589
:1043B000E490016CF0900162E0FCA3E0FDD3944036
:1043C000EC94014003024450900164E0FBA3E0FA46
:1043D000A3E0F9A3E0900174F0900168E0FFA3E08E
:1043E000900175CFF0A3EFF090016AE0FFA3E09099
:1043F0000177CFF0A3EFF0900160E0FEA3E0FF12A1
:1044000045D7900165E475F002120787900167E0D7
:10441000FF7E00900161E02FF0900160E03EF0D35C
:10442000A3E094F0900160E0940050030242E59014
:10443000016574FF75F0FE120787900163E02FF0AD
:10444000900162E03EF0E4900160F0A3F00242E5EA
:014450002249
:101C3D000000000000000000000000000000000097
:101C4D000000000000001FCC000C00000000000090
:101C5D000000080030006000080030006000000047
:101C6D00022003FC1E20022003FC1E200220000087
:101C7D0000000E1811043FFF10840C7800000000C6
:101C8D000F0010840F3800C007781884007800000A
:101C9D0000780F8410C411240E9800E4008400080D
:101CAD000800680070000000000000000000000047
:101CBD0000000000000007E018182004400200009A
:101CCD00000040022004181807E00000000000008A
:101CDD000240024001800FF00180024002400000EE
:101CED000080008000800FF80080008000800000E0
:101CFD000001000D000E00000000000000000000BB
:101D0D000000008000800080008000800080008046
:101D1D000000000C000C000000000000000000009E
:101D2D000000000600180060018006001800200069
:101D3D00000007F0080810041004080807F0000060
:101D4D000000080408041FFC00040004000000004B
:101D5D0000000E0C10141024104411840E0C000001
:101D6D0000000C1810041104110412880C700000EE
:101D7D00000000E00320042408241FFC00240000C0
:101D8D0000001F98108411041104108810700000B9
:101D9D00000007F008881104110418880070000075
:101DAD0000001C00100010FC13001C0010000000AF
:101DBD0000000E3811441084108411440E380000B8
:101DCD0000000700088C10441044088807F000003C
:101DDD00000000000000030C030C000000000000D8
:101DED0000000000000101060000000000000000DE
:101DFD0000000080014002200410080810040000BB
:101E0D0002200220022002200220022002200000D7
:101E1D00000010040808041002200140008000009A
:101E2D0000000E001200100C106C10800F0000004E
:101E3D0003E00C1813E4142417C4082807D000007D
:101E4D000004003C03C41C40074000E4001C0004D7
:101E5D0010041FFC1104110411040E880070000001
:101E6D0003E00C1810041004100410081C100000DE
:101E7D0010041FFC100410041004080807F00000E3
:101E8D0010041FFC1104110417C4100408180000DD
:101E9D0010041FFC1104110017C0100008000000F1
:101EAD0003E00C181004100410441C7800400000CE
:101EBD0010041FFC10840080008010841FFC10048F
:101ECD000000100410041FFC10041004000000009A
:101EDD0000030001100110011FFE10001000000092
:101EED0010041FFC110403801464181C100400005E
:101EFD0010041FFC1004000400040004000C00007A
:101F0D0010041FFC1F0000FC1F001FFC100400002C
:101F1D0010041FFC0C04030000E010181FFC10003F
:101F2D0007F00808100410041004080807F000005A
:101F3D0010041FFC10841080108010800F00000012
:101F4D0007F0081810241024101C080A07F20000CE
:101F5D0010041FFC1104110011C011300E0C0004EF
:101F6D0000000E1C11041084108410441C38000055
:101F7D001800100010041FFC1004100018000000C1
:101F8D0010001FF810040004000410041FF81000C6
:101F9D0010001E0011E0001C007013801C001000CA
:101FAD001FC0103C00E01F0000E0103C1FC00000EF
:101FBD001004180C163401C001C01634180C10048E
:101FCD0010001C00130400FC13041C001000000082
:101FDD000804101C1064108413041C041018000055
:101FED000000000000007FFE4002400240020000A1
:101FFD00000030000C0003800060001C0003000096
:10200D0000004002400240027FFE00000000000080
:10201D0000000000200040004000400020000000B3
:10202D00000100010001000100010001000100019B
:10203D0000004000400020000000000000000000F3
:10204D0000000098012401440144014400FC0004F7
:10205D0010001FFC008801040104008800700000BE
:10206D0000000070008801040104010400880000D4
:10207D000000007000880104010411081FFC000419
:10208D00000000F8014401440144014400C800006F
:10209D000000010401040FFC1104110411001800CB
:1020AD00000000D601290129012901C901060000FE
:1020BD0010041FFC008401000100010400FC000459
:1020CD0000000104190419FC0004000400000000C4
:1020DD000000000300010101190119FE00000000BC
:1020ED0010041FFC0024004001B4010C0104000089
:1020FD000000100410041FFC000400040000000088
:10210D00010401FC0104010001FC0104010000FCBB
:10211D00010401FC008401000100010400FC000425
:10212D00000000F8010401040104010400F800009E
:10213D00010101FF00850104010400880070000009
:10214D0000000070008801040104010501FF000179
:10215D000104010401FC0084010401000180000060
:10216D00000000CC01240124012401240198000069
:10217D0000000100010007F8010401040000000047
:10218D00010001F8000400040004010801FC000432
:10219D00010001800170000C001001600180010040
:1021AD0001F0010C003001C00030010C01F0010004
:1021BD0000000104018C00740170018C0104000009
:1021CD00010101810171000E001801600180010003
:1021DD0000000184010C013401440184010C000054
:1021ED00000000000000000001003EFC4002400223
:1021FD000000000000000000FFFF000000000000D4
:10220D000000400240023EFC010000000000000002
:10221D000000600080008000400040002000200091
:0D624100C295C2948FB0C296D296D294221C
:0C610E00E0FF7E0012611AE0FEA3E0FF3B
:0D611A00D295C2948FB0C296D296D2942234
:076220001262277D017F19C6
:0A622700126241AE04AF0502611AD5
:10616C003ECF2401FDE43FFCE0FEA3E0FF125E699C
:05617C007F22026241D8
:0362AE0002611A70
:0B5E5E00E0FEA3E0FFA3E0FCA3E0FDDA
:105E6900AB05AA048F828E83E583FD7C007F021235
:105E79006227AF82AD07FC7F03126227EAFD7C002F
:0F5E89007F06126227AF03AD07FC7F0702622777
:0B5F2B007C007F1F1262277F057E00B4
:105F3600E4FDFCC3ED9FEC9E5015E4FBFA0BBB00A1
:0F5F4600010ABA04F8BB75F50DBD00010C80E42B
:015F55002229
:103DD6007F327E00125F367D017C00E4FF1262278F
:103DE6007F32FE125F369000477F64125F36E582AF
:103DF600644745836003023F8AFDFC7FEA1262271F
:103E06007D207FEB1262277D0C7FEC1262277DC43A
:103E16007FED1262277D407FE81262277D387FE9B9
:103E26001262277D017FF11262277D107FF21262F6
:103E3600277DA37F27126227FD7F401262277F41DD
:103E46001262270D7F421262277D127F431262277C
:103E56007D107F441262277D267F451262277D08EA
:103E66007F461262277D537F471262277D027F4875
:103E76001262277D157F491262277D197F4A1262D9
:103E8600277F4B1262277D167F4C1262277D197F92
:103E9600501262277D2F7F511262277D2D7F52128D
:103EA60062277D3E7F531262270D7F541262277F61
:103EB600551262277D2C7F561262277D777F571217
:103EC60062277D097F581262277D067F5912622775
:103ED6007F5A1262277D0A7F5B1262277D1D7F5CF7
:103EE6001262277DCC7F5D1262277D1B7F1B1262CB
:103EF600277D017F1A1262277D2F7F241262277D7C
:103F0600577F251262277D977F231262277D367F92
:103F1600181262207D887F1F1262277F05FE125FBE
:103F2600367D80125F2B7D90125F2B7DD0125F2B2A
:103F36007D057C007F17126227E4FD7F361262271B
:103F46007D387F281262277F28FE125F367D3C7CF3
:103F560000126227E4FD7F021262277F03126227A6
:103F66007F041262277DEF7F05126227FD7F06120E
:103F760062277F071262270D7F081262277D3F7F27
:0B3F8600091262207F327E00025F36CD
:0854CD00900021EEF0A3EFF0C6
:1054D500A31208B600000000E4FDFCFFFE125E69A1
:1054E50012617C9000231208B600000000E47F40A2
:1054F5007E01FDFC900023E0F8A3E0F9A3E0FAA308
:10550500E0FBC312085A506D9000271208B6000040
:105515000000E47FF0FEFDFC900027E0F8A3E0F931
:10552500A3E0FAA3E0FBC312085A5027900021120A
:10553500610E900027E0FCA3E0FDA3E0FEA3E024BC
:1055450001FFE43EFEE43DFDE43CFC90002712082B
:10555500AA80BF900023E0FCA3E0FDA3E0FEA3E04A
:105565002401FFE43EFEE43DFDE43CFC90002312F3
:0555750008AA0254F237
:01557A00220E
:105C6B00900027E0FEA3E0FFA3E0FCA3E0FD900083
:065C7B002FE0FAA3E0FB9C
:105C8100900285EAF0A3EBF0900283EEF0A3EFF02F
:105C9100C394F0EE94005021C3ED9440EC94015074
:105CA10018900283126174900285E0FF7E001262F7
:0A5CB100AEE0FEA3E0FF1262AE2297
:10391F00900029ECF0A3EDF0900027EEF0A3EFF06C
:08392F0090002BEAF0A3EBF07D
:10393700D3EF9BEE9A402790002BE0FEA3E0FF9089
:103947000035EEF0A3EFF0900027E0FDA3E0900034
:103957002BCDF0A3EDF0900027EEF0A3EFF0900051
:103967002DE0FEA3E0FF900029E0FCA3E0FDD39F3C
:10397700EC9E4018900035EEF0A3EFF090002DEC90
:10398700F0A3EDF0900029EEF0A3EFF0900027E010
:10399700FEA3E0FFC390002CE09FFF90002BE09E6A
:1039A700900031F0FAA3EFF0FB900029E0FEA3E0CE
:1039B700FFC390002EE09FFF90002DE09E90003304
:1039C700F0A3EFF0EB4A7027125C6B90002AE0043B
:1039D700F07006900029E004F0900029E0FEA3E0D3
:1039E700FFC390002EE09F90002DE09E50DA2290BA
:1039F7000033E07002A3E07027125C6B900028E0B0
:103A070004F07006900027E004F0900027E0FEA382
:103A1700E0FFC390002CE09F90002BE09E50DA223D
:103A2700900033E0FEA3E0FF900031E0FCA3E0FD4F
:103A3700D39FEE6480F8EC6480985003023AE2EF7B
:103A470025E0FFEE33FEC3EF9DFFEE9C900035F0BF
:103A5700A3EFF090002BE0FCA3E0FD900027E0FE31
:103A6700A3E0FF6D7002EE6C7003023B8F125C7374
:103A7700900028E004F07006900027E004F0D3904F
:103A87000036E09400900035E064809480403090E8
:103A9700002AE004F07006900029E004F09000325C
:103AA700E025E0FD900031E033FC900034E025E0B4
:103AB700FF900033E033FEC3EF9DFFEE9C800C9038
:103AC7000034E025E0FF900033E033FE900036E05D
:103AD7002FF0900035E03EF0023A5A900032E02590
:103AE700E0FF900031E033FE900033E0FCA3E0FDFF
:103AF700C3EF9DFFEE9CA3F0A3EFF090002DE0FE37
:103B0700A3E0FF900029E0FCA3E0FD6F7002EC6EDC
:103B17006076900027E0FEA3E0FF125C7990002A10
:103B2700E004F07006900029E004F0D3900036E03E
:103B37009400900035E0648094804030900028E045
:103B470004F07006900027E004F0900032E025E0D2
:103B5700FD900031E033FC900034E025E0FF900059
:103B670033E033FEC3EF9DFFEE9C800C900034E002
:103B770025E0FF900033E033FE900036E02FF09011
:0B3B87000035E03EF0023B02125C6BD8
:013B92002210
:104E9800900049EEF0A3EFF090004DEBF090004B3E
:054EA800ECF0A3EDF0A9
:104EAD00900054ECF0A3EDF090004DE024E0F0E420
:104EBD00F990004DE075F010A4243DF582E5F03435
:104ECD001CF583E58229F582E43583F583E493901F
:104EDD000052F0E4A3F0900052E030E71890004942
:104EED00E0FEA3E0FFA3E0FCA3E0FD90004EE0FA9E
:104EFD00A3E0FB801F900050E0FAA3E0FB6411706B
:104F0D0003EA64116011900049E0FEA3E0FFA3E005
:104F1D00FCA3E0FD125C81900052E025E0F09000D2
:104F2D004CE004F0700690004BE004F0C390004A92
:104F3D00E094F0900049E094005056900054E0FE4B
:104F4D00A3E0FFC390004CE09FFD90004BE09EFC62
:104F5D00ED64104C7023EEF0A3EFF090004AE004E6
:104F6D00F07006900049E004F0C390004AE09440D0
:104F7D00900049E09401401022900053E004F0E0CD
:104F8D00C394085003024EE309E964106003024E16
:014F9D00BE55
:014F9E0022F0
:10541700900017EEF0A3EFF0A3ECF0A3EDF0A3EBF1
:07542700F0A3EAF0A3E9F095
:10542E0090001BE0FBA3E475F00112079DA9F0FAB2
:10543E001206B8FB900019E0FCA3E0FD90001EE000
:10544E00FFA3E090004ECFF0A3EFF0900020E0FF1E
:10545E00A3E0900050CFF0A3EFF0900017E0FEA372
:10546E00E0FF124E98C3900018E094E8900017E009
:10547E009400500AA3E02408F09000178020C390F7
:10548E00001AE09430900019E09401E49000175057
:10549E0013F0A3F090001AE02410F0900019E034FD
:1054AE0000F08007F0A3F0A3F0A3F090001BE0FB48
:0E54BE00A3E0FAA3E0F91206B8600302542E30
:0154CC0022BD
:104B2200900002EEF0A3EFF0A3ECF0A3EDF0A3EA05
:044B3200F0A3EBF011
:104B3600E490000EF0A3F09000141208B6000000F6
:104B460000900002125E5E12617CC2A47F03125FB7
:104B56001190000AE0FCA3E0FDA3E0FEA3E0FF78CD
:104B66001012086B125F1190000AE0FCA3E0FDA38F
:104B7600E0FEA3E0FF780812086B125F1190000AAE
:104B8600A3A3A3E0FF125F119000101208B6000065
:104B96000000900008E0FEA3E0FFE4FCFD9000109A
:104BA600E0F8A3E0F9A3E0FAA3E0FBC312085A4039
:104BB60003024C5B9000141208B60000000090003F
:104BC60006E0FEA3E0FFE4FCFD900014E0F8A3E09D
:104BD600F9A3E0FAA3E0FBC312085A503C12613F66
:104BE60090000FEFF012613F90000EEFF07E001282
:104BF600611AA3E0FF12611A900014E0FCA3E0FD25
:104C0600A3E0FEA3E02401FFE43EFEE43DFDE43C18
:104C1600FC9000141208AA80A5900010A3A3E0FE41
:104C2600A3E0FF900005E02FFF900004E090000253
:104C360012616C900010E0FCA3E0FDA3E0FEA3E08F
:104C46002401FFE43EFEE43DFDE43CFC900010122E
:074C560008AA024B98D2A44A
:014C5D002234
:10519B00900160EEF0A3EFF0A3ECF0A3EDF0A3EA27
:0451AB00F0A3EBF092
:1051AF0090016E1208B600000000900160125E5E62
:1051BF0012617C90016A1208B6000000009001662F
:1051CF00E0FEA3E0FFE4FCFD90016AE0F8A3E0F944
:1051DF00A3E0FAA3E0FBC312085A400302527A90ED
:1051EF00016E1208B600000000900164E0FEA3E01B
:1051FF00FFE4FCFD90016EE0F8A3E0F9A3E0FAA351
:10520F00E0FBC312085A502790016812610E9001FB
:10521F006EE0FCA3E0FDA3E0FEA3E02401FFE43E6B
:10522F00FEE43DFDE43CFC90016E1208AA80BA90AA
:10523F00016AA3A3E0FEA3E0FF900163E02FFF90BC
:10524F000162E090016012616C90016AE0FCA3E0E2
:10525F00FDA3E0FEA3E02401FFE43EFEE43DFDE4F8
:0B526F003CFC90016A1208AA0251CC1E
:01527A002211
:102E2D0090001BEAF0A3EBF0900017EEF0A3EFF08B
:102E3D00A3ECF0A3EDF0C006C007A3E0FEA3E0FFF6
:102E4D00900017E0FAA3E02FFBEA3EFAA3E0FFA300
:102E5D00E090002DCFF0A3EFF090001FE0FFA3E076
:102E6D0090002FCFF0A3EFF0D007D00612391F90AE
:102E7D000018E02401FF900017E03400FEC006C0EA
:102E8D000790001AE02401FD900019E03400FC9039
:102E9D00001BE0FEA3E0FF900017E0FAA3E02FFF78
:102EAD00EA3ECF24FFFBEF34FFFAA3E0FEA3E024BC
:102EBD0001FFE43E90002DF0A3EFF090001FE0FF26
:102ECD00A3E090002FCFF0A3EFF0D007D00612397A
:102EDD001F900017E0FAA3E0FBFFAE02C006C0078B
:102EED00A3E0FCA3E0FD90001DE0FEA3E0FF900039
:102EFD0019E0F8A3E02FFFE83E90002DF0A3EFF0CE
:102F0D0090001FE0FFA3E090002FCFF0A3EFF0D0D3
:102F1D0007D00612391F900018E02401FB9000170E
:102F2D00E03400FAAF03FEC006C00790001AE0249B
:102F3D0001FD900019E03400FC90001DE0FEA3E0BF
:102F4D00FF900019E0F8A3E02FFFE83ECF24FFCF5C
:102F5D0034FF90002DF0A3EFF090001FE0FFA3E0F1
:102F6D0090002FCFF0A3EFF0D007D00612391F90AD
:102F7D00001DE0FEA3E0FF90001AE02FFD90001968
:102F8D00E03EFC90001BE0FEA3E0FF900017E0FA8E
:102F9D00A3E02FFBEA3EFA90001DE0FEA3E0FF90B8
:102FAD000019E0F8A3E02FFFE83E90002DF0A3EF0D
:102FBD00F090001FE0FFA3E090002FCFF0A3EFF003
:102FCD00900017E0FEA3E0FF12391F900018E024D7
:102FDD0001FF900017E03400FEC006C00790001DF1
:102FED00E0FEA3E0FF90001AE02FFF900019E03EF5
:102FFD00CF24FFFDEF34FFFC90001BE0FEA3E0FFAC
:10300D00900017E0FAA3E02FFFEA3ECF24FFFBEF7D
:10301D0034FFFA90001DE0FEA3E0FF900019E0F8E8
:10302D00A3E02FFFE83ECF24FFCF34FF90002DF01B
:10303D00A3EFF090001FE0FFA3E090002FCFF0A3CF
:10304D00EFF0D007D00612391F90001BE0FEA3E071
:10305D00FF900018E02FFB900017E03EFAAF03FE43
:10306D00C006C007900019E0FCA3E0FD90001DE034
:10307D00FEA3E0FF900019E0F8A3E02FFFE83E90DB
:10308D00002DF0A3EFF090001FE0FFA3E090002FC4
:10309D00CFF0A3EFF0D007D00612391F90001BE040
:1030AD00FEA3E0FF900018E02FFF900017E03ECF49
:1030BD0024FFFBEF34FFFAAF03FEC006C0079000FC
:1030CD001AE02401FD900019E03400FC90001DE091
:1030DD00FEA3E0FF900019E0F8A3E02FFFE83ECF3C
:1030ED0024FFCF34FF90002DF0A3EFF090001FE0F0
:1030FD00FFA3E090002FCFF0A3EFF0D007D0060292
:02310D00391F68
:105C1D005F029CFF604EFF50A4FF13C30000000005
:105C2D000000000000000000000000000000000067
:0A5C3D0000004102BBD04102BC9000
:10603100EF7803C333CE33CED8F9FFE4FDFCC3EDD3
:0C6041009FEC9E50070DBD00010C80F28A
:01604D002230
:1060F400E4FEEF30E704D2828002C282EF25E0FFA3
:09610400C281D2810EEEB408E95B
:01610D00226F
:105D0A00E4FDFBFAC281C282C2A61260F47F067E5B
:105D1A0000126031C2817F017E00126031D281C2DD
:105D2A0081E4FDEB25E0FBEA33FAC281D2813083BC
:105D3A00050BBB00010A0DEDB410E8EAC4F854F0F3
:0D5D4A00C868FAEBC4540F48D2A6AE02FFA1
:015D57002229
:02413700A907D6
:10413900E490003FF0A3F0900033F0A3F0AF011238
:104149005D0AAC06AD07900034E025E0FF9000332E
:10415900E033FE74352FF58274003EF583ECF0A34D
:10416900EDF0900034E004F07006900033E004F0C4
:10417900C3900034E09405900033E0940040BEE41D
:10418900900033F0A3F0900033E0FEA3E0FFC39466
:1041990004EE94004003024263EF2401FFE43EADC4
:1041A90007FCC3ED9405EC9400400302424FED2552
:1041B900E0FFEC33FE74352FF58274003EF583E0A1
:1041C900FAA3E0FB900034E025E0FF900033E033F0
:1041D900FE74352FF58274003EF583E0FEA3E0FFFF
:1041E900D39BEE9A4058900041EEF0A3EFF0ED25F5
:1041F900E0FFEC33FE74352FF58274003EF583E061
:10420900FAA3E0FB900034E025E0FF900033E033AF
:10421900FE74352FF58274003EF583EAF0A3EBF0C6
:10422900900041E0FAA3E0FBED25E0FFEC33FE74DA
:10423900352FF58274003EF583EAF0A3EBF00DBD4E
:1042490000010C0241AB900034E004F0600302412C
:104259008F900033E004F002418FE490003FF0A317
:10426900F0900033F0A304F0900033E0FEA3E0FFE8
:10427900C39404EE94005032EF25E0FFEE33FE7450
:10428900352FF58274003EF583E0FEA3E0FF900030
:1042990040E02FF090003FE03EF0900034E004F061
:1042A90070C6900033E004F080BE90003FE0FEA3AA
:0F42B900E0FF7C007D03120732A3EEF0A3EFF0CD
:0142C80022D3
:0B5CBB0090002BEBF0A3EAF0A3E9F04F
:105CC6009002BBE0FF124137900031EEF0A3EFF0F7
:105CD6009002BCE0FF124137900031E0F9A3E0FDED
:105CE60090002BE0FBA3E0FAA3E0C98DF01207DEDB
:105CF60090002EE0FBA3E0FAA3E0F9EE8FF0120786
:035D0600DE7F013C
:015D09002277
:10489C009000207401F0A37402F0A374ABF07B01C0
:0448AC007A0279A96A
:0B48B00090001DEBF0A3EAF0A3E9F07C
:1048BB0090002E7401F0A37400F0A37425F07B011B
:1048CB007A007923125CBBEF7002FF2290002E74EA
:1048DB0001F0A37400F0A37429F07B017A0079270F
:1048EB00125CBBEF7002FF22900023E0FEA3E0FFFF
:1048FB00900027E0FCA3E0FDD39FEC9E500EED242F
:10490B0032FDE43CFCC3EF9DEE9C402A900027E077
:10491B00FEA3E0FF900023E0FCA3E0FDD39FEC9E01
:10492B0040030249DEED2432FDE43CFCC3EF9DEE77
:10493B009C40030249DE900025E0FEA3E0FF9000BF
:10494B0029E0FCA3E0FDD39FEC9E500EED2432FD3D
:10495B00E43CFCC3EF9DEE9C4024900029E0FEA3B9
:10496B00E0FF900025E0FCA3E0FDD39FEC9E50639D
:10497B00ED2432FDE43CFCC3EF9DEE9C50559000C2
:10498B0027E0FEA3E0FF900024E02FFF900023E040
:10499B003EC313F9EF13FF90001DE0FBA3E0FAA356
:1049AB00E0C98FF01207DE900029E0FEA3E0FF9034
:1049BB000026E02FFF900025E03EC313F9EF13FF15
:1049CB00900020E0FBA3E0FAA3E0C98FF01207DE12
:0549DB007F01227F00B6
:0149E00022B4
:1049E100E4900010F07D047C0174FFFBFA7F047EEB
:0149F10001C4
:1049F200900021EEF0A3EFF0900025EAF0A3EBF097
:104A0200900023ECF0A3EDF0900021E0FAA3E0FB8C
:104A120024F4FFEA34FFFEC007EB240DFBE43AFA6C
:104A2200A3E0FFA3E090002DCFF0A3EFF0900025CC
:104A3200E0FFA3E090002FCFF0A3EFF0D0071239F0
:104A42001F900021E0FAA3E0FBFFAE02C006C00700
:104A5200900024E024F4FD900023E034FFFCE0FE0B
:104A6200A3E0240DFFE43E90002DF0A3EFF09000B0
:104A720025E0FFA3E090002FCFF0A3EFF0D007D006
:104A82000612391F900022E02401FF900021E03439
:104A920000FE900024E02401FD900023E03400FC9D
:104AA200900025E0FAA3E0FB125C81900022E02452
:104AB200FFFF900021E034FFFE900024E02401FD7E
:104AC200900023E03400FC900025E0FAA3E0FB1202
:104AD2005C81900022E02401FF900021E03400FE7E
:104AE200900024E024FFFD900023E034FFFC9000BE
:104AF20025E0FAA3E0FB125C81900022E024FFFF94
:104B0200900021E034FFFE900024E024FFFD90009D
:104B120023E034FFFC900025E0FAA3E0FB025C8175
:1059BF0090000FEEF0A3EFF0A3ECF0A3EDF0A3EA4D
:1059CF00F0A3EBF0125C81900010E02401FF900037
:1059DF000FE03400FE900011E0FCA3E0FDA3E0FA1D
:1059EF00A3E0FB125C8190000FE0FEA3E0FF9000AC
:1059FF0012E02401FD900011E03400FC900013E050
:105A0F00FAA3E0FB125C81900010E02401FF9000EC
:105A1F000FE03400FE900012E02401FD900011E031
:0E5A2F003400FC900013E0FAA3E0FB025C815F
:1050A40030A503025172EF600612489C0251481267
:1050B400489CEF70030251489002A9E0FCA3E0FD74
:1050C400E41203569002AEE0F8A3E0F9A3E0FAA3D9
:1050D400E0FB12013EC004C005C006C0079002B642
:1050E400E0FCA3E0FDEC120356D003D002D001D0C3
:1050F4000012004D12038F9002A9EEF0A3EFF0A36B
:10510400E0FCA3E0FDE41203569002B2E0F8A3E051
:10511400F9A3E0FAA3E0FB12013EC004C005C006F7
:10512400C0079002B8E0FCA3E0FDEC120356D003E4
:10513400D002D001D00012004D12038F9002ABEECA
:10514400F0A3EFF09002ADE020E74474C0F09002C9
:10515400A9E0FFA3E09002A5CFF0A3EFF09002AB8B
:10516400E0FFA3E09002A7CFF0A3EFF0802190022C
:10517400ADE030E705547FF08015E49002A5F0A37C
:10518400F0A3F0A3F074FFA3F0A3F0A3F0A3F090B6
:0751940002ADE05480FF2290
:1013C300E4900010F0F074FFFFFE1254CD7B007A1E
:1013D300F87D3C7C007F3C7E001249F2E49002AD34
:1013E300F0A31208B60000000090029FA3E0FAA346
:1013F300E0F5828A837F0112095E9002ADE0FF541B
:10140300C0FEBE40E4EF54BFF09002A9E0FEA3E0AB
:10141300FF900010E0FD25E025E02400F582E43490
:1014230000F583EEF0A3EFF09002ABE0FEA3E0FF44
:10143300ED25E025E02402F582E43400F583EEF0A7
:10144300A3EFF0900010E004F0E024FE60231460AA
:101453003214604D2403709174FFFBFA7D3C7C00D1
:101463007F3C7E001249F27B007AF87D3C7C008051
:10147300297D3C7C001249EA7B007AF87D047C01DB
:101483000216AC74FFFBFA7D047C017F3C7E0012E4
:1014930049F27B007AF87D047C017F047E01021A05
:1014A300A6900004E0FEA3E0FFC3900001E09FFFCD
:1014B300900000E09EFE126275EE3395E0FDFC9015
:1014C30000151208AA900006E0FEA3E0FFC39000F7
:1014D30003E09FFF900002E09EFE126275EE3395DB
:1014E300E0FDFC9000191208AA900015E0FCA3E0AF
:1014F300FDA3E0FEA3E0FFA804A905AA06FB1207CB
:10150300FD9000151208AA900019E0FCA3E0FDA3CA
:10151300E0FEA3E0FFA804A905AA06FB1207FD90BD
:1015230000191208AA900019E0FCA3E0FDA3E0FE55
:10153300A3E0FF900015E0F8A3E0F9A3E0FAA3E02D
:101543002FFFEA3EFEE93DFDE83CFCE412035112A5
:10155300562D12038F900011EEF0A3EFF090000CC4
:10156300E0FEA3E0FFC3900009E09FFF900008E0C6
:101573009EFE126275EE3395E0FDFC900015120895
:10158300AA90000EE0FEA3E0FFC390000BE09FFFD4
:1015930090000AE09EFE126275EE3395E0FDFC902A
:1015A30000191208AA900015E0FCA3E0FDA3E0FED9
:1015B300A3E0FFA804A905AA06FB1207FD900015E6
:1015C3001208AA900019E0FCA3E0FDA3E0FEA3E04B
:1015D300FFA804A905AA06FB1207FD90001912082B
:1015E300AA900019E0FCA3E0FDA3E0FEA3E0FF90B6
:1015F3000015E0F8A3E0F9A3E0FAA3E02FFFEA3E29
:10160300FEE93DFDE83CFCE412035112562D1203A2
:101613008F900013EEF0A3EFF0900011E0FCA3E035
:10162300FDE4120356C004C005C006C007900013B2
:10163300E0FCA3E0FDE4120356A804A905AA06AB47
:1016430007D007D006D005D00412024790001D1220
:1016530008AA7F337E337D737C3F90001DE0F8A39F
:10166300E0F9A3E0FAA3E0FB1202E440317F667ED7
:10167300667D867C3F90001DE0F8A3E0F9A3E0FAC5
:10168300A3E0FB1202E460025014900011E0700228
:10169300A3E0600A900013E07002A3E07012124905
:1016A300E17B007AF87D3C7C007F3C7E00021AA639
:1016B300900008E0FEA3E0FFC3900001E09FFF90CD
:1016C3000000E09EFE126275EE3395E0FDFC900093
:1016D300151208AA90000AE0FEA3E0FFC3900003DE
:1016E300E09FFF900002E09EFE126275EE3395E0EC
:1016F300FDFC9000191208AA900015E0FCA3E0FD80
:10170300A3E0FEA3E0FFA804A905AA06FB1207FDB8
:101713009000151208AA900019E0FCA3E0FDA3E0D5
:10172300FEA3E0FFA804A905AA06FB1207FD90008B
:10173300191208AA900019E0FCA3E0FDA3E0FEA3A0
:10174300E0FF900015E0F8A3E0F9A3E0FAA3E02F8F
:10175300FFEA3EFEE93DFDE83CFCE412035112566C
:101763002D12038F900011EEF0A3EFF090000CE028
:10177300FEA3E0FFC3900005E09FFF900004E09EFE
:10178300FE126275EE3395E0FDFC9000151208AA77
:1017930090000EE0FEA3E0FFC3900007E09FFF90E0
:1017A3000006E09EFE126275EE3395E0FDFC9000AC
:1017B300191208AA900015E0FCA3E0FDA3E0FEA324
:1017C300E0FFA804A905AA06FB1207FD9000151265
:1017D30008AA900019E0FCA3E0FDA3E0FEA3E0FF4C
:1017E300A804A905AA06FB1207FD9000191208AA6E
:1017F300900019E0FCA3E0FDA3E0FEA3E0FF90004E
:1018030015E0F8A3E0F9A3E0FAA3E02FFFEA3EFE18
:10181300E93DFDE83CFCE412035112562D12038FFF
:10182300900013EEF0A3EFF0900011E0FCA3E0FDB5
:10183300E4120356C004C005C006C007900013E0BD
:10184300FCA3E0FDE4120356A804A905AA06AB070E
:10185300D007D006D005D00412024790001D12080D
:10186300AA7F337E337D737C3F90001DE0F8A3E0B5
:10187300F9A3E0FAA3E0FB1202E4401D7F667E6653
:101883007D867C3F90001DE0F8A3E0F9A3E0FAA376
:10189300E0FB1202E4601440121249E17B007AF883
:1018A3007D3C7C007F3C7E00021AA6900008E0FE8F
:1018B300A3E0FFC3900005E09FFF900004E09EFEBD
:1018C300126275EE3395E0FDFC9000151208AA90A4
:1018D300000AE0FEA3E0FFC3900007E09FFF900033
:1018E30006E09EFE126275EE3395E0FDFC90001952
:1018F3001208AA900015E0FCA3E0FDA3E0FEA3E01C
:10190300FFA804A905AA06FB1207FD9000151208FB
:10191300AA900019E0FCA3E0FDA3E0FEA3E0FFA86A
:1019230004A905AA06FB1207FD9000191208AA9044
:101933000019E0FCA3E0FDA3E0FEA3E0FF90001587
:10194300E0F8A3E0F9A3E0FAA3E02FFFEA3EFEE903
:101953003DFDE83CFCE412035112562D12038F9017
:101963000011EEF0A3EFF090000CE0FEA3E0FFC344
:10197300900001E09FFF900000E09EFE126275EE72
:101983003395E0FDFC9000151208AA90000EE0FECE
:10199300A3E0FFC3900003E09FFF900002E09EFEE0
:1019A300126275EE3395E0FDFC9000191208AA90BF
:1019B3000015E0FCA3E0FDA3E0FEA3E0FFA804A95B
:1019C30005AA06FB1207FD9000151208AA9000193C
:1019D300E0FCA3E0FDA3E0FEA3E0FFA804A905AAA1
:1019E30006FB1207FD9000191208AA900019E0FCEB
:1019F300A3E0FDA3E0FEA3E0FF900015E0F8A3E061
:101A0300F9A3E0FAA3E02FFFEA3EFEE93DFDE83C3F
:101A1300FCE412035112562D12038F900013EEF0C3
:101A2300A3EFF0900011E0FCA3E0FDE4120356C025
:101A330004C005C006C007900013E0FCA3E0FDE46A
:101A4300120356A804A905AA06AB07D007D006D0EF
:101A530005D00412024790001D1208AA7F337E337B
:101A63007D737C3F90001DE0F8A3E0F9A3E0FAA3A7
:101A7300E0FB1202E4401D7F667E667D867C3F901C
:101A8300001DE0F8A3E0F9A3E0FAA3E0FB1202E4EF
:101A9300601740151249E17B007AF87D3C7C007F9A
:101AA3003C7E001249F20213EC900000E0FEA3E03A
:101AB300FFC3900005E09FFD900004E09EFCE4124C
:101AC3000356A804A905AA06AB07E4FFFE7D487CDC
:101AD300431202479002AE1208AA900000E0FEA350
:101AE300E0FF900005E02FFD900004E03EFCE412CF
:101AF30003569002AEE0F8A3E0F9A3E0FAA3E0FBFB
:101B030012013EA804A905AA06AB07E4FFFE7DA0C7
:101B13007C43120049E4FBFAF978401202471203AE
:101B23008F9002B6EEF0A3EFF0900002E0FEA3E088
:101B3300FFC390000BE09FFD90000AE09EFCE412BF
:101B43000356A804A905AA06AB07E4FFFE7D487C5B
:101B5300431202479002B21208AA900002E0FEA3C9
:101B6300E0FF90000BE02FFD90000AE03EFCE41242
:101B730003569002B2E0F8A3E0F9A3E0FAA3E0FB76
:101B830012013EA804A905AA06AB07E4FFFE7DA047
:101B93007C43120049E4FBFAF9784012024712032E
:101BA3008F9002B8EEF0A3EFF09002AEE0FCA3E05A
:101BB300FDA3E0FEA3E0FF12038F126275D3EF943F
:101BC30002EE64809480501F9002B2E0FCA3E0FD1B
:101BD300A3E0FEA3E0FF12038F126275D3EF94021A
:101BE300EE64809480403D1249E17B007AF87D3CAD
:101BF3007C007F3C7E001249F29002BAE070047FC1
:101C03000180027F009002BAEFF0600BA37490F0A2
:101C1300A374D0F00213EC9002BB74D0F0A37490C1
:101C2300F00213EC74FFFFFE1254CD7FE87E031223
:091C33005FD374FFFFFE1254CDD3
:011C3C002285
:10000E009002BB7490F0A374D0F09002B674FFF01F
:10001E00A374F4F09002AE1208B63DF973DA9002B2
:10002E00B87401F0A3744AF09002B21208B6BDAAD9
:03003E00F35E224C
:10604E0090002E7401F0A37402F0A374ABF07B01E8
:0D605E007A0279A9125CBB12000E7F0122AC
:0F612700139283126136EBC313FB126136D281E0
:086136007F207E1DDEFEDFFC70
:01613E00223E
:0B4C5E00900017EBF0A3EAF0A3E9F0D0
:104C69007B017A00791A12577F900017E0FBA3E0C5
:104C7900FAA3E0F974321206FE900017E0FBA3E0F4
:104C8900FAA3E0F99000017430120710900020E0B7
:104C9900FFC4540F2430900002120710EF540F2460
:104CA90030900003120710900004742F120710901F
:104CB900001EE0FFC4540F2430900005120710EFC6
:104CC900540F2430900006120710900007742F1219
:104CD900071090001DE0FFC4540F24309000081203
:104CE9000710EF540F243090000912071090000AA2
:104CF900742F12071090001CE0FFC4540F24309049
:104D0900000B120710EF540F243090000C120710FB
:104D190090000D743A12071090001BE0FFC4540F65
:104D2900243090000E120710EF540F243090000F1A
:104D3900120710900010743A12071090001AE0FF41
:104D4900C4540F2430900011120710EF540F24306F
:104D5900900012120710900013742F120710900080
:104D69001FE0540F2430900014120710900015E42E
:034D79000207101E
:0D615600F9EF120710126163E4FF125D58AB
:086163007F027E3BDEFEDFFC43
:01616B002211
:025E2200AB07CC
:105E2400C2A7126136C281126136D2A71261367AD4
:105E340008C281126136A903E9126127DAF37A08EC
:105E4400C281126136A905E9139283126136EDC34A
:095E540013FD126131DAE9C2A765
:015E5D002222
:025D5800AB0797
:105D5A00C2A7126136C281126136D2A71261367A9F
:105D6A0008C281126136EB126127DAF57A08D2810C
:105D7A00126136EDC313FD126136C28112613630EB
:105D8A0083054480FD8004ED547FFDDAE1C2A71249
:045D9A006136AF05BA
:015D9E0022E2
:10527B00900017EBF0A3EAF0A3E9F0E4FD7F8E12A8
:10528B005E22126163900017E0FBA3E0FAA3E0F942
:10529B001206B8FD7F80125E22126163900017E048
:1052AB00FBA3E0FAA3E0F99000011206D1FD7F8287
:1052BB00125E22126163900017E0FBA3E0FAA3E0F9
:1052CB00F99000021206D1FD7F84125E22126163F7
:1052DB00900017E0FBA3E0FAA3E0F990000312069D
:1052EB00D1FD7F86125E22126163900017E0FBA353
:1052FB00E0FAA3E0F99000041206D1FD7F88125E5C
:10530B0022126163900017E0FBA3E0FAA3E0F9908F
:10531B0000051206D1FD7F8A125E22126163900096
:10532B0017E0FBA3E0FAA3E0F99000061206D1FD0B
:0F533B007F8C125E221261637D807F8E025E2264
:10577F00900021EBF0A3EAF0A3E9F012615E7F8DB8
:10578F00125D58900021E0FBA3E0FAA3E090000621
:10579F001261567F8B125D58900021E0FBA3E0FA57
:1057AF00A3E09000051261567F89125D5890002189
:1057BF00E0FBA3E0FAA3E0F9900004EF1207101248
:1057CF00615E7F87125D58900021E0FBA3E0FAA392
:1057DF00E0F99000031261577F85125D5890002108
:1057EF00E0FBA3E0FAA3E0F99000021261577F8378
:1057FF00125D58900021E0FBA3E0FAA3E0F99000BE
:10580F00011261577F81125D58900021E0FBA3E0E8
:08581F00FAA3E0F9EF0206FE16
:10620E00C2A7C281E4FD7F8E125E227D807F8E0248
:02621E005E22FE
:03000B00025B3362
:105B3300C0E0C0F0C083C082C0D075D000C000C038
:105B430001C002C003C004C005C006C007758AAB0C
:105B5300758C2FD2A69002F2E0C3945F402AE4F042
:105B6300300A25C20A7B017A0279D71261FB5004FD
:105B7300D209800D7B017A0279D774FFFDFC125A9A
:105B83003D9002D7E4F0A3F09002F2E004F0D007D6
:105B9300D006D005D004D003D002D001D000D0D09D
:095BA300D082D083D0F0D0E032B2
:10623100438901758AAB758C2FD2A9D2AFC28C224A
:103F9100C8D5C0FA00CEC2B6C800B5E7BBB000CFE5
:103FA100E0B2E100D3B2BCFEBCECB2E200BBADB00A
:103FB100E500B4AEBFDAD6FACAD600535049D6FAF4
:103FC100CAD6004C454400B5E7BBB0B9A6C4DCCEA7
:103FD100B4BFAAB7C5A3A100CFE0B2E1B9A6C4DCC2
:103FE100CEB4BFAAB7C5A3A100B4AEBFDAD6FACA90
:103FF100D6CEB4BFAAB7C5A3A100535049D6FACAB9
:10400100D6CEB4BFAAB7C500486172647761726544
:1040110020436865636B2052756E6E696E67002A76
:104021002A2A2A2A2A2A466C617368204368656312
:104031006B2A2A2A2A2A2A2A005732355138300077
:1040410057323551313600573235513332005732FC
:104051003551363400466C617368204572726F7257
:10406100002A2A2A2ACAB1D6D3BCECB2E22A2A2AC9
:104071002A00B6C1C8A1CAB1BCE4D6D02E2E2E00EA
:104081002A2A2A2ACEC2B6C8BCECB2E22A2A2A2A95
:1040910000B6C1C8A1CEC2B6C8D6D02E2E2E00B54C
:1040A100B1C7B0CEC2B6C8A3BA002A2A2A2A4C4543
:1040B10044BCECB2E22A2A2A2A004C45443120C1F0
:1040C100C1004C45443220C1C1004C45443320C19C
:1040D100C1004C45442020B9D800D6DC00C9E8B65F
:1040E100A8CFB5CDB3CAB1BCE400A1F800A88B003C
:1040F1004E657874004F6B00D2D1C9E8B6A8CFB530
:10410100CDB3CAB1BCE4A3A100A1FB00A1F600A1FB
:10411100FE004C4544BFD8D6C6004C454431004C46
:10412100454432004C45443300B9D800BFAA0000D1
:0641310000000000000088
:105C47005602BD0000000000000000000000000038
:0B5C5700000000000000000000C10978
:1026B000E4900000F0A3F0C28C74FFFFFE1254CD32
:1026C000900008E4F0A37443F0A31208B600600C75
:1026D000A07B917A007D147C007F0A7E00124B2241
:1026E0007BFF7A3F79919001677410F074FFA3F03B
:1026F000A3F07411A3F0A3F07D477C007F0A7E0055
:102700001242C9900008E4F0A37443F0A31208B683
:10271000006058867B467A007D147C007FA07E0096
:10272000124B227BFF7A3F79969001677410F07408
:10273000FFA3F0A3F07411A3F0A3F07D477C007F0A
:10274000A07E001242C9900008E4F0A37444F0A3F4
:102750001208B600607D2A7B467A007D5D7C007F92
:102760000A7E00124B227BFF7A3F799B90016774AF
:1027700010F074FFA3F0A3F07411A3F0A3F07D9107
:102780007C007F0A7E001242C9900008E4F0A37426
:1027900044F0A31208B60060A25A7B467A007D5D21
:1027A0007C007F557E00124B227BFF7A3F79A09000
:1027B00001677410F074FFA3F0A3F07411A3F0A3E9
:1027C000F07D917C007F557E001242C9900008E4A4
:1027D000F0A37444F0A31208B60060C78A7B467A5F
:1027E000007D5D7C007FA07E00124B227BFF7A3F44
:1027F00079A59001677410F074FFA3F0A3F0741131
:10280000A3F0A3F07D917C007FA07E001242C990CE
:102810000008E4F0A37444F0A31208B60060ECBA18
:102820007B467A007DA67C007F0A7E00124B227BCD
:10283000FF7A3F79AE9001677410F074FFA3F0A3A4
:10284000F07411A3F0A3F07DDA7C007F0A7E001201
:1028500042C9900008E4F0A37444F0A31208B60043
:102860006111EA7B917A007DA67C007F557E001283
:102870004B227BFF7A3F79B39001677410F074FFAD
:10288000A3F0A3F07411A3F0A3F07DDA7C007F55D0
:102890007E001242C9900008E4F0A37441F0A31234
:1028A00008B600615EF27B917A007DEF7C007F0AC2
:1028B0007E00124B227BFF7A3F79BC900167741037
:1028C000F074FFA3F0A3F07411A3F0A3F07D207CBB
:1028D000017F0A7E001242C9900008E4F0A374410F
:1028E000F0A31208B60061A8947B467A007DEF7CC5
:1028F000007FA07E00124B227BFF7A3F79C49001BB
:10290000677410F074FFA3F0A3F07411A3F0A3F0A8
:102910007D207C017FA07E001242C9125F56D28CBE
:10292000E49002D3F0A3F0A3F0A3F0900000E0B491
:102930000B0FA3E0B4FF0A125F56E4900000F0A36F
:10294000F0900001E004F07006900000E004F01246
:10295000534A9002D3E0FEA3E0FFC3940AEE940032
:102960004011D3EF9450EE940050089002D3E4F05D
:10297000A304F09002D3E0FEA3E0FFC39455EE94CD
:10298000004012D3EF949BEE940050099002D3E4E0
:10299000F0A37402F09002D3E0FEA3E0FFC394A082
:1029A000EE94004012D3EF94DCEE940050099002B4
:1029B000D3E4F0A37403F09002D5E0FEA3E0FFC3DC
:1029C000941EEE94004011D3EF9458EE94005008FA
:1029D0009002D5E4F0A304F09002D5E0FEA3E0FF5E
:1029E000C3945DEE94004012D3EF94A1EE94005096
:1029F000099002D5E4F0A37402F09002D5E0FEA3A2
:102A0000E0FFC394A6EE94004012D3EF94EAEE9454
:102A10000050099002D5E4F0A37403F09002D5E0D1
:102A2000FEA3E0FFC394EFEE94004012D3EF943383
:102A3000EE940150099002D5E4F0A37404F09002E2
:102A4000D5E0FEA3E0FFEE6003022920EF24FE6044
:102A50003B14606B147003022AF224036003022902
:102A6000209002D3E0FEA3E0FFEE6003022920EFF6
:102A700024FE600C14600F240260030229208000F1
:102A8000124451022920124D7C0229209002D3E0E9
:102A9000FEA3E0FFEE6003022920EF24FE60121483
:102AA0006017240260030229207BFF7A3F79C880E7
:102AB0006C7BFF7A3F79D9806412367B0226B7900F
:102AC00002D3E0FEA3E0FFEE6003022920EF24FE24
:102AD0006010146015240260030229201233C5021D
:102AE00029207BFF7A3F79EA80337BFF7A3F79EABE
:102AF000802B9002D3E0FEA3E0FFEE6003022920CA
:102B0000EF24FE601214601F240260030229207B60
:102B1000FF7A3F79FB80067BFF7A3F79FB74FFFDEC
:0D2B2000FC125A3D022920122B2D02292003
:105ED20074FFFFFE1254CD900008E4F0A374AEF0FC
:105EE200A31208B6005F4E507B8C7A007D497C007D
:0E5EF2007F3C7E00124B227FFF7E0F025FD3AB
:10367B00E4FFFE1254CD7BFF7A40790990001E7453
:10368B0007F0A374E0F0E4A3F0A3F0FDFCFFFE123F
:10369B0054177BFF7A40792090001E7407F0A374B7
:1036AB00E0F0E4A3F0A3F07D10FCFFFE1254171220
:1036BB005D9FEF8EF012092D36D7EF1336DFEF1427
:1036CB0036E7EF1536EFEF16000037147BFF7A4025
:1036DB00793A80167BFF7A407941800E7BFF7A40E6
:1036EB00794880067BFF7A40794F9001677410F020
:1036FB00A374F8F0A3E4F074FFA3F0A3F07D207C97
:10370B0000E4FFFE1242C980267BFF7A4079569077
:10371B00001E74F8F0A3E4F074FFA3F0A3F07D2077
:10372B007C00E4FFFE1254177FFF7E0F125FD37FE6
:10373B00FF7E00125FD37BFF7A4079629001677442
:10374B0010F0A37407F0A374E0F0E4A3F0A3F07DF2
:10375B0030FCFFFE1242C97BFF7A40797390016700
:10376B007410F0A374F8F0A3E4F074FFA3F0A3F0CB
:10377B007D407C00E4FFFE1242C97B017A0279BDD9
:10378B00124C5E7B017A0279BD9001677410F0A335
:10379B0074F8F0A3E4F074FFA3F0A3F07D507C0069
:1037AB00E4FFFE1242C97FFF7E00125FD37BFF7ADC
:1037BB004079819001677410F0A37407F0A374E053
:1037CB00F0E4A3F0A3F07D60FCFFFE1242C97BFF87
:1037DB007A4079929001677410F0A374F8F0A3E427
:1037EB00F074FFA3F0A3F07D707C00E4FFFE1242A7
:1037FB00C97B017A00790D125DE27FFF7E07125FB4
:10380B00D37B017A00790D125DE27BFF7A4079A0C0
:10381B009001677410F0A37407F0A374E0F07411B7
:10382B00A3F0A3F07D807C00E4FFFE1242C97B0174
:10383B007A00790D90001E74F8F0A3E4F074FFA3E6
:10384B00F0A3F07D807C007F507E001254177BFF2D
:10385B007A4079AB9001677410F0A37407F0A374EE
:10386B00E0F0E4A3F0A3F07D90FCFFFE1242C9C28E
:10387B00857BFF7A4079BB9001677410F0A374F8D5
:10388B00F0A3E4F074FFA3F0A3F07DA07C00E4FFB1
:10389B00FE1242C9125FCFC2867BFF7A4079C3907A
:1038AB0001677410F0A374F8F0A3E4F074FFA3F0B5
:1038BB00A3F07DA07C00E4FFFE1242C9125FCFC2D1
:1038CB00877BFF7A4079CB9001677410F0A374F873
:1038DB00F0A3E4F074FFA3F0A3F07DA07C00E4FF61
:1038EB00FE1242C9125FCF1200037BFF7A4079D3DD
:1038FB009001677410F0A374F8F0A3E4F074FFA3C5
:10390B00F0A3F07DA07C00E4FFFE1242C97FFF7E96
:04391B000F025FD365
:105A3D0090015BEBF0A3EAF0A3E9F0A3ECF0A3ED8A
:015A4D00F068
:105A4E0090015BE0FBA3E0FAA3E0F990016774100C
:105A5E00F0A374F8F0A3E4F090015EE0FFA3E090F1
:105A6E00016ACFF0A3EFF0E4FDFCFFFE1242C97F06
:105A7E00FF7E07125FD390015BE0FBA3E0FAA3E089
:105A8E00F91261ABEF75F008A4FB7A00900166E4A1
:105A9E00F0A37410F090015EE0FFA3E0900168CFD8
:0C5AAE00F0A3EFF0E4FDFCFFFE02519BB2
:10534A009000067401F0A37402F0A374D5F07B01F7
:04535A007A0279D387
:10535E00900003EBF0A3EAF0A3E9F0A3E0F9A3E0D9
:10536E00FAA3E0900020C9F0A3EAF0A3E9F09000C0
:10537E0003E0FBA3E0FAA3E0F91248B0900003E0CB
:10538E00FBA3E0FAA3E0F91207B3FDACF0E41203BD
:10539E00567BE17A7A797078411202477B9A7A9934
:1053AE00796D78C112004D12038F900003E0FBA3BC
:1053BE00E0FAA3E0F9EE8FF01207DE900006E0FBB4
:1053CE00A3E0FAA3E0F91207B3FDACF0E412035622
:1053DE007BC37AF5792C78411202477BF67A2879CD
:1053EE008C78C112004D12038F900006E0FBA3E0F3
:1053FE00FAA3E0F9EE8FF01207DE30090BC2097B3B
:09540E00017A0279D712594022FB
:1056D500900017EBF0A3EAF0A3E9F0A3E0F9A3E04B
:1056E500FAA3E0900020C9F0A3EAF0A3E9F0900046
:1056F50017E0FBA3E0FAA3E0F91248B0900017E029
:10570500FBA3E0FAA3E0F91207B3FDACF0E4120342
:10571500567BE17A7A797078411202477B9A7A99B9
:10572500796D78C112004D12038F900017E0FBA32D
:10573500E0FAA3E0F9EE8FF01207DE90001AE0FB25
:10574500A3E0FAA3E0F91207B3FDACF0E4120356A7
:105755007BC37AF5792C78411202477BF67A287952
:105765008C78C112004D12038F90001AE0FBA3E064
:0A577500FAA3E0F9EE8FF00207DE60
:045FCF007FFF7E05CD
:105FD300E4FDFCC3ED9FEC9E5015E4FBFA0BBB0004
:0F5FE300010ABA03F8BBE8F50DBD00010C80E41C
:015FF200228C
:105F56007B017A0279BD124C5EE49002CDF07B01A2
:105F66007A0279C890001EF0A3F074FFA3F0A3F0A4
:095F7600E4FDFC7FC8FE02541793
:10445100E490000DF0A3F07B017A0279BD124C5E6D
:10446100E49002C4F07F1D7E051254CD900166E4F4
:10447100F0A37414F0A374FFF0A374E0F07B787AD6
:10448100007D3C7C007F3C7E0012519B900166E4E4
:10449100F0A37468F074FFA3F0A3F07B787A007D39
:1044A100507C007F3C7E0012519B7B017A0279BDDA
:1044B10090001E74F8F0A3E4F07411A3F0A3F07D52
:1044C1003D7C007F3D7E001254177BFF7A4079DBF3
:1044D1009001677410F0A374F8F0A3E4F07411A3D1
:1044E100F0A3F07D3D7C007F967E001242C97B01E6
:1044F1007A0279D190001E74F8F0A3E4F07411A34C
:10450100F0A3F07D3D7C007FA67E00125417E4905D
:1045110002C7F07B017A0279C59001677420F0A38C
:1045210074F8F0A3E4F07411A3F0A3F07D6E7C00A5
:104531007F697E001242C9124F9F90000DE0FEA3D9
:10454100E0FFF47003EE640B6004EF4E70367B0104
:104551007A0279BD124C5EE49002CDF07B017A02C1
:1045610079C890001E74F8F0A3E4F074FFA3F0A3DF
:10457100F07D967C007F647E0012541790000DE45C
:10458100F0A304F090000EE004F0700690000DE03E
:1045910004F012534A9002D5E0FEA3E0FFD3942029
:1045A100EE94014095EF9440EE9401508D90001AE5
:1045B10074FFF0A3740BF0A37428F09002D3E0FF12
:1045C100A3E090001DCFF0A3EFF07BFF7A2679B036
:0645D10012475002453BB9
:100B2800780F7C007D017BFF7A4179307E007F075A
:100B38001206929000167401F0FB7A0279BD124CED
:100B48005E7F1D7E051254CD7BFF7A4079DE9001D1
:100B5800677420F074FFA3F0A3F07411A3F0A3F05E
:100B68007D147C007F187E001242C97B017A0279CD
:100B7800BD90001E74F8F0A3E4F074FFA3F0A3F096
:100B88007D807C007F287E00125417900166E4F077
:100B9800A37414F0A374C6F0A37418F07B287A0029
:100BA8007D697C007F647E0012519B7BFF7A4079CF
:100BB800EB9001677410F0E4A3F0A3F07411A3F0B4
:100BC800A3F07D6C7C007F737E001242C990001DEB
:100BD800E4F0A37414F0A3E4F0A3741FF07B287A64
:100BE800007D697C007F647E00122E2D900166E4F2
:100BF800F0A37414F0A374C6F0A37418F07B287AD9
:100C0800007D947C007F647E0012519B7BFF7A40BC
:100C180079EE9001677410F0E4A3F0A3F07411A3C7
:100C2800F0A3F07D997C007F737E001242C990008A
:100C38001DE4F0A37414F0A3E4F0A3741FF07B2860
:100C48007A007D947C007F647E00122E2D900166D0
:100C5800E4F0A37414F0A374C6F0A37418F07B280E
:100C68007A007DB47C007F287E0012519B7BFF7A3E
:100C78004079F1E490001EF0A3F07411A3F0A3F002
:100C88007DB67C007F2A7E0012541790001DE4F088
:100C9800A37414F0A3E4F0A3741FF07B287A007DFA
:100CA800B47C007F287E00122E2D900166E4F0A30C
:100CB8007414F0A374C6F0A37418F07B287A007D2E
:100CC800B47C007FAA7E0012519B7BFF7A4079F6A4
:100CD800E490001EF0A3F07411A3F0A3F07DB67C9D
:100CE800007FB97E0012541790001DE4F0A374141D
:100CF800F0A3E4F0A3741FF07B287A007DB47C0095
:100D08007FAA7E00122E2D124F9FE49002D0F09001
:100D180002CDF09002CAF09002C7F09002C4F090A1
:100D280002C1F0900016E014B407004003020EFF61
:100D3800900D4675F003A4C58325F0C58373020D95
:100D48005B020D97020DD3020E0F020E4B020E86A8
:100D5800020EC17B017A0279BD90001E7407F0A3D0
:100D680074E0F0E4A3F0A3F07D80FC7F28FE125429
:100D7800177B017A0279D190001E74F8F0A3E4F091
:100D880074FFA3F0A3F07D807C007FC8020EFA7B7D
:100D9800017A0279C290001E7407F0A374E0F0E4AF
:100DA800A3F0A3F07D80FC7F50FE1254177B017ADC
:100DB8000279BD90001E74F8F0A3E4F074FFA3F06C
:100DC800A3F07D807C007F28020EFA7B017A0279ED
:100DD800C590001E7407F0A374E0F0E4A3F0A3F03C
:100DE8007D80FC7F68FE1254177B017A0279C290DD
:100DF800001E74F8F0A3E4F074FFA3F0A3F07D8064
:100E08007C007F50020EFA7B017A0279C890001E9E
:100E18007407F0A374E0F0E4A3F0A3F07D80FC7FF6
:100E280080FE1254177B017A0279C590001E74F86F
:100E3800F0A3E4F074FFA3F0A3F07D807C007F684A
:100E4800020EFA7B017A0279CB90001E7407F0A398
:100E580074E0F0E4A3F0A3F07D80FC7F98FE1254C8
:100E6800177B017A0279C890001E74F8F0A3E4F0A9
:100E780074FFA3F0A3F07D807C007F8080747B01E9
:100E88007A0279CE90001E7407F0A374E0F0E4A310
:100E9800F0A3F07D80FC7FB0FE1254177B017A022C
:100EA80079CB90001E74F8F0A3E4F074FFA3F0A3CC
:100EB800F07D807C007F9880397B017A0279D1901F
:100EC800001E7407F0A374E0F0E4A3F0A3F07D80A3
:100ED800FC7FC8FE1254177B017A0279CE90001E5F
:100EE80074F8F0A3E4F074FFA3F0A3F07D807C0015
:100EF8007FB07E0012541790001A7401F0A3740298
:100F0800F0A374D5F07B017A0279D31256D59002FA
:100F1800D5E0FEA3E0FFD39420EE9401402EEF9499
:100F280040EE9401502690001A74FFF0A37426F046
:100F3800A374B0F09002D3E0FFA3E090001DCFF0BF
:100F4800A3EFF07BFF7A4479511247509002D3E027
:100F5800FEA3E0FFC39428EE94004029D3EF9450F9
:100F6800EE94005020A3E0FEA3E0FFC394B4EE94F7
:100F7800004012D3EF94C8EE94005009900016E098
:100F880004F030A5FD9002D3E0FEA3E0FFC39496E1
:100F9800EE9400500302105ED3EF94BEEE9400402E
:100FA8000302105EA3E0FEA3E0FFC394B4EE940036
:100FB800500302105ED3EF94C8EE94004003021071
:100FC8005E9002CEE024D0C454F0FFA3E024D04FBA
:100FD80090000FF09002CBE024D0C454F0FFA3E0BF
:100FE80024D04F900010F09002C8E024D0C454F0F0
:100FF800FFA3E024D04F900011F09002C5E024D068
:10100800C454F0FFA3E024D04F900012F09002C225
:10101800E024D0C454F0FFA3E024D04F900013F094
:101028009002D1E024D0900014F09002BFE024D0C8
:10103800C454F0FFA3E024D04F900015F07B017A50
:1010480000790F12527B7BFF7A4079F97D1D7C0570
:10105800125A3D30A5FD9002D3E0FEA3E0FFC394F1
:1010680064EE940050030211EED3EF948CEE9400DA
:1010780040030211EEA3E0FEA3E0FFC39469EE94DF
:101088000050030211EED3EF947DEE94004003026A
:1010980011EE900016E014B4070040030211EB9023
:1010A80010B575F003A4C58325F0C583730210CA73
:1010B8000210EE02112002115202117F0211AC023D
:1010C80011DC9002C0E004F0E0D394394009743098
:1010D800F09002BFE004F09002BFE0D394395003CF
:1010E8000211EB0211D79002C3E004F0E0D394326E
:1010F80040109002C2E0B43109A37431F09002C2EA
:1011080014F09002C3E0D3943950030211EB90021B
:10111800C2E004F0A30211D79002C6E004F0E0D3C5
:10112800943140109002C5E0B43309A37431F090B3
:1011380002C514F09002C6E0D3943950030211EBB3
:101148009002C5E004F0A30211D79002C9E004F0B0
:10115800E0D39433400F9002C8E0B43208A374304F
:10116800F09002C8F09002C9E0D39439407590021B
:10117800C8E004F0A380589002CCE004F0E0D394D7
:1011880039400F9002CBE0B43508A37430F09002D8
:10119800CBF09002CCE0D3943940489002CBE004E5
:1011A800F0A3802B9002CFE004F0E0D39439400FF5
:1011B8009002CEE0B43508A37430F09002CEF090DF
:1011C80002CFE0D39439401B9002CEE004F0A37420
:1011D80030F0800F9002D1E004F0E0D39437400360
:1011E8007431F030A5FD9002D3E0FEA3E0FFC39474
:1011F80064EE940050030213B1D3EF948CEE940084
:1012080040030213B1A3E0FEA3E0FFC39494EE945D
:101218000050030213B1D3EF94A8EE9400400302E8
:1012280013B1900016E014B4070040030213AE9007
:10123800124575F003A4C58325F0C5837302125ABD
:1012480002128F0212C60212FC0213320213680243
:10125800139E9002C0E0B4300F9002BFE0B4300893
:10126800A37439F09002BFF09002C0E0B43012903D
:1012780002BFE06430600AA3743AF09002BFE01441
:10128800F09002C00213AB9002C3E0B43111900297
:10129800C2E0B4300AA37433F09002C27431F09003
:1012A80002C3E0B430129002C2E06430600AA37452
:1012B8003AF09002C2E014F09002C30213AB90021D
:1012C800C6E0B431109002C5E0B43009A37432F01E
:1012D8009002C504F09002C6E0B430129002C5E056
:1012E8006430600AA3743AF09002C5E014F09002EA
:1012F800C60213AB9002C9E0B430119002C8E0B442
:10130800300AA37434F09002C87432F09002C9E035
:10131800B430129002C8E06430600AA3743AF090C6
:1013280002C8E014F09002C980799002CCE0B43091
:10133800119002CBE0B4300AA3743AF09002CB7457
:1013480035F09002CCE0B430129002CBE06430600B
:101358000AA3743AF09002CBE014F09002CC8043D8
:101368009002CFE0B430119002CEE0B4300AA374FA
:101378003AF09002CE7435F09002CFE0B43012907B
:1013880002CEE06430600AA3743AF09002CEE01412
:10139800F09002CF800D9002D1E0B431037438F0A0
:1013A8009002D1E014F030A5FD900016E0D3940728
:0B13B8005003020D2B7401F0020D2BFE
:104F9F0090002D7401F0A37420F074FFA3F0A3F020
:104FAF007BF07A007D207C01E4FFFE12391F7BFF2E
:104FBF007A41790A9001677420F074FFA3F0A3F08F
:104FCF007411A3F0A3F07D207C017F147E001242A8
:104FDF00C97BFF7A41790D9001677420F0A374A209
:104FEF00F0A37454F07411A3F0A3F07D207C017F23
:104FFF00687E001242C990002D7401F0A37430F046
:10500F0074FFA3F0A3F07B837A007D307C017F6C6B
:10501F007E0012391F90002D7401F0A3743BF074C1
:10502F00FFA3F0A3F07B787A007D257C017F787E4B
:10503F000012391F90002D7401F0A37440F074FF1B
:10504F00A3F0A3F07B507A007D207C017F507E007F
:10505F0012391F90002D7401F0A37440F074FFA358
:10506F00F0A3F07BA07A007D207C017FA07E001250
:10507F00391F7BFF7A4179109001677420F074FF1C
:10508F00A3F0A3F07411A3F0A3F07D207C017FBBEC
:05509F007E000242C981
:10475000900017EBF0A3EAF0A3E9F090001DE0FE53
:10476000A3E0FFC39450EE64809480503AEF94002D
:10477000EE6480948040307BFF7A41790A90016733
:104780007420F074FFA3F0A3F0A3E4F0A3741FF06F
:104790007D207C017F147E001242C9900017A3E0A7
:1047A000FAA3E0F912095A90001DE0FEA3E0FFD33E
:1047B0009450EE64809480500302484FEF94A0EE32
:1047C00064809480400302484F7BFF7A41790D90CA
:1047D00001677420F0A374A2F0A37454F0A3E4F072
:1047E000A3741FF07D207C017F687E001242C99077
:1047F000002D7401F0A37430F074FFA3F0A3F07BDC
:10480000837A007D307C017F6C7E0012391F90001E
:104810002D7401F0A3743BF074FFA3F0A3F07B7838
:104820007A007D257C017F787E0012391F90002D53
:104830007401F0A37440F074FFA3F0A3F07B507AEE
:10484000007D207C017F507E0012391F1226B0901F
:10485000001DE0FEA3E0FFD394A0EE6480948040AE
:104860003AEF94F0EE6480948050307BFF7A417987
:10487000109001677420F074FFA3F0A3F0A3E4F09C
:10488000A3741FF07D207C017FBB7E001242C99083
:0C489000001AA3E0FAA3E0F912095A2272
:104D7C00E490000DF0A3F07F1D7E051254CD900140
:104D8C0066E4F0A37432F0A3E4F0A3741FF07B98F4
:104D9C007A007D3C7C007F2D7E0012519B90001D83
:104DAC00E4F0A3741EF0A374F8F0A3E4F07B84FA8F
:104DBC007D46FC7F37FE122E2D124F9F90000DE08A
:104DCC00FEA3E0FFF44E6004EF4E70557B017A00B9
:104DDC00790F125DE27BFF7A4079A0900167741025
:104DEC00F0A374F8F0A3E4F07411A3F0A3F07D4EDB
:104DFC007C007F387E001242C97B017A00790F90CB
:104E0C00001E74F8F0A3E4F074FFA3F0A3F07D4E41
:104E1C007C007F807E0012541790000DE4F0A304F8
:104E2C00F090000EE004F0700690000DE004F0D35A
:104E3C0090000EE094FF90000DE094004004E4F02C
:104E4C00A3F012534A9002D5E0FEA3E0FFD39420C6
:104E5C00EE94015003024DC8EF9440EE94014003D0
:104E6C00024DC890001A74FFF0A37426F0A374B01E
:104E7C00F09002D3E0FFA3E090001DCFF0A3EFF081
:0C4E8C007BFF7A2679B0124750024DC817
:1033C50090000D74F8F0A3E4F07F1D7E051254CD36
:1033D5009001667401F0A37420F074FFA3F0A3F0CC
:1033E5007BF07A00E4FDFCFFFE12519B900166E440
:1033F500F0A37418F0A37405F0A3741DF07BF07AA4
:10340500007D087C01E4FFFE12519B900166E4F00B
:10341500A37418F074FFA3F0A3F07B187A007D085D
:103425007C01E4FFFE12519B900166E4F0A3741841
:10343500F0E4A3F0A3F07B18FA7D087C017F18FE69
:1034450012519B900166E4F0A37418F0A374C6F0C2
:10345500A37418F0FB7A007D087C017F307E001292
:10346500519B900166E4F0A37418F0A3E4F0A374F3
:103475001FF07B187A007D087C017F487E00125181
:103485009B900166E4F0A37418F0A374F8F0A3E42C
:10349500F07B18FA7D087C017F60FE12519B90013C
:1034A50066E4F0A37418F0A374F8F0A3741FF07B1E
:1034B500187A007D087C017F787E0012519B90016F
:1034C50066E4F0A37418F0A37407F0A374E0F07B2E
:1034D500187A007D087C017F907E0012519B900137
:1034E50066E4F0A37418F0A3747FF0A374FFF07B77
:1034F500187A007D087C017FA87E0012519B9001FF
:1035050066E4F0A37418F0A374FFF0A374E0F07BF5
:10351500187A007D087C017FC07E0012519B9001C6
:1035250066E4F0A37418F0A374B7F0A37423F07BDA
:10353500187A007D087C017FD87E0012519B124FBE
:103545009F12534A9002D5E0FEA3E0FFD39400EE0C
:1035550094004021EF9408EE940150199002D3E0B5
:10356500FEA3E0FFA3E0FCA3E0FD90000DE0FAA3BD
:10357500E0FB1259BF9002D5E0FEA3E0FFD39420F3
:10358500EE9401402EEF9440EE9401502690001ADF
:1035950074FFF0A37426F0A374B0F09002D3E0FF9B
:1035A500A3E090001DCFF0A3EFF07BFF7A2679B062
:1035B5001247509002D5E0FEA3E0FFD39408EE94A5
:1035C500015003023546EF9420EE94014003023585
:1035D500469002D3E0FEA3E0FF7C007D181207327F
:1035E500EFB40A0040030235469035F5F8282873F4
:1035F50002361302361702362102362E02363402FF
:10360500364002364D02365402366102366E74FF7C
:103615008001E490000DF0A3F002354690000D7492
:10362500C6F0A37418F002354690000DE4801190A1
:10363500000D74F8F0A3E4F002354690000D74F81F
:10364500F0A3741FF002354690000D7407801290A8
:10365500000D747FF0A374FFF002354690000D74E1
:10366500FFF0A374E0F002354690000D74B7F0A3A7
:063675007423F00235464B
:102B2D00E4900002F07F1D7E051254CD7BFF7A41AB
:102B3D0079139001677420F074FFA3F0A3F0741162
:102B4D00A3F0A3F07D0A7C007F417E001242C912E2
:102B5D004F9F7BFF7A41791B74FF90001EF0A3F00D
:102B6D007411A3F0A3F07D327C007F1E7E00125401
:102B7D00177BFF7A41792074FF90001EF0A3F0744B
:102B8D0011A3F0A3F07D787C007F1E7E00125417F8
:102B9D007BFF7A41792574FF90001EF0A3F074112C
:102BAD00A3F0A3F07DBE7C007F1E7E001254177F24
:102BBD0001126196900166E4502FF0A3743CF0A3CE
:102BCD00E4F0A3741FF07B967A007D327C007F4683
:102BDD007E0012519B7BFF7A41792A900167741018
:102BED00F0A3E4F0A3741F802EF0A3743CF0A37443
:102BFD0007F0A374E0F07B967A007D327C007F466F
:102C0D007E0012519B7BFF7A41792D9001677410E4
:102C1D00F0A374F8F0A3E4F0A37405F0A3741DF011
:102C2D007D4C7C007F1E7E001242C97F0212619690
:102C3D00900166E4502FF0A3743CF0A3E4F0A3746C
:102C4D001FF07B967A007D787C007F467E001251C6
:102C5D009B7BFF7A41792A9001677410F0A3E4F011
:102C6D00A3741F802AF0A3743CF0A374F8F0A3E4BE
:102C7D00F07B96FA7D78FC7F46FE12519B7BFF7AA6
:102C8D0041792D9001677410F0A374F8F0A3E4F06E
:102C9D00A37405F0A3741DF07D927C007F1E7E0051
:102CAD001242C97F03126196900166E4502FF0A382
:102CBD00743CF0A3E4F0A3741FF07B967A007DBE04
:102CCD007C007F467E0012519B7BFF7A41792A90D2
:102CDD0001677410F0A3E4F0A3741F802EF0A374A9
:102CED003CF0A374FFF0A374E0F07B967A007DBEF8
:102CFD007C007F467E0012519B7BFF7A41792D909F
:102D0D0001677410F0A374F8F0A3E4F0A37405F058
:102D1D00A3741DF07DD87C007F1E7E001242C91267
:102D2D00534A30A5FD9002D5E0FEA3E0FFD39420D9
:102D3D00EE9401402EEF9440EE9401502690001A2F
:102D4D0074FFF0A37426F0A374B0F09002D3E0FFEB
:102D5D00A3E090001DCFF0A3EFF07BFF7A2679B0B2
:102D6D001247509002D3E0FEA3E0FFD3941EEE94E1
:102D7D0000402AEF94D2EE94005022A3E0FEA3E08F
:102D8D00FF9432EE94004015EF946EEE9400500DCA
:102D9D007F01126196B392007F011260D99002D328
:102DAD00E0FEA3E0FFD3941EEE9400402AEF94D2F0
:102DBD00EE94005022A3E0FEA3E0FF9478EE940081
:102DCD004015EF94B4EE9400500D7F02126196B34E
:102DDD0092007F021260D99002D3E0FEA3E0FFD3F0
:102DED00941EEE94005003022BBCEF94D2EE94008F
:102DFD004003022BBCA3E0FEA3E0FF94BEEE9400C3
:102E0D005003022BBCEF94FAEE94004003022BBC4E
:102E1D007F03126196B392007F031260D9022BBC1F
:0662A80025372E336600CD
:1061C000EF25E02405FFEFD3940040077E05DEFEB7
:0361D0001F80F33A
:0161D30022A9
:1061D400EFD39400400D00007E207D1CDDFEDEFC2C
:0361E4001F80ED2C
:0161E7002295
:105FA700C200D2807F051261C0C2807FC81261C063
:105FB7007FC81261C0D2807F321261C0A280920076
:075FC7007F191261C0A20066
:015FCE0022B0
:10606B00E4FC7D08C280ECC313FCD2803080034477
:0B607B0080FC7F191261C0DDEBAF0458
:0160860022F7
:02608700AD0763
:106089007B08C280ED1392807F191261C0D280ED26
:0A609900C313FDDBED7F190261C0A7
:105E9800E4FBFFFEFDFC125FA77FCC1260877F4406
:105EA8001260877F0A1261D4125FA77FCC126087C5
:105EB8007FBE12608712606BAB0712606BEF7F00CA
:095EC800FEEF2BFDE43EFEAF05E8
:015ED10022AE
:0B5DE200900016EBF0A3EAF0A3E9F03C
:105DED00125E98AD07AC06E4120356E4FBFA798017
:105DFD00783D12013E90001C74FFF0A37462F0A375
:105E0D0074A8F0A31208AA900016E0FBA3E0FAA371
:055E1D00E0F9022292F1
:085C6200C10A4302EB0102D765
:10601300538EF7759A50438E04200003759C983075
:0E6023000003759CF7438E10D2AF75AF0122BB
:0B6281008F9BE59A30E1FB539AFD2251
:1061E8001206B8FF600C126281740129F9E43AFAC8
:0361F80080EE2214
:03004300025BACB1
:105BAC00C0E0C0F0C083C082C0D075D000C000C0BF
:105BBC0001C002C003200A0E9002EB7401F0A37422
:105BCC0002F0A374D7F0E59A30E02ED20A539AFE75
:105BDC009002EBE0FBA3E0FAA3E0F9E59B1206FED2
:105BEC009002ECE475F0011207879002EBE0FBA346
:105BFC00E0FAA3E0F9E41206FED003D002D001D003
:0C5C0C0000D0D0D082D083D0F0D0E032A5
:10557B000A004F4B0A004E6F7420666F756E6421E4
:10558B000A006C696E6B000000000000FF629664FD
:10559B0065736B746F70000000FF26B073746172DB
:1055AB00746368000000FF367B706963626F78007C
:1055BB00000000FF33C574656D70657274000000E8
:1055CB00FF4D7C63616C656E6461720000FF44513A
:1055DB007374696D650000000000FF60A373746550
:1055EB006D706572740000FF60BE73776C6564311B
:1055FB0000000000FF624E73776C656432000000A0
:10560B0000FF625B73776C65643300000000FF6220
:0E561B00686F66666C656400000000FF6181C8
:0B594000900009EBF0A3EAF0A3E9F0EF
:10594B0090000AE475F003120787E490000CF090C6
:10595B00000CE0FFD3940C505AEFB40C0302629F7F
:10596B0090000CE075F00DA4248DF9745535F0FA08
:10597B007BFFC003C002900009E0FBA3E0FAA3E0A9
:10598B00F8AC02AD03D002D003120B0BEF701C90DE
:10599B00000CE075F00DA42497F582E43455F583E3
:1059AB00740193FA740293F902095A90000CE00403
:0359BB00F0809CDD
:0159BE0022C6
:1061FB001206B8B4410B9000011206D1B45402D36D
:03620B0022C32289
:1060A3007B017A0279BD124C5E7B017A0279BD12C3
:0B60B30061E87BFF7A55797B0261E811
:1060BE007B017A00790D125DE27B017A00790E1276
:0B60CE0061E87BFF7A55797B0261E8F6
:096296007BFF7A55797D0261E875
:09629F007BFF7A5579810261E868
:0D624E007F01126196B392007F010260D9BA
:0D625B007F02126196B392007F020260D9AB
:0D6268007F03126196B392007F030260D99C
:10618100D2007F011260D9D2007F021260D9D20001
:056191007F030260D94C
:07000300D285D286D28722CC
:1060D900EF24FE600C14600E2402700EA20092855B
:0B60E90022A200928622A200928722D1
:10619600EF24FE600A14600A24027008A28522A277
:0561A6008622A2872201
:100046000203FBE86480F8E933E83360110460F0EA
:10005600ED33EC337009E8FCE9FDEAFEEBFF220420
:1000660060DED3EB9FEA9EE99DE8C2E78CF0C2F71B
:1000760095F0400CE8CCF8E9CDF9EACEFAEBCFFBE7
:100086001203C685D0F05804700320D5B3E8047077
:10009600075002B2D502040592D5EC0460F7E4CC11
:1000A600C0E0C398F8603B94186008400DD0E0FBB0
:1000B6000203DDE4FBFAC9FC8028E830E406E4C963
:1000C600FBE4CAFCE830E305E4C9CACBFCE8540704
:1000D6006010F8C3E913F9EA13FAEB13FBEC13FC0F
:1000E600D8F130F52FC3E49CFCEF9BFFEE9AFEEDB2
:1000F60099FDD0E0FBEF4E4D4C701222DB0302045B
:1001060002EC2CFCEF33FFEE33FEED33FDED30E772
:10011600EB0203DDEF2BFFEE3AFEED39FDD0E0FBFF
:1001260050130BBB0003020405ED13FDEE13FEEFA7
:0801360013FFEC13FC0203DDD2
:10013E00EC4D6011E8497017ED33EC3304600DE4BB
:10014E00FCFFFEFD22E933E8330470F80203FB12D4
:10015E0003C658046009E4CC2481500628500902D5
:10016E000405284003020402C0E0EB4A7044B98043
:10017E0006D0E0FB0203F1EF4E701CBD8008EBFFD2
:10018E00EAFEE9FD80EBE98DF0A4FEE5F002022720
:10019E00E9CDF9EAFEEBFFEF89F0A4FCE5F0CE899C
:1001AE00F0A42EFFE435F0CD89F0A42DFEE435F059
:1001BE008067EF4E7005BD80D780C3EF8BF0A4AC87
:1001CE00F0EE8BF0A42CFCE435F0F8EF8AF0A42CC2
:1001DE00E5F038FCE433CB8DF0A42CFCE5F03BF8D5
:1001EE00EE8AF0A42CFCE5F038F8E433CF89F0A4C5
:1001FE002CFCE5F038CF3400CE89F0A42FFFE5F0CB
:10020E003EFEE433C98DF0A42EFEE5F039CD8AF022
:10021E00A42FFFE5F03EFEE43DFD33D0E0FB50079A
:10022E000BBB000F020405EC2CFCEF33FFEE33FE8C
:06023E00ED33FD0203DDBB
:10024400020405EC5D046005E8590470030203FB35
:100254001203C6580460F6EC4860F2EC7004FDFE2C
:10026400FF22C860DB2481C85009C398600250068D
:100274000204029850CAF582E9294B4A7005AB8200
:100284000203F175F0007C1A7880C3EF9BEE9AEDBF
:1002940099400DC3EF9BFFEE9AFEED99FDE842F005
:1002A400DC23ACF0D0E0FFD0E0FED0E0FDAB822058
:1002B400E7101BEB60BAEC2CFCEF33FFEE33FEEDE2
:1002C40033FD0203DDE803F830E705C0F075F00004
:1002D400EF2FFFEE33FEED33FD40B830E7C280AAC6
:1002E40074F8CC6480CCC86480C8F582046043C3CD
:1002F400EB9FF5F0EA9E42F0E99D42F0E89C45F060
:1003040060305018E5825FFFE582F42B5582FB5084
:10031400210ABA001D09B90019088016E5825BFBA1
:10032400E582F42F5582FF50090EBE00050DBD0075
:10033400010CC3EB9FF5F0EA9E42F0E99D42F0E820
:0D0344009C45F06007CC4820E701B3EC2297
:1003510075F020800E75F010800575F0087D007E27
:10036100007F003392D530D50312084CEC33401096
:10037100EF33FFEE33FEED33FDEC33FCD5F0ED2230
:0E038100E5F0247EA2D513CC92E7CDCEFF226C
:10038F00EDD2E7CD33EC3392D524814006E4FFFE66
:10039F00FDFC22FCE4CFCECDCC24E0501174FF80C5
:1003AF00EDC3CC13CCCD13CDCE13CECF13CF047062
:0703BF00F030D5DE02084C0E
:10222D00E508241CF582E43400F583E005082290CE
:10223D00001930070390001CE475F0011208E70245
:10224D0006B82000E97F2ED2008018EF540F24909D
:10225D00D43440D4FF30040BEF24BFB41A00500324
:10226D002461FFE50960021509050CE50C700205F6
:10227D000B30070E900019E475F0011208E7EF021C
:10228D0006FE024E987403D2078003E4C207F508D8
:10229D009000191208FEE4F509F50BF50CE509603F
:1022AD00077F2012227080F5750AFFC201C200C29D
:1022BD0002C203C205C206C20812223CFF700D30D5
:1022CD0007057F00122281AF0CAE0B22B4255FC231
:1022DD00D5C20412223CFF24D0B40A00501A75F066
:1022ED000A780930D50508B6FF0106C6A426F620E2
:1022FD00D5047002D20380D924CFB41A00EF500454
:10230D00C2E5D204022573D20180C6D20080C0D2AC
:10231D000280BCD2D580BAD20580B47F2012227043
:10232D002002077401B5090040F112222DFF12227F
:10233D00700222AAD208D206809512222DFB1222FB
:10234D002DFA12222DF94A4B700679717A267BFFF0
:10235D0020022EE509602A7E008E8275830012060A
:10236D00D160060EEE650A70F0C2D5EBC0E0EAC092
:10237D00E0E9C0E0EE1225D4D0E0F9D0E0FAD0E0EB
:10238D00FB1206B8FF60AAEBC0E0EAC0E0E9C0E0CE
:10239D00122270D0E02401F9D0E03400FAD0E0FB35
:1023AD00E50A0460DCD50AD98087D20280A2122505
:1023BD00B660F7E50A700104120410A90A600DE574
:1023CD000A600914F50A12265EEF60F3EA30E7029F
:1023DD00F404C3995079EAF4250A0430E701E404C2
:1023ED00F50A800D1225B660C1EA050A250A120408
:1023FD0010EA900048F030E701E4250A04D50A04FC
:10240D00200501141225D4E4C0E012265E90004888
:10241D00E0601320E70714F0122258802204F0D058
:10242D00E014C0E07F00122258E50A600712224F27
:10243D00150A800B30050312224FD0E00222AAD0DC
:10244D00E00480C41225B6609EE50A0412041090C3
:10245D000048EAF0E50A2005026001042404122573
:01246D00D49A
:10246E0074FF04C0E012265E122258E50A2005020F
:10247E00600312224FD0E0B50AE87F451222629027
:10248E000048E07F2B30E7047F2DF404C0E01222D9
:10249E0070D0E075F00A84C0F0122259D0E01222FA
:1024AE00590222AA791080027908C206C208800851
:1024BE00D2D5790A8004790AC2D5E50A047002F5EC
:1024CE000AE4FAFDFEFF12222DFC7B0820011312F6
:1024DE00222DFD7B1030000A12222DFE12222DFF1E
:1024EE007B20EC3382D592D55013C3E43000069F87
:1024FE00FFE49EFEE42001039DFDE49CFCE4CBF88A
:10250E00C201EC700CCFCECDCCE824F8F870F3807D
:10251E0017C3EF33FFEE33FEED33FDEC33FCEB333D
:10252E00FB994002FB0FD8E9EB300105F8D0E0C46F
:10253E0048B201C0E00AEC4D4E4F78207B0070C2CD
:10254E00EAB50A0040BCC0E01225D6D0F0D0E0209B
:10255E000104C4C0E0C4B201C0F0122259D0F0D5BB
:10256E00F0EB0222AA12090723475324B25823186C
:10257E004C23144224B64F24BE4424BE49232D437B
:10258E0024C45523F14624514523BB47269150239D
:10259E001C2D23202E23432B232423234120267A54
:1025AE002A22DC480000233BE50AB4FF03750A0625
:1025BE0012222DFC12222DFD12222DFE12222DFF93
:1025CE0090004102044D790AA2D52003143005096A
:1025DE00B910020404B9080104A2D5200602500164
