:0300000002517A30
:0C517A00787FE4F6D8FD7581210251C158
:10584A0012384D1257BC1258841259A31259C6C2A3
:0D585A000012582C12366812570F0225015B
:1050ED00000000AA0001904C0000023A00019286D7
:1050FD000008C460000A56E600000474000A5B5AFA
:10510D00000BB08000160BDA000005F0001611CA76
:10511D00001A4D2000305EEA000001A400306C46FC
:10512D00002EC200005F2E46000017C000000000D8
:10513D000000000000000000000000000000000062
:10514D000000000000000000000000000000000052
:10515D000000000000000000000000000000000042
:0D516D000000000000000000000000000035
:055457004201BEEF164A
:10573D00900148E0FCA3E0FDA3E0FEA3E0FF12080A
:01574D006BF0
:10574E00E4FEEF30E704D2828002C282C281EF25EE
:09575E00E0FFD2810EEEB408E96F
:01576700221F
:10592400E4FFFDC281D281A283E433FEEF25E04E81
:06593400FF0DEDB408EDCB
:01593A00224A
:1055DC00E4900009F0A3F0C2A47F9012574EE4FFB0
:1055EC0012574EE4FF12574EE4FF12574E12592435
:1055FC00EFFE900009E04EF0A3E0F0125924900069
:10560C0009E0FEA3E04FFF900009EEF0FEA3EFF0DF
:02561C00D2A416
:01561E002269
:0A59FA00C2A47F0412574ED2A4226B
:0F530100900145EBF0A3EAF0A3E9F0A31208AA8C
:10531000C2A7C2A47F0312574E781012573D7808D7
:1053200012573D900148A3A3A3E0FF12574EE4900B
:10533000014EF0A3F090014CE0FEA3E0FFC390010A
:105340004FE09F90014EE09E502D12592490014550
:10535000E0FBA3E0FAA3E0F990014EE0FCA3E0F546
:10536000828C83EF12071090014FE004F070C6901A
:09537000014EE004F080BED2A45D
:015379002211
:1057BC001259FA1255DC9001BEEEF0A3EFF0E47F23
:1057CC00AAFEFDFC9050ED12089AC312085A600311
:0857DC007F0122D2A47F00220C
:0B342500900137EBF0A3EAF0A3E9F000
:103430001206B8FF90013EF0900137E0FBA3E4755F
:10344000F001120787A9F0FA1206B890013FF0EFD9
:10345000C394814011E0FF9440400BEFF46007906B
:10346000013EE0B4FF3DE4900140F090013DE07585
:10347000F002A4FF900140E0C39FE5F06480F8747F
:103480008098400302366790013AE0FBA3E475F0B0
:103490000112079DA9F0FAE41206FE900140E00433
:1034A000F080C890013FE0C3947F5006E024C0F054
:1034B000800790013FE024BFF090013EE0247FF0C0
:1034C00090013DE06420705FA3E0FF7E007C007D02
:1034D000BE120960A804A905AA06AB07A3E0FFE491
:1034E000FCFDFEEB2FFFEE3AFEED39FDEC38FCE47F
:1034F0007B80FAF9F81207FD9001411208AA905159
:103500002912088A900141E0F8A3E0F9A3E0FAA3A8
:10351000E02FFFEA3EFEE93DFDE83CFC90014CE473
:10352000F0A3748002365890013DE06418705FA3E8
:10353000E0FF7E007C007DBE120960A804A905AAF8
:1035400006AB07A3E0FFE4FCFDFEEB2FFFEE3AFE27
:10355000ED39FDEC38FCE47B48FAF9F81207FD90F0
:1035600001411208AA90511912088A900141E0F80D
:10357000A3E0F9A3E0FAA3E02FFFEA3EFEE93DFD58
:10358000E83CFC90014CE4F0A374480236589001EA
:103590003DE06410705EA3E0FF7E007C007DBE1203
:1035A0000960A804A905AA06AB07A3E0FFE4FCFD97
:1035B000FEEB2FFFEE3AFEED39FDEC38FCE47B200C
:1035C000FAF9F81207FD9001411208AA9051091268
:1035D000088A900141E0F8A3E0F9A3E0FAA3E02F04
:1035E000FFEA3EFEE93DFDE83CFC90014CE4F0A31F
:1035F0007420806490013DE0640C706BA3E0FF7E5A
:10360000007C007DBE120960A804A905AA06AB07CC
:10361000A3E0FFE4FCFDFEEB2FFFEE3AFEED39FDEB
:10362000EC38FCE47B18FAF9F81207FD900141121E
:1036300008AA9050F912088A900141E0F8A3E0F935
:10364000A3E0FAA3E02FFFEA3EFEE93DFDE83CFCE3
:1036500090014CE4F0A37418F090013AE0FBA3E071
:07366000FAA3E0F912530187
:013667002240
:102C4500900021EEF0A3EFF0A3ECF0A3EDF0A3EBE1
:012C5500F08E
:102C5600782F7C007D017BFF7A5179397E007F4198
:102C6600120692900023E0FFA3E0900070CFF0A33D
:102C7600EFF0900025E024E0FFE434FFFEE4FCFDE5
:102C86009000761208AA900026E0B42029900076DB
:102C9600E0FCA3E0FDA3E0FEA3E0FFE47B40FAF93D
:102CA600F81207FD9000761208AA90002E7440F0E4
:102CB600905131022D77900026E0B41829900076C5
:102CC600E0FCA3E0FDA3E0FEA3E0FFE47B24FAF929
:102CD600F81207FD9000761208AA90002E7424F0D0
:102CE600905121022D77900026E0B41028900076AE
:102CF600E0FCA3E0FDA3E0FEA3E0FFE47B10FAF90D
:102D0600F81207FD9000761208AA90002E7410F0B3
:102D1600905111805C900026E0B40C28900076E07B
:102D2600FCA3E0FDA3E0FEA3E0FFE47B0CFAF9F8C8
:102D36001207FD9000761208AA90002E740CF090EF
:102D46005101802D900026E0B4082F900076E0FC1B
:102D5600A3E0FDA3E0FEA3E0FFE47B06FAF9F81288
:102D660007FD9000761208AA90002E7406F0905087
:102D7600F112088A9000721208AA900072E0FCA371
:102D8600E0FDA3E0FEA3E0FFA3E0F8A3E0F9A3E0E3
:102D9600FAA3E02FFFEA3EFEE93DFDE83CFC900089
:102DA6002EE0FB90014CE4F0A3EBF07B017A007976
:102DB6002F125301E490002DF090002EE0FF9000BA
:102DC6002DE0FEC39F4003022EFA742F2EF582E4F7
:102DD6003400F583E090002BF0E4A3F090002CE0A3
:102DE600FFC394084003022EF1900026E0640870A9
:102DF6004190002BE0FEA807088002C313D8FC30E0
:102E0600E0028044900029E0FEA3E0FF6411700315
:102E1600EE6411606DEF64117003EE6411606390EF
:102E26000021E0FEA3E0FFA3E0FCA3E0FD90002963
:102E3600802790002CE0FF90002BE0FEA80708807A
:102E460002C333D8FC30E718900021E0FEA3E0FF70
:102E5600A3E0FCA3E0FD900027E0FAA3E0FB801FBF
:102E6600900029E0FAA3E0FB64117003EA641160A4
:102E760011900021E0FEA3E0FFA3E0FCA3E0FD1219
:102E860054BE900024E004F07006900023E004F0A5
:102E9600900023E0FEA3E0FFC39440EE940150545B
:102EA600900070E0FCA3E0FDC3EF9DFFEE9CFE905A
:102EB6000026E07A00B5072AEAB50626900023EC3C
:102EC600F0A3EDF0900022E004F07006900021E0FF
:102ED60004F0C3900022E094F0900021E0940040BA
:102EE6000A2290002CE004F0022DE290002DE0046E
:042EF600F0022DBFFA
:012EFA0022B5
:0E3EA800900021EEF0A3EFF0A3ECF0A3EDF0FC
:103EB600900035ECF0A3EDF0900028E0FF640C6074
:103EC60012EF6410600DEF64186008EF6420600361
:103ED60002402090013A7401F0A37400F0A37437F5
:103EE600F0A3EFF0123425900028E0FFB4200B90E9
:103EF6000033E4F0A37480F0801EEFB4180B90003A
:103F060033E4F0A37448F0800FEF75F002A4FF903D
:103F16000033E5F0F0A3EFF0E490002FF0A3F0906B
:103F26000033E0FEA3E0FF90002FE0FCA3E0FDC31A
:103F36009FEC9E400302402074372DF582E4340046
:103F4600F583E0FF90002DE4F0A3EFF0E49000315C
:103F5600F0A3F090002EE030E718900021E0FEA3D9
:103F6600E0FFA3E0FCA3E0FD900029E0FAA3E0FB5C
:103F7600801F90002BE0FAA3E0FB64117003EA6453
:103F8600116011900021E0FEA3E0FFA3E0FCA3E096
:103F9600FD1254BE90002EE025E0F090002DE03397
:103FA600F0900024E004F07006900023E004F09006
:103FB6000035E0FEA3E0FFC3900024E09FFD9000E3
:103FC60023E09EFC900028E07A00B5051CEAB504C3
:103FD60018900023EEF0A3EFF0900022E004F070BA
:103FE60028900021E004F08020900032E004F07078
:103FF60006900031E004F0C3900032E0940890008F
:1040060031E094005003023F59900030E004F07014
:0A4016000690002FE004F0023F25A1
:01402000227D
:103B9A00900014EEF0A3EFF0A3ECF0A3EDF0A3EB8A
:073BAA00F0A3EAF0A3E9F02B
:103BB100E4900020F0900018E0FBA3E0FAA3E0F904
:103BC1001206B8FF7003023D21900020E06003025D
:103BD1003C81EFD3948040057401F080D8900016A9
:103BE100E0FCA3E0FDD39440EC94014003023D21AD
:103BF1001206B8FB90001BE0900026F090001CE03C
:103C0100FFA3E0900027CFF0A3EFF090001EE0FFAC
:103C1100A3E0900029CFF0A3EFF0900014E0FEA301
:103C2100E0FF122C45900019E475F001120787900E
:103C3100001BE0FFB40808900015E024068009EF9E
:103C4100C313FF900015E02FF0900014E03400F052
:103C5100D3900015E094F0900014E094005003021A
:103C61003BB690001974FFF5F012078790001BE036
:103C7100FF900017E02FF0900016E03400023D168F
:103C8100E4900020F0900016E0FCA3E0FDD3944006
:103C9100EC94014003023D21900018E0FBA3E0FAFF
:103CA100A3E0F9A3E0900028F090001CE0FFA3E05E
:103CB100900029CFF0A3EFF090001EE0FFA3E09069
:103CC100002BCFF0A3EFF0900014E0FEA3E0FF1271
:103CD1003EA8900019E475F00212078790001BE0DE
:103CE100FF7E00900015E02FF0900014E03EF0D32D
:103CF100A3E094F0900014E094005003023BB690CE
:103D0100001974FF75F0FE120787900017E02FF07D
:103D1100900016E03EF0E4900014F0A3F0023BB6F0
:013D2100227F
:101A8E000000000000000000000000000000000048
:101A9E000000000000001FCC000C00000000000041
:101AAE0000000800300060000800300060000000F8
:101ABE00022003FC1E20022003FC1E200220000038
:101ACE0000000E1811043FFF10840C780000000077
:101ADE000F0010840F3800C00778188400780000BB
:101AEE0000780F8410C411240E9800E400840008BE
:101AFE0008006800700000000000000000000000F8
:101B0E0000000000000007E018182004400200004A
:101B1E00000040022004181807E00000000000003A
:101B2E000240024001800FF001800240024000009E
:101B3E000080008000800FF8008000800080000090
:101B4E000001000D000E000000000000000000006B
:101B5E0000000080008000800080008000800080F7
:101B6E000000000C000C000000000000000000004F
:101B7E00000000060018006001800600180020001A
:101B8E00000007F0080810041004080807F0000011
:101B9E000000080408041FFC0004000400000000FC
:101BAE0000000E0C10141024104411840E0C0000B2
:101BBE0000000C1810041104110412880C7000009F
:101BCE00000000E00320042408241FFC0024000071
:101BDE0000001F981084110411041088107000006A
:101BEE00000007F008881104110418880070000026
:101BFE0000001C00100010FC13001C001000000060
:101C0E0000000E3811441084108411440E38000068
:101C1E0000000700088C10441044088807F00000EC
:101C2E00000000000000030C030C00000000000088
:101C3E00000000000001010600000000000000008E
:101C4E00000000800140022004100808100400006B
:101C5E000220022002200220022002200220000088
:101C6E00000010040808041002200140008000004B
:101C7E0000000E001200100C106C10800F000000FF
:101C8E0003E00C1813E4142417C4082807D000002E
:101C9E000004003C03C41C40074000E4001C000488
:101CAE0010041FFC1104110411040E8800700000B2
:101CBE0003E00C1810041004100410081C1000008F
:101CCE0010041FFC100410041004080807F0000094
:101CDE0010041FFC1104110417C41004081800008E
:101CEE0010041FFC1104110017C0100008000000A2
:101CFE0003E00C181004100410441C78004000007F
:101D0E0010041FFC10840080008010841FFC10043F
:101D1E000000100410041FFC10041004000000004A
:101D2E0000030001100110011FFE10001000000042
:101D3E0010041FFC110403801464181C100400000E
:101D4E0010041FFC1004000400040004000C00002A
:101D5E0010041FFC1F0000FC1F001FFC10040000DD
:101D6E0010041FFC0C04030000E010181FFC1000F0
:101D7E0007F00808100410041004080807F000000B
:101D8E0010041FFC10841080108010800F000000C3
:101D9E0007F0081810241024101C080A07F200007F
:101DAE0010041FFC1104110011C011300E0C0004A0
:101DBE0000000E1C11041084108410441C38000006
:101DCE001800100010041FFC100410001800000072
:101DDE0010001FF810040004000410041FF8100077
:101DEE0010001E0011E0001C007013801C0010007B
:101DFE001FC0103C00E01F0000E0103C1FC00000A0
:101E0E001004180C163401C001C01634180C10043E
:101E1E0010001C00130400FC13041C001000000032
:101E2E000804101C1064108413041C041018000005
:101E3E000000000000007FFE400240024002000051
:101E4E00000030000C0003800060001C0003000046
:101E5E0000004002400240027FFE00000000000031
:101E6E000000000020004000400040002000000064
:101E7E00000100010001000100010001000100014C
:101E8E0000004000400020000000000000000000A4
:101E9E0000000098012401440144014400FC0004A8
:101EAE0010001FFC0088010401040088007000006F
:101EBE000000007000880104010401040088000085
:101ECE000000007000880104010411081FFC0004CA
:101EDE00000000F8014401440144014400C8000020
:101EEE000000010401040FFC11041104110018007C
:101EFE00000000D601290129012901C901060000AF
:101F0E0010041FFC008401000100010400FC000409
:101F1E0000000104190419FC000400040000000074
:101F2E000000000300010101190119FE000000006C
:101F3E0010041FFC0024004001B4010C0104000039
:101F4E000000100410041FFC000400040000000038
:101F5E00010401FC0104010001FC0104010000FC6C
:101F6E00010401FC008401000100010400FC0004D6
:101F7E00000000F8010401040104010400F800004F
:101F8E00010101FF008501040104008800700000BA
:101F9E0000000070008801040104010501FF00012A
:101FAE000104010401FC0084010401000180000011
:101FBE00000000CC0124012401240124019800001A
:101FCE0000000100010007F80104010400000000F8
:101FDE00010001F8000400040004010801FC0004E3
:101FEE00010001800170000C0010016001800100F1
:101FFE0001F0010C003001C00030010C01F00100B5
:10200E0000000104018C00740170018C01040000B9
:10201E00010101810171000E0018016001800100B3
:10202E0000000184010C013401440184010C000004
:10203E00000000000000000001003EFC40024002D3
:10204E000000000000000000FFFF00000000000084
:10205E000000400240023EFC0100000000000000B3
:10206E000000600080008000400040002000200042
:0D59D600C295C2948FB0C296D296D2942290
:0C58F300E0FF7E001258FFE0FEA3E0FF83
:0D58FF00D295C2948FB0C296D296D2942258
:0759B5001259BC7D017F19AE
:0A59BC001259D6AE04AF050258FFE1
:105951003ECF2401FDE43FFCE0FEA3E0FF1256A68A
:055961007F220259D66F
:035A04000258FF46
:0B569B00E0FEA3E0FFA3E0FCA3E0FDA5
:1056A600AB05AA048F828E83E583FD7C007F021200
:1056B60059BCAF82AD07FC7F031259BCEAFD7C00E2
:0F56C6007F061259BCAF03AD07FC7F070259BC2A
:0B5768007C007F1F1259BC7F057E00F3
:10577300E4FDFCC3ED9FEC9E5015E4FBFA0BBB006C
:0F578300010ABA04F8BB75F50DBD00010C80E4F6
:0157920022F4
:10384D007F327E001257737D017C00E4FF1259BC5C
:10385D007F32FE1257739000477F64125773E582D3
:10386D00644745836003023A01FDFC7FEA1259BCAF
:10387D007D207FEB1259BC7D0C7FEC1259BC7DC4B1
:10388D007FED1259BC7D407FE81259BC7D387FE930
:10389D001259BC7D017FF11259BC7D107FF2125976
:1038AD00BC7DA37F271259BCFD7F401259BC7F41BF
:1038BD001259BC0D7F421259BC7D127F431259BC67
:1038CD007D107F441259BC7D267F451259BC7D0861
:1038DD007F461259BC7D537F471259BC7D027F48EC
:1038ED001259BC7D157F491259BC7D197F4A125959
:1038FD00BC7F4B1259BC7D167F4C1259BC7D197F74
:10390D00501259BC7D2F7F511259BC7D2D7F521203
:10391D0059BC7D3E7F531259BC0D7F541259BC7F4B
:10392D00551259BC7D2C7F561259BC7D777F57128D
:10393D0059BC7D097F581259BC7D067F591259BC5F
:10394D007F5A1259BC7D0A7F5B1259BC7D1D7F5C6D
:10395D001259BC7DCC7F5D1259BC7D1B7F1B12594A
:10396D00BC7D017F1A1259BC7D2F7F241259BC7D5D
:10397D00577F251259BC7D977F231259BC7D367F09
:10398D00181259B57D887F1F1259BC7F05FE12573D
:10399D00737D801257687D901257687DD0125768DD
:1039AD007D057C007F171259BCE4FD7F361259BC92
:1039BD007D387F281259BC7F28FE1257737D3C7CC1
:1039CD00001259BCE4FD7F021259BC7F031259BC91
:1039DD007F041259BC7DEF7F051259BCFD7F061285
:1039ED0059BC7F071259BC0D7F081259BC7D3F7F12
:0B39FD00091259B57F327E000257739B
:084EEB00900021EEF0A3EFF0AE
:104EF300A31208B600000000E4FDFCFFFE1256A654
:104F03001259619000231208B600000000E47F40AC
:104F13007E01FDFC900023E0F8A3E0F9A3E0FAA3EF
:104F2300E0FBC312085A506D9000271208B6000028
:104F33000000E47FF0FEFDFC900027E0F8A3E0F919
:104F4300A3E0FAA3E0FBC312085A502790002112F2
:104F530058F3900027E0FCA3E0FDA3E0FEA3E024C8
:104F630001FFE43EFEE43DFDE43CFC900027120813
:104F7300AA80BF900023E0FCA3E0FDA3E0FEA3E032
:104F83002401FFE43EFEE43DFDE43CFC90002312DB
:054F930008AA024F1006
:014F980022F6
:1054A800900027E0FEA3E0FFA3E0FCA3E0FD90004E
:0654B8002FE0FAA3E0FB67
:1054BE0090016AEAF0A3EBF0900168EEF0A3EFF032
:1054CE00C394F0EE94005021C3ED9440EC9401503F
:1054DE001890016812595990016AE0FF7E00125A25
:0A54EE0004E0FEA3E0FF125A0422BE
:1031B100900029ECF0A3EDF0900027EEF0A3EFF0E2
:0831C10090002BEAF0A3EBF0F3
:1031C900D3EF9BEE9A402790002BE0FEA3E0FF90FF
:1031D9000035EEF0A3EFF0900027E0FDA3E09000AA
:1031E9002BCDF0A3EDF0900027EEF0A3EFF09000C7
:1031F9002DE0FEA3E0FF900029E0FCA3E0FDD39FB2
:10320900EC9E4018900035EEF0A3EFF090002DEC05
:10321900F0A3EDF0900029EEF0A3EFF0900027E085
:10322900FEA3E0FFC390002CE09FFF90002BE09EDF
:10323900900031F0FAA3EFF0FB900029E0FEA3E043
:10324900FFC390002EE09FFF90002DE09E90003379
:10325900F0A3EFF0EB4A70271254A890002AE0047B
:10326900F07006900029E004F0900029E0FEA3E048
:10327900FFC390002EE09F90002DE09E50DA22902F
:103289000033E07002A3E070271254A8900028E0F0
:1032990004F07006900027E004F0900027E0FEA3F8
:1032A900E0FFC390002CE09F90002BE09E50DA22B3
:1032B900900033E0FEA3E0FF900031E0FCA3E0FDC5
:1032C900D39FEE6480F8EC6480985003023374EF66
:1032D90025E0FFEE33FEC3EF9DFFEE9C900035F035
:1032E900A3EFF090002BE0FCA3E0FD900027E0FEA7
:1032F900A3E0FF6D7002EE6C70030234211254B02A
:10330900900028E004F07006900027E004F0D390C4
:103319000036E09400900035E0648094804030905D
:10332900002AE004F07006900029E004F0900032D1
:10333900E025E0FD900031E033FC900034E025E029
:10334900FF900033E033FEC3EF9DFFEE9C800C90AD
:103359000034E025E0FF900033E033FE900036E0D2
:103369002FF0900035E03EF00232EC900032E0257B
:10337900E0FF900031E033FE900033E0FCA3E0FD74
:10338900C3EF9DFFEE9CA3F0A3EFF090002DE0FEAC
:10339900A3E0FF900029E0FCA3E0FD6F7002EC6E52
:1033A9006076900027E0FEA3E0FF1254B690002A51
:1033B900E004F07006900029E004F0D3900036E0B4
:1033C9009400900035E0648094804030900028E0BB
:1033D90004F07006900027E004F0900032E025E048
:1033E900FD900031E033FC900034E025E0FF9000CF
:1033F90033E033FEC3EF9DFFEE9C800C900034E078
:1034090025E0FF900033E033FE900036E02FF09086
:0B3419000035E03EF00233941254A88E
:013424002285
:1048C50090015BEEF0A3EFF090015FEBF090015DDE
:0548D500ECF0A3EDF082
:1048DA00900166ECF0A3EDF090015FE024E0F0E4D3
:1048EA00F990015FE075F010A4248EF582E5F034AA
:1048FA001AF583E58229F582E43583F583E49390FA
:10490A000164F0E4A3F0900164E030E71890015BE1
:10491A00E0FEA3E0FFA3E0FCA3E0FD900160E0FA63
:10492A00A3E0FB801F900162E0FAA3E0FB64117030
:10493A0003EA6411601190015BE0FEA3E0FFA3E0CB
:10494A00FCA3E0FD1254BE900164E025E0F0900162
:10495A005EE004F0700690015DE004F0C390015C33
:10496A00E094F090015BE094005056900166E0FEFE
:10497A00A3E0FFC390015EE09FFD90015DE09EFC15
:10498A00ED64104C7023EEF0A3EFF090015CE004AC
:10499A00F0700690015BE004F0C390015CE0944083
:1049AA0090015BE09401401022900165E004F0E080
:1049BA00C39408500302491009E9641060030248CD
:0149CA00EB01
:0149CB0022C9
:104E3500900150EEF0A3EFF0A3ECF0A3EDF0A3EB9F
:074E4500F0A3EAF0A3E9F07D
:104E4C00900154E0FBA3E475F00112079DA9F0FA60
:104E5C001206B8FB900152E0FCA3E0FD900157E074
:104E6C00FFA3E0900160CFF0A3EFF0900159E0FFB9
:104E7C00A3E0900162CFF0A3EFF0900150E0FEA30D
:104E8C00E0FF1248C5C3900151E094E8900150E056
:104E9C009400500AA3E02408F09001508020C390A5
:104EAC000153E09430900152E09401E49001505091
:104EBC0013F0A3F0900153E02410F0900152E03471
:104ECC0000F08007F0A3F0A3F0A3F0900154E0FBF6
:0E4EDC00A3E0FAA3E0F91206B86003024E4C00
:014EEA0022A5
:10456200900002EEF0A3EFF0A3ECF0A3EDF0A3EACB
:04457200F0A3EBF0D7
:10457600E490000EF0A3F09000141208B6000000BC
:104586000090000212569B125961C2A47F03125773
:104596004E90000AE0FCA3E0FDA3E0FEA3E0FF7856
:1045A6001012086B12574E90000AE0FCA3E0FDA320
:1045B600E0FEA3E0FF780812086B12574E90000A3F
:1045C600A3A3A3E0FF12574E9000101208B60000F6
:1045D6000000900008E0FEA3E0FFE4FCFD90001060
:1045E600E0F8A3E0F9A3E0FAA3E0FBC312085A40FF
:1045F6000302469B9000141208B6000000009000CB
:1046060006E0FEA3E0FFE4FCFD900014E0F8A3E062
:10461600F9A3E0FAA3E0FBC312085A503C1259244E
:1046260090000FEFF012592490000EEFF07E00126A
:1046360058FFA3E0FF1258FF900014E0FCA3E0FD32
:10464600A3E0FEA3E02401FFE43EFEE43DFDE43CDE
:10465600FC9000141208AA80A5900010A3A3E0FE07
:10466600A3E0FF900005E02FFF900004E090000219
:10467600125951900010E0FCA3E0FDA3E0FEA3E078
:104686002401FFE43EFEE43DFDE43CFC90001012F4
:0746960008AA0245D8D2A4D6
:01469D0022FA
:104BC800900011EEF0A3EFF0A3ECF0A3EDF0A3EA50
:044BD800F0A3EBF06B
:104BDC0090001F1208B60000000090001112569BA6
:104BEC0012596190001B1208B600000000900017CB
:104BFC00E0FEA3E0FFE4FCFD90001BE0F8A3E0F96D
:104C0C00A3E0FAA3E0FBC312085A4003024CA7909E
:104C1C00001F1208B600000000900015E0FEA3E093
:104C2C00FFE4FCFD90001FE0F8A3E0F9A3E0FAA379
:104C3C00E0FBC312085A50279000191258F3900049
:104C4C001FE0FCA3E0FDA3E0FEA3E02401FFE43E93
:104C5C00FEE43DFDE43CFC90001F1208AA80BA90D3
:104C6C00001BA3A3E0FEA3E0FF900014E02FFF9035
:104C7C000013E090001112595190001BE0FCA3E0CE
:104C8C00FDA3E0FEA3E02401FFE43EFEE43DFDE4D1
:0B4C9C003CFC90001B1208AA024BF920
:014CA70022EA
:10296300900010EAF0A3EBF090000CEEF0A3EFF070
:10297300A3ECF0A3EDF0C006C007A3E0FEA3E0FFC5
:1029830090000CE0FAA3E02FFBEA3EFAA3E0FFA3DA
:10299300E090002DCFF0A3EFF0900014E0FFA3E050
:1029A30090002FCFF0A3EFF0D007D0061231B190F3
:1029B300000DE02401FF90000CE03400FEC006C0CF
:1029C3000790000FE02401FD90000EE03400FC901E
:1029D3000010E0FEA3E0FF90000CE0FAA3E02FFF5D
:1029E300EA3ECF24FFFBEF34FFFAA3E0FEA3E0248B
:1029F30001FFE43E90002DF0A3EFF0900014E0FF00
:102A0300A3E090002FCFF0A3EFF0D007D006123150
:102A1300B190000CE0FAA3E0FBFFAE02C006C007D2
:102A2300A3E0FCA3E0FD900012E0FEA3E0FF900012
:102A33000EE0F8A3E02FFFE83E90002DF0A3EFF0A7
:102A4300900014E0FFA3E090002FCFF0A3EFF0D0AD
:102A530007D0061231B190000DE02401FB90000C69
:102A6300E03400FAAF03FEC006C00790000FE02475
:102A730001FD90000EE03400FC900012E0FEA3E0A4
:102A8300FF90000EE0F8A3E02FFFE83ECF24FFCF36
:102A930034FF90002DF0A3EFF0900014E0FFA3E0CB
:102AA30090002FCFF0A3EFF0D007D0061231B190F2
:102AB3000012E0FEA3E0FF90000FE02FFD90000E58
:102AC300E03EFC900010E0FEA3E0FF90000CE0FA73
:102AD300A3E02FFBEA3EFA900012E0FEA3E0FF9092
:102AE300000EE0F8A3E02FFFE83E90002DF0A3EFE7
:102AF300F0900014E0FFA3E090002FCFF0A3EFF0DD
:102B030090000CE0FEA3E0FF1231B190000DE02431
:102B130001FF90000CE03400FEC006C007900012D5
:102B2300E0FEA3E0FF90000FE02FFF90000EE03ED9
:102B3300CF24FFFDEF34FFFC900010E0FEA3E0FF85
:102B430090000CE0FAA3E02FFFEA3ECF24FFFBEF57
:102B530034FFFA900012E0FEA3E0FF90000EE0F8CD
:102B6300A3E02FFFE83ECF24FFCF34FF90002DF0EA
:102B7300A3EFF0900014E0FFA3E090002FCFF0A3A9
:102B8300EFF0D007D0061231B1900010E0FEA3E0C1
:102B9300FF90000DE02FFB90000CE03EFAAF03FE28
:102BA300C006C00790000EE0FCA3E0FD900012E019
:102BB300FEA3E0FF90000EE0F8A3E02FFFE83E90B5
:102BC300002DF0A3EFF0900014E0FFA3E090002F9E
:102BD300CFF0A3EFF0D007D0061231B1900010E090
:102BE300FEA3E0FF90000DE02FFF90000CE03ECF2E
:102BF30024FFFBEF34FFFAAF03FEC006C0079000CB
:102C03000FE02401FD90000EE03400FC900012E080
:102C1300FEA3E0FF90000EE0F8A3E02FFFE83ECF15
:102C230024FFCF34FF90002DF0A3EFF0900014E0C9
:102C3300FFA3E090002FCFF0A3EFF0D007D0060260
:022C430031B1AD
:10545C005F016CFF5884FF4AD1FF1214000000005A
:10546C000000000000000000000000000000000030
:0A547C00000041018BD041018C902B
:10586700EF7803C333CE33CED8F9FFE4FDFCC3EDA5
:0C5877009FEC9E50070DBD00010C80F25C
:015883002202
:1058D900E4FEEF30E704D2828002C282EF25E0FFC6
:0958E900C281D2810EEEB408E97F
:0158F2002293
:10554700E4FDFBFAC281C282C2A61258D97F067E49
:1055570000125867C2817F017E00125867D281C24C
:1055670081E4FDEB25E0FBEA33FAC281D281308387
:10557700050BBB00010A0DEDB410E8EAC4F854F0BE
:0D558700C868FAEBC4540F48D2A6AE02FF6C
:0155940022F4
:023A0800A9070C
:103A0A00E4900034F0A3F0900028F0A3F0AF011284
:103A1A005547AC06AD07900029E025E0FF90002845
:103A2A00E033FE742A2FF58274003EF583ECF0A38E
:103A3A00EDF0900029E004F07006900028E004F010
:103A4A00C3900029E09405900028E0940040BEE469
:103A5A00900028F0A3F0900028E0FEA3E0FFC394B2
:103A6A0004EE94004003023B34EF2401FFE43EAD30
:103A7A0007FCC3ED9405EC94004003023B20ED25BE
:103A8A00E0FFEC33FE742A2FF58274003EF583E0E2
:103A9A00FAA3E0FB900029E025E0FF900028E0333C
:103AAA00FE742A2FF58274003EF583E0FEA3E0FF40
:103ABA00D39BEE9A4058900036EEF0A3EFF0ED2536
:103ACA00E0FFEC33FE742A2FF58274003EF583E0A2
:103ADA00FAA3E0FB900029E025E0FF900028E033FC
:103AEA00FE742A2FF58274003EF583EAF0A3EBF008
:103AFA00900036E0FAA3E0FBED25E0FFEC33FE741C
:103B0A002A2FF58274003EF583EAF0A3EBF00DBD8F
:103B1A0000010C023A7C900029E004F06003023AAA
:103B2A0060900028E004F0023A60E4900034F0A3C8
:103B3A00F0900028F0A304F0900028E0FEA3E0FF34
:103B4A00C39404EE94005032EF25E0FFEE33FE7486
:103B5A002A2FF58274003EF583E0FEA3E0FF900071
:103B6A0035E02FF0900034E03EF0900029E004F0B8
:103B7A0070C6900028E004F080BE900034E0FEA3F6
:0F3B8A00E0FF7C007D03120732A3EEF0A3EFF003
:013B99002209
:0B54F800900020EBF0A3EAF0A3E9F025
:1055030090018BE0FF123A08900026EEF0A3EFF033
:1055130090018CE0FF123A08900026E0F9A3E0FD29
:10552300900020E0FBA3E0FAA3E0C98DF01207DEB0
:10553300900023E0FBA3E0FAA3E0F9EE8FF012075B
:03554300DE7F0107
:015546002242
:1042DC009000157401F0A37401F0A3747BF07B01C2
:0442EC007A01797961
:0B42F000900012EBF0A3EAF0A3E9F04D
:1042FB009000237401F0A37400F0A3741AF07B01F7
:10430B007A0079181254F8EF7002FF229000237490
:10431B0001F0A37400F0A3741EF07B017A00791CEA
:10432B001254F8EF7002FF22900018E0FEA3E0FF9A
:10433B0090001CE0FCA3E0FDD39FEC9E500EED24FF
:10434B0032FDE43CFCC3EF9DEE9C402A90001CE048
:10435B00FEA3E0FF900018E0FCA3E0FDD39FEC9ED2
:10436B00400302441EED2432FDE43CFCC3EF9DEE02
:10437B009C400302441E90001AE0FEA3E0FF900055
:10438B001EE0FCA3E0FDD39FEC9E500EED2432FD0E
:10439B00E43CFCC3EF9DEE9C402490001EE0FEA38A
:1043AB00E0FF90001AE0FCA3E0FDD39FEC9E50636E
:1043BB00ED2432FDE43CFCC3EF9DEE9C5055900088
:1043CB001CE0FEA3E0FF900019E02FFF900018E027
:1043DB003EC313F9EF13FF900012E0FBA3E0FAA327
:1043EB00E0C98FF01207DE90001EE0FEA3E0FF9005
:1043FB00001BE02FFF90001AE03EC313F9EF13FFF1
:10440B00900015E0FBA3E0FAA3E0C98FF01207DEE2
:05441B007F01227F007B
:014420002279
:10442100E4900010F07D047C0174FFFBFA7F047EB0
:014431000189
:10443200900021EEF0A3EFF0900025EAF0A3EBF05C
:10444200900023ECF0A3EDF0900021E0FAA3E0FB52
:1044520024F4FFEA34FFFEC007EB240DFBE43AFA32
:10446200A3E0FFA3E090002DCFF0A3EFF090002592
:10447200E0FFA3E090002FCFF0A3EFF0D0071231BE
:10448200B1900021E0FAA3E0FBFFAE02C006C00734
:10449200900024E024F4FD900023E034FFFCE0FED1
:1044A200A3E0240DFFE43E90002DF0A3EFF0900076
:1044B20025E0FFA3E090002FCFF0A3EFF0D007D0CC
:1044C200061231B1900022E02401FF900021E03475
:1044D20000FE900024E02401FD900023E03400FC63
:1044E200900025E0FAA3E0FB1254BE900022E024E3
:1044F200FFFF900021E034FFFE900024E02401FD44
:10450200900023E03400FC900025E0FAA3E0FB12C7
:1045120054BE900022E02401FF900021E03400FE0E
:10452200900024E024FFFD900023E034FFFC900083
:1045320025E0FAA3E0FB1254BE900022E024FFFF24
:10454200900021E034FFFE900024E024FFFD900063
:1045520023E034FFFC900025E0FAA3E0FB0254BE06
:10520600900004EEF0A3EFF0A3ECF0A3EDF0A3EA18
:10521600F0A3EBF01254BE900005E02401FF9000CD
:1052260004E03400FE900006E0FCA3E0FDA3E0FAF3
:10523600A3E0FB1254BE900004E0FEA3E0FF900042
:1052460007E02401FD900006E03400FC900008E031
:10525600FAA3E0FB1254BE900005E02401FF900083
:1052660004E03400FE900007E02401FD900006E013
:0E5276003400FC900008E0FAA3E0FB0254BEF6
:104AD10030A503024B9FEF60061242DC024B7512B8
:104AE10042DCEF7003024B75900179E0FCA3E0FD1D
:104AF100E412035690017EE0F8A3E0F9A3E0FAA3E3
:104B0100E0FB12013EC004C005C006C0079001864B
:104B1100E0FCA3E0FDEC120356D003D002D001D09B
:104B21000012004D12038F900179EEF0A3EFF0A374
:104B3100E0FCA3E0FDE4120356900182E0F8A3E05B
:104B4100F9A3E0FAA3E0FB12013EC004C005C006D0
:104B5100C007900188E0FCA3E0FDEC120356D003EE
:104B6100D002D001D00012004D12038F90017BEED4
:104B7100F0A3EFF090017DE020E74474C0F09001D4
:104B810079E0FFA3E0900175CFF0A3EFF090017BF6
:104B9100E0FFA3E0900177CFF0A3EFF08021900137
:104BA1007DE030E705547FF08015E4900175F0A3B6
:104BB100F0A3F0A3F074FFA3F0A3F0A3F0A3F0908F
:074BC100017DE05480FF229A
:10121400E4900010F0F074FFFFFE124EEB7B007AB6
:10122400F87D3C7C007F3C7E00124432E490017DDA
:10123400F0A31208B60000000090016FA3E0FAA327
:10124400E0F5828A837F0112095E90017DE0FF54FC
:10125400C0FEBE40E4EF54BFF0900179E0FEA3E08D
:10126400FF900010E0FD25E025E02400F582E43441
:1012740000F583EEF0A3EFF090017BE0FEA3E0FF26
:10128400ED25E025E02402F582E43400F583EEF058
:10129400A3EFF0900010E004F0E024FE602314605B
:1012A4003214604D2403709174FFFBFA7D3C7C0082
:1012B4007F3C7E001244327B007AF87D3C7C0080C7
:1012C400297D3C7C0012442A7B007AF87D047C0151
:1012D4000214FD74FFFBFA7D047C017F3C7E001246
:1012E40044327B007AF87D047C017F047E0102187D
:1012F400F7900004E0FEA3E0FFC3900001E09FFF2D
:10130400900000E09EFE1259E3EE3395E0FDFC9060
:1013140000151208AA900006E0FEA3E0FFC39000A7
:1013240003E09FFF900002E09EFE1259E3EE339526
:10133400E0FDFC9000191208AA900015E0FCA3E05F
:10134400FDA3E0FEA3E0FFA804A905AA06FB12077B
:10135400FD9000151208AA900019E0FCA3E0FDA37B
:10136400E0FEA3E0FFA804A905AA06FB1207FD906E
:1013740000191208AA900019E0FCA3E0FDA3E0FE06
:10138400A3E0FF900015E0F8A3E0F9A3E0FAA3E0DE
:101394002FFFEA3EFEE93DFDE83CFCE41203511256
:1013A4004F9D12038F900011EEF0A3EFF090000C0C
:1013B400E0FEA3E0FFC3900009E09FFF900008E077
:1013C4009EFE1259E3EE3395E0FDFC9000151208E1
:1013D400AA90000EE0FEA3E0FFC390000BE09FFF85
:1013E40090000AE09EFE1259E3EE3395E0FDFC9076
:1013F40000191208AA900015E0FCA3E0FDA3E0FE8A
:10140400A3E0FFA804A905AA06FB1207FD90001596
:101414001208AA900019E0FCA3E0FDA3E0FEA3E0FB
:10142400FFA804A905AA06FB1207FD9000191208DB
:10143400AA900019E0FCA3E0FDA3E0FEA3E0FF9066
:101444000015E0F8A3E0F9A3E0FAA3E02FFFEA3ED9
:10145400FEE93DFDE83CFCE4120351124F9D1203EA
:101464008F900013EEF0A3EFF0900011E0FCA3E0E6
:10147400FDE4120356C004C005C006C00790001363
:10148400E0FCA3E0FDE4120356A804A905AA06ABF8
:1014940007D007D006D005D00412024790001D12D1
:1014A40008AA7F337E337D737C3F90001DE0F8A350
:1014B400E0F9A3E0FAA3E0FB1202E440317F667E88
:1014C400667D867C3F90001DE0F8A3E0F9A3E0FA76
:1014D400A3E0FB1202E460025014900011E07002D9
:1014E400A3E0600A900013E07002A3E070121244BB
:1014F400217B007AF87D3C7C007F3C7E000218F75B
:10150400900008E0FEA3E0FFC3900001E09FFF907D
:101514000000E09EFE1259E3EE3395E0FDFC9000DE
:10152400151208AA90000AE0FEA3E0FFC39000038E
:10153400E09FFF900002E09EFE1259E3EE3395E037
:10154400FDFC9000191208AA900015E0FCA3E0FD30
:10155400A3E0FEA3E0FFA804A905AA06FB1207FD69
:101564009000151208AA900019E0FCA3E0FDA3E086
:10157400FEA3E0FFA804A905AA06FB1207FD90003C
:10158400191208AA900019E0FCA3E0FDA3E0FEA351
:10159400E0FF900015E0F8A3E0F9A3E0FAA3E02F40
:1015A400FFEA3EFEE93DFDE83CFCE4120351124F24
:1015B4009D12038F900011EEF0A3EFF090000CE069
:1015C400FEA3E0FFC3900005E09FFF900004E09EAF
:1015D400FE1259E3EE3395E0FDFC9000151208AAC3
:1015E40090000EE0FEA3E0FFC3900007E09FFF9091
:1015F4000006E09EFE1259E3EE3395E0FDFC9000F8
:10160400191208AA900015E0FCA3E0FDA3E0FEA3D4
:10161400E0FFA804A905AA06FB1207FD9000151215
:1016240008AA900019E0FCA3E0FDA3E0FEA3E0FFFC
:10163400A804A905AA06FB1207FD9000191208AA1E
:10164400900019E0FCA3E0FDA3E0FEA3E0FF9000FE
:1016540015E0F8A3E0F9A3E0FAA3E02FFFEA3EFEC9
:10166400E93DFDE83CFCE4120351124F9D12038F47
:10167400900013EEF0A3EFF0900011E0FCA3E0FD66
:10168400E4120356C004C005C006C007900013E06E
:10169400FCA3E0FDE4120356A804A905AA06AB07BF
:1016A400D007D006D005D00412024790001D1208BE
:1016B400AA7F337E337D737C3F90001DE0F8A3E066
:1016C400F9A3E0FAA3E0FB1202E4401D7F667E6604
:1016D4007D867C3F90001DE0F8A3E0F9A3E0FAA327
:1016E400E0FB1202E4601440121244217B007AF8F9
:1016F4007D3C7C007F3C7E000218F7900008E0FEF1
:10170400A3E0FFC3900005E09FFF900004E09EFE6D
:101714001259E3EE3395E0FDFC9000151208AA90EF
:10172400000AE0FEA3E0FFC3900007E09FFF9000E3
:1017340006E09EFE1259E3EE3395E0FDFC9000199D
:101744001208AA900015E0FCA3E0FDA3E0FEA3E0CC
:10175400FFA804A905AA06FB1207FD9000151208AC
:10176400AA900019E0FCA3E0FDA3E0FEA3E0FFA81B
:1017740004A905AA06FB1207FD9000191208AA90F5
:101784000019E0FCA3E0FDA3E0FEA3E0FF90001538
:10179400E0F8A3E0F9A3E0FAA3E02FFFEA3EFEE9B4
:1017A4003DFDE83CFCE4120351124F9D12038F905F
:1017B4000011EEF0A3EFF090000CE0FEA3E0FFC3F5
:1017C400900001E09FFF900000E09EFE1259E3EEBE
:1017D4003395E0FDFC9000151208AA90000EE0FE7F
:1017E400A3E0FFC3900003E09FFF900002E09EFE91
:1017F4001259E3EE3395E0FDFC9000191208AA900B
:101804000015E0FCA3E0FDA3E0FEA3E0FFA804A90B
:1018140005AA06FB1207FD9000151208AA900019EC
:10182400E0FCA3E0FDA3E0FEA3E0FFA804A905AA51
:1018340006FB1207FD9000191208AA900019E0FC9B
:10184400A3E0FDA3E0FEA3E0FF900015E0F8A3E011
:10185400F9A3E0FAA3E02FFFEA3EFEE93DFDE83CF0
:10186400FCE4120351124F9D12038F900013EEF00B
:10187400A3EFF0900011E0FCA3E0FDE4120356C0D6
:1018840004C005C006C007900013E0FCA3E0FDE41B
:10189400120356A804A905AA06AB07D007D006D0A0
:1018A40005D00412024790001D1208AA7F337E332C
:1018B4007D737C3F90001DE0F8A3E0F9A3E0FAA358
:1018C400E0FB1202E4401D7F667E667D867C3F90CD
:1018D400001DE0F8A3E0F9A3E0FAA3E0FB1202E4A0
:1018E400601740151244217B007AF87D3C7C007F10
:1018F4003C7E0012443202123D900000E0FEA3E060
:10190400FFC3900005E09FFD900004E09EFCE412FC
:101914000356A804A905AA06AB07E4FFFE7D487C8C
:101924004312024790017E1208AA900000E0FEA331
:10193400E0FF900005E02FFD900004E03EFCE4127F
:10194400035690017EE0F8A3E0F9A3E0FAA3E0FBDC
:1019540012013EA804A905AA06AB07E4FFFE7DA078
:101964007C43120049E4FBFAF9784012024712035F
:101974008F900186EEF0A3EFF0900002E0FEA3E06A
:10198400FFC390000BE09FFD90000AE09EFCE41270
:101994000356A804A905AA06AB07E4FFFE7D487C0C
:1019A400431202479001821208AA900002E0FEA3AB
:1019B400E0FF90000BE02FFD90000AE03EFCE412F3
:1019C4000356900182E0F8A3E0F9A3E0FAA3E0FB58
:1019D40012013EA804A905AA06AB07E4FFFE7DA0F8
:1019E4007C43120049E4FBFAF978401202471203DF
:1019F4008F900188EEF0A3EFF090017EE0FCA3E06D
:101A0400FDA3E0FEA3E0FF12038F1259E3D3EF948A
:101A140002EE64809480501F900182E0FCA3E0FDFC
:101A2400A3E0FEA3E0FF12038F1259E3D3EF940265
:101A3400EE64809480403D1244217B007AF87D3C22
:101A44007C007F3C7E0012443290018AE070047F67
:101A54000180027F0090018AEFF0600BA37490F084
:101A6400A374D0F002123D90018B74D0F0A3749053
:101A7400F002123D74FFFFFE124EEB7FE87E03126C
:091A8400580C74FFFFFE124EEB3A
:011A8D002236
:10000E0090018B7490F0A374D0F090018674FFF081
:10001E00A374F4F090017E1208B63DF973DA9001E4
:10002E00887401F0A3744AF09001821208B6BDAA3A
:03003E00F35E224C
:105884009000237401F0A37401F0A3747BF07B01F6
:0D5894007A0179791254F812000E7F01227A
:0F590C0013928312591BEBC313FB12591BD28149
:08591B007F207E1DDEFEDFFC93
:015923002261
:0B469E0090000CEBF0A3EAF0A3E9F0A1
:1046A9007B017A00790F12504590000CE0FBA3E0E2
:1046B900FAA3E0F974321206FE90000CE0FBA3E0C5
:1046C900FAA3E0F99000017430120710900015E088
:1046D900FFC4540F2430900002120710EF540F2426
:1046E90030900003120710900004742F12071090E5
:1046F9000013E0FFC4540F2430900005120710EF97
:10470900540F2430900006120710900007742F12DE
:104719000710900012E0FFC4540F243090000812D3
:104729000710EF540F243090000912071090000A67
:10473900742F120710900011E0FFC4540F24309019
:10474900000B120710EF540F243090000C120710C1
:1047590090000D743A120710900010E0FFC4540F36
:10476900243090000E120710EF540F243090000FE0
:10477900120710900010743A12071090000FE0FF12
:10478900C4540F2430900011120710EF540F243035
:10479900900012120710900013742F120710900046
:1047A90014E0540F2430900014120710900015E4FF
:0347B900020710E4
:0D593B00F9EF120710125948E4FF125595BC
:085948007F027E3BDEFEDFFC66
:015950002234
:02565F00AB0797
:10566100C2A712591BC28112591BD2A712591B7A08
:1056710008C28112591BA903E912590CDAF37A08FD
:10568100C28112591BA905E913928312591BEDC35B
:0956910013FD125916DAE9C2A753
:01569A0022ED
:02559500AB0762
:10559700C2A712591BC28112591BD2A712591B7AD3
:1055A70008C28112591BEB12590CDAF57A08D2811D
:1055B70012591BEDC313FD12591BC28112591B301F
:1055C70083054480FD8004ED547FFDDAE1C2A71214
:0455D700591BAF05A8
:0155DB0022AD
:104CA80090000CEBF0A3EAF0A3E9F0E4FD7F8E128C
:104CB800565F12594890000CE0FBA3E0FAA3E0F914
:104CC8001206B8FD7F8012565F12594890000CE01A
:104CD800FBA3E0FAA3E0F99000011206D1FD7F8260
:104CE80012565F12594890000CE0FBA3E0FAA3E0CB
:104CF800F99000021206D1FD7F8412565F125948BE
:104D080090000CE0FBA3E0FAA3E0F9900003120680
:104D1800D1FD7F8612565F12594890000CE0FBA324
:104D2800E0FAA3E0F99000041206D1FD7F8812563C
:104D38005F12594890000CE0FBA3E0FAA3E0F99059
:104D480000051206D1FD7F8A12565F12594890005D
:104D58000CE0FBA3E0FAA3E0F99000061206D1FDEF
:0F4D68007F8C12565F1259487D807F8E02565FF6
:10504500900016EBF0A3EAF0A3E9F01259437F8D27
:10505500125595900016E0FBA3E0FAA3E090000638
:1050650012593B7F8B125595900016E0FBA3E0FA91
:10507500A3E090000512593B7F89125595900016C3
:10508500E0FBA3E0FAA3E0F9900004EF1207101289
:1050950059437F87125595900016E0FBA3E0FAA3CC
:1050A500E0F990000312593C7F8512559590001642
:1050B500E0FBA3E0FAA3E0F990000212593C7F83DC
:1050C500125595900016E0FBA3E0FAA3E0F99000D5
:1050D5000112593C7F81125595900016E0FBA3E023
:0850E500FAA3E0F9EF0206FE58
:1059A300C2A7C281E4FD7F8E12565F7D807F8E0287
:0259B300565F3D
:03000B0002537A23
:10537A00C0E0C0F0C083C082C0D075D000C000C0F9
:10538A0001C002C003C004C005C006C007758AABCD
:10539A00758C2F9001C2E0C3945F4024E4F0300979
:1053AA001FC2097B017A0179A790015774F8F0A30B
:1053BA00E4F0A374FFF0A3F0E4FDFCFFFE124E3507
:1053CA009001C2E004F0D007D006D005D004D00383
:1053DA00D002D001D000D0D0D082D083D0F0D0E09B
:0153EA003290
:1059C600438901758AAB758C2FD2A9D2AFC28C22BE
:10402100C8D5C0FA00CEC2B6C800B5E7BBB000CF54
:10403100E0B2E100D3B2BCFEBCECB2E200BBADB079
:10404100E500B4AEBFDAD6FACAD600535049D6FA63
:10405100CAD600B5E7BBB0B9A6C4DCCEB4BFAAB717
:10406100C5A3A100CFE0B2E1B9A6C4DCCEB4BFAA1A
:10407100B7C5A3A100B4AEBFDAD6FACAD6CEB4BFD3
:10408100AAB7C5A3A10032CEB4BFAAB7C5A3A100E8
:1040910033CEB4BFAAB7C5A3A10034CEB4BFAAB76B
:1040A100C5A3A10035CEB4BFAAB7C5A3A10048617D
:1040B10072647761726520436865636B2052756E27
:1040C1006E696E67002A2A2A2A2A2A2A466C617397
:1040D1006820436865636B2A2A2A2A2A2A2A0057FC
:1040E100323551383000573235513136005732357B
:1040F1005133320057323551363400466C617368A2
:10410100204572726F72002A2A2A2ACAB1D6D3BCFC
:10411100ECB2E22A2A2A2A00B6C1C8A1CAB1BCE47B
:10412100D6D02E2E2E002A2A2A2ACEC2B6C8BCEC00
:10413100B2E22A2A2A2A00B6C1C8A1CEC2B6C8D67E
:10414100D02E2E2E00B5B1C7B0CEC2B6C8A3BA00CC
:10415100D6DC00C9E8B6A8CFB5CDB3CAB1BCE4007E
:10416100A1F800A88B004E657874004F6B00D2D186
:10417100C9E8B6A8CFB5CDB3CAB1BCE4A3A100A12B
:0F418100FB00A1F600A1FE0000000000000000FE
:1054860056018D0000000000000000000000000032
:095496000000000000000000000D
:10250100E4900000F0A3F074FFFFFE124EEB900088
:1025110008E4F0A37443F0A31208B600600CA07B9A
:10252100917A007D147C007F0A7E001245627BFF58
:102531007A40792190001B7410F074FFA3F0A3F08E
:102541007411A3F0A3F07D477C007F0A7E00123B4B
:102551009A900008E4F0A37443F0A31208B6006057
:1025610058867B467A007D147C007FA07E00124550
:10257100627BFF7A40792690001B7410F074FFA3F0
:10258100F0A3F07411A3F0A3F07D477C007FA07E3F
:1025910000123B9A900008E4F0A37444F0A31208DF
:1025A100B600607D2A7B467A007D5D7C007F0A7ED5
:1025B100001245627BFF7A40792B90001B7410F06A
:1025C10074FFA3F0A3F07411A3F0A3F07D917C003C
:1025D1007F0A7E00123B9A900008E4F0A37444F055
:1025E100A31208B60060A25A7B467A007D5D7C008A
:1025F1007F557E001245627BFF7A40793090001B47
:102601007410F074FFA3F0A3F07411A3F0A3F07D94
:10261100917C007F557E00123B9A900008E4F0A364
:102621007444F0A31208B60060C78A7B467A007D25
:102631005D7C007FA07E001245627BFF7A40793588
:1026410090001B7410F074FFA3F0A3F07411A3F0B9
:10265100A3F07D917C007FA07E00123B9A90000840
:10266100E4F0A37444F0A31208B60060ECBA7B4610
:102671007A007DA67C007F0A7E001245627BFF7A8C
:1026810040793E90001B7410F074FFA3F0A3F07426
:1026910011A3F0A3F07DDA7C007F0A7E00123B9A41
:1026A100900008E4F0A37444F0A31208B60061118D
:1026B100EA7B917A007DA67C007F557E00124562FF
:1026C1007BFF7A40794390001B7410F074FFA3F0F4
:1026D100A3F07411A3F0A3F07DDA7C007F557E0096
:1026E100123B9A900008E4F0A37441F0A31208B6DB
:1026F10000615EF27B917A007DEF7C007F0A7E00B3
:102701001245627BFF7A40794C90001B7410F07483
:10271100FFA3F0A3F07411A3F0A3F07D207C017F4F
:102721000A7E00123B9A900008E4F0A37441F0A3E2
:102731001208B60061A8947B467A007DEF7C007F89
:10274100A07E00124562125793D28CE49001A3F04F
:10275100A3F0A3F0A3F0900000E0B40B0FA3E0B44A
:10276100FF0A125793E4900000F0A3F0900001E0FB
:1027710004F07006900000E004F0124D779001A380
:10278100E0FEA3E0FFC3940AEE94004011D3EF945E
:1027910050EE940050089001A3E4F0A304F09001DE
:1027A100A3E0FEA3E0FFC39455EE94004012D3EFE3
:1027B100949BEE940050099001A3E4F0A37402F0FD
:1027C1009001A3E0FEA3E0FFC394A0EE94004012A9
:1027D100D3EF94DCEE940050099001A3E4F0A374CC
:1027E10003F09001A5E0FEA3E0FFC3941EEE940068
:1027F1004011D3EF9458EE940050089001A5E4F0F5
:10280100A304F09001A5E0FEA3E0FFC3945DEE9464
:10281100004012D3EF94A1EE940050099001A5E479
:10282100F0A37402F09001A5E0FEA3E0FFC394A61B
:10283100EE94004012D3EF94EAEE94005009900117
:10284100A5E4F0A37403F09001A5E0FEA3E0FFC3AB
:1028510094EFEE94004012D3EF9433EE94015009BB
:102861009001A5E4F0A37404F09001A5E0FEA3E0BB
:10287100FFEE600302274CEF24FE603B14606B14F3
:10288100700302291E2403600302274C9001A3E078
:10289100FEA3E0FFEE600302274CEF24FE600C1460
:1028A100600F2402600302274C8000123D220227A0
:1028B1004C1247BC02274C9001A3E0FEA3E0FFEEBF
:1028C100600302274CEF24FE60121460172402609B
:1028D1000302274C7BFF7A407954806C7BFF7A405E
:1028E100796580641236680225089001A3E0FEA391
:1028F100E0FFEE600302274CEF24FE601014601528
:102901002402600302274C122EFB02274C7BFF7A24
:1029110040797680337BFF7A407987802B9001A3C1
:10292100E0FEA3E0FFEE600302274CEF24FE6012FD
:1029310014601F2402600302274C7BFF7A407991C7
:1029410080067BFF7A40799B74FFFDFC1252840262
:10295100274C7BFF7A4079A574FFFDFC125284025B
:02296100274C01
:10570F0074FFFFFE124EEB900008E4F0A374AEF0AE
:10571F00A31208B6005F4E507B8C7A007D497C0047
:0E572F007F3C7E001245627FFF7E0F02580C09
:10366800E4FFFE124EEB7BFF7A4079AF900157746E
:1036780007F0A374E0F0E4A3F0A3F0FDFCFFFE1252
:103688004E357BFF7A4079C69001577407F0A374D2
:10369800E0F0E4A3F0A3F07D10FCFFFE124E35121B
:1036A80055DCEF8EF012092D36C4EF1336CCEF142B
:1036B80036D4EF1536DCEF16000037017BFF7A4071
:1036C80079E080167BFF7A4079E7800E7BFF7A40AD
:1036D80079EE80067BFF7A4079F590001B7410F034
:1036E800A374F8F0A3E4F074FFA3F0A3F07D207CAA
:1036F80000E4FFFE123B9A80267BFF7A4079FC901B
:10370800015774F8F0A3E4F074FFA3F0A3F07D2050
:103718007C00E4FFFE124E357FFF7E0F12580C7FAF
:10372800FF7E0012580C7BFF7A41790890001B74C9
:1037380010F0A37407F0A374E0F0E4A3F0A3F07D05
:1037480030FCFFFE123B9A7BFF7A41791990001BEF
:103758007410F0A374F8F0A3E4F074FFA3F0A3F0DE
:103768007D407C00E4FFFE123B9A7B017A01798D53
:1037780012469E7B017A01798D90001B7410F0A38C
:1037880074F8F0A3E4F074FFA3F0A3F07D507C007C
:10379800E4FFFE123B9A7FFF7E0012580C7BFF7AF3
:1037A80041792790001B7410F0A37407F0A374E00C
:1037B800F0E4A3F0A3F07D60FCFFFE123B9A7BFFD0
:1037C8007A41793890001B7410F0A374F8F0A3E4E0
:1037D800F074FFA3F0A3F07D707C00E4FFFE123BC1
:1037E8009A7B017A00790212561F7FFF7E071258D2
:1037F8000C7B017A00790212561F7BFF7A417946C9
:1038080090001B7410F0A37407F0A374E0F0741117
:10381800A3F0A3F07D807C00E4FFFE123B9A7B01BD
:103828007A00790290015774F8F0A3E4F074FFA3CA
:10383800F0A3F07D807C007F507E00124E357FFF24
:053848007E0F02580C88
:1052840090000CEBF0A3EAF0A3E9F0A3ECF0A3ED9B
:01529400F029
:1052950090000CE0FBA3E0FAA3E0F990001B74106A
:1052A500F0A374F8F0A3E4F090000FE0FFA3E09002
:1052B500001ECFF0A3EFF0E4FDFCFFFE123B9A7F4A
:1052C500FF7E0712580C90000CE0FBA3E0FAA3E068
:1052D500F9125966EF75F008A4FB7A00900017E4FF
:1052E500F0A37410F090000FE0FFA3E0900019CF39
:0C52F500F0A3EFF0E4FDFCFFFE024BC84C
:104D770090000F7401F0A37401F0A374A5F07B01F8
:044D87007A0179A391
:104D8B0090000CEBF0A3EAF0A3E9F0A3E0F9A3E0A9
:104D9B00FAA3E0900015C9F0A3EAF0A3E9F09000A4
:104DAB000CE0FBA3E0FAA3E0F91242F090000CE058
:104DBB00FBA3E0FAA3E0F91207B3FDACF0E4120396
:104DCB00567BE17A7A797078411202477B9A7A990D
:104DDB00796D78C112004D12038F90000CE0FBA38C
:104DEB00E0FAA3E0F9EE8FF01207DE90000FE0FB84
:104DFB00A3E0FAA3E0F91207B3FDACF0E4120356FB
:104E0B007BC37AF5792C78411202477BF67A2879A5
:104E1B008C78C112004D12038F90000FE0FBA3E0C2
:0A4E2B00FAA3E0F9EE8FF00207DEB3
:10580C00E4FDFCC3ED9FEC9E5015E4FBFA0BBB00D2
:0F581C00010ABA03F8BBE8F50DBD00010C80E4EA
:01582B00225A
:105793007B017A01798D12469EE490019DF07B0195
:1057A3007A017998900157F0A3F074FFA3F0A3F066
:0957B300E4FDFC7FC8FE024E3546
:103D2200E4900002F0A3F07B017A01798D12469EA5
:103D3200E4900194F07F1D7E05124EEB900017E493
:103D4200F0A37414F0A374FFF0A374E0F07B787A0C
:103D5200007D3C7C007F3C7E00124BC8900017E443
:103D6200F0A37468F074FFA3F0A3F07B787A007D6F
:103D7200507C007F3C7E00124BC87B017A01798D1A
:103D820090015774F8F0A3E4F07411A3F0A3F07D4E
:103D92003D7C007F3D7E00124E357BFF7A4179519A
:103DA20090001B7410F0A374F8F0A3E4F07411A354
:103DB200F0A3F07D3D7C007F967E00123B9A7B0152
:103DC2007A0179A190015774F8F0A3E4F07411A379
:103DD200F0A3F07D3D7C007FA67E00124E35E4907C
:103DE2000197F07B017A01799590001B7420F0A372
:103DF20074F8F0A3E4F07411A3F0A3F07D6E7C00DC
:103E02007F697E00123B9A1249CC900002E0FEA329
:103E1200E0FFF47003EE640B6004EF4E70367B013A
:103E22007A01798D12469EE490019DF07B017A0120
:103E3200799890015774F8F0A3E4F074FFA3F0A30B
:103E4200F07D967C007F647E00124E35900002E485
:103E5200F0A304F0900003E004F07006900002E08A
:103E620004F0124D779001A5E0FEA3E0FFD3942069
:103E7200EE94014095EF9440EE9401508D90000F26
:103E820074FFF0A37409F0A3748DF09001A3E0FF16
:103E9200A3E0900012CFF0A3EFF07BFF7A25790127
:063EA200124190023E0CEB
:10098D0078047C007D017BFF7A4179897E007F07A9
:10099D0012069290000B7401F0FB7A01798D1246CC
:1009AD009E7F1D7E05124EEB7BFF7A4179549000A0
:1009BD001B7420F074FFA3F0A3F07411A3F0A3F047
:1009CD007D147C007F187E00123B9A7B017A0179A1
:1009DD008D90015774F8F0A3E4F074FFA3F0A3F029
:1009ED007D807C007F287E00124E35900017E4F04C
:1009FD00A37414F0A374C6F0A37418F07B287A00C6
:100A0D007D697C007F647E00124BC87BFF7A417943
:100A1D006190001B7410F0E4A3F0A3F07411A3F027
:100A2D00A3F07D6C7C007F737E00123B9A900012C8
:100A3D00E4F0A37414F0A3E4F0A3741FF07B287A00
:100A4D00007D697C007F647E00122963900017E4AD
:100A5D00F0A37414F0A374C6F0A37418F07B287A75
:100A6D00007D947C007F647E00124BC87BFF7A4131
:100A7D00796490001B7410F0E4A3F0A3F07411A33B
:100A8D00F0A3F07D997C007F737E00123B9A90005D
:100A9D0012E4F0A37414F0A3E4F0A3741FF07B2808
:100AAD007A007D947C007F647E001229639000178C
:100ABD00E4F0A37414F0A374C6F0A37418F07B28AB
:100ACD007A007DB47C007F287E00124BC87BFF7AB4
:100ADD00417967E4900157F0A3F07411A3F0A3F0EE
:100AED007DB67C007F2A7E00124E35900012E4F018
:100AFD00A37414F0A3E4F0A3741FF07B287A007D97
:100B0D00B47C007F287E00122963900017E4F0A3C7
:100B1D007414F0A374C6F0A37418F07B287A007DCA
:100B2D00B47C007FAA7E00124BC87BFF7A41796CA2
:100B3D00E4900157F0A3F07411A3F0A3F07DB67CFF
:100B4D00007FB97E00124E35900012E4F0A37414AC
:100B5D00F0A3E4F0A3741FF07B287A007DB47C0031
:100B6D007FAA7E001229631249CCE49001A0F09077
:100B7D00019DF090019AF0900197F0900194F09002
:100B8D000191F090000BE014B407004003020D64D6
:100B9D00900BAB75F003A4C58325F0C58373020BD1
:100BAD00C0020BFC020C38020C74020CB0020CEBF0
:100BBD00020D267B017A01798D9001577407F0A300
:100BCD0074E0F0E4A3F0A3F07D80FC7F28FE124ECC
:100BDD00357B017A0179A190015774F8F0A3E4F007
:100BED0074FFA3F0A3F07D807C007FC8020D5F7BB6
:100BFD00017A0179929001577407F0A374E0F0E443
:100C0D00A3F0A3F07D80FC7F50FE124E357B017A60
:100C1D0001798D90015774F8F0A3E4F074FFA3F0FF
:100C2D00A3F07D807C007F28020D5F7B017A017926
:100C3D00959001577407F0A374E0F0E4A3F0A3F0CE
:100C4D007D80FC7F68FE124E357B017A0179929092
:100C5D00015774F8F0A3E4F074FFA3F0A3F07D80C6
:100C6D007C007F50020D5F7B017A017998900157CE
:100C7D007407F0A374E0F0E4A3F0A3F07D80FC7F93
:100C8D0080FE124E357B017A01799590015774F8EB
:100C9D00F0A3E4F074FFA3F0A3F07D807C007F68E7
:100CAD00020D5F7B017A01799B9001577407F0A3C8
:100CBD0074E0F0E4A3F0A3F07D80FC7F98FE124E6B
:100CCD00357B017A01799890015774F8F0A3E4F01F
:100CDD0074FFA3F0A3F07D807C007F8080747B0186
:100CED007A01799E9001577407F0A374E0F0E4A3A4
:100CFD00F0A3F07D80FC7FB0FE124E357B017A01B2
:100D0D00799B90015774F8F0A3E4F074FFA3F0A35E
:100D1D00F07D807C007F9880397B017A0179A190EC
:100D2D0001577407F0A374E0F0E4A3F0A3F07D8005
:100D3D00FC7FC8FE124E357B017A01799E900157DA
:100D4D0074F8F0A3E4F074FFA3F0A3F07D807C00B1
:100D5D007FB07E00124E35124D779001A5E0FEA3B7
:100D6D00E0FFD39420EE9401402EEF9440EE9401D9
:100D7D00502690000F74FFF0A37425F0A37401F0BA
:100D8D009001A3E0FFA3E0900012CFF0A3EFF07B62
:100D9D00FF7A3D79221241909001A3E0FEA3E0FF7E
:100DAD00C39428EE94004029D3EF9450EE94005054
:100DBD0020A3E0FEA3E0FFC394B4EE94004012D351
:100DCD00EF94C8EE9400500990000BE004F030A5AC
:100DDD00FD9001A3E0FEA3E0FFC39496EE940050B6
:100DED0003020EAFD3EF94BEEE94004003020EAF9C
:100DFD00A3E0FEA3E0FFC394B4EE94005003020EF3
:100E0D00AFD3EF94C8EE94004003020EAF90019E55
:100E1D00E024D0C454F0FFA3E024D04F900004F0A0
:100E2D0090019BE024D0C454F0FFA3E024D04F9058
:100E3D000005F0900198E024D0C454F0FFA3E02405
:100E4D00D04F900006F0900195E024D0C454F0FFEF
:100E5D00A3E024D04F900007F0900192E024D0C47D
:100E6D0054F0FFA3E024D04F900008F09001A1E0D2
:100E7D0024D0900009F090018FE024D0C454F0FFED
:100E8D00A3E024D04F90000AF07B017A0079041280
:100E9D004CA87BFF7A41796F7D1D7C051252843001
:100EAD00A5FD9001A3E0FEA3E0FFC39464EE9400C2
:100EBD00500302103FD3EF948CEE940040030210C8
:100ECD003FA3E0FEA3E0FFC39469EE94005003023C
:100EDD00103FD3EF947DEE9400400302103F90003D
:100EED000BE014B40700400302103C900F0675F0A0
:100EFD0003A4C58325F0C58373020F1B020F3F02A8
:100F0D000F71020FA3020FD0020FFD02102D9001E1
:100F1D0090E004F0E0D3943940097430F090018FE3
:100F2D00E004F090018FE0D39439500302103C029D
:100F3D001028900193E004F0E0D39432401090011A
:100F4D0092E0B43109A37431F090019214F0900144
:100F5D0093E0D39439500302103C900192E004F0D9
:100F6D00A3021028900196E004F0E0D394314010D4
:100F7D00900195E0B43309A37431F090019514F00C
:100F8D00900196E0D39439500302103C900195E006
:100F9D0004F0A3021028900199E004F0E0D39433FB
:100FAD00400F900198E0B43208A37430F09001988E
:100FBD00F0900199E0D394394075900198E004F0D8
:100FCD00A3805890019CE004F0E0D39439400F9039
:100FDD00019BE0B43508A37430F090019BF09001B3
:100FED009CE0D39439404890019BE004F0A3802B02
:100FFD0090019FE004F0E0D39439400F90019EE002
:10100D00B43508A37430F090019EF090019FE0D3A9
:10101D009439401B90019EE004F0A37430F0800FD2
:10102D009001A1E004F0E0D3943740037431F03027
:10103D00A5FD9001A3E0FEA3E0FFC39464EE940030
:10104D005003021202D3EF948CEE9400400302126F
:10105D0002A3E0FEA3E0FFC39494EE9400500302BC
:10106D001202D3EF94A8EE940040030212029000F6
:10107D000BE014B4070040030211FF90109675F0B9
:10108D0003A4C58325F0C583730210AB0210E002E3
:10109D00111702114D0211830211B90211EF9001C6
:1010AD0090E0B4300F90018FE0B43008A37439F0A4
:1010BD0090018FF0900190E0B4301290018FE064B8
:1010CD0030600AA3743AF090018FE014F090019013
:1010DD000211FC900193E0B43111900192E0B43013
:1010ED000AA37433F09001927431F0900193E0B43F
:1010FD003012900192E06430600AA3743AF09001CE
:10110D0092E014F09001930211FC900196E0B4313D
:10111D0010900195E0B43009A37432F0900195045C
:10112D00F0900196E0B43012900195E06430600AC1
:10113D00A3743AF0900195E014F09001960211FC21
:10114D00900199E0B43011900198E0B4300AA37485
:10115D0034F09001987432F0900199E0B43012900F
:10116D000198E06430600AA3743AF0900198E0149D
:10117D00F0900199807990019CE0B4301190019B21
:10118D00E0B4300AA3743AF090019B7435F09001ED
:10119D009CE0B4301290019BE06430600AA3743A75
:1011AD00F090019BE014F090019C804390019FE032
:1011BD00B4301190019EE0B4300AA3743AF090015E
:1011CD009E7435F090019FE0B4301290019EE06462
:1011DD0030600AA3743AF090019EE014F090019FE4
:1011ED00800D9001A1E0B431037438F09001A1E0BD
:1011FD0014F030A5FD90000BE0D394075003020BC3
:07120D00907401F0020B9048
:1049CC0090002D7401F0A37420F074FFA3F0A3F0F9
:1049DC007BF07A007D207C01E4FFFE1231B17BFF7D
:1049EC007A41798090001B7420F074FFA3F0A3F03F
:1049FC007411A3F0A3F07D207C017F147E00123B88
:104A0C009A7BFF7A41798390001B7420F0A374A2E7
:104A1C00F0A37454F07411A3F0A3F07D207C017FFB
:104A2C00687E00123B9A90002D7401F0A37430F054
:104A3C0074FFA3F0A3F07B837A007D307C017F6C44
:104A4C007E001231B190002D7401F0A3743BF07410
:104A5C00FFA3F0A3F07B787A007D257C017F787E24
:104A6C00001231B190002D7401F0A37440F074FF6A
:104A7C00A3F0A3F07B507A007D207C017F507E0058
:104A8C001231B190002D7401F0A37440F074FFA3A7
:104A9C00F0A3F07BA07A007D207C017FA07E001229
:104AAC0031B17BFF7A41798690001B7420F074FF42
:104ABC00A3F0A3F07411A3F0A3F07D207C017FBBC5
:054ACC007E00023B9A90
:1041900090000CEBF0A3EAF0A3E9F0900012E0FE2F
:1041A000A3E0FFC39450EE64809480503AEF9400F3
:1041B000EE6480948040307BFF7A41798090001BD0
:1041C0007420F074FFA3F0A3F0A3E4F0A3741FF035
:1041D0007D207C017F147E00123B9A90000CA3E0AE
:1041E000FAA3E0F912095A900012E0FEA3E0FFD30F
:1041F0009450EE64809480500302428FEF94A0EEBE
:1042000064809480400302428F7BFF7A41798390DF
:10421000001B7420F0A374A2F0A37454F0A3E4F084
:10422000A3741FF07D207C017F687E00123B9A9072
:10423000002D7401F0A37430F074FFA3F0A3F07BA1
:10424000837A007D307C017F6C7E001231B190005A
:104250002D7401F0A3743BF074FFA3F0A3F07B78FE
:104260007A007D257C017F787E001231B190002D8F
:104270007401F0A37440F074FFA3F0A3F07B507AB4
:10428000007D207C017F507E001231B1122501900B
:104290000012E0FEA3E0FFD394A0EE64809480407F
:1042A0003AEF94F0EE6480948050307BFF7A41794D
:1042B0008690001B7420F074FFA3F0A3F0A3E4F039
:1042C000A3741FF07D207C017FBB7E00123B9A907F
:0C42D000000FA3E0FAA3E0F912095A2243
:1047BC00E4900002F0A3F07F1D7E05124EEB9000FA
:1047CC0017E4F0A37432F0A3E4F0A3741FF07B9809
:1047DC007A007D3C7C007F2D7E00124BC89000122D
:1047EC00E4F0A3741EF0A374F8F0A3E4F07B84FA55
:1047FC007D46FC7F37FE1229631249CC900002E003
:10480C00FEA3E0FFF44E6004EF4E70557B017A007E
:10481C00790412561F7BFF7A41794690001B741065
:10482C00F0A374F8F0A3E4F07411A3F0A3F07D4EA0
:10483C007C007F387E00123B9A7B017A00790490D1
:10484C00015774F8F0A3E4F074FFA3F0A3F07D4ECD
:10485C007C007F807E00124E35900002E4F0A304B1
:10486C00F0900003E004F07006900002E004F012F7
:10487C004D779001A5E0FEA3E0FFD39420EE9401C8
:10488C005003024808EF9440EE940140030248089C
:10489C0090000F74FFF0A37425F0A37401F0900145
:1048AC00A3E0FFA3E0900012CFF0A3EFF07BFF7A20
:0948BC002579011241900248081F
:102EFB0090000274F8F0A3E4F07F1D7E05124EEBF8
:102F0B009000177401F0A37420F074FFA3F0A3F0EA
:102F1B007BF07A00E4FDFCFFFE124BC8900017E437
:102F2B00F0A37418F0A37405F0A3741DF07BF07A72
:102F3B00007D087C01E4FFFE124BC8900017E4F003
:102F4B00A37418F074FFA3F0A3F07B187A007D082C
:102F5B007C01E4FFFE124BC8900017E4F0A3741839
:102F6B00F0E4A3F0A3F07B18FA7D087C017F18FE38
:102F7B00124BC8900017E4F0A37418F0A374C6F0BA
:102F8B00A37418F0FB7A007D087C017F307E001261
:102F9B004BC8900017E4F0A37418F0A3E4F0A374EB
:102FAB001FF07B187A007D087C017F487E00124B56
:102FBB00C8900017E4F0A37418F0A374F8F0A3E41E
:102FCB00F07B18FA7D087C017F60FE124BC89000E5
:102FDB0017E4F0A37418F0A374F8F0A3741FF07B3C
:102FEB00187A007D087C017F787E00124BC8900018
:102FFB0017E4F0A37418F0A37407F0A374E0F07B4C
:10300B00187A007D087C017F907E00124BC89000DF
:10301B0017E4F0A37418F0A3747FF0A374FFF07B94
:10302B00187A007D087C017FA87E00124BC89000A7
:10303B0017E4F0A37418F0A374FFF0A374E0F07B13
:10304B00187A007D087C017FC07E00124BC890006F
:10305B0017E4F0A37418F0A374B7F0A37423F07BF8
:10306B00187A007D087C017FD87E00124BC812496C
:10307B00CC124D779001A5E0FEA3E0FFD39400EEB8
:10308B0094004021EF9408EE940150199001A3E0B5
:10309B00FEA3E0FFA3E0FCA3E0FD900002E0FAA397
:1030AB00E0FB1252069001A5E0FEA3E0FFD39420B3
:1030BB00EE9401402EEF9440EE9401502690000FB9
:1030CB0074FFF0A37425F0A37401F09001A3E0FF4B
:1030DB00A3E0900012CFF0A3EFF07BFF7A257901EC
:1030EB001241909001A5E0FEA3E0FFD39408EE946B
:1030FB0001500302307CEF9420EE94014003023028
:10310B007C9001A3E0FEA3E0FF7C007D1812073248
:10311B00EFB40A00400302307C90312BF82828735F
:10312B0002314902314D02315702316402316A02D8
:10313B00317602318302318A0231970231A474FF56
:10314B008001E4900002F0A3F002307C9000027446
:10315B00C6F0A37418F002307C900002E48011904A
:10316B00000274F8F0A3E4F002307C90000274F8D3
:10317B00F0A3741FF002307C900002740780129051
:10318B000002747FF0A374FFF002307C9000027495
:10319B00FFF0A374E0F002307C90000274B7F0A350
:0631AB007423F002307CE9
:0600030025372E336600D4
:10597B00EF25E02405FFEFD3940040077E05DEFE04
:03598B001F80F387
:01598E0022F6
:10598F00EFD39400400D00007E207D1CDDFEDEFC79
:03599F001F80ED79
:0159A20022E2
:1057E400C200D2807F0512597BC2807FC812597BC8
:1057F4007FC812597BD2807F3212597BA2809200DB
:075804007F1912597BA2007D
:01580B00227A
:1058A100E4FC7D08C280ECC313FCD2803080034449
:0B58B10080FC7F1912597BDDEBAF0477
:0158BC0022C9
:0258BD00AD0735
:1058BF007B08C280ED1392807F1912597BD280ED45
:0A58CF00C313FDDBED7F1902597BC6
:1056D500E4FBFFFEFDFC1257E47FCC1258BD7F446E
:1056E5001258BD7F0A12598F1257E47FCC1258BD4C
:1056F5007FBE1258BD1258A1AB071258A1EF7F000B
:09570500FEEF2BFDE43EFEAF05B2
:01570E002278
:0B561F0090000BEBF0A3EAF0A3E9F011
:10562A001256D5AD07AC06E4120356E4FBFA7980AC
:10563A00783D12013E90001174FFF0A37400F0A3AC
:10564A007403F0A31208AA90000BE0FBA3E0FAA3EC
:05565A00E0F90220E36D
:08549F00C1094301BB0101A793
:10582C00538EF7759A50438E04200003759C983064
:0E583C000003759CF7438E10D2AF75AF0122AA
:0B59EF008F9BE59A30E1FB539AFD22EC
:030043000253EB7A
:1053EB00C0E0C0F0C083C082C0D075D000C000C088
:1053FB0001C002C00320090E9001BB7401F0A3741D
:10540B0001F0A374A7F0E59A30E02ED209539AFE6F
:10541B009001BBE0FBA3E0FAA3E0F9E59B1206FECB
:10542B009001BCE475F0011207879001BBE0FBA370
:10543B00E0FAA3E0F9E41206FED003D002D001D0CB
:0C544B0000D0D0D082D083D0F0D0E0326E
:100046000203FBE86480F8E933E83360110460F0EA
:10005600ED33EC337009E8FCE9FDEAFEEBFF220420
:1000660060DED3EB9FEA9EE99DE8C2E78CF0C2F71B
:1000760095F0400CE8CCF8E9CDF9EACEFAEBCFFBE7
:100086001203C685D0F05804700320D5B3E8047077
:10009600075002B2D502040592D5EC0460F7E4CC11
:1000A600C0E0C398F8603B94186008400DD0E0FBB0
:1000B6000203DDE4FBFAC9FC8028E830E406E4C963
:1000C600FBE4CAFCE830E305E4C9CACBFCE8540704
:1000D6006010F8C3E913F9EA13FAEB13FBEC13FC0F
:1000E600D8F130F52FC3E49CFCEF9BFFEE9AFEEDB2
:1000F60099FDD0E0FBEF4E4D4C701222DB0302045B
:1001060002EC2CFCEF33FFEE33FEED33FDED30E772
:10011600EB0203DDEF2BFFEE3AFEED39FDD0E0FBFF
:1001260050130BBB0003020405ED13FDEE13FEEFA7
:0801360013FFEC13FC0203DDD2
:10013E00EC4D6011E8497017ED33EC3304600DE4BB
:10014E00FCFFFEFD22E933E8330470F80203FB12D4
:10015E0003C658046009E4CC2481500628500902D5
:10016E000405284003020402C0E0EB4A7044B98043
:10017E0006D0E0FB0203F1EF4E701CBD8008EBFFD2
:10018E00EAFEE9FD80EBE98DF0A4FEE5F002022720
:10019E00E9CDF9EAFEEBFFEF89F0A4FCE5F0CE899C
:1001AE00F0A42EFFE435F0CD89F0A42DFEE435F059
:1001BE008067EF4E7005BD80D780C3EF8BF0A4AC87
:1001CE00F0EE8BF0A42CFCE435F0F8EF8AF0A42CC2
:1001DE00E5F038FCE433CB8DF0A42CFCE5F03BF8D5
:1001EE00EE8AF0A42CFCE5F038F8E433CF89F0A4C5
:1001FE002CFCE5F038CF3400CE89F0A42FFFE5F0CB
:10020E003EFEE433C98DF0A42EFEE5F039CD8AF022
:10021E00A42FFFE5F03EFEE43DFD33D0E0FB50079A
:10022E000BBB000F020405EC2CFCEF33FFEE33FE8C
:06023E00ED33FD0203DDBB
:10024400020405EC5D046005E8590470030203FB35
:100254001203C6580460F6EC4860F2EC7004FDFE2C
:10026400FF22C860DB2481C85009C398600250068D
:100274000204029850CAF582E9294B4A7005AB8200
:100284000203F175F0007C1A7880C3EF9BEE9AEDBF
:1002940099400DC3EF9BFFEE9AFEED99FDE842F005
:1002A400DC23ACF0D0E0FFD0E0FED0E0FDAB822058
:1002B400E7101BEB60BAEC2CFCEF33FFEE33FEEDE2
:1002C40033FD0203DDE803F830E705C0F075F00004
:1002D400EF2FFFEE33FEED33FD40B830E7C280AAC6
:1002E40074F8CC6480CCC86480C8F582046043C3CD
:1002F400EB9FF5F0EA9E42F0E99D42F0E89C45F060
:1003040060305018E5825FFFE582F42B5582FB5084
:10031400210ABA001D09B90019088016E5825BFBA1
:10032400E582F42F5582FF50090EBE00050DBD0075
:10033400010CC3EB9FF5F0EA9E42F0E99D42F0E820
:0D0344009C45F06007CC4820E701B3EC2297
:1003510075F020800E75F010800575F0087D007E27
:10036100007F003392D530D50312084CEC33401096
:10037100EF33FFEE33FEED33FDEC33FCD5F0ED2230
:0E038100E5F0247EA2D513CC92E7CDCEFF226C
:10038F00EDD2E7CD33EC3392D524814006E4FFFE66
:10039F00FDFC22FCE4CFCECDCC24E0501174FF80C5
:1003AF00EDC3CC13CCCD13CDCE13CECF13CF047062
:0703BF00F030D5DE02084C0E
:10207E00E5082411F582E43400F583E0050822908A
:10208E00000E300703900011E475F0011208E7020C
:10209E0006B82000E97F2ED2008018EF540F24904E
:1020AE00D43440D4FF30040BEF24BFB41A005003D5
:1020BE002461FFE50960021509050CE50C700205A7
:1020CE000B30070E90000EE475F0011208E7EF02D8
:1020DE0006FE0248C57403D2078003E4C207F50862
:1020EE0090000E1208FEE4F509F50BF50CE50960FB
:1020FE00077F201220C180F5750AFFC201C200C2FF
:10210E0002C203C205C206C20812208DFF700D3036
:10211E0007057F001220D2AF0CAE0B22B4255FC292
:10212E00D5C20412208DFF24D0B40A00501A75F0C7
:10213E000A780930D50508B6FF0106C6A426F62092
:10214E00D5047002D20380D924CFB41A00EF500404
:10215E00C2E5D2040223C4D20180C6D20080C0D20E
:10216E000280BCD2D580BAD20580B47F201220C1A5
:10217E002002077401B5090040F112207EFF1220E3
:10218E00C10220FBD208D206809512207EFB1220BF
:10219E007EFA12207EF94A4B700679C27A247BFFB2
:1021AE0020022EE509602A7E008E827583001206BB
:1021BE00D160060EEE650A70F0C2D5EBC0E0EAC043
:1021CE00E0E9C0E0EE122425D0E0F9D0E0FAD0E04C
:1021DE00FB1206B8FF60AAEBC0E0EAC0E0E9C0E07F
:1021EE001220C1D0E02401F9D0E03400FAD0E0FB97
:1021FE00E50A0460DCD50AD98087D20280A21224B7
:10220E000760F7E50A700104120410A90A600DE5D3
:10221E000A600914F50A1224AFEF60F3EA30E70200
:10222E00F404C3995079EAF4250A0430E701E40472
:10223E00F50A800D12240760C1EA050A250A120468
:10224E0010EA90003DF030E701E4250A04D50A04B7
:10225E0020050114122425E4C0E01224AF90003DA5
:10226E00E0601320E70714F01220A9802204F0D0BA
:10227E00E014C0E07F001220A9E50A60071220A03A
:10228E00150A800B3005031220A0D0E00220FBD0EF
:10229E00E00480C4122407609EE50A041204109024
:1022AE00003DEAF0E50A2005026001042404122430
:0122BE0025FA
:1022BF0074FF04C0E01224AF1220A9E50A20050222
:1022CF0060031220A0D0E0B50AE87F451220B3903A
:1022DF00003DE07F2B30E7047F2DF404C0E0122097
:1022EF00C1D0E075F00A84C0F01220AAD0E012200D
:1022FF00AA0220FB791080027908C206C208800862
:10230F00D2D5790A8004790AC2D5E50A047002F59C
:10231F000AE4FAFDFEFF12207EFC7B082001131257
:10232F00207EFD7B1030000A12207EFE12207EFFE1
:10233F007B20EC3382D592D55013C3E43000069F37
:10234F00FFE49EFEE42001039DFDE49CFCE4CBF83A
:10235F00C201EC700CCFCECDCCE824F8F870F3802E
:10236F0017C3EF33FFEE33FEED33FDEC33FCEB33EE
:10237F00FB994002FB0FD8E9EB300105F8D0E0C420
:10238F0048B201C0E00AEC4D4E4F78207B0070C27E
:10239F00EAB50A0040BCC0E0122427D0F0D0E020FC
:1023AF000104C4C0E0C4B201C0F01220AAD0F0D51D
:1023BF00F0EB0220FB1209072198532303582169E0
:1023CF004C21654223074F230F44230F49217E439E
:1023DF0023155522424622A245220C4724E25021C2
:1023EF006D2D21712E21942B21752321922024CB29
:1023FF002A212D480000218CE50AB4FF03750A0637
:10240F0012207EFC12207EFD12207EFE12207EFF07
:10241F0090003602044D790AA2D520031430050925
:10242F00B910020404B9080104A2D5200602500114
:10243F00042002689202B509005034C0E07F2030BA
:10244F0003197F30A20272067205500F12247EC24A
:10245F0002C206C205C2087F30800F300503E9C0F3
:10246F00E01220C1300503D0E0F9D0E0B509CC303F
:10247F0005177F30B9100C1220C17F583004077F29
:10248F00788003B908031220C13002057F2D022086
:10249F00C17F202008F87F2B2006F322920280CFE5
:1024AF007F00B40700500B2436F582E43400F58327
:1024BF00E0FF22286E756C6C2900D20112207E304D
:1024CF0001F8C201780930D50108F602212D2D50EF
:1024DF0043495812207E2403B405004001E49024A0
:1024EF00DD931220B2743A1220B2D203750904029E
:0224FF002303B5
:104F99000203FB22EDA2E7D2E7F9EC3340F260F31A
:104FA900B4FF08ED547F70E8020405F82481C2E0DB
:104FB900C0E0F40428FAC313FCED92E7FD90002148
:104FC9001208AAEEA2E7E9BA7F02C31334009400DB
:104FD900FA75F091A4E5F013F494FE8AF0A433E590
:104FE900F033248CD313FDE492E7FE7F007C3F75F8
:104FF9008302ECC0E0F8EDC0E0F9EEC0E0FAEFC0E2
:10500900E0FB8583F090002112087E85F08312026F
:1050190047D0E0FBD0E0FAD0E0F9D0E0F812004D3B
:10502900ED6480FD30E7011CD583C7ED33CC33F83F
:0C503900D0E0A2E71328C313CC13FD2223
:1003C600E9D2E7C933E833F892D5EDD2E7CD33EC7D
:0703D60033FC5002B2D522F6
:1003DD00EC30E7100FBF000C0EBE00080DBD000481
:1003ED000BEB6014A2D5EB13FCED92E7FD2274FF2D
:1003FD00FCFDFEFF22E480F8A2D574FF13FC7D8086
:03040D00E480EF99
:10041000F920E73624F950037907E4F42402FBE5D8
:1004200082158270021583DBF6E024FB501BE96025
:1004300014E4F0E582158270021583E004F0B40A3A
:0D04400008E4F0D9EE7401F00A22C2D522C2
:10044D00ED33EC3392D5FA602AB4FF33EDC2E77B7E
:10045D00FF60067A047972E4227A04797B20D50450
:10046D007A047976224E614E002B494E46002D4975
:10047D004E4600E47A08F0A3DAFC7B00740722C034
:10048D0083C082ECC0E0EDC0E0EEC0E0EFC0E0EA7A
:10049D0075F010A4CAABF075F04DA42BFBE435F04C
:1004AD00FCEA2410FAEB34C5FBEC34D9FCEDC2E7C1
:1004BD00FF75F056A4F42411C5F0F434C58FF0A4E3
:1004CD002AE5F03BE43CF020E714120582D0E0FF72
:1004DD00D0E0FED0E0FDD0E0FC1202478014F40421
:1004ED00120582D0E0FFD0E0FED0E0FDD0E0FC129E
:1004FD00013ED082D083E0FAEDD2E7CD33EC332448
:10050D0082FBE4C3CF33CFCE33CECD33CD33DBF34C
:10051D007B0775F00A846004F0A31B0AE5F0F0A3D5
:10052D008FF0740AA4FFACF08EF0740AA42CFEAC0C
:10053D00F050010C8DF0740AA42CFDE435F0F0A3FD
:05054D00DBDE74072253
:100552003F8000004120000042C80000447A0000B1
:10056200461C400047C35000497424004B18968033
:100572004CBEBC205A0E1BCA6753C21C749DC5AE2A
:10058200FB60065407601C23231205B0EB5438604D
:100592000912059C1205AB12013EECF8EDF9EEFAD8
:1005A200EFCB22EB1205AB80F1543803241C9005EB
:1005B20052FE93FC0EEE93FD0EEE930ECE93FF22AF
:1051860002584AE493A3F8E493A34003F68001F29D
:1051960008DFF48029E493A3F85407240CC8C3332A
:1051A600C4540F4420C8834004F456800146F6DFF9
:1051B600E4800B0102040810204080905457E47EDE
:1051C600019360BCA3FF543F30E509541FFEE493EE
:1051D600A360010ECF54C025E060A840B8E493A3B5
:1051E600FAE493A3F8E493A3C8C582C8CAC583CAE0
:1051F600F0A3C8C582C8CAC583CADFE9DEE780BE98
:0154A7000004
:1005C200E709F608DFFA8046E709F208DFFA803E1B
:1005D20088828C83E709F0A3DFFA8032E309F60808
:1005E200DFFA8078E309F208DFFA807088828C8370
:1005F200E309F0A3DFFA806489828A83E0A3F60824
:10060200DFFA805889828A83E0A3F208DFFA804CFD
:1006120080D280FA80C680D4806980F280338010D4
:1006220080A680EA809A80A880DA80E280CA80333D
:1006320089828A83ECFAE493A3C8C582C8CCC583B5
:10064200CCF0A3C8C582C8CCC583CCDFE9DEE78085
:100652000D89828A83E493A3F608DFF9ECFAA9F004
:10066200EDFB2289828A83ECFAE0A3C8C582C8CC5A
:10067200C583CCF0A3C8C582C8CCC583CCDFEADE73
:10068200E880DB89828A83E493A3F208DFF980CCD5
:1006920088F0EF60010E4E60C388F0ED2402B404CE
:1006A2000050B9F582EB2402B4040050AF23234575
:0606B20082239006127382
:1006B800BB010689828A83E0225002E722BBFE0240
:0906C800E32289828A83E4932273
:1006D100BB010CE58229F582E5833AF583E02250DE
:1006E10006E92582F8E622BBFE06E92582F8E22228
:0D06F100E58229F582E5833AF583E4932242
:1006FE00BB010689828A83F0225002F722BBFE01DB
:02070E00F322D4
:10071000F8BB010DE58229F582E5833AF583E8F01F
:10072000225006E92582C8F622BBFE05E92582C8CB
:02073000F222B3
:10073200BC000BBE0029EF8DF084FFADF022E4CCAB
:10074200F875F008EF2FFFEE33FEEC33FCEE9DEC74
:10075200984005FCEE9DFE0FD5F0E9E4CEFD22EDBA
:10076200F8F5F0EE8420D21CFEADF075F008EF2F04
:10077200FFED33FD4007985006D5F0F222C398FDF5
:050782000FD5F0EA2292
:10078700C5F0F8A3E028F0C5F0F8E58215827002FD
:060797001583E038F0229A
:10079D00A3F8E0C5F025F0F0E5821582700215830F
:0607AD00E0C838F0E8226C
:1007B300BB010A89828A83E0F5F0A3E02250068711
:1007C300F009E71922BBFE07E3F5F009E3192289D3
:0B07D300828A83E493F5F07401932206
:1007DE00BB010A89828A83F0E5F0A3F0225006F766
:0F07EE0009A7F01922BBFE06F3E5F009F3192263
:1007FD00E88FF0A4CC8BF0A42CFCE98EF0A42CFC9B
:10080D008AF0EDA42CFCEA8EF0A4CDA8F08BF0A418
:10081D002DCC3825F0FDE98FF0A42CCD35F0FCEB77
:10082D008EF0A4FEA9F0EB8FF0A4CFC5F02ECD393C
:0F083D00FEE43CFCEAA42DCE35F0FDE43CFC22A9
:0E084C00C3E49FFFE49EFEE49DFDE49CFC22BD
:10085A00EB9FF5F0EA9E42F0E99D42F0E89C45F0F4
:01086A00226B
:10086B00E8600FECC313FCED13FDEE13FEEF13FF6B
:03087B00D8F1228F
:0C087E00E0FCA3E0FDA3E0FEA3E0FF22ED
:10088A00E493FC740193FD740293FE740393FF22B4
:10089A00E493F8740193F9740293FA740393FB22B4
:0C08AA00ECF0A3EDF0A3EEF0A3EFF022C1
:1008B600A8828583F0D083D0821208CD1208CD128B
:1008C60008CD1208CDE473E493A3C583C5F0C583B0
