:0300000002591D85
:0C591D00787FE4F6D8FD75812102596402
:10608100123FE5125FE81260DC12629C1262BFC22D
:10609100001260A1120003122E2D125F3B0226B0E6
:10589000000000AA0001904C0000023A000192862C
:1058A0000008C460000A56E600000474000A5B5A4F
:1058B000000BB08000160BDA000005F0001611CACC
:1058C000001A4D2000305EEA000001A400306C4652
:1058D000002EC200005F2E46000017C0000000002E
:1058E00000000000000000000000000000000000B8
:1058F00000000000000000000000000000000000A8
:105900000000000000000000000000000000000097
:0D591000000000000000000000000000008A
:055C81004202EEEF16E7
:105F6900900294E0FCA3E0FDA3E0FEA3E0FF120889
:015F79006BBC
:105F7A00E4FEEF30E704D2828002C282C281EF25BA
:095F8A00E0FFD2810EEEB408E93B
:015F930022EB
:1061CD00E4FFFDC281D281A283E433FEEF25E04ED0
:0661DD00FF0DEDB408ED1A
:0161E3002299
:105E0800E4900014F0A3F0C2A47F90125F7AE4FF3C
:105E1800125F7AE4FF125F7AE4FF125F7A1261CDB3
:105E2800EFFE900014E04EF0A3E0F01261CD900078
:105E380014E0FEA3E04FFF900014EEF0FEA3EFF095
:025E4800D2A4E2
:015E4A002235
:0A631A00C2A47F04125F7AD2A4220D
:0F5B2300900291EBF0A3EAF0A3E9F0A31208AA15
:105B3200C2A7C2A47F03125F7A7810125F69780845
:105B4200125F69900294A3A3A3E0FF125F7AE4902C
:105B5200029AF0A3F0900298E0FEA3E0FFC3900245
:105B62009BE09F90029AE09E502D1261CD9002918F
:105B7200E0FBA3E0FAA3E0F990029AE0FCA3E0F5CF
:105B8200828C83EF12071090029BE004F070C690A3
:095B9200029AE004F080BED2A4E6
:015B9B0022E7
:105FE80012631A125E089002EEEEF0A3EFF0E47F5F
:105FF800AAFEFDFC90589012089AC312085A600332
:086008007F0122D2A47F0022D7
:0B3BE100900283EBF0A3EAF0A3E9F0F0
:103BEC001206B8FF90028AF0900283E0FBA3E47502
:103BFC00F001120787A9F0FA1206B890028BF0EFC9
:103C0C00C394814011E0FF9440400BEFF4600790A7
:103C1C00028AE0B4FF3DE490028CF0900289E075DA
:103C2C00F002A4FF90028CE0C39FE5F06480F8746E
:103C3C0080984003023E23900286E0FBA3E475F0DB
:103C4C000112079DA9F0FAE41206FE90028CE00422
:103C5C00F080C890028BE0C3947F5006E024C0F043
:103C6C00800790028BE024BFF090028AE0247FF062
:103C7C00900289E06420705FA3E0FF7E007C007DF1
:103C8C00BE120960A804A905AA06AB07A3E0FFE4CD
:103C9C00FCFDFEEB2FFFEE3AFEED39FDEC38FCE4BB
:103CAC007B80FAF9F81207FD90028D1208AA905841
:103CBC00CC12088A90028DE0F8A3E0F9A3E0FAA3F5
:103CCC00E02FFFEA3EFEE93DFDE83CFC900298E463
:103CDC00F0A37480023E14900289E06418705FA314
:103CEC00E0FF7E007C007DBE120960A804A905AA35
:103CFC0006AB07A3E0FFE4FCFDFEEB2FFFEE3AFE64
:103D0C00ED39FDEC38FCE47B48FAF9F81207FD902C
:103D1C00028D1208AA9058BC12088A90028DE0F805
:103D2C00A3E0F9A3E0FAA3E02FFFEA3EFEE93DFD94
:103D3C00E83CFC900298E4F0A37448023E14900214
:103D4C0089E06410705EA3E0FF7E007C007DBE12F3
:103D5C000960A804A905AA06AB07A3E0FFE4FCFDD3
:103D6C00FEEB2FFFEE3AFEED39FDEC38FCE47B2048
:103D7C00FAF9F81207FD90028D1208AA9058AC12AD
:103D8C00088A90028DE0F8A3E0F9A3E0FAA3E02FF3
:103D9C00FFEA3EFEE93DFDE83CFC900298E4F0A30E
:103DAC0074208064900289E0640C706BA3E0FF7E49
:103DBC00007C007DBE120960A804A905AA06AB0709
:103DCC00A3E0FFE4FCFDFEEB2FFFEE3AFEED39FD28
:103DDC00EC38FCE47B18FAF9F81207FD90028D120E
:103DEC0008AA90589C12088A90028DE0F8A3E0F97A
:103DFC00A3E0FAA3E02FFFEA3EFEE93DFDE83CFC20
:103E0C00900298E4F0A37418F0900286E0FBA3E013
:073E1C00FAA3E0F9125B2399
:013E2300227C
:1034010090016DEEF0A3EFF0A3ECF0A3EDF0A3EBD0
:01341100F0CA
:10341200787B7C017D017BFF7A5879DC7E007F41DD
:1034220012069290016FE0FFA3E09001BCCFF0A3DF
:10343200EFF0900171E024E0FFE434FFFEE4FCFDD4
:103442009001C21208AA900172E0B420299001C230
:10345200E0FCA3E0FDA3E0FEA3E0FFE47B40FAF979
:10346200F81207FD9001C21208AA90017A7440F086
:103472009058D4023533900172E0B418299001C2F9
:10348200E0FCA3E0FDA3E0FEA3E0FFE47B24FAF965
:10349200F81207FD9001C21208AA90017A7424F072
:1034A2009058C4023533900172E0B410289001C2E2
:1034B200E0FCA3E0FDA3E0FEA3E0FFE47B10FAF949
:1034C200F81207FD9001C21208AA90017A7410F056
:1034D2009058B4805C900172E0B40C289001C2E074
:1034E200FCA3E0FDA3E0FEA3E0FFE47B0CFAF9F805
:1034F2001207FD9001C21208AA90017A740CF09092
:1035020058A4802D900172E0B4082F9001C2E0FC13
:10351200A3E0FDA3E0FEA3E0FFE47B06FAF9F812C4
:1035220007FD9001C21208AA90017A7406F0905821
:103532009412088A9001BE1208AA9001BEE0FCA370
:10354200E0FDA3E0FEA3E0FFA3E0F8A3E0F9A3E01F
:10355200FAA3E02FFFEA3EFEE93DFDE83CFC9001C4
:103562007AE0FB900298E4F0A3EBF07B017A017918
:103572007B125B23E4900179F090017AE0FF9001E5
:1035820079E0FEC39F40030236B6747B2EF582E4D7
:103592003401F583E0900177F0E4A3F0900178E044
:1035A200FFC3940840030236AD900172E0640870D4
:1035B20041900177E0FEA807088002C313D8FC30CF
:1035C200E0028044900175E0FEA3E0FF6411700305
:1035D200EE6411606DEF64117003EE64116063902C
:1035E200016DE0FEA3E0FFA3E0FCA3E0FD90017506
:1035F2008027900178E0FF900177E0FEA80708801D
:1036020002C333D8FC30E71890016DE0FEA3E0FF5F
:10361200A3E0FCA3E0FD900173E0FAA3E0FB801FAE
:10362200900175E0FAA3E0FB64117003EA64116093
:103632001190016DE0FEA3E0FFA3E0FCA3E0FD1208
:103642005CEA900170E004F0700690016FE004F013
:1036520090016FE0FEA3E0FFC39440EE940150544A
:103662009001BCE0FCA3E0FDC3EF9DFFEE9CFE9049
:103672000172E07A00B5072AEAB5062690016FECDE
:10368200F0A3EDF090016EE004F0700690016DE0A1
:1036920004F0C390016EE094F090016DE09400405C
:1036A2000A22900178E004F002359E900179E0044C
:0436B200F002357B72
:0136B60022F1
:0E46400090016DEEF0A3EFF0A3ECF0A3EDF00F
:10464E00900181ECF0A3EDF0900174E0FF640C603A
:10465E0012EF6410600DEF64186008EF64206003C1
:10466E000247B89002867401F0A37401F0A374831C
:10467E00F0A3EFF0123BE1900174E0FFB4200B9039
:10468E00017FE4F0A37480F0801EEFB4180B90014C
:10469E007FE4F0A37448F0800FEF75F002A4FF9052
:1046AE00017FE5F0F0A3EFF0E490017BF0A3F09032
:1046BE00017FE0FEA3E0FF90017BE0FCA3E0FDC3E1
:1046CE009FEC9E40030247B874832DF582E43401BB
:1046DE00F583E0FF900179E4F0A3EFF0E490017D23
:1046EE00F0A3F090017AE030E71890016DE0FEA3A0
:1046FE00E0FFA3E0FCA3E0FD900175E0FAA3E0FB70
:10470E00801F900177E0FAA3E0FB64117003EA6466
:10471E0011601190016DE0FEA3E0FFA3E0FCA3E0A9
:10472E00FD125CEA90017AE025E0F0900179E03329
:10473E00F0900170E004F0700690016FE004F090CC
:10474E000181E0FEA3E0FFC3900170E09FFD9001A8
:10475E006FE09EFC900174E07A00B5051CEAB5048A
:10476E001890016FEEF0A3EFF090016EE004F07080
:10477E002890016DE004F0802090017EE004F0703E
:10478E000690017DE004F0C390017EE09408900154
:10479E007DE0940050030246F190017CE004F0703D
:0A47AE000690017BE004F00246BD16
:0147B80022DE
:10433200900160EEF0A3EFF0A3ECF0A3EDF0A3EB9D
:07434200F0A3EAF0A3E9F08B
:10434900E490016CF0900164E0FBA3E0FAA3E0F9CA
:104359001206B8FF70030244B990016CE0600302D1
:104369004419EFD3948040057401F080D89001621C
:10437900E0FCA3E0FDD39440EC940140030244B96E
:104389001206B8FB900167E0900172F0900168E0B5
:10439900FFA3E0900173CFF0A3EFF090016AE0FF73
:1043A900A3E0900175CFF0A3EFF0900160E0FEA3C8
:1043B900E0FF123401900165E475F001120787905E
:1043C9000167E0FFB40808900161E024068009EF65
:1043D900C313FF900161E02FF0900160E03400F019
:1043E900D3900161E094F0900160E09400500302E1
:1043F900434E90016574FFF5F0120787900167E05D
:10440900FF900163E02FF0900162E034000244AEB6
:10441900E490016CF0900162E0FCA3E0FDD39440CC
:10442900EC940140030244B9900164E0FBA3E0FA73
:10443900A3E0F9A3E0900174F0900168E0FFA3E024
:10444900900175CFF0A3EFF090016AE0FFA3E0902F
:104459000177CFF0A3EFF0900160E0FEA3E0FF1237
:104469004640900165E475F002120787900167E004
:10447900FF7E00900161E02FF0900160E03EF0D3F3
:10448900A3E094F0900160E09400500302434E9041
:10449900016574FF75F0FE120787900163E02FF044
:1044A900900162E03EF0E4900160F0A3F002434E17
:0144B90022E0
:101C3D000000000000000000000000000000000097
:101C4D000000000000001FCC000C00000000000090
:101C5D000000080030006000080030006000000047
:101C6D00022003FC1E20022003FC1E200220000087
:101C7D0000000E1811043FFF10840C7800000000C6
:101C8D000F0010840F3800C007781884007800000A
:101C9D0000780F8410C411240E9800E4008400080D
:101CAD000800680070000000000000000000000047
:101CBD0000000000000007E018182004400200009A
:101CCD00000040022004181807E00000000000008A
:101CDD000240024001800FF00180024002400000EE
:101CED000080008000800FF80080008000800000E0
:101CFD000001000D000E00000000000000000000BB
:101D0D000000008000800080008000800080008046
:101D1D000000000C000C000000000000000000009E
:101D2D000000000600180060018006001800200069
:101D3D00000007F0080810041004080807F0000060
:101D4D000000080408041FFC00040004000000004B
:101D5D0000000E0C10141024104411840E0C000001
:101D6D0000000C1810041104110412880C700000EE
:101D7D00000000E00320042408241FFC00240000C0
:101D8D0000001F98108411041104108810700000B9
:101D9D00000007F008881104110418880070000075
:101DAD0000001C00100010FC13001C0010000000AF
:101DBD0000000E3811441084108411440E380000B8
:101DCD0000000700088C10441044088807F000003C
:101DDD00000000000000030C030C000000000000D8
:101DED0000000000000101060000000000000000DE
:101DFD0000000080014002200410080810040000BB
:101E0D0002200220022002200220022002200000D7
:101E1D00000010040808041002200140008000009A
:101E2D0000000E001200100C106C10800F0000004E
:101E3D0003E00C1813E4142417C4082807D000007D
:101E4D000004003C03C41C40074000E4001C0004D7
:101E5D0010041FFC1104110411040E880070000001
:101E6D0003E00C1810041004100410081C100000DE
:101E7D0010041FFC100410041004080807F00000E3
:101E8D0010041FFC1104110417C4100408180000DD
:101E9D0010041FFC1104110017C0100008000000F1
:101EAD0003E00C181004100410441C7800400000CE
:101EBD0010041FFC10840080008010841FFC10048F
:101ECD000000100410041FFC10041004000000009A
:101EDD0000030001100110011FFE10001000000092
:101EED0010041FFC110403801464181C100400005E
:101EFD0010041FFC1004000400040004000C00007A
:101F0D0010041FFC1F0000FC1F001FFC100400002C
:101F1D0010041FFC0C04030000E010181FFC10003F
:101F2D0007F00808100410041004080807F000005A
:101F3D0010041FFC10841080108010800F00000012
:101F4D0007F0081810241024101C080A07F20000CE
:101F5D0010041FFC1104110011C011300E0C0004EF
:101F6D0000000E1C11041084108410441C38000055
:101F7D001800100010041FFC1004100018000000C1
:101F8D0010001FF810040004000410041FF81000C6
:101F9D0010001E0011E0001C007013801C001000CA
:101FAD001FC0103C00E01F0000E0103C1FC00000EF
:101FBD001004180C163401C001C01634180C10048E
:101FCD0010001C00130400FC13041C001000000082
:101FDD000804101C1064108413041C041018000055
:101FED000000000000007FFE4002400240020000A1
:101FFD00000030000C0003800060001C0003000096
:10200D0000004002400240027FFE00000000000080
:10201D0000000000200040004000400020000000B3
:10202D00000100010001000100010001000100019B
:10203D0000004000400020000000000000000000F3
:10204D0000000098012401440144014400FC0004F7
:10205D0010001FFC008801040104008800700000BE
:10206D0000000070008801040104010400880000D4
:10207D000000007000880104010411081FFC000419
:10208D00000000F8014401440144014400C800006F
:10209D000000010401040FFC1104110411001800CB
:1020AD00000000D601290129012901C901060000FE
:1020BD0010041FFC008401000100010400FC000459
:1020CD0000000104190419FC0004000400000000C4
:1020DD000000000300010101190119FE00000000BC
:1020ED0010041FFC0024004001B4010C0104000089
:1020FD000000100410041FFC000400040000000088
:10210D00010401FC0104010001FC0104010000FCBB
:10211D00010401FC008401000100010400FC000425
:10212D00000000F8010401040104010400F800009E
:10213D00010101FF00850104010400880070000009
:10214D0000000070008801040104010501FF000179
:10215D000104010401FC0084010401000180000060
:10216D00000000CC01240124012401240198000069
:10217D0000000100010007F8010401040000000047
:10218D00010001F8000400040004010801FC000432
:10219D00010001800170000C001001600180010040
:1021AD0001F0010C003001C00030010C01F0010004
:1021BD0000000104018C00740170018C0104000009
:1021CD00010101810171000E001801600180010003
:1021DD0000000184010C013401440184010C000054
:1021ED00000000000000000001003EFC4002400223
:1021FD000000000000000000FFFF000000000000D4
:10220D000000400240023EFC010000000000000002
:10221D000000600080008000400040002000200091
:0D62CF00C295C2948FB0C296D296D294228E
:0C619C00E0FF7E001261A8E0FEA3E0FF1F
:0D61A800D295C2948FB0C296D296D29422A6
:0762AE001262B57D017F19AA
:0A62B5001262CFAE04AF050261A82B
:1061FA003ECF2401FDE43FFCE0FEA3E0FF125ED2A5
:05620A007F220262CFBB
:036345000261A84A
:0B5EC700E0FEA3E0FFA3E0FCA3E0FD71
:105ED200AB05AA048F828E83E583FD7C007F0212CC
:105EE20062B5AF82AD07FC7F031262B5EAFD7C00AA
:0F5EF2007F061262B5AF03AD07FC7F070262B5F2
:0B5F94007C007F1F1262B57F057E00BD
:105F9F00E4FDFCC3ED9FEC9E5015E4FBFA0BBB0038
:0F5FAF00010ABA04F8BB75F50DBD00010C80E4C2
:015FBE0022C0
:103FE5007F327E00125F9F7D017C00E4FF1262B587
:103FF5007F32FE125F9F9000477F64125F9FE582CC
:10400500644745836003024199FDFC7FEA1262B56E
:104015007D207FEB1262B57D0C7FEC1262B57DC40D
:104025007FED1262B57D407FE81262B57D387FE98C
:104035001262B57D017FF11262B57D107FF21262C9
:10404500B57DA37F271262B5FD7F401262B57F4122
:104055001262B50D7F421262B57D127F431262B5C1
:104065007D107F441262B57D267F451262B57D08BD
:104075007F461262B57D537F471262B57D027F4848
:104085001262B57D157F491262B57D197F4A1262AC
:10409500B57F4B1262B57D167F4C1262B57D197FD7
:1040A500501262B57D2F7F511262B57D2D7F521260
:1040B50062B57D3E7F531262B50D7F541262B57FA6
:1040C500551262B57D2C7F561262B57D777F5712EA
:1040D50062B57D097F581262B57D067F591262B5BA
:1040E5007F5A1262B57D0A7F5B1262B57D1D7F5CCA
:1040F5001262B57DCC7F5D1262B57D1B7F1B12629E
:10410500B57D017F1A1262B57D2F7F241262B57DC0
:10411500577F251262B57D977F231262B57D367F65
:10412500181262AE7D887F1F1262B57F05FE125F91
:104135009F7D80125F947D90125F947DD0125F9475
:104145007D057C007F171262B5E4FD7F361262B5EE
:104155007D387F281262B57F28FE125F9F7D3C7CEB
:10416500001262B5E4FD7F021262B57F031262B5EB
:104175007F041262B57DEF7F051262B5FD7F0612E1
:1041850062B57F071262B50D7F081262B57D3F7F6C
:0B419500091262AE7F327E00025F9FC5
:08553600900021EEF0A3EFF05C
:10553E00A31208B600000000E4FDFCFFFE125ED2CE
:10554E0012620A9000231208B600000000E47F40A9
:10555E007E01FDFC900023E0F8A3E0F9A3E0FAA39E
:10556E00E0FBC312085A506D9000271208B60000D7
:10557E000000E47FF0FEFDFC900027E0F8A3E0F9C8
:10558E00A3E0FAA3E0FBC312085A502790002112A1
:10559E00619C900027E0FCA3E0FDA3E0FEA3E024C5
:1055AE0001FFE43EFEE43DFDE43CFC9000271208C2
:1055BE00AA80BF900023E0FCA3E0FDA3E0FEA3E0E1
:1055CE002401FFE43EFEE43DFDE43CFC900023128A
:0555DE0008AA02555B64
:0155E30022A5
:105CD400900027E0FEA3E0FFA3E0FCA3E0FD90001A
:065CE4002FE0FAA3E0FB33
:105CEA00900285EAF0A3EBF0900283EEF0A3EFF0C6
:105CFA00C394F0EE94005021C3ED9440EC9401500B
:105D0A0018900283126202900285E0FF7E001263FD
:0A5D1A0045E0FEA3E0FF12634522FE
:10396D00900029ECF0A3EDF0900027EEF0A3EFF01E
:08397D0090002BEAF0A3EBF02F
:10398500D3EF9BEE9A402790002BE0FEA3E0FF903B
:103995000035EEF0A3EFF0900027E0FDA3E09000E6
:1039A5002BCDF0A3EDF0900027EEF0A3EFF0900003
:1039B5002DE0FEA3E0FF900029E0FCA3E0FDD39FEE
:1039C500EC9E4018900035EEF0A3EFF090002DEC42
:1039D500F0A3EDF0900029EEF0A3EFF0900027E0C2
:1039E500FEA3E0FFC390002CE09FFF90002BE09E1C
:1039F500900031F0FAA3EFF0FB900029E0FEA3E080
:103A0500FFC390002EE09FFF90002DE09E900033B5
:103A1500F0A3EFF0EB4A7027125CD490002AE00483
:103A2500F07006900029E004F0900029E0FEA3E084
:103A3500FFC390002EE09F90002DE09E50DA22906B
:103A45000033E07002A3E07027125CD4900028E0F8
:103A550004F07006900027E004F0900027E0FEA334
:103A6500E0FFC390002CE09F90002BE09E50DA22EF
:103A7500900033E0FEA3E0FF900031E0FCA3E0FD01
:103A8500D39FEE6480F8EC6480985003023B30EFDE
:103A950025E0FFEE33FEC3EF9DFFEE9C900035F071
:103AA500A3EFF090002BE0FCA3E0FD900027E0FEE3
:103AB500A3E0FF6D7002EE6C7003023BDD125CDC6F
:103AC500900028E004F07006900027E004F0D39001
:103AD5000036E09400900035E0648094804030909A
:103AE500002AE004F07006900029E004F09000320E
:103AF500E025E0FD900031E033FC900034E025E066
:103B0500FF900033E033FEC3EF9DFFEE9C800C90E9
:103B15000034E025E0FF900033E033FE900036E00E
:103B25002FF0900035E03EF0023AA8900032E025F3
:103B3500E0FF900031E033FE900033E0FCA3E0FDB0
:103B4500C3EF9DFFEE9CA3F0A3EFF090002DE0FEE8
:103B5500A3E0FF900029E0FCA3E0FD6F7002EC6E8E
:103B65006076900027E0FEA3E0FF125CE290002A59
:103B7500E004F07006900029E004F0D3900036E0F0
:103B85009400900035E0648094804030900028E0F7
:103B950004F07006900027E004F0900032E025E084
:103BA500FD900031E033FC900034E025E0FF90000B
:103BB50033E033FEC3EF9DFFEE9C800C900034E0B4
:103BC50025E0FF900033E033FE900036E02FF090C3
:0B3BD5000035E03EF0023B50125CD4D3
:013BE00022C2
:104F0100900049EEF0A3EFF090004DEBF090004BD4
:054F1100ECF0A3EDF03F
:104F1600900054ECF0A3EDF090004DE024E0F0E4B6
:104F2600F990004DE075F010A4243DF582E5F034CB
:104F36001CF583E58229F582E43583F583E49390B5
:104F46000052F0E4A3F0900052E030E718900049D8
:104F5600E0FEA3E0FFA3E0FCA3E0FD90004EE0FA34
:104F6600A3E0FB801F900050E0FAA3E0FB64117001
:104F760003EA64116011900049E0FEA3E0FFA3E09C
:104F8600FCA3E0FD125CEA900052E025E0F0900000
:104F96004CE004F0700690004BE004F0C390004A29
:104FA600E094F0900049E094005056900054E0FEE2
:104FB600A3E0FFC390004CE09FFD90004BE09EFCF9
:104FC600ED64104C7023EEF0A3EFF090004AE0047D
:104FD600F07006900049E004F0C390004AE0944067
:104FE600900049E09401401022900053E004F0E064
:104FF600C394085003024F4C09E964106003024F42
:015006002782
:015007002286
:10548000900017EEF0A3EFF0A3ECF0A3EDF0A3EB88
:07549000F0A3EAF0A3E9F02C
:1054970090001BE0FBA3E475F00112079DA9F0FA49
:1054A7001206B8FB900019E0FCA3E0FD90001EE097
:1054B700FFA3E090004ECFF0A3EFF0900020E0FFB5
:1054C700A3E0900050CFF0A3EFF0900017E0FEA309
:1054D700E0FF124F01C3900018E094E8900017E036
:1054E7009400500AA3E02408F09000178020C3908E
:1054F700001AE09430900019E09401E490001750EE
:1055070013F0A3F090001AE02410F0900019E03493
:1055170000F08007F0A3F0A3F0A3F090001BE0FBDE
:0E552700A3E0FAA3E0F91206B860030254975D
:015535002253
:104B8B00900002EEF0A3EFF0A3ECF0A3EDF0A3EA9C
:044B9B00F0A3EBF0A8
:104B9F00E490000EF0A3F09000141208B60000008D
:104BAF0000900002125EC712620AC2A47F03125F56
:104BBF007A90000AE0FCA3E0FDA3E0FEA3E0FF78FB
:104BCF001012086B125F7A90000AE0FCA3E0FDA3BD
:104BDF00E0FEA3E0FF780812086B125F7A90000ADC
:104BEF00A3A3A3E0FF125F7A9000101208B6000093
:104BFF000000900008E0FEA3E0FFE4FCFD90001031
:104C0F00E0F8A3E0F9A3E0FAA3E0FBC312085A40CF
:104C1F0003024CC49000141208B60000000090006C
:104C2F0006E0FEA3E0FFE4FCFD900014E0F8A3E033
:104C3F00F9A3E0FAA3E0FBC312085A503C1261CD6E
:104C4F0090000FEFF01261CD90000EEFF07E00128A
:104C5F0061A8A3E0FF1261A8900014E0FCA3E0FD9F
:104C6F00A3E0FEA3E02401FFE43EFEE43DFDE43CAF
:104C7F00FC9000141208AA80A5900010A3A3E0FED8
:104C8F00A3E0FF900005E02FFF900004E0900002EA
:104C9F001261FA900010E0FCA3E0FDA3E0FEA3E098
:104CAF002401FFE43EFEE43DFDE43CFC90001012C5
:074CBF0008AA024C01D2A477
:014CC60022CB
:10520400900160EEF0A3EFF0A3ECF0A3EDF0A3EABD
:04521400F0A3EBF028
:1052180090016E1208B600000000900160125EC78F
:1052280012620A90016A1208B60000000090016636
:10523800E0FEA3E0FFE4FCFD90016AE0F8A3E0F9DA
:10524800A3E0FAA3E0FBC312085A40030252E3901A
:10525800016E1208B600000000900164E0FEA3E0B1
:10526800FFE4FCFD90016EE0F8A3E0F9A3E0FAA3E7
:10527800E0FBC312085A502790016812619C900104
:105288006EE0FCA3E0FDA3E0FEA3E02401FFE43E02
:10529800FEE43DFDE43CFC90016E1208AA80BA9041
:1052A800016AA3A3E0FEA3E0FF900163E02FFF9053
:1052B8000162E09001601261FA90016AE0FCA3E0EB
:1052C800FDA3E0FEA3E02401FFE43EFEE43DFDE48F
:0B52D8003CFC90016A1208AA0252354B
:0152E30022A8
:10311F0090001BEAF0A3EBF0900017EEF0A3EFF096
:10312F00A3ECF0A3EDF0C006C007A3E0FEA3E0FF01
:10313F00900017E0FAA3E02FFBEA3EFAA3E0FFA30B
:10314F00E090002DCFF0A3EFF090001FE0FFA3E081
:10315F0090002FCFF0A3EFF0D007D00612396D906B
:10316F000018E02401FF900017E03400FEC006C0F5
:10317F000790001AE02401FD900019E03400FC9044
:10318F00001BE0FEA3E0FF900017E0FAA3E02FFF83
:10319F00EA3ECF24FFFBEF34FFFAA3E0FEA3E024C7
:1031AF0001FFE43E90002DF0A3EFF090001FE0FF31
:1031BF00A3E090002FCFF0A3EFF0D007D006123985
:1031CF006D900017E0FAA3E0FBFFAE02C006C00748
:1031DF00A3E0FCA3E0FD90001DE0FEA3E0FF900044
:1031EF0019E0F8A3E02FFFE83E90002DF0A3EFF0D9
:1031FF0090001FE0FFA3E090002FCFF0A3EFF0D0DF
:10320F0007D00612396D900018E02401FB900017CB
:10321F00E03400FAAF03FEC006C00790001AE024A6
:10322F0001FD900019E03400FC90001DE0FEA3E0CA
:10323F00FF900019E0F8A3E02FFFE83ECF24FFCF67
:10324F0034FF90002DF0A3EFF090001FE0FFA3E0FC
:10325F0090002FCFF0A3EFF0D007D00612396D906A
:10326F00001DE0FEA3E0FF90001AE02FFD90001973
:10327F00E03EFC90001BE0FEA3E0FF900017E0FA99
:10328F00A3E02FFBEA3EFA90001DE0FEA3E0FF90C3
:10329F000019E0F8A3E02FFFE83E90002DF0A3EF18
:1032AF00F090001FE0FFA3E090002FCFF0A3EFF00E
:1032BF00900017E0FEA3E0FF12396D900018E02494
:1032CF0001FF900017E03400FEC006C00790001DFC
:1032DF00E0FEA3E0FF90001AE02FFF900019E03E00
:1032EF00CF24FFFDEF34FFFC90001BE0FEA3E0FFB7
:1032FF00900017E0FAA3E02FFFEA3ECF24FFFBEF89
:10330F0034FFFA90001DE0FEA3E0FF900019E0F8F3
:10331F00A3E02FFFE83ECF24FFCF34FF90002DF026
:10332F00A3EFF090001FE0FFA3E090002FCFF0A3DA
:10333F00EFF0D007D00612396D90001BE0FEA3E02E
:10334F00FF900018E02FFB900017E03EFAAF03FE4E
:10335F00C006C007900019E0FCA3E0FD90001DE03F
:10336F00FEA3E0FF900019E0F8A3E02FFFE83E90E6
:10337F00002DF0A3EFF090001FE0FFA3E090002FCF
:10338F00CFF0A3EFF0D007D00612396D90001BE0FD
:10339F00FEA3E0FF900018E02FFF900017E03ECF54
:1033AF0024FFFBEF34FFFAAF03FEC006C007900007
:1033BF001AE02401FD900019E03400FC90001DE09C
:1033CF00FEA3E0FF900019E0F8A3E02FFFE83ECF47
:1033DF0024FFCF34FF90002DF0A3EFF090001FE0FB
:1033EF00FFA3E090002FCFF0A3EFF0D007D006029D
:0233FF00396D26
:105C86005F029CFF60DCFF510DFF13C300000000A4
:105C960000000000000000000000000000000000FE
:0A5CA60000004102BBD04102BC9097
:1060BF00EF7803C333CE33CED8F9FFE4FDFCC3ED45
:0C60CF009FEC9E50070DBD00010C80F2FC
:0160DB0022A2
:10618200E4FEEF30E704D2828002C282EF25E0FF14
:09619200C281D2810EEEB408E9CD
:01619B0022E1
:105D7300E4FDFBFAC281C282C2A61261827F067E63
:105D8300001260BFC2817F017E001260BFD281C258
:105D930081E4FDEB25E0FBEA33FAC281D281308353
:105DA300050BBB00010A0DEDB410E8EAC4F854F08A
:0D5DB300C868FAEBC4540F48D2A6AE02FF38
:015DC00022C0
:0241A000A9076D
:1041A200E490003FF0A3F0900033F0A3F0AF0112CF
:1041B2005D73AC06AD07900034E025E0FF9000335C
:1041C200E033FE74352FF58274003EF583ECF0A3E4
:1041D200EDF0900034E004F07006900033E004F05B
:1041E200C3900034E09405900033E0940040BEE4B4
:1041F200900033F0A3F0900033E0FEA3E0FFC394FD
:1042020004EE940040030242CCEF2401FFE43EADF1
:1042120007FCC3ED9405EC940040030242B8ED257F
:10422200E0FFEC33FE74352FF58274003EF583E037
:10423200FAA3E0FB900034E025E0FF900033E03386
:10424200FE74352FF58274003EF583E0FEA3E0FF95
:10425200D39BEE9A4058900041EEF0A3EFF0ED258B
:10426200E0FFEC33FE74352FF58274003EF583E0F7
:10427200FAA3E0FB900034E025E0FF900033E03346
:10428200FE74352FF58274003EF583EAF0A3EBF05D
:10429200900041E0FAA3E0FBED25E0FFEC33FE7471
:1042A200352FF58274003EF583EAF0A3EBF00DBDE5
:1042B20000010C024214900034E004F06003024159
:1042C200F8900033E004F00241F8E490003FF0A3DC
:1042D200F0900033F0A304F0900033E0FEA3E0FF7F
:1042E200C39404EE94005032EF25E0FFEE33FE74E7
:1042F200352FF58274003EF583E0FEA3E0FF9000C7
:1043020040E02FF090003FE03EF0900034E004F0F7
:1043120070C6900033E004F080BE90003FE0FEA340
:0F432200E0FF7C007D03120732A3EEF0A3EFF063
:014331002269
:0B5D240090002BEBF0A3EAF0A3E9F0E5
:105D2F009002BBE0FF1241A0900031EEF0A3EFF024
:105D3F009002BCE0FF1241A0900031E0F9A3E0FD1A
:105D4F0090002BE0FBA3E0FAA3E0C98DF01207DE71
:105D5F0090002EE0FBA3E0FAA3E0F9EE8FF012071C
:035D6F00DE7F01D3
:015D7200220E
:104905009000207401F0A37402F0A374ABF07B0156
:044915007A0279A900
:0B49190090001DEBF0A3EAF0A3E9F012
:1049240090002E7401F0A37400F0A37425F07B01B1
:104934007A007923125D24EF7002FF2290002E7416
:1049440001F0A37400F0A37429F07B017A007927A5
:10495400125D24EF7002FF22900023E0FEA3E0FF2B
:10496400900027E0FCA3E0FDD39FEC9E500EED24C5
:1049740032FDE43CFCC3EF9DEE9C402A900027E00E
:10498400FEA3E0FF900023E0FCA3E0FDD39FEC9E98
:104994004003024A47ED2432FDE43CFCC3EF9DEEA4
:1049A4009C4003024A47900025E0FEA3E0FF9000EC
:1049B40029E0FCA3E0FDD39FEC9E500EED2432FDD4
:1049C400E43CFCC3EF9DEE9C4024900029E0FEA350
:1049D400E0FF900025E0FCA3E0FDD39FEC9E506334
:1049E400ED2432FDE43CFCC3EF9DEE9C5055900059
:1049F40027E0FEA3E0FF900024E02FFF900023E0D7
:104A04003EC313F9EF13FF90001DE0FBA3E0FAA3EC
:104A1400E0C98FF01207DE900029E0FEA3E0FF90CA
:104A24000026E02FFF900025E03EC313F9EF13FFAB
:104A3400900020E0FBA3E0FAA3E0C98FF01207DEA8
:054A44007F01227F004C
:014A4900224A
:104A4A00E4900010F07D047C0174FFFBFA7F047E81
:014A5A00015A
:104A5B00900021EEF0A3EFF0900025EAF0A3EBF02D
:104A6B00900023ECF0A3EDF0900021E0FAA3E0FB23
:104A7B0024F4FFEA34FFFEC007EB240DFBE43AFA03
:104A8B00A3E0FFA3E090002DCFF0A3EFF090002563
:104A9B00E0FFA3E090002FCFF0A3EFF0D007123987
:104AAB006D900021E0FAA3E0FBFFAE02C006C00749
:104ABB00900024E024F4FD900023E034FFFCE0FEA2
:104ACB00A3E0240DFFE43E90002DF0A3EFF0900047
:104ADB0025E0FFA3E090002FCFF0A3EFF0D007D09D
:104AEB000612396D900022E02401FF900021E03482
:104AFB0000FE900024E02401FD900023E03400FC34
:104B0B00900025E0FAA3E0FB125CEA900022E0247F
:104B1B00FFFF900021E034FFFE900024E02401FD14
:104B2B00900023E03400FC900025E0FAA3E0FB1298
:104B3B005CEA900022E02401FF900021E03400FEAB
:104B4B00900024E024FFFD900023E034FFFC900054
:104B5B0025E0FAA3E0FB125CEA900022E024FFFFC1
:104B6B00900021E034FFFE900024E024FFFD900034
:104B7B0023E034FFFC900025E0FAA3E0FB025CEAA3
:105A280090000FEEF0A3EFF0A3ECF0A3EDF0A3EAE3
:105A3800F0A3EBF0125CEA900010E02401FF900064
:105A48000FE03400FE900011E0FCA3E0FDA3E0FAB3
:105A5800A3E0FB125CEA90000FE0FEA3E0FF9000D9
:105A680012E02401FD900011E03400FC900013E0E6
:105A7800FAA3E0FB125CEA900010E02401FF90001A
:105A88000FE03400FE900012E02401FD900011E0C8
:0E5A98003400FC900013E0FAA3E0FB025CEA8D
:10510D0030A5030251DBEF60061249050251B112C1
:10511D004905EF70030251B19002A9E0FCA3E0FD37
:10512D00E41203569002AEE0F8A3E0F9A3E0FAA36F
:10513D00E0FB12013EC004C005C006C0079002B6D8
:10514D00E0FCA3E0FDEC120356D003D002D001D059
:10515D000012004D12038F9002A9EEF0A3EFF0A301
:10516D00E0FCA3E0FDE41203569002B2E0F8A3E0E8
:10517D00F9A3E0FAA3E0FB12013EC004C005C0068E
:10518D00C0079002B8E0FCA3E0FDEC120356D0037B
:10519D00D002D001D00012004D12038F9002ABEE61
:1051AD00F0A3EFF09002ADE020E74474C0F0900260
:1051BD00A9E0FFA3E09002A5CFF0A3EFF09002AB22
:1051CD00E0FFA3E09002A7CFF0A3EFF080219002C3
:1051DD00ADE030E705547FF08015E49002A5F0A313
:1051ED00F0A3F0A3F074FFA3F0A3F0A3F0A3F0904D
:0751FD0002ADE05480FF2227
:1013C300E4900010F0F074FFFFFE1255367B007AB4
:1013D300F87D3C7C007F3C7E00124A5BE49002ADCA
:1013E300F0A31208B60000000090029FA3E0FAA346
:1013F300E0F5828A837F0112095E9002ADE0FF541B
:10140300C0FEBE40E4EF54BFF09002A9E0FEA3E0AB
:10141300FF900010E0FD25E025E02400F582E43490
:1014230000F583EEF0A3EFF09002ABE0FEA3E0FF44
:10143300ED25E025E02402F582E43400F583EEF0A7
:10144300A3EFF0900010E004F0E024FE60231460AA
:101453003214604D2403709174FFFBFA7D3C7C00D1
:101463007F3C7E00124A5B7B007AF87D3C7C0080E7
:10147300297D3C7C00124A537B007AF87D047C0171
:101483000216AC74FFFBFA7D047C017F3C7E0012E4
:101493004A5B7B007AF87D047C017F047E01021A9B
:1014A300A6900004E0FEA3E0FFC3900001E09FFFCD
:1014B300900000E09EFE126303EE3395E0FDFC9086
:1014C30000151208AA900006E0FEA3E0FFC39000F7
:1014D30003E09FFF900002E09EFE126303EE33954C
:1014E300E0FDFC9000191208AA900015E0FCA3E0AF
:1014F300FDA3E0FEA3E0FFA804A905AA06FB1207CB
:10150300FD9000151208AA900019E0FCA3E0FDA3CA
:10151300E0FEA3E0FFA804A905AA06FB1207FD90BD
:1015230000191208AA900019E0FCA3E0FDA3E0FE55
:10153300A3E0FF900015E0F8A3E0F9A3E0FAA3E02D
:101543002FFFEA3EFEE93DFDE83CFCE412035112A5
:10155300569612038F900011EEF0A3EFF090000C5B
:10156300E0FEA3E0FFC3900009E09FFF900008E0C6
:101573009EFE126303EE3395E0FDFC900015120806
:10158300AA90000EE0FEA3E0FFC390000BE09FFFD4
:1015930090000AE09EFE126303EE3395E0FDFC909B
:1015A30000191208AA900015E0FCA3E0FDA3E0FED9
:1015B300A3E0FFA804A905AA06FB1207FD900015E6
:1015C3001208AA900019E0FCA3E0FDA3E0FEA3E04B
:1015D300FFA804A905AA06FB1207FD90001912082B
:1015E300AA900019E0FCA3E0FDA3E0FEA3E0FF90B6
:1015F3000015E0F8A3E0F9A3E0FAA3E02FFFEA3E29
:10160300FEE93DFDE83CFCE4120351125696120339
:101613008F900013EEF0A3EFF0900011E0FCA3E035
:10162300FDE4120356C004C005C006C007900013B2
:10163300E0FCA3E0FDE4120356A804A905AA06AB47
:1016430007D007D006D005D00412024790001D1220
:1016530008AA7F337E337D737C3F90001DE0F8A39F
:10166300E0F9A3E0FAA3E0FB1202E440317F667ED7
:10167300667D867C3F90001DE0F8A3E0F9A3E0FAC5
:10168300A3E0FB1202E460025014900011E0700228
:10169300A3E0600A900013E07002A3E07012124A04
:1016A3004A7B007AF87D3C7C007F3C7E00021AA6D0
:1016B300900008E0FEA3E0FFC3900001E09FFF90CD
:1016C3000000E09EFE126303EE3395E0FDFC900004
:1016D300151208AA90000AE0FEA3E0FFC3900003DE
:1016E300E09FFF900002E09EFE126303EE3395E05D
:1016F300FDFC9000191208AA900015E0FCA3E0FD80
:10170300A3E0FEA3E0FFA804A905AA06FB1207FDB8
:101713009000151208AA900019E0FCA3E0FDA3E0D5
:10172300FEA3E0FFA804A905AA06FB1207FD90008B
:10173300191208AA900019E0FCA3E0FDA3E0FEA3A0
:10174300E0FF900015E0F8A3E0F9A3E0FAA3E02F8F
:10175300FFEA3EFEE93DFDE83CFCE412035112566C
:101763009612038F900011EEF0A3EFF090000CE0BF
:10177300FEA3E0FFC3900005E09FFF900004E09EFE
:10178300FE126303EE3395E0FDFC9000151208AAE8
:1017930090000EE0FEA3E0FFC3900007E09FFF90E0
:1017A3000006E09EFE126303EE3395E0FDFC90001D
:1017B300191208AA900015E0FCA3E0FDA3E0FEA324
:1017C300E0FFA804A905AA06FB1207FD9000151265
:1017D30008AA900019E0FCA3E0FDA3E0FEA3E0FF4C
:1017E300A804A905AA06FB1207FD9000191208AA6E
:1017F300900019E0FCA3E0FDA3E0FEA3E0FF90004E
:1018030015E0F8A3E0F9A3E0FAA3E02FFFEA3EFE18
:10181300E93DFDE83CFCE412035112569612038F96
:10182300900013EEF0A3EFF0900011E0FCA3E0FDB5
:10183300E4120356C004C005C006C007900013E0BD
:10184300FCA3E0FDE4120356A804A905AA06AB070E
:10185300D007D006D005D00412024790001D12080D
:10186300AA7F337E337D737C3F90001DE0F8A3E0B5
:10187300F9A3E0FAA3E0FB1202E4401D7F667E6653
:101883007D867C3F90001DE0F8A3E0F9A3E0FAA376
:10189300E0FB1202E460144012124A4A7B007AF819
:1018A3007D3C7C007F3C7E00021AA6900008E0FE8F
:1018B300A3E0FFC3900005E09FFF900004E09EFEBD
:1018C300126303EE3395E0FDFC9000151208AA9015
:1018D300000AE0FEA3E0FFC3900007E09FFF900033
:1018E30006E09EFE126303EE3395E0FDFC900019C3
:1018F3001208AA900015E0FCA3E0FDA3E0FEA3E01C
:10190300FFA804A905AA06FB1207FD9000151208FB
:10191300AA900019E0FCA3E0FDA3E0FEA3E0FFA86A
:1019230004A905AA06FB1207FD9000191208AA9044
:101933000019E0FCA3E0FDA3E0FEA3E0FF90001587
:10194300E0F8A3E0F9A3E0FAA3E02FFFEA3EFEE903
:101953003DFDE83CFCE412035112569612038F90AE
:101963000011EEF0A3EFF090000CE0FEA3E0FFC344
:10197300900001E09FFF900000E09EFE126303EEE3
:101983003395E0FDFC9000151208AA90000EE0FECE
:10199300A3E0FFC3900003E09FFF900002E09EFEE0
:1019A300126303EE3395E0FDFC9000191208AA9030
:1019B3000015E0FCA3E0FDA3E0FEA3E0FFA804A95B
:1019C30005AA06FB1207FD9000151208AA9000193C
:1019D300E0FCA3E0FDA3E0FEA3E0FFA804A905AAA1
:1019E30006FB1207FD9000191208AA900019E0FCEB
:1019F300A3E0FDA3E0FEA3E0FF900015E0F8A3E061
:101A0300F9A3E0FAA3E02FFFEA3EFEE93DFDE83C3F
:101A1300FCE412035112569612038F900013EEF05A
:101A2300A3EFF0900011E0FCA3E0FDE4120356C025
:101A330004C005C006C007900013E0FCA3E0FDE46A
:101A4300120356A804A905AA06AB07D007D006D0EF
:101A530005D00412024790001D1208AA7F337E337B
:101A63007D737C3F90001DE0F8A3E0F9A3E0FAA3A7
:101A7300E0FB1202E4401D7F667E667D867C3F901C
:101A8300001DE0F8A3E0F9A3E0FAA3E0FB1202E4EF
:101A930060174015124A4A7B007AF87D3C7C007F30
:101AA3003C7E00124A5B0213EC900000E0FEA3E0D0
:101AB300FFC3900005E09FFD900004E09EFCE4124C
:101AC3000356A804A905AA06AB07E4FFFE7D487CDC
:101AD300431202479002AE1208AA900000E0FEA350
:101AE300E0FF900005E02FFD900004E03EFCE412CF
:101AF30003569002AEE0F8A3E0F9A3E0FAA3E0FBFB
:101B030012013EA804A905AA06AB07E4FFFE7DA0C7
:101B13007C43120049E4FBFAF978401202471203AE
:101B23008F9002B6EEF0A3EFF0900002E0FEA3E088
:101B3300FFC390000BE09FFD90000AE09EFCE412BF
:101B43000356A804A905AA06AB07E4FFFE7D487C5B
:101B5300431202479002B21208AA900002E0FEA3C9
:101B6300E0FF90000BE02FFD90000AE03EFCE41242
:101B730003569002B2E0F8A3E0F9A3E0FAA3E0FB76
:101B830012013EA804A905AA06AB07E4FFFE7DA047
:101B93007C43120049E4FBFAF9784012024712032E
:101BA3008F9002B8EEF0A3EFF09002AEE0FCA3E05A
:101BB300FDA3E0FEA3E0FF12038F126303D3EF94B0
:101BC30002EE64809480501F9002B2E0FCA3E0FD1B
:101BD300A3E0FEA3E0FF12038F126303D3EF94028B
:101BE300EE64809480403D124A4A7B007AF87D3C43
:101BF3007C007F3C7E00124A5B9002BAE070047F57
:101C03000180027F009002BAEFF0600BA37490F0A2
:101C1300A374D0F00213EC9002BB74D0F0A37490C1
:101C2300F00213EC74FFFFFE1255367FE87E0312B9
:091C3300606174FFFFFE125536DA
:011C3C002285
:10000E009002BB7490F0A374D0F09002B674FFF01F
:10001E00A374F4F09002AE1208B63DF973DA9002B2
:10002E00B87401F0A3744AF09002B21208B6BDAAD9
:03003E00F35E224C
:1060DC0090002E7401F0A37402F0A374ABF07B015A
:0D60EC007A0279A9125D2412000E7F0122B4
:0F61B5001392831261C4EBC313FB1261C4D28136
:0861C4007F207E1DDEFEDFFCE2
:0161CC0022B0
:0B4CC700900017EBF0A3EAF0A3E9F067
:104CD2007B017A00791A1257E8900017E0FBA3E0F3
:104CE200FAA3E0F974321206FE900017E0FBA3E08B
:104CF200FAA3E0F99000017430120710900020E04E
:104D0200FFC4540F2430900002120710EF540F24F6
:104D120030900003120710900004742F12071090B5
:104D2200001EE0FFC4540F2430900005120710EF5C
:104D3200540F2430900006120710900007742F12AF
:104D4200071090001DE0FFC4540F24309000081299
:104D52000710EF540F243090000912071090000A38
:104D6200742F12071090001CE0FFC4540F243090DF
:104D7200000B120710EF540F243090000C12071092
:104D820090000D743A12071090001BE0FFC4540FFC
:104D9200243090000E120710EF540F243090000FB1
:104DA200120710900010743A12071090001AE0FFD8
:104DB200C4540F2430900011120710EF540F243006
:104DC200900012120710900013742F120710900017
:104DD2001FE0540F2430900014120710900015E4C5
:034DE200020710B5
:0D61E400F9EF1207101261F1E4FF125DC126
:0861F1007F027E3BDEFEDFFCB5
:0161F9002283
:025E8B00AB0763
:105E8D00C2A71261C4C2811261C4D2A71261C47AC1
:105E9D0008C2811261C4A903E91261B5DAF37A0867
:105EAD00C2811261C4A905E91392831261C4EDC3C5
:095EBD0013FD1261BFDAE9C2A76E
:015EC60022B9
:025DC100AB072E
:105DC300C2A71261C4C2811261C4D2A71261C47A8C
:105DD30008C2811261C4EB1261B5DAF57A08D28187
:105DE3001261C4EDC313FD1261C4C2811261C430D8
:105DF30083054480FD8004ED547FFDDAE1C2A712E0
:045E030061C4AF05C2
:015E07002278
:1052E400900017EBF0A3EAF0A3E9F0E4FD7F8E123F
:1052F4005E8B1261F1900017E0FBA3E0FAA3E0F9E2
:105304001206B8FD7F80125E8B1261F1900017E0E7
:10531400FBA3E0FAA3E0F99000011206D1FD7F821D
:10532400125E8B1261F1900017E0FBA3E0FAA3E098
:10533400F99000021206D1FD7F84125E8B1261F196
:10534400900017E0FBA3E0FAA3E0F9900003120633
:10535400D1FD7F86125E8B1261F1900017E0FBA3F2
:10536400E0FAA3E0F99000041206D1FD7F88125EF2
:105374008B1261F1900017E0FBA3E0FAA3E0F9902F
:1053840000051206D1FD7F8A125E8B1261F1900036
:1053940017E0FBA3E0FAA3E0F99000061206D1FDA2
:0F53A4007F8C125E8B1261F17D807F8E025E8B9B
:1057E800900021EBF0A3EAF0A3E9F01261EC7F8DC1
:1057F800125DC1900021E0FBA3E0FAA3E09000064F
:105808001261E47F8B125DC1900021E0FBA3E0FAF6
:10581800A3E09000051261E47F89125DC190002128
:10582800E0FBA3E0FAA3E0F9900004EF12071012DE
:1058380061EC7F87125DC1900021E0FBA3E0FAA331
:10584800E0F99000031261E57F85125DC1900021A7
:10585800E0FBA3E0FAA3E0F99000021261E57F8380
:10586800125DC1900021E0FBA3E0FAA3E0F99000EB
:10587800011261E57F81125DC1900021E0FBA3E088
:08588800FAA3E0F9EF0206FEAD
:10629C00C2A7C281E4FD7F8E125E8B7D807F8E0251
:0262AC005E8B07
:03000B00025B9CF9
:105B9C00C0E0C0F0C083C082C0D075D000C000C0CF
:105BAC0001C002C003C004C005C006C007758AABA3
:105BBC00758C2FD2A69002F2E0C3945F402AE4F0D9
:105BCC00300A25C20A7B017A0279D7126289500405
:105BDC00D209800D7B017A0279D774FFFDFC125A31
:105BEC00A69002D7E4F0A3F09002F2E004F0D00704
:105BFC00D006D005D004D003D002D001D000D0D034
:095C0C00D082D083D0F0D0E03248
:1062BF00438901758AAB758C2FD2A9D2AFC28C22BC
:103E2400C8D5C0FA00CEC2B6C800B5E7BBB000CF53
:103E3400E0B2E100D3B2BCFEBCECB2E200BBADB078
:103E4400E500B4AEBFDAD6FACAD600535049D6FA62
:103E5400CAD6004C454400B5E7BBB0B9A6C4DCCE15
:103E6400B4BFAAB7C5A3A100CFE0B2E1B9A6C4DC30
:103E7400CEB4BFAAB7C5A3A100B4AEBFDAD6FACAFE
:103E8400D6CEB4BFAAB7C5A3A100535049D6FACA27
:103E9400D6CEB4BFAAB7C5004861726477617265B3
:103EA40020436865636B2052756E6E696E67002AE5
:103EB4002A2A2A2A2A2A466C617368204368656381
:103EC4006B2A2A2A2A2A2A2A0057323551383000E6
:103ED400573235513136005732355133320057326B
:103EE4003551363400466C617368204572726F72C6
:103EF400002A2A2A2ACAB1D6D3BCECB2E22A2A2A38
:103F04002A00B6C1C8A1CAB1BCE4D6D02E2E2E0058
:103F14002A2A2A2ACEC2B6C8BCECB2E22A2A2A2A03
:103F240000B6C1C8A1CEC2B6C8D6D02E2E2E00B5BA
:103F3400B1C7B0CEC2B6C8A3BA002A2A2A2A4C45B1
:103F440044BCECB2E22A2A2A2A004C45443120C15E
:103F5400C1004C45443220C1C1004C45443320C10A
:103F6400C1004C45442020B9D8002A2A2A2AB7E4A3
:103F7400C3F9C6F7B2E2CAD42A2A2A2A00BEAFB8C5
:103F8400E633C9F900D6DC00C9E8B6A8CFB5CDB38D
:103F9400CAB1BCE400A1F800A88B004E6578740097
:103FA4004F6B00D2D1C9E8B6A8CFB5CDB3CAB1BC66
:103FB400E4A3A100A1FB00A1F600A1FE004C45442E
:103FC400BFD8D6C6004C454431004C454432004C61
:103FD40045443300B9D800BFAA0000000000000027
:013FE40000DC
:105CB0005602BD00000000000000000000000000CF
:0B5CC000000000000000000000C1090F
:1026B000E4900000F0A3F0C28C74FFFFFE125536C8
:1026C000900008E4F0A37443F0A31208B600600C75
:1026D000A07B917A007D147C007F0A7E00124B8BD8
:1026E0007BFF7A3E79249001677410F074FFA3F0A9
:1026F000A3F07411A3F0A3F07D477C007F0A7E0055
:10270000124332900008E4F0A37443F0A31208B619
:10271000006058867B467A007D147C007FA07E0096
:10272000124B8B7BFF7A3E79299001677410F0740D
:10273000FFA3F0A3F07411A3F0A3F07D477C007F0A
:10274000A07E00124332900008E4F0A37444F0A38A
:102750001208B600607D2A7B467A007D5D7C007F92
:102760000A7E00124B8B7BFF7A3E792E90016774B4
:1027700010F074FFA3F0A3F07411A3F0A3F07D9107
:102780007C007F0A7E00124332900008E4F0A374BC
:1027900044F0A31208B60060A25A7B467A007D5D21
:1027A0007C007F557E00124B8B7BFF7A3E79339005
:1027B00001677410F074FFA3F0A3F07411A3F0A3E9
:1027C000F07D917C007F557E00124332900008E43A
:1027D000F0A37444F0A31208B60060C78A7B467A5F
:1027E000007D5D7C007FA07E00124B8B7BFF7A3EDC
:1027F00079389001677410F074FFA3F0A3F074119E
:10280000A3F0A3F07D917C007FA07E001243329064
:102810000008E4F0A37444F0A31208B60060ECBA18
:102820007B467A007DA67C007F0A7E00124B8B7B64
:10283000FF7A3E79419001677410F074FFA3F0A312
:10284000F07411A3F0A3F07DDA7C007F0A7E001201
:102850004332900008E4F0A37444F0A31208B600D9
:102860006111EA7B917A007DA67C007F557E001283
:102870004B8B7BFF7A3E79469001677410F074FFB2
:10288000A3F0A3F07411A3F0A3F07DDA7C007F55D0
:102890007E00124332900008E4F0A37441F0A312CA
:1028A00008B600615EF27B917A007DEF7C007F0AC2
:1028B0007E00124B8B7BFF7A3E794F90016774103C
:1028C000F074FFA3F0A3F07411A3F0A3F07D207CBB
:1028D000017F0A7E00124332900008E4F0A37441A5
:1028E000F0A31208B60061A8947B467A007DEF7CC5
:1028F000007FA07E00124B8B7BFF7A3E79579001C0
:10290000677410F074FFA3F0A3F07411A3F0A3F0A8
:102910007D207C017FA07E00124332125FBFD28CEB
:10292000E49002D3F0A3F0A3F0A3F0900000E0B491
:102930000B0FA3E0B4FF0A125FBFE4900000F0A306
:10294000F0900001E004F07006900000E004F01246
:1029500053B39002D3E0FEA3E0FFC3940AEE9400C9
:102960004011D3EF9450EE940050089002D3E4F05D
:10297000A304F09002D3E0FEA3E0FFC39455EE94CD
:10298000004012D3EF949BEE940050099002D3E4E0
:10299000F0A37402F09002D3E0FEA3E0FFC394A082
:1029A000EE94004012D3EF94DCEE940050099002B4
:1029B000D3E4F0A37403F09002D5E0FEA3E0FFC3DC
:1029C000941EEE94004011D3EF9458EE94005008FA
:1029D0009002D5E4F0A304F09002D5E0FEA3E0FF5E
:1029E000C3945DEE94004012D3EF94A1EE94005096
:1029F000099002D5E4F0A37402F09002D5E0FEA3A2
:102A0000E0FFC394A6EE94004012D3EF94EAEE9454
:102A10000050099002D5E4F0A37403F09002D5E0D1
:102A2000FEA3E0FFC394EFEE94004012D3EF943383
:102A3000EE940150099002D5E4F0A37404F09002E2
:102A4000D5E0FEA3E0FFEE6003022920EF24FE6044
:102A50003B14606B147003022AF224036003022902
:102A6000209002D3E0FEA3E0FFEE6003022920EFF6
:102A700024FE600C14600F240260030229208000F1
:102A80001244BA022920124DE50229209002D3E017
:102A9000FEA3E0FFEE6003022920EF24FE60121483
:102AA0006017240260030229207BFF7A3E795B8055
:102AB0006C7BFF7A3E796C8064122E2D0226B790D3
:102AC00002D3E0FEA3E0FFEE6003022920EF24FE24
:102AD0006010146015240260030229201236B70228
:102AE00029207BFF7A3E797D80337BFF7A3E797D9A
:102AF000802B9002D3E0FEA3E0FFEE6003022920CA
:102B0000EF24FE601214601F240260030229207B60
:102B1000FF7A3E798E80067BFF7A3E798E74FFFDC8
:0D2B2000FC125AA6022920122B2D0229209A
:105F3B0074FFFFFE125536900008E4F0A374AEF028
:105F4B00A31208B6005F4E507B8C7A007D497C0013
:0E5F5B007F3C7E00124B8B7FFF7E0F02606149
:102E2D00E4FFFE1255367BFF7A3E799C90001E74AE
:102E3D0007F0A374E0F0E4A3F0A3F0FDFCFFFE1295
:102E4D0054807BFF7A3E79B390001E7407F0A37413
:102E5D00E0F0E4A3F0A3F07D10FCFFFE125480120D
:102E6D005E08EF8EF012092D2E89EF132E91EF14BF
:102E7D002E99EF152EA1EF1600002EC67BFF7A3E80
:102E8D0079CD80167BFF7A3E79D4800E7BFF7A3E1A
:102E9D0079DB80067BFF7A3E79E29001677410F052
:102EAD00A374F8F0A3E4F074FFA3F0A3F07D207CED
:102EBD0000E4FFFE12433280267BFF7A3E79E990D3
:102ECD00001E74F8F0A3E4F074FFA3F0A3F07D20CE
:102EDD007C00E4FFFE1254807FFF7E0F1260617F45
:102EED00FF7E001260617BFF7A3E79F59001677479
:102EFD0010F0A37407F0A374E0F0E4A3F0A3F07D49
:102F0D0030FCFFFE1243327BFF7A3F79069001675A
:102F1D007410F0A374F8F0A3E4F074FFA3F0A3F021
:102F2D007D407C00E4FFFE1243327B017A0279BDC5
:102F3D00124CC77B017A0279BD9001677410F0A322
:102F4D0074F8F0A3E4F074FFA3F0A3F07D507C00BF
:102F5D00E4FFFE1243327FFF7E001260617BFF7A39
:102F6D003F79149001677410F0A37407F0A374E017
:102F7D00F0E4A3F0A3F07D60FCFFFE1243327BFF73
:102F8D007A3F79259001677410F0A374F8F0A3E4EB
:102F9D00F074FFA3F0A3F07D707C00E4FFFE1243FC
:102FAD00327B017A00790D125E4B7FFF7E07126036
:102FBD00617B017A00790D125E4B7BFF7A3F79338D
:102FCD009001677410F0A37407F0A374E0F074110E
:102FDD00A3F0A3F07D807C00E4FFFE1243327B0161
:102FED007A00790D90001E74F8F0A3E4F074FFA33D
:102FFD00F0A3F07D807C007F507E001254807BFF1B
:10300D007A3F793E9001677410F0A37407F0A374B2
:10301D00E0F0E4A3F0A3F07D90FCFFFE124332C27A
:10302D00857BFF7A3F794E9001677410F0A374F899
:10303D00F0A3E4F074FFA3F0A3F07DA07C00E4FF07
:10304D00FE12433212605DC2867BFF7A3F79569045
:10305D0001677410F0A374F8F0A3E4F074FFA3F00B
:10306D00A3F07DA07C00E4FFFE12433212605DC22E
:10307D00877BFF7A3F795E9001677410F0A374F837
:10308D00F0A3E4F074FFA3F0A3F07DA07C00E4FFB7
:10309D00FE12433212605D1200037BFF7A3F7966A8
:1030AD009001677410F0A374F8F0A3E4F074FFA31B
:1030BD00F0A3F07DA07C00E4FFFE12433212605DB0
:1030CD007BFF7A3F796E9001677410F0A37407F05F
:1030DD00A374E0F0E4A3F0A3F07DB0FCFFFE124377
:1030ED00327BFF7A3F79819001677410F0A374F8F9
:1030FD00F0A3E4F074FFA3F0A3F07DC07C00E4FF27
:10310D00FE1243327F037E001260387FFF7E0F0276
:02311D006061EF
:105AA60090015BEBF0A3EAF0A3E9F0A3ECF0A3ED21
:015AB600F0FF
:105AB70090015BE0FBA3E0FAA3E0F99001677410A3
:105AC700F0A374F8F0A3E4F090015EE0FFA3E09088
:105AD700016ACFF0A3EFF0E4FDFCFFFE1243327F33
:105AE700FF7E0712606190015BE0FBA3E0FAA3E091
:105AF700F9126239EF75F008A4FB7A00900166E4A9
:105B0700F0A37410F090015EE0FFA3E0900168CF6E
:0C5B1700F0A3EFF0E4FDFCFFFE025204DE
:1053B3009000067401F0A37402F0A374D5F07B018E
:0453C3007A0279D31E
:1053C700900003EBF0A3EAF0A3E9F0A3E0F9A3E070
:1053D700FAA3E0900020C9F0A3EAF0A3E9F0900057
:1053E70003E0FBA3E0FAA3E0F9124919900003E0F8
:1053F700FBA3E0FAA3E0F91207B3FDACF0E4120354
:10540700567BE17A7A797078411202477B9A7A99CA
:10541700796D78C112004D12038F900003E0FBA352
:10542700E0FAA3E0F9EE8FF01207DE900006E0FB4A
:10543700A3E0FAA3E0F91207B3FDACF0E4120356B8
:105447007BC37AF5792C78411202477BF67A287963
:105457008C78C112004D12038F900006E0FBA3E089
:10546700FAA3E0F9EE8FF01207DE30090BC2097BD1
:09547700017A0279D71259A92229
:10573E00900017EBF0A3EAF0A3E9F0A3E0F9A3E0E1
:10574E00FAA3E0900020C9F0A3EAF0A3E9F09000DC
:10575E0017E0FBA3E0FAA3E0F9124919900017E055
:10576E00FBA3E0FAA3E0F91207B3FDACF0E41203D9
:10577E00567BE17A7A797078411202477B9A7A9950
:10578E00796D78C112004D12038F900017E0FBA3C4
:10579E00E0FAA3E0F9EE8FF01207DE90001AE0FBBC
:1057AE00A3E0FAA3E0F91207B3FDACF0E41203563E
:1057BE007BC37AF5792C78411202477BF67A2879E9
:1057CE008C78C112004D12038F90001AE0FBA3E0FB
:0A57DE00FAA3E0F9EE8FF00207DEF7
:04605D007FFF7E053E
:10606100E4FDFCC3ED9FEC9E5015E4FBFA0BBB0075
:0F607100010ABA03F8BBE8F50DBD00010C80E48D
:0160800022FD
:105FBF007B017A0279BD124CC7E49002CDF07B01D0
:105FCF007A0279C890001EF0A3F074FFA3F0A3F03B
:095FDF00E4FDFC7FC8FE025480C1
:1044BA00E490000DF0A3F07B017A0279BD124CC79B
:1044CA00E49002C4F07F1D7E05125536900166E421
:1044DA00F0A37414F0A374FFF0A374E0F07B787A6D
:1044EA00007D3C7C007F3C7E00125204900166E411
:1044FA00F0A37468F074FFA3F0A3F07B787A007DD0
:10450A00507C007F3C7E001252047B017A0279BD06
:10451A0090001E74F8F0A3E4F07411A3F0A3F07DE8
:10452A003D7C007F3D7E001254807BFF7A3F798973
:10453A009001677410F0A374F8F0A3E4F07411A367
:10454A00F0A3F07D3D7C007F967E001243327B0112
:10455A007A0279D190001E74F8F0A3E4F07411A3E2
:10456A00F0A3F07D3D7C007FA67E00125480E4908B
:10457A0002C7F07B017A0279C59001677420F0A323
:10458A0074F8F0A3E4F07411A3F0A3F07D6E7C003C
:10459A007F697E0012433212500890000DE0FEA39C
:1045AA00E0FFF47003EE640B6004EF4E70367B019B
:1045BA007A0279BD124CC7E49002CDF07B017A02EF
:1045CA0079C890001E74F8F0A3E4F074FFA3F0A376
:1045DA00F07D967C007F647E0012548090000DE48A
:1045EA00F0A304F090000EE004F0700690000DE0D5
:1045FA0004F01253B39002D5E0FEA3E0FFD3942057
:10460A00EE94014095EF9440EE9401508D90001A7B
:10461A0074FFF0A3740BF0A37428F09002D3E0FFA8
:10462A00A3E090001DCFF0A3EFF07BFF7A2679B0CC
:06463A001247B90245A47D
:100B2800780F7C007D017BFF7A3F79DE7E007F07AE
:100B38001206929000167401F0FB7A0279BD124CED
:100B4800C77F1D7E051255367BFF7A3F798C900151
:100B5800677420F074FFA3F0A3F07411A3F0A3F05E
:100B68007D147C007F187E001243327B017A027963
:100B7800BD90001E74F8F0A3E4F074FFA3F0A3F096
:100B88007D807C007F287E00125480900166E4F00E
:100B9800A37414F0A374C6F0A37418F07B287A0029
:100BA8007D697C007F647E001252047BFF7A3F7966
:100BB800999001677410F0E4A3F0A3F07411A3F006
:100BC800A3F07D6C7C007F737E0012433290001D81
:100BD800E4F0A37414F0A3E4F0A3741FF07B287A64
:100BE800007D697C007F647E0012311F900166E4FD
:100BF800F0A37414F0A374C6F0A37418F07B287AD9
:100C0800007D947C007F647E001252047BFF7A3F53
:100C1800799C9001677410F0E4A3F0A3F07411A319
:100C2800F0A3F07D997C007F737E00124332900020
:100C38001DE4F0A37414F0A3E4F0A3741FF07B2860
:100C48007A007D947C007F647E0012311F900166DB
:100C5800E4F0A37414F0A374C6F0A37418F07B280E
:100C68007A007DB47C007F287E001252047BFF7AD4
:100C78003F799FE490001EF0A3F07411A3F0A3F055
:100C88007DB67C007F2A7E0012548090001DE4F01F
:100C9800A37414F0A3E4F0A3741FF07B287A007DFA
:100CA800B47C007F287E0012311F900166E4F0A317
:100CB8007414F0A374C6F0A37418F07B287A007D2E
:100CC800B47C007FAA7E001252047BFF7A3F79A48D
:100CD800E490001EF0A3F07411A3F0A3F07DB67C9D
:100CE800007FB97E0012548090001DE4F0A37414B4
:100CF800F0A3E4F0A3741FF07B287A007DB47C0095
:100D08007FAA7E0012311F125008E49002D0F090A2
:100D180002CDF09002CAF09002C7F09002C4F090A1
:100D280002C1F0900016E014B407004003020EFF61
:100D3800900D4675F003A4C58325F0C58373020D95
:100D48005B020D97020DD3020E0F020E4B020E86A8
:100D5800020EC17B017A0279BD90001E7407F0A3D0
:100D680074E0F0E4A3F0A3F07D80FC7F28FE125429
:100D7800807B017A0279D190001E74F8F0A3E4F028
:100D880074FFA3F0A3F07D807C007FC8020EFA7B7D
:100D9800017A0279C290001E7407F0A374E0F0E4AF
:100DA800A3F0A3F07D80FC7F50FE1254807B017A73
:100DB8000279BD90001E74F8F0A3E4F074FFA3F06C
:100DC800A3F07D807C007F28020EFA7B017A0279ED
:100DD800C590001E7407F0A374E0F0E4A3F0A3F03C
:100DE8007D80FC7F68FE1254807B017A0279C29074
:100DF800001E74F8F0A3E4F074FFA3F0A3F07D8064
:100E08007C007F50020EFA7B017A0279C890001E9E
:100E18007407F0A374E0F0E4A3F0A3F07D80FC7FF6
:100E280080FE1254807B017A0279C590001E74F806
:100E3800F0A3E4F074FFA3F0A3F07D807C007F684A
:100E4800020EFA7B017A0279CB90001E7407F0A398
:100E580074E0F0E4A3F0A3F07D80FC7F98FE1254C8
:100E6800807B017A0279C890001E74F8F0A3E4F040
:100E780074FFA3F0A3F07D807C007F8080747B01E9
:100E88007A0279CE90001E7407F0A374E0F0E4A310
:100E9800F0A3F07D80FC7FB0FE1254807B017A02C3
:100EA80079CB90001E74F8F0A3E4F074FFA3F0A3CC
:100EB800F07D807C007F9880397B017A0279D1901F
:100EC800001E7407F0A374E0F0E4A3F0A3F07D80A3
:100ED800FC7FC8FE1254807B017A0279CE90001EF6
:100EE80074F8F0A3E4F074FFA3F0A3F07D807C0015
:100EF8007FB07E0012548090001A7401F0A374022F
:100F0800F0A374D5F07B017A0279D312573E900290
:100F1800D5E0FEA3E0FFD39420EE9401402EEF9499
:100F280040EE9401502690001A74FFF0A37426F046
:100F3800A374B0F09002D3E0FFA3E090001DCFF0BF
:100F4800A3EFF07BFF7A4479BA1247B99002D3E055
:100F5800FEA3E0FFC39428EE94004029D3EF9450F9
:100F6800EE94005020A3E0FEA3E0FFC394B4EE94F7
:100F7800004012D3EF94C8EE94005009900016E098
:100F880004F030A5FD9002D3E0FEA3E0FFC39496E1
:100F9800EE9400500302105ED3EF94BEEE9400402E
:100FA8000302105EA3E0FEA3E0FFC394B4EE940036
:100FB800500302105ED3EF94C8EE94004003021071
:100FC8005E9002CEE024D0C454F0FFA3E024D04FBA
:100FD80090000FF09002CBE024D0C454F0FFA3E0BF
:100FE80024D04F900010F09002C8E024D0C454F0F0
:100FF800FFA3E024D04F900011F09002C5E024D068
:10100800C454F0FFA3E024D04F900012F09002C225
:10101800E024D0C454F0FFA3E024D04F900013F094
:101028009002D1E024D0900014F09002BFE024D0C8
:10103800C454F0FFA3E024D04F900015F07B017A50
:1010480000790F1252E47BFF7A3F79A77D1D7C055A
:10105800125AA630A5FD9002D3E0FEA3E0FFC39488
:1010680064EE940050030211EED3EF948CEE9400DA
:1010780040030211EEA3E0FEA3E0FFC39469EE94DF
:101088000050030211EED3EF947DEE94004003026A
:1010980011EE900016E014B4070040030211EB9023
:1010A80010B575F003A4C58325F0C583730210CA73
:1010B8000210EE02112002115202117F0211AC023D
:1010C80011DC9002C0E004F0E0D394394009743098
:1010D800F09002BFE004F09002BFE0D394395003CF
:1010E8000211EB0211D79002C3E004F0E0D394326E
:1010F80040109002C2E0B43109A37431F09002C2EA
:1011080014F09002C3E0D3943950030211EB90021B
:10111800C2E004F0A30211D79002C6E004F0E0D3C5
:10112800943140109002C5E0B43309A37431F090B3
:1011380002C514F09002C6E0D3943950030211EBB3
:101148009002C5E004F0A30211D79002C9E004F0B0
:10115800E0D39433400F9002C8E0B43208A374304F
:10116800F09002C8F09002C9E0D39439407590021B
:10117800C8E004F0A380589002CCE004F0E0D394D7
:1011880039400F9002CBE0B43508A37430F09002D8
:10119800CBF09002CCE0D3943940489002CBE004E5
:1011A800F0A3802B9002CFE004F0E0D39439400FF5
:1011B8009002CEE0B43508A37430F09002CEF090DF
:1011C80002CFE0D39439401B9002CEE004F0A37420
:1011D80030F0800F9002D1E004F0E0D39437400360
:1011E8007431F030A5FD9002D3E0FEA3E0FFC39474
:1011F80064EE940050030213B1D3EF948CEE940084
:1012080040030213B1A3E0FEA3E0FFC39494EE945D
:101218000050030213B1D3EF94A8EE9400400302E8
:1012280013B1900016E014B4070040030213AE9007
:10123800124575F003A4C58325F0C5837302125ABD
:1012480002128F0212C60212FC0213320213680243
:10125800139E9002C0E0B4300F9002BFE0B4300893
:10126800A37439F09002BFF09002C0E0B43012903D
:1012780002BFE06430600AA3743AF09002BFE01441
:10128800F09002C00213AB9002C3E0B43111900297
:10129800C2E0B4300AA37433F09002C27431F09003
:1012A80002C3E0B430129002C2E06430600AA37452
:1012B8003AF09002C2E014F09002C30213AB90021D
:1012C800C6E0B431109002C5E0B43009A37432F01E
:1012D8009002C504F09002C6E0B430129002C5E056
:1012E8006430600AA3743AF09002C5E014F09002EA
:1012F800C60213AB9002C9E0B430119002C8E0B442
:10130800300AA37434F09002C87432F09002C9E035
:10131800B430129002C8E06430600AA3743AF090C6
:1013280002C8E014F09002C980799002CCE0B43091
:10133800119002CBE0B4300AA3743AF09002CB7457
:1013480035F09002CCE0B430129002CBE06430600B
:101358000AA3743AF09002CBE014F09002CC8043D8
:101368009002CFE0B430119002CEE0B4300AA374FA
:101378003AF09002CE7435F09002CFE0B43012907B
:1013880002CEE06430600AA3743AF09002CEE01412
:10139800F09002CF800D9002D1E0B431037438F0A0
:1013A8009002D1E014F030A5FD900016E0D3940728
:0B13B8005003020D2B7401F0020D2BFE
:1050080090002D7401F0A37420F074FFA3F0A3F0B6
:105018007BF07A007D207C01E4FFFE12396D7BFF76
:105028007A3F79B89001677420F074FFA3F0A3F079
:105038007411A3F0A3F07D207C017F147E0012433D
:10504800327BFF7A3F79BB9001677420F0A374A28A
:10505800F0A37454F07411A3F0A3F07D207C017FB9
:10506800687E0012433290002D7401F0A37430F072
:1050780074FFA3F0A3F07B837A007D307C017F6C02
:105088007E0012396D90002D7401F0A3743BF0740A
:10509800FFA3F0A3F07B787A007D257C017F787EE2
:1050A8000012396D90002D7401F0A37440F074FF64
:1050B800A3F0A3F07B507A007D207C017F507E0016
:1050C80012396D90002D7401F0A37440F074FFA3A1
:1050D800F0A3F07BA07A007D207C017FA07E0012E7
:1050E800396D7BFF7A3F79BE9001677420F074FFB9
:1050F800A3F0A3F07411A3F0A3F07D207C017FBB83
:055108007E00024332AD
:1047B900900017EBF0A3EAF0A3E9F090001DE0FEEA
:1047C900A3E0FFC39450EE64809480503AEF9400C4
:1047D900EE6480948040307BFF7A3F79B89001671E
:1047E9007420F074FFA3F0A3F0A3E4F0A3741FF006
:1047F9007D207C017F147E00124332900017A3E0D4
:10480900FAA3E0F912095A90001DE0FEA3E0FFD3D4
:104819009450EE6480948050030248B8EF94A0EE5F
:104829006480948040030248B87BFF7A3F79BB904B
:1048390001677420F0A374A2F0A37454F0A3E4F008
:10484900A3741FF07D207C017F687E0012433290A3
:10485900002D7401F0A37430F074FFA3F0A3F07B72
:10486900837A007D307C017F6C7E0012396D900067
:104879002D7401F0A3743BF074FFA3F0A3F07B78CF
:104889007A007D257C017F787E0012396D90002D9C
:104899007401F0A37440F074FFA3F0A3F07B507A85
:1048A900007D207C017F507E0012396D1226B09068
:1048B900001DE0FEA3E0FFD394A0EE648094804045
:1048C9003AEF94F0EE6480948050307BFF7A3F7920
:1048D900BE9001677420F074FFA3F0A3F0A3E4F085
:1048E900A3741FF07D207C017FBB7E0012433290B0
:0C48F900001AA3E0FAA3E0F912095A2209
:104DE500E490000DF0A3F07F1D7E0512553690016D
:104DF50066E4F0A37432F0A3E4F0A3741FF07B988B
:104E05007A007D3C7C007F2D7E0012520490001DAF
:104E1500E4F0A3741EF0A374F8F0A3E4F07B84FA25
:104E25007D46FC7F37FE12311F12500890000DE0C1
:104E3500FEA3E0FFF44E6004EF4E70557B017A004F
:104E4500790F125E4B7BFF7A3F79339001677410BF
:104E5500F0A374F8F0A3E4F07411A3F0A3F07D4E71
:104E65007C007F387E001243327B017A00790F90F7
:104E7500001E74F8F0A3E4F074FFA3F0A3F07D4ED8
:104E85007C007F807E0012548090000DE4F0A30426
:104E9500F090000EE004F0700690000DE004F0D3F1
:104EA50090000EE094FF90000DE094004004E4F0C3
:104EB500A3F01253B39002D5E0FEA3E0FFD39420F4
:104EC500EE94015003024E31EF9440EE94014003FD
:104ED500024E3190001A74FFF0A37426F0A374B04B
:104EE500F09002D3E0FFA3E090001DCFF0A3EFF018
:0C4EF5007BFF7A2679B01247B9024E31DB
:1036B70090000D74F8F0A3E4F07F1D7E05125536D7
:1036C7009001667401F0A37420F074FFA3F0A3F0D7
:1036D7007BF07A00E4FDFCFFFE125204900166E4E1
:1036E700F0A37418F0A37405F0A3741DF07BF07AAF
:1036F700007D087C01E4FFFE125204900166E4F0AD
:10370700A37418F074FFA3F0A3F07B187A007D0868
:103717007C01E4FFFE125204900166E4F0A37418E2
:10372700F0E4A3F0A3F07B18FA7D087C017F18FE74
:10373700125204900166E4F0A37418F0A374C6F063
:10374700A37418F0FB7A007D087C017F307E00129D
:103757005204900166E4F0A37418F0A3E4F0A37494
:103767001FF07B187A007D087C017F487E0012528B
:1037770004900166E4F0A37418F0A374F8F0A3E4CE
:10378700F07B18FA7D087C017F60FE1252049001DD
:1037970066E4F0A37418F0A374F8F0A3741FF07B29
:1037A700187A007D087C017F787E00125204900110
:1037B70066E4F0A37418F0A37407F0A374E0F07B39
:1037C700187A007D087C017F907E001252049001D8
:1037D70066E4F0A37418F0A3747FF0A374FFF07B82
:1037E700187A007D087C017FA87E001252049001A0
:1037F70066E4F0A37418F0A374FFF0A374E0F07B01
:10380700187A007D087C017FC07E00125204900167
:1038170066E4F0A37418F0A374B7F0A37423F07BE5
:10382700187A007D087C017FD87E0012520412505E
:10383700081253B39002D5E0FEA3E0FFD39400EE45
:1038470094004021EF9408EE940150199002D3E0C0
:10385700FEA3E0FFA3E0FCA3E0FD90000DE0FAA3C8
:10386700E0FB125A289002D5E0FEA3E0FFD3942094
:10387700EE9401402EEF9440EE9401502690001AEA
:1038870074FFF0A37426F0A374B0F09002D3E0FFA6
:10389700A3E090001DCFF0A3EFF07BFF7A2679B06D
:1038A7001247B99002D5E0FEA3E0FFD39408EE9447
:1038B700015003023838EF9420EE94014003023898
:1038C700389002D3E0FEA3E0FF7C007D1812073298
:1038D700EFB40A0040030238389038E7F828287315
:1038E7000239050239090239130239200239260241
:1038F700393202393F02394602395302396074FFBF
:103907008001E490000DF0A3F002383890000D74A8
:10391700C6F0A37418F002383890000DE4801190B7
:10392700000D74F8F0A3E4F002383890000D74F835
:10393700F0A3741FF002383890000D7407801290BE
:10394700000D747FF0A374FFF002383890000D74F7
:10395700FFF0A374E0F002383890000D74B7F0A3BD
:063967007423F002383861
:102B2D00E4900002F07F1D7E051255367BFF7A3F43
:102B3D0079C19001677420F074FFA3F0A3F07411B4
:102B4D00A3F0A3F07D0A7C007F417E001243321278
:102B5D0050087BFF7A3F79C974FF90001EF0A3F0F7
:102B6D007411A3F0A3F07D327C007F1E7E00125401
:102B7D00807BFF7A3F79CE74FF90001EF0A3F07436
:102B8D0011A3F0A3F07D787C007F1E7E001254808F
:102B9D007BFF7A3F79D374FF90001EF0A3F0741180
:102BAD00A3F0A3F07DBE7C007F1E7E001254807FBB
:102BBD0001126224900166E4502FF0A3743CF0A33F
:102BCD00E4F0A3741FF07B967A007D327C007F4683
:102BDD007E001252047BFF7A3F79D8900167741002
:102BED00F0A3E4F0A3741F802EF0A3743CF0A37443
:102BFD0007F0A374E0F07B967A007D327C007F466F
:102C0D007E001252047BFF7A3F79DB9001677410CE
:102C1D00F0A374F8F0A3E4F0A37405F0A3741DF011
:102C2D007D4C7C007F1E7E001243327F0212622497
:102C3D00900166E4502FF0A3743CF0A3E4F0A3746C
:102C4D001FF07B967A007D787C007F467E001252C5
:102C5D00047BFF7A3F79D89001677410F0A3E4F0FC
:102C6D00A3741F802AF0A3743CF0A374F8F0A3E4BE
:102C7D00F07B96FA7D78FC7F46FE1252047BFF7A3C
:102C8D003F79DB9001677410F0A374F8F0A3E4F0C2
:102C9D00A37405F0A3741DF07D927C007F1E7E0051
:102CAD001243327F03126224900166E4502FF0A389
:102CBD00743CF0A3E4F0A3741FF07B967A007DBE04
:102CCD007C007F467E001252047BFF7A3F79D890BC
:102CDD0001677410F0A3E4F0A3741F802EF0A374A9
:102CED003CF0A374FFF0A374E0F07B967A007DBEF8
:102CFD007C007F467E001252047BFF7A3F79DB9089
:102D0D0001677410F0A374F8F0A3E4F0A37405F058
:102D1D00A3741DF07DD87C007F1E7E0012433212FD
:102D2D0053B330A5FD9002D5E0FEA3E0FFD3942070
:102D3D00EE9401402EEF9440EE9401502690001A2F
:102D4D0074FFF0A37426F0A374B0F09002D3E0FFEB
:102D5D00A3E090001DCFF0A3EFF07BFF7A2679B0B2
:102D6D001247B99002D3E0FEA3E0FFD3941EEE9478
:102D7D0000402AEF94D2EE94005022A3E0FEA3E08F
:102D8D00FF9432EE94004015EF946EEE9400500DCA
:102D9D007F01126224B392007F011261679002D30A
:102DAD00E0FEA3E0FFD3941EEE9400402AEF94D2F0
:102DBD00EE94005022A3E0FEA3E0FF9478EE940081
:102DCD004015EF94B4EE9400500D7F02126224B3BF
:102DDD0092007F021261679002D3E0FEA3E0FFD361
:102DED00941EEE94005003022BBCEF94D2EE94008F
:102DFD004003022BBCA3E0FEA3E0FF94BEEE9400C3
:102E0D005003022BBCEF94FAEE94004003022BBC4E
:102E1D007F03126224B392007F03126167022BBC01
:06633F0025372E33660035
:10624E00EF25E02405FFEFD3940040077E05DEFE28
:03625E001F80F3AB
:01626100221A
:10626200EFD39400400D00007E207D1CDDFEDEFC9D
:036272001F80ED9D
:016275002206
:10601000C200D2807F0512624EC2807FC812624EDB
:106020007FC812624ED2807F3212624EA2809200EE
:076030007F1912624EA2006D
:016037002246
:1060F900E4FC7D08C280ECC313FCD28030800344E9
:0B61090080FC7F1912624EDDEBAF043A
:016114002268
:02611500AD07D4
:106117007B08C280ED1392807F1912624ED280ED08
:0A612700C313FDDBED7F1902624E89
:105F0100E4FBFFFEFDFC1260107FCC1261157F44A3
:105F11001261157F0A1262621260107FCC12611544
:105F21007FBE1261151260F9AB071260F9EF7F00B5
:095F3100FEEF2BFDE43EFEAF057E
:015F3A002244
:0B5E4B00900016EBF0A3EAF0A3E9F0D2
:105E5600125F01AD07AC06E4120356E4FBFA798043
:105E6600783D12013E90001C74FFF0A37463F0A30A
:105E7600743FF0A31208AA900016E0FBA3E0FAA371
:055E8600E0F902229288
:085CCB00C10A4302EB0102D7FC
:1060A100538EF7759A50438E04200003759C9830E7
:0E60B1000003759CF7438E10D2AF75AF01222D
:0B630F008F9BE59A30E1FB539AFD22C2
:106276001206B8FF600C12630F740129F9E43AFAAA
:0362860080EE2285
:03004300025C1547
:105C1500C0E0C0F0C083C082C0D075D000C000C055
:105C250001C002C003200A0E9002EB7401F0A374B8
:105C350002F0A374D7F0E59A30E02ED20A539AFE0B
:105C45009002EBE0FBA3E0FAA3E0F9E59B1206FE68
:105C55009002ECE475F0011207879002EBE0FBA3DC
:105C6500E0FAA3E0F9E41206FED003D002D001D099
:0C5C750000D0D0D082D083D0F0D0E0323C
:1055E4000A004F4B0A004E6F7420666F756E64217B
:1055F4000A006C696E6B000000000000FF63246405
:1056040065736B746F70000000FF26B07374617271
:10561400746368000000FF2E2D706963626F780068
:10562400000000FF36B774656D7065727400000089
:10563400FF4DE563616C656E6461720000FF44BAFE
:105644007374696D650000000000FF613173746557
:105654006D706572740000FF614C73776C65643122
:1056640000000000FF62DC73776C656432000000A8
:1056740000FF62E973776C65643300000000FF6229
:0E568400F66F66666C656400000000FF620F42
:0B59A900900009EBF0A3EAF0A3E9F086
:1059B40090000AE475F003120787E490000CF0905D
:1059C400000CE0FFD3940C505AEFB40C0302632D87
:1059D40090000CE075F00DA424F6F9745535F0FA36
:1059E4007BFFC003C002900009E0FBA3E0FAA3E040
:1059F400F8AC02AD03D002D003120B0BEF701C9075
:105A0400000CE075F00DA42400F582E43456F5830F
:105A1400740193FA740293F902095A90000CE00499
:035A2400F0809C73
:015A2700225C
:106289001206B8B4410B9000011206D1B45402D3DE
:0362990022C322FB
:106131007B017A0279BD124CC77B017A0279BD12CB
:0B61410062767BFF7A5579E4026276FB
:10614C007B017A00790D125E4B7B017A00790E127D
:0B615C0062767BFF7A5579E4026276E0
:096324007BFF7A5579E6026276EE
:09632D007BFF7A5579EA026276E1
:0D62DC007F01126224B392007F010261670E
:0D62E9007F02126224B392007F02026167FF
:0D62F6007F03126224B392007F03026167F0
:10620F00D2007F01126167D2007F02126167D20054
:05621F007F030261672E
:07000300D285D286D28722CC
:10616700EF24FE600C14600E2402700EA2009285CC
:0B61770022A200928622A20092872242
:10622400EF24FE600A14600A24027008A28522A2E8
:056234008622A2872272
:086336007F107E8DDEFEDFFC0E
:01633E00223C
:04603800AD07AC06FE
:10603C00ED4C601C7BC8B2A1126336DBF97BC8B295
:10604C00A1126336126336DBF6ED1D70E31C80E0A3
:01605C002221
:100046000203FBE86480F8E933E83360110460F0EA
:10005600ED33EC337009E8FCE9FDEAFEEBFF220420
:1000660060DED3EB9FEA9EE99DE8C2E78CF0C2F71B
:1000760095F0400CE8CCF8E9CDF9EACEFAEBCFFBE7
:100086001203C685D0F05804700320D5B3E8047077
:10009600075002B2D502040592D5EC0460F7E4CC11
:1000A600C0E0C398F8603B94186008400DD0E0FBB0
:1000B6000203DDE4FBFAC9FC8028E830E406E4C963
:1000C600FBE4CAFCE830E305E4C9CACBFCE8540704
:1000D6006010F8C3E913F9EA13FAEB13FBEC13FC0F
:1000E600D8F130F52FC3E49CFCEF9BFFEE9AFEEDB2
:1000F60099FDD0E0FBEF4E4D4C701222DB0302045B
:1001060002EC2CFCEF33FFEE33FEED33FDED30E772
:10011600EB0203DDEF2BFFEE3AFEED39FDD0E0FBFF
:1001260050130BBB0003020405ED13FDEE13FEEFA7
:0801360013FFEC13FC0203DDD2
:10013E00EC4D6011E8497017ED33EC3304600DE4BB
:10014E00FCFFFEFD22E933E8330470F80203FB12D4
:10015E0003C658046009E4CC2481500628500902D5
:10016E000405284003020402C0E0EB4A7044B98043
:10017E0006D0E0FB0203F1EF4E701CBD8008EBFFD2
:10018E00EAFEE9FD80EBE98DF0A4FEE5F002022720
:10019E00E9CDF9EAFEEBFFEF89F0A4FCE5F0CE899C
:1001AE00F0A42EFFE435F0CD89F0A42DFEE435F059
:1001BE008067EF4E7005BD80D780C3EF8BF0A4AC87
:1001CE00F0EE8BF0A42CFCE435F0F8EF8AF0A42CC2
:1001DE00E5F038FCE433CB8DF0A42CFCE5F03BF8D5
:1001EE00EE8AF0A42CFCE5F038F8E433CF89F0A4C5
:1001FE002CFCE5F038CF3400CE89F0A42FFFE5F0CB
:10020E003EFEE433C98DF0A42EFEE5F039CD8AF022
:10021E00A42FFFE5F03EFEE43DFD33D0E0FB50079A
:10022E000BBB000F020405EC2CFCEF33FFEE33FE8C
:06023E00ED33FD0203DDBB
:10024400020405EC5D046005E8590470030203FB35
:100254001203C6580460F6EC4860F2EC7004FDFE2C
:10026400FF22C860DB2481C85009C398600250068D
:100274000204029850CAF582E9294B4A7005AB8200
:100284000203F175F0007C1A7880C3EF9BEE9AEDBF
:1002940099400DC3EF9BFFEE9AFEED99FDE842F005
:1002A400DC23ACF0D0E0FFD0E0FED0E0FDAB822058
:1002B400E7101BEB60BAEC2CFCEF33FFEE33FEEDE2
:1002C40033FD0203DDE803F830E705C0F075F00004
:1002D400EF2FFFEE33FEED33FD40B830E7C280AAC6
:1002E40074F8CC6480CCC86480C8F582046043C3CD
:1002F400EB9FF5F0EA9E42F0E99D42F0E89C45F060
:1003040060305018E5825FFFE582F42B5582FB5084
:10031400210ABA001D09B90019088016E5825BFBA1
:10032400E582F42F5582FF50090EBE00050DBD0075
:10033400010CC3EB9FF5F0EA9E42F0E99D42F0E820
:0D0344009C45F06007CC4820E701B3EC2297
:1003510075F020800E75F010800575F0087D007E27
:10036100007F003392D530D50312084CEC33401096
:10037100EF33FFEE33FEED33FDEC33FCD5F0ED2230
:0E038100E5F0247EA2D513CC92E7CDCEFF226C
:10038F00EDD2E7CD33EC3392D524814006E4FFFE66
:10039F00FDFC22FCE4CFCECDCC24E0501174FF80C5
:1003AF00EDC3CC13CCCD13CDCE13CECF13CF047062
:0703BF00F030D5DE02084C0E
:10222D00E508241CF582E43400F583E005082290CE
:10223D00001930070390001CE475F0011208E70245
:10224D0006B82000E97F2ED2008018EF540F24909D
:10225D00D43440D4FF30040BEF24BFB41A00500324
:10226D002461FFE50960021509050CE50C700205F6
:10227D000B30070E900019E475F0011208E7EF021C
:10228D0006FE024F017403D2078003E4C207F5086E
:10229D009000191208FEE4F509F50BF50CE509603F
:1022AD00077F2012227080F5750AFFC201C200C29D
:1022BD0002C203C205C206C20812223CFF700D30D5
:1022CD0007057F00122281AF0CAE0B22B4255FC231
:1022DD00D5C20412223CFF24D0B40A00501A75F066
:1022ED000A780930D50508B6FF0106C6A426F620E2
:1022FD00D5047002D20380D924CFB41A00EF500454
:10230D00C2E5D204022573D20180C6D20080C0D2AC
:10231D000280BCD2D580BAD20580B47F2012227043
:10232D002002077401B5090040F112222DFF12227F
:10233D00700222AAD208D206809512222DFB1222FB
:10234D002DFA12222DF94A4B700679717A267BFFF0
:10235D0020022EE509602A7E008E8275830012060A
:10236D00D160060EEE650A70F0C2D5EBC0E0EAC092
:10237D00E0E9C0E0EE1225D4D0E0F9D0E0FAD0E0EB
:10238D00FB1206B8FF60AAEBC0E0EAC0E0E9C0E0CE
:10239D00122270D0E02401F9D0E03400FAD0E0FB35
:1023AD00E50A0460DCD50AD98087D20280A2122505
:1023BD00B660F7E50A700104120410A90A600DE574
:1023CD000A600914F50A12265EEF60F3EA30E7029F
:1023DD00F404C3995079EAF4250A0430E701E404C2
:1023ED00F50A800D1225B660C1EA050A250A120408
:1023FD0010EA900048F030E701E4250A04D50A04FC
:10240D00200501141225D4E4C0E012265E90004888
:10241D00E0601320E70714F0122258802204F0D058
:10242D00E014C0E07F00122258E50A600712224F27
:10243D00150A800B30050312224FD0E00222AAD0DC
:10244D00E00480C41225B6609EE50A0412041090C3
:10245D000048EAF0E50A2005026001042404122573
:01246D00D49A
:10246E0074FF04C0E012265E122258E50A2005020F
:10247E00600312224FD0E0B50AE87F451222629027
:10248E000048E07F2B30E7047F2DF404C0E01222D9
:10249E0070D0E075F00A84C0F0122259D0E01222FA
:1024AE00590222AA791080027908C206C208800851
:1024BE00D2D5790A8004790AC2D5E50A047002F5EC
:1024CE000AE4FAFDFEFF12222DFC7B0820011312F6
:1024DE00222DFD7B1030000A12222DFE12222DFF1E
:1024EE007B20EC3382D592D55013C3E43000069F87
:1024FE00FFE49EFEE42001039DFDE49CFCE4CBF88A
:10250E00C201EC700CCFCECDCCE824F8F870F3807D
:10251E0017C3EF33FFEE33FEED33FDEC33FCEB333D
:10252E00FB994002FB0FD8E9EB300105F8D0E0C46F
:10253E0048B201C0E00AEC4D4E4F78207B0070C2CD
