:030000000253F7B1
:0C53F700787FE4F6D8FD75812102543E59
:105B8C001239FE125B3C125C07125DB2125DD5C27B
:105B9C0000125BCC120003123819125A8F0226B075
:10536A00000000AA0001904C0000023A0001928657
:10537A000008C460000A56E600000474000A5B5A7A
:10538A00000BB08000160BDA000005F0001611CAF7
:10539A00001A4D2000305EEA000001A400306C467D
:1053AA00002EC200005F2E46000017C00000000059
:1053BA0000000000000000000000000000000000E3
:1053CA0000000000000000000000000000000000D3
:1053DA0000000000000000000000000000000000C3
:0D53EA0000000000000000000000000000B6
:0557D5004202EDEF1699
:105ABD00900293E0FCA3E0FDA3E0FEA3E0FF12083B
:015ACD006B6D
:105ACE00E4FEEF30E704D2828002C282C281EF256B
:095ADE00E0FFD2810EEEB408E9EC
:015AE700229C
:105CF800E4FFFDC281D281A283E433FEEF25E04EAA
:065D0800FF0DEDB408EDF3
:015D0E002272
:10595C00E4900013F0A3F0C2A47F90125ACEE4FF9F
:10596C00125ACEE4FF125ACEE4FF125ACE125CF851
:10597C00EFFE900013E04EF0A3E0F0125CF8900004
:10598C0013E0FEA3E04FFF900013EEF0FEA3EFF048
:02599C00D2A493
:01599E0022E6
:0A5E0900C2A47F04125ACED2A422D4
:0F567700900290EBF0A3EAF0A3E9F0A31208AAC7
:10568600C2A7C2A47F03125ACE7810125ABD780858
:10569600125ABD900293A3A3A3E0FF125ACEE49040
:1056A6000299F0A3F0900297E0FEA3E0FFC39002F8
:1056B6009AE09F900299E09E502D125CF89002901D
:1056C600E0FBA3E0FAA3E0F9900299E0FCA3E0F581
:1056D600828C83EF12071090029AE004F070C69055
:0956E6000299E004F080BED2A498
:0156EF002298
:105B3C00125E0912595C9002EDEEF0A3EFF0E47FD7
:105B4C00AAFEFDFC90536A12089AC312085A60030D
:085B5C007F0122D2A47F002288
:0B35D600900282EBF0A3EAF0A3E9F002
:1035E1001206B8FF900289F0900282E0FBA3E47515
:1035F100F001120787A9F0FA1206B890028AF0EFDB
:10360100C394814011E0FF9440400BEFF4600790B8
:103611000289E0B4FF3DE490028BF0900288E075EE
:10362100F002A4FF90028BE0C39FE5F06480F87480
:1036310080984003023818900285E0FBA3E475F0FE
:103641000112079DA9F0FAE41206FE90028BE00434
:10365100F080C890028AE0C3947F5006E024C0F055
:10366100800790028AE024BFF0900289E0247FF075
:10367100900288E06420705FA3E0FF7E007C007D03
:10368100BE120960A804A905AA06AB07A3E0FFE4DE
:10369100FCFDFEEB2FFFEE3AFEED39FDEC38FCE4CC
:1036A1007B80FAF9F81207FD90028C1208AA905358
:1036B100A612088A90028CE0F8A3E0F9A3E0FAA32D
:1036C100E02FFFEA3EFEE93DFDE83CFC900297E475
:1036D100F0A37480023809900288E06418705FA337
:1036E100E0FF7E007C007DBE120960A804A905AA46
:1036F10006AB07A3E0FFE4FCFDFEEB2FFFEE3AFE75
:10370100ED39FDEC38FCE47B48FAF9F81207FD903D
:10371100028C1208AA90539612088A90028CE0F843
:10372100A3E0F9A3E0FAA3E02FFFEA3EFEE93DFDA5
:10373100E83CFC900297E4F0A37448023809900237
:1037410088E06410705EA3E0FF7E007C007DBE1205
:103751000960A804A905AA06AB07A3E0FFE4FCFDE4
:10376100FEEB2FFFEE3AFEED39FDEC38FCE47B2059
:10377100FAF9F81207FD90028C1208AA90538612EA
:10378100088A90028CE0F8A3E0F9A3E0FAA3E02F05
:10379100FFEA3EFEE93DFDE83CFC900297E4F0A320
:1037A10074208064900288E0640C706BA3E0FF7E5B
:1037B100007C007DBE120960A804A905AA06AB071A
:1037C100A3E0FFE4FCFDFEEB2FFFEE3AFEED39FD39
:1037D100EC38FCE47B18FAF9F81207FD90028C1220
:1037E10008AA90537612088A90028CE0F8A3E0F9B7
:1037F100A3E0FAA3E02FFFEA3EFEE93DFDE83CFC31
:10380100900297E4F0A37418F0900285E0FBA3E026
:07381100FAA3E0F91256775B
:01381800228D
:102DF60090016CEEF0A3EFF0A3ECF0A3EDF0A3EBE3
:012E0600F0DB
:102E0700787A7C017D017BFF7A5379B67E007F411A
:102E170012069290016EE0FFA3E09001BBCFF0A3F2
:102E2700EFF0900170E024E0FFE434FFFEE4FCFDE6
:102E37009001C11208AA900171E0B420299001C144
:102E4700E0FCA3E0FDA3E0FEA3E0FFE47B40FAF98A
:102E5700F81207FD9001C11208AA9001797440F099
:102E67009053AE022F28900171E0B418299001C148
:102E7700E0FCA3E0FDA3E0FEA3E0FFE47B24FAF976
:102E8700F81207FD9001C11208AA9001797424F085
:102E970090539E022F28900171E0B410289001C131
:102EA700E0FCA3E0FDA3E0FEA3E0FFE47B10FAF95A
:102EB700F81207FD9001C11208AA9001797410F069
:102EC70090538E805C900171E0B40C289001C1E0B2
:102ED700FCA3E0FDA3E0FEA3E0FFE47B0CFAF9F816
:102EE7001207FD9001C11208AA900179740CF090A5
:102EF700537E802D900171E0B4082F9001C1E0FC52
:102F0700A3E0FDA3E0FEA3E0FFE47B06FAF9F812D5
:102F170007FD9001C11208AA9001797406F0905339
:102F27006E12088A9001BD1208AA9001BDE0FCA3A9
:102F3700E0FDA3E0FEA3E0FFA3E0F8A3E0F9A3E030
:102F4700FAA3E02FFFEA3EFEE93DFDE83CFC9001D5
:102F570079E0FB900297E4F0A3EBF07B017A01792B
:102F67007A125677E4900178F0900179E0FF9001AA
:102F770078E0FEC39F40030230AB747A2EF582E4FB
:102F87003401F583E0900176F0E4A3F0900177E057
:102F9700FFC3940840030230A2900171E0640870F7
:102FA70041900176E0FEA807088002C313D8FC30E1
:102FB700E0028044900174E0FEA3E0FF6411700317
:102FC700EE6411606DEF64117003EE64116063903D
:102FD700016CE0FEA3E0FFA3E0FCA3E0FD90017419
:102FE7008027900177E0FF900176E0FEA807088030
:102FF70002C333D8FC30E71890016CE0FEA3E0FF72
:10300700A3E0FCA3E0FD900172E0FAA3E0FB801FC0
:10301700900174E0FAA3E0FB64117003EA641160A5
:103027001190016CE0FEA3E0FFA3E0FCA3E0FD121A
:10303700583E90016FE004F0700690016EE004F0D6
:1030470090016EE0FEA3E0FFC39440EE940150545C
:103057009001BBE0FCA3E0FDC3EF9DFFEE9CFE905B
:103067000171E07A00B5072AEAB5062690016EECF1
:10307700F0A3EDF090016DE004F0700690016CE0B4
:1030870004F0C390016DE094F090016CE09400406F
:103097000A22900177E004F0022F93900178E00470
:0430A700F0022F7094
:0130AB002202
:0E40590090016CEEF0A3EFF0A3ECF0A3EDF0FD
:10406700900180ECF0A3EDF0900173E0FF640C6029
:1040770012EF6410600DEF64186008EF64206003AE
:104087000241D19002857401F0A37401F0A37482F8
:10409700F0A3EFF01235D6900173E0FFB4200B9038
:1040A700017EE4F0A37480F0801EEFB4180B90013A
:1040B7007EE4F0A37448F0800FEF75F002A4FF9040
:1040C700017EE5F0F0A3EFF0E490017AF0A3F09021
:1040D700017EE0FEA3E0FF90017AE0FCA3E0FDC3D0
:1040E7009FEC9E40030241D174822DF582E4340196
:1040F700F583E0FF900178E4F0A3EFF0E490017C12
:10410700F0A3F0900179E030E71890016CE0FEA38E
:10411700E0FFA3E0FCA3E0FD900174E0FAA3E0FB5D
:10412700801F900176E0FAA3E0FB64117003EA6454
:1041370011601190016CE0FEA3E0FFA3E0FCA3E097
:10414700FD12583E900179E025E0F0900178E033C8
:10415700F090016FE004F0700690016EE004F090BB
:104167000180E0FEA3E0FFC390016FE09FFD900197
:104177006EE09EFC900173E07A00B5051CEAB50479
:104187001890016EEEF0A3EFF090016DE004F0706F
:104197002890016CE004F0802090017DE004F0702D
:1041A7000690017CE004F0C390017DE09408900143
:1041B7007CE09400500302410A90017BE004F07018
:0A41C7000690017AE004F00240D6F1
:0141D10022CB
:103D4B0090015FEEF0A3EFF0A3ECF0A3EDF0A3EB8B
:073D5B00F0A3EAF0A3E9F078
:103D6200E490016BF0900163E0FBA3E0FAA3E0F9B9
:103D72001206B8FF7003023ED290016BE0600302AC
:103D82003E32EFD3948040057401F080D8900161F7
:103D9200E0FCA3E0FDD39440EC94014003023ED248
:103DA2001206B8FB900166E0900171F0900167E0A5
:103DB200FFA3E0900172CFF0A3EFF0900169E0FF62
:103DC200A3E0900174CFF0A3EFF090015FE0FEA3B7
:103DD200E0FF122DF6900164E475F001120787905E
:103DE2000166E0FFB40808900160E024068009EF54
:103DF200C313FF900160E02FF090015FE03400F008
:103E0200D3900160E094F090015FE09400500302CF
:103E12003D6790016474FFF5F0120787900166E038
:103E2200FF900162E02FF0900161E03400023EC792
:103E3200E490016BF0900161E0FCA3E0FDD39440BB
:103E4200EC94014003023ED2900163E0FBA3E0FA4E
:103E5200A3E0F9A3E0900173F0900167E0FFA3E013
:103E6200900174CFF0A3EFF0900169E0FFA3E0901E
:103E72000176CFF0A3EFF090015FE0FEA3E0FF1226
:103E82004059900164E475F002120787900166E0E0
:103E9200FF7E00900160E02FF090015FE03EF0D3E2
:103EA200A3E094F090015FE094005003023D67901C
:103EB200016474FF75F0FE120787900162E02FF033
:103EC200900161E03EF0E490015FF0A3F0023D67F3
:013ED20022CD
:101C3D000000000000000000000000000000000097
:101C4D000000000000001FCC000C00000000000090
:101C5D000000080030006000080030006000000047
:101C6D00022003FC1E20022003FC1E200220000087
:101C7D0000000E1811043FFF10840C7800000000C6
:101C8D000F0010840F3800C007781884007800000A
:101C9D0000780F8410C411240E9800E4008400080D
:101CAD000800680070000000000000000000000047
:101CBD0000000000000007E018182004400200009A
:101CCD00000040022004181807E00000000000008A
:101CDD000240024001800FF00180024002400000EE
:101CED000080008000800FF80080008000800000E0
:101CFD000001000D000E00000000000000000000BB
:101D0D000000008000800080008000800080008046
:101D1D000000000C000C000000000000000000009E
:101D2D000000000600180060018006001800200069
:101D3D00000007F0080810041004080807F0000060
:101D4D000000080408041FFC00040004000000004B
:101D5D0000000E0C10141024104411840E0C000001
:101D6D0000000C1810041104110412880C700000EE
:101D7D00000000E00320042408241FFC00240000C0
:101D8D0000001F98108411041104108810700000B9
:101D9D00000007F008881104110418880070000075
:101DAD0000001C00100010FC13001C0010000000AF
:101DBD0000000E3811441084108411440E380000B8
:101DCD0000000700088C10441044088807F000003C
:101DDD00000000000000030C030C000000000000D8
:101DED0000000000000101060000000000000000DE
:101DFD0000000080014002200410080810040000BB
:101E0D0002200220022002200220022002200000D7
:101E1D00000010040808041002200140008000009A
:101E2D0000000E001200100C106C10800F0000004E
:101E3D0003E00C1813E4142417C4082807D000007D
:101E4D000004003C03C41C40074000E4001C0004D7
:101E5D0010041FFC1104110411040E880070000001
:101E6D0003E00C1810041004100410081C100000DE
:101E7D0010041FFC100410041004080807F00000E3
:101E8D0010041FFC1104110417C4100408180000DD
:101E9D0010041FFC1104110017C0100008000000F1
:101EAD0003E00C181004100410441C7800400000CE
:101EBD0010041FFC10840080008010841FFC10048F
:101ECD000000100410041FFC10041004000000009A
:101EDD0000030001100110011FFE10001000000092
:101EED0010041FFC110403801464181C100400005E
:101EFD0010041FFC1004000400040004000C00007A
:101F0D0010041FFC1F0000FC1F001FFC100400002C
:101F1D0010041FFC0C04030000E010181FFC10003F
:101F2D0007F00808100410041004080807F000005A
:101F3D0010041FFC10841080108010800F00000012
:101F4D0007F0081810241024101C080A07F20000CE
:101F5D0010041FFC1104110011C011300E0C0004EF
:101F6D0000000E1C11041084108410441C38000055
:101F7D001800100010041FFC1004100018000000C1
:101F8D0010001FF810040004000410041FF81000C6
:101F9D0010001E0011E0001C007013801C001000CA
:101FAD001FC0103C00E01F0000E0103C1FC00000EF
:101FBD001004180C163401C001C01634180C10048E
:101FCD0010001C00130400FC13041C001000000082
:101FDD000804101C1064108413041C041018000055
:101FED000000000000007FFE4002400240020000A1
:101FFD00000030000C0003800060001C0003000096
:10200D0000004002400240027FFE00000000000080
:10201D0000000000200040004000400020000000B3
:10202D00000100010001000100010001000100019B
:10203D0000004000400020000000000000000000F3
:10204D0000000098012401440144014400FC0004F7
:10205D0010001FFC008801040104008800700000BE
:10206D0000000070008801040104010400880000D4
:10207D000000007000880104010411081FFC000419
:10208D00000000F8014401440144014400C800006F
:10209D000000010401040FFC1104110411001800CB
:1020AD00000000D601290129012901C901060000FE
:1020BD0010041FFC008401000100010400FC000459
:1020CD0000000104190419FC0004000400000000C4
:1020DD000000000300010101190119FE00000000BC
:1020ED0010041FFC0024004001B4010C0104000089
:1020FD000000100410041FFC000400040000000088
:10210D00010401FC0104010001FC0104010000FCBB
:10211D00010401FC008401000100010400FC000425
:10212D00000000F8010401040104010400F800009E
:10213D00010101FF00850104010400880070000009
:10214D0000000070008801040104010501FF000179
:10215D000104010401FC0084010401000180000060
:10216D00000000CC01240124012401240198000069
:10217D0000000100010007F8010401040000000047
:10218D00010001F8000400040004010801FC000432
:10219D00010001800170000C001001600180010040
:1021AD0001F0010C003001C00030010C01F0010004
:1021BD0000000104018C00740170018C0104000009
:1021CD00010101810171000E001801600180010003
:1021DD0000000184010C013401440184010C000054
:1021ED00000000000000000001003EFC4002400223
:1021FD000000000000000000FFFF000000000000D4
:10220D000000400240023EFC010000000000000002
:10221D000000600080008000400040002000200091
:0D5DE500C295C2948FB0C296D296D294227D
:0C5CC700E0FF7E00125CD3E0FEA3E0FFD3
:0D5CD300D295C2948FB0C296D296D2942280
:075DC400125DCB7D017F1988
:0A5DCB00125DE5AE04AF05025CD3E3
:105D25003ECF2401FDE43FFCE0FEA3E0FF125A262E
:055D35007F22025DE584
:035E2B00025CD343
:0B5A1B00E0FEA3E0FFA3E0FCA3E0FD21
:105A2600AB05AA048F828E83E583FD7C007F02127C
:105A36005DCBAF82AD07FC7F03125DCBEAFD7C0038
:0F5A46007F06125DCBAF03AD07FC7F07025DCB80
:0B5AE8007C007F1F125DCB7F057E005D
:105AF300E4FDFCC3ED9FEC9E5015E4FBFA0BBB00E9
:0F5B0300010ABA04F8BB75F50DBD00010C80E472
:015B12002270
:1039FE007F327E00125AF37D017C00E4FF125DCB14
:103A0E007F32FE125AF39000477F64125AF3E5821A
:103A1E00644745836003023BB2FDFC7FEA125DCB37
:103A2E007D207FEB125DCB7D0C7FEC125DCB7DC4D8
:103A3E007FED125DCB7D407FE8125DCB7D387FE957
:103A4E00125DCB7D017FF1125DCB7D107FF2125D99
:103A5E00CB7DA37F27125DCBFD7F40125DCB7F41D7
:103A6E00125DCB0D7F42125DCB7D127F43125DCB7B
:103A7E007D107F44125DCB7D267F45125DCB7D0888
:103A8E007F46125DCB7D537F47125DCB7D027F4813
:103A9E00125DCB7D157F49125DCB7D197F4A125D7C
:103AAE00CB7F4B125DCB7D167F4C125DCB7D197F8C
:103ABE0050125DCB7D2F7F51125DCB7D2D7F52122B
:103ACE005DCB7D3E7F53125DCB0D7F54125DCB7F60
:103ADE0055125DCB7D2C7F56125DCB7D777F5712B5
:103AEE005DCB7D097F58125DCB7D067F59125DCB74
:103AFE007F5A125DCB7D0A7F5B125DCB7D1D7F5C95
:103B0E00125DCB7DCC7F5D125DCB7D1B7F1B125D6D
:103B1E00CB7D017F1A125DCB7D2F7F24125DCB7D75
:103B2E00577F25125DCB7D977F23125DCB7D367F30
:103B3E0018125DC47D887F1F125DCB7F05FE125A61
:103B4E00F37D80125AE87D90125AE87DD0125AE821
:103B5E007D057C007F17125DCBE4FD7F36125DCBB9
:103B6E007D387F28125DCB7F28FE125AF37D3C7C78
:103B7E0000125DCBE4FD7F02125DCB7F03125DCBA5
:103B8E007F04125DCB7DEF7F05125DCBFD7F0612AC
:103B9E005DCB7F07125DCB0D7F08125DCB7D3F7F26
:0B3BAE0009125DC47F327E00025AF352
:0850BE00900021EEF0A3EFF0D9
:1050C600A31208B600000000E4FDFCFFFE125A26FB
:1050D600125D359000231208B600000000E47F4000
:1050E6007E01FDFC900023E0F8A3E0F9A3E0FAA31B
:1050F600E0FBC312085A506D9000271208B6000054
:105106000000E47FF0FEFDFC900027E0F8A3E0F944
:10511600A3E0FAA3E0FBC312085A5027900021121D
:105126005CC7900027E0FCA3E0FDA3E0FEA3E0241B
:1051360001FFE43EFEE43DFDE43CFC90002712083E
:10514600AA80BF900023E0FCA3E0FDA3E0FEA3E05D
:105156002401FFE43EFEE43DFDE43CFC9000231206
:0551660008AA0250E35D
:01516B002221
:10582800900027E0FEA3E0FFA3E0FCA3E0FD9000CA
:065838002FE0FAA3E0FBE3
:10583E00900284EAF0A3EBF0900282EEF0A3EFF078
:10584E00C394F0EE94005021C3ED9440EC940150BB
:10585E0018900282125D2D900284E0FF7E00125E8F
:0A586E002BE0FEA3E0FF125E2B22E8
:10336200900029ECF0A3EDF0900027EEF0A3EFF02F
:0833720090002BEAF0A3EBF040
:10337A00D3EF9BEE9A402790002BE0FEA3E0FF904C
:10338A000035EEF0A3EFF0900027E0FDA3E09000F7
:10339A002BCDF0A3EDF0900027EEF0A3EFF0900014
:1033AA002DE0FEA3E0FF900029E0FCA3E0FDD39FFF
:1033BA00EC9E4018900035EEF0A3EFF090002DEC53
:1033CA00F0A3EDF0900029EEF0A3EFF0900027E0D3
:1033DA00FEA3E0FFC390002CE09FFF90002BE09E2D
:1033EA00900031F0FAA3EFF0FB900029E0FEA3E091
:1033FA00FFC390002EE09FFF90002DE09E900033C7
:10340A00F0A3EFF0EB4A702712582890002AE00444
:10341A00F07006900029E004F0900029E0FEA3E095
:10342A00FFC390002EE09F90002DE09E50DA22907C
:10343A000033E07002A3E07027125828900028E0B9
:10344A0004F07006900027E004F0900027E0FEA345
:10345A00E0FFC390002CE09F90002BE09E50DA2200
:10346A00900033E0FEA3E0FF900031E0FCA3E0FD12
:10347A00D39FEE6480F8EC6480985003023525EF00
:10348A0025E0FFEE33FEC3EF9DFFEE9C900035F082
:10349A00A3EFF090002BE0FCA3E0FD900027E0FEF4
:1034AA00A3E0FF6D7002EE6C70030235D212583041
:1034BA00900028E004F07006900027E004F0D39012
:1034CA000036E09400900035E064809480403090AB
:1034DA00002AE004F07006900029E004F09000321F
:1034EA00E025E0FD900031E033FC900034E025E077
:1034FA00FF900033E033FEC3EF9DFFEE9C800C90FB
:10350A000034E025E0FF900033E033FE900036E01F
:10351A002FF0900035E03EF002349D900032E02515
:10352A00E0FF900031E033FE900033E0FCA3E0FDC1
:10353A00C3EF9DFFEE9CA3F0A3EFF090002DE0FEF9
:10354A00A3E0FF900029E0FCA3E0FD6F7002EC6E9F
:10355A006076900027E0FEA3E0FF12583690002A1A
:10356A00E004F07006900029E004F0D3900036E001
:10357A009400900035E0648094804030900028E008
:10358A0004F07006900027E004F0900032E025E095
:10359A00FD900031E033FC900034E025E0FF90001C
:1035AA0033E033FEC3EF9DFFEE9C800C900034E0C5
:1035BA0025E0FF900033E033FE900036E02FF090D4
:0B35CA000035E03EF0023545125828A5
:0135D50022D3
:104A8900900048EEF0A3EFF090004CEBF090004A54
:054A9900ECF0A3EDF0BC
:104A9E00900053ECF0A3EDF090004CE024E0F0E435
:104AAE00F990004CE075F010A4243DF582E5F03449
:104ABE001CF583E58229F582E43583F583E4939032
:104ACE000051F0E4A3F0900051E030E71890004858
:104ADE00E0FEA3E0FFA3E0FCA3E0FD90004DE0FAB2
:104AEE00A3E0FB801F90004FE0FAA3E0FB6411707F
:104AFE0003EA64116011900048E0FEA3E0FFA3E01A
:104B0E00FCA3E0FD12583E900051E025E0F090002D
:104B1E004BE004F0700690004AE004F0C3900049A8
:104B2E00E094F0900048E094005056900053E0FE60
:104B3E00A3E0FFC390004BE09FFD90004AE09EFC77
:104B4E00ED64104C7023EEF0A3EFF0900049E004FA
:104B5E00F07006900048E004F0C3900049E09440E5
:104B6E00900048E09401401022900052E004F0E0E2
:104B7E00C394085003024AD409E964106003024A40
:014B8E00AF77
:014B8F002203
:10500800900016EEF0A3EFF0A3ECF0A3EDF0A3EB05
:07501800F0A3EAF0A3E9F0A8
:10501F0090001AE0FBA3E475F00112079DA9F0FAC6
:10502F001206B8FB900018E0FCA3E0FD90001DE015
:10503F00FFA3E090004DCFF0A3EFF090001FE0FF33
:10504F00A3E090004FCFF0A3EFF0900016E0FEA387
:10505F00E0FF124A89C3900017E094E8900016E031
:10506F009400500AA3E02408F09000168020C3900B
:10507F000019E09430900018E09401E4900016506D
:10508F0013F0A3F0900019E02410F0900018E03412
:10509F0000F08007F0A3F0A3F0A3F090001AE0FB5C
:0E50AF00A3E0FAA3E0F91206B8600302501F56
:0150BD0022D0
:10471300900002EEF0A3EFF0A3ECF0A3EDF0A3EA18
:04472300F0A3EBF024
:10472700E490000EF0A3F09000141208B600000009
:1047370000900002125A1B125D35C2A47F03125A61
:10474700CE90000AE0FCA3E0FDA3E0FEA3E0FF7823
:104757001012086B125ACE90000AE0FCA3E0FDA3EA
:10476700E0FEA3E0FF780812086B125ACE90000A09
:10477700A3A3A3E0FF125ACE9000101208B60000C0
:104787000000900008E0FEA3E0FFE4FCFD900010AD
:10479700E0F8A3E0F9A3E0FAA3E0FBC312085A404C
:1047A7000302484C9000141208B600000000900065
:1047B70006E0FEA3E0FFE4FCFD900014E0F8A3E0B0
:1047C700F9A3E0FAA3E0FBC312085A503C125CF8C5
:1047D70090000FEFF0125CF890000EEFF07E0012E1
:1047E7005CD3A3E0FF125CD3900014E0FCA3E0FDD0
:1047F700A3E0FEA3E02401FFE43EFEE43DFDE43C2C
:10480700FC9000141208AA80A5900010A3A3E0FE54
:10481700A3E0FF900005E02FFF900004E090000266
:10482700125D25900010E0FCA3E0FDA3E0FEA3E0ED
:104837002401FFE43EFEE43DFDE43CFC9000101241
:0748470008AA024789D2A470
:01484E002247
:104D8C0090015FEEF0A3EFF0A3ECF0A3EDF0A3EA3B
:044D9C00F0A3EBF0A5
:104DA00090016D1208B60000000090015F125A1BBE
:104DB000125D359001691208B6000000009001658F
:104DC000E0FEA3E0FFE4FCFD900169E0F8A3E0F958
:104DD000A3E0FAA3E0FBC312085A4003024E6B9013
:104DE000016D1208B600000000900163E0FEA3E030
:104DF000FFE4FCFD90016DE0F8A3E0F9A3E0FAA365
:104E0000E0FBC312085A5027900167125CC790015B
:104E10006DE0FCA3E0FDA3E0FEA3E02401FFE43E7F
:104E2000FEE43DFDE43CFC90016D1208AA80BA90BE
:104E30000169A3A3E0FEA3E0FF900162E02FFF90D1
:104E40000161E090015F125D25900169E0FCA3E043
:104E5000FDA3E0FEA3E02401FFE43EFEE43DFDE40B
:0B4E60003CFC9001691208AA024DBD45
:014E6B002224
:102B140090001AEAF0A3EBF0900016EEF0A3EFF0A9
:102B2400A3ECF0A3EDF0C006C007A3E0FEA3E0FF12
:102B3400900016E0FAA3E02FFBEA3EFAA3E0FFA31D
:102B4400E090002DCFF0A3EFF090001EE0FFA3E093
:102B540090002FCFF0A3EFF0D007D006123362908D
:102B64000017E02401FF900016E03400FEC006C008
:102B740007900019E02401FD900018E03400FC9057
:102B8400001AE0FEA3E0FF900016E0FAA3E02FFF96
:102B9400EA3ECF24FFFBEF34FFFAA3E0FEA3E024D8
:102BA40001FFE43E90002DF0A3EFF090001EE0FF43
:102BB400A3E090002FCFF0A3EFF0D007D00612339C
:102BC40062900016E0FAA3E0FBFFAE02C006C00765
:102BD400A3E0FCA3E0FD90001CE0FEA3E0FF900056
:102BE40018E0F8A3E02FFFE83E90002DF0A3EFF0EB
:102BF40090001EE0FFA3E090002FCFF0A3EFF0D0F1
:102C040007D006123362900017E02401FB900016EF
:102C1400E03400FAAF03FEC006C007900019E024B8
:102C240001FD900018E03400FC90001CE0FEA3E0DD
:102C3400FF900018E0F8A3E02FFFE83ECF24FFCF79
:102C440034FF90002DF0A3EFF090001EE0FFA3E00E
:102C540090002FCFF0A3EFF0D007D006123362908C
:102C6400001CE0FEA3E0FF900019E02FFD90001887
:102C7400E03EFC90001AE0FEA3E0FF900016E0FAAC
:102C8400A3E02FFBEA3EFA90001CE0FEA3E0FF90D5
:102C94000018E0F8A3E02FFFE83E90002DF0A3EF2A
:102CA400F090001EE0FFA3E090002FCFF0A3EFF020
:102CB400900016E0FEA3E0FF123362900017E024B8
:102CC40001FF900016E03400FEC006C00790001C0F
:102CD400E0FEA3E0FF900019E02FFF900018E03E13
:102CE400CF24FFFDEF34FFFC90001AE0FEA3E0FFC9
:102CF400900016E0FAA3E02FFFEA3ECF24FFFBEF9B
:102D040034FFFA90001CE0FEA3E0FF900018E0F806
:102D1400A3E02FFFE83ECF24FFCF34FF90002DF037
:102D2400A3EFF090001EE0FFA3E090002FCFF0A3EC
:102D3400EFF0D007D00612336290001AE0FEA3E051
:102D4400FF900017E02FFB900016E03EFAAF03FE61
:102D5400C006C007900018E0FCA3E0FD90001CE052
:102D6400FEA3E0FF900018E0F8A3E02FFFE83E90F8
:102D7400002DF0A3EFF090001EE0FFA3E090002FE1
:102D8400CFF0A3EFF0D007D00612336290001AE020
:102D9400FEA3E0FF900017E02FFF900016E03ECF67
:102DA40024FFFBEF34FFFAAF03FEC006C007900018
:102DB40019E02401FD900018E03400FC90001CE0B0
:102DC400FEA3E0FF900018E0F8A3E02FFFE83ECF59
:102DD40024FFCF34FF90002DF0A3EFF090001EE00D
:102DE400FFA3E090002FCFF0A3EFF0D007D00602AE
:022DF400336248
:1057DA005F029BFF5C07FF4C95FF13C300000000AC
:1057EA0000000000000000000000000000000000AF
:0A57FA0000004102BAD04102BB904A
:105BEA00EF7803C333CE33CED8F9FFE4FDFCC3ED1F
:0C5BFA009FEC9E50070DBD00010C80F2D6
:015C0600227B
:105CAD00E4FEEF30E704D2828002C282EF25E0FFEE
:095CBD00C281D2810EEEB408E9A7
:015CC60022BB
:1058C700E4FDFBFAC281C282C2A6125CAD7F067EEE
:1058D70000125BEAC2817F017E00125BEAD281C2BD
:1058E70081E4FDEB25E0FBEA33FAC281D281308304
:1058F700050BBB00010A0DEDB410E8EAC4F854F03B
:0D590700C868FAEBC4540F48D2A6AE02FFE8
:015914002270
:023BB900A9075A
:103BBB00E490003EF0A3F0900032F0A3F0AF0112BE
:103BCB0058C7AC06AD07900033E025E0FF900032FC
:103BDB00E033FE74342FF58274003EF583ECF0A3D2
:103BEB00EDF0900033E004F07006900032E004F04A
:103BFB00C3900033E09405900032E0940040BEE4A3
:103C0B00900032F0A3F0900032E0FEA3E0FFC394EB
:103C1B0004EE94004003023CE5EF2401FFE43EADCB
:103C2B0007FCC3ED9405EC94004003023CD1ED2559
:103C3B00E0FFEC33FE74342FF58274003EF583E025
:103C4B00FAA3E0FB900033E025E0FF900032E03375
:103C5B00FE74342FF58274003EF583E0FEA3E0FF83
:103C6B00D39BEE9A4058900040EEF0A3EFF0ED2579
:103C7B00E0FFEC33FE74342FF58274003EF583E0E5
:103C8B00FAA3E0FB900033E025E0FF900032E03335
:103C9B00FE74342FF58274003EF583EAF0A3EBF04B
:103CAB00900040E0FAA3E0FBED25E0FFEC33FE745F
:103CBB00342FF58274003EF583EAF0A3EBF00DBDD3
:103CCB0000010C023C2D900033E004F06003023C39
:103CDB0011900032E004F0023C11E490003EF0A39E
:103CEB00F0900032F0A304F0900032E0FEA3E0FF6E
:103CFB00C39404EE94005032EF25E0FFEE33FE74D4
:103D0B00342FF58274003EF583E0FEA3E0FF9000B4
:103D1B003FE02FF090003EE03EF0900033E004F0E7
:103D2B0070C6900032E004F080BE90003EE0FEA32F
:0F3D3B00E0FF7C007D03120732A3EEF0A3EFF050
:013D4A002256
:0B58780090002AEBF0A3EAF0A3E9F097
:105883009002BAE0FF123BB9900030EEF0A3EFF0C4
:105893009002BBE0FF123BB9900030E0F9A3E0FDBA
:1058A30090002AE0FBA3E0FAA3E0C98DF01207DE23
:1058B30090002DE0FBA3E0FAA3E0F9EE8FF01207CE
:0358C300DE7F0184
:0158C60022BF
:10448D0090001F7401F0A37402F0A374AAF07B01D5
:04449D007A0279A87E
:0B44A10090001CEBF0A3EAF0A3E9F090
:1044AC0090002D7401F0A37400F0A37424F07B0130
:1044BC007A007922125878EF7002FF2290002D7446
:1044CC0001F0A37400F0A37428F07B017A00792624
:1044DC00125878EF7002FF22900022E0FEA3E0FF5A
:1044EC00900026E0FCA3E0FDD39FEC9E500EED2443
:1044FC0032FDE43CFCC3EF9DEE9C402A900026E08C
:10450C00FEA3E0FF900022E0FCA3E0FDD39FEC9E15
:10451C0040030245CFED2432FDE43CFCC3EF9DEE9D
:10452C009C40030245CF900024E0FEA3E0FF9000E6
:10453C0028E0FCA3E0FDD39FEC9E500EED2432FD51
:10454C00E43CFCC3EF9DEE9C4024900028E0FEA3CD
:10455C00E0FF900024E0FCA3E0FDD39FEC9E5063B1
:10456C00ED2432FDE43CFCC3EF9DEE9C50559000D5
:10457C0026E0FEA3E0FF900023E02FFF900022E056
:10458C003EC313F9EF13FF90001CE0FBA3E0FAA36A
:10459C00E0C98FF01207DE900028E0FEA3E0FF9048
:1045AC000025E02FFF900024E03EC313F9EF13FF2A
:1045BC0090001FE0FBA3E0FAA3E0C98FF01207DE26
:0545CC007F01227F00C9
:0145D10022C7
:1045D200E4900010F07D047C0174FFFBFA7F047EFE
:0145E20001D7
:1045E300900021EEF0A3EFF0900025EAF0A3EBF0AA
:1045F300900023ECF0A3EDF0900021E0FAA3E0FBA0
:1046030024F4FFEA34FFFEC007EB240DFBE43AFA7F
:10461300A3E0FFA3E090002DCFF0A3EFF0900025DF
:10462300E0FFA3E090002FCFF0A3EFF0D007123309
:1046330062900021E0FAA3E0FBFFAE02C006C007D0
:10464300900024E024F4FD900023E034FFFCE0FE1E
:10465300A3E0240DFFE43E90002DF0A3EFF09000C3
:1046630025E0FFA3E090002FCFF0A3EFF0D007D019
:1046730006123362900022E02401FF900021E0340F
:1046830000FE900024E02401FD900023E03400FCB0
:10469300900025E0FAA3E0FB12583E900022E024AC
:1046A300FFFF900021E034FFFE900024E02401FD91
:1046B300900023E03400FC900025E0FAA3E0FB1215
:1046C300583E900022E02401FF900021E03400FED8
:1046D300900024E024FFFD900023E034FFFC9000D1
:1046E30025E0FAA3E0FB12583E900022E024FFFFEE
:1046F300900021E034FFFE900024E024FFFD9000B1
:1047030023E034FFFC900025E0FAA3E0FB02583ECF
:1055020090000EEEF0A3EFF0A3ECF0A3EDF0A3EA0F
:10551200F0A3EBF012583E90000FE02401FF900040
:105522000EE03400FE900010E0FCA3E0FDA3E0FAE0
:10553200A3E0FB12583E90000EE0FEA3E0FF9000B5
:1055420011E02401FD900010E03400FC900012E014
:10555200FAA3E0FB12583E90000FE02401FF9000F6
:105562000EE03400FE900011E02401FD900010E0F6
:0E5572003400FC900012E0FAA3E0FB02583E69
:104C950030A503024D63EF600612448D024D3912B3
:104CA500448DEF7003024D399002A8E0FCA3E0FDAE
:104CB500E41203569002ADE0F8A3E0F9A3E0FAA3ED
:104CC500E0FB12013EC004C005C006C0079002B556
:104CD500E0FCA3E0FDEC120356D003D002D001D0D6
:104CE5000012004D12038F9002A8EEF0A3EFF0A37F
:104CF500E0FCA3E0FDE41203569002B1E0F8A3E066
:104D0500F9A3E0FAA3E0FB12013EC004C005C0060A
:104D1500C0079002B7E0FCA3E0FDEC120356D003F8
:104D2500D002D001D00012004D12038F9002AAEEDE
:104D3500F0A3EFF09002ACE020E74474C0F09002DD
:104D4500A8E0FFA3E09002A4CFF0A3EFF09002AAA1
:104D5500E0FFA3E09002A6CFF0A3EFF08021900240
:104D6500ACE030E705547FF08015E49002A4F0A391
:104D7500F0A3F0A3F074FFA3F0A3F0A3F0A3F090C9
:074D850002ACE05480FF22A4
:1013C300E4900010F0F074FFFFFE1250BE7B007A31
:1013D300F87D3C7C007F3C7E001245E3E49002AC48
:1013E300F0A31208B60000000090029EA3E0FAA347
:1013F300E0F5828A837F0112095E9002ACE0FF541C
:10140300C0FEBE40E4EF54BFF09002A8E0FEA3E0AC
:10141300FF900010E0FD25E025E02400F582E43490
:1014230000F583EEF0A3EFF09002AAE0FEA3E0FF45
:10143300ED25E025E02402F582E43400F583EEF0A7
:10144300A3EFF0900010E004F0E024FE60231460AA
:101453003214604D2403709174FFFBFA7D3C7C00D1
:101463007F3C7E001245E37B007AF87D3C7C008064
:10147300297D3C7C001245DB7B007AF87D047C01EE
:101483000216AC74FFFBFA7D047C017F3C7E0012E4
:1014930045E37B007AF87D047C017F047E01021A18
:1014A300A6900004E0FEA3E0FFC3900001E09FFFCD
:1014B300900000E09EFE125DF2EE3395E0FDFC909D
:1014C30000151208AA900006E0FEA3E0FFC39000F7
:1014D30003E09FFF900002E09EFE125DF2EE339563
:1014E300E0FDFC9000191208AA900015E0FCA3E0AF
:1014F300FDA3E0FEA3E0FFA804A905AA06FB1207CB
:10150300FD9000151208AA900019E0FCA3E0FDA3CA
:10151300E0FEA3E0FFA804A905AA06FB1207FD90BD
:1015230000191208AA900019E0FCA3E0FDA3E0FE55
:10153300A3E0FF900015E0F8A3E0F9A3E0FAA3E02D
:101543002FFFEA3EFEE93DFDE83CFCE412035112A5
:10155300517012038F900011EEF0A3EFF090000C86
:10156300E0FEA3E0FFC3900009E09FFF900008E0C6
:101573009EFE125DF2EE3395E0FDFC90001512081D
:10158300AA90000EE0FEA3E0FFC390000BE09FFFD4
:1015930090000AE09EFE125DF2EE3395E0FDFC90B2
:1015A30000191208AA900015E0FCA3E0FDA3E0FED9
:1015B300A3E0FFA804A905AA06FB1207FD900015E6
:1015C3001208AA900019E0FCA3E0FDA3E0FEA3E04B
:1015D300FFA804A905AA06FB1207FD90001912082B
:1015E300AA900019E0FCA3E0FDA3E0FEA3E0FF90B6
:1015F3000015E0F8A3E0F9A3E0FAA3E02FFFEA3E29
:10160300FEE93DFDE83CFCE4120351125170120364
:101613008F900013EEF0A3EFF0900011E0FCA3E035
:10162300FDE4120356C004C005C006C007900013B2
:10163300E0FCA3E0FDE4120356A804A905AA06AB47
:1016430007D007D006D005D00412024790001D1220
:1016530008AA7F337E337D737C3F90001DE0F8A39F
:10166300E0F9A3E0FAA3E0FB1202E440317F667ED7
:10167300667D867C3F90001DE0F8A3E0F9A3E0FAC5
:10168300A3E0FB1202E460025014900011E0700228
:10169300A3E0600A900013E07002A3E07012124509
:1016A300D27B007AF87D3C7C007F3C7E00021AA648
:1016B300900008E0FEA3E0FFC3900001E09FFF90CD
:1016C3000000E09EFE125DF2EE3395E0FDFC90001B
:1016D300151208AA90000AE0FEA3E0FFC3900003DE
:1016E300E09FFF900002E09EFE125DF2EE3395E074
:1016F300FDFC9000191208AA900015E0FCA3E0FD80
:10170300A3E0FEA3E0FFA804A905AA06FB1207FDB8
:101713009000151208AA900019E0FCA3E0FDA3E0D5
:10172300FEA3E0FFA804A905AA06FB1207FD90008B
:10173300191208AA900019E0FCA3E0FDA3E0FEA3A0
:10174300E0FF900015E0F8A3E0F9A3E0FAA3E02F8F
:10175300FFEA3EFEE93DFDE83CFCE4120351125171
:101763007012038F900011EEF0A3EFF090000CE0E5
:10177300FEA3E0FFC3900005E09FFF900004E09EFE
:10178300FE125DF2EE3395E0FDFC9000151208AAFF
:1017930090000EE0FEA3E0FFC3900007E09FFF90E0
:1017A3000006E09EFE125DF2EE3395E0FDFC900034
:1017B300191208AA900015E0FCA3E0FDA3E0FEA324
:1017C300E0FFA804A905AA06FB1207FD9000151265
:1017D30008AA900019E0FCA3E0FDA3E0FEA3E0FF4C
:1017E300A804A905AA06FB1207FD9000191208AA6E
:1017F300900019E0FCA3E0FDA3E0FEA3E0FF90004E
:1018030015E0F8A3E0F9A3E0FAA3E02FFFEA3EFE18
:10181300E93DFDE83CFCE412035112517012038FC1
:10182300900013EEF0A3EFF0900011E0FCA3E0FDB5
:10183300E4120356C004C005C006C007900013E0BD
:10184300FCA3E0FDE4120356A804A905AA06AB070E
:10185300D007D006D005D00412024790001D12080D
:10186300AA7F337E337D737C3F90001DE0F8A3E0B5
:10187300F9A3E0FAA3E0FB1202E4401D7F667E6653
:101883007D867C3F90001DE0F8A3E0F9A3E0FAA376
:10189300E0FB1202E4601440121245D27B007AF896
:1018A3007D3C7C007F3C7E00021AA6900008E0FE8F
:1018B300A3E0FFC3900005E09FFF900004E09EFEBD
:1018C300125DF2EE3395E0FDFC9000151208AA902C
:1018D300000AE0FEA3E0FFC3900007E09FFF900033
:1018E30006E09EFE125DF2EE3395E0FDFC900019DA
:1018F3001208AA900015E0FCA3E0FDA3E0FEA3E01C
:10190300FFA804A905AA06FB1207FD9000151208FB
:10191300AA900019E0FCA3E0FDA3E0FEA3E0FFA86A
:1019230004A905AA06FB1207FD9000191208AA9044
:101933000019E0FCA3E0FDA3E0FEA3E0FF90001587
:10194300E0F8A3E0F9A3E0FAA3E02FFFEA3EFEE903
:101953003DFDE83CFCE412035112517012038F90D9
:101963000011EEF0A3EFF090000CE0FEA3E0FFC344
:10197300900001E09FFF900000E09EFE125DF2EEFA
:101983003395E0FDFC9000151208AA90000EE0FECE
:10199300A3E0FFC3900003E09FFF900002E09EFEE0
:1019A300125DF2EE3395E0FDFC9000191208AA9047
:1019B3000015E0FCA3E0FDA3E0FEA3E0FFA804A95B
:1019C30005AA06FB1207FD9000151208AA9000193C
:1019D300E0FCA3E0FDA3E0FEA3E0FFA804A905AAA1
:1019E30006FB1207FD9000191208AA900019E0FCEB
:1019F300A3E0FDA3E0FEA3E0FF900015E0F8A3E061
:101A0300F9A3E0FAA3E02FFFEA3EFEE93DFDE83C3F
:101A1300FCE412035112517012038F900013EEF085
:101A2300A3EFF0900011E0FCA3E0FDE4120356C025
:101A330004C005C006C007900013E0FCA3E0FDE46A
:101A4300120356A804A905AA06AB07D007D006D0EF
:101A530005D00412024790001D1208AA7F337E337B
:101A63007D737C3F90001DE0F8A3E0F9A3E0FAA3A7
:101A7300E0FB1202E4401D7F667E667D867C3F901C
:101A8300001DE0F8A3E0F9A3E0FAA3E0FB1202E4EF
:101A9300601740151245D27B007AF87D3C7C007FAD
:101AA3003C7E001245E30213EC900000E0FEA3E04D
:101AB300FFC3900005E09FFD900004E09EFCE4124C
:101AC3000356A804A905AA06AB07E4FFFE7D487CDC
:101AD300431202479002AD1208AA900000E0FEA351
:101AE300E0FF900005E02FFD900004E03EFCE412CF
:101AF30003569002ADE0F8A3E0F9A3E0FAA3E0FBFC
:101B030012013EA804A905AA06AB07E4FFFE7DA0C7
:101B13007C43120049E4FBFAF978401202471203AE
:101B23008F9002B5EEF0A3EFF0900002E0FEA3E089
:101B3300FFC390000BE09FFD90000AE09EFCE412BF
:101B43000356A804A905AA06AB07E4FFFE7D487C5B
:101B5300431202479002B11208AA900002E0FEA3CA
:101B6300E0FF90000BE02FFD90000AE03EFCE41242
:101B730003569002B1E0F8A3E0F9A3E0FAA3E0FB77
:101B830012013EA804A905AA06AB07E4FFFE7DA047
:101B93007C43120049E4FBFAF9784012024712032E
:101BA3008F9002B7EEF0A3EFF09002ADE0FCA3E05C
:101BB300FDA3E0FEA3E0FF12038F125DF2D3EF94C7
:101BC30002EE64809480501F9002B1E0FCA3E0FD1C
:101BD300A3E0FEA3E0FF12038F125DF2D3EF9402A2
:101BE300EE64809480403D1245D27B007AF87D3CC0
:101BF3007C007F3C7E001245E39002B9E070047FD5
:101C03000180027F009002B9EFF0600BA37490F0A3
:101C1300A374D0F00213EC9002BA74D0F0A37490C2
:101C2300F00213EC74FFFFFE1250BE7FE87E031236
:091C33005BAC74FFFFFE1250BE11
:011C3C002285
:10000E009002BA7490F0A374D0F09002B574FFF021
:10001E00A374F4F09002AD1208B63DF973DA9002B3
:10002E00B77401F0A3744AF09002B11208B6BDAADB
:03003E00F35E224C
:105C070090002D7401F0A37402F0A374AAF07B0135
:0D5C17007A0279A812587812000E7F01223F
:0F5CE000139283125CEFEBC313FB125CEFD281C4
:085CEF007F207E1DDEFEDFFCBC
:015CF700228A
:0B484F00900016EBF0A3EAF0A3E9F0E4
:10485A007B017A0079191252C2900016E0FBA3E09C
:10486A00FAA3E0F974321206FE900016E0FBA3E008
:10487A00FAA3E0F9900001743012071090001FE0CB
:10488A00FFC4540F2430900002120710EF540F2473
:10489A0030900003120710900004742F1207109032
:1048AA00001DE0FFC4540F2430900005120710EFDA
:1048BA00540F2430900006120710900007742F122C
:1048CA00071090001CE0FFC4540F24309000081217
:1048DA000710EF540F243090000912071090000AB5
:1048EA00742F12071090001BE0FFC4540F2430905D
:1048FA00000B120710EF540F243090000C1207100F
:10490A0090000D743A12071090001AE0FFC4540F79
:10491A00243090000E120710EF540F243090000F2D
:10492A00120710900010743A120710900019E0FF55
:10493A00C4540F2430900011120710EF540F243082
:10494A00900012120710900013742F120710900093
:10495A001EE0540F2430900014120710900015E442
:03496A0002071031
:0D5D0F00F9EF120710125D1CE4FF12591588
:085D1C007F027E3BDEFEDFFC8E
:015D2400225C
:0259DF00AB0714
:1059E100C2A7125CEFC281125CEFD2A7125CEF7A00
:1059F10008C281125CEFA903E9125CE0DAF37A08CC
:105A0100C281125CEFA905E9139283125CEFEDC329
:095A110013FD125CEADAE9C2A7F8
:015A1A002269
:02591500AB07DE
:10591700C2A7125CEFC281125CEFD2A7125CEF7ACA
:1059270008C281125CEFEB125CE0DAF57A08D281EB
:10593700125CEFEDC313FD125CEFC281125CEF3016
:1059470083054480FD8004ED547FFDDAE1C2A71290
:045957005CEFAF054D
:01595B002229
:104E6C00900016EBF0A3EAF0A3E9F0E4FD7F8E12BC
:104E7C0059DF125D1C900016E0FBA3E0FAA3E0F9E9
:104E8C001206B8FD7F801259DF125D1C900016E0EF
:104E9C00FBA3E0FAA3E0F99000011206D1FD7F829A
:104EAC001259DF125D1C900016E0FBA3E0FAA3E0A0
:104EBC00F99000021206D1FD7F841259DF125D1C9D
:104ECC00900016E0FBA3E0FAA3E0F99000031206B1
:104EDC00D1FD7F861259DF125D1C900016E0FBA3FA
:104EEC00E0FAA3E0F99000041206D1FD7F88125974
:104EFC00DF125D1C900016E0FBA3E0FAA3E0F99032
:104F0C0000051206D1FD7F8A1259DF125D1C90003C
:104F1C0016E0FBA3E0FAA3E0F99000061206D1FD1F
:0F4F2C007F8C1259DF125D1C7D807F8E0259DF52
:1052C200900020EBF0A3EAF0A3E9F0125D177F8DC6
:1052D200125915900020E0FBA3E0FAA3E09000062B
:1052E200125D0F7F8B125915900020E0FBA3E0FAAC
:1052F200A3E0900005125D0F7F89125915900020DE
:10530200E0FBA3E0FAA3E0F9900004EF1207101209
:105312005D177F87125915900020E0FBA3E0FAA3E6
:10532200E0F9900003125D107F851259159000205C
:10533200E0FBA3E0FAA3E0F9900002125D107F8384
:10534200125915900020E0FBA3E0FAA3E0F99000C7
:1053520001125D107F81125915900020E0FBA3E03D
:08536200FAA3E0F9EF0206FED8
:105DB200C2A7C281E4FD7F8E1259DF7D807F8E02F1
:025DC20059DFA7
:03000B000256F0AA
:1056F000C0E0C0F0C083C082C0D075D000C000C080
:1057000001C002C003C004C005C006C007758AAB53
:10571000758C2FD2A69002F1E0C3945F402AE4F08A
:10572000300A25C20A7B017A0279D6125D9F5004A5
:10573000D209800D7B017A0279D674FFFDFC1255E7
:10574000809002D6E4F0A3F09002F1E004F0D007DC
:10575000D006D005D004D003D002D001D000D0D0E4
:09576000D082D083D0F0D0E032F9
:105DD500438901758AAB758C2FD2A9D2AFC28C22AB
:1041D200C8D5C0FA00CEC2B6C800B5E7BBB000CFA2
:1041E200E0B2E100D3B2BCFEBCECB2E200BBADB0C7
:1041F200E500B4AEBFDAD6FACAD600535049D6FAB1
:10420200CAD600B5E7BBB0B9A6C4DCCEB4BFAAB764
:10421200C5A3A100CFE0B2E1B9A6C4DCCEB4BFAA67
:10422200B7C5A3A100B4AEBFDAD6FACAD6CEB4BF20
:10423200AAB7C5A3A10032CEB4BFAAB7C5A3A10035
:1042420033CEB4BFAAB7C5A3A10034CEB4BFAAB7B8
:10425200C5A3A10035CEB4BFAAB7C5A3A1004861CA
:1042620072647761726520436865636B2052756E74
:104272006E696E67002A2A2A2A2A2A2A466C6173E4
:104282006820436865636B2A2A2A2A2A2A2A005749
:1042920032355138300057323551313600573235C8
:1042A2005133320057323551363400466C617368EF
:1042B200204572726F72002A2A2A2ACAB1D6D3BC4A
:1042C200ECB2E22A2A2A2A00B6C1C8A1CAB1BCE4C9
:1042D200D6D02E2E2E002A2A2A2ACEC2B6C8BCEC4E
:1042E200B2E22A2A2A2A00B6C1C8A1CEC2B6C8D6CC
:1042F200D02E2E2E00B5B1C7B0CEC2B6C8A3BA001A
:10430200D6DC00C9E8B6A8CFB5CDB3CAB1BCE400CB
:10431200A1F800A88B004E657874004F6B00D2D1D3
:10432200C9E8B6A8CFB5CDB3CAB1BCE4A3A100A178
:0F433200FB00A1F600A1FE00000000000000004B
:105804005602BC0000000000000000000000000080
:0B581400000000000000000000C109BF
:1026B000E4900000F0A3F0C28C74FFFFFE1250BE45
:1026C000900008E4F0A37443F0A31208B600600C75
:1026D000A07B917A007D147C007F0A7E0012471354
:1026E0007BFF7A4179D29001667410F074FFA3F0F9
:1026F000A3F07411A3F0A3F07D477C007F0A7E0055
:10270000123D4B900008E4F0A37443F0A31208B606
:10271000006058867B467A007D147C007FA07E0096
:102720001247137BFF7A4179D79001667410F074D9
:10273000FFA3F0A3F07411A3F0A3F07D477C007F0A
:10274000A07E00123D4B900008E4F0A37444F0A377
:102750001208B600607D2A7B467A007D5D7C007F92
:102760000A7E001247137BFF7A4179DC9001667480
:1027700010F074FFA3F0A3F07411A3F0A3F07D9107
:102780007C007F0A7E00123D4B900008E4F0A374A9
:1027900044F0A31208B60060A25A7B467A007D5D21
:1027A0007C007F557E001247137BFF7A4179E190D0
:1027B00001667410F074FFA3F0A3F07411A3F0A3EA
:1027C000F07D917C007F557E00123D4B900008E427
:1027D000F0A37444F0A31208B60060C78A7B467A5F
:1027E000007D5D7C007FA07E001247137BFF7A4155
:1027F00079E69001667410F074FFA3F0A3F07411F1
:10280000A3F0A3F07D917C007FA07E00123D4B9051
:102810000008E4F0A37444F0A31208B60060ECBA18
:102820007B467A007DA67C007F0A7E001247137BE0
:10283000FF7A4179EF9001667410F074FFA3F0A362
:10284000F07411A3F0A3F07DDA7C007F0A7E001201
:102850003D4B900008E4F0A37444F0A31208B600C6
:102860006111EA7B917A007DA67C007F557E001283
:1028700047137BFF7A4179F49001667410F074FF7E
:10288000A3F0A3F07411A3F0A3F07DDA7C007F55D0
:102890007E00123D4B900008E4F0A37441F0A312B7
:1028A00008B600615EF27B917A007DEF7C007F0AC2
:1028B0007E001247137BFF7A4179FD900166741008
:1028C000F074FFA3F0A3F07411A3F0A3F07D207CBB
:1028D000017F0A7E00123D4B900008E4F0A3744192
:1028E000F0A31208B60061A8947B467A007DEF7CC5
:1028F000007FA07E00124713125B13D28CE490027B
:10290000D2F0A3F0A3F0A3F0900000E0B40B0FA36B
:10291000E0B4FF0A125B13E4900000F0A3F0900013
:1029200001E004F07006900000E004F0124F3B90CC
:1029300002D2E0FEA3E0FFC3940AEE94004011D35C
:10294000EF9450EE940050089002D2E4F0A304F00B
:102950009002D2E0FEA3E0FFC39455EE9400401233
:10296000D3EF949BEE940050099002D2E4F0A3744C
:1029700002F09002D2E0FEA3E0FFC394A0EE940028
:102980004012D3EF94DCEE940050099002D2E4F0B0
:10299000A37403F09002D4E0FEA3E0FFC3941EEE04
:1029A00094004011D3EF9458EE940050089002D454
:1029B000E4F0A304F09002D4E0FEA3E0FFC3945D32
:1029C000EE94004012D3EF94A1EE940050099002CF
:1029D000D4E4F0A37402F09002D4E0FEA3E0FFC3BD
:1029E00094A6EE94004012D3EF94EAEE94005009BE
:1029F0009002D4E4F0A37403F09002D4E0FEA3E0CC
:102A0000FFC394EFEE94004012D3EF9433EE9401A1
:102A100050099002D4E4F0A37404F09002D4E0FED4
:102A2000A3E0FFEE60030228FDEF24FE603B14608C
:102A30006B147003022ACF240360030228FD900266
:102A4000D2E0FEA3E0FFEE60030228FDEF24FE606B
:102A50000C14600F240260030228FD8000123ED394
:102A60000228FD12496D0228FD9002D2E0FEA3E08B
:102A7000FFEE60030228FDEF24FE601214601724AD
:102A80000260030228FD7BFF7A427905806C7BFFA0
:102A90007A42791680641238190226B79002D2E081
:102AA000FEA3E0FFEE60030228FDEF24FE60101499
:102AB0006015240260030228FD1230AC0228FD7B61
:102AC000FF7A42792780337BFF7A427938802B90D6
:102AD00002D2E0FEA3E0FFEE60030228FDEF24FE39
:102AE000601214601F240260030228FD7BFF7A42FB
:102AF000794280067BFF7A42794C74FFFDFC1255C7
:102B0000800228FD7BFF7A42795674FFFDFC125546
:042B1000800228FD1A
:105A8F0074FFFFFE1250BE900008E4F0A374AEF056
:105A9F00A31208B6005F4E507B8C7A007D497C00C4
:0E5AAF007F3C7E001247137FFF7E0F025BAC30
:10381900E4FFFE1250BE7BFF7A42796090001D746E
:1038290007F0A374E0F0E4A3F0A3F0FDFCFFFE129F
:1038390050087BFF7A42797790001D7407F0A374D2
:10384900E0F0E4A3F0A3F07D10FCFFFE1250081293
:10385900595CEF8EF012092D3875EF13387DEF148E
:103869003885EF15388DEF16000038B27BFF7A42A4
:10387900799180167BFF7A427998800E7BFF7A4294
:10388900799F80067BFF7A4279A69001667410F0D1
:10389900A374F8F0A3E4F074FFA3F0A3F07D207CF7
:1038A90000E4FFFE123D4B80267BFF7A4279AD9002
:1038B900001D74F8F0A3E4F074FFA3F0A3F07D20D9
:1038C9007C00E4FFFE1250087FFF7E0F125BAC7F85
:1038D900FF7E00125BAC7BFF7A4279B99001667476
:1038E90010F0A37407F0A374E0F0E4A3F0A3F07D53
:1038F90030FCFFFE123D4B7BFF7A4279CA9001668C
:103909007410F0A374F8F0A3E4F074FFA3F0A3F02B
:103919007D407C00E4FFFE123D4B7B017A0279BCBD
:1039290012484F7B017A0279BC9001667410F0A3AA
:1039390074F8F0A3E4F074FFA3F0A3F07D507C00C9
:10394900E4FFFE123D4B7FFF7E00125BAC7BFF7AEA
:103959004279D89001667410F0A37407F0A374E05B
:10396900F0E4A3F0A3F07D60FCFFFE123D4B7BFF6A
:103979007A4279E99001667410F0A374F8F0A3E42F
:10398900F074FFA3F0A3F07D707C00E4FFFE123D0C
:103999004B7B017A00790C12599F7FFF7E07125BDE
:1039A900AC7B017A00790C12599F7BFF7A4279F737
:1039B9009001667410F0A37407F0A374E0F0741119
:1039C900A3F0A3F07D807C00E4FFFE123D4B7B0158
:1039D9007A00790C90001D74F8F0A3E4F074FFA349
:1039E900F0A3F07D807C007F507E001250087FFF9D
:0539F9007E0F025BAC33
:1055800090015AEBF0A3EAF0A3E9F0A3ECF0A3ED4D
:01559000F02A
:1055910090015AE0FBA3E0FAA3E0F99001667410D0
:1055A100F0A374F8F0A3E4F090015DE0FFA3E090B4
:1055B1000169CFF0A3EFF0E4FDFCFFFE123D4B7F4C
:1055C100FF7E07125BAC90015AE0FBA3E0FAA3E077
:1055D100F9125D4FEF75F008A4FB7A00900165E4C4
:1055E100F0A37410F090015DE0FFA3E0900167CF9C
:0C55F100F0A3EFF0E4FDFCFFFE024D8C87
:104F3B009000057401F0A37402F0A374D4F07B010C
:044F4B007A0279D29B
:104F4F00900002EBF0A3EAF0A3E9F0A3E0F9A3E0ED
:104F5F00FAA3E090001FC9F0A3EAF0A3E9F09000D4
:104F6F0002E0FBA3E0FAA3E0F91244A1900002E0F3
:104F7F00FBA3E0FAA3E0F91207B3FDACF0E41203D0
:104F8F00567BE17A7A797078411202477B9A7A9947
:104F9F00796D78C112004D12038F900002E0FBA3D0
:104FAF00E0FAA3E0F9EE8FF01207DE900005E0FBC8
:104FBF00A3E0FAA3E0F91207B3FDACF0E412035635
:104FCF007BC37AF5792C78411202477BF67A2879E0
:104FDF008C78C112004D12038F900005E0FBA3E007
:104FEF00FAA3E0F9EE8FF01207DE30090BC2097B4E
:094FFF00017A0279D612548322D2
:10521800900016EBF0A3EAF0A3E9F0A3E0F9A3E00D
:10522800FAA3E090001FC9F0A3EAF0A3E9F0900008
:1052380016E0FBA3E0FAA3E0F91244A1900016E0FF
:10524800FBA3E0FAA3E0F91207B3FDACF0E4120304
:10525800567BE17A7A797078411202477B9A7A997B
:10526800796D78C112004D12038F900016E0FBA3F0
:10527800E0FAA3E0F9EE8FF01207DE900019E0FBE8
:10528800A3E0FAA3E0F91207B3FDACF0E412035669
:105298007BC37AF5792C78411202477BF67A287914
:1052A8008C78C112004D12038F900019E0FBA3E027
:0A52B800FAA3E0F9EE8FF00207DE22
:105BAC00E4FDFCC3ED9FEC9E5015E4FBFA0BBB002F
:0F5BBC00010ABA03F8BBE8F50DBD00010C80E447
:015BCB0022B7
:105B13007B017A0279BC12484FE49002CCF07B01FE
:105B23007A0279C790001DF0A3F074FFA3F0A3F0ED
:095B3300E4FDFC7FC8FE025008ED
:103ED300E490000CF0A3F07B017A0279BC12484F06
:103EE300E49002C3F07F1D7E051250BE900165E48D
:103EF300F0A37414F0A374FFF0A374E0F07B787A5A
:103F0300007D3C7C007F3C7E00124D8C900165E47B
:103F1300F0A37468F074FFA3F0A3F07B787A007DBC
:103F2300507C007F3C7E00124D8C7B017A0279BC71
:103F330090001D74F8F0A3E4F07411A3F0A3F07DD6
:103F43003D7C007F3D7E001250087BFF7A4379025F
:103F53009001667410F0A374F8F0A3E4F07411A355
:103F6300F0A3F07D3D7C007F967E00123D4B7B01EC
:103F73007A0279D090001D74F8F0A3E4F07411A3D1
:103F8300F0A3F07D3D7C007FA67E00125008E490F4
:103F930002C6F07B017A0279C49001667420F0A313
:103FA30074F8F0A3E4F07411A3F0A3F07D6E7C0029
:103FB3007F697E00123D4B124B9090000CE0FEA3F4
:103FC300E0FFF47003EE640B6004EF4E70367B0188
:103FD3007A0279BC12484FE49002CCF07B017A025A
:103FE30079C790001D74F8F0A3E4F074FFA3F0A365
:103FF300F07D967C007F647E0012500890000CE4F4
:10400300F0A304F090000DE004F0700690000CE0C3
:1040130004F0124F3B9002D4E0FEA3E0FFD39420C0
:10402300EE94014095EF9440EE9401508D90001969
:1040330074FFF0A3740BF0A37428F09002D2E0FF96
:10404300A3E090001CCFF0A3EFF07BFF7A2679B0BA
:06405300124341023FBDD3
:100B2800780E7C007D017BFF7A43793A7E007F074F
:100B38001206929000157401F0FB7A0279BC1248F3
:100B48004F7F1D7E051250BE7BFF7A4379059001C9
:100B5800667420F074FFA3F0A3F07411A3F0A3F05F
:100B68007D147C007F187E00123D4B7B017A027950
:100B7800BC90001D74F8F0A3E4F074FFA3F0A3F098
:100B88007D807C007F287E00125008900165E4F08B
:100B9800A37414F0A374C6F0A37418F07B287A0029
:100BA8007D697C007F647E00124D8C7BFF7A4379DF
:100BB800129001667410F0E4A3F0A3F07411A3F08E
:100BC800A3F07D6C7C007F737E00123D4B90001C6F
:100BD800E4F0A37414F0A3E4F0A3741FF07B287A64
:100BE800007D697C007F647E00122B14900165E40F
:100BF800F0A37414F0A374C6F0A37418F07B287AD9
:100C0800007D947C007F647E00124D8C7BFF7A43CC
:100C180079159001667410F0E4A3F0A3F07411A3A1
:100C2800F0A3F07D997C007F737E00123D4B90000D
:100C38001CE4F0A37414F0A3E4F0A3741FF07B2861
:100C48007A007D947C007F647E00122B14900165ED
:100C5800E4F0A37414F0A374C6F0A37418F07B280E
:100C68007A007DB47C007F287E00124D8C7BFF7A51
:100C7800437918E490001DF0A3F07411A3F0A3F0D9
:100C88007DB67C007F2A7E0012500890001CE4F09C
:100C9800A37414F0A3E4F0A3741FF07B287A007DFA
:100CA800B47C007F287E00122B14900165E4F0A329
:100CB8007414F0A374C6F0A37418F07B287A007D2E
:100CC800B47C007FAA7E00124D8C7BFF7A43791D8D
:100CD800E490001DF0A3F07411A3F0A3F07DB67C9E
:100CE800007FB97E0012500890001CE4F0A3741431
:100CF800F0A3E4F0A3741FF07B287A007DB47C0095
:100D08007FAA7E00122B14124B90E49002CFF09031
:100D180002CCF09002C9F09002C6F09002C3F090A5
:100D280002C0F0900015E014B407004003020EFF63
:100D3800900D4675F003A4C58325F0C58373020D95
:100D48005B020D97020DD3020E0F020E4B020E86A8
:100D5800020EC17B017A0279BC90001D7407F0A3D2
:100D680074E0F0E4A3F0A3F07D80FC7F28FE12502D
:100D7800087B017A0279D090001D74F8F0A3E4F0A2
:100D880074FFA3F0A3F07D807C007FC8020EFA7B7D
:100D9800017A0279C190001D7407F0A374E0F0E4B1
:100DA800A3F0A3F07D80FC7F50FE1250087B017AEF
:100DB8000279BC90001D74F8F0A3E4F074FFA3F06E
:100DC800A3F07D807C007F28020EFA7B017A0279ED
:100DD800C490001D7407F0A374E0F0E4A3F0A3F03E
:100DE8007D80FC7F68FE1250087B017A0279C190F1
:100DF800001D74F8F0A3E4F074FFA3F0A3F07D8065
:100E08007C007F50020EFA7B017A0279C790001DA0
:100E18007407F0A374E0F0E4A3F0A3F07D80FC7FF6
:100E280080FE1250087B017A0279C490001D74F884
:100E3800F0A3E4F074FFA3F0A3F07D807C007F684A
:100E4800020EFA7B017A0279CA90001D7407F0A39A
:100E580074E0F0E4A3F0A3F07D80FC7F98FE1250CC
:100E6800087B017A0279C790001D74F8F0A3E4F0BA
:100E780074FFA3F0A3F07D807C007F8080747B01E9
:100E88007A0279CD90001D7407F0A374E0F0E4A312
:100E9800F0A3F07D80FC7FB0FE1250087B017A023F
:100EA80079CA90001D74F8F0A3E4F074FFA3F0A3CE
:100EB800F07D807C007F9880397B017A0279D09020
:100EC800001D7407F0A374E0F0E4A3F0A3F07D80A4
:100ED800FC7FC8FE1250087B017A0279CD90001D74
:100EE80074F8F0A3E4F074FFA3F0A3F07D807C0015
:100EF8007FB07E001250089000197401F0A37402AC
:100F0800F0A374D4F07B017A0279D21252189002BD
:100F1800D4E0FEA3E0FFD39420EE9401402EEF949A
:100F280040EE9401502690001974FFF0A37426F047
:100F3800A374B0F09002D2E0FFA3E090001CCFF0C1
:100F4800A3EFF07BFF7A3E79D31243419002D2E0BF
:100F5800FEA3E0FFC39428EE94004029D3EF9450F9
:100F6800EE94005020A3E0FEA3E0FFC394B4EE94F7
:100F7800004012D3EF94C8EE94005009900015E099
:100F880004F030A5FD9002D2E0FEA3E0FFC39496E2
:100F9800EE9400500302105ED3EF94BEEE9400402E
:100FA8000302105EA3E0FEA3E0FFC394B4EE940036
:100FB800500302105ED3EF94C8EE94004003021071
:100FC8005E9002CDE024D0C454F0FFA3E024D04FBB
:100FD80090000EF09002CAE024D0C454F0FFA3E0C1
:100FE80024D04F90000FF09002C7E024D0C454F0F2
:100FF800FFA3E024D04F900010F09002C4E024D06A
:10100800C454F0FFA3E024D04F900011F09002C127
:10101800E024D0C454F0FFA3E024D04F900012F095
:101028009002D0E024D0900013F09002BEE024D0CB
:10103800C454F0FFA3E024D04F900014F07B017A51
:1010480000790E124E6C7BFF7A4379207D1D7C055A
:1010580012558030A5FD9002D2E0FEA3E0FFC394B4
:1010680064EE940050030211EED3EF948CEE9400DA
:1010780040030211EEA3E0FEA3E0FFC39469EE94DF
:101088000050030211EED3EF947DEE94004003026A
:1010980011EE900015E014B4070040030211EB9024
:1010A80010B575F003A4C58325F0C583730210CA73
:1010B8000210EE02112002115202117F0211AC023D
:1010C80011DC9002BFE004F0E0D394394009743099
:1010D800F09002BEE004F09002BEE0D394395003D1
:1010E8000211EB0211D79002C2E004F0E0D394326F
:1010F80040109002C1E0B43109A37431F09002C1EC
:1011080014F09002C2E0D3943950030211EB90021C
:10111800C1E004F0A30211D79002C5E004F0E0D3C7
:10112800943140109002C4E0B43309A37431F090B4
:1011380002C414F09002C5E0D3943950030211EBB5
:101148009002C4E004F0A30211D79002C8E004F0B2
:10115800E0D39433400F9002C7E0B43208A3743050
:10116800F09002C7F09002C8E0D39439407590021D
:10117800C7E004F0A380589002CBE004F0E0D394D9
:1011880039400F9002CAE0B43508A37430F09002D9
:10119800CAF09002CBE0D3943940489002CAE004E8
:1011A800F0A3802B9002CEE004F0E0D39439400FF6
:1011B8009002CDE0B43508A37430F09002CDF090E1
:1011C80002CEE0D39439401B9002CDE004F0A37422
:1011D80030F0800F9002D0E004F0E0D39437400361
:1011E8007431F030A5FD9002D2E0FEA3E0FFC39475
:1011F80064EE940050030213B1D3EF948CEE940084
:1012080040030213B1A3E0FEA3E0FFC39494EE945D
:101218000050030213B1D3EF94A8EE9400400302E8
:1012280013B1900015E014B4070040030213AE9008
:10123800124575F003A4C58325F0C5837302125ABD
:1012480002128F0212C60212FC0213320213680243
:10125800139E9002BFE0B4300F9002BEE0B4300895
:10126800A37439F09002BEF09002BFE0B43012903F
:1012780002BEE06430600AA3743AF09002BEE01443
:10128800F09002BF0213AB9002C2E0B43111900299
:10129800C1E0B4300AA37433F09002C17431F09005
:1012A80002C2E0B430129002C1E06430600AA37454
:1012B8003AF09002C1E014F09002C20213AB90021F
:1012C800C5E0B431109002C4E0B43009A37432F020
:1012D8009002C404F09002C5E0B430129002C4E059
:1012E8006430600AA3743AF09002C4E014F09002EB
:1012F800C50213AB9002C8E0B430119002C7E0B445
:10130800300AA37434F09002C77432F09002C8E037
:10131800B430129002C7E06430600AA3743AF090C7
:1013280002C7E014F09002C880799002CBE0B43094
:10133800119002CAE0B4300AA3743AF09002CA7459
:1013480035F09002CBE0B430129002CAE06430600D
:101358000AA3743AF09002CAE014F09002CB8043DA
:101368009002CEE0B430119002CDE0B4300AA374FC
:101378003AF09002CD7435F09002CEE0B43012907D
:1013880002CDE06430600AA3743AF09002CDE01414
:10139800F09002CE800D9002D0E0B431037438F0A2
:1013A8009002D0E014F030A5FD900015E0D394072A
:0B13B8005003020D2B7401F0020D2BFE
:104B900090002D7401F0A37420F074FFA3F0A3F033
:104BA0007BF07A007D207C01E4FFFE1233627BFF04
:104BB0007A4379319001667420F074FFA3F0A3F07A
:104BC0007411A3F0A3F07D207C017F147E00123DC0
:104BD0004B7BFF7A4379349001667420F0A374A272
:104BE000F0A37454F07411A3F0A3F07D207C017F36
:104BF000687E00123D4B90002D7401F0A37430F0DC
:104C000074FFA3F0A3F07B837A007D307C017F6C7E
:104C10007E0012336290002D7401F0A3743BF07497
:104C2000FFA3F0A3F07B787A007D257C017F787E5E
:104C30000012336290002D7401F0A37440F074FFF1
:104C4000A3F0A3F07B507A007D207C017F507E0092
:104C500012336290002D7401F0A37440F074FFA32E
:104C6000F0A3F07BA07A007D207C017FA07E001263
:104C700033627BFF7A4379379001667420F074FFCA
:104C8000A3F0A3F07411A3F0A3F07D207C017FBBFF
:054C90007E00023D4B17
:10434100900016EBF0A3EAF0A3E9F090001CE0FE68
:10435100A3E0FFC39450EE64809480503AEF940040
:10436100EE6480948040307BFF7A4379319001661E
:104371007420F074FFA3F0A3F0A3E4F0A3741FF082
:104381007D207C017F147E00123D4B900016A3E03E
:10439100FAA3E0F912095A90001CE0FEA3E0FFD352
:1043A1009450EE648094805003024440EF94A0EE58
:1043B1006480948040030244407BFF7A43793490C7
:1043C10001667420F0A374A2F0A37454F0A3E4F086
:1043D100A3741FF07D207C017F687E00123D4B900D
:1043E100002D7401F0A37430F074FFA3F0A3F07BEF
:1043F100837A007D307C017F6C7E001233629000F5
:104401002D7401F0A3743BF074FFA3F0A3F07B784B
:104411007A007D257C017F787E0012336290002D29
:104421007401F0A37440F074FFA3F0A3F07B507A01
:10443100007D207C017F507E001233621226B090F5
:10444100001CE0FEA3E0FFD394A0EE6480948040C2
:104451003AEF94F0EE6480948050307BFF7A437998
:10446100379001667420F074FFA3F0A3F0A3E4F089
:10447100A3741FF07D207C017FBB7E00123D4B9019
:0C4481000019A3E0FAA3E0F912095A2286
:10496D00E490000CF0A3F07F1D7E051250BE900167
:10497D0065E4F0A37432F0A3E4F0A3741FF07B9808
:10498D007A007D3C7C007F2D7E00124D8C90001CAA
:10499D00E4F0A3741EF0A374F8F0A3E4F07B84FAA2
:1049AD007D46FC7F37FE122B14124B9090000CE0CD
:1049BD00FEA3E0FFF44E6004EF4E70557B017A00CC
:1049CD00790E12599F7BFF7A4279F7900166741028
:1049DD00F0A374F8F0A3E4F07411A3F0A3F07D4EEE
:1049ED007C007F387E00123D4B7B017A00790E9062
:1049FD00001D74F8F0A3E4F074FFA3F0A3F07D4E56
:104A0D007C007F807E0012500890000CE4F0A3041F
:104A1D00F090000DE004F0700690000CE004F0D36F
:104A2D0090000DE094FF90000CE094004004E4F041
:104A3D00A3F0124F3B9002D4E0FEA3E0FFD39420ED
:104A4D00EE940150030249B9EF9440EE94014003F6
:104A5D000249B990001974FFF0A37426F0A374B045
:104A6D00F09002D2E0FFA3E090001CCFF0A3EFF096
:0C4A7D007BFF7A2679B01243410249B950
:1030AC0090000C74F8F0A3E4F07F1D7E051250BE66
:1030BC009001657401F0A37420F074FFA3F0A3F0E9
:1030CC007BF07A00E4FDFCFFFE124D8C900165E470
:1030DC00F0A37418F0A37405F0A3741DF07BF07AC0
:1030EC00007D087C01E4FFFE124D8C900165E4F03C
:1030FC00A37418F074FFA3F0A3F07B187A007D087A
:10310C007C01E4FFFE124D8C900165E4F0A3741871
:10311C00F0E4A3F0A3F07B18FA7D087C017F18FE85
:10312C00124D8C900165E4F0A37418F0A374C6F0F2
:10313C00A37418F0FB7A007D087C017F307E0012AE
:10314C004D8C900165E4F0A37418F0A3E4F0A37423
:10315C001FF07B187A007D087C017F487E00124DA1
:10316C008C900165E4F0A37418F0A374F8F0A3E458
:10317C00F07B18FA7D087C017F60FE124D8C90016B
:10318C0065E4F0A37418F0A374F8F0A3741FF07B3B
:10319C00187A007D087C017F787E00124D8C90019E
:1031AC0065E4F0A37418F0A37407F0A374E0F07B4B
:1031BC00187A007D087C017F907E00124D8C900166
:1031CC0065E4F0A37418F0A3747FF0A374FFF07B94
:1031DC00187A007D087C017FA87E00124D8C90012E
:1031EC0065E4F0A37418F0A374FFF0A374E0F07B13
:1031FC00187A007D087C017FC07E00124D8C9001F6
:10320C0065E4F0A37418F0A374B7F0A37423F07BF7
:10321C00187A007D087C017FD87E00124D8C124BF1
:10322C0090124F3B9002D4E0FEA3E0FFD39400EE4B
:10323C0094004021EF9408EE940150199002D2E0D2
:10324C00FEA3E0FFA3E0FCA3E0FD90000CE0FAA3DA
:10325C00E0FB1255029002D4E0FEA3E0FFD39420D1
:10326C00EE9401402EEF9440EE94015026900019FC
:10327C0074FFF0A37426F0A374B0F09002D2E0FFB8
:10328C00A3E090001CCFF0A3EFF07BFF7A2679B07F
:10329C001243419002D4E0FEA3E0FFD39408EE94D5
:1032AC0001500302322DEF9420EE940140030232C0
:1032BC002D9002D2E0FEA3E0FF7C007D18120732B5
:1032CC00EFB40A00400302322D9032DCF828287348
:1032DC000232FA0232FE02330802331502331B02A9
:1032EC00332702333402333B02334802335574FF25
:1032FC008001E490000CF0A3F002322D90000C74CD
:10330C00C6F0A37418F002322D90000CE4801190DA
:10331C00000C74F8F0A3E4F002322D90000C74F859
:10332C00F0A3741FF002322D90000C7407801290E1
:10333C00000C747FF0A374FFF002322D90000C741B
:10334C00FFF0A374E0F002322D90000C74B7F0A3E0
:06335C007423F002322D83
:065E250025372E33660054
:105D6400EF25E02405FFEFD3940040077E05DEFE17
:035D74001F80F39A
:015D77002209
:105D7800EFD39400400D00007E207D1CDDFEDEFC8C
:035D88001F80ED8C
:015D8B0022F5
:105B6400C200D2807F05125D64C2807FC8125D646A
:105B74007FC8125D64D2807F32125D64A28092007D
:075B84007F19125D64A2000D
:015B8B0022F7
:105C2400E4FC7D08C280ECC313FCD28030800344C2
:0B5C340080FC7F19125D64DDEBAF0403
:015C3F002242
:025C4000AD07AE
:105C42007B08C280ED1392807F19125D64D280EDD1
:0A5C5200C313FDDBED7F19025D6452
:105A5500E4FBFFFEFDFC125B647FCC125C407F44DF
:105A6500125C407F0A125D78125B647FCC125C4049
:105A75007FBE125C40125C24AB07125C24EF7F00F2
:095A8500FEEF2BFDE43EFEAF052F
:015A8E0022F5
:0B599F00900015EBF0A3EAF0A3E9F084
:1059AA00125A55AD07AC06E4120356E4FBFA7980A5
:1059BA00783D12013E90001B74FFF0A3745EF0A3C1
:1059CA007425F0A31208AA900015E0FBA3E0FAA33D
:0559DA00E0F902229239
:08581F00C10A4302EA0102D6AE
:105BCC00538EF7759A50438E04200003759C9830C1
:0E5BDC000003759CF7438E10D2AF75AF012207
:0B5DFE008F9BE59A30E1FB539AFD22D9
:105D8C001206B8FF600C125DFE740129F9E43AFAB0
:035D9C0080EE2274
:03004300025769F8
:10576900C0E0C0F0C083C082C0D075D000C000C006
:1057790001C002C003200A0E9002EA7401F0A3746A
:1057890002F0A374D6F0E59A30E02ED20A539AFEBD
:105799009002EAE0FBA3E0FAA3E0F9E59B1206FE1A
:1057A9009002EBE475F0011207879002EAE0FBA38F
:1057B900E0FAA3E0F9E41206FED003D002D001D04A
:0C57C90000D0D0D082D083D0F0D0E032ED
:1055FD000A004F4B0A004E6F7420666F756E642162
:10560D000A006C696E6B000000000000FF5E136401
:10561D0065736B746F70000000FF26B07374617258
:10562D00746368000000FF3819706963626F780059
:10563D00000000FF30AC74656D7065727400000081
:10564D00FF496D63616C656E6461720000FF3ED34E
:10565D007374696D650000000000FF5C5C73746518
:0A566D006D706572740000FF5C7739
:0B548300900008EBF0A3EAF0A3E9F0B2
:10548E00900009E475F003120787E490000BF0908A
:10549E00000BE0FFD39408505AEFB40803025E1CD1
:1054AE0090000BE075F00DA4240FF9745635F0FA48
:1054BE007BFFC003C002900008E0FBA3E0FAA3E06C
:1054CE00F8AC02AD03D002D003120B0BEF701C90A0
:1054DE00000BE075F00DA42419F582E43456F58323
:1054EE00740193FA740293F902095A90000BE004C6
:0354FE00F0809C9F
:015501002287
:105D9F001206B8B4410B9000011206D1B45402D3CD
:035DAF0022C322EA
:105C5C007B017A0279BC12484F7B017A0279BC1223
:0B5C6C005D8C7BFF7A5579FD025D8C9A
:105C77007B017A00790C12599F7B017A00790D120A
:0B5C87005D8C7BFF7A5579FD025D8C7F
:095E13007BFF7A5579FF025D8CDA
:095E1C007BFF7A567903025D8CCC
:07000300D285D286D28722CC
:105C9200EF24FE600C14600E2402700EA20B92859B
:0B5CA20022A20B928622A20B92872206
:105D3A00EF24FE600A14600A24027008A28522A2D7
:055D4A008622A2872261
:100046000203FBE86480F8E933E83360110460F0EA
:10005600ED33EC337009E8FCE9FDEAFEEBFF220420
:1000660060DED3EB9FEA9EE99DE8C2E78CF0C2F71B
:1000760095F0400CE8CCF8E9CDF9EACEFAEBCFFBE7
:100086001203C685D0F05804700320D5B3E8047077
:10009600075002B2D502040592D5EC0460F7E4CC11
:1000A600C0E0C398F8603B94186008400DD0E0FBB0
:1000B6000203DDE4FBFAC9FC8028E830E406E4C963
:1000C600FBE4CAFCE830E305E4C9CACBFCE8540704
:1000D6006010F8C3E913F9EA13FAEB13FBEC13FC0F
:1000E600D8F130F52FC3E49CFCEF9BFFEE9AFEEDB2
:1000F60099FDD0E0FBEF4E4D4C701222DB0302045B
:1001060002EC2CFCEF33FFEE33FEED33FDED30E772
:10011600EB0203DDEF2BFFEE3AFEED39FDD0E0FBFF
:1001260050130BBB0003020405ED13FDEE13FEEFA7
:0801360013FFEC13FC0203DDD2
:10013E00EC4D6011E8497017ED33EC3304600DE4BB
:10014E00FCFFFEFD22E933E8330470F80203FB12D4
:10015E0003C658046009E4CC2481500628500902D5
:10016E000405284003020402C0E0EB4A7044B98043
:10017E0006D0E0FB0203F1EF4E701CBD8008EBFFD2
:10018E00EAFEE9FD80EBE98DF0A4FEE5F002022720
:10019E00E9CDF9EAFEEBFFEF89F0A4FCE5F0CE899C
:1001AE00F0A42EFFE435F0CD89F0A42DFEE435F059
:1001BE008067EF4E7005BD80D780C3EF8BF0A4AC87
:1001CE00F0EE8BF0A42CFCE435F0F8EF8AF0A42CC2
:1001DE00E5F038FCE433CB8DF0A42CFCE5F03BF8D5
:1001EE00EE8AF0A42CFCE5F038F8E433CF89F0A4C5
:1001FE002CFCE5F038CF3400CE89F0A42FFFE5F0CB
:10020E003EFEE433C98DF0A42EFEE5F039CD8AF022
:10021E00A42FFFE5F03EFEE43DFD33D0E0FB50079A
:10022E000BBB000F020405EC2CFCEF33FFEE33FE8C
:06023E00ED33FD0203DDBB
:10024400020405EC5D046005E8590470030203FB35
:100254001203C6580460F6EC4860F2EC7004FDFE2C
:10026400FF22C860DB2481C85009C398600250068D
:100274000204029850CAF582E9294B4A7005AB8200
:100284000203F175F0007C1A7880C3EF9BEE9AEDBF
:1002940099400DC3EF9BFFEE9AFEED99FDE842F005
:1002A400DC23ACF0D0E0FFD0E0FED0E0FDAB822058
:1002B400E7101BEB60BAEC2CFCEF33FFEE33FEEDE2
:1002C40033FD0203DDE803F830E705C0F075F00004
:1002D400EF2FFFEE33FEED33FD40B830E7C280AAC6
:1002E40074F8CC6480CCC86480C8F582046043C3CD
:1002F400EB9FF5F0EA9E42F0E99D42F0E89C45F060
:1003040060305018E5825FFFE582F42B5582FB5084
:10031400210ABA001D09B90019088016E5825BFBA1
:10032400E582F42F5582FF50090EBE00050DBD0075
:10033400010CC3EB9FF5F0EA9E42F0E99D42F0E820
:0D0344009C45F06007CC4820E701B3EC2297
:1003510075F020800E75F010800575F0087D007E27
:10036100007F003392D530D50312084CEC33401096
:10037100EF33FFEE33FEED33FDEC33FCD5F0ED2230
:0E038100E5F0247EA2D513CC92E7CDCEFF226C
:10038F00EDD2E7CD33EC3392D524814006E4FFFE66
:10039F00FDFC22FCE4CFCECDCC24E0501174FF80C5
:1003AF00EDC3CC13CCCD13CDCE13CECF13CF047062
:0703BF00F030D5DE02084C0E
:10222D00E508241BF582E43400F583E005082290CF
:10223D00001830070390001BE475F0011208E70247
:10224D0006B82000E97F2ED2008018EF540F24909D
:10225D00D43440D4FF30040BEF24BFB41A00500324
:10226D002461FFE50960021509050CE50C700205F6
:10227D000B30070E900018E475F0011208E7EF021D
:10228D0006FE024A897403D2078003E4C207F508EB
:10229D009000181208FEE4F509F50BF50CE5096040
:1022AD00077F2012227080F5750AFFC201C200C29D
:1022BD0002C203C205C206C20812223CFF700D30D5
:1022CD0007057F00122281AF0CAE0B22B4255FC231
:1022DD00D5C20412223CFF24D0B40A00501A75F066
:1022ED000A780930D50508B6FF0106C6A426F620E2
:1022FD00D5047002D20380D924CFB41A00EF500454
:10230D00C2E5D204022573D20180C6D20080C0D2AC
:10231D000280BCD2D580BAD20580B47F2012227043
:10232D002002077401B5090040F112222DFF12227F
:10233D00700222AAD208D206809512222DFB1222FB
:10234D002DFA12222DF94A4B700679717A267BFFF0
:10235D0020022EE509602A7E008E8275830012060A
:10236D00D160060EEE650A70F0C2D5EBC0E0EAC092
:10237D00E0E9C0E0EE1225D4D0E0F9D0E0FAD0E0EB
:10238D00FB1206B8FF60AAEBC0E0EAC0E0E9C0E0CE
:10239D00122270D0E02401F9D0E03400FAD0E0FB35
:1023AD00E50A0460DCD50AD98087D20280A2122505
:1023BD00B660F7E50A700104120410A90A600DE574
:1023CD000A600914F50A12265EEF60F3EA30E7029F
:1023DD00F404C3995079EAF4250A0430E701E404C2
:1023ED00F50A800D1225B660C1EA050A250A120408
:1023FD0010EA900047F030E701E4250A04D50A04FD
:10240D00200501141225D4E4C0E012265E90004789
:10241D00E0601320E70714F0122258802204F0D058
:10242D00E014C0E07F00122258E50A600712224F27
:10243D00150A800B30050312224FD0E00222AAD0DC
:10244D00E00480C41225B6609EE50A0412041090C3
:10245D000047EAF0E50A2005026001042404122574
:01246D00D49A
:10246E0074FF04C0E012265E122258E50A2005020F
:10247E00600312224FD0E0B50AE87F451222629027
:10248E000047E07F2B30E7047F2DF404C0E01222DA
:10249E0070D0E075F00A84C0F0122259D0E01222FA
:1024AE00590222AA791080027908C206C208800851
:1024BE00D2D5790A8004790AC2D5E50A047002F5EC
:1024CE000AE4FAFDFEFF12222DFC7B0820011312F6
:1024DE00222DFD7B1030000A12222DFE12222DFF1E
:1024EE007B20EC3382D592D55013C3E43000069F87
:1024FE00FFE49EFEE42001039DFDE49CFCE4CBF88A
:10250E00C201EC700CCFCECDCCE824F8F870F3807D
:10251E0017C3EF33FFEE33FEED33FDEC33FCEB333D
:10252E00FB994002FB0FD8E9EB300105F8D0E0C46F
:10253E0048B201C0E00AEC4D4E4F78207B0070C2CD
:10254E00EAB50A0040BCC0E01225D6D0F0D0E0209B
:10255E000104C4C0E0C4B201C0F0122259D0F0D5BB
:10256E00F0EB0222AA12090723475324B25823186C
:10257E004C23144224B64F24BE4424BE49232D437B
:10258E0024C45523F14624514523BB47269150239D
:10259E001C2D23202E23432B232423234120267A54
:1025AE002A22DC480000233BE50AB4FF03750A0625
:1025BE0012222DFC12222DFD12222DFE12222DFF93
:1025CE0090004002044D790AA2D52003143005096B
:1025DE00B910020404B9080104A2D5200602500164
:1025EE00042002689202B509005034C0E07F20300A
:1025FE0003197F30A20272067205500F12262DC2E9
:10260E0002C206C205C2087F30800F300503E9C042
:10261E00E0122270300503D0E0F9D0E0B509CC30DD
:10262E0005177F30B9100C1222707F583004077FC7
:10263E00788003B908031222703002057F2D022222
:10264E00707F202008F87F2B2006F322920280CF85
:10265E007F00B40700500B2440F582E43400F5836C
:10266E00E0FF22286E756C6C2900D20112222D30EB
:10267E0001F8C201780930D50108F60222DC2D508E
:10268E0043495812222D2403B405004001E490263C
:10269E008C93122261743A122261D20375090402DC
:0226AE0024B254
:10516C000203FB22EDA2E7D2E7F9EC3340F260F345
:10517C00B4FF08ED547F70E8020405F82481C2E006
:10518C00C0E0F40428FAC313FCED92E7FD90002173
:10519C001208AAEEA2E7E9BA7F02C3133400940006
:1051AC00FA75F091A4E5F013F494FE8AF0A433E5BB
:1051BC00F033248CD313FDE492E7FE7F007C3F7523
:1051CC008302ECC0E0F8EDC0E0F9EEC0E0FAEFC00D
:1051DC00E0FB8583F090002112087E85F08312029B
:1051EC0047D0E0FBD0E0FAD0E0F9D0E0F812004D67
:1051FC00ED6480FD30E7011CD583C7ED33CC33F86B
:0C520C00D0E0A2E71328C313CC13FD224E
:1003C600E9D2E7C933E833F892D5EDD2E7CD33EC7D
:0703D60033FC5002B2D522F6
:1003DD00EC30E7100FBF000C0EBE00080DBD000481
:1003ED000BEB6014A2D5EB13FCED92E7FD2274FF2D
:1003FD00FCFDFEFF22E480F8A2D574FF13FC7D8086
:03040D00E480EF99
:10041000F920E73624F950037907E4F42402FBE5D8
:1004200082158270021583DBF6E024FB501BE96025
:1004300014E4F0E582158270021583E004F0B40A3A
:0D04400008E4F0D9EE7401F00A22C2D522C2
:10044D00ED33EC3392D5FA602AB4FF33EDC2E77B7E
:10045D00FF60067A047972E4227A04797B20D50450
:10046D007A047976224E614E002B494E46002D4975
:10047D004E4600E47A08F0A3DAFC7B00740722C034
:10048D0083C082ECC0E0EDC0E0EEC0E0EFC0E0EA7A
:10049D0075F010A4CAABF075F04DA42BFBE435F04C
:1004AD00FCEA2410FAEB34C5FBEC34D9FCEDC2E7C1
:1004BD00FF75F056A4F42411C5F0F434C58FF0A4E3
:1004CD002AE5F03BE43CF020E714120582D0E0FF72
:1004DD00D0E0FED0E0FDD0E0FC1202478014F40421
:1004ED00120582D0E0FFD0E0FED0E0FDD0E0FC129E
:1004FD00013ED082D083E0FAEDD2E7CD33EC332448
:10050D0082FBE4C3CF33CFCE33CECD33CD33DBF34C
:10051D007B0775F00A846004F0A31B0AE5F0F0A3D5
:10052D008FF0740AA4FFACF08EF0740AA42CFEAC0C
:10053D00F050010C8DF0740AA42CFDE435F0F0A3FD
:05054D00DBDE74072253
:100552003F8000004120000042C80000447A0000B1
:10056200461C400047C35000497424004B18968033
:100572004CBEBC205A0E1BCA6753C21C749DC5AE2A
:10058200FB60065407601C23231205B0EB5438604D
:100592000912059C1205AB12013EECF8EDF9EEFAD8
:1005A200EFCB22EB1205AB80F1543803241C9005EB
:1005B20052FE93FC0EEE93FD0EEE930ECE93FF22AF
:10540300025B8CE493A3F8E493A34003F68001F2D8
:1054130008DFF48029E493A3F85407240CC8C333AA
:10542300C4540F4420C8834004F456800146F6DF79
:10543300E4800B01020408102040809057D5E47EDD
:10544300019360BCA3FF543F30E509541FFEE4936E
:10545300A360010ECF54C025E060A840B8E493A335
:10546300FAE493A3F8E493A3C8C582C8CAC583CA60
:10547300F0A3C8C582C8CAC583CADFE9DEE780BE18
:015827000080
:1005C200E709F608DFFA8046E709F208DFFA803E1B
:1005D20088828C83E709F0A3DFFA8032E309F60808
:1005E200DFFA8078E309F208DFFA807088828C8370
:1005F200E309F0A3DFFA806489828A83E0A3F60824
:10060200DFFA805889828A83E0A3F208DFFA804CFD
:1006120080D280FA80C680D4806980F280338010D4
:1006220080A680EA809A80A880DA80E280CA80333D
:1006320089828A83ECFAE493A3C8C582C8CCC583B5
:10064200CCF0A3C8C582C8CCC583CCDFE9DEE78085
